:100000000C9456050C947E050C947E050C947E058C
:100010000C947E050C947E050C947E050C947E0554
:100020000C947E050C947E050C94B71E0C94261F30
:100030000C947E050C947E050C947E050C947E0534
:100040000C947E050C94FA210C947E050C947E058C
:100050000C947E050C947E050C947E050C9458211E
:100060000C947E050C947E050C947E050C947E0504
:100070000C947E050C947E050C947E050C947E05F4
:100080000C94A2210C947E050C947E050C947E05A4
:100090000C947E050C947E050C947E050C947E05D4
:1000A0000C947E050C947E050C947E05230829256E
:1000B00043242A252A0949252925290D49292925A5
:1000C000290D22252929290D2225292529252925FA
:1000D000492549252A254324292529252925090497
:1000E00022254A01011200060100800000000600DE
:1000F000FCF8A2A3BABBA2B8A0B0BCB090909090FC
:1001000080C0C4C7C4C4C0F8C0FF7FFF57BF5AF740
:10011000539F363E7F8D75F437CC7FB479F4631EE0
:100120007FB575F57FAE31FD53FB3B8D799F58CD83
:100130007FA6319E348C11AE3184398D308E38A437
:10014000118D198D39A4318E34CC118D39C435CC33
:1001500011AE318E34CC34A4008922B29340022DEA
:1001600002424801220A3152003F777379397363A2
:1001700073FFFFF2F0F0E1C38381C0E0F0B89C9C14
:10018000B9F1E0C0801656FC617C2E953FBF42F766
:10019000739F5AF363FC1F5F5BBB5AFC53FC1F5FEA
:1001A0005B3E4B1F5F3F7F9F5E9F7FF46D3F4FEB3A
:1001B0007FFA753F5F1F7B587EFA67F753BF5E9FDC
:1001C00072FF6FBF7ED502ADC8D24217603C008A75
:1001D00060384901009090989CB83070787C68F045
:1001E000F8D0E0E0E060E0F0F8F0E0C0E0C0E0600F
:1001F0007038381808A518C1044110841821080463
:10020000190121052108210821052126048820A49F
:10021000204610A81888108414C60421088414A449
:100220001026042608A41026040500000020000063
:1002300040004000420040C47C40407CC454141C38
:100240003CEC28A8E8A88880808084FC8424E43CD6
:1002500024E020407CE27BFF03417CFD0FE27FFE37
:100260006F6513DF049F7CE413DF049B14402810A8
:10027000215000E0C0808080F08080E0808080801D
:10028000004060E0606060E060404A015D01720132
:1002900088019F01B801D201EE010B022A024B0234
:1002A0006E029302BA02E40210033F037003A40338
:1002B000DC03170455049704DD0427057505C805FC
:1002C00020067D06E00649070301D5F08D14A1C87C
:1002D00081CFD9F1AF2000140213021202150207D8
:1002E00002080204010C01060100000000000000E9
:1002F000005F00000007000700147F147F14242A09
:100300007F2A1223130864623649562050000807DA
:100310000300001C2241000041221C002A1C7F1CFB
:100320002A08083E080800807030000808080808FD
:10033000000060600020100804023E5149453E0064
:10034000427F400072494949462141494D331814C2
:10035000127F1027454545393C4A49493141211111
:1003600009073649494936464949291E0000140003
:100370000000403400000008142241141414141426
:10038000004122140802015909063E415D594E7C84
:100390001211127C7F494949363E414141227F4139
:1003A00041413E7F494949417F090909013E414197
:1003B00051737F0808087F00417F41002040413F82
:1003C000017F081422417F404040407F021C027F91
:1003D0007F0408107F3E4141413E7F090909063EE6
:1003E0004151215E7F0919294626494949320301B5
:1003F0007F01033F4040403F1F2040201F3F4038C7
:10040000403F631408146303047804036159494DA1
:1004100043007F4141410204081020004141417FD7
:10042000040201020440404040400003070800204D
:10043000545478407F28444438384444442838444D
:1004400044287F385454541800087E090218A4A484
:100450009C787F0804047800447D40002040403DA3
:10046000007F1028440000417F40007C047804781D
:100470007C080404783844444438FC1824241818B0
:10048000242418FC7C08040408485454542404040C
:100490003F44243C4040207C1C2040201C3C4030F9
:1004A000403C44281028444C9090907C4464544C28
:1004B000440008364100A069466900129042016775
:1004C000800015904200F58000129042007180007B
:1004D000159042010890400087903E0190904201A3
:1004E0007A800015904200F58000129042007180E1
:1004F0000015904200839043008590420087904011
:1005000001909042017A800015904200F58000121F
:10051000904200718000159042010890430087903E
:10052000450190903D0640903B017A800015903B3C
:1005300000F5800012903B0071800015903B01088F
:10054000903D0087903E0190903D017A800015908B
:100550003D00F5800012903D0071800015903D0136
:1005600008903E0087904001909045019090420194
:1005700090903E019090390190904006408001900B
:100580009039025890400258903E025890390258D3
:10059000903E019080019090420258800065904A00
:1005A0000190800062904A0190904901909047012B
:1005B0009090490190904A00C8800190904A02585A
:1005C000904C0190800190904A017B800014904AE9
:1005D000019090490190904A0640800640E000005A
:1005E0000000240027002A002D0030000000000039
:1005F000250028002B002E0031000404040404030D
:1006000004050202020204030202020206060606B2
:1006100006060404020202040404080201104080D9
:1006200040102040804080080204018040201002D9
:1006300001108010204040200000000200090F003F
:1006400000030401000C0000000000000000000096
:1006500000000000000000020302007F1E380000BE
:1006600060704C4F73633F1D05051D3F413D59654B
:100670007320423D4E6F004162616E646F6E3F00B9
:1006800047616D6520506175736564210004041530
:100690000E04040E150404080808770808086341CE
:1006A0000000004163007F0E1C0E0E007F0E0E1C2A
:1006B0000E007F0E0E0E1C007F0E0E0E0E0C060F8F
:1006C000060C80E030ACFF8381818183FFAC30E099
:1006D000800001030707070707000103070F0F0D3D
:1006E000070003071F3F1D0505F87F1D05050505CC
:1006F00005001FFD3D0505050500FF7F3D050505BE
:1007000005060F1303130F060E130303171E0C0623
:100710000F1303130F060C1E170303130E0000051F
:100720000403050505050502040505050301080682
:1007300007040106060806030403080304241EA494
:10074000143E8A241EA40A3E9424148E14241214E7
:100750008E141210138E131002148E340804348E6B
:10076000340408348E140204348E3404103C8A009D
:10077000000014BE040084348E34081C36040018B3
:10078000A40C028C9C040000B8140000281E280051
:100790002C1E2802241E2800261E2802241E2800A3
:1007A000261E2802241E2812259327122205012026
:1007B000201173021753022005A237128A0F050079
:1007C000909035021EF501DE0A143D1423462412D2
:1007D0009210D5012085011808AF370C660A9022C7
:1007E000020069011C0901620FAB2F18992A010050
:1007F0009201F00019AC0052657365742053617664
:1008000065004F6666004F6E004D757369633A0070
:100810004C6576656C3A00506C6179005265717573
:10082000697265643A002529002800536176656481
:100830003A004C6576656C3A00546F6F20626164D3
:100840002E2E2E00566963746F727921000307FD06
:10085000AF57FD07030000FFAA55FF0000C0E0BF2F
:10086000EAF5BFE0C00000E0A050F800000B0B0B61
:100870000B0B0B0B0B1C3E736B331B0B0B3B7BDB14
:10088000FB7BDB7B3B000000FFFF0000000303035A
:10089000030303030355115544551155440000004B
:1008A00000FF551144333B3DFFFF3B373781422466
:1008B000181824428180402010182442810102042B
:1008C0000818244281000040686434363B8080C0B0
:1008D000C0C080C0C0003078FCF46830000C3E2FEF
:1008E000FDFF3B1E0C006038FEFF3C7060010307FB
:1008F0000D07050F0B0B0B0D0F1B1B3F6FFB6E3C0A
:100900000000000000000080C040E0B8FE1F1B0F88
:100910000507070B0F070503030303050F0B1F3B19
:100920006F3D1B1F0B80C0E0B0F8FC6EFF8080C0E5
:10093000C0C040C080BFF6FCFCD8F8ECFEFFB6FE9D
:10094000DCFCFCDAFFFFBDEFFFF77FFFFB417264C9
:10095000756C656D00080B000202020000090400BE
:10096000000102020000052400100105240101011C
:100970000424020605240600010705810310004037
:1009800009040100020A00000007050202400000FD
:10099000070583024000000403090412010002EF6E
:1009A00002014041233680000101020301417264CB
:1009B00075696E6F204C4C430041424131313036F5
:1009C000000E110E021F0019151211150A07041F3F
:1009D0001715090E1509011D030A150A12150E0631
:1009E0000B330B060E0F131B26060B330B06261BB1
:1009F000130F0E1EB41E1C0F9C1C3E2400001C3E38
:100A0000280400083C2E12200C3E2A6020083C1EC0
:100A100010001CBE20800010281C28102030183028
:100A20002000701870000030F830000030383000BE
:100A300000281C280002241E240204241E24042052
:100A40001E22010020182E08042010380C10B82E89
:100A5000100000A81E200000201E24000006033FF6
:100A60002400BE2D0306003E282A1C00B0185C643A
:100A70003000387E60301830FC50004058705840CC
:100A800000306030001028700800041004080200D4
:100A900002000204010000000124140E1424803E10
:100AA00020A03E28A81E28A03E28152211241FBEE3
:100AB000CFEFDAE0DEBFCDBF11E0A0E0B1E0EAE0C9
:100AC000FBE602C005900D92AA34B107D9F728E0E1
:100AD000AAE4B1E001C01D92A339B207E1F715E025
:100AE000C6E5D5E004C02197FE010E945C35C535FE
:100AF000D107C9F70E9444220C9483350C9400005E
:100B000080E994E020E0B22FB111BFEFFC01002496
:100B1000B193B193B193B1930394D1F708954F92E8
:100B20005F926F927F928F929F92AF92BF92CF927D
:100B3000EF92FF920F93CF93DF93E22FF0E09F01AC
:100B4000280F391F37FDA9C0803891050CF0A5C0CA
:100B5000DB011896A834B10508F09FC0EB0177FFC0
:100B600004C0CC27DD27C61BD70BC770DD275B0170
:100B700077FF03C0A7E0AA0EB11CA3E0B594A79429
:100B8000AA95E1F777FF09C068E070E0DB01AC1BD4
:100B9000BD0BED01B1E0AB1AB108B5016F5F7F4F3E
:100BA0006930710508F079C088249924881A990A57
:100BB00097FD02C0912C812C3F01203831052CF08B
:100BC00020E830E03901681A790A31972FEF3FEFBA
:100BD000E11003C0F40121E030E0D501B695BA2F51
:100BE000AA27B795A795A80FB91FA80DB91DAE578D
:100BF000BB4F2F01440E551E88E090E07C01EC1A9B
:100C0000FD0A861497040CF048C0F20164916C212F
:100C1000FFEFAF16BF06F1F1862F0C2E01C0880F33
:100C20000A94EAF71E964C911E97013029F4842B02
:100C30001E968C931E9707C001111CC080954823F7
:100C40001E964C931E972097E1F087E0A816B104FA
:100C5000C1F070E00E2C02C0759567950A94E2F71A
:100C6000CD0182579F4FFC014081013029F4642B54
:100C7000608307C08427DCCF01110AC0609546233A
:100C80004083FFEF8F1A9F0A1196420E531EB9CF71
:100C90006427EECF2097E9F6F4CFDF91CF910F9143
:100CA000FF90EF90CF90BF90AF909F908F907F90EC
:100CB0006F905F904F900895E1E0F0E00E94710620
:100CC000319728F068517C4F8F4F9F4FF9CFAB0180
:100CD000FC010E947106641775078E079F07C8F311
:100CE0000895AFE6B1E02FB7F8947D918D919C9176
:100CF00066B52FBFA89B05C06F3F18F47F5F8F4F6D
:100D00009F4F22E0660F771F881F991F2A95D1F702
:100D10000895FC0180912F04882311F13FB7F894C6
:100D200082E08093E9002091F200822F90E0181673
:100D3000190614F481E090E0882339F0289844E6FD
:100D400040932E044091F1004083222339F02091FA
:100D5000F200211103C02BE62093E8003FBF089565
:100D60008FEF9FEF08952FB7F89483E08093E90009
:100D70009091E800892F807295FF04C09091F20055
:100D800080E4891B2FBF08958091260481110DC036
:100D900082E08093220484E080932304109225044F
:100DA0001092240481E08093260482E294E0089566
:100DB0008F929F92AF92BF92CF92DF92EF92FF926B
:100DC0000F931F93CF93DF936C017B018A01809176
:100DD0000F01882309F458C080912F04882309F457
:100DE00053C08091210480FF05C08091E0008260A3
:100DF0008093E000E801B12C8AEFA82E93E0892EC1
:100E00002AE3922E209711F4BB20B9F10E94B30679
:100E1000811106C0AA94AA20B9F10E945C06F2CF03
:100E20008C171D0611F00CF08C2F9FB7F894809250
:100E3000E9002091E80025FD02C09FBFE3CF282FE5
:100E400030E0C21BD30BF701815020F04191409359
:100E5000F100FACFE20EF31EBB2021F09092E800E1
:100E6000B12CEBCF8091E80085FDE7CF9092E800B0
:100E7000BB24B394209709F3F3CF5D9884E6809365
:100E80002004101611063CF081E090E0F6019383F7
:100E9000828310E000E0C801DF91CF911F910F9194
:100EA000FF90EF90DF90CF90BF90AF909F908F908A
:100EB0000895CF93DF931F92CDB7DEB76983DC012E
:100EC000ED91FC910280F381E02D41E050E0BE0104
:100ED0006F5F7F4F09950F90DF91CF91089583E069
:100EE0008093E9008091F200882319F08AE38093CF
:100EF000E80008950E94B30690E00895CF93DF9331
:100F00001F92CDB7DEB7FC018485958597FD08C09B
:100F10002FEF3FEF358724870F90DF91CF91089512
:100F2000CE0101960E948906019719F4898190E00B
:100F3000F3CF8FEF9FEFF0CF0F931F93CF93DF93FC
:100F40001F92CDB7DEB78C01FC018485958597FF94
:100F50000BC0CE0101960E948906019771F4898128
:100F600090E0F80195878487F801848595850F9036
:100F7000DF91CF911F910F9108958FEF9FEFF1CFE8
:100F8000FC018485958597FD0BC09FB7F89482E09E
:100F90008093E9008091F2009FBF90E00196089550
:100FA0009FB7F89482E08093E9008091F2009FBFA0
:100FB00090E0089540911C0450911D0420911A0462
:100FC00030911B0442175307B4F49091E8009570D8
:100FD000E1F39091E80092FD19C08093F1008091B7
:100FE0001C0490911D0401968F739927892B19F485
:100FF0008EEF8093E80080911C0490911D0401966F
:1010000090931D0480931C0481E0089580E008956E
:10101000EF92FF920F931F93CF93DF93F82E192F28
:10102000E62E042F81E0860F880F0E94DA0783E006
:101030000E94DA07CF2DD12FEC0EFD2EF11CCE151C
:10104000DF05B9F007FF13C0FE0184910E94DA07A3
:10105000182F80E00E94DA07812321968111EFCFBB
:10106000DF91CF911F910F91FF90EF9008958881AC
:10107000EDCF81E0F5CFDF92EF92FF920F931F93B8
:10108000CF93DF93D82E8A01EB017B01E40EF51E8E
:10109000CE15DF0559F0D7FE12C0FE0184910E94E3
:1010A000DA0721968111F4CF0FEF1FEFC801DF910E
:1010B000CF911F910F91FF90EF90DF90089588815D
:1010C000EECF0F931F93CF93DF931F92CDB7DEB771
:1010D00082E0898342E450E065E579E080E80E949F
:1010E0003B080E94C406DC0112960D911C9101156B
:1010F000110589F0D801ED91FC910280F381E02D7A
:10110000BE016F5F7F4FC801099597FD04C0F801CC
:1011100000851185ECCF89810F90DF91CF911F91D0
:101120000F910895615030F02091F100FC0120836F
:101130000196F8CF289884E680932E0408950895A8
:10114000AF92BF92CF92DF92EF92FF920F931F93D5
:10115000CF93DF936C017B018B01040F151FEB0113
:101160005E01AE18BF08C017D10759F06991D601CA
:10117000ED91FC910190F081E02DC6010995892B3C
:1011800079F7C501DF91CF911F910F91FF90EF90FB
:10119000DF90CF90BF90AF900895282F30E0F901F5
:1011A000E85CF94F9491F901E75EF94F849126507C
:1011B0003A4FF9012491222309F430C09923E9F030
:1011C00091509F30D0F4E92FF0E0E751F74F0C94A5
:1011D0005C3517091B09F8080F091309FD08FD08FC
:1011E000FD081E09240928092C093209FD083609C1
:1011F000909180009F7790938000E22FF0E0EE0FB7
:10120000FF1FE451FA4FA591B4919FB7F894EC9168
:10121000611132C080958E238C939FBF0895909169
:1012200080009F7DE8CF90918000977FE4CF94B5B8
:101230009F7794BDE2CF94B59F7DFBCF90919000B6
:101240009F7790939000D9CF909190009F7DF9CF98
:1012500090919000977FF5CF9091C0009F779093E9
:10126000C000CBCF9091C0009F7DF9CF9091C2007C
:10127000977F9093C200C1CF8E2BCECFCF93DF93B9
:1012800090E0FC01E75EF94F249186509A4FFC01F3
:1012900084918823C9F090E0880F991FFC01E252E5
:1012A000FA4FA591B491FC01E451FA4FC591D49144
:1012B00061110DC09FB7F8948C91209582238C9377
:1012C0008881282328839FBFDF91CF9108956230C2
:1012D00051F49FB7F8943C91822F809583238C938F
:1012E000E8812E2BEFCF8FB7F894EC912E2B2C9317
:1012F0008FBFEACF1F93CF93DF93182FEB0161E0ED
:101300000E943E09209739F460E0812FDF91CF9150
:101310001F910C94CD08CF3FD10511F461E0F5CFBA
:10132000E12FF0E0E85CF94FE491E150EF3008F094
:101330007FC0F0E0E256F64F0C945C35AD09B5097C
:10134000BA09C409CE09180A180A180AD809E20904
:10135000EC09F609030A180A0B0A84B5806884BDF3
:10136000C7BDDF91CF911F91089584B5806284BD80
:10137000C8BDF7CF80918000806880938000D093B3
:101380008900C0938800EDCF8091800080628093B7
:101390008000D0938B00C0938A00E3CF80918000BF
:1013A000886080938000D0938D00C0938C00D9CF4B
:1013B00080919000806880939000D0939900C093B2
:1013C0009800CFCF80919000806280939000D0935E
:1013D0009B00C0939A00C5CF809190008860809355
:1013E0009000D0939D00C0939C00BBCF8091C00023
:1013F00080688093C0008091C0008F7B8093C00084
:10140000C093CF00AECF8091C00080628093C000B7
:10141000C093D000A6CF8091C20088608093C200A4
:101420008091C2008B7F8093C200C093D20099CF7D
:10143000C038D1050CF072CF67CF0F931F93CF93B5
:10144000DF93062F142FCFEFD0E0BE01681B710988
:101450008AE00E947A09BE01601B71098BE00E943C
:101460007A09BE01611B710989E0DF91CF911F915B
:101470000F910C947A09AB01FC010E947106415056
:101480005109E109F10928F068517C4F8F4F9F4FB6
:10149000F6CFAB01FC010E947106641775078E0739
:1014A0009F07C8F30895AC012091FD033091FE031E
:1014B0008217930734F02E593F4F81E042175307AC
:1014C00008F080E00895CF93DF939C0144E03595C8
:1014D00027954A95E1F7220F331FE091FF03F09122
:1014E0000004E20FF31FC591D49160E170E00E9407
:1014F000483521E030E002C0220F331F8A95E2F721
:101500002C233D2381E0232B09F480E0DF91CF9150
:1015100008954091FD035091FE03840F951F909311
:10152000FE038093FD0397FF0EC01092FE031092FE
:10153000FD0381E02091FD033091FE032417350760
:1015400009F480E008952091100468E0269F90013E
:10155000112422563109281739075CF73093FE030E
:101560002093FD03E6CFCF92DF92EF92FF920F938D
:101570001F93CF93DF93C091A801D0E0082F10E014
:10158000442399F141E050E0400F511FE4EBF2E0B9
:10159000B0E0A0E070E07B0193E0E90EF11CAC1735
:1015A000BD0734F59281907F9035E1F421812F734E
:1015B00030E0E216F306B4F02B5F3F4F26173707F3
:1015C0008CF02081821770F030E0690194E0C90E40
:1015D000D11CC016D10634F0421753079CF0C41634
:1015E000D50684F011963396DACF4FEF5FEFCCCF6C
:1015F00080E0DF91CF911F910F91FF90EF90DF90EE
:10160000CF90089581E0F5CF2091020484E6289FD1
:1016100090011124909108049F70692F660F660F46
:10162000690F70E0C9010E944835CB010895DC01C3
:10163000FB01F595E795F595E795EA54FB4F249165
:1016400030E0AB01440F551F4670552702C0359559
:1016500027954A95E2F7C9018370992712962C9134
:1016600020FF0AC0FB01E35EF84FE491E150FF0B5D
:101670009F01281B390BC9010895DC014C9150E0F2
:101680009B011296EC91E0FF0AC0E295EF70F0E04A
:10169000E35EF84FE491209530952E0F311DCA017D
:1016A000820F931F089520910301263069F4662369
:1016B00009F437C0DC0112968C91807F803D09F0DF
:1016C00030C082E090E00895DC011296EC91E29542
:1016D000EF70E150EF3010F5F0E0EF58F44F0C945C
:1016E0005C35910B850B8E0B8E0B8E0B8E0B8E0B40
:1016F0008E0B8E0B8E0B8B0B850B800B610B880B6F
:101700006623F9F284E090E0089583E090E0089584
:1017100086E090E0089587E090E008958AE090E008
:10172000089581E090E00895DC0112969C91129753
:10173000E92FE295EF70F0E0E35DF84FE4919695C4
:101740009770E150FF0B9E171F0681F4CD0161E0F9
:101750000E94530BBC0180918804909189040196EA
:101760000E9434359C0181E0232B09F080E008952C
:1017700025E0289FF001299FF00D1124E658FE4F27
:101780001082418352836383748308959091190476
:10179000982398130FC02091160430911704261730
:1017A000370728F0C901BA010E9434359C0181E055
:1017B000232B09F080E00895909119049823981341
:1017C00006C020911804292381E0291301C080E07C
:1017D000089580910101909102012AE130E0281BD7
:1017E000390B409109044F70429FC001439F900DF7
:1017F0001124019620910301263029F46AE070E05B
:101800000E944835CB0108952091AA013091AB0187
:101810002817390751F481E0209114043091150400
:101820002630310519F080E0089581E00895603890
:101830007105E8F440345105D0F4342F36953695CF
:101840003695A0E83A9FF0011124E60FF71FE80F44
:10185000F91F3685CA018770992741E050E001C021
:10186000440F8A95EAF7222319F0432B46870895FF
:1018700040954323FBCFDF92EF92FF920F931F938C
:10188000CF93DF937C01D22E8B01040F111DEB014E
:1018900077FF02C0D0E0C0E0C8010134110514F0A8
:1018A00080E490E0C817D9074CF42D2DAE01B701A4
:1018B00082E894E00E94170C2196EECFDF91CF9141
:1018C0001F910F91FF90EF90DF9008952F923F921C
:1018D0004F925F926F927F928F929F92AF92BF9240
:1018E000CF92DF92EF92FF920F931F93CF93DF93EC
:1018F00000D000D0CDB7DEB76C013B014A83222E69
:10190000AA24A394B12C10E000E083E090E09C8333
:101910008B839AEF492E55245A942EEFE22EFF2402
:10192000FA9491E0920D99830F5F1F4FE2E0AE0EA3
:10193000B11CEA0CFB1C4B81440FB3018B819C81D1
:10194000681B790B322C3A0C4301801A910A9A8158
:10195000913029F5E9814E0F20E0C601800F911FDB
:101960000E943B0C20E0432DB4018B819C818C0DA7
:101970009D1D0E943B0CEB81FC810E171F0704F597
:10198000FFEFEF16FF0681F28B819C8101979C830C
:101990008B8392E0490E511CE40CF51CC5CFF981F4
:1019A0004F0F20E0C601801B910B0E943B0C20E0F2
:1019B000432DB401C601EB81FC818E1B9F0BD9CF57
:1019C0000F900F900F900F90DF91CF911F910F917B
:1019D000FF90EF90DF90CF90BF90AF909F908F904F
:1019E0007F906F905F904F903F902F900895CF928F
:1019F000DF92EF92FF920F931F93CF93DF936B01D0
:101A0000122FEC017C01E40EF11CCE15DF0544F42D
:101A1000202F412FB601CE010E943B0C2196F5CF1D
:101A2000DF91CF911F910F91FF90EF90DF90CF90BA
:101A300008956F927F928F929F92AF92BF92CF92B2
:101A4000DF92EF92FF920F931F93CF93DF936C017E
:101A50007B013A01CB01019763E070E00E944835B9
:101A60002AE0289FE001299FD00D11244B01A3E01B
:101A7000880C991CAA95E1F7540181E2A80EB11CCB
:101A8000C7010E94040C182F81110EC001E027E04D
:101A900049E0B501CE010E94F70C81E061147104A8
:101AA00009F480E0809310016114710409F443C0CB
:101AB000F7013297E830F10560F4EF59F24F0C94DA
:101AC0005C35AA0DB40DC90DD70DE50DF60D040E4C
:101AD000140E83E0C822DD24A601440F551F4C0DCF
:101AE0005D1D4256554FFFE7CF2EE12C012F23E01D
:101AF000B501CE0101960E948F0582E2880E911CED
:101B0000259601E0113009F400E025E043E0B4013E
:101B1000CE010E94F70CA301440F551F460D571D1F
:101B20004F53564FCC24CA94E12C012F23E0B4012B
:101B3000CE010E948F05DF91CF911F910F91FF90F1
:101B4000EF90DF90CF90BF90AF909F908F907F905D
:101B50006F9008957FE7C72EE12C012F25E049E91A
:101B60005AE0B501CE01C7CFC60166E070E00E9421
:101B700034358230910508F225E0289FA001299F85
:101B8000500D11244558554F6FE7C62EE12C012FFB
:101B9000E8CFC60166E070E00E94343525E0289F5A
:101BA000A001299F500D1124435A554FEDCFC60176
:101BB00066E070E00E94343525E0289FA001299F4F
:101BC000500D1124415C554FDFCF87E0C822DD2442
:101BD00085E08C9DA0018D9D500D1124495E554FCF
:101BE0009FE7C92EE12C012F25E0BBCFC60166E09F
:101BF00070E00E94343525E0289FA001299F500DF8
:101C000011244750564FC0CFC60163E070E00E94D8
:101C10003435AC01440F551F4D50564F3FE7C32E8E
:101C2000E12C012F22E064CF83E0C822DD2485E08F
:101C30008C9DA0018D9D500D11244152564FD0CF47
:101C40002F923F924F925F926F927F928F929F92CC
:101C5000AF92BF92CF92DF92EF92FF920F931F93BA
:101C6000CF93DF937C016B0188248394912CD0E087
:101C7000C0E003E010E09AEF692E77247A942EEF0B
:101C8000A22EBB24BA94842F8470582E842F827085
:101C9000482E842F8870382E4170242E219682E0A1
:101CA000880E911CA80CB91C5520B1F021E0A801A8
:101CB0004C0D5D1DB7016C0F7D1F82E894E00E9402
:101CC000170C21E0A6014C0F5D1FB8016E0D7F1DA2
:101CD00082E894E00E94170C4420B1F021E0A601B4
:101CE000401B510BB7016C0F7D1F82E894E00E94EE
:101CF000170C21E0A6014C1B5D0BB8016E0D7F1D7A
:101D000082E894E00E94170C3320B1F021E0A60194
:101D10004C0F5D1FB701601B710B82E894E00E94BD
:101D2000170C21E0A8014C0D5D1DB7016C1B7D0B4C
:101D300082E894E00E94170C2220B1F021E0A60175
:101D40004C1B5D0BB701601B710B82E894E00E9495
:101D5000170C21E0A601401B510BB7016C1B7D0B3A
:101D600082E894E00E94170CC017D1076CF48FEF43
:101D7000A816B80609F492CF0150110982E0680E46
:101D8000711CA60CB71C8ACFDF91CF911F910F91C8
:101D9000FF90EF90DF90CF90BF90AF909F908F908B
:101DA0007F906F905F904F903F902F900895DF92BB
:101DB000EF92FF920F931F93CF93DF937B01D22E6D
:101DC0008C01040F111DEC0197FF02C0D0E0C0E0B0
:101DD000C8010138110514F080E890E0C817D90750
:101DE0004CF42D2DA701BE0182E894E00E94170C4F
:101DF0002196EECFDF91CF911F910F91FF90EF9041
:101E0000DF9008958F929F92BF92CF92DF92EF92D0
:101E1000FF920F931F93CF93DF934C018B01C42F3D
:101E2000D22F8AEFB82EB40E740183E0E80EF11CB5
:101E300021E04B2DC7010E94D70E6801CD0ED11CA9
:101E4000B6016150710921E04B2DC7010E94D70EE8
:101E50009AEFB92EBD0E0D5F1F4F21E04B2DB8013B
:101E6000C4010E943B0CC80DD92DD11D21E04B2D82
:101E7000B801CE0101970E943B0C41E0B801C701B7
:101E80000E94200E249742E0B801CE010E94200E4D
:101E900084E0C81AD10844E0B601CE010E94200EA9
:101EA00048E0B601C701DF91CF911F910F91FF90DC
:101EB000EF90DF90CF90BF909F908F900C94200E6A
:101EC0002F923F924F925F926F927F928F929F924A
:101ED000AF92BF92CF92DF92EF92FF920F931F9338
:101EE000CF93DF93CDB7DEB72C970FB6F894DEBF54
:101EF0000FBECDBF35E0FB01C39EE00DF11D1124E7
:101F00001E161F060CF066C0D12CF601A3E0EE0FE2
:101F1000FF1FAA95E1F7E40FF51FEF2B09F45AC054
:101F20005A87498798878F832052239F90011124D5
:101F30001B011C861B86C90186519D4F9E838D8384
:101F400026019B85E0E0953039F0ED81FE818B859F
:101F50009C85E80FF91FE49169847A8418E08E2F3C
:101F600090E09A838983F02EE0FFFE2CFF20E9F0B9
:101F7000B12CA12C4A145B04D1F0C1018A0D9B1D28
:101F80009C838B83912C812C84149504E1F1A40112
:101F9000460D571D2F2D6B817C818F8198850E9466
:101FA000170C9FEF891A990AEFCFE012E1CFE98170
:101FB000FA81F595E79511506C0C7D1C1111CFCF6E
:101FC0008B859C8501969C878B872C0C3D1C0697E6
:101FD00009F0B7CF2C960FB6F894DEBF0FBECDBF79
:101FE000DF91CF911F910F91FF90EF90DF90CF90F5
:101FF000BF90AF909F908F907F906F905F904F9029
:102000003F902F9008958FEFA81AB80AB3CFAF92E0
:10201000BF92CF92EF920F93CF93DF93262F6A3028
:10202000C9F4FC01E15FFB4FDC01A05FBB4F2C91C9
:10203000220F220F220F3081230F2083825F9B4FBC
:10204000FC011082DF91CF910F91EF90CF90BF9064
:10205000AF9008956D30B1F3EC01C25FDB4F688142
:1020600070E0AC01405F5B4F5A016038710574F459
:10207000FC01E15FFB4F408150E04034510534F4F6
:10208000F501C080E12C01E00E94600FF501908114
:10209000892F880F890F880F9881890F8883D2CF65
:1020A0000F931F93CF93DF938C01D0E0C0E0F80132
:1020B000EC0FFD1F6491662341F082E894E00E94DA
:1020C0000710892B11F02196F2CFCE01DF91CF912D
:1020D0001F910F910895CF93C82F362FFA01222315
:1020E00051F080918804909189046DE070E00E9425
:1020F0003435059750F0CF01C09390083093910884
:102100000E94501081E0CF91089580E0FCCFCF92E3
:10211000EF920F93CF93DF93EC01803891057CF41D
:10212000EE24E394213009F4E12CCC24C394022F53
:10213000242FAB01BE0182E894E00E94600FCE0123
:102140000696DF91CF910F91EF90CF90089508956B
:1021500090E080E008954FB18CB123B190E080957C
:10216000909533E0959587953A95E1F7887030E042
:102170002095309535952795359527952470822B98
:10218000942F9095907F892B0895CF93DF93CFB7AD
:10219000F89480916201811127C0EBE0F6E0849110
:1021A000EAE2F6E09491E82FF0E0EE0FFF1FE25232
:1021B000FA4FA591B491EC91E92321F461E081E11A
:1021C0000E94CD0861E081E10E943E098CB58061EA
:1021D0008CBD8CB580648CBD61E08FE00E943E09AF
:1021E00061E080E10E943E09809162018F5F8093EF
:1021F0006201CFBFC7EDD2E0BE01FE0184916F5FE7
:102200007F4F2296FB016491882319F00E943E09BA
:10221000F3CF61E086E00E94CD0861E070E080E0ED
:1022200090E00E943B0A60E086E00E94CD086AE0F0
:1022300070E080E090E00E943B0A61E086E00E944E
:10224000CD08E6E0F6E0E491F0E0EE0FFF1FE45188
:10225000FA4F859194919093680180936701E5E22C
:10226000F6E0E491E0936601EEEFF5E0E491F0E052
:10227000EE0FFF1FE451FA4F859194919093650101
:1022800080936401EDE1F6E0E491E09363018CB5A5
:102290008C7F8CBD8DB581608DBDE0916701F09123
:1022A0006801908180916601982B9083A0916401D0
:1022B000B09165012C9190916301909592239C932C
:1022C0009081809589238083EAECF2E082E0E73D0B
:1022D000F80749F084918EBD00000DB407FEFDCFD4
:1022E0008EB53196F3CFE0916401F0916501808164
:1022F00090916301892B8083E0916701F0916801DF
:10230000908180916601809589238083809164000B
:102310008160809364008091640082608093640097
:102320008091640080688093640080916400806480
:102330008093640080916500816080936500DF91E7
:10234000CF910895CF92DF92EF92FF920F931F9358
:10235000CF93E82FF0E0E853FD4FC491E62FF0E073
:10236000EE0FFF1FEE5DFD4F05911491F12CE12C56
:1023700060E074E284EF90E0A70198010E94B53418
:10238000215031094109510991E02115310581E0C0
:10239000480751056CF060E970ED83E090E0A7011B
:1023A00098010E94B534215031094109510993E047
:1023B000C13051F0C330C1F0CF911F910F91FF9008
:1023C000EF90DF90CF90089580918100887F892BD6
:1023D00080938100309389002093880080916F0062
:1023E000826080936F00E8CF80919100887F892B75
:1023F00080939100309399002093980010935B0193
:1024000000935A0181E080935901809171008260AC
:1024100080937100D1CFE82FF0E0E853FD4FE491B5
:10242000E13019F0E33089F0089580916F008D7FDD
:1024300080936F0080915F01E0916001F0916101F4
:10244000908180958923808308951092590180910D
:102450005C01E0915D01F0915E01F2CFCF93DF93DB
:10246000C82FE62FF0E0E853FD4FD49161E00E94C1
:102470003E09D13029F0D33049F1DF91CF91089551
:10248000109280001092810080918100886080937A
:102490008100809181008160809381008C2F90E089
:1024A000FC01E650FA4FE491F0E0EE0FFF1FE4511B
:1024B000FA4F259134913093610120936001875E3A
:1024C000994FFC01849180935F01D7CF10929000C7
:1024D000109291008091910088608093910080918A
:1024E00091008160809391008C2F90E0FC01E65078
:1024F000FA4FE491F0E0EE0FFF1FE451FA4F2591FF
:10250000349130935E0120935D01875E994FFC0109
:10251000849180935C016CE380E00E94A21180E0D2
:10252000DF91CF910C940B12E0916901F0916A0157
:10253000BF016F5F7F4F70936A01609369012491BF
:10254000922F907F822F8F70903819F40E940B1277
:10255000EBCF903981F43296F0936A01E0936901F0
:10256000FB016491823000F79CEC960F9F31E0F6FE
:102570000E94A211D9CF903E49F480916B019091B5
:102580006C0190936A0180936901CECF903F19F45A
:1025900010927301089597FDC7CF3296F0936A01A8
:1025A000E0936901FB016491A0915A01B0915B0134
:1025B000322F262F0E9409356C507E4F8F4F9F4F30
:1025C00028EE33E040E050E00E94E73420935501CC
:1025D0003093560140935701509358018091550113
:1025E00090915601A0915701B0915801892B8A2BE7
:1025F0008B2B61F481E090E0A0E0B0E08093550186
:1026000090935601A0935701B093580108958F926B
:102610009F92AF92BF920F931F93CF93DF93CDB74B
:10262000DEB7A1970FB6F894DEBF0FBECDBF19A2DB
:10263000423008F44AE08E010F5D1F4F842E912C2A
:10264000B12CA12CA50194010E94E734E62FB90119
:10265000CA01EA3044F5E05DD801EE938D01232BE9
:10266000242B252B79F790E080E0109769F0FD018D
:1026700001900020E9F73197AF014A1B5B0BBD01C8
:1026800082E894E00E94A008A1960FB6F894DEBFFD
:102690000FBECDBFDF91CF911F910F91BF90AF9033
:1026A0009F908F900895E95CD7CF2F923F924F92E1
:1026B0005F926F927F928F929F92AF92BF92CF92D2
:1026C000DF92EF92FF920F931F93CF93DF935C0102
:1026D0003B016A014901C901019726E0289F1001C9
:1026E000299F300C112421014A0C5B1C90E3F92E28
:1026F000011102C080E2F82ED0E0C0E00AE010E054
:102700001C141D0424F02E2D4F2D209741F4C601DA
:10271000B8010E9448356B0140E3480F2E2DB301EC
:10272000C2010E94871086E0481A510821968C1633
:102730009D0631F7C10106968A0D9B1DDF91CF9151
:102740001F910F91FF90EF90DF90CF90BF90AF90CF
:102750009F908F907F906F905F904F903F902F90C1
:102760000895CF92DF92EF92FF928093900860934A
:1027700091086A01550FEE08FF084AE0C701B6014B
:10278000F7FE0DC06DE282E894E00E940710662714
:102790007727CB016C197D098E099F094AE0FF90CC
:1027A000EF90DF90CF900C940713CF93DF93EC0161
:1027B000909315048093140482E090E00E949F346B
:1027C000882359F0C530D10521F180E00E940B1219
:1027D00081E00E940B1210927301249749F5109228
:1027E0007B0110927C0110927D0110927E0110926B
:1027F000800110928101109282011092830140E0C9
:1028000060E080E00E941D0A81E0DF91CF910C948E
:102810000B128AEB94E090936C0180936B01909380
:102820006A01809369010E94941281E08093730190
:10283000DF91CF9108959C01A0EBB1E0F0E0E0E0E2
:1028400050E040E0E217F30744F48D919D910E941F
:102850006235480F591F3196F5CF220F331FF9010A
:10286000E055FE4F20E130E0261B370B808191813F
:1028700002C0880F991F2A95E2F70E946235840FE3
:10288000951F0895EF92FF921F93CF93DF93142F1C
:102890007C012FE0E222FF2434E0660F771F3A9597
:1028A000E1F744E0959587954A95E1F7EB01C80F6C
:1028B000D91FB701CE010E941B14A091B002B091A4
:1028C000B1028A179B07E0F541E050E002C0440FD7
:1028D000551FEA94E2F7FE01EE0FFF1FE055FE4F91
:1028E00020813181B90164237523672B79F16091CF
:1028F000B2027091B302DB01A80FB91F8C91982F1F
:1029000091279C9381131CC0409550952081318163
:1029100024233523318320838091AE019091AF0130
:102920009D01261B370B2817390728F411962C9187
:1029300011972D93F5CF01979093AF018093AE013E
:10294000DF91CF911F91FF90EF9008956091AE01BC
:102950007091AF016A177B0798F7242B352B3183D1
:1029600020832091B2023091B302F901E60FF71FE4
:10297000AB0141505109481759071CF0A291A1839E
:10298000F8CF280F391FF90110836F5F7F4F7093C5
:10299000AF016093AE01D4CFDC0130E020E050E025
:1029A00040E02617370764F4FD01E20FF31F84911E
:1029B00090E00E946235480F591F2F5F3F4FF1CFC3
:1029C000CA010895AF92BF92DF92EF92FF920F93E8
:1029D0001F93CF93DF937C018B01D42E442301F10D
:1029E0000E94530A8823E1F08091FD03EE2DE81B3D
:1029F000E25E11271695102F0027179507950E57A1
:102A00001B4FE00FF12FF11DC6858C2FDF91CF9169
:102A10001F910F91FF90EF90DF90BF90AF900895BE
:102A200080910E0490910F04B701F3E075956795BE
:102A3000FA95E1F77727FC01E60FF71FE491CE2F17
:102A4000D0E09E01002E02C0359527950A94E2F74A
:102A500020FF86C00E94CC149C0168E0A62EB12CF9
:102A6000C501801B910BAE0102C0440F551F8A9512
:102A7000E2F7CA0199270E946235280F391FC90160
:102A800063E070E00E944835660F771FE091110403
:102A9000F0911204E60FF71FC591D49165E0689F8D
:102AA000A001699F500D112402C0D595C7954A9584
:102AB000E2F7CF71DD27C701B5010E9448355C01FF
:102AC000C9010E94630A882331F087E090E09C01ED
:102AD0002A193B095901FE0153E0EE0FFF1F5A95D9
:102AE000E1F7EA0DFB1DE35BF74FC491B7016F708F
:102AF0007727C70124E0959587952A95E1F734E07B
:102B0000000F111F3A95E1F7800F912F911DFC01E5
:102B1000EE0FFF1FE055FE4F21E030E0062E02C011
:102B2000220F331F0A94E2F7408151812423352379
:102B3000232B09F46ACF0E941B142091B00230911C
:102B4000B1028217930708F060CFE091B202F091D2
:102B5000B302E80FF91F8081DD2021F0C82755CF8F
:102B6000C0E0C4CF8095C82350CFEF92FF920F935F
:102B70001F93CF938C017B01C42F41E00E94E2148C
:102B8000482F4C2349F0B701C801CF911F910F91F5
:102B9000FF90EF900C944214CF911F910F91FF90F2
:102BA000EF900895FF920F931F93CF93DF938C01C3
:102BB000EB01F52E41110E94B515FF2079F0C730C9
:102BC000D10564F4BE016F5F7F4F4F2DC801DF91C7
:102BD000CF911F910F91FF900C94B515DF91CF917C
:102BE0001F910F91FF900895BF92CF92DF92EF92C5
:102BF000FF920F931F93CF93DF938C01B42E7B0131
:102C000083E0F594E7948A95E1F76B0187E0C822A9
:102C1000DD24C1E0D0E00C2C01C0CC0F0A94EAF70F
:102C200041E0B701C8010E94E2148C2390E002C089
:102C300095958795CA94E2F7082E000C990BB81663
:102C4000190671F04C2FB701C801DF91CF911F9188
:102C50000F91FF90EF90DF90CF90BF900C944214B3
:102C6000DF91CF911F910F91FF90EF90DF90CF9068
:102C7000BF9008959F92AF92BF92CF92DF92EF9252
:102C8000FF920F931F93CF93DF935C01CB016A01F7
:102C9000922E7B0123E0F594E7942A95E1F768E012
:102CA00070E00E9448358C01492DB701C5010E9492
:102CB000E214C82FD0E00C151D0564F087E0E8167B
:102CC000F10444F4B7016F5F7F4F492DC5010E94A5
:102CD000E214D82B20E130E0201B310B2C193D09E8
:102CE000CE01022E02C0880F991F0A94E2F7200F2E
:102CF000311F02C0959587952A95E2F7DF91CF9114
:102D00001F910F91FF90EF90DF90CF90BF90AF9009
:102D10009F900895CF93DF93EA01AB014C0F5D1FA5
:102D2000403451053CF0C0E4D0E0C61BD70B1C1664
:102D30001D06D4F4AE010E943A1630E020E090E087
:102D4000AC01022E02C0559547950A94E2F740FF68
:102D500006C0CE01821B930BDF91CF9108952F5FA8
:102D60003F4F2C173D0764F390E080E0F5CF8F9242
:102D70009F92BF92CF92DF92EF92FF920F931F9399
:102D8000CF93DF93FC017B01B42E01810F7310E020
:102D90000F5F1F4FC081D0E0828180FD13C023965A
:102DA00088248394912C83E0C82ED12CCF3FD10569
:102DB00071F068F0C80DD91D81E0C81AD108B1F7CB
:102DC00080E010C0219788248A94982CECCF2B2D7A
:102DD00045E050E0B801CE010E948A16E816F906D7
:102DE0004CF781E0DF91CF911F910F91FF90EF9011
:102DF000DF90CF90BF909F908F9008958F929F9279
:102E0000AF92CF92DF92EF920F931F93CF93DF9306
:102E1000EC0133E06302C0011124FC01EC54FD4FCE
:102E20004F01928192959F70943008F46BC04423B7
:102E300019F09C3008F066C0222319F0953009F48F
:102E400061C0EE2021F09017110609F45BC0F40177
:102E50008181382F30740115110581F0901711060A
:102E600029F00F30110529F487FF08C06883198203
:102E700005C00A30110511F43111F8CF2981223033
:102E800008F440C0EE2041F02AE0290F2F702330D3
:102E900018F4688321E029832981233098F1162FC3
:102EA00087FD3BC0311139C095509530B0F132E00B
:102EB000C316D10429F4A11005C0188382E08983C8
:102EC00080E00BC040E062E070E0C4010E94B716F1
:102ED0008111F3CF188395E099839981943090F014
:102EE000882319F0188393E099839981953050F0E5
:102EF000CA94CD2839F4811105C0A11010C01883DF
:102F000084E08983DF91CF911F910F91EF90DF9043
:102F1000CF90AF909F908F90089581E0DECF41E0F9
:102F200070E060E0C4010E94B7168111E8CFEACFDB
:102F3000AF92BF92CF92DF92EF92FF920F931F93C7
:102F4000CF93DF936F3F710511F008F05CC0403400
:102F5000510508F058C0102F022F5A017B016C0157
:102F600021E043E050E0B501C7010E943A168823F2
:102F700081F0282FD0E0C0E080FD0DC086958170E3
:102F8000C82FE0E0DE2F21FD06C0C2E0D0E022FD28
:102F900002C0CFEFD0E0002389F0F6018281B701B3
:102FA00080FF2BC06150710900E020E0A501C6013F
:102FB0000E9498178C179D070CF4EC01112389F0DF
:102FC000F6018281B70180FF1BC06F5F7F4F00E079
:102FD00020E0A501C6010E9498178C179D070CF4EC
:102FE000EC01CE01DF91CF911F910F91FF90EF90F7
:102FF000DF90CF90BF90AF9008956F5F7F4FD4CF99
:1030000061507109E4CFCFEFD0E0EBCFCF92DF92E8
:10301000EF92FF920F931F93CF93DF937C01162FB4
:103020006A01FC01C181CF73D0E0269661E070E0B7
:103030000E943D0B01E0212FAE01BC01C7010E949F
:1030400098178330910584F021E030E0A6016CE010
:1030500070E0C701DF91CF911F910F91FF90EF902A
:10306000DF90CF900C947A1CF7019181890F8F73B8
:10307000907C982B9183DF91CF911F910F91FF90BE
:10308000EF90DF90CF9008954F925F926F927F9272
:103090008F929F92AF92BF92CF92DF92EF92FF9268
:1030A0000F931F93CF93DF934C01FC01D2818D2F9F
:1030B000807FB9F1308120910504832F90E0039641
:1030C0002817190609F06CF5231758F181818F73C1
:1030D00090E02091060430E0AC014B5F5F4F421757
:1030E0005307FCF028173907E4F0809102048F5F42
:1030F00080930204409115015091160160911701CF
:103100007091180190E080E00E94B80B30E020E060
:1031100050E040E070E060E0C4010E947A1CC1E031
:10312000FDC0ED2FE295EF70E150EF30C0F4F0E01C
:10313000E456F74E0C945C35AB18B118C01827193B
:10314000A719DE19341A9E1AF91AA21BE91BF61BDD
:10315000181C4A1C651CF401818186FD02C0C0E078
:10316000DDC0C4010E94940B8823C9F330E020E045
:1031700050E040E070E060E0C4010E947A1CEFCFB4
:10318000C4010E94940B882351F3F401A080818133
:103190008F738150990BC0E08F3F980731F0EC019D
:1031A00043E0D595C7954A95E1F768E070E00E9445
:1031B000483599272FEF31E06901082E02C0CC0C69
:1031C000DD1C0A94E2F72EEF30E03901082E02C030
:1031D000660C771C0A94E2F72CE730E0290102C064
:1031E000440C551C8A95E2F73DEFE32EFF24FA9438
:1031F00010E000E0D0E0B12CC5018E0D9F1D01153F
:10320000110519F00A301105D9F4A201BE010E947E
:10321000D2150F5F1F4F8FEFE81AF80A0B30110518
:1032200059F7F40181818F7B8F77818382818E7F33
:10323000828330E020E050E040E061E070E09CCF2D
:10324000A30125E0E216F10408F7A601DFCF0D2F58
:103250000170F401C181CF7362E070E0C4010E948B
:103260003D0B8F3F910509F080F56C2F70E06C5F8E
:103270007F4F21E043E050E00E948A169C0118161F
:1032800019061CF5F4019181892F8F738F5F821BC2
:103290008F73907C892B818363E070E0C4010E946E
:1032A0003D0B7C01F40111811F7361E0610F402F20
:1032B0000E94B30AC82F882379F0F4019281892FE4
:1032C0008E7F90FF816082834ACF4FEF5FEF60E097
:1032D000C4010E940618E0CFFFEFEF16F10411F0D1
:1032E00008F03DCF612F70E06F5F7F4F20E045E039
:1032F00050E0C7010E948A1603970CF430CFF40106
:10330000818186FF1DC04D2F4095417030E020E047
:1033100050E06AE070E0C4010E947A1C8C2FDF91BB
:10332000CF911F910F91FF90EF90DF90CF90BF90C2
:10333000AF909F908F907F906F905F904F90089587
:103340009281892F8E7F90FF81608283E7CFF40185
:1033500041814F7350E04A5F5F4F608170E06E5F64
:103360007F4F00E020E0C4010E94981703970CF4FF
:10337000F6CEF40141814F7350E04A5F5F4F6081A8
:1033800070E06F5F7F4F20E0C4010E94981721E03A
:10339000181619060CF020E0F401828120FB80F958
:1033A000828380FB662460F8712C442755274619D8
:1033B000570921E030E06CE070E0DECE6D2F6695BD
:1033C00067706330F0F4F401D181613080F11D2F1A
:1033D0001F7370E06E5F7F4FC4010E943D0BD7707A
:1033E0004FE350E002C0440F551FDA95E2F7612F1A
:1033F00070E023E0759567952A95E1F70E94D21554
:10340000AECE633009F0ABCEF401D181CD2FCF73B6
:1034100064E070E0C4010E943D0BD7704FE350E0C0
:1034200002C0440F551FDA95E2F76C2FE1CFDF732E
:103430004D2F50E04A5F5F4F608170E06E5F7F4FBD
:1034400001E021E0C4010E949817181619060CF03B
:1034500086CEF401828180FBEE24E0F8F12C442733
:1034600055274E195F09A5CF6D2F6695677063309C
:1034700009F44AC050F1653009F071CEF401C18100
:10348000CF7363E070E0C4010E943D0B8F3F910554
:1034900081F178F1F401C181CF7364E070E0C4017F
:1034A0000E943D0B8F3F9105E9F1E0F1F40142816B
:1034B00050E0440F551F4270552730E020E064E093
:1034C00070E0C4010E947A1C1FC0F4011181D12F49
:1034D000DF7370E06E5F7F4FC4010E943D0B177079
:1034E0004FE350E002C0440F551F1A95E2F76D2FCD
:1034F0007FCF6C2F70E06F5F7F4F21E045E050E0A1
:103500000E948A16892B31F2F4018281082F017002
:1035100010E044275527401B510B61E0C4010E9475
:1035200006181DCE6C2F70E06F5F7F4F21E045E0E5
:1035300050E00E948A16892B39F7B8CFCD2FC69557
:10354000C770C330C9F0C43051F1C23009F007CEA2
:10355000F401C181CF73D0E02696808140E0BE01A6
:1035600090E00E94F415F401808190E040E0BE01FB
:1035700004960E94F415F3CDF401C181CF73D0E01D
:103580002596808190E040E0BE0101960E94F415EE
:10359000F401808190E040E0BE010396EACFF4019F
:1035A00061816F7370E06B5F7F4F808190E040E0DE
:1035B00002960E94F415F40141814F7350E04A5F76
:1035C0005F4F608170E06E5F7F4F01E021E0C401DA
:1035D0000E949817181619060CF0C1CDF4018281CB
:1035E00080FBAA24A0F8B12C442755274A195B096F
:1035F000E0CECD2FC695C770C13039F1C33009F484
:103600007BC0F401C181CF73D0E0269661E070E009
:10361000C4010E943D0B01E021E0AE01BC01C401E8
:103620000E949817181619060CF099CDF4018281A2
:1036300080FBCC24C0F8D12C442755274C195D09B8
:1036400021E030E06CE070E067CDF401D08163E010
:1036500070E0C4010E943D0B8C01F40182818170F5
:10366000F82EC181CF73EE24E394EC0E482F6E2D1B
:1036700082E08D0F0E94B30A882361F0F4018281F9
:10368000982F9E7F80FF91609283808190FD30C053
:103690008F5F2FC04F2D6E2D802F0E94B30A811196
:1036A000EDCF8D2F90E002968F3F9105A9F0A4F009
:1036B0000F3F110511F008F0A4CFF40161816F7381
:1036C00070E06F5F7F4F20E045E050E0C8010E944E
:1036D0008A1603979CF695CF6C2F70E06F5F7F4F33
:1036E00020E045E050E00E948A1603973CF6E0CFC8
:1036F0008150F401808333CD63E070E0C4010E9407
:103700003D0B8C0164E070E0C4010E943D0B7C0124
:10371000F401C181CF73D0E05E01F5E0AF0EB11CC2
:1037200041E0B501C8010E94F41541E0B501C701AF
:103730000E94F415BE016A5F7F4F41E0C8010E94FC
:10374000F4155FCFF40101810F73D170011110C026
:10375000F4019281892F8E7F90FF8160828350E0F7
:1037600040E0D11102C04EEF5FEF30E020E023CE09
:1037700010E061E070E0C4010E943D0B8F3F9105B5
:1037800009F040F420E041E050E0B8010E943A1610
:103790008111DECF62E070E0C4010E943D0B8F3FDB
:1037A000910509F058F4B8016F5F7F4F21E045E0C3
:1037B00050E00E948A1604970CF0D1CC4EEF5FEFD8
:1037C000D11102C050E040E030E020E06BE070E05A
:1037D000D3CCC4010E94940B30E020E0882309F48C
:1037E000BECC50E040E064E070E0C6CCF401418122
:1037F0004F7350E04A5F5F4F608170E06E5F7F4FB4
:1038000001E021E0C4010E94981730E020E041E08F
:1038100050E0892B41F3C4010E94940B882309F4E2
:103820009ECC30E020E050E040E06DE070E0A4CCC1
:10383000F40141814F7350E04A5F5F4F608170E057
:103840006E5F7F4F01E021E0C4010E949817892B31
:1038500049F430E020E041E050E064E070E0C40171
:103860000E947A1CC4010E94940B882309F477CC2F
:10387000F401818187FF07C030E020E041E050E0A3
:103880006FE070E079CC30E020E050E040E06EE0A6
:1038900070E072CCF401418147FDEECF4F7350E0F0
:1038A0004A5F5F4F608170E06E5F7F4F01E021E013
:1038B000C4010E949817892B09F051CC2FEF3FEFDC
:1038C00050E040E062E070E057CCF40141814F737A
:1038D00050E04A5F5F4F608170E06E5F7F4F01E0B4
:1038E00021E0C4010E949817892B09F038CC2FEFF2
:1038F0003FEF77CFCF92DF92EF92FF920F931F931C
:10390000CF93DF93EC017B01022F4F3F510571F400
:103910006A8162956F7070E00E94170B6C01B701AD
:10392000CE010E94170BA601481B590B9E2D9295A4
:10393000907F8A818170892B8A838881480F488390
:103940008981080F0F73807C802B898389E0E816BA
:10395000F10499F410E00A5F1F4F842F90E041E0DA
:10396000B80102960E94F41561E070E0CE010E9459
:103970003D0B41E0B8010E94F4158091A5018F5FD5
:103980008093A501843058F4CE01DF91CF911F912F
:103990000F91FF90EF90DF90CF900C944418DF913F
:1039A000CF911F910F91FF90EF90DF90CF900895EE
:1039B0001F93CF93DF93DC01FB011491812F012E24
:1039C000000C990B292F221F2227221F30E031964D
:1039D000E4910E2E000CFF0B8F2F881F8827881F65
:1039E00090E0CC27DD27C81BD90B42305105A1F050
:1039F000FB013296E491E7FF04C0C1E0D0E0C81BB0
:103A0000D90B4330510541F06D5F7F4FFB0164914D
:103A10002E5F3F4F67FD47C017FD43C081E02097F1
:103A200009F480E030E020E012969C91129790FF1C
:103A300003C031952195310911969C9111979F737F
:103A40004C91BE01690F711D6034710569F0E09100
:103A5000100458E0E59FF001112451E0B901640F12
:103A6000711D6E177F0708F050E0240F2C939C0FF8
:103A70009F7311962C911197207C922B11969C93F9
:103A8000119751110AC0CD0130E020E050E040E034
:103A900070E060E00E947A1C80E0DF91CF911F917E
:103AA000089521E030E081E0BFCFFF920F931F9394
:103AB000CF93DF93EC01F62E08811981C8010E9493
:103AC0009F34F81621F06F2DC8010E94A734CE0153
:103AD000DF91CF911F910F91FF900895EF92FF9288
:103AE0000F931F93CF93DF9300D01F92CDB7DEB714
:103AF000062F13E0819FC00111249C012C543D4FDF
:103B0000790123E030E041E050E0B701CE010196B9
:103B10000E949134019F800111240C541D4F23E019
:103B200030E041E050E0B801C7010E94913423E049
:103B300030E041E050E0BE016F5F7F4FC8010E945E
:103B400091340F900F900F90DF91CF911F910F91B3
:103B5000FF90EF9008950F931F93CF93C62F40913E
:103B6000A60150E08032A8F010E000E030E020E054
:103B7000241735077CF5F901EE0FFF1FEB57FE4FB9
:103B8000908196959F7190171106F1F02F5F3F4F2E
:103B9000EFCF30E020E0A82FB0E024173507F4F491
:103BA000F901EE0FFF1FEB57FE4F9081692F6695CD
:103BB0006F716A171B0619F491709C1719F02F5F2B
:103BC0003F4FEBCF80E03DC00F5F1F4F003211052C
:103BD00069F600E0602F0E946E1D802F3091A601D3
:103BE000E32FF0E0EE0FFF1FDF01AB57BE4F9C91BC
:103BF000C0FB90F98F71880F917C982B9C9324E0E7
:103C0000C11101C02AE0EB57FE4F922F9295990FF8
:103C1000990F907C80818F73892B80838091880499
:103C2000909189046CE370E00E943435880F880F0E
:103C300026952695282B218381E0830F8093A6016A
:103C400081E0CF911F910F910895EF92FF920F9312
:103C50001F93CF93DF9300D0CDB7DEB70091A601BD
:103C600001500093A601002351F1081741F1E82EFD
:103C7000F12CEE0CFF1CC7018B579E4F7C0122E0FC
:103C800030E041E050E0BC01CE0101960E94913449
:103C900010E0000F111F0B571E4F22E030E041E0F3
:103CA00050E0B801C7010E94913422E030E041E0C9
:103CB00050E0BE016F5F7F4FC8010E9491340F90AA
:103CC0000F90DF91CF911F910F91FF90EF9008958A
:103CD000FF920F931F93CF93DF93F62ED0E0C0E0B7
:103CE000082F10E08091A6018C171D06B9F0B4F0E2
:103CF000FE01EE0FFF1FEB57FE4F9081892F869537
:103D00008F718017110641F4F11002C090FD04C0BC
:103D10008C2F0E94251E21972196E4CFDF91CF9111
:103D20001F910F91FF900895CF93DF93FC01EE0F49
:103D3000FF1FE80FF91FEC54FD4F228122952F70D1
:103D40002617170691F02A3080F4EC0130E020E0CD
:103D50004FEF50E0CF010E947A1C60E08C2F0E9450
:103D6000681E81E0DF91CF91089580E0FBCF1F9224
:103D70000F920FB60F9211248F939F938091E100C1
:103D80009091E100937F9093E10083FF0FC0109228
:103D9000E90091E09093EB001092EC0092E3909395
:103DA000ED0010922F0498E09093F00082FF22C063
:103DB00093E09093E9009091F200992319F09AE32F
:103DC0009093E80090912004992341F09091200471
:103DD000915090932004911101C05D9A90912E040E
:103DE000992341F090912E04915090932E049111BB
:103DF00001C0289A84FF18C08091E2008E7E816005
:103E00008093E2008091E1008F7E8093E1008091B9
:103E100021048E7E8061809321049F918F910F9069
:103E20000FBE0F901F90189580FFF7CF8091E20092
:103E30008E7E80618093E2008091E1008E7E80938F
:103E4000E100809121048E7E8160E5CF1F920F9268
:103E50000FB60F921124CF92DF92EF92FF920F9341
:103E60001F932F933F934F935F936F937F938F9302
:103E70009F93AF93BF93EF93FF93CF93DF93CDB710
:103E8000DEB76C97DEBFCDBF1092E9008091E800ED
:103E900083FF25C068E0CE0145960E94920882EF1C
:103EA0008093E8008D8987FF39C09091E80090FFEA
:103EB000FCCF982F907609F034C19E894F89588D98
:103EC0002F89F88C911131C0803861F580911F04E1
:103ED0008093F1001092F1008EEF8093E8006C96D1
:103EE0000FB6F894DEBF0FBECDBFDF91CF91FF912B
:103EF000EF91BF91AF919F918F917F916F915F9162
:103F00004F913F912F911F910F91FF90EF90DF9074
:103F1000CF900F900FBE0F901F9018959EEF90932B
:103F2000E800C7CF1092F100D5CF913059F481113C
:103F3000D3CF4130510581F680911F048D7F80934E
:103F40001F04CACF933049F48111C6CF41305105C7
:103F500019F680911F048260F2CF953041F4809170
:103F6000E80080FFFCCF20682093E300B5CF9630B7
:103F700009F0A9C00B8D1C8D22E01092E90010926F
:103F80001D0410921C04F2122EC010921B041092F9
:103F90001A040E9461081F8299E09983FA8291E0D5
:103FA0009E8390EA98879AEF998720911C0430911C
:103FB0001D04275F3F4F3C832B838D831092E900C4
:103FC00010921D0410921C0410931B0400931A04F9
:103FD00049E050E0BE016F5F7F4F80E00E943B08E8
:103FE0000E94610879CF10931B0400931A040E9469
:103FF000C406DC0112960D911C910115110509F4FE
:1040000051C1D801ED91FC910480F581E02DBE01F4
:104010006B5E7F4FC8010995009709F03EC1F8011A
:1040200000851185EACFF3E0FF120EC08F89882347
:1040300009F440C0823061F440E867E089EB99E020
:104040000E940808811148CF81E28093EB0047CF9E
:10405000813029F440E86BE08DEA99E0F1CF8330BC
:1040600099F70E94C406DC011296ED90FC908E0137
:104070000F5F1F4F6801E114F10479F0D701ED9152
:10408000FC910680F781E02DB801C7010995080F62
:10409000111DF701E084F184EECFD8011C92F601E6
:1040A00001900020E9F73197BF016C197D0940E0CC
:1040B000C601C6CF67E979E0FB01449150E080E892
:1040C0000E943B0809CF973009F4BECF983021F405
:1040D00081E08093F10000CF993009F0FDCE83702C
:1040E00009F0B2CFE6E2F1E081E031E096E3219120
:1040F000222371F08093E9003093EB00DF011197E8
:104100002C912093EC009093ED008F5F873079F72E
:104110008EE78093EA001092EA008F8980932F0443
:10412000DBCE8B8D9C8D1092E90010921D041092B5
:104130001C0490931B0480931A04898D811192C0F2
:104140008E899D89913A49F4813209F07DCF47E00B
:1041500050E068E071E080E0B3CF913209F074CFB5
:10416000833269F48F89988DB0E0A0E080930401D8
:1041700090930501A0930601B0930701ADCE803264
:1041800069F48091E80082FFFCCF67E088E091E06D
:104190000E9492088BEF8093E8009ECE823209F055
:1041A0009BCE8F8980930F01EEEFFFE7859194916D
:1041B0008B3F9C4D51F1E0E0F8E080910801909137
:1041C0000901A0910A01B0910B01803B9440A10527
:1041D000B105F1F480910F0180FD1AC0EE3F8AE035
:1041E000F80789F587E797E79183808380916000DE
:1041F00080931E0488E19BE00FB6F894A895809305
:1042000060000FBE9093600067CEEEEFFAE0D5CF6E
:10421000808191818737974709F05ECEA89580917C
:10422000600088618093600080911E04809360002C
:10423000EE3F2AE0F20789F08091FE0A9091FF0A92
:104240009183808349CE808191818737980751F28D
:104250009093FF0A8093FE0AC5CF1092FF0A109236
:10426000FE0A3ACE0E94C406DC0112960D911C9102
:104270000115110509F4E8CED801ED91FC910190EA
:10428000F081E02DBE016B5E7F4FC8010995811161
:1042900023CEF80100851185EBCF181619060CF412
:1042A0001BCED2CEF1E0FF12BECE6BE979E004CF97
:1042B0000F920FB68F939F93EF93FF9380916E01B0
:1042C0008D5F8D3708F08D5780936E01E4E7F1E044
:1042D00080818E4F808391819F4F918382818F4F08
:1042E000828383818F4F8383EFE6F1E080818F5F4C
:1042F000808381818F4F818382818F4F82838381ED
:104300008F4F83838FB18F6066991C9B88278F3670
:1043100081F480916D01981B963068F0E0E0F8E040
:1043200087E78083818388E180936000F093600059
:10433000FFCF90936D01FF91EF919F918F910FBEF1
:104340000F9018951F920F920FB60F9211242F9372
:104350003F934F935F936F937F938F939F93AF930D
:10436000BF93EF93FF9380915901882349F0809187
:104370005C01E0915D01F0915E019081892780836D
:1043800080917301882329F1809155019091560104
:10439000A0915701B0915801892B8A2B8B2BC9F022
:1043A0008091550190915601A0915701B09158010B
:1043B0000197A109B1098093550190935601A093EB
:1043C0005701B0935801892B8A2B8B2B11F40E9433
:1043D0009412FF91EF91BF91AF919F918F917F9137
:1043E0006F915F914F913F912F910F900FBE0F9062
:1043F0001F9018951F920F920FB60F9211248F9352
:104400009F93EF93FF9390915F01E0916001F09192
:104410006101808189278083FF91EF919F918F9126
:104420000F900FBE0F901F901895E0E3F4E01382F9
:10443000128288EE93E0A0E0B0E084839583A683A7
:10444000B78380E391E0918380838FEF9FEF95871F
:10445000848710928004E2E8F4E01382128282E4FE
:1044600091E09183808380E1808717821682118694
:104470001286138614861586109290081092910861
:1044800081E0809392080895CDB7DEB76C97DEBFC8
:10449000CDBF789483E084BD83E085BD81E08093C7
:1044A0006E00E1E8F0E083E08083E0E881E0808373
:1044B000E1E983E08083E0E981E08083E1EC87E06B
:1044C0008083E3EC81E08083E0EC82E08083E2ECB7
:1044D00081E08083EAE787E08083806880831092B0
:1044E0002F0410921F04109221048091D700816044
:1044F0008093D70080EA8093D80089B5806189BD18
:1045000089B5826089BD09B400FEFDCF0E945C06BA
:104510008091D8008F7C80618093D8008091E000EA
:10452000807F8093E0008091E1008E7E8093E100A7
:104530008DE08093E200559A209A0E94C5100E9457
:10454000AB1087FF10C080E094E01EBC00000DB4EB
:1045500007FEFDCF2EB50197C1F74FEF6FEF8FEF3D
:104560000E941D0AFFCF60E085E00E942E1261E0EC
:104570008DE00E942E121092730180916400877F5B
:104580008093640080916500877F809365000E941E
:10459000800580E190E00E949F348F3F09F06BC05E
:1045A0001092130480E190E09A83898360E0CE0149
:1045B00001960E94551D2091190130911A014091D8
:1045C0001B0150911C01298B3A8B4B8B5C8B4091CA
:1045D0001D0150911E0160911F01709120014D8BB2
:1045E0005E8B6F8B788F6091210170912201809199
:1045F000230190912401698F7A8F8B8F9C8F2FB725
:10460000F8948091740190917501A0917601B09118
:1046100077012FBF20918F04222361F0209188041D
:10462000309189042F5F3F4F309389042093880491
:1046300010928F0440918B0450918C0460918D04F2
:1046400070918E0484179507A607B707D4F4481B0A
:10465000423050F083B7817F83BF83B7816083BFCF
:10466000889583B78E7F83BF80E090E0892B39F2F5
:104670000E940000C4CF65E00E9428359093130487
:104680009ACF20918A04820F911DA11DB11D8093A4
:104690008B0490938C04A0938D04B0938E0481E0DE
:1046A00080938F040E9480051091190410931804C0
:1046B0000E94AB1080931904181394C12091160422
:1046C000309117042F5F3F4F309317042093160447
:1046D0000091140410911504053011050CF09FC3CE
:1046E0000430110581F080E80E94DC0B882309F476
:1046F0007EC1C801039664E070E00E944835909343
:1047000015048093140488E00E94DC0B811103C01F
:1047100084E00E94DC0B20911404309115042230B7
:10472000310509F4E3C208F06BC12115310509F424
:1047300097C12130310509F4BEC282E0809392080E
:1047400088E180939008109291088DE499E00E948E
:104750005010CC24CA94E12C01E028E04DEE58E042
:1047600060E170E088E090E00E948F0560911304A2
:1047700070E06F5F7F4F072E000C880B990B0E9433
:10478000883410E1A12EB12C0E94393423E030E0AE
:1047900040E050E00E94B534685E7F4F8F4F9F4FDE
:1047A000B3E0660F771FBA95E1F7AB01435B574F54
:1047B000CC24CA94E12C01E028E060E170E0C5015E
:1047C0000E948F0528E0A20EB11C30E7A316B104A9
:1047D000D9F6EE24E39428E04DEE58E060E170E075
:1047E00080E790E00E948F0581E08093920800911D
:1047F0001404109115040430110509F0B7C20E9489
:10480000040B209101042817190611F00CF095C231
:1048100021E044E458E06AE170E088E290E00E9420
:104820006B10809188049091890462E370E00E948B
:10483000343540E0682F80E00E941D0A12E2109398
:10484000900888E28093910882E398E00E945010DB
:104850004091130450E068E270E08AE490E00E9426
:10486000B1131093900810E3109391088BE298E035
:104870000E9450104091020450E060E370E08AE42E
:1048800090E00E94B1138AE58093900810939108FC
:1048900089E298E00E9450100E94040BAC0160E392
:1048A00070E080E690E00E94B1130E94040B8A3011
:1048B00091050CF457C28436910509F055C282E780
:1048C0008093900880E38093910886E298E00E94AC
:1048D000501080E18093900888E3809391088CE1E8
:1048E00098E00E94501040910804842F82958F70A8
:1048F000482F440F440F480F50E068E370E08AE40B
:1049000090E00E94B11310E000E035E0C32EAA242D
:10491000A39442E3B42EC09E9001C19E300D112499
:10492000F901E558FE4F8381807F09F443C0A90156
:1049300046585E4F7A01DA014C91842F869590E0BB
:1049400040FD02C00C94A8336081462F46954695E1
:104950004695618161706295660F607E642B70E0A0
:104960000E944835892BE1F4F7011082F901E258E1
:10497000FE4F8081805180838091780190917901F0
:104980000817190769F440E060E080E00E941D0A02
:10499000D70113968C91882319F081E00E940B12A5
:1049A000C09EF001C19EF00D1124E658FE4F80819B
:1049B0008E5F80830130110511F00C94A433809137
:1049C00090048EBDE1E9F4E080E998E021910DB416
:1049D00007FEFDCF2EBD8E179F07C1F70DB407FE52
:1049E000FDCF42CE109217041092160471CE80E1D2
:1049F0000E94DC0B882309F486CEC80101967BCE89
:104A00002330310509F48FC12430310509F095CEEA
:104A1000882309F492CE0E94040B209101042817E8
:104A2000190609F09CF48091130490E0019665E06A
:104A300070E00E9448358093130420E130E03A830F
:104A40002983682FCE0101960E94551D10921504EE
:104A50001092140440E060E080E00E941D0A6DCED8
:104A6000882309F46ACE009113041092A8011092D1
:104A7000A701109202041092A6018FEF809300010B
:104A800070E1079F80011124F801E955F84FB490B7
:104A9000B0920304F801E855F84FA490A0920404E2
:104AA000F801E755F84FE491E0930504F801E65565
:104AB000F84FE491E0930604C8018555984F6C01C6
:104AC000FC013196E4919E2F9F70992EEE2EF12CD1
:104AD00084E0F594E7948A95E1F78E2D8295807FA6
:104AE000892B80930804F6013296E491E09309043F
:104AF000F601339625913491C901A90164E05595D9
:104B000047956A95E1F74295407F2F70242B2093BB
:104B10000A0480E19802812D990B11248295807FEF
:104B2000932F9F70892B80930B04F6013596259166
:104B30003491C901A901E4E055954795EA95E1F75B
:104B40004295407F2F70242B20930C0480E1980223
:104B5000812D990B11248295807F932F9F70892B33
:104B600080930D04F801EE54F84F85919491909341
:104B70000F0480930E04F801EC54F84F6491609395
:104B800010040B54184FF8012591349130931204FE
:104B90002093110470E00E94CC1463E070E00E9446
:104BA0004835892B11F06F5F7F4FF8018591949103
:104BB000660F771F680F791F709300046093FF03DF
:104BC00024E62E9DC0012F9D900D1124692D70E0CB
:104BD0000E944835609301041092FE031092FD0379
:104BE000AB2DA153BB0BCD010E94890A1092FC038F
:104BF000292D220F220F920EB3E09B9E90011124CB
:104C0000C9018C549D4F9093B3028093B20248E443
:104C100051E0421B530B5093B1024093B002E0EBC2
:104C2000F1E020E031E0DF01B9011D9261507040F8
:104C3000E1F770E060E00E947C351092AF011092C5
:104C4000AE01F601C4902CE320930301FAE0CF9E5D
:104C5000600111242C9DC0012D9D900D11242091E7
:104C6000880430918904820F931F9093AD01809343
:104C7000AC018FE090E090930201809301011092CB
:104C8000AB011092AA018091FD03EB2DE81BEA5DB8
:104C9000E09380048A2D90E008966FE370E00E9414
:104CA00048358F73809381041092A90185E090E0CC
:104CB0000E94D51342CD80E20E94DC0B9091130438
:104CC000882329F0992319F091509093130480E4DC
:104CD0000E94DC0B882309F430CD809113048430CA
:104CE00008F02BCD8F5F8093130427CD81110BC06B
:104CF00080E20E94DC0B811106C080E40E94DC0B84
:104D0000882309F41ACD82E090E00E949F3422E0CB
:104D100030E03A83298361E0811160E0CE010196A1
:104D20000E94551D0ACD882309F407CD1092130463
:104D300080E190E09A838983F0CF82E280939008AB
:104D40008AE18093910889E398E00E945010809155
:104D500088049091890462E370E00E94343540E059
:104D600060E06ACD86E6ACCD8CE6AACD21E00115E7
:104D7000110509F020E047E158E06EE170E080E2C3
:104D800090E00E946B1021E00130110509F020E055
:104D900040E158E066E270E080E290E00E946B1033
:104DA000882349F04091130450E066E270E088E403
:104DB00090E00E94B113009114041091150421E0B9
:104DC0000230110509F020E049E058E06EE270E0A1
:104DD00080E290E00E946B10882381F082E090E0F6
:104DE0000E949F348823C1F086E098E028E4209355
:104DF00090082EE2209391080E94501021E0033089
:104E0000110509F020E047EF57E066E370E080E22B
:104E100090E00E946B1077CD82E098E0E7CF482FBA
:104E200048704F8383FD24C01091800441E050E01E
:104E300065E070E080E20E94C60B882341F08EEFAF
:104E40009FEF1E3199F011501093800411C041E082
:104E500050E065E070E080E40E94C60B882309F40E
:104E6000AAC01F3709F0A5C082E090E00E94890A1D
:104E700080900E0490900F049E828D828090FD039E
:104E80009090FE035401A3E0B594A794AA95E1F78E
:104E9000B5018D819E810E94CC142C0163E070E0ED
:104EA0000E9448351B01182F9501245F3F4F3C831A
:104EB0002B838091100490E0281739072CF0AC0167
:104EC000415051095C834B838EE190E0BC0168192D
:104ED0007909788B6F878B819C818A159B050CF4EF
:104EE00090C0ED81FE81EA0DFB1DE491C501F3E068
:104EF000880F991FFA95E1F7AF85B889A80FB91FF8
:104F0000BA87A987712C612C2E2FEE0F330B3E87A9
:104F10002D878D859E85062C02C0959587950A94D0
:104F2000E2F780FF3AC0E0911104F0911204C10150
:104F3000880F991FE80FF91FC590D490C2010E94F5
:104F4000630A45E0140290011124A60102C05595A0
:104F500047952A95E2F74F71552763E0440F551F97
:104F60006A95E1F7435B574FCC24CA94E82E01E0E1
:104F700028E0B301E3E0660F771FEA95E1F7898542
:104F80009A850E948F055FEF451A550A1F5F1330FF
:104F900021F46FEF261A360A10E07FEF671A770ABE
:104FA00088E06816710409F0B4CF9FEFA91AB90A16
:104FB00092CF1F5F49CF00918104102F1F7341E0F2
:104FC00050E065E070E080E10E94C60B882351F05C
:104FD0001F3309F44DCF1F5F1F73007C102B1093FC
:104FE000810446CF41E050E065E070E080E80E9437
:104FF000C60B882309F43CCF112309F439CF115093
:10500000EBCF740134E0F594E7943A95E1F7C401ED
:105010008E599F4FDC0144E0B695A7954A95E1F77C
:10502000BC83AB8384010F701127E091B202F09131
:10503000B302FE83ED83C090B002D090B10237017D
:10504000B12CA12C8EE188198D87B801C3010E9473
:105050001B14F301EE0FFF1F9F0120553E4F3A87AF
:105060002987D70198018B809C808A169B060CF4B7
:1050700046C04A2F4295407F9D84490D50E015015E
:10508000240E351EE985FA854080518061E070E08C
:10509000022E02C0660F771F0A94E2F76421752181
:1050A000672BF1F02C01FFEF4F1A5F0AB901640F73
:1050B000751F6038710580F4B101620F731F6E5760
:1050C0007B4F8D809E80880D991DFB018684FC019D
:1050D00080818826FB0186864C145D04D8F4C201C9
:1050E0002F5F3F4F2031310569F6119629853A85AA
:1050F0002E5F3F4F3A87298730E020E0B4CF30E180
:10510000630E711C40E8A40EB11CA11454E0B50656
:1051100009F09BCF8F80811008C184E00E94DC0BD6
:10512000882309F402C180911001882309F4FDC08D
:105130001091840117FDF9C023E01202D00111245F
:10514000AC54BD4F12968C91129782958F7084301B
:1051500008F4EBC0E091AA01F091AB013197E9307E
:10516000F10508F0E2C0E954F74D0C945C35C02815
:10517000D828EC28F7280B2919292D29BC29CF2953
:1051800064E070E0812F110F990B0E94941E882318
:1051900009F4CBC080910904805180930904498DA2
:1051A0005A8D6B8D7C8D90E080E00E94B80BBDC065
:1051B00065E070E0812F110F990B0E94941E8823E7
:1051C00009F4B3C080910A049FE0980F9F70807F1C
:1051D000892B80930A04E3CF61E0812F0E94AB1DED
:1051E000882309F4A2C080910A048051F2CF66E0BE
:1051F00070E0812F110F990B0E94941E882309F4EF
:1052000094C080910B049FE0980F9F70807F892B42
:1052100080930B04C4CF67E070E0812F110F990BCE
:105220000E94941E882309F480C080910B04805151
:10523000EFCF68E070E0812F110F990B0E94941E50
:10524000882309F472C080910C049FE0980F9F702E
:10525000807F892B80930C04A2CF8A3008F065C030
:10526000893009F053C04091A60150E030E020E0C1
:10527000612F110F770B241735070CF056C0F90179
:10528000EE0FFF1FEB57FE4F9081892F86958F7190
:1052900086171706C1F590FD36C0A1818A2F83704D
:1052A000880F880FB92FB295B695B695B3708B2B32
:1052B000843048F5865F282F2295220F220F207C0C
:1052C0009F73922B9083869586958370AC7F8A2BF3
:1052D00081831092800110928101109282011092BC
:1052E00083018091780190917901019741F440E028
:1052F00060E080E00E941D0A81E00E940B12809114
:105300000C048051A7CF2F5F3F4FB5CF30E020E096
:105310004FEF50E069E070E0CD010E947A1C60E040
:10532000812F0E94AB1D8111EACF8FEF89838AE024
:105330008A83F12CA3E08A2EBEE19B2EB090A801B7
:105340008F2D0F2C000C990BB816190609F00CF4D0
:105350007EC03F2D482D3402F0011124EC54FD4F46
:10536000209181042F7330E081818F7390E0821748
:10537000930714F1F394E2CF11968C911197982F23
:10538000906411969C9386FDD0CF80910D049FE090
:10539000980F9F70807F892B80930D0400CF11960A
:1053A0008C911197982F906811969C9387FDBDCF93
:1053B00080910D048051F0CF059682179307D4F2A7
:1053C000209180048091FD03592D581B852F9081D9
:1053D000890F281778F2E281E295EF70F0E0E35E42
:1053E000F84FE4918E0F9927991F2817190608F096
:1053F000C1CFE091AA01F091AB013197E930F105FD
:1054000018F5EB5FF54D0C945C350E2A162AA92A87
:10541000AE2AB72AC12ACA2AD22ADD2AA12CD12C27
:10542000C12CE12C05E010E020E008C0A12CCC2428
:10543000C394D12CE12C10E000E021E041E06F2D7D
:10544000CE0101960E94FE168A81811193CF898137
:105450008093840163E08602F0011124EC54FD4F37
:105460009281917021E08F3F09F420E080918104C6
:1054700020FB86F990FB87F98093810480911404C6
:10548000909115040597029708F0E6C21091A701C4
:10549000809108048F70982F990F990F890F181712
:1054A00008F093C00E94E90BBC01809188049091A0
:1054B00089040E943435892BB9F481E08B0D8093E7
:1054C000A80173E0B79EF0011124EC54FD4F8091C8
:1054D00003048A5F8083809104048F73818380ED4D
:1054E00082831F5F1093A70184EBE82E82E0F82EE1
:1054F000B12CA12C95E0592E8091A8018A151B048E
:1055000009F00CF473C0D70112964C90C42CC294CD
:105510000FE0C022B9F01092A50160E0C7010E941F
:10552000530B4C016090880470908904C301B4014E
:105530000E943435892B09F416C1C7010E94940BCF
:10554000811134C22FEFA21AB20A33E0E30EF11C2C
:10555000D3CFA12CCC24C394D12C63CFA12CCC24A9
:10556000C394D12CEE24E39406E010E05DCFAA248E
:10557000A394CC24C394D12CEE24E39407E010E050
:1055800053CFA12CCC24C394D12CEE24E39408E077
:1055900010E04ACFA12CCC24C394D12CE12C09E0FB
:1055A00010E042CFAA24A39432E0C32ED12CE12CE8
:1055B0000FE010E020E040E042CFA12C22E0C22E1C
:1055C000D12CE12C0AE010E0F5CFB1108DCF209165
:1055D000000180918804909189046AE070E00E9443
:1055E00034352F3F09F0B3C080930001912C812CFA
:1055F00083E0582E9EE1492E2AE0622E712C809184
:10560000A6018815190409F00CF4FDC15401AA0C77
:10561000BB1CF501EB57FE4F0081102F16951F7133
:10562000402F429546954695437001810370000FC7
:10563000000F042B0430A0F5159DC0011124AC010E
:105640004C545D4F7A01DA01CC90D12CC6010E94F6
:10565000530A811106C0C60105960E94530A882389
:10566000F9F0059DA00111244F53564FF7016181B8
:105670006F736550770B8281807F803419F0FFEF64
:10568000CF1ADF0A8091FD03242D281B822F8C0D59
:10569000CC24CA94E12C01E023E090E00E948F0525
:1056A000F501EA57FE4FE081E695E695F0E080913E
:1056B00003013CE3863031F4CF01B3010E94483549
:1056C000FB0136E070E08091880490918904632F9B
:1056D0000E9434358E179F07B1F5F501EB57FE4F49
:1056E0002081422F42954695469543709181892F9E
:1056F0008370880F880F842B815F8F70482F4295AD
:10570000440F440F407C2F73242B2083482F469551
:1057100046959C7F942B9183811165C1159DC00195
:1057200011248C549D4F30E020FF57C120E04FEFF3
:1057300050E063E070E00E947A1C882D0E94251ED4
:1057400031E0831A91084FEF841A940A58CF022E41
:10575000000C330B2817390709F048CF84E090E09C
:105760000E94D51343CFEC2DF0E0E35DF84F649138
:10577000842D8695877090E0019670E00E94343504
:105780008C01D82E8770880FB42DB17F4B2E482AFC
:10579000F7014282EFEFEC0DEF3008F083C0F0E04C
:1057A000EC52F44D0C945C35E32B052C0F2C192C8A
:1057B000232C422C542C6B2C7C2C8B2C962C9E2C2A
:1057C000A62CC62CCE2C011112C0D70112968C919A
:1057D000129780FD04C0816012968C9308C0F70177
:1057E000918197FD0BC0906891838E7F82838A940C
:1057F0008928A9F581E08093A50139C090649F773D
:1058000011969C9311978E7FE7CF509EB001519EC9
:10581000700D11246558754F45E050E083C0B80104
:10582000660F771F660F771F6557784F44E050E08B
:1058300079C0B801660F771F600F711F6256754FF0
:1058400043E050E06FC0509EB001519E700D112496
:105850006756754F45E050E0C7010E94D81C809103
:10586000A5018F5F8093A501843008F06BCEC7013E
:105870000E944418882309F465CE60E08A2D0E94B6
:10588000681E60CE509EB001519E700D1124635A67
:10589000754F45E050E0C7010E94D81C81E0B4E09C
:1058A0000B1312C080E010C0509EB001519E700DCD
:1058B0001124615C754F45E050E0C7010E94D81C7F
:1058C00081E0E3E0E01770F38A94892809F081C051
:1058D0008111C5CF32CE509EB001519E700D112462
:1058E000695E754F45E050E0C7010E94D81C025028
:1058F00081E0033048F3D6CF509EB001519E700D29
:1059000011246750764F45E050E0C7010E94D81C33
:10591000802F8170D9CFB801660F771F6D50764FF9
:1059200042E050E0C7010E94D81CCECFB801660FFC
:10593000771F660F771F6558784F78CF509EB0015C
:10594000519E700D11246459784F66CF61E0C701F4
:105950000E94530BBC01C3010E943435892B71F0A6
:10596000DD24DA94D00E9D2D9770990FD7011296F1
:105970008C911297817F892B12968C936D2D637079
:10598000659DB0011124685A784F46CF509EB001F2
:10599000519E700D1124675B784F3ECFB801660FA2
:1059A000771F600F711F635C784F4ACFF7018281C8
:1059B00082958F7088248394912C02C0880C991C46
:1059C0008A95E2F7C4018E789873892B09F047CF46
:1059D000B9CD882309F4B6CD42CF20E04FEF50E097
:1059E00064E070E0A8CE833009F0ADCE20FDABCEF0
:1059F0005CEF530F550F42E261E471E381E090E008
:105A00000E94B80BA0CE10E000E06091A8016017E2
:105A1000110611F10CF1F801EE0FFF1FE00FF11F5D
:105A2000EC54FD4F828182958F7099F4F02E061709
:105A300070F461506093A801662329F0061719F0ED
:105A4000802F0E946E1D61E08F2D0E94681E015004
:105A500011090F5F1F4FD9CF64EB72E07E836D8316
:105A60001B011C821B8233E0732E15E0F090A8010D
:105A70008F2C912C98868F822B813C81281539059B
:105A80000CF070C1D10112966C901297062D029500
:105A90000F7009F4C1C0EC908E2D90E00E94530A63
:105AA000882309F4B9C08091FD03BEE1B81B8B2F98
:105AB0008E0DF10161816F73F62CF694FF2DF77056
:105AC000FF2E262D2170622E01500F3008F0A4C049
:105AD000E02FF0E0E259F24D0C945C357D2D152E4F
