:100000000C94570E0C947F0E0C947F0E0C947F0E64
:100010000C947F0E0C947F0E0C947F0E0C947F0E2C
:100020000C947F0E0C947F0E0C947F0E0C947F0E1C
:100030000C947F0E0C947F0E0C947F0E0C947F0E0C
:100040000C94E12B0C947F0E0C947F0E0C947F0E7D
:100050000C94EB2A0C947F0E0C947F0E0C945A2A6D
:100060000C947F0E0C947F0E0C947F0E0C947F0EDC
:100070000C947F0E0C947F0E0C947F0E0C947F0ECC
:100080000C94A42A0C947F0E0C947F0E0C947F0E7B
:100090000C947F0E0C947F0E0C947F0E0C947F0EAC
:1000A0000C947F0E0C947F0E0C947F0E06073C067A
:1000B00018110410FF0003100001031001020210C8
:1000C00002020310FF000414FF0006073C0518128B
:1000D0000410FF00031000010310010202100202CD
:1000E0000310FF000607320418110510FF0003106B
:1000F0000002031001020210020206063204181068
:100100000310FF000310000103100101021002019F
:1001100006073204180E030CFF00030C0001030C49
:100120000102021002020607280620120310FF0037
:100130000310000103100102021002020310FF006D
:100140000414FF000607280520100410FF00031008
:10015000000103100102021002020310FF00060753
:100160002804200F0310FF000310000203100101F8
:10017000021002020606280420110310FF000310DB
:1001800000010310010202100201060728042010DA
:10019000030CFF00030C0001030C01020210020219
:1001A0000506190420100410FF00031000010310BD
:1001B0000101021002010310FF00050619042010BE
:1001C0000310FF00041000020310010102100201DD
:1001D0000506190320160410FF0003100001041087
:1001E000010105051903200F0510FF00031000028F
:1001F0000210010105051903200B0310FF00031075
:1002000000020210010104050F0420170410FF0072
:10021000041000010310FF000310FF0004050F0588
:1002200020100210FF000310000104100101031050
:10023000FF000310FF0004050F0420100210FF0050
:1002400003100001041001010310FF0004050F0357
:10025000180A0410FF000310000202100101040537
:100260000F0320070310FF0002100002021001011B
:100270004D4F52414C7E535550504F52543A7E4A46
:100280004553534943410054455354494E473A7EE0
:10029000545558494E41544F523230303900207E27
:1002A00047524150484943533A7E56414D50495276
:1002B00049435320002020444556454C4F50455259
:1002C0003A7E46494C4D4F544500204359424552D1
:1002D0004841434B3A2050504F547E323032310027
:1002E0002D7E534F4C447E4F55547E2D0A004D4F6A
:1002F00056452048455245004841434B494E470A20
:1003000043594245524445434B530A5341564500D5
:100310004445434B7E563320004445434B7E563282
:1003200020004445434B7E563120004E4F7E4445CD
:10033000434B20004F460042414C414E4345005440
:100340004F4F4B00434F4E47524154554C41544937
:100350004F4E5321004F5645522100495300484506
:1003600052450054494D4500554E464F5254554E46
:100370004154454C592C00414E59004146464F527C
:10038000440043414E4E4F5400434F4E54494E5546
:10039000450053574150004F520050555243484179
:1003A000534500434F4D504C455445442E00424563
:1003B000454E004841434B53004F4E434500465580
:1003C00052544845522E00414C4C4F5700474F4F16
:1003D000442E00414E44005345525645525300426C
:1003E0005900444F4E452E0048415645005448455B
:1003F0005900504159004241535441524453004323
:100400004F52504F0054484F5345004D49474854B0
:10041000004841434B494E470052454D4F5445001B
:10042000535455434B2C00414D0049460043415520
:100430004748542E0047455454494E4700544845B8
:1004400052450055504752414445532E00534F4D9D
:10045000450053484F50532E004C45542753004FEE
:1004600055542E004D450048454C5000434F4E54C6
:100470004143540046494E4400484F5045004845CA
:1004800052452E004C4556454C004C4F57455200A6
:1004900050454F504C45005249474854005041592F
:1004A000494E47005748454E0050524943452E009B
:1004B0004E414D452E2E00434C4541520043414E86
:1004C00000484500444F574E2E005448454D0053B8
:1004D000454C4C00544F4441592E00554E434F5605
:1004E0004552004D55434800484F57004855525417
:1004F000532E00574845524500484954004C455436
:100500002753004649474854210041005749544861
:100510004F555400484F4D450047455400455645FA
:100520004E0043414E27540048454C4C2C00574840
:100530004154004D4F52450053595354454D5300BB
:100540005448454952004841434B004C414D4553A6
:10055000542E004E43504427530041564F49440007
:10056000494E54454C004A55535400484F4D452E72
:10057000004954004D414B450054455252592C00FE
:100580004E4F57005348495421004F574E00594F82
:10059000555200574954480057494C4C00494E5455
:1005A000454C210054484500464F5200594F5500D4
:1005B0005448414E4B004C4556454C21005448523E
:1005C000454154004D5900474F4553005550005484
:1005D0004849532E005448524F554748004252450F
:1005E0004143480050455250415245440057415301
:1005F0004E27540044414D4E2C00434F5354532139
:1006000000414C4C00415400444F574E00434F5260
:100610005000544841540054414B4500544F004E43
:100620004545440049000A008D14A1C881CFD9F185
:1006300002AF02021C1E0A1000002040808686873E
:10064000C6CF00000000061E1E1F5F5F2222FFFFB4
:100650000703010000000000004000C8B8F8F8F8E7
:10066000F8F8F8F8F8F8F8F8F8F080010307FFFF59
:10067000FFFFF000000000000000E0F0F47C180034
:1006800001FFFCFDF1F1F0F2FAFFFFFF0000C0FFF7
:10069000FFFFFFFFFFF8E000000000000001004046
:1006A00000889C9C9F9DBFFFFFFFFFFF7F9BEFF09B
:1006B000FFFFFFFFFFFF7F8F7703000000000000B8
:1006C0000000000C3C3E3FBFBFDFDFCF870340A1EF
:1006D00043871F7FFFFF030302020202020202029E
:1006E00002020202020202020202020202020202EA
:1006F00002020202020202037E000102030405005C
:10070000060708090A2003222324002502032700E4
:1007100028290203222324002A2B2C18002D1A2E0C
:10072000192F300031323334350036373819063955
:1007300000233A3B3C1B013D003E01022D26033FB6
:1007400000030440410102033203210042434413E9
:10075000450018354647481949004A01434B1300E4
:10076000144C4D4E011B4F0500500351525354324F
:10077000031955000102565702572502000332584B
:100780003400595A5B015C5D5E005F60515200535A
:1007900061626300020364182E00656667685F2B60
:1007A000690001434F266A003F23036C5203002A6D
:1007B000406D6E01662E01020100430440071800DF
:1007C0006B0B010C0D00030E0F100011121314150A
:1007D000161718191A00011B041707001C1D1E1FED
:1007E000096F667000710375007273740057096FAA
:1007F00071007917007677780057791D007A7B7C35
:100800007D7E00096F7100177F190607001C358077
:10081000810B0D0D0C08070B100E0B0A0C0C0D159F
:100820000F0F100E0C07100A080101010100000152
:1008300000000154415247455420004D4F4E455948
:10084000005354415455532020202020202020487C
:1008500041434B00FFFFFFFFFFFFFFFFFFFFFFFFD5
:10086000FFFFFFFFFFFFFFFFFFFFFFFFFFFFFFFF98
:10087000FFFFFFFFFFFFFFFFFFFFFFFFFFFFFFFF88
:10088000FFFFFFFFFFFFFFFFFFFFFFFFFFFFFFFF78
:10089000FFFFFFFFFFFFFFFFFFFFFFFFFFFFFFFF68
:1008A000FF1F1F1F1F1F1F1F1F1F1F1F1F1F1F1F78
:1008B0001F1F1F1F1F1F1F1F1F1F1F1F1F1F1F1F48
:1008C0001F1F1F1F1F1F1F1F1F1F1F1F1F1F1F1F38
:1008D0001F1F1F1F1F1F1F1F1F1F1F1F1F1F1F1F28
:1008E0001F1F1F1F1F1F1F1F1F1F1F1F1F1F4D0DFC
:1008F000005E0202F252F202F2020202F20202026E
:10090000020202F242F202F252F202F2121202F277
:1009100042B2027252D202020202F252120202F2F7
:100920000202F212F20202F202027252D202F24207
:10093000F202F2521202F212E202025E0000090812
:10094000080908090809090908090909080808081F
:10095000090809080908090809090908090809080E
:100960000909090808080809080808080908080901
:1009700008090808090808090909080908090809EF
:100980000909080909080808090043414E4E4F5457
:10099000204D4F5645004255464645522046554C3F
:1009A0004C00444953434F4E4E454354454400FF89
:1009B000FFFFFFFFFFFFFFFFFFFFFFFFFFFFFFFF47
:1009C000FFFFFFFFFFFFFFFFFFFFFFFFFFFFFFFF37
:1009D000FFFFFFFFFFFFFFFFFFFFFFFFFFFFFFFF27
:1009E000FFFFFFFFFFFF1F1F1F1F1F1F1F1F1F1FD7
:1009F0001F1F1F1F1F1F1F1F1F1F1F1F1F1F1F1F07
:100A00001F1F1F1F1F1F1F1F1F1F1F1F1F1F1F1FF6
:100A10001F1F1F1F1F1F1F1F1F1F1F1F1F370D00FF
:100A20005E0202020202020202020202020202024A
:100A30000202020202020202020202020202020296
:100A40000202020202020202020202020202020286
:100A5000020202025E0000090808080808080808E7
:100A60000808080808080808080808080808080806
:100A700008080808080808080808080808080808F6
:100A8000080808080808080808080809005E024C59
:100A90000236021C020602F401E201D001BA01A0F2
:100AA000018A0174015E01440126011001FA00E48B
:100AB00000CA00AC00B8014D014A019A0288014DFC
:100AC0000126014D0100004D0188019A024A01E80A
:100AD000034A014D0100004D01B8014D014A019A40
:100AE0000288014D0126014D0100004D0188019A47
:100AF000024A01E8034A01E80300004D01B8014D34
:100B0000014A019A0288014D0126014D0100004D64
:100B10000188019A024A01E8034A01E80300004DF6
:100B200001B8014D014A019A0288014D0126014D8B
:100B30000100004D0188019A024A011D090080044C
:100B4000090100010101000101100350005D015085
:100B50000000805D01500010035000008004040775
:100B6000030100080C010501050102045800000002
:100B7000000000000B0A0201000101000101010058
:100B800001425546464552000908012945114529AB
:100B900001391133077F41757D7F4175417F7F4169
:100BA0007F7F415F5F7F41555D7F415D637F7F7FD9
:100BB0005D496363495D7F7F7F7F7F7F7F7F7F7F2D
:100BC0007F7F7F7F7F7F7F7F33077F7F417F7F4175
:100BD0007D417F5155457F7D417D7F4175417F41FD
:100BE0005F5F7F415F5F7F41555D7F415D637F7FD9
:100BF0007F674F6773797D7F7F7F7F7F7F30302E68
:100C000030300054494D453A004841434B530006AB
:100C100008F804323101010208B700060900010199
:100C20000001000001010001000A00070D002E6B09
:100C30003A000014061B0F1B06000A4C4F414400EB
:100C4000544552525920422E00290A7E204E4F0010
:100C50004C4F5745527E5448524541547E313025C1
:100C60000A7E2059455320280043594245524445A5
:100C7000434B53000308070707070800282C2E2CB6
:100C8000280088013C0000003C0088013C000080F6
:100C90000219FE00FF0096000000021900FE00FF8E
:100CA00000960000172000000080E0F8FC7E7E3FE8
:100CB0003F1F3F3F7E7EFCF8E08000000080200C5C
:100CC0000301000000040400B0E0C4C4E00000011F
:100CD000030C2080BC0000000000C0000000003DAC
:100CE0003F1F0F03C00000000000BC80909C989A3A
:100CF0009D99999488908490889499999D9A989CAC
:100D000090800128FFFFFF6F050328FF00FF7F0091
:100D1000FFCB00FF2D00B70500040128FF7FCB2D7E
:100D20000520534146450A484F5553450054484510
:100D30007E534C554D530A44495354524943540031
:100D4000434F4D4D45524349414C0A20204449539D
:100D50005452494354001F2E00000000000000E0E0
:100D60005088248850600080000000F81422C122BE
:100D700014F80000000000600020408853204788DD
:100D8000103F00FC0A11E4118A5C2192244F842256
:100D900041800080402000000000000102058845DD
:100DA000224488112247801F2142FC72391F804053
:100DB00022110A0400000000000000003F4284F9F4
:100DC000E472BF000500F128449239924428F000F3
:100DD00000000000000000000000000000001128DA
:100DE0004482010204FF00FE00FF500054FF000097
:100DF00000000000000000000000000000000000F3
:100E000000000000010204081F0D0603010000009D
:100E100000002C270E1DFAFC001108040000000041
:100E200000000000000000F028449229924428F0BD
:100E30000000000000C0A010A0C0003874E27438A8
:100E4000020003010000000080408000008000E0FC
:100E500050A8100F183060FF5820168F402010083F
:100E600010214387031D3A713A1C00000000000066
:100E700000FC0A1124CA24118AFD010A152A55EA28
:100E800014380000000209400000000000000000CB
:100E900081000000800008001020040A0403860C72
:100EA000983F16080583000070E8C4E87080408011
:100EB0000000000000000000000000000000000032
:100EC000000000000000000000000201020000001D
:100ED0000000010204081120470E1C0E070000004C
:100EE0000000000000000000000000000000000002
:100EF000272D000000000000000000000000F02886
:100F0000448201824428F00000000000000000003C
:100F100000000000000000000000000000000000D1
:100F20000000804020172040807F0052007F80001A
:100F300000000000000000000000000000000000B1
:100F40000000000000000000FF020408F0088442D6
:100F500001F815224180412214F80000C0A0408011
:100F60000000000000800000000000000000001FE2
:100F70002080402F55AA3500FF000000FFA854AA8A
:100F8000FF00003F83470E1DFAFC001108043AF4ED
:100F9000F80022110800FE458812E71288C5FE8875
:100FA0001122448F462311884422110804020003B1
:100FB000010000000000070300000000000103061C
:100FC0000C1F0F07030100010204080402010000C6
:100FD0000000000000000000000000000208D4D261
:100FE00005077F7F3E1C08411FFE0105F1F1F1114D
:100FF000D1B1D111F1515151515151515151515121
:101000005151510000FF00007F7F09090F06007F4A
:101010007F19396F46007F7F4949414100266F495A
:10102000497B3200266F49497B32FF0000FFFFFFFA
:10103000FEFFFEFF0279CD95A5CD790111111101B9
:10104000F9F901010000FF00007F7F09090F060088
:101050007F7F40404040007C7E0B0B7E7C00070F72
:1010600078780F0700000000000000FF00001F3F1D
:101070003F33333333333E36363E363E363E3636F6
:101080003E36363E360000FF00003E7F41417F3E47
:10109000007F7F0E1C7F7F0000000000000000002A
:1010A0000000000000000000000000003F40504031
:1010B0004040784641415959414141415959414186
:1010C00041414141414100007F000001017F7F011A
:1010D00001007C7E0B0B7E7C007F7F09090F0600E0
:1010E0007F7F49494141000000000000000D083F9A
:1010F000353537353D353D353F31313F111400FF32
:10110000FFFF070300000000000000000000004097
:101110005E405F40404040404040404040404000D2
:1011200000070007000000000000000000000700AA
:10113000000C14FFFEFDFDFEFFFEFDFDFE00FF9F07
:101140003FFFFFFFFFFF3F80BE00FF0200070707D2
:101150000707000707000729050004020E020E0218
:101160000E020E020E020E020E020E020E020E02FF
:101170000E020E020E020E020E020E020E020E02EF
:10118000040000FFFFFFFFFFFFFFFFFFFFFFFFFF68
:10119000FFFFFFFFFFFFFFFFFFFFFFFFFEFEFEFE63
:1011A000FEFEFEFEFEFEFCF8F000000E0FFFFFFF4D
:1011B000FFFFFFFFFFFFFFFFFFFFFFFFFFFFFFFF3F
:1011C000FFFFFFFFFFFFFFFFFFFFFFFFFFFFFFFF2F
:1011D000FFFFFE0E0000FFFFFFFFFFFFFFFFFFFF0F
:1011E000FFFFFFFFFFFFFFFFFFFFFFFFFFFFFFFF0F
:1011F000FFFFFFFFFFFFFFFFFFFFFFFF000000FFFC
:10120000FFFFFFFFFFFFFFFFFFFFFFFFFFFFFFFFEE
:10121000FFFFFFFFFFFFFFFFFFFFFFFFFFFFFFFFDE
:10122000FFFFFFFFFF000000FFFFFFFFFFFFFFFFCB
:10123000FFFFFFFFFFFFFFFFFFFFFFFFFFFFFFFFBE
:10124000FFFFFFFFFFFFFFFFFFFFFFFFFFFF0000AC
:1012500000FFFFFFFFFFFFFFFFFFFFFFFFFFFFFF9D
:10126000FFFFFFFFFFFFFFFFFFFFFFFFFFFFFFFF8E
:10127000FFFFFFFFFFFFFF00293000007A727A7A3C
:10128000727A7A727A7A727A7A727A7A727A7A72EE
:101290007A007A00F804F494949494F4040408F026
:1012A000000000000404F4F5F4F4F4F4F4F4F4F4AD
:1012B000F4F4F4F4F4F4F474F5F4141414151401BF
:1012C000AAAA01151514141415F40400000000FF57
:1012D0007FFF7FD052D252D252D252D252D07FF020
:1012E0006FF0F6062006A026A0A6A6A0A0A0A080CB
:1012F0008000FF0000000000FFF8FFF83F181F18F3
:101300001F181F181F183FD83FF8FFFF0000F0E01C
:10131000D0D6E0F6E6D6D6E606F600FF00000000DE
:1013200000FFFFFFFF0000000000000000000000C1
:10133000FF00FFFFFF0000FFFFFFFFFFFFFFFF0FAA
:10134000EF00FF00FF0000000000FFFFFFFF0000B4
:10135000000000000000000000FF00FFFFFF000091
:1013600029037F7F7F7F7F03787B007F00FF000062
:10137000101301FE01FEFE807EEAFEFEFEFE01FE6F
:10138000000100FF00FFFFFFFEBDF30FFFFF00FFA6
:101390000000000700030303030203000303000728
:1013A000000001FE0180000000007EEAFEFE01FE5A
:1013B000000100FF00FFFEBCF0000001030F00FF72
:1013C0000000000700030302030000000000000704
:1013D000000001FE01000000000000007EEA01FEA6
:1013E000000100FF00BCF00000000000000100FF51
:1013F00000000007000203000000000000000007DA
:10140000000001FE0100000000000000000001FEDD
:10141000000100FF0000000000000000000000FFCD
:1014200000000007000000000000000000000007AE
:1014300000001110C1BEAAAAAAAABAAABAAEAABE30
:10144000AAAAAABEC1FFFFFEFEFEFEFEFEFEFEFE33
:10145000FEFEFEFEFFFFFFFFFFFFFFFFFFFFFFFFA0
:10146000FFFFFFFFFFFFFFFFFFFFFFFFFFFF062064
:1014700000FFFF00FF0000FFFF00FF0000FFFF0074
:10148000FF0000FFFF00FF00E0F0F8FCFEFF1F0F71
:101490000F1F3F3F3F3F3F3F3F3F1F06140800E005
:1014A000F018EC160E060606161616161616161662
:1014B0000600200B010D0D0D0D0D0D0D0D0D0D0D6B
:1014C0000D0D0D0D010D0D0D0D0D0D0D0D0D0D0D58
:1014D0000D0D0D0D0505050505050505050505059C
:1014E00005050505050505050505050505050505AC
:1014F0000505050506081E111F1F000A05083F29DE
:101500003F00140FFFFFFFFF1E000303030300064D
:101510000A0006B6BE0C00000001010000110828F8
:1015200054AA55AA552A542A5428142814081008D5
:10153000142A55AA55AA542A542A142814281008E3
:101540001008100814281428542A542A55AA55AAF9
:101550005428100810281428142A542A54AA55AACA
:10156000552A14FFFFFFFF01010101040900DEDE1F
:1015700000000000003C7EFFFFFFFFFFFFFFFEFCBE
:10158000F8000001010101010101010100F8FCFE68
:10159000FFFFFFFFFFFFFF7E3C0001010101010192
:1015A00001010100000C09003C42A2A2A2A2824259
:1015B00004F800000000010001000000010000002C
:1015C000F8044282A2A2A2A2423C00000001000054
:1015D00000010001000000001C3EFFFFFFFFFFFEB6
:1015E000FEFCF8F03078F0FEFFFFFFFFFFFFFFFF8B
:1015F0002900000101010101010101010101F0F8CF
:10160000FCFEFEFFFFFFFFFF3E1C0029FFFFFFFF68
:10161000FFFFFFFFFEF07830010101010101010130
:1016200001010100000D1100001C22D252D2A204BF
:101630008408F000003020800E46CE0E0930BA2912
:10164000000000000100000101000000010000F0A6
:10165000088404A2D252D2221C00000029BA300908
:101660000ECE460E80203000000100000001010077
:101670000001000000183CF8FEFFFFFFFFFFFFFF26
:10168000FE9C0000E8FCFDFFFFFFFFFFFFFFDF8C7B
:10169000000000D8FEFFFFFFFFFFFFFFCE8000002D
:1016A00018FCFFFFFFFFFFFFFFFF5F0C00009CFE29
:1016B000FFFFFFFFFFFFFFFEF83C18008CDFFFFF7E
:1016C000FFFFFFFFFFFDFCE8000080CEFFFFFFFFF4
:1016D000FFFFFFFED80000000C5FFFFFFFFFFFFFD2
:1016E000FFFFFC18000E08001810C00622E6860650
:1016F000185E94000000006800157045841A1853A5
:101700008C0000000000D80622E69A1A104E8000D5
:1017100000000018D0067246060A28420C0000009D
:1017200000945E180686E62206C010180000008CA1
:1017300053181A84457015006800000000804E1090
:101740001A9AE62206D800000000000C42280A0679
:10175000467206D01800000C7EFFFFFFFFFFFFFF60
:10176000FEFCF8000001010101010101010100F886
:10177000FCFEFFFFFFFFFFFFFF7E0C0001010101E8
:10178000010101010100000C09000C527292D2F219
:10179000824204F800000000010101000000010085
:1017A0000000F8044282F2D29272520C0000000152
:1017B0000000000101010000000A0F0014421101A5
:1017C0000111421400000A4140000040410A00009B
:1017D0000070F8FCFCFCFCFCFCFCF8F0E000C0E055
:1017E000E3F7FFFFFFFFFFFFFFF7E3000001010149
:1017F000010101010101010101E0F0F8FCFCFCFC28
:10180000FCFCFCF8700000E3F7FFFFFFFFFFFFFFA9
:10181000F7E3E0C000010101010101010101010143
:101820000100000E11000000304848C84848C808B0
:1018300010E0000000C080032405A732334275A2E7
:101840000000000000010000010000010001000094
:10185000E01008C84848C848483000000000A27599
:10186000423332A705240380C000000001000100BC
:101870000001000001000000000D1000FE766676F9
:10188000FE0252525202FE00007F4347437F004156
:101890000141007F00594F557E484156457E4245E3
:1018A000454E7E4341505455524544210040E0F896
:1018B000FCFC5C5EFF5E5CFCFCF8E04000000307A3
:1018C00007070F1F0F0707070300000F0D00404019
:1018D000F84808085E080848F84040000000000387
:1018E0000202020F0202020300000000080806883C
:1018F000015000AF0050000080AF003C0000805D50
:10190000013C0000805D0114000080001D11110CDD
:1019100012110C0E1F0C0E1F150E2D15062D1B0A75
:101920003705173705174E051A4E1A12600E0D604F
:101930000E13730E1403030205020A05101C1F1C6C
:101940001001071F0701484F4C442020207E424FC2
:101950004F544C4F414445520050524553537E27FB
:1019600041277E544F7E425245414348007618003D
:101970000000000000000000000000008080C0C0E7
:10198000E0E070703838180C0C0E0E0400000000F7
:10199000000000000080C0E070380C020100000070
:1019A0000000000000000000000000000000000037
:1019B0000000000000000080C0F87E0F0701C0E0BA
:1019C000781E070300000000000000000000000077
:1019D0000000000000000000000000808040402067
:1019E00010000000002020707078787C7C7E7E7E65
:1019F0007F7F7B7B39393938383838383838383850
:101A000090CEFE38BCDEE6F2FCEEE7733B3E1ECE27
:101A1000E6FAFCDEDEDADA5A5A0AC2FAFC3E7672DE
:101A200072FAFADEDECE86868684E0F83E0F0785FF
:101A3000E4FC7C1FC7E3F8FE3E4EE6FE7EE6F8FCC3
:101A40009E82C286C6F87C3E3F7B7CECE4C6860361
:101A50000101000000000000000000000000000084
:101A600000000000000000000000000000000080F6
:101A7000402030180C0F0701000000010101010196
:101A8000000000000001010101010000000000034E
:101A900007030000000000000001010101111E0FFA
:101AA0000301101C1E0F07010000010303000000CA
:101AB0000301000001010101000303010000000017
:101AC00000000101030306040C0810102020404010
:101AD000800601010001000100140E00000000005A
:101AE000000000000000000000000080C0E0F020C6
:101AF00020202020202020202020202020222222E0
:101B000022222203081F051F1F151B1F11111F1161
:101B10000E1F15111F05011F111D1F041F001F009F
:101B200010101F1F041B1F10101F061F1F011F1F57
:101B3000111F1F05071F311F1F051B17151D011F33
:101B4000011F101F0F100F1F0C1F1B041B071C076A
:101B50001915131F111F001F001D151711151F0741
:101B6000041F17151D1F151D01011F1F151F171518
:101B70001F001700001000000A00190413201000B5
:101B8000000300000E11110E0004040418040326C3
:101B90000624061F061C06170612060D0608060573
:101BA000060106FA05F405ED05E405DD05D505CFCA
:101BB00005CC05C705C405BD05B605B005AC05A82F
:101BC00005A4059D05980593058E058A0584058065
:101BD000057905740571056B05660560055A0553A1
:101BE000054B0546054005380533052E0528052219
:101BF000051D05190514050C050A050305FD04F965
:101C000004F304EC04E804E304DB04D404CF04CAC2
:101C100004C404C104BD04B704B004A904A4049D11
:101C200004970490048A0484047E04790474046C88
:101C300004670464045F04590452044D0443043DE2
:101C40000435042D042A0427042004190411040B6C
:101C5000040504FF03F603F203ED03E803E203DFE8
:101C600003D703D303CD03C703BE03B903B303AE46
:101C700003A3039A0397039203890382037B0377E9
:101C800003680363035E035B03550344033F0337A9
:101C90000334032B03220319031003F802EE02E0BE
:101CA00002CA02B5029E028702700200052C1124AE
:101CB0001FBECFEFDAE0DEBFCDBF12E0A0E0B1E0A3
:101CC000E6EEFDE602C005900D92A830B107D9F707
:101CD00026E0A8E0B2E001C01D92AF3FB207E1F7F5
:101CE0001EE0C7E5DEE004C02197FE010E94EB364E
:101CF000C635D107C9F70E94382C0C94F1360C94E4
:101D00000000109251061092520610925606109240
:101D1000CB068FEF809358068093590680935A061E
:101D200080935B0680935C0680935D0690E080E084
:101D30003FEFFC01E15AF94F26E0319333A32150E4
:101D4000E1F7069684329105A1F708959C0180E0A1
:101D500090E09617B8F48417A8F4E92FF0E0E85A59
:101D6000F94F70819F5FF901E80FF11D50817513E4
:101D700006C08F5F691739F04813EBCF0895981BA1
:101D800080E0E7CF80E00895AF92BF92CF92DF92DC
:101D9000EF92FF920F931F93CF93DF936C017B0120
:101DA0008B01040F151FEB015E01AE18BF08C017B1
:101DB000D10759F06991D601ED91FC910190F08124
:101DC000E02DC6010995892B79F7C501DF91CF91E7
:101DD0001F910F91FF90EF90DF90CF90BF90AF9049
:101DE0000895FC010E94050F319728F068517C4F3F
:101DF0008F4F9F4FF9CFAB01FC010E94050F641775
:101E000075078E079F07C8F30895A2E4B6E02FB7C1
:101E1000F8947D918D919C9166B52FBFA89B05C0CC
:101E20006F3F18F47F5F8F4F9F4F22E0660F771F41
:101E3000881F991F2A95D1F7089520913506E091C2
:101E40003306F0913406CF010296909334068093C6
:101E50003306222319F08591949108958081918110
:101E60000895E1E7F0E080818D7F808310929100FA
:101E700046985F98109232060895CF92DF92EF92C3
:101E8000FF92CF93DF930E941D0F811520E89207E8
:101E900041F4DF91CF91FF90EF90DF90CF900C94C1
:101EA000310F21E020933206813020E8920751F46F
:101EB00080913006909131069093340680933306DA
:101EC0000E941D0F97FD05C020912F06222309F4C3
:101ED0005BC020912E06211157C021E020933606C9
:101EE000EC01DF77209709F052C081E0809337063C
:101EF00046983FE9C32E3FE0D32EE12CF12CCAEFE8
:101F0000D0E0E0912C06F0912D060995811103C0D7
:101F100081E08093370680913606882329F08091EE
:101F20003706882309F446C05F980E941D0F00976A
:101F300009F444C09C01DE010E94A836DC01CB01FB
:101F400029E0B595A795979587952A95D1F7109291
:101F500090002AE020939100D0929900C0929800BE
:101F60008093380690933906A0933A06B0933B06C7
:101F700080917100826080937100DF91CF91FF901A
:101F8000EF90DF90CF90089510923606A9CF9E0172
:101F900050E040E060E472E48FE090E00E9454364C
:101FA00069017A0181E0C81AD108E108F1081092AC
:101FB0003706A7CF4699B8CF5F9AB7CF8FEF9FEF7D
:101FC000DC01C5CF9C01E1E7F0E090819D7F90832B
:101FD00081E08093350630933406209333063093A6
:101FE0003106209330060C943D0F6F927F928F92B2
:101FF0009F92AF92BF92CF92DF92EF92FF920F9398
:102000001F93CF93DF934C01CB013A017C2DFA0152
:10201000649131965491F2E06F0E711CC62FD0E09E
:10202000211102C0EE2009F1E1E0F0E0352F377018
:1020300011F4F0E0E0E0A52FA695A695A695AE0FC9
:10204000BF2FB11DAC9FF001AD9FF00DBC9FF00DF7
:102050001124733009F08BC0EE0FFF1F2E9FD001AB
:102060002F9FB00D11246A0E7B1ED401AC0FBD1F33
:102070001A161B060CF06CC020E8821691040CF0B6
:1020800067C09C01250F311D121613060CF060C0AD
:10209000803491050CF05CC06114710409F458C0DF
:1020A000382F3770FC0197FD379623E0F595E795BB
:1020B0002A95E1F72E2F97FF04C0332311F02FEF5D
:1020C0002E0FEE27FF27E819F90997FC02C0F0E070
:1020D000E0E090E89819A038B1050CF4962F9E1B0B
:1020E000A22F022E000CBB0B4A2F40952F3F0CF065
:1020F00040E0DD24D394852F877009F4D12C5695C8
:1021000056955695D50EAD0DB11D19971CF058E09A
:10211000D52ED21AD41A240F50E82503D001112449
:10212000A80DB91DAE0FBF1F649FE00DF11D112456
:102130006E0E7F1EE32E032E000CFF08733009F491
:1021400023C108F5713009F4D6C0723009F484C097
:10215000DF91CF911F910F91FF90EF90DF90CF9083
:10216000BF90AF909F908F907F906F9008950115D2
:10217000110509F473CFEE9ED001EF9EB00D11242E
:102180000A0F1B1F6BCF7A3FB1F10D2D020F7B3F62
:10219000F9F62017E9F2BD01645D7D4FD12CC12C09
:1021A000C91608F0A2C0F301EC0DFD1DE491F0E0AA
:1021B000AF010E2C02C0440F551F0A94E2F727FD11
:1021C00006C0FB018081142F109581238083332367
:1021D00061F0273054F45B01F0E8AF0EB11C452FDD
:1021E0004095F501808184238083FFEFCF1ADF0AB9
:1021F0006F5F7F4FD5CF0D2D020F201709F4A8CFA9
:10220000BD01645D7D4FD12CC12CC91608F067C09B
:10221000F301EC0DFD1DE491F0E0AF010E2C02C0C6
:10222000440F551F0A94E2F727FD04C0FB0180818B
:10223000842B8083332351F0273044F45B01F0E892
:10224000AF0EB11CF5018081852B8083FFEFCF1A83
:10225000DF0A6F5F7F4FD9CF6FEF70E0032E02C0B0
:10226000660F771F0A94E2F760957095972E8D2C74
:10227000820E281509F46CCF8D01045D1D4FD12C01
:10228000C12CC91630F5F301EC0DFD1DE491F0E011
:10229000AF010E2C02C0440F551F0A94E2F727FD30
:1022A00005C0F80180818623842B8083332359F075
:1022B00027304CF45801F0E8AF0EB11CF5018081D5
:1022C0008921852B8083FFEFCF1ADF0A0F5F1F4F15
:1022D000D8CF2F5F6C0E7D1EA058BF4FCACF2F5F87
:1022E0006C0E7D1EA058BF4F88CF2F5F6C0E7D1ED9
:1022F000A058BF4F4ECF0E0F1F1F8D2D820F2817D6
:1023000009F426CFBD01645D7D4FD12CC12CC916C7
:1023100098F5F801EC0DFD1DA490B12C0E2C02C017
:10232000AA0CBB1C0A94E2F7A094B094F301EC0D44
:10233000FD1D8490912C0E2C02C0880C991C0A94CF
:10234000E2F727FD08C0FB014081E42FEA214E2F70
:102350004829FB014083332349F027303CF4FB013B
:10236000E058FF4FA080BA20B928B082FFEFCF1A03
:10237000DF0A6F5F7F4FCBCF2F5F6C0E7D1E0C0F80
:102380001D1FA058BF4FBBCFE92EF12CE60DF71D46
:10239000A45DBD4F60E870E06E197F09CE19DF09BA
:1023A000AE01440F551FC1E0D0E07E01032E01C0F5
:1023B000EE0C0A94EAF7192F0D2D892E932ECF9348
:1023C000DF93ED01EF96EF962296A590C5909920A8
:1023D00059F0AE9C5001CE9C600127302CF4F8805F
:1023E000D094FD20FB28F99222233AF0FC90C0946F
:1023F000FC20FA28FD920C94FE1111961A9529F7EB
:102400000A9551F0182D23951124E40FF11DA60F04
:10241000B11DC60FD11DD9CFDF91CF91112498CE18
:10242000CF92EF920F931F933AEFC32EE12C10E05F
:1024300000E00E94F50F1F910F91EF90CF9008954B
:10244000CF92EF920F931F9332E0C32EE12C10E056
:1024500000E00E94F50F1F910F91EF90CF9008952B
:10246000CF92EF920F931F93F901202FCC24C394A6
:102470008F010E94F50F1F910F91EF90CF9008955B
:1024800090E00C94F10E8FB18095807F669B886000
:102490001C9B846008955C988EBD00000DB407FEFF
:1024A000FDCF5C9A089580912B020895480F592F13
:1024B000511D14161506D4F580389105BCF597FF0B
:1024C00002C090E080E04138510514F040E850E04F
:1024D000481BFB0177FD379633E0F595E7953A9574
:1024E000E1F7F695FE2FEE27F795E795E80FF91F30
:1024F000E45DFD4F6770772781E090E001C0880FB1
:102500006A95EAF7382F213041F4415078F08191F3
:10251000DF011197832B8C93F8CF8095415030F0D9
:102520009191DF01119798239C93F8CF089590E142
:10253000282F81E061FD84E060FD880F62FD8295B7
:10254000687F969FD0011124A20FA45DBD4F0C900F
:10255000082A40FF08260C92089590912A02982399
:1025600029F490912902982381E009F480E00895EC
:10257000982FECE2F2E091119FEF8FEF91939193FE
:10258000919391938150D0F708956034710510F4C0
:102590000C94561208958038910528F46034710522
:1025A00010F40C9497120895DF92EF92FF920F931C
:1025B0001F93CF93DF937C01EB01D22E8B01040F8D
:1025C000111DC8010134110514F080E490E0C81712
:1025D000D9073CF44D2DBE01C7010E94CB122196B4
:1025E000F0CFDF91CF911F910F91FF90EF90DF908F
:1025F0000895EF92FF920F931F93CF93DF937C0187
:102600008B01C42FD22F21E00E94C512B8016D0F9B
:10261000711D6150710921E04C2FC7010E94C51244
:1026200021E04D2FB801C7010E94D412C7018C0FC1
:10263000911D21E04D2FB8010197DF91CF911F919E
:102640000F91FF90EF900C94D412CF92DF92EF9203
:10265000FF920F931F93CF93DF936B01122FEC0127
:102660007C01E40EF11CCE15DF0544F4202F412F30
:10267000B601CE010E94D4122196F5CFDF91CF9101
:102680001F910F91FF90EF90DF90CF900895CF9220
:10269000EF920F931F93CF93DF93EC016A3079F49D
:1026A0008D818C838E819985890F8E8381E090E066
:1026B000DF91CF911F910F91EF90CF9008958C8172
:1026C0006E3719F48E5F8C83F1CF262F6E816F5F8A
:1026D0002D3209F441C098F42732A1F148F4213297
:1026E000C9F1253289F198859D5F8C81890FEBCFE7
:1026F000293221F128F12C32B1F728E20FC02A3318
:1027000040F42033C8F42E3219F12F3261F72DE254
:1027100005C02A33D9F021542A3128F7062E000C9F
:10272000770B082E000C990B3F813130B9F443E050
:102730005BE10E941012D7CF2651F0CF2BE2EECFF3
:102740002AE2ECCF29E2EACF27E2E8CF26E2E6CF81
:1027500025E2E4CF24E2E2CF2CE2E0CF3BEFC32E30
:10276000E12C10E000E043E05BE10E94F50FBBCFFD
:102770000F931F93CF93DF938C01D0E0C0E0F8015B
:10278000EC0FFD1F6491662341F086E496E00E9401
:102790004713892B11F02196F2CFCE01DF91CF9113
:1027A0001F910F910895E82FF0E0EE0FFF1FE15702
:1027B000F44E859194910C94B813089590E080E0C4
:1027C0000895813F30F4853060F4813040F480E03A
:1027D0000895853FE0F794EF981B892F0895815065
:1027E000089583E008950F93CF93DF93C82F8091CE
:1027F000190290911A0260EC70E00E94C336823494
:10280000E0F4803408F04DC0853019F060F4823077
:1028100080F46C2F70E000E028E140E890E080E078
:102820000E94251306C08031A1F38D3391F38730C8
:1028300081F3DF91CF910F9108958B34B9F160F45A
:102840008234A1F185548230A0F76C2F70E06B5F69
:102850007F4F00E028E0E1CF863879F1883811F029
:10286000843839F7D0E0BE016E5F7F4F20E048E248
:1028700090E080E00E94C512BE016F5E7F4F20E0B5
:1028800042E38EE190E00E94C512BE01675E7F4F79
:1028900020E042E38CE390E0DF91CF910F910C9424
:1028A000C5126C2F70E000E023E0B7CF6C2F70E012
:1028B000605F7F4F00E025E0B0CFD0E0BE01695FF0
:1028C0007F4F20E048E28CE390E00E94C512BE01F9
:1028D0006F5E7F4F20E042E38EE190E00E94C512E0
:1028E000BE01675E7F4F20E042E390E080E0D4CFFE
:1028F0000F9320E049ED5AE170E060E090E080E065
:102900000E94201220E041ED5AE16DE070E089E480
:1029100090E00E94201220E041ED5AE16EE270E06A
:1029200083E390E00E94201220E04DE659E161E14E
:1029300070E085E090E00E94201281E10E94F31394
:1029400001E024E040E864E070E084E190E00E946F
:10295000251321E049E46DE070E090E080E00E9402
:10296000561221E040E869E070E08DE090E00E94BE
:10297000561221E040E86EE270E087E390E00E94AA
:10298000561221E049E162E370E090E080E00E94AD
:10299000561224E049E164E370E090E080E00E9498
:1029A00025132BE04DE462E370E089E190E00E94A2
:1029B000F9128DE180934B0680934A0684E380935D
:1029C0004C068091190290911A026EEF70E00E94FD
:1029D000C33687FF38C089E599E10E94B81320E02B
:1029E00041ED5AE16EE270E083E390E00E94101244
:1029F00088E00E94AD12882321F181E08093BD011F
:102A00001092C2011092BE011092C3011092BF0138
:102A10001092C4011092C0011092C5011092B2012F
:102A20001092B1011092B5018DE080939C0110923B
:102A30009D0183E1809318020E94310F82E8809308
:102A4000C0000F91089586E499E10E94B81320E038
:102A50004AE359E165E370E08EE290E00E941012D3
:102A6000BECF1F93CF93DF9300D000D01F92CDB77E
:102A7000DEB785E0EBECF1E0DE01119601900D92FE
:102A80008A95E1F710919601173148F4133108F057
:102A900041C0133028F5113048F080E008C01332EF
:102AA00048F41C31D0F7173109F045C081E00E948D
:102AB000B81206C0133209F448C01F3F09F445C0DC
:102AC00080919701811146C01F5F109396010F906E
:102AD0000F900F900F900F90DF91CF911F9108955D
:102AE000812F8350990BFC01F595E795F595E795B6
:102AF00081E090E08C0F9D1FE80FF91F8081982FD7
:102B0000990F41E8491B21E060E270E090E00E94EB
:102B10005612D6CF21E045E060E270E08EE390E00F
:102B20000E94561221E043E06FE170E080E490E003
:102B30000E94D412C5CF20E045E359E16FE170E077
:102B40008FE390E00E941012BBCF80911702809318
:102B50001802B6CF1150B9CFEF92FF921F93CF93C7
:102B6000DF937C01CBE0D9E110E0FE0184918E0D72
:102B70009F2D911D3196649170E03196449121E032
:102B800010FD0CC00E94C5121F5F23961E3069F70E
:102B9000DF91CF911F91FF90EF9008950E94D41282
:102BA000F3CFE3E9F1E0908145E0949F9001112497
:102BB0002F5F3E4FD901AE58BF4F11967C936E9355
:102BC000129644E24C9311968C932A583F4F81E021
:102BD000D9018C939F5F90830895E1E0F1E0108A22
:102BE000118A158E168E12A613A617AA10AE089576
:102BF00080912A02809590912902892331F081E108
:102C00008093180282E08093170220E047EE5FE095
:102C100061E170E080E290E00E9420128091190250
:102C200090911A0260E370E00E94C336843268F427
:102C3000883198F58C30C0F420E040EE5FE069E127
:102C400070E08BE590E00C9420128033A8F720E030
:102C50004CED5FE06CE170E08DE290E00E942012AC
:102C600041E060E270E015C020E04CED5FE06CE117
:102C700070E08DE290E00E94201220E040EE5FE0E4
:102C800069E170E08BE590E00E94201241E06EE186
:102C900070E084E390E00C94971241E06FE170E003
:102CA000F8CFE0911802ED51EA3008F03DC0F0E0B5
:102CB000E45AF94E0C94EB36661694169416941654
:102CC00076167F1685167A168D16901680919C01C1
:102CD0008E3051F08F3099F08D30F1F48EE080938A
:102CE0009C0110929D0108958FE0F9CF8091B5016C
:102CF000843629F48CE18093180284E1F0CF8CE0D3
:102D00008093180210921602089580919C018231DE
:102D1000B1F384E08093180208958FE08093180245
:102D200082E08093C00008958DE0F4CFCF93DF93CD
:102D300020E040EF5EE070E060E083E090E00E9421
:102D4000201220E042E15EE067E170E082E290E084
:102D50000E94201220E046E55DE060E170E08EE533
:102D600090E00E942012C6E4D6E08CE18D838C8333
:102D70001E8280E49DE00E94B8138CE38D838C83D7
:102D800089E28E838DE29DE00E94B8138CE58D83ED
:102D90008C8382E08E8381E29DE0DF91CF910C9461
:102DA000B8139F92AF92BF92CF92DF92EF92FF92B1
:102DB0000F931F93CF93DF93142F4AE5111147E62A
:102DC000E62EF12CC82FD0E000E025E2B701CE01BD
:102DD0000E94251307E5111104E667018FEFC81A59
:102DE000D80A5E0182E0A80EB11C21E0402FB60196
:102DF000C5010E94C51295E3992E112311F082E4BA
:102E0000982E21E0492DB701695E7F4FC5010E94D0
:102E1000C51221E0492DB7016F5D7F4FC5010E94AA
:102E2000C51221E0402FB7016D5D7F4FC5010E94A3
:102E3000C51220E04AE15DE0B601CE0101960E9494
:102E40002012CE01C69611112CC010E000E020E047
:102E500049E05DE0B601800F911F0E942012CE0173
:102E6000885A9F4F20E042E05DE0B601800F911F3D
:102E70000E942012B7016C5F7F4FCE01CD9620E0FB
:102E800044EA5CE0800F911FDF91CF911F910F9179
:102E9000FF90EF90DF90CF90BF90AF909F900C94F9
:102EA00020120DE010E0D3CF5F926F927F928F924D
:102EB0009F92AF92BF92CF92DF92EF92FF920F93C9
:102EC0001F93CF93DF93E82E562EF42EC22F862E1B
:102ED000912CC82ED12C00E0242F4C2FB401C60118
:102EE0000E94251354018FEFA81AB80A360182E018
:102EF000680E711C4FEF4C0F21E0B501C3010E9419
:102F0000C5120F2D10E0B401600F711F62507109DE
:102F100021E04C2FC3010E94C51209511109080D6F
:102F2000191D20E04AE95CE0B801C6010E942012A8
:102F3000CC0DDD2DD11D20E040E95CE0B801CE01D3
:102F40000E94201217EE1F0D21E0412FB501C6018E
:102F500001960E94D41221E0412FB501CE010E94BA
:102F6000D4128AE08E0DE6E4F6E08583848383E064
:102F7000850D8683DF91CF911F910F91FF90EF9088
:102F8000DF90CF90BF90AF909F908F907F906F9089
:102F90005F90089520E04DE659E16CE070E085E037
:102FA00090E00E9420128CE00E94F313809119029D
:102FB00090911A0283709927892B29F480919601A8
:102FC0008F5F8093960180919601883C10F010925B
:102FD000960120E04FE35BE06BE270E08DE090E073
:102FE0000E94201220E04BE15CE06BE270E08BE697
:102FF00090E00E94201221E049E56BE270E082E15E
:1030000090E00E94561221E049E563E370E082E11E
:1030100090E00E9456128091960168E20E94B736B5
:10302000913258F494E190934B0690934A069CE2B7
:1030300090934C0687570E94D31388E00E94AD12EC
:10304000882319F082E0809318020895FC018081A2
:10305000823019F0833039F008958181928101978F
:10306000928381830895818192810196F9CFFC0139
:1030700001900020E9F73197AF01481B590BBC01C3
:1030800086E496E00C94C40E8F929F92AF92BF920A
:103090000F931F93CF93DF93CDB7DEB7A1970FB6F2
:1030A000F894DEBF0FBECDBF19A2423008F44AE04B
:1030B0008E010F5D1F4F842E912CB12CA12CA501E8
:1030C00094010E948636E62FB901CA01EA30F4F471
:1030D000E05DD801EE938D01232B242B252B79F76E
:1030E00090E080E0109719F0CD010E943718A1966A
:1030F0000FB6F894DEBF0FBECDBFDF91CF911F9109
:103100000F91BF90AF909F908F900895E95CE1CFB1
:10311000462F682F70E090E080E00C9444180C94E7
:103120003718CF93C82F803120F480EF91E00E94B0
:103130008F1860E170E08C2FCF910C9488181F934A
:10314000CF93DF9381E080934B0680934A0682E31E
:1031500080934C0681E89BE00E94B81320E045E78D
:103160005BE063E370E08AE190E00E94201220E0DF
:1031700043E65BE063E370E081E490E00E942012AC
:1031800021E04FE163E370E082E290E00E9456129A
:10319000C0E0DAE018E380915706C81708F5EC2F75
:1031A000F0E080915606C81778F4CD9F802D112449
:1031B0008F5F80934B0680934A0610934C06E05B2A
:1031C000F94F80850E949118CD9FC001112421E004
:1031D00047E06FE370E001960E945612CF5FDBCFAD
:1031E000DF91CF911F910895BF92CF92DF92EF921E
:1031F000FF920F931F93CF93DF93B82E80915006C9
:1032000090E0FC01E752FE4FC081D0E02CE0B29E7E
:10321000C00DD11D1124C62ED12C960143E0220FE2
:10322000331F4A95E1F78E529E4FFC01E080E20E7B
:10323000F32EF11C01E029E04DE0B701CE010E9420
:10324000251306E416E0F8011782CD5FC583C48319
:10325000E394E68286E08C9DF0018D9DF00D1124B3
:10326000E05BF94FEB0DF11D87850E94911881E01D
:10327000F8018783DF91CF911F910F91FF90EF901D
:10328000DF90CF90BF9008952F923F924F925F9220
:103290006F927F928F929F92AF92BF92CF92DF9266
:1032A000EF92FF920F931F93CF93DF9300D000D044
:1032B00000D01F92CDB7DEB750905006852D90E01C
:1032C000FC01E752FE4F20812A838E529E4FFC0163
:1032D00030804CE0549E402D11244C83F52DFF0F7F
:1032E000FF0FFF0FFD83B32CA22EC12C30E03F83D4
:1032F0002E83032D10E0D12CEB2CF12C41E0B701F3
:103300008E819F818D0D911D0E94CB12D394D394F9
:103310008C818D1598F7D12CEA2CF12CB8016D0D0C
:10332000711D41E0C7010E94CB12D394D3949D81BB
:103330009D15A0F7C394ECE0AE0EF8E0BF0E5C1450
:10334000D0F680E5682E86E0782E21E0230D2B83D1
:1033500078016301412C4514B9F13A813D5F39830D
:1033600046018FE0880E911CAE80BF80212C251471
:1033700001F1998190934B0690934A06EB81E0937B
:103380004C06F40181914F010E949118F40183A130
:103390008F3F39F020E04DE55BE0B701C5010E94A9
:1033A00010122394F981F45FF9832CE0A20EB11C72
:1033B000DECF439436E0C30ED11C8B81885F8B83B4
:1033C00098E0E90EF11CC7CF8091F7068823E1F061
:1033D000813009F45AC027960FB6F894DEBF0FBEAD
:1033E000CDBFDF91CF911F910F91FF90EF90DF90B4
:1033F000CF90BF90AF909F908F907F906F905F9095
:103400004F903F902F9008958091CB06823080F1AD
:10341000823009F72D812F5F809151064DE0B80170
:10342000EE81FF813CE0839FE00DF11D1124CF016F
:103430000E94F912609152068091510627960FB6AC
:10344000F894DEBF0FBECDBFDF91CF911F910F91DA
:10345000FF90EF90DF90CF90BF90AF909F908F90B4
:103460007F906F905F904F903F902F900C94F41846
:103470004C814F5F60915206660F660F660F630DB9
:1034800070E029E08E819F81D3CF10E007E04116E4
:1034900009F4A1CF1F821E82809155062091540607
:1034A000089FC00111248453994F820F911DFC0184
:1034B0009381EE81FF81E60DF71D8785981304C087
:1034C000612F8E810E94F4182E813F812F5F3F4F24
:1034D0003F832E83241500F31F5F36E0630E711CBB
:1034E000D6CF80EF91E00C948F183F924F925F926D
:1034F0006F927F928F929F92AF92BF92CF92DF9204
:10350000EF92FF920F931F93CF93DF9300D000D0E1
:1035100000D01F92CDB7DEB77090CC061092F9069E
:103520001092FA0621E047E370E060E080E590E069
:103530000E94561221E047E368E070E08CE490E0DE
:103540000E94561221E047E367E370E080E590E0D7
:103550000E94561221E047E36FE370E08CE490E0B4
:103560000E94561221E043E269E070E08CE490E0B2
:103570000E94D41220E04BE15CE070E060E08AE75A
:1035800090E00E94201220E04BE15CE067E370E0F5
:103590008AE790E00E94201220E047E15CE069E2C7
:1035A00070E08CE490E00E94201220E04FE05CE0AC
:1035B00070E060E08CE490E00E94101220E04FE0A8
:1035C0005CE067E370E08CE490E00E94101212E58A
:1035D00010934B0610934A0681E080934C0689E0D5
:1035E0009CE00E94B81310934B0610934A0688E3A0
:1035F00080934C0683E09CE00E94B8132091FB0668
:103600003091FC062115310509F49BC026303105A7
:1036100058F48091190290911A026FE070E00E94B4
:10362000C336883008F492C0C9016CE370E00E9490
:10363000C336062F182FF82E6A3010F40E94711A24
:103640006AE070E0802F0E94881882EF91E00E946B
:103650008F1829E02F1510F00E94711A6AE070E0AF
:10366000812F0E94881810928800F12CE12C37E0FD
:10367000632E552453948091CC06F81608F09CC014
:103680006F9C50011124F501E353F94FDE011196AF
:10369000862D01900D928A95E1F7DA800091560609
:1036A0004D2D602FCE0103960E94A60E182FB50156
:1036B0008D1105C08091F706882309F44BC08D2D2C
:1036C000811B990BAC0180915706801B990B8417C5
:1036D00095070CF45AC09BE0A90EB11CF69C802DF6
:1036E00011249BE0492E480EFE0133964F012EE433
:1036F000C22ED12CF40131904F01FFEF3F16C9F0DB
:10370000112309F456C001E027E04AE0B501C601E3
:103710000E94251310924D0681E08C0D80934B067C
:1037200080934A0640924C06832D0E9491181111F5
:1037300011502AE0C20ED11C80E8C816D104D1F67F
:1037400022C08DEF9BE00E94B8138DCF80E2809362
:1037500088008BCF655F7F4F20E048EC5BE08EE414
:1037600090E00E9410127A948091F9068F5F809306
:10377000F906125080E0143028F4E12FF0E0E05216
:10378000FE4F8081E80EF39476CF8091F706811189
:10379000A2CF655F7F4F20E043E95BE08EE490E0DD
:1037A0000E9410127A948091FA068F5F8093FA0635
:1037B000EACF50924D06B0CF8091F7068130F1F5F7
:1037C000809119028F71F82E10915506B090540611
:1037D0009AE0B99E60011124EFE4CE0ED11CF7E00F
:1037E0001F9F400111242BE0820E911C01E080E11B
:1037F0008F1508F000E027E04AE0B401C601019708
:103800000E94251381E090E19F1508F480E08093E9
:103810004D06C0924B06C0924A0680924C06E7E0E5
:103820001E9FC00111248453994F8B0D911DFC01E3
:1038300083810E94911881E080934D067092F80672
:1038400020E048E85BE070E060E08BE690E00E94FA
:10385000201286E780934B0680934A0681E080938E
:103860004C0610915306E116F8F41E191A30E8F0D0
:103870006AE070E0812F27960FB6F894DEBF0FBE86
:10388000CDBFDF91CF911F910F91FF90EF90DF900F
:10389000CF90BF90AF909F908F907F906F905F90F0
:1038A0004F903F900C94881810E00E94711AE0CF5E
:1038B000CF92DF92EF92FF926B017C01C114D10491
:1038C000E104F10441F00E94E635A70196010E944F
:1038D00054366B017C01C701B601FF90EF90DF9079
:1038E000CF900895CF92DF92EF92FF926B017C010F
:1038F000C216D306E406F50664F4CA01B9016C19D0
:103900007D098E099F090E94581CC60ED71EE81E0D
:10391000F91EC701B601FF90EF90DF90CF90089598
:103920000F931F93CF93DF93EC01188281E089837B
:1039300082E08A8383E08B8384E08C8385E08D83BF
:103940000CE02091500630E050E040E060E070E094
:10395000CB010E94721C162F2091500630E050E0DF
:1039600040E060E070E0CB010E94721CDE01A10F1C
:10397000B11D8C91FE01E60FF11D90819C93808317
:103980000150F9F6DF91CF911F910F910895CF93D8
:10399000DF93D091C101ED2FF0E0EC55FE4F268D65
:1039A0009085291780F465E070E080E090E00E9447
:1039B000581C8D2F880F880F8D0F860F8093C6019E
:1039C000DF91CF910895E4EAF1E0C4E090E020E0D7
:1039D000348D332309F151A14385541790F4882382
:1039E00069F065E070E080E090E00E94581C8C2F48
:1039F000880F880F8C0F860F8550E0CFDC1788F773
:103A0000232FC1503197C111E3CF211103C08EEF95
:103A10009923A1F28FEFD2CF91E0F3CF82E090E033
:103A20000E943E36882331F03E9A579A81E0809377
:103A30002B02089510922B023E985798089583EA1E
:103A400092E00E943E3691E0813009F090E0892FAB
:103A5000089510928A008FEF88BD10928800089513
:103A60003F924F925F926F927F928F929F92AF920E
:103A7000BF92CF92DF92EF92FF920F931F93CF935B
:103A8000DF93F090290210912A0210951F21012F37
:103A900086EA0E944B128091B301882309F46BC11E
:103AA0008091190290911A022091BC01222321F0E9
:103AB000282F237009F05FC18F779927892B79F41C
:103AC0008091B401863018F48F5F8093B4018091A7
:103AD000B401863021F485E099E10E94E20F209143
:103AE000190230911A02C9018F739927892B39F471
:103AF0008091B301803C18F48F5F8093B30120FD67
:103B000033C09091B001E1E0F1E029E331E085AD0F
:103B10004FEF480F433F08F05DC08F5F85AF85AD25
:103B2000803F08F091E034962E173F0781F790937D
:103B3000B00180919501209103013091040187FF2C
:103B40004BC040910501509106014E5F5F4F50936D
:103B50000601409305012F5F3F4F309304012093EE
:103B600003018F5F80939501C7E0D1E0ABE3AA2EFC
:103B7000A1E0BA2EC12CB2E0DB2E82E0882E93E0C9
:103B8000792E6624639425E0922E30E4532E8091A2
:103B900003019091040129813A81820F931F2091A2
:103BA000B6013091B701821B930B9C0197FF04C0B3
:103BB00022273327281B390B588169EF650F452FC2
:103BC0002C153D05E8F4623008F0A8C68C3191054B
:103BD000D4F02FC015AEA3CF882331F24091050158
:103BE000509106014250510950930601409305013E
:103BF0002150310930930401209303018150B2CF49
:103C00008C31910594F42091B0012450233068F058
:103C1000623058F02B85211107C05A869F82288573
:103C2000243010F42F5F28876B864750423008F00D
:103C30007AC62F81222309F476C621502F832D9630
:103C4000AC16BD0609F0A3CF2CE1C216D10460F476
:103C50008091B0018450833038F08091B301882383
:103C600019F081508093B301812F88709091B30136
:103C7000992309F4CEC3811182C08091BC018111C6
:103C80007EC015FDD5C2F5FECFC282E08093B001A3
:103C90008091B6019091B7018D3391050CF499C2D2
:103CA00001979093B7018093B601C4C2933089F015
:103CB000943009F050C6CE010E9426184CC68230BE
:103CC000D1F7198648C68330E1F3F5CF8430C9F3C4
:103CD000F2CF8530B1F3EFCF2B85222339F097FD5A
:103CE00003C088829F82ABCF7882FCCF69817A81C2
:103CF0008B819C81681B790B77FF03C0719561955F
:103D000071098D819E8196958795680F791F523034
:103D100089F038F45523E1F0513009F090CF8882D2
:103D200018C05730A9F05830D1F3533009F087CF7D
:103D3000688201C018826FE070E080E090E00E942D
:103D4000581C615F7F4F8F4F9F4F6F83198677CFCE
:103D500078829B0150E040E07695679590E080E0A6
:103D60000E94721C6F8364E070E080E090E00E942B
:103D7000581C6887EBCFC12C32E0D32E75CF8091D1
:103D8000B401833008F420C28091B001823009F47C
:103D9000CBC1833009F4CBC18091BC0181110BC030
:103DA00081E08093BC0187EA0E944B128FEF98E17B
:103DB0000E94E20F00E005FFC1C1809194018823B9
:103DC00009F4B9C181508093940103FF28C087EAA8
:103DD0000E944B128091B40183508093B4011092E1
:103DE000BC018091940145E0849FC00111248F5F44
:103DF0009E4FFC01EA58FF4F2081213009F0AEC1EF
:103E00008B589F4FDC01EC91B4E0EB9FF001112443
:103E1000EF5FFE4F25AF89EF98E10E94E20F02FFAE
:103E200005C087EA0E944B121092BC0110927701E4
:103E300010927C01109281011092860110928B01E8
:103E400010929001109293018091010190910201D2
:103E500064E770E00E94D736EC01845791090E9414
:103E6000AC15CE010E94AC15CE018C589F4F0E941C
:103E7000AC15A1E0AA2EA1E0BA2EF12CF50185AD7A
:103E8000C0910301D091040163AD74ADC60FD71F7B
:103E900092AD923009F4E6C2933009F400C3913038
:103EA00009F073C09E01255C3F4F2C3B310508F0A3
:103EB00063C00E94E113782E20E047E551E162E102
:103EC00070E0CE010E94201201E02BE144E169E1A3
:103ED00070E0CE0103960E94251300E023E04BE33F
:103EE00066E170E0CE010E9425132AE141E26AE119
:103EF00070E04E01F7E18F0E911CC4010E94251362
:103F000021E049E367E170E0CE0101960E9456127C
:103F100021E041E269E170E0C4010E94561221E013
:103F20004BE169E170E0CE01C8960E94D41220E016
:103F300041E351E160E270E0CE0149960E94201217
:103F400020E04CEF50E160E270E0CE0187960E94E5
:103F5000201220E04DEE50E16BE170E08E010A5F2F
:103F60001F4FC8010E942012272D40E753E161E254
:103F700070E0C8010E942012CE010E96BE016B5F58
:103F80007F4F8138910508F4E0C2F39424E0A20E3B
:103F9000B11C47E0F41272CF8091050190910601A7
:103FA00063EF70E00E94D736EC01CD5ED1098E013F
:103FB00020E042EB54E165E370E0C8010E9420126A
:103FC000005E1F4F033F11059CF3F12C10E075E0DC
:103FD000B72EEAE0AE2EF2E09F2ECE014396833953
:103FE000910508F043C0E12C00E028E834E14CE9F9
:103FF00054E16CE070E0CE010E94301226E534E11D
:104000004EE654E164E170E0CE010E9430128091EE
:104010009101882359F180919201811327C066E1B3
:1040200070E080E090E00E94581C2B013C01A2E16E
:104030004A0E511C611C711C642D70E080911902A4
:1040400090911A020E94C336942D9695981770F499
:1040500020E048E060E170E0CE010A960E9456122E
:104060006EEE640D60938800FF24F394CE010996F0
:1040700087379105D0F480919301B89EF001112407
:10408000EF5FFE4FDF01AE58BF4F9E01295F3F4FEC
:1040900011963C932E931296AC9212969C92EB58EA
:1040A000FF4F10838F5F809393011F5FCF5ADF4FC5
:1040B000C93DB2E0DB070CF490CFF11002C01092C2
:1040C000880080919101882319F08150809391019B
:1040D0004091B301429546954770425F00E027E06A
:1040E00061E070E090E080E00E94251320E04CEF5A
:1040F00054E161E070E081E090E00E941012C8E0BD
:10410000D0E010E08091B3018295869587701817F2
:1041100008F01FC221E045E062E070E0CE010E949D
:10412000D4121F5F2296EECF1092B00135CE81E0FF
:104130008093B00131CE8091930144CE06FF45CEED
:1041400080919401209193012150330B8217130623
:1041500014F48F5F38CE1092940137CE223009F0DC
:104160005ACE2FEF20939101FC01EB58FF4F208195
:10417000209392016091030170910401E1E0F1E06C
:1041800045E351E08E589F4FAFEFB7E018E027812D
:104190003085260F371F5901CEE1AC0EB11CDCEB88
:1041A000AD16B10450F4EC01A880B9802A153B0586
:1041B0004CF41683118A108AA5873D964E175F0727
:1041C00031F729CEB683F6CF8FEE98E10E94E20F49
:1041D0002DCE209103013091040122383105ECF4F9
:1041E0008091190280FF09C0809101019091020124
:1041F00001969093020180930101809105019091B5
:104200000601029690930601809305012F5F3F4FB0
:1042100030930401209303010DC02238310551F47D
:10422000833091053CF03CCD8091B001823011F497
:104230001092B00116FF75C081E08093B00117FFA6
:1042400037C0A090B601B090B70180910301909162
:104250000401A81AB90AC1E0D1E02DE1822E21E0C3
:10426000922E06E08AAD81508330F0F48BAD9CAD88
:104270009C0121503109A216B306B4F00B968A15A1
:104280009B0594F08DAD81508F3E70F40093B0018A
:104290000E94ED15EAADF0E0E551F74EE4918BADEB
:1042A0008A19E80FE093950124968C169D06D1F6A5
:1042B00014FFBCCDA090B601B090B701809105016C
:1042C00090910601A81AB90AC8E5D1E004E711E007
:1042D00084E0F82E95E0992E888199819C012351E4
:1042E0003109A216B3060CF47FC0275F3F4FA21618
:1042F000B3060CF079C09092B0018A199B099C0119
:104300002C50310937FF02C02F5F3F4F359527955D
:10431000209395010E94ED1524960C171D07E1F6D8
:1043200085CDF6FE5BC083E08093B0018091B6013D
:104330009091B7018C33910534F401969093B701B5
:104340008093B6017CCF2091030130910401293A7A
:10435000DDEF3D07ECF08091190280FF09C08091EC
:104360000101909102010197909302018093010154
:104370008091050190910601029790930601809328
:10438000050121503109309304012093030157CFD7
:104390008038910594F281E1809318028CE080933B
:1043A00017021092160280919A018093990181114F
:1043B00046CF8091BE01882379F08091BF01882388
:1043C00049F08091C001811107C083E08150809342
:1043D0009B0135CF82E0FACF81E0F8CF8091B00128
:1043E000833009F02CCF28CF9C01285F3F4F2A153E
:1043F0003B050CF091CF275F3F4F2A153B050CF48E
:104400008BCFF092B0018A199B099C01265F3F4F28
:1044100079CF882309F40ACD8091B50190919A0152
:10442000911115C0865F8093B5018091B5018436E6
:1044300081F484E180939C0110929D0181E180933D
:104440001802109216028CE180931702EFCC8B5F5A
:10445000EACF81E1809318028CE0809317021092DA
:104460001602E4CC9E01205D3F4F213B310508F050
:1044700083CD0E94E113182FE12C00E022E831E106
:1044800048E752E162E170E0CE010E943012212F34
:1044900040E753E161E270E0CE0106966BCD9E01EC
:1044A000225D3F4F2F3A310508F046C00E94E113CC
:1044B000182F20E044E370E060E0CE010E94D412A7
:1044C00001E024E347E170E060E0CE0101960E9444
:1044D000251320E044E370E060E0CE0148960E949E
:1044E000D41221E044E370E060E0CE0149960E94DE
:1044F000D41200E024E343E170E060E0CE014A968C
:104500000E94251321E044E370E060E0CE018D9627
:104510000E94D41220E042E354E167E170E0CE0152
:1045200003960E942012212F40E753E161E270E0E0
:10453000CE0104960E942012CE010C96813891057E
:1045400008F023CDBE016D5F7F4F8F2D0E94D115E6
:104550001CCD4091B401440F475F00E027E061E0CB
:1045600070E08AE690E00E94251320E044EF54E1D9
:1045700062E070E08BE690E00E941012C0E0809153
:10458000B401C81770F48C2F90E0880F991F21E0B8
:1045900045E062E070E08D589F4F0E94D412CF5FDB
:1045A000EECF85E3482E81E0582E91E0A92E91E0D0
:1045B000B92E20E6822E912C38E1332E48E1642E6C
:1045C000712C56E0F52EF501C781D085809103014D
:1045D00090910401C80FD91F1091B301112379F0F4
:1045E0008091190290911A022091BC01211163C09F
:1045F000B3010E94C3366F2D0E94B736182FD50124
:1046000016968C91823009F479C008F059C088233D
:1046100009F48EC0813009F46AC0F50180898823CD
:1046200061F0E12C00E023E635E14BE655E169E17C
:1046300070E0CE0105960E94301211FB222720F96E
:10464000D50116968C91823009F495C008F073C09C
:10465000882309F490C0813009F496C0FDE0AF0EC4
:10466000B11C4A145B0409F0AECFC091B301CC2356
:1046700061F08091190290911A0268E170E00E9445
:10468000C33666E00E94B736C82F2091B0018091F2
:10469000B6019091B701273008F019C1E22FF0E080
:1046A000EC5AFC4D0C94EB368824CC238624D12381
:1046B000D423D423E223B4010E94C336632D9CCFBC
:1046C0008330D1F099EF980F923008F0A6CF01E037
:1046D000883009F000E0E02E27ED35E145E256E1B3
:1046E00064E270E0CE010E9430121FEF96CF14E01A
:1046F00001E064E270E007C01C5FFACF00E065E211
:1047000070E01130B1F7E02E25E735E145EA55E1DB
:10471000CE0101960E943012E12E012F25E736E1ED
:1047200045EE56E16DE270E0CE010E94301275CF89
:1047300010E000E0DECF833039F18750823008F09E
:104740008DCFF5018585813448F4809119029091CF
:104750001A028F719927813108F480CFE12C00E093
:1047600023E035E14FE055E168E170E0CE010496C9
:104770000E94301273CF4DE155E16CE270E0CE0142
:1047800040970E9410126ACF2E5F4DE155E16CE216
:1047900070E0CE010E96F5CF01E0C4E070E060E07D
:1047A0009EC0CC5F01E0FACF01E0253009F000E0C7
:1047B000E02E2FEC37E143E258E165E270E00E9421
:1047C000301207C020E049EB57E165E270E00E943B
:1047D0001012C8E5D1E004E711E0888199812091A9
:1047E000050130910601820F931F9C01235F3F4F0B
:1047F0002E38310538F420E049E758E167E270E0EF
:104800000E94201224960C171D0739F78091BC01D5
:10481000882311F18091190290911A028F709927C3
:104820008930D0F08091940125E0829FC00111244D
:104830008F5F9E4FFC01EC58FF4F608170E08E58F7
:104840009F4FE12C00E02DEA38E14BEC58E1DC0110
:104850008D919C910E9430128091B30181111DC0F5
:1048600000E023E140E664E170E080E190E00E9436
:10487000251321E14EE565E170E081E190E00E94C1
:10488000F91286E180934B0680934A068AE1809371
:104890004C0685E998E10E94B813B0E3CB16D10429
:1048A000D0F580E38C1980938A00DF91CF911F911E
:1048B0000F91FF90EF90DF90CF90BF90AF909F90BF
:1048C0008F907F906F905F904F903F9008950FEF83
:1048D00031E020E0C13009F030E0632F722F6C5DD1
:1048E0007F4FE02E27E537E147E857E101960E9428
:1048F0003012EC2E0C2F25E736E145EE56E16DE245
:1049000070E08091B6019091B70159CF00E0E0CFFF
:1049100000E0C0E043CF10928A00C7CF69018C311C
:1049200091050CF470C92A85222311F021502A87A1
:104930002F81222309F4D0C989858F5F89879885C3
:10494000923009F4C3C908F0B1C9992309F4B7C971
:10495000913009F4B8C98F8181508F8370C9CF938A
:10496000DF93C0912A02C09580912902C8238091CB
:10497000190290911A026EE170E00E94C336892BF1
:1049800079F48091FE06882359F08091FB0690917E
:10499000FC06009729F001979093FC068093FB0694
:1049A0008091FD068823E9F081508093FD06809177
:1049B000F7068823C9F0813009F406C10E94441922
:1049C0000E94751A0E949F188091FB069091FC0628
:1049D000892B09F035C186E080931802DF91CF91D1
:1049E00008950E94291DE3CF9091CB06913009F4E0
:1049F00072C0D8F0923089F1C3FF11C020915206E5
:104A0000E091510686E0289F90011124205B394FE8
:104A1000E20FF32FF11D83A98F3F09F498C0C2FF65
:104A2000CDCF81E08093F706C9CFC5FF07C0809145
:104A30005106882319F0815080935106C6FFDCCFC0
:104A400080915106209150062150330B8217130696
:104A50009CF68F5F80935106CFCFC7FF17C0809120
:104A60005206882399F0E0915106F0E02FEF280FCD
:104A700036E0239FE00DF11D1124E05BF94F8150DA
:104A800023A92F3F21F580935206B6CFC4FFB4CFA0
:104A90008091520620915006622F6150770B861745
:104AA00017060CF0A9CF8F5FE0915106F0E076E099
:104AB000879FE00DF11D1124E05BF94F821708F08C
:104AC0009BCF369635A53F3FF1F28F5FF7CF3697F4
:104AD0008111D5CF91CFC5FF18C080915106882391
:104AE000A1F020915206EFEFE80FF0E036E0239FAF
:104AF000E00DF11D1124EC57F94F815022912F3F09
:104B000009F4A8CF8111F9CF77CFC6FF75CF809177
:104B1000510620915006622F6150770B86171706B9
:104B20000CF06ACF8F5F30915206E82FF0E076E00C
:104B3000379FE00DF11D1124ED57F94F821708F052
:104B40005BCF31913F3F09F485CF8F5FF7CFD09195
:104B5000F906C091FA0621E02093FE0680915606E0
:104B6000A82FB0E0A05BB94F378518963C9383AB74
:104B70008F5F80935606923090F09230A1F00E94A1
:104B8000751A8091F9068D1789F08CE08093FD06E7
:104B90008FED88BD83E59BE00E94E20F0FCF82E09E
:104BA0008093CB06ECCF2093CB06E9CF8091FA0619
:104BB0008C1709F403CF8CE08093FD0680E280938C
:104BC0008A0089E49BE0E8CFC5FF04C080915406C9
:104BD00081110DC0C6FD0FC0C7FF1FC080915506D3
:104BE000882309F4EBCE815080935506E7CE81509F
:104BF00080935406E3CE80915406E091550697E0E9
:104C0000E99FF0011124E353F94F21812150330B27
:104C1000821713060CF78F5FEBCFC4FF0CC0809197
:104C200055062091CC062150330B821713060CF049
:104C3000C5CE8F5FD9CFC2FFC1CE1092F706BECED0
:104C40008091F806811102C089E0C6CE9091560687
:104C5000809157069813C2CE87E0BECEFF920F9385
:104C60001F93CF93DF93EC01F62E08811981C801C1
:104C70000E943E36F81621F06F2DC8010E9446367C
:104C8000CE01DF91CF911F910F91FF9008950F9367
:104C90001F93CF93DF9300D0CDB7DEB78B019A83FC
:104CA0008983FB016081CE0101960E942E26C801F6
:104CB0000F900F90DF91CF911F910F910895CF9298
:104CC000DF92EF92FF920F931F93CF93DF9300D069
:104CD000CDB7DEB710912A021095809129021823D2
:104CE0000E94291D80919B018F3F09F074C015FF20
:104CF0000AC080919801811102C082E001C08150F8
:104D00008093980109C016FF50C0809198018230AD
:104D100009F049C0109298010E949616809198015E
:104D2000813041F008F40FC2823009F4D3C28330DD
:104D300009F03DC28091190290911A0260E370E07F
:104D40000E94C336893148F020E049E75CE06FE01B
:104D500070E08BE590E00E94201280919B018F3FD4
:104D600009F425C280919901813009F41EC325E31D
:104D70004AE163E084E20E94541787E80E94D3135B
:104D800080919801813009F02BC360919B0186E0EE
:104D9000689FB0011124685F7F4F20E044E75CE02A
:104DA00089E290E090C28F5FABCF14FF08C0809182
:104DB0009801823009F0A1CF17FF08C0ABCF17FFD1
:104DC00005C080919801823009F4A4CF13FFA4CFCD
:104DD00010929B01A1CF12FF07C0809198018330F0
:104DE00009F581E08093980180919801813009F460
:104DF000F8C0E0F0823009F48EC0833009F08CCF27
:104E000017FF8CC18091C101E82FF0E0E354FE4F01
:104E1000882309F481CF815092919923C9F380931B
:104E2000C1017ACF8FEF80939B01DECF80919901F2
:104E3000811156C017FF06C080919B01882311F095
:104E4000815007C014FF08C080919B01823020F47C
:104E50008F5F80939B0160CF13FF5ECF80919B019A
:104E60008F5F90E0DC01AC55BE4F59962C9159975D
:104E7000222329F08FEE98E10E94E20F4DCF880F98
:104E8000991FFC01EC55FE4F208131818091B101C9
:104E90009091B2018217930768F341E059964C93C1
:104EA00028173907A0F4821B930B9093B2018093CB
:104EB000B1018091BE01882379F08091BF018823E0
:104EC00069F08091C001811127CF83E0B9CF1092A2
:104ED000B2011092B101EDCF81E0B2CF82E0B0CF4C
:104EE00013FF1ACF84E18093180210929A018091E7
:104EF000A0018A3021F08B3061F08AE001C08BE0A4
:104F00008093A0018091A00180939C0110929D014B
:104F100003CF8CE0F5CF90919901923009F04AC00F
:104F200017FF04C080919B0181118ACF14FF06C036
:104F300080919B01811102C081E08BCF13FFECCEE9
:104F400080919B01882329F0813009F0E5CE8FEF15
:104F500080CF8091B1019091B20120919E0130E00B
:104F60008217930708F486CF28173907D8F4821BD5
:104F7000930B9093B2018093B10165E070E080E003
:104F800090E00E94581C862F880F880F680F685D7C
:104F900060939E018091B5018B3048F08A508093D8
:104FA000B501BACE1092B2011092B101E6CF1092C3
:104FB000B501B2CE13FFB0CE96E190931802809364
:104FC0009A018091A101873021F0883041F087E07B
:104FD00001C088E08093A1018091A10195CF89E073
:104FE000F9CF90919901913009F082C00E941F1D64
:104FF00017FF08C090919B01992321F09150909345
:105000009B018ACE14FF0FC090919B01492F50E065
:1050100023E030E0811102C022E030E04217530764
:1050200014F49F5FECCF13FF77CE80919B0181300A
:1050300099F1C0F0823091F1833009F06DCE34EAFD
:10504000E32E31E0F32E04EA12E0C8010E943E365E
:10505000F70181937F010F5F1F4F073CF2E01F07AD
:10506000A1F743C080E00E94C71C8F3F49F482E152
:105070008093A30183E2809318028091A30144CF1F
:105080008091A301843021F0853021F084E0F0CFBD
:1050900085E0EECF86E0ECCF83E032CE83EA92E08B
:1050A0009A83898361E0CE0101960E942E2684EACC
:1050B00092E09A83898360E0CE0101960E942E26B9
:1050C00044EAE42E41E0F42E04EA12E01A83098354
:1050D000F70161917F01CE0101960E942E260F5F9C
:1050E0001F4F073CF2E01F0789F782E89CE0C4CE1F
:1050F00013FF12CE9FE19093180280939A01909132
:10510000A201913039F0923039F08093A201809160
:10511000A201FACE82E0F9CF83E0F7CF14FF0FC0EF
:105120008091C1018F5FE82FF0E0E354FE4F84309F
:1051300008F0F2CD9191911172CE8F5FF8CF13FFED
:10514000EBCD81E0DDCD8091190290911A0260E3F0
:1051500070E00E94C336893148F020E049E75CE006
:105160006DE070E08DE390E00E94201280919B0141
:105170008F3FE9F080919901882309F44EC025E31F
:1051800049E164E18DE20E94541760919B0186E041
:10519000689FB0011124675E7F4F20E044E75CE028
:1051A00081E390E00E94101287E80E94D31320E070
:1051B0004BE25CE062E370E081E090E00E9420124C
:1051C0001AE010934B0610934A0682E380934C0634
:1051D0006091B1017091B20190E080E04AE00E94DC
:1051E000441810934B0610934A0689E380934C06AB
:1051F0006AE070E08091B5010E94881889EF91E023
:105200000E948F180F900F90DF91CF911F910F91F7
:10521000FF90EF90DF90CF90089540E064E187E247
:105220000E94D11680E380934B0680934A0687E163
:1052300080934C062EEBE22E21E0F22E04EA11E0E0
:10524000F70181917F01811141C0F801C280D380B3
:1052500084E80E94D313B60190E080E04AE00E9407
:10526000441889E29CE00E94B8130E5F1F4FF1E0E2
:105270000A3A1F0729F78FE280934B0680934A066C
:105280008DE280934C0689E69CE00E94B813EDEB1A
:10529000F1E021EC31E080E09191911101C08F5F4C
:1052A0002E173F07C9F7882309F481CF60919B012E
:1052B00086E0689FB0011124675E7F4F20E044E7DD
:1052C0005CE08BE290E00E94101271CF88E80E94AF
:1052D000D313CBCF8091190290911A0260E370E052
:1052E0000E94C336893148F020E049E75CE066E37C
:1052F00070E087E590E00E94201280919B018F3F33
:1053000009F455CF809199018230D9F025E349E124
:1053100063E081E10E94541760919B01E6E06E9F7B
:10532000B0011124685F7F4F20E044E75CE085E135
:1053300090E00E94101287E80E94D31310929B0104
:1053400036CF41E063E083E00E94D11687E080938E
:105350004B0680934A0680934C0680E59CE00E94B1
:10536000B8136AE070E080919E010E94881889E479
:105370009CE00E94B81388E180934B0680934A0614
:105380008CE180934C0680E49CE00E94B81360910D
:105390009B01F6E06F9FB0011124605F7F4F20E01A
:1053A00044E75CE087E090E08ECF0E941F1D182F3D
:1053B00040E2811101C04AE125E363E084E20E94FA
:1053C000541786E80E94D31387EF91E00E948F184C
:1053D000112309F4D5CC8BE39CE00E94B813D0CC08
:1053E0009DEBE92E91E0F92E04EA11E021EC31E089
:1053F000F70180E09191911101C08F5F2E173F0757
:10540000C9F749E1811101C04FE12EE362E18DE26C
:105410000E94541782E8D82EF801818D882359F113
:105420008D2D0E94D313F801868D8A3020F483E0FD
:1054300092E00E948F18F80180858A3020F483E082
:1054400092E00E948F18F801668D70E090E080E095
:105450004AE00E94441884EF91E00E948F18F801FE
:10546000608570E090E080E04AE00E94441886EF9A
:1054700091E00E9437180F5F1F4FD394F6E8DF12B8
:10548000CBCF9091C10180E060E0981739F0F7012F
:1054900021917F0121116F5F8F5FF7CFF6E06F9F42
:1054A000B0011124695E7F4F20E044E75CE081E3B6
:1054B00090E009CF0F920FB68F939F93EF93FF93D6
:1054C00080913D068D5F8D3708F08D5780933D06A6
:1054D000EEE3F6E080818E4F808391819F4F918330
:1054E00082818F4F828383818F4F8383E2E4F6E052
:1054F00080818F5F808381818F4F818382818F4FF5
:10550000828383818F4F83838FB18F6066991C9BC9
:1055100088278F3681F480913C06981B963068F07E
:10552000E0E0F8E087E78083818388E18093600092
:10553000F0936000FFCF90933C06FF91EF919F9115
:105540008F910FBE0F9018951F920F920FB60F926A
:1055500011242F933F934F935F936F937F938F9378
:105560009F93AF93BF93EF93FF93809138069091F1
:105570003906A0913A06B0913B060097A105B10506
:1055800039F120913706211105C0369A209136064F
:1055900021114F9A0197A109B109B7FD08C0809365
:1055A000380690933906A0933A06B0933B06FF91D4
:1055B000EF91BF91AF919F918F917F916F915F918B
:1055C0004F913F912F910F900FBE0F901F90189504
:1055D0000E943D0FECCF1F920F920FB60F92112435
:1055E0008F929F92AF92BF92CF92DF92EF92FF92F3
:1055F0000F931F932F933F934F935F936F937F93DB
:105600008F939F93AF93BF93CF93DF93EF93FF93CA
:10561000C0901202D0901302E0901402F090150294
:105620003FEFC31AD30AE30AF30AC0921202D092E0
:105630001302E0921402F09215028091160281305A
:1056400011F108F44BC0823009F467C0FF91EF916B
:10565000DF91CF91BF91AF919F918F917F916F918A
:105660005F914F913F912F911F910F91FF90EF907C
:10567000DF90CF90BF90AF909F908F900F900FBE14
:105680000F901F9018957727F7FC7A956F2D5E2D58
:105690004D2DD701C601F2E1B595A7959795879550
:1056A000FA95D1F7842B8C9D802D112497018601CA
:1056B000A3E03595279517950795AA95D1F701721F
:1056C00080234C21B4E1F594E794D794C794BA951C
:1056D000D1F7C42AC826C092CF00B8CF7727F7FCED
:1056E0007A956F2D5E2D4D2DD701C60177E0B595CA
:1056F000A795979587957A95D1F721E032E0C31663
:10570000D104E104F1040CF420E0822B942F9C21BD
:10571000892B4C0DC82EC42ADECFDC2DD572D701C3
:10572000C60146E0B595A795979587954A95D1F717
:10573000D827460157015BE0B594A79497948794C6
:105740005A95D1F7CC2DC825CC0DC701B60128E15B
:1057500030E040E050E00E945436672B682B692B04
:1057600019F586E090E0A0E0B0E08821C89EC0195D
:105770001124D701C601880F991FAA1FBB1FB701AB
:10578000A6014675527066277727452B462B472B77
:1057900081F024E0F594E794D794C7942A95D1F743
:1057A000C822CC26CD2A97CF82E090E0A0E0B0E0DE
:1057B000DCCF9AE0F594E794D794C7949A95D1F703
:1057C000EFCF1F920F920FB60F9211242F933F939A
:1057D0004F935F936F937F938F939F93AF93BF93F9
:1057E000EF93FF930E94EB2AFF91EF91BF91AF914E
:1057F0009F918F917F916F915F914F913F912F91E9
:105800000F900FBE0F901F90189583E592E1909333
:105810002D0680932C0680E090E8909328028093D8
:10582000270246983E9A5F98579AE6E4F6E013827C
:10583000128288EE91E09183808386E0818781E007
:10584000808715821682148287831092CB0610926D
:10585000F7061092F8061092F9061092FA061092C6
:10586000FC061092FB061092FD061092FE060895AB
:10587000CDB7DEB7C555D109DEBFCDBF91E090935E
:10588000E0001092E2001092E10080E28093D800E4
:105890001092D700809165008068809365007894AD
:1058A00083E084BD83E085BD90936E00E1E8F0E085
:1058B00083E08083E0E881E08083E1E983E0808326
:1058C000E0E981E08083E1EC87E08083E3EC81E044
:1058D0008083E0EC82E08083E2EC81E08083EAE791
:1058E00087E080838068808381EC80937C0081E7FF
:1058F00085B987E684B985E38BB98FE38AB9769A4F
:105900006E9880EF81BB10BA80E58CBD9DBD85E0AF
:105910000E944012599A85E00E9440125C98E8E289
:10592000F6E085918EBD00000DB407FEFDCFE23399
:10593000C1F75C9A81E88093640081E08093650000
:1059400002E010E00E94431282FF3BC02D980E94AB
:10595000431284788438B1F42D9A88EC0E94401266
:1059600058981A8309836FEFCE0101960E942E2664
:1059700084EF91E00E94F10E589A0E9443128478BD
:105980008438D9F30E94431284718431B1F42D9A82
:1059900088EC0E9440122E981A83098360E0CE01A1
:1059A00001960E942E2684EF91E00E94F10E2E9A1D
:1059B0000E94431284718431D9F388EC0E94401212
:1059C000C1CF2D9A84E180930001809164008E7F85
:1059D0008093640080917A00806480937A00809143
:1059E0007A0086FDFCCF00917800109179000E942A
:1059F000050FAB01BC01C801B0E0A0E0DC019927B4
:105A000088278C019D01040F151F261F371FC90110
:105A1000B801209164002160209364006115710534
:105A20008105910511F00E9435360E940E1D0E94DD
:105A30000E1D81EA92E00E943E36182F82EA92E023
:105A40000E943E36133411F48834A1F0198261EDBE
:105A500071E081EA92E00E94472660ED71E082EAFF
:105A600092E00E944726BE016F5F7F4F83EA92E07B
:105A70000E94472682EF8093800082E1809381001C
:105A80008FEF90E0909387008093860081E280936F
:105A90006F00109289001092880010928B00109273
:105AA0008A0082E08093C00081E08093C1008FEF84
:105AB0008093D10093E894BD87BD9E01245D3F4F44
:105AC000190131E080911002882319F01092100220
:105AD000F9CF90913E0680911102492F481B842FE7
