:100000000C94F8050C9420060C9420060C94200601
:100010000C9420060C9420060C9420060C942006C8
:100020000C9420060C9420060C944D170C94BC17CD
:100030000C9420060C9420060C9420060C942006A8
:100040000C9420060C9420060C9420060C94200698
:100050000C9420060C9420060C9420060C94EE19A7
:100060000C9420060C9420060C9420060C94200678
:100070000C9420060C9420060C9420060C94200668
:100080000C9420060C9420060C9420060C94200658
:100090000C9420060C9420060C9420060C94200648
:1000A0000C9420060C9420060C9420066741707076
:1000B0006C65004170706C6500537461696E6C65AD
:1000C000737300496E636F6E656C00537465656C85
:1000D000004368726F6D6520496E676F74004E69EA
:1000E000636B656C20496E676F7400476F6C6420AA
:1000F000496E676F740049726F6E20496E676F7446
:10010000004E69636B656C204F726500436F616CD4
:10011000004368726F6D65204F726500476F6C64B5
:10012000204F72650049726F6E204F726500456DF9
:10013000707479002F005C007C004120007800433F
:1001400052414654494E4700537461696E6C657361
:100150007300436C61796D6F7265004B6174616E01
:100160006100537465656C2053776F726400497247
:100170006F6E2053776F726400496E636F6E6365B4
:100180006C20436865737400537461696E6C6573A9
:100190007320436865737400537465656C2043680D
:1001A0006573740049726F6E20436865737400490B
:1001B0006E636F6E656C2050616E74730053746172
:1001C000696E6C6573732050616E7473005374654F
:1001D000656C2050616E74730049726F6E205061BF
:1001E0006E747300496E636F6E656C2048656C6D4C
:1001F00000537461696E6C6573732048656C6D00A3
:10020000537465656C2048656C6D0049726F6E2093
:1002100048656C6D00496E636F6E656C20426F6F50
:10022000747300537461696E6C65737320426F6FF1
:10023000747300537465656C20426F6F747300496A
:10024000726F6E20426F6F747300476F6C64204151
:1002500070706C65004368726F6D6500496E636F06
:100260006E656C00537465656C004368726F6D65F4
:1002700020496E676F7400476F6C6420496E676F2A
:1002800074004E69636B656C20496E676F7400493A
:10029000726F6E20496E676F7400FF81BDBDBDBD7A
:1002A00081FFFF81BDB5ADBD81FFFFA5C993A5C984
:1002B00093FFFF819DA7A79D81FFFF83B9E5E5B966
:1002C00083FF102844824122140810386CC6613222
:1002D0001C0810286CAA6B2A1C0810384CE6733ACC
:1002E0001C08C0ACAACA6C505060EEAAAAAAAAAA5E
:1002F000ACC03048844221120A040079858586A565
:100300005800007985B5CEA55800E09EFE0000FE9D
:100310009EE000786414146478007F413905053943
:10032000417F007E4C48484C7E000209290A212A60
:100330001211291A192A2231292C524941293352E2
:1003400041293A693E4234784A5480536451885B6B
:100350005C51906235796A5581736551897B5D5135
:100360009182367A8A57829367528A9B5F5292A310
:1003700037517BAC57615283B46759528BBC5F6273
:100380005293C2327CCB315284D43151628CDC31F5
:10039000525B94E24129FF00000000003E5B4F5B8E
:1003A0003E3E6B4F6B3E1C3E7C3E1C183C7E3C1818
:1003B0001C577D571C1C5E7F5E1C00183C1800FFFC
:1003C000E7C3E7FF0018241800FFE7DBE7FF30482A
:1003D0003A060E2629792926407F050507407F0524
:1003E000253F5A3CE73C5A7F3E1C1C08081C1C3E1B
:1003F0007F14227F22145F5F005F5F06097F017F09
:10040000006689956A606060606094A2FFA29408AB
:10041000047E040810207E201008082A1C08081CEE
:100420002A08081E101010100C1E0C1E0C30383E2E
:100430003830060E3E0E06000000000000005F008F
:10044000000007000700147F147F14242A7F2A125B
:100450002313086462364956205000080703000041
:100460001C2241000041221C002A1C7F1C2A080873
:100470003E08080080703000080808080800006086
:10048000600020100804023E5149453E00427F4072
:100490000072494949462141494D331814127F10D1
:1004A00027454545393C4A4949314121110907361B
:1004B00049494936464949291E00001400000040B8
:1004C00034000000081422411414141414004122B2
:1004D000140802015909063E415D594E7C12111261
:1004E0007C7F494949363E414141227F4141413E5D
:1004F0007F494949417F090909013E414151737FC3
:100500000808087F00417F41002040413F017F08EB
:100510001422417F404040407F021C027F7F04083C
:10052000107F3E4141413E7F090909063E4151216C
:100530005E7F09192946264949493203017F010393
:100540003F4040403F1F2040201F3F4038403F6316
:100550001408146303047804036159494D43007F70
:100560004141410204081020004141417F04020141
:1005700002044040404040000307080020545478E3
:10058000407F284444383844444428384444287F31
:10059000385454541800087E090218A4A49C787F8B
:1005A0000804047800447D40002040403D007F1056
:1005B00028440000417F40007C047804787C0804D3
:1005C00004783844444438FC182424181824241887
:1005D000FC7C08040408485454542404043F442474
:1005E0003C4040207C1C2040201C3C4030403C448F
:1005F000281028444C9090907C4464544C4400084B
:100600003641000000770000004136080002010278
:1006100004023C2623263C1EA1A161123A40402040
:100620007A385454555921555579412154547841BB
:10063000215554784020545579400C1E527212397D
:100640005555555939545454593955545458000036
:10065000457C410002457D420001457C40F0292453
:1006600029F0F0282528F07C545545002054547C6E
:10067000547C0A097F493249494932324848483254
:10068000324A4848303A4141217A3A424020780083
:100690009DA0A07D39444444393D4040403D3C2428
:1006A000FF2424487E4943662B2FFC2F2BFF09296A
:1006B000F620C0887E090320545479410000447D0F
:1006C000413048484A32384040227A007A0A0A7259
:1006D0007D0D19317D2629292F2826292929263003
:1006E000484D4020380808080808080808382F1026
:1006F000C8ACBA2F102834FA00007B000008142A76
:10070000142222142A14089500220095AA005500EC
:10071000AAAA55AA55AA000000FF00101010FF0059
:10072000141414FF001010FF00FF1010F010F0144C
:100730001414FC001414F700FF0000FF00FF141451
:10074000F404FC141417101F10101F101F1414149D
:100750001F00101010F0000000001F101010101FDC
:1007600010101010F010000000FF101010101010EA
:10077000101010FF10000000FF140000FF00FF0029
:10078000001F10170000FC04F414141710171414A1
:10079000F404F40000FF00F714141414141414F7F4
:1007A00000F7141414171410101F101F141414F44D
:1007B000141010F010F000001F101F0000001F1494
:1007C000000000FC140000F010F01010FF10FF14E7
:1007D0001414FF141010101F00000000F010FFFF91
:1007E000FFFFFFF0F0F0F0F0FFFFFF00000000005F
:1007F000FFFF0F0F0F0F0F38444438447C2A2A3E66
:10080000147E02020606027E027E0263554941639F
:100810003844443C04407E201E2006027E02029999
:10082000A5E7A5991C2A492A1C4C7201724C304A32
:100830004D4D303048784830BC625A463D3E4949BB
:1008400049007E0101017E2A2A2A2A2A44445F4463
:100850004440514A444040444A51400000FF010393
:10086000E080FF000008086B6B083612362436065D
:100870000F090F060000181800000010100030408B
:10088000FF0101001F01011E00191D1712003C3C51
:100890003C3C0000000000080B00020202000009BE
:1008A00004000001020200000524001001052401DB
:1008B0000101042402060524060001070581031036
:1008C000004009040100020A00000007050202407E
:1008D0000000070583024000000403090412010020
:1008E00002EF020140412336800001010203014171
:1008F000726475696E6F204C4C4300414241313146
:10090000303600F0F89C8E8783878E9CF8F00000CC
:10091000FEFF0303030303070EFCF80000FEFF03C2
:1009200003030303070EFCF80000FFFF00000000B4
:10093000000000FFFF0000FEFF8383838383C7EE78
:100940007C380000F8FC0E07030303070EFCF800D8
:10095000003F7FE0C08080C0E07F3FFFFF010101DA
:1009600001010101FFFF0000FFFF0C0C0C0C1C3EFD
:1009700077E3C100007FFFC0C0C0C0C0E0703F1F70
:1009800000001F3F70E0C0C0C0E0703F1F00007F4C
:10099000FFC1C1C1C1C1E3773E1C00001F3F70E031
:1009A000C0C0C0E0703F1F000000000001FFFF0159
:1009B0000000008D14A1C881CFD9F102AF486F6C3F
:1009C00064204220546F2073617665005072657315
:1009D00073204120546F20626567696E0044657022
:1009E00074683A20006090A0C0C0A09060C0A0A031
:1009F000C0C0A0A0C0C0A090606090A0C03649ABAD
:100A00002626AB493636C92B16162BC936B6492BC6
:100A100026262B49B69B35CA1010CA359B1AF58B72
:100A200008088BF51ADA358A08088A35DA70EA661A
:100A30008800000000F069E6080000000070F86718
:100A4000480000000070EA6688100D030670E86632
:100A5000881010081C70E867882020C0E070EA66E3
:100A60008810080C0670E866881010181870E8677F
:100A7000882060408070EA66880060600070EA66E6
:100A8000883030080070EA668830000400000000FA
:100A9000008866EA700000000008E669F0000000C7
:100AA000004867F87006030D108866EA701C08108D
:100AB000108866E870E0C020208867E870060C089F
:100AC000108866EA70181810108866E87080406018
:100AD000208867E870006060008866EA700008306F
:100AE000308866EA70000400308866EA701C3E7C3C
:100AF0007C3E1CFF81A1958D9981FFFF819BBDBD2F
:100B00009981FFFF81BD9595BD81FFFF81BDBDBD71
:100B1000BD81FF5072657373204120666F72206D36
:100B2000656E750053746172733A20004B696C6C8A
:100B3000733A200044657074683A200047616D651F
:100B4000204F76657200427920404265726761737A
:100B50006D7300415244554D494E455200536F75D7
:100B60006E64004C6F616400537461727400000025
:100B7000400000000000FEA6CBA6CBA6CBFEFFA542
:100B800093A593A593FFFFFFFFFFFFFFFFFFFF81EB
:100B9000BDBDBDBD81FFFF83B9E5E5B983FFFF8121
:100BA0009DA7A79D81FFFF81BDB5ADBD81FFAA5562
:100BB000AA55AA55AA55FF81F98989F981FFFFA590
:100BC000C993A5C993FFFF9DEB83EBA39DFFFF9DF9
:100BD000EB83EBA39DFFFF81FF81FF81FFFF0000FF
:100BE00040000000000000004000000000008B1AE0
:100BF00011241FBECFEFDAE0DEBFCDBF11E0A0E0D1
:100C0000B1E0EEE5F7E502C005900D92AC34B10716
:100C1000D9F727E0ACE4B1E001C01D92AC3AB207CD
:100C2000E1F715E0C8EFD5E004C02197FE010E946E
:100C3000A72BC73FD107C9F70E94A81A0C94AD2B68
:100C40000C940000E8E5F3E030EB20E146E05C982E
:100C50003EBD4A95F1F72EBD20E8239507C044918B
:100C600040815C9A4EBD8111412D419344912A955A
:100C7000B1F73395383B49F70DB408954F925F9221
:100C80006F927F928F929F92AF92BF92CF92DF929C
:100C9000EF92FF920F931F93CF93DF9330E0F90110
:100CA000E80FF91F1E161F060CF07CC08038910556
:100CB0000CF078C0602E712CF301E60FF71F1E16A2
:100CC0001F060CF06FC0603471050CF06BC0E62F8E
:100CD000E7705E2EE7E06E0E711CE3E0759467949A
:100CE000EA95E1F7F3E075956795FA95E1F7062E39
:100CF000000C770BDB01B695BA2FAA27B795A795FD
:100D0000A80FB91FA85ABC4FEA01F12CE12C6701CA
:100D1000C60ED71E48E0C416D1040CF043C0EFEF56
:100D2000CE16DE06A4F18C0150E040E04D01E0E873
:100D30008E0E911C17FD21C0FA01EC0FFD1FA4902F
:100D4000B12C052C02C0AA0CBB1C0A94E2F7EFEFF1
:100D5000CE16DE06C1F1FD01E40FF51F40804A28E2
:100D60004082552051F0E7E0CE16D10431F0F40175
:100D7000E40FF51FA080BA28B0824F5F5F4F0F5F6E
:100D80001F4F421753071CF40038110599F64FEF17
:100D9000E41AF40AA058BF4FC20FD31F6E147F0489
:100DA00009F0B5CFDF91CF911F910F91FF90EF9098
:100DB000DF90CF90BF90AF909F908F907F906F907B
:100DC0005F904F9008955110D2CFD7CFFC01809102
:100DD0005703882311F13FB7F89482E08093E9002C
:100DE0002091F200822F90E01816190614F481E089
:100DF00090E0882339F0289844E6409356034091C8
:100E0000F1004083222339F02091F200211103C028
:100E10002BE62093E8003FBF08958FEF9FEF0895E2
:100E20002FB7F89483E08093E9009091E800892F30
:100E3000807295FF04C09091F20080E4891B2FBF5F
:100E4000089580914E0381110DC082E080934A0382
:100E500084E080934B0310924D0310924C0381E089
:100E600080934E038AE493E0089540915B02509191
:100E70005C022091590230915A0242175307B4F490
:100E80009091E8009570E1F39091E80092FD19C00F
:100E90008093F10080915B0290915C0201968F73C8
:100EA0009927892B19F48EEF8093E80080915B02DB
:100EB00090915C02019690935C0280935B0281E0CA
:100EC000089580E00895DF92EF92FF920F931F93B1
:100ED000CF93DF93D82E8A01EB017B01E40EF51E40
:100EE000CE15DF0559F0D7FE12C0FE0184910E9495
:100EF000350721968111F4CF0FEF1FEFC801DF9165
:100F0000CF911F910F91FF90EF90DF90089588810E
:100F1000EECF0F931F93CF93DF931F92CDB7DEB722
:100F200082E0898342E450E067E978E080E80E944B
:100F300063070E942107DC0112960D911C91011597
:100F4000110589F0D801ED91FC910280F381E02D2B
:100F5000BE016F5F7F4FC801099597FD04C0F8017E
:100F600000851185ECCF89810F90DF91CF911F9182
:100F70000F910895615030F02091F100FC01208321
:100F80000196F8CF289884E6809356030895AF928F
:100F9000BF92CF92DF92EF92FF920F931F93CF9366
:100FA000DF936C017B018B01040F151FEB015E01C8
:100FB000AE18BF08C017D10759F06991D601ED915D
:100FC000FC910190F081E02DC6010995892B79F7FC
:100FD000C501DF91CF911F910F91FF90EF90DF90AE
:100FE000CF90BF90AF900895CF93DF931F92CDB76E
:100FF000DEB76983DC01ED91FC910280F381E02D85
:1010000041E050E0BE016F5F7F4F09950F90DF9187
:10101000CF91089583E08093E9008091F2008823C6
:1010200019F08AE38093E80008950E94100790E089
:101030000895CF93DF931F92CDB7DEB7FC0184856F
:10104000958597FD08C02FEF3FEF358724870F90D8
:10105000DF91CF910895CE0101960E94E606019797
:1010600019F4898190E0F3CF8FEF9FEFF0CF0F93CA
:101070001F93CF93DF931F92CDB7DEB78C01FC0196
:101080008485958597FF0BC0CE0101960E94E606E8
:10109000019771F4898190E0F80195878487F801C0
:1010A000848595850F90DF91CF911F910F910895C1
:1010B0008FEF9FEFF1CFFC018485958597FD0BC0E5
:1010C0009FB7F89482E08093E9008091F2009FBF7F
:1010D00090E0019608959FB7F89482E08093E9002C
:1010E0008091F2009FBF90E00895FC010E940C09DE
:1010F000319728F068517C4F8F4F9F4FF9CFAB014C
:10110000FC010E940C09641775078E079F07C8F33E
:1011100008958F929F92AF92BF92CF92DF92EF92FB
:10112000FF920F931F93CF93DF936C017B018A0192
:1011300080910B01882309F45AC0809157038823BA
:1011400009F455C080915F0280FF05C08091E000E6
:1011500082608093E000E801B12C8AEFA82E93E032
:10116000892E2AE3922E209711F4BB20C9F10E9408
:101170001007811108C0AA94AA20C9F181E090E06B
:101180000E947508F0CF8C171D0611F00CF08C2F03
:101190009FB7F8948092E9002091E80025FD02C0F5
:1011A0009FBFE1CF282F30E0C21BD30BF701815046
:1011B00020F041914093F100FACFE20EF31EBB20E4
:1011C00021F09092E800B12CEBCF8091E80085FDF2
:1011D000E7CF9092E800BB24B394209709F3F3CFB4
:1011E0005D9884E680935E02101611063CF081E063
:1011F00090E0F6019383828310E000E0C801DF9164
:10120000CF911F910F91FF90EF90DF90CF90BF9003
:10121000AF909F908F900895A5E5B2E02FB7F89416
:101220007D918D919C9166B52FBFA89B05C06F3FA6
:1012300018F47F5F8F4F9F4F22E0660F771F881F44
:10124000991F2A95D1F7089590E00C9475088FB1F5
:101250008095807F669B88601C9B84600895480F02
:10126000592F511D41155105B1F1803891059CF55B
:101270004138510514F040E850E0481BFB0177FD70
:10128000379633E0F595E7953A95E1F7F695FE2F19
:10129000EE27F795E795E80FF91FE85AFC4F6770BE
:1012A000772781E090E001C0880F6A95EAF7382F30
:1012B000213041F4415078F08191DF011197832B67
:1012C0008C93F8CF8095415030F09191DF011197C8
:1012D00098239C93F8CF0895CF93C82F0E94270995
:1012E000982F9C2381E09C1380E0CF91089580E0AB
:1012F0000C94220680389105B8F460347105A0F48E
:1013000090E121E061FD24E060FD220F62FD229565
:10131000687F969FD0011124A80FA85ABC4F0C904B
:10132000022A40FF02260C9208958F929F92AF925C
:10133000BF92CF92DF92EF92FF920F931F93CF93C2
:10134000DF936D3089F0C0904603D09047036A3038
:10135000D1F4109245031092440388E0C80ED11CCA
:10136000D0924703C092460381E090E0DF91CF9195
:101370001F910F91FF90EF90DF90CF90BF90AF90B3
:101380009F908F9008950091440310914503E5E0EC
:101390006E9FE0011124C956DC4F4801F12CF5E0A5
:1013A000E12CFF1629F0CE010196FE01E490EC013C
:1013B000B12CA12C4E2D4170B6016A0D7B1DC401CC
:1013C0000E947A09E694FFEFAF1ABF0A88E0A816D8
:1013D000B10481F7F394EFEF8E1A9E0AF6E0FF1244
:1013E000DECF0A5F1F4F1093450300934403BCCF29
:1013F0000F931F93CF93DF938C01D0E0C0E0F801EF
:10140000EC0FFD1F6491662341F088EA97E00E948B
:101410009509892B11F02196F2CFCE01DF91CF9162
:101420001F910F910895DF92EF92FF920F931F93F8
:10143000CF93DF937C01D22E8B01040F111DEB01A2
:1014400077FF02C0D0E0C0E0C8010134110514F0FC
:1014500080E490E0C817D9073CF44D2DBE01C701C8
:101460000E947A092196F0CFDF91CF911F910F91C1
:10147000FF90EF90DF900895CF92DF92EF92FF926E
:101480000F931F93CF93DF936B01122FEC017C011D
:10149000E40EF11CCE15DF0544F4202F412FB601D8
:1014A000CE010E94130A2196F5CFDF91CF911F91B3
:1014B0000F91FF90EF90DF90CF900895CF92DF9241
:1014C000EF92FF920F93CF93DF936C017B01C42FB8
:1014D000D22F6034710520F4202FC6010E942F09FD
:1014E000B7016D0F711D615071096034710528F4E9
:1014F000202F4C2FC6010E942F09202F4D2FB701FE
:10150000C6010E94130AC6018C0F911D202F4D2F7A
:10151000B7010197DF91CF910F91FF90EF90DF908E
:10152000CF900C94130AFC019481492F50E05595FB
:1015300047955595479543704F5F443009F441E016
:10154000937F84E0489F90011124292B24830895E0
:1015500098E0699FB0011124E82FE695E60FF72F78
:10156000F11DEE5AFE4F908180FD08C09F7080E112
:10157000489FA0011124942B90830895907F492BBC
:1015800040830895982F70E0FB01EE0FFF1FE55197
:10159000FD4F21E030E0082E02C0220F331F0A94D5
:1015A000E2F74081518124233523232B89F4E82F4E
:1015B000E695F0E083E0660F771F8A95E1F7EE5A33
:1015C000FE4FE60FF71F808190FF82958F70089580
:1015D00080E008951F93CF93DF93182FEB0188814C
:1015E00090E02A812223F9F023E030E0820F931F5C
:1015F00023E0959587952A95E1F780932B03612F3A
:1016000070E0685F7F4F33E0759567953A95E1F735
:1016100060932E030E94C20A811108C01983DF91D2
:10162000CF911F91089521E030E0E0CF81E0F7CF26
:101630000F931F93CF938C01FC018381C181CD5FF8
:10164000C81BC83008F4C8E01816BCF0F8011382B3
:10165000B8018C2F0E94EA0A8130E9F4B8018FEFBB
:101660008C0F0E94EA0A8130B1F4B8018EEF8C0F22
:10167000CF911F910F910C94EA0A8150F801838356
:10168000843034F3B8018C2F0E94EA0A813019F4B7
:1016900083E0F8018383CF911F910F91089580918A
:1016A0003203843040F560913003611101C061E084
:1016B00080912F0390E0209131032223E9F023E071
:1016C00030E0820F931F23E0959587952A95E1F7E7
:1016D00080932B0370E0675F7F4F33E075956795CC
:1016E0003A95E1F760932E030E94C20A882319F00D
:1016F00088E080933203089521E030E0E2CF8F301C
:10170000B8F48F5FE62FF0E0EE0FFF1FE551FD4FBD
:1017100021E030E0082E02C0220F331F0A94E2F7C6
:101720004081518124233523232B11F40C94C20AC8
:1017300080E008958823B9F08150E62FF0E0EE0FA5
:10174000FF1FE551FD4F21E030E0082E02C0220FBF
:10175000331F0A94E2F74081518124233523232B40
:1017600011F40C94C20A80E00895CF93DF93FC013A
:10177000EB0190912F039695969596958091310364
:101780008130C1F5915090836091300370E06C5FBF
:101790007F4FE3E075956795EA95E1F7688380915F
:1017A0002F0390E00296F3E095958795FA95E1F77F
:1017B0000E949A0B982F977FD1F46091300370E0CC
:1017C000645F7F4F53E0759567955A95E1F768839D
:1017D00080912F0390E0029673E0959587957A9516
:1017E000E1F70E949A0B982F977F09F480E0DF9130
:1017F000CF9108959F5F90836091300370E06C5F9C
:101800007F4F33E0759567953A95E1F7688380914E
:101810002F0390E0029643E0959587954A95E1F76E
:101820000E947F0B982F977F11F76091300370E033
:10183000645F7F4F83E0759567958A95E1F76883CC
:1018400080912F0390E0029623E0959587952A9545
:10185000E1F70E947F0BC7CFCF93DF93FC01EB0131
:1018600090912F0380913103813009F05DC0983051
:1018700008F458C0969596959695915090836091EE
:10188000300370E0645F7F4F83E0759567958A95BC
:10189000E1F7688380912F0390E0029623E095950D
:1018A00087952A95E1F70E949A0B811105C091E076
:1018B000892FDF91CF9108956091300370E06C5FC4
:1018C0007F4FA3E075956795AA95E1F768838091AE
:1018D0002F0390E00296B3E095958795BA95E1F7CE
:1018E0000E949A0B882319F38091300390E0BC0189
:1018F0006450710977FF02C0695F7F4FE3E075951F
:101900006795EA95E1F7688380912F0390E002964E
:10191000F3E095958795FA95E1F70E949A0B91E08F
:10192000882331F290E0C4CF88E8890F8830D0F363
:101930009695969596959F5F90836091300370E0A1
:10194000645F7F4F53E0759567955A95E1F768831B
:1019500080912F0390E0029673E0959587957A9594
:10196000E1F70E947F0B882309F4A1CF6091300337
:1019700070E06C5F7F4F33E0759567953A95E1F7BE
:10198000688380912F0390E0029643E095958795B8
:101990004A95E1F70E947F0B882309F488CF809154
:1019A000300390E0BC016450710977FF02C0695FA9
:1019B0007F4F83E0759567958A95E1F768838091FD
:1019C0002F0390E0029623E0959587952A95E1F7FD
:1019D0000E947F0BA4CFE82FF0E0E552FD4F8081FD
:1019E000982F9770FB01908386958695869590E059
:1019F0000895EF92FF921F93CF93DF931F92CDB77D
:101A0000DEB7982F969596959695E92EF12C9F50D6
:101A10009430F0F4482F477093E0499FA0011124BF
:101A200020913B0330913C0302C0369527954A959F
:101A3000E2F72770A7014F5051092417150641F40A
:101A400081E00F90DF91CF911F91FF90EF9008956B
:101A5000182F1982BE016F5F7F4F80E00E94EB0C50
:101A60008E159F0529F49981812F8770981740F76B
:101A7000BE016F5F7F4F81E00E94EB0C8E159F05CA
:101A800029F49981812F87709817D0F6BE016F5F76
:101A90007F4F82E00E94EB0C8E159F0529F49981FF
:101AA000812F8770981760F6BE016F5F7F4F83E0CC
:101AB0000E94EB0C8E159F0531F49981812F877060
:101AC000981708F0BDCFBE016F5F7F4F84E00E9482
:101AD000EB0C8E159F0531F49981812F8770981733
:101AE00008F0AECFBE016F5F7F4F85E00E94EB0C28
:101AF0008E159F0531F49981812F8770981708F012
:101B00009FCFBE016F5F7F4F86E00E94EB0C8E156A
:101B10009F0531F49981812F8770981708F090CF35
:101B2000BE016F5F7F4F87E00E94EB0C8E159F0513
:101B300031F49981812F8770981708F081CFBE0109
:101B40006F5F7F4F88E00E94EB0C8E159F0531F48C
:101B50009981812F8770981708F072CFBE016F5F4F
:101B60007F4F89E00E94EB0C8E159F0531F499811F
:101B7000812F8770981708F063CFBE016F5F7F4F8A
:101B80008AE00E94EB0C8E159F0531F49981812F1C
:101B90008770981708F054CFBE016F5F7F4F8BE0BE
:101BA0000E94EB0C8E159F0531F49981812F87706F
:101BB000981708F045CFBE016F5F7F4F8CE00E9401
:101BC000EB0C8E159F0531F49981812F8770981742
:101BD00008F036CFBE016F5F7F4F8DE00E94EB0CA7
:101BE0008E159F0531F49981812F8770981708F021
:101BF00027CFBE016F5F7F4F8EE00E94EB0C8E15EA
:101C00009F0531F49981812F8770981708F018CFBC
:101C1000BE016F5F7F4F8FE00E94EB0C8E159F051A
:101C200029F417708981811708F00ACF80E009CF65
:101C3000EF92FF920F931F93CF93DF931F92CDB735
:101C4000DEB77C01062F10E0BE016F5F7F4F812F52
:101C50000E94EB0C9C018E159F0539F59981992303
:101C600021F1E12FF0E0E552FD4F091778F4901BC8
:101C70009770EE0CEE0CEE0C9E2990830F90DF9186
:101C8000CF911F910F91FF90EF90089510821F3018
:101C900020F4818181931F5FFACF1092EA02602FB6
:101CA000691BC9010E94180EE9CF1F5F103161F650
:101CB000E5CFEF92FF920F931F93CF93DF931F9285
:101CC000CDB7DEB77C01062F10E0BE016F5F7F4FFE
:101CD000812F0E94EB0C8E159F0511F0892B31F599
:101CE0006981673018F5E12FF0E08E2D880F880F9D
:101CF000880FE552FD4F462F400F5527551F48309E
:101D0000510564F4600F6770682B60830F90DF915A
:101D1000CF911F910F91FF90EF900895876080837E
:101D20000750600FC7010E94590EF0CF1F5F10319E
:101D300061F6ECCF84E080933F0381E08093480319
:101D400080933E0393E294BD9FEF98BD91EF9093F3
:101D500080001092880010928A00AFE2B3E01996DA
:101D60008C93199788EC1A968C931A97EBEDF2E006
:101D700010821182128213821482158216821782B7
:101D80001086118612861386148615861686178687
:101D90001D961C921E921C970895089590E080E075
:101DA00008958F929F92AF92BF920F931F93CF93FC
:101DB000DF93CDB7DEB7A1970FB6F894DEBF0FBEA5
:101DC000CDBF19A2423008F44AE08E010F5D1F4FCB
:101DD000842E912CB12CA12CA50194010E94342BAE
:101DE000E62FB901CA01EA3044F5E05DD801EE936F
:101DF0008D01232B242B252B79F790E080E0109781
:101E000069F0FD0101900020E9F73197AF014A1B0D
:101E10005B0BBD0188EA97E00E94C707A1960FB649
:101E2000F894DEBF0FBECDBFDF91CF911F910F9110
:101E3000BF90AF909F908F900895E95CD7CFFC0141
:101E400001900020E9F73197AF01481B590BBC0105
:101E500088EA97E00C94C707682F70E090E080E074
:101E60004AE00C94D10E2F923F924F925F926F9264
:101E70007F928F929F92AF92BF92CF92DF92EF921A
:101E8000FF920F931F93CF93DF9300D01F92CDB794
:101E9000DEB7E82E462E342E222E8AE0689FA0015F
:101EA0001124465D5F4F460F511D5B834A8301E05D
:101EB0002AE047E76A817B8181E090E00E945E0A28
:101EC0008E2D90E0FC01E65DFC4F249130E043E074
:101ED000359527954A95E1F7E491B12CA12CE7704F
:101EE000E983AC01455D5C4F7A0156E0852E912C6B
:101EF0008A819B8101969B838A83122F622E712C8B
:101F00009981A91608F0CFC0F701EA0DFB1D549086
:101F100090924503809244034A815B81509347032A
:101F2000409346031D3108F026C0F301E656F04FFA
:101F30000C94A72BB70FFF0F0210051008100B1001
:101F40000E101110141017101A101D10201023104D
:101F5000261029102C102F103210351038103B107D
:101F60003E104110441047104A104D1050108FE899
:101F700092E00E94F80957E05215E8F181E08315DC
:101F8000D0F5411038C0452D46954695469581EFD0
:101F9000840F843080F19CE19A9D60019B9DD00C60
:101FA00011244150550B83E0440F551F8A95E1F7EA
:101FB00046565D4F08E028E061E270E0C6010396F6
:101FC0000E943E062EE0C20ED11CD0924503C09264
:101FD000440381E290E090934703809346038AE3B1
:101FE00091E00E941F0F652D677070E090E080E027
:101FF0004AE00E94D10E4FEFA41AB40A81CF82E8C2
:1020000092E0B7CF87E792E0B4CF8AE692E0B1CF13
:1020100084E692E0AECF8CE592E0ABCF85E592E02E
:10202000A8CF8AE492E0A5CF8FE392E0A2CF83E32A
:1020300092E09FCF83E292E09CCF85E192E099CF3E
:102040008BE092E096CF80E092E093CF81EF91E039
:1020500090CF84EE91E08DCF89ED91E08ACF8DEC29
:1020600091E087CF8DEB91E084CF8FEA91E081CF33
:1020700084EA91E07ECF88E991E07BCF88E891E027
:1020800078CF89E791E075CF8EE691E072CF82E656
:1020900091E06FCF8BE591E06CCF82E591E069CF65
:1020A00088E491E066CF0F900F900F90DF91CF9171
:1020B0001F910F91FF90EF90DF90CF90BF90AF9066
:1020C0009F908F907F906F905F904F903F902F9058
:1020D00008950F931F93CF93DF931092330388E0FB
:1020E0008093340300E016E0C4E6D0E08091DA0289
:1020F000081708F087C0402F50E0149FF001159F8B
:10210000F00D1124E259FD4F9581992309F461C026
:10211000218180913003281B022E000C330B37FFE6
:1021200003C0319521953109253031050CF051C09E
:10213000149FF001159FF00D1124E259FD4F2081ED
:1021400080912F03322F381B80913C038695869512
:1021500086958E708F5F6091310361113CC03E3F68
:102160009CF036308CF4A92FA81BBB0B129714F0EF
:10217000692F681B149FF001159FF00D1124E2597F
:10218000FD4F65832C5F2083149FF001159FF00D98
:102190001124E259FD4F858181111BC00E94382A0C
:1021A000BE010E94932B4E972CF461E08DE090E0ED
:1021B0000E94590E80913A03282F26952695269540
:1021C0002F5FF8E02F9F900111248770822B80935E
:1021D0003A030F5F8BCF6130B9F63330ACF63B3F3B
:1021E0009CF2E92FE81BFF0B981B32970CF490E050
:1021F000149FF001159FF00D1124E259FD4F9583B6
:102200002450C1CFDF91CF911F910F91089580E4A9
:102210000E946C09882321F082E0809334030895A2
:1022200080E20E946C098111F7CF80E80E946C095E
:1022300081110C944F0B80E10E946C09882391F06E
:1022400080913603811125C083E08093360380910D
:1022500035038F5F843019F0809335030895109211
:102260003503089584E00E946C0981110C94691073
:1022700088E00E946C0910923303882351F080910A
:102280003403843021F0813011F01092370384E060
:10229000C4CF08957F928F929F92AF92BF92CF92B8
:1022A000DF92EF92FF920F931F93CF93DF931F92D2
:1022B000CDB7DEB780E80E946C09882379F0909151
:1022C000360390FD0BC080913F03811101C081E076
:1022D000815080933F0391609093360380E10E9488
:1022E0006C09882361F08091360381FD08C09091CC
:1022F0003F039F5F90933F0382608093360380E2A9
:102300000E946C09882379F09091360392FD0BC0EE
:1023100080913D03811101C081E0815080933D0394
:1023200094609093360380E40E946C09882371F0D6
:102330008091360383FD0AC090913D03993008F4E3
:102340009F5F90933D038860809336030E94270926
:1023500087FD05C0809136038E70809336030E94FE
:10236000270984FD05C0809136038D708093360364
:102370000E94270985FD05C0809136038B708093EC
:1023800036030E94270986FD05C0809136038770B9
:102390008093360380912E038F5F803108F080E0B8
:1023A00080932E0321E040E868E070E090E080E058
:1023B0000E942F0910913F03B0903D0310922B0310
:1023C0009BE0E92EF0902B0327E02F1508F44DC079
:1023D000FE9C6001112446013FEF831A930A01E03D
:1023E0002AE04AE06AE070E0C4010E945E0A2AE046
:1023F0004AE065E170E0C4010E945E0ABE016F5FC1
:102400007F4F8F2D0E94EB0CAC018981882379F0DE
:1024100083E0440F551F8A95E1F74E565D4F08E063
:1024200028E06BE070E0C60102960E943E06BE0105
:102430006F5F7F4F88E08F0D0E94EB0CAC018981AC
:10244000882379F003E0440F551F0A95E1F74E56B3
:102450005D4F08E028E066E170E0C60102960E9448
:102460003E06F394F0922B03ADCF80913B0387702F
:1024700009F4FFC008E028E04AE053E06CE070E0B7
:102480008EE590E00E943E0640913B034770440F6A
:1024900021E06AE070E08DE590E00E942F098091D4
:1024A0003B0390913C03B3E096958795BA95E1F78D
:1024B000877009F4E8C008E028E042E153E06CE0EE
:1024C00070E089E690E00E943E0640913B03509107
:1024D0003C03A3E056954795AA95E1F74770440F52
:1024E00021E06AE070E088E690E00E942F09809188
:1024F0003B0390913C03F6E096958795FA95E1F7BA
:10250000877009F4CAC008E028E04AE153E06CE0B3
:1025100070E085E790E00E943E0640913B035091B9
:102520003C03E6E056954795EA95E1F74770440F7E
:1025300021E06AE070E084E790E00E942F0980913A
:102540003C038695877009F4B2C008E028E042E2B7
:1025500053E067E170E08EE590E00E943E06409116
:102560003C034E7021E065E170E08DE590E00E9453
:102570002F0901E020E246E060E270E089E790E0A8
:102580000E945E0AE0903C03E2947FE0E7224E2D39
:102590004770E42EE39422E042E06CE370E08BE7C6
:1025A00090E00E943C0A21E044E06BE370E08AE79F
:1025B00090E00E942F090E2D000F000F0E0D5E2DD2
:1025C0002BEF250370011124B701655C7F4F21E0DB
:1025D000402F8BE790E00E94130AB701645C7F4FA5
:1025E00021E0402F8CE790E00E94130A01E028E0F0
:1025F00048E066E170E089E690E00E943C0A83E7EB
:1026000090E0909345038093440387E190E090939A
:1026100047038093460380916D020E942C0F21E0B6
:1026200048E168E070E08AE590E00E94130A123009
:1026300008F043C180912E0337E03B1508F041C0FC
:10264000893008F4C7C092E1199FB0011124675F77
:102650007F4F4B2D4850550B949FF001959FF00DE7
:10266000112422E142E1CF01865A9F4F0E945E0A67
:10267000B1C001E02AE04AE06AE070E08DE590E058
:102680000E945E0A0CCF01E02AE04AE06AE070E0B6
:1026900089E690E00E945E0A2ACF01E02AE04AE043
:1026A0006AE070E085E790E00E945E0A48CF01E0B2
:1026B0002AE04AE065E170E08DE590E00E945E0A64
:1026C00058CF893070F08BE0189FB0011124675FFC
:1026D0007F4F01E02CE04CE0B89EC00111240E9425
:1026E0005E0ABE016F5F7F4F812F880F880F880FB2
:1026F0008B0D0E94EB0C7C01898110924503109296
:1027000044031092470310924603882309F4D0C073
:102710000E942C0F88E090E090934503809344033F
:1027200010924703109246038DE391E00E94F8094E
:1027300080E190E090934503809344031092470317
:10274000109246035FE0E516F104C0F4F701E55589
:10275000FC4E0C94A72BBA132E14311434143A14D3
:1027600037143D1440144614431449144C144F14A8
:10277000521455148EE291E00E94F8098EE690E022
:1027800090934503809344031092470310924603AD
:102790008AE391E00E94F8090091520284E391E0FB
:1027A0000A3030F088E391E0043110F086E391E0E4
:1027B0000E94F80988E00E946C09882349F00F5FA5
:1027C000009352020F3130F061E0C7010E94180EF1
:1027D0001092520210922B0380916702909168022E
:1027E000A0916902B0916A028F3F9F4FA105B10588
:1027F00009F09CC010926702109268021092690260
:1028000010926A0200E0C12CD12C7601C394E091B1
:102810002B03F0E0E65DFC4FE491EF3F09F486C046
:1028200088248394912CE770AE2E70902B03A8140B
:1028300008F457C0F401E70DF11DE65DFC4F8491EB
:102840000E94F90C3FEF831A930A8111EECFEA2D13
:10285000E70DEF5FE0932B030F5FD9CF85E291E0A7
:102860008BCF8CE191E088CF81E191E085CF8CE046
:1028700091E082CF81E091E07FCF86EF90E07CCF46
:102880008BEE90E079CF8EED90E076CF81ED90E009
:1028900073CF8BEC90E070CF83EC90E06DCF89EB41
:1028A00090E06ACF83EB90E067CF8CEA90E064CF52
:1028B0008FE391E00E94F8098DCF123009F08ACFA2
:1028C00087E08B1508F086CF80912E03893008F4BD
:1028D00081CF01E02AE044E26DE270E08AE590E019
:1028E000C5CEEA2DE70DEF5FE0932B03B701A601FC
:1028F000002E04C0440F551F661F771F0A94D2F79D
:102900008091670290916802A0916902B0916A0279
:10291000842B952BA62BB72B80936702909368028C
:10292000A0936902B0936A020F5F73CF01E020E2C7
:1029300047E760E270E081E090E00E945E0A47E0D5
:102940004B1590F0123080F021E046E06CE270E030
:1029500082E090E00E94130A21E043E06EE270E022
:1029600083E090E00E94130A21E047E769E270E00B
:1029700081E090E00E942F0910922B03EAE2F3E03D
:102980007490812F123008F482E03EEFA32EA80E3F
:10299000812C912CEA2CF12C5FEFE51AF50A42E02C
:1029A000C42ED12C8FEF781609F4D1C08091670224
:1029B00090916802A0916902B0916A02082C04C04B
:1029C000B595A795979587950A94D2F780FF3AC059
:1029D00080912B03A9101FC12B2D412F60E00E9475
:1029E000330F123070F197E09B1558F188E00E9488
:1029F0006C098823A1F080913303482F440F480FBE
:102A000001E026E061E070E082E090E00E943C0A94
:102A100080913303883224F58F5F809333030E94C3
:102A2000270983FD0EC010923303D0924503C09254
:102A3000440310924703109246038CE391E00E94F6
:102A40001F0F9394E0912B03EF5F872D8770E80FA2
:102A5000E0932B03F0E0E65DFC4F74908394A2CFEB
:102A60008832E9F61092330382E090E090934503B8
:102A70008093440310924703109246038CE391E045
:102A80000E941F0FE0902B038E2D90E0FC01E65D6D
:102A9000FC4F049110E023E0159507952A95E1F786
:102AA000E491D12CC12CE770BE2E9C01255D3C4FDA
:102AB0007901CB1480F4F701EC0DFD1D8491682F92
:102AC000677086958695869590E00E94180E3FEF78
:102AD000C31AD30AEECF0D31110508F027C0F80153
:102AE000EC58FA4E0C94A72B9115C015C415C815B7
:102AF000CC15D015D415D815DC15E115E315E51561
:102B0000E715EA15EC15EE15F015F315F515F715A3
:102B1000F915FC15FE1500160216051607160916FE
:102B2000D41561E086E090E00E94590E8FEF9FEF90
:102B3000A0E0B0E08093670290936802A0936902DE
:102B4000B0936A0281E080933D0310923F0384E0DA
:102B50000E946C09882329F081E0809334030E944D
:102B600007110F90DF91CF911F910F91FF90EF9080
:102B7000DF90CF90BF90AF909F908F907F900895FF
:102B800061E089E090E0D0CF61E087E090E0CCCFD9
:102B900061E088E090E0C8CF61E08AE090E0C4CFD7
:102BA00061E08BE090E0C0CF61E08CE090E0BCCFD2
:102BB00061E08EE090E0B8CF61E080E00E946B1AA7
:102BC000B5CF62E0FACF63E0F8CF64E0F6CF61E022
:102BD00081E0F4CF62E0FCCF63E0FACF64E0F8CFAD
:102BE00061E082E0EBCF62E0FCCF63E0FACF64E02B
:102BF000F8CF61E083E0E2CF62E0FCCF63E0FACFA0
:102C000064E0F8CF61E084E0D9CF62E0FCCF63E01C
:102C1000FACF64E0F8CF9E141F0409F012CF2B2DD9
:102C2000412F61E00E94330F0CCFCF93C82F8091CA
:102C300033038F5F63E00E94712B909333039111F4
:102C400005C081E0809334030E94071188E00E9450
:102C50006C09882339F0809137038F5F8C1758F403
:102C6000809337030E942709982F987083FD09C02D
:102C70001092370303C01092370391E0892FCF9150
:102C8000089590E0FBCFEF92FF920F931F93CF93A5
:102C9000DF93C82FD62F142F022F8CE0E82EF12CB3
:102CA000112399F18EEF8C0F8D3078F5DD3168F5B9
:102CB0006D2F8C2F0E94C20A882339F1402F6D2F6F
:102CC0008C2F0E94A80A113001F10E94382AB70106
:102CD0000E94932B80932E0311508B3080F0202F75
:102CE000412F6D2F8FEF8C0F0E944316202F412F05
:102CF00061E06D0F8C2F0E944316CF5FD1CF8830DB
:102D0000A8F78630D0F3DF5FCBCFDF91CF911F9153
:102D10000F91FF90EF9008959F92AF92BF92CF9244
:102D2000DF92EF92FF920F931F93CF93DF93C82F01
:102D3000D62F142F84E6E82EF12C9FE0C92ED12C3B
:102D400006E023E0922E3CE0A32EB12C112309F4DF
:102D500076C08EEF8C0F8D3008F071C0DD3108F039
:102D60006EC06D2F8C2F0E94C20A882309F467C0A1
:102D700040E06D2F8C2F0E94A80A0E94382AB701CC
:102D80000E94932B482F80932E039091DA02292FD3
:102D900030E080913803582F569556955695B601D8
:102DA000651B71092617370754F5413540F1029F1D
:102DB000F001039FF00D1124E259FD4F5C2F550FD8
:102DC000550F550F50835D2F550F550F550F5183DC
:102DD000128293828695865F858381E04E3520F44A
:102DE00082E0473508F483E0029FF001039FF00D75
:102DF0001124E259FD4F84839F5F9093DA021130D2
:102E0000F1F00E94382AB5010E94932B80932E0383
:102E100011508B3070F0412F6D2F8FEF8C0F0E946F
:102E20008C16412F61E06D0F8C2F0E948C16CF5FA6
:102E30008DCF8830B0F78630D0F3DF5F87CFDF915A
:102E4000CF911F910F91FF90EF90DF90CF90BF90A7
:102E5000AF909F9008950C94EC2A82E090E00E943D
:102E60002B17882319F03E9A579A08953E98579841
:102E700008951F93CF93DF93EC01162F0E94EC2A45
:102E8000181739F0612FCE01DF91CF911F910C946B
:102E9000F42ADF91CF911F9108951F920F920FB6E0
:102EA0000F9211248F939F938091E1009091E10004
:102EB000937F9093E10083FF0FC01092E90091E0AF
:102EC0009093EB001092EC0092E39093ED0010923F
:102ED000570398E09093F00082FF22C093E0909314
:102EE000E9009091F200992319F09AE39093E80099
:102EF00090915E02992341F090915E0291509093DF
:102F00005E02911101C05D9A90915603992341F0A0
:102F100090915603915090935603911101C0289AB5
:102F200084FF18C08091E2008E7E81608093E20071
:102F30008091E1008F7E8093E10080915F028E7E20
:102F4000806180935F029F918F910F900FBE0F90D1
:102F50001F90189580FFF7CF8091E2008E7E8061F0
:102F60008093E2008091E1008E7E8093E100809169
:102F70005F028E7E8160E5CF1F920F920FB60F9297
:102F80001124CF92DF92EF92FF920F931F932F9312
:102F90003F934F935F936F937F938F939F93AF93E1
:102FA000BF93EF93FF93CF93DF93CDB7DEB76C97CB
:102FB000DEBFCDBF1092E9008091E80083FF25C0FD
:102FC00068E0CE0145960E94BA0782EF8093E80040
:102FD0008D8987FF39C09091E80090FFFCCF982F32
:102FE000907609F034C19E894F89588D2F89F88CCD
:102FF000911131C0803861F5809160028093F100B9
:103000001092F1008EEF8093E8006C960FB6F89462
:10301000DEBF0FBECDBFDF91CF91FF91EF91BF918A
:10302000AF919F918F917F916F915F914F913F9160
:103030002F911F910F91FF90EF90DF90CF900F9005
:103040000FBE0F901F9018959EEF9093E800C7CF8A
:103050001092F100D5CF913059F48111D3CF413086
:10306000510581F6809160028D7F80936002CACF06
:10307000933049F48111C6CF4130510519F6809142
:1030800060028260F2CF953041F48091E80080FFC9
:10309000FCCF20682093E300B5CF963009F0A9C09B
:1030A0000B8D1C8D22E01092E90010925C021092B0
:1030B0005B02F2122EC010925A02109259020E9424
:1030C00089071F8299E09983FA8291E09E8390EAB2
:1030D00098879AEF998720915B0230915C02275F75
:1030E0003F4F3C832B838D831092E90010925C024A
:1030F00010925B0210935A020093590249E050E08B
:10310000BE016F5F7F4F80E00E9463070E948907C6
:1031100079CF10935A02009359020E942107DC01D3
:1031200012960D911C910115110509F451C1D80198
:10313000ED91FC910480F581E02DBE016B5E7F4F27
:10314000C8010995009709F03EC1F8010085118575
:10315000EACFF3E0FF120EC08F89882309F440C044
:10316000823061F440E867E08BEF98E00E94381A03
:10317000811148CF81E28093EB0047CF813029F461
:1031800040E86BE08FEE98E0F1CF833099F70E9432
:103190002107DC011296ED90FC908E010F5F1F4F0E
:1031A0006801E114F10479F0D701ED91FC910680FA
:1031B000F781E02DB801C7010995080F111DF7012E
:1031C000E084F184EECFD8011C92F601019000203A
:1031D000E9F73197BF016C197D0940E0C601C6CF00
:1031E00069ED78E0FB01449150E080E80E946307BC
:1031F00009CF973009F4BECF983021F481E0809355
:10320000F10000CF993009F0FDCE837009F0B2CF04
:10321000E6E1F1E081E031E096E32191222371F0D3
:103220008093E9003093EB00DF0111972C912093FC
:10323000EC009093ED008F5F873079F78EE78093F5
:10324000EA001092EA008F8980935703DBCE8B8DC2
:103250009C8D1092E90010925C0210925B02909398
:103260005A0280935902898D811192C08E899D895D
:10327000913A49F4813209F07DCF47E050E064E0B3
:1032800071E080E0B3CF913209F074CF833269F4FA
:103290008F89988DB0E0A0E08093000190930101A8
:1032A000A0930201B0930301ADCE803269F4809106
:1032B000E80082FFFCCF67E084E091E00E94BA075B
:1032C0008BEF8093E8009ECE823209F09BCE8F89EF
:1032D00080930B01EEEFFFE7859194918B3F9C4D1E
:1032E00051F1E0E0F8E08091040190910501A09196
:1032F0000601B0910701803B9440A105B105F1F4AE
:1033000080910B0180FD1AC0EE3F8AE0F80789F535
:1033100087E797E7918380838091600080935D02C7
:1033200088E19BE00FB6F894A895809360000FBEEB
:103330009093600067CEEEEFFAE0D5CF8081918167
:103340008737974709F05ECEA89580916000886125
:103350008093600080915D0280936000EE3F2AE0E0
:10336000F20789F08091FE0A9091FF0A9183808391
:1033700049CE808191818737980751F29093FF0A57
:103380008093FE0AC5CF1092FF0A1092FE0A3ACE31
:103390000E942107DC0112960D911C910115110567
:1033A00009F4E8CED801ED91FC910190F081E02D77
:1033B000BE016B5E7F4FC8010995811123CEF801D4
:1033C00000851185EBCF181619060CF41BCED2CE52
:1033D000F1E0FF12BECE6DED78E004CF0F920FB694
:1033E0008F939F93EF93FF93809154028D5F8D375E
:1033F00008F08D5780935402E3E6F2E080818E4F0F
:10340000808391819F4F918382818F4F82838381BB
:103410008F4F8383E5E5F2E080818F5F8083818138
:103420008F4F818382818F4F828383818F4F8383EC
:103430008FB18F6066991C9B88278F3681F48091AD
:103440005302981B963068F0E0E0F8E087E780834D
:10345000818388E180936000F0936000FFCF9093B8
:103460005302FF91EF919F918F910FBE0F9018958E
:10347000EF92FF920F931F93CF93DF93F82E192FA4
:10348000E62E042F81E0860F880F0E94350783E027
:103490000E943507CF2DD12FEC0EFD2EF11CCE153D
:1034A000DF05B9F007FF13C0FE0184910E943507C4
:1034B000182F80E00E943507812321968111EFCFDC
:1034C000DF91CF911F910F91FF90EF900895888128
:1034D000EDCF81E0F5CF262F30E043E0849FC0019F
:1034E0001124EFE2F3E067E070E0082E02C0660FFF
:1034F000771F0A94E2F7609570954485558564239B
:10350000752302C0220F331F8A95E2F7622B732BBB
:10351000758764870895E8E5F7E01382128288EEE4
:1035200093E0A0E0B0E084839583A683B78380E234
:1035300091E0918380838FEF9FEF95878487E8EAFE
:10354000F7E01382128282E391E0918380830895F1
:10355000CDB7DEB72697DEBFCDBF789483E084BDBC
:1035600083E085BD81E080936E00E1E8F0E083E0D8
:103570008083E0E881E08083E1E983E08083E0E923
:1035800081E08083E1EC87E08083E3EC81E080836D
:10359000E0EC82E08083E2EC81E08083EAE787E090
:1035A000808380688083109257031092600210928B
:1035B0005F028091D70081608093D70080EA80937A
:1035C000D80089B5806189BD89B5826089BD89B51A
:1035D000182F11701E8380FFFACF81E090E00E94C7
:1035E00075088091D8008F7C80618093D80080918D
:1035F000E000807F8093E0008091E1008E7E8093E8
:10360000E1008DE08093E200559A209A81EC80934E
:103610007C0081E785B987E684B985E38BB98FE3C0
:103620008AB9769A6E9880EF81BB10BA80E58CBD1E
:1036300081E08DBD85E00E942409599A85E00E94B1
:1036400024095C98E3EBF9E085918EBD00000DB490
:1036500007FEFDCFED3BC1F75C9A81E880936400E3
:1036600081E0809365000E94770980E80E946C09E0
:103670008823A9F05C9885EA8EBD00000DB407FE92
:10368000FDCF5C9A2E9858982D98809164008062A6
:103690008093640081E083BF889513BEFCCF84E0F3
:1036A0000E946C098823B9F12D9884E80E946C0966
:1036B0008823A1F02D9A88EC0E94240958986FEF76
:1036C00082E090E00E94391784EF91E00E94750833
:1036D000589A84E80E946C098111FBCF84E10E9412
:1036E0006C098823A1F02D9A88EC0E9424092E9859
:1036F00060E082E090E00E94391784EF91E00E9440
:1037000075082E9A84E10E946C098111FBCF88EC28
:103710000E942409C4CF2D9A0E942D1781E090E0C9
:103720000E942B17182F147081FF0EC011112E98B4
:10373000F1EFEF2EFF24FA9480E40E946C098823B5
:1037400009F472C02E9A589A82E30E9424090E94BA
:1037500027098111F9CF10922E0310923D03109288
:103760003F0310922B0388E280930C018091640048
:103770008E7F8093640080917A00806480937A00C9
:1037800080917A0086FDFCCF00917800109179003D
:103790000E940C09AB01BC01C801B0E0A0E0DC0153
:1037A000992788278C019D01040F151F261F371F9D
:1037B000C901B80120916400216020936400611563
:1037C00071058105910511F00E94E32A0E940C0900
:1037D00060934003709341038093420390934303AB
:1037E0000E949A0E10923C0310923B038FEF9FEFC2
:1037F00090936507809364070E942D1710929000A4
:103800008AE0809391005AE0252E312C20916102AC
:10381000222309F464C01092610280E090E0892BB9
:10382000A9F30E940000F2CF112331F024E0E21648
:10383000F10411F42E9A589881E00E94220600E1CA
:1038400028E543E059E0B70184E190E00E943E069C
:103850000E9477098FE00E9424093FEFE31AF30AE0
:1038600049E1E416F10409F067CF112311F0589AE9
:103870002D9880E991E00E9475082D9A81E090E0F2
:103880000E942B1780FF60CF8AE090E00E942B17E8
:103890009FEF980F9E3F08F057CF22E330E0309320
:1038A00045032093440328E330E0309347032093FB
:1038B00046030BE010E0682F88EA97E00E94950924
:1038C000C8010E942B170F5F1F4F0131110599F797
:1038D0000E94770988EE93E00E94750835CF909199
:1038E000630280916202192F181B812F30910C0105
:1038F000131748F48F5F831708F08FCF81E083BFE1
:10390000889513BE8ACF81E0809361029093620212
:10391000EBE6F2E080819181019680839183E8E576
:10392000F3E021112FEF8FEF219321932193219326
:103930008150D0F71092470310924603109245032E
:103940001092440380914903882359F08150809359
:103950004903811108C010929000809149038111A0
:1039600002C010929000F090480321E0F21239C09A
:103970008090400390904103A0904203B090430395
:10398000C501B40120E23EE440E050E00E94022B79
:103990006259744FDB018C91880E911CA11CB11CE3
:1039A0008092400390924103A0924203B09243035D
:1039B00080913F038F5F853008F084E080933F0360
:1039C00088E00E946C09882309F465C180913E0358
:1039D00080FFE8C010923E0383E08093480310927A
:1039E0003D0380914803843009F07EC088E00E9446
:1039F0006C09882309F480C389E780932B03109214
:103A000045031092440310924703109246038CE33F
:103A10009BE00E94F80910924503109244035CE079
:103A2000E52EF12CF0924703E0924603D090380344
:103A3000D0922E0384E39BE00E94F80904E210E098
:103A40001093450300934403F0924703E09246032A
:103A50008D2D0E942C0F109245031092440368E1B3
:103A6000E62EF12CF0924703E09246038CE29BE0B5
:103A70000E94F80980913A038695869586958093F1
:103A80002E031093450300934403F0924703E09202
:103A900046030E942C0F109245031092440310938A
:103AA00047030093460384E29BE00E94F80980915B
:103AB0003A03877080932E031093450300934403C9
:103AC00010934703009346030E942C0F1092450366
:103AD0001092440380E390E0909347038093460361
:103AE00083E19BE00E94F80980914803823049F409
:103AF00080913403182F10711B8384FF0BC30E9425
:103B00004A1180914803833011F00C9485298091EB
:103B10003E0381110C94F828809140039091410359
:103B20000E943D2A10926D021092DA0281E0809389
:103B3000340388E080932F031092300310923103F6
:103B40001092330310923203109235031092360311
:103B50001092370310922B03E0912B03E03210F008
:103B60000C943227F0E0EE0FFF1FE551FD4F11825C
:103B7000108210922E0300912E0310912B0300311E
:103B800010F00C942D27123010F00C94B72640E062
:103B9000612F802F0E94A80A40E0612F81E0800FF2
:103BA0000C94CE2681FF5FC08FEF90E00E942B1710
:103BB0008E3B69F080E091E00E942B17893739F045
:103BC00081E091E00E942B17813009F0BCC182E0B6
:103BD00091E00E942B178093380383E091E00E94CC
:103BE0002B178093390310923C0310923B0384E01F
:103BF00091E00E942B17082F10E0102F0027109340
:103C00003C0300933B0385E091E00E942B17082BB7
:103C100010933C0300933B0386E091E00E942B1736
:103C200080933A034BEDC42E42E0D42E07E011E01E
:103C3000C8010E942B17F60181936F010F5F1F4F80
:103C40000731F1E01F07A1F783E284BD18BC81EFC3
:103C5000809380001092880010928A0083E0809305
:103C6000480310923E0380913E0382FF14C090915E
:103C70003F03943081F410923F0320913B03309135
:103C80003C0383FF63C1877080933E0330683093A9
:103C90003C0320933B0308E010E01093450300939E
:103CA000440322E0C22ED12CD0924703C092460397
:103CB00088E69BE00E94F8091093450300934403B3
:103CC0002AE030E0309347032093460383E69BE0ED
:103CD0000E94F809109345030093440382E190E0A9
:103CE00090934703809346038DE59BE00E94F8097B
:103CF0008EE390E09093450380934403D092470372
:103D0000C092460383E59BE00E94F80984E390E0BB
:103D100090934503809344038BE090E09093470396
:103D20008093460386E49BE00E94F80980E10E94AC
:103D30006C09882399F080913F03843079F4809155
:103D40003E0380932E0310923F03982F990F967095
:103D500009F491E08870892B80933E0380E80E94EB
:103D60006C098823A9F080913F03843089F4809105
:103D70003E0380932E0310923F03282F30E03595A9
:103D80002795277009F424E08870822B80933E03E6
:103D9000E0903E032E2D217044E064E070E081E06D
:103DA00090E00E942F090E2D10E09801359527957F
:103DB000217044E06CE070E081E090E00E942F0907
:103DC0001595079515950795202F217044E064E11E
:103DD00070E081E090E00E942F09E3FEBCC041E06A
:103DE00068E170E08AE290E00E947A0941E064E1D3
:103DF00070E08AE290E00E947A0941E066E170E0BA
:103E00008CE290E00E947A0941E066E170E088E28D
:103E100090E00E947A0941E068E170E08BE290E076
:103E20000E947A0941E068E170E089E290E00E9436
:103E30007A0941E064E170E08BE290E00E947A0947
:103E400041E064E170E089E290E00E947A0941E09B
:103E500067E170E08CE290E00E947A0941E067E15E
:103E600070E088E290E00E947A0941E065E170E04C
:103E70008CE290E00E947A0941E065E170E088E21E
:103E800090E00E947A0941E067E170E08CE290E006
:103E90000E947A0941E067E170E088E290E00E94C8
:103EA0007A0941E065E170E08CE290E00E947A09D5
:103EB00041E065E170E088E290E00E947A0941E02B
:103EC00068E170E08BE290E00E947A0941E068E1ED
:103ED00070E089E290E00E947A0941E064E170E0DC
:103EE0008BE290E00E947A0941E064E170E089E2AF
:103EF00090E00E947A0980912C0390912D03892BE8
:103F000009F472C078E2C72ED12C10922B031091C5
:103F10002B03103108F0E8C06F2D812F0E94C20AD8
:103F200038E0839FA00111244259544F08E028E053
:103F3000B601A8E01A9FC00111240E943E061F5F2F
:103F400010932B03E4CF10923D038DCE88608093B5
:103F50003E033F779CCE21E045E064E170E08AE2D9
:103F600090E00E94130A21E045E064E170E08BE2FA
:103F700090E00E94130A21E043E065E170E08CE2EA
:103F800090E00E94130A21E045E064E170E089E2DC
:103F900090E00E94130A21E043E065E170E088E2CE
:103FA00090E00E94130A21E043E065E170E08CE2BA
:103FB00090E00E94130A21E045E064E170E08BE2AA
:103FC00090E00E94130A21E043E065E170E088E29E
:103FD00090E00E94130A21E045E064E170E089E28C
:103FE00090E00E94130A87CF81E090E090932D0328
:103FF00080932C0310922B03E0912B03E03208F006
:1040000081CFF0E0EE0FFF1FE551FD4F11821082CE
:1040100010922E0300912E0310912B03003108F013
:104020005FC0123050F440E0612F802F0E94A80A38
:1040300040E0612F81E0800F17C01230E9F40E9448
:10404000382A00912B0310912E03B1010E94932B6B
:1040500041E005970CF440E0602F812F0E94A80AF0
:1040600041E0602F81E0810F0E94A80A80912E0319
:104070008E5F80932E03CECF133041F441E063E096
:10408000802F0E94A80A41E063E0D4CF143041F4AD
:1040900042E064E0802F0E94A80A42E064E0CACFB8
:1040A000153021F70E94382AB1010E94932B42E07B
:1040B00005970CF043E060912B0380912E030E9442
:1040C000A80A0E94382AB1010E94932B42E005976A
:1040D0000CF043E080912E0360912B038F5FC4CFDF
:1040E0001F5F10932B0388CFF394B8E0CB0ED11C45
:1040F000E8E0FE120ACF75CC80912B03893709F0D6
:104100007ECC0E94270983FD7ACC0E949A0E1092E1
:104110002B0375CC409140035091410360914203C1
:10412000709143034F5F5F4F6F4F7F4F409340034A
:1041300050934103609342037093430380FF03C095
:104140000E94071120C081FF14C1809133038F5F4B
:1041500063E00E94712B9093330380E80E946C0906
:1041600081110E944F0B80E40E946C09882309F49E
:10417000CFC01092310384E00E946C09882309F4B7
:104180008DC00E9469108FE293E00E94180B20916D
:104190003003822F869586958695203208F09BC243
:1041A00010923D0381E080933F03F6E07F2E8090E4
:1041B0003F0338E0381508F426C310922B0348E07B
:1041C000849E70011124E3E05E2E10912B039090E9
:1041D0003D0300913003103108F00EC3692D812F8B
:1041E0000E94C20A682EA12EB12C650173E0CC0C8E
:1041F000DD1C7A95E1F768E0869FA0011124425901
:10420000544F0770B701601B710908E028E0C60130
:104210000E943E0685EF860D823008F098C280919C
:104220006B0290916C0268E770E00E947F2B892BF3
:1042300009F08DC2292D30E0809130038695869556
:10424000869590E0821B930B0596099708F07FC234
:1042500080912F0386958695869590E08A199B0913
:1042600007960F9708F073C28091DA02682F70E00A
:1042700090E0492F092E000C550B461757070CF0FC
:1042800031C2749EF001759EF00D1124E259FD4F6C
:10429000E581EE2309F42EC29F5FEBCF10912F032F
:1042A0006091300370E06C5F7F4F43E075956795D8
:1042B0004A95E1F7212F30E0C901049797FD079651
:1042C00033E0959587953A95E1F70E947F0B8093AF
:1042D0002E03882311F0893091F41F5F10932F0370
:1042E0001770153060F0893051F410923E0383E06E
:1042F00080934803809138038F5F809338038091C7
:104300002F038D3708F43FCF8CE780932F033BCFEB
:1043100080E20E946C09882321F181E080933103BF
:1043200084E00E946C0981112CCF10912F036091C1
:10433000300370E06C5F7F4F03E0759567950A95D9
:10434000E1F7812F90E0079623E0959587952A95D0
:10435000E1F70E949A0B811116CF115010932F0391
:1043600012CF8091330381110ECF81E0809334030B
:10437000E7CE83FF18C0809133038F5F63E00E9414
:10438000712B90933303911105C081E08093340326
:104390000E94071180E80E946C09882309F4F3CE7B
:1043A0000E944F0BF0CE82FFEECE8091350381113B
:1043B000F8C08AE00E941516882309F4E0C0BE0107
:1043C0006F5F7F4FCE0102960E94B50BE82F8823C6
:1043D00009F4D9CE10923703A981B0E0AA0FBB1F10
:1043E000A551BD4F2A8181E090E002C0880F991F3E
:1043F0002A95E2F72D913C911197822B932B8D9367
:104400009C9380913C03E35087FFD2C798E290933E
:10441000490390E49093900020EA37E030939900AC
:1044200020939800EB3008F09FC0F0E0E65EFD4D71
:104430000C94A72B252242223C224A224622B42257
:10444000B4224E2252229D22AF2287FF0CC088E266
:104450008093490380E48093900081E49FE09093EF
:1044600099008093980080916D028F5F803408F0EE
:104470008FE380936D0287CE61E085E090E00E943B
:10448000590E81CE61E081E090E0F9CF61E082E0F9
:1044900090E0F5CF61E084E090E0F1CF61E083E06F
:1044A00090E0EDCF61E08EE090E00E94590E0E9416
:1044B000382A64E670E00E94932B823300F563E0B3
:1044C00081E090E00E94590E61E084E090E00E945B
:1044D000590E61E08DE090E00E94590E80913C03FE
:1044E00087FF51CE88E28093490380E48093900057
:1044F00083E690E0909399008093980044CE8035B5
:1045000070F462E08AE090E00E94590E62E083E07D
:1045100090E00E94590E62E084E090E0DDCF61E01F
:104520008EE090E00E94590E62E08CE090E00E94E4
:10453000590E62E08BE090E0CFCF87FF0CC088E29D
:104540008093490380E48093900082E590E090930B
:1045500099008093980061E08AE090E090CF90917C
:104560003A039F5F90933A0387FF0DCE88E28093D2
:10457000490380E48093900081E49FE0BBCF809169
:104580003703882309F4FFCD80913C0387FFFBCDDF
:1045900088E78093490380E48093900083E290E071
:1045A000A9CF813009F03FC08AE00E941516882308
:1045B00009F4E9CD81E70E94F90C11E0813009F09E
:1045C00010E089E60E94F90C8130B1F482E0812B81
:1045D00090913903913A08F580FF10C061E08EE0B8
:1045E00090E00E94180E80913903813A08F080EA29
:1045F000885D80933903C7CD80E0E9CF827009F4EC
:10460000C2CD61E08DE090E00E94180E80913903E8
:104610008F3B08F08EEB865FECCF982F927089F776
:1046200080FFB1CDDBCF8230D1F48AE00E94151635
:10463000882309F4A8CD80E18093340310923603D7
:1046400010923F032FEF3FEF40E050E020936702CE
:10465000309368024093690250936A0294CD83308C
:1046600009F091CD88E00E941516882309F48BCDBE
:1046700010916D02112309F486CDBE016F5F7F4F4B
:10468000CE0102960E942C0C80932E03882309F4FD
:104690007ACDF9800A8143E06F2D802F0E94A80A0D
:1046A000EF2DF0E0EE0FFF1FE551FD4F81E090E0B0
:1046B00002C0880F991F0A95E2F780959095208196
:1046C0003181822393239183808310923703115089
:1046D00010936D0258CD8350203E08F088E18093FE
:1046E0003D0360CD4617570729F4813180F58F5F70
:1046F0008093DA02913158F5749EF001759EF00DA9
:104700001124E259FD4F812F880F880F880F808375
:104710008CE068126EC08FEF9FEF749EF001759E63
:10472000F00D1124E259FD4F281B390B220F220FE7
:10473000220F218312825382809138038695865FEF
:104740008583892D652D0E94652B9F5F94838091C1
:10475000350381111DC0BE016F5F7F4FCE010296F0
:104760000E94B50B80932E03882391F08A81181341
:104770000FC0898198120CC0809130038770B701F7
:10478000681B710900E028E048E0C6010E945E0A4B
:1047900080913503833049F580916D02882329F19A
:1047A000BE016F5F7F4FCE0102960E942C0C80935A
:1047B0002E038823D1F08A81181317C0898198129B
:1047C00014C00E940C0960FD10C0809130038770F6
:1047D000B701681B71096F5F7F4F06E026E04EEA64
:1047E0005BE0C60101960E943E061F5F10932B03FB
:1047F000ECCC81E090E091CF939490923D03839430
:1048000080923F03D4CC80913003803E08F477C17E
:10481000805C8C83C12C66E0D62E90913003809111
:10482000DA02C81608F0F4C14C2C512CD49C90012B
:10483000D59C300D1124A90142595D4F7A01DA014E
:1048400015968C911597882309F457C10C81091B83
:1048500011966C91060F01340CF04FC14A01C7014B
:104860000E94180B80916B0280FD2EC0D7011C9115
:1048700080912F03212F281B812F90E012160CF01E
:104880006FC121E012962C93129711966C90712CA7
:104890005C01B7E0AB0EB11C43E0B594A7944A9518
:1048A000E1F7B3016C5F7F4F53E0759567955A95BB
:1048B000E1F78A2D0E949A0B811128C11150F7014E
:1048C0001083C4010E94930AD49CF001D59CF00D82
:1048D0001124E259FD4F4481142F13708FEF810F83
:1048E00080933F0350E05595479555954795437004
:1048F000552741505109B3E0440F551FBA95E1F7D0
:1049000038E1839F400D511D11248281813009F0CF
:104910007CC184E090E0480F591F4B51564F602FE7
:10492000000F770BD49CF001D59CF00D1124E259B7
:10493000FD4F808190E008E024E002960E943E0650
:104940002091380364E02A3038F063E0243120F00D
:1049500062E0283208F061E070E080916B02909193
:104960006C020E947F2B892B09F0B8C0D49CF00107
:10497000D59CF00D1124E259FD4F818190913003B7
:10498000891B082E000C990B97FF03C09195819508
:10499000910905970CF0B1C0D49CF001D59CF00DA5
:1049A0001124E259FD4FF08080912F0302E0081B93
:1049B00084E02A3038F088E0243120F08CE028327E
:1049C00008F080E1189F102D11240E94382A2091B0
:1049D0003B03277064E670E00E94932B6AE0269FF9
:1049E000A00111248417950724F483E0289F10194F
:1049F00011240E94382A20913B0330913C03E3E0CC
:104A000036952795EA95E1F7277064E670E00E94F5
:104A1000932BAFE02A9FA00111248417950724F45B
:104A2000B3E02B9F101911240E94382A20913B03D8
:104A300030913C0376E0369527957A95E1F727701B
:104A400064E670E00E94932BE4E12E9FA001112404
:104A50008417950724F4F3E02F9F101911240E9466
:104A6000382A20913C03322F3695377064E670E087
:104A70000E94932B6EE1369FA001112484179507A5
:104A800024F483E0389F101911240F0D053030F500
:104A9000111624F58091390390E0811B910917FDCF
:104AA000939597FD80E08093390327FF0CC094E134
:104AB0009093490380E480939000A4E3B5E0B09321
:104AC0009900A0939800B3E2B4BDEFEFE8BDF1EF19
:104AD000F093800010928800E0938A0080916B022E
:104AE00080FD0BC003E204BD1FEF18BD21EF209332
:104AF00080001092880010928A00C3948ECE8C831E
:104B0000813208F487CE10E21C8384CE7301F4E076
:104B1000EF1AF108F7FE04C0730123E0E20EF11C66
:104B200033E0F594E7943A95E1F76E2D8A2D0E94D3
:104B30009A0B8111C9CE6E2D812F8695869586950B
:104B40000E94C20A8111C0CED49CF001D59CF00D08
:104B50001124E259FD4F1150108388E08383B1CEB8
:104B6000222309F4B1CE12961C92129711966C90E2
:104B7000712C5C01B3E0AB1AB108B7FE04C05C0154
:104B8000E4E0AE0EB11C93E0B594A7949A95E1F7DA
:104B9000B3016C5F7F4F23E0759567952A95E1F728
:104BA0008A2D0E947F0B811109C0D49CF001D59CF5
:104BB000F00D1124E259FD4F1F5F82CE7301F4E026
:104BC000EF1AF108F7FE04C0730123E0E20EF11CB6
:104BD00083E0F594E7948A95E1F76E2D8A2D0E9483
:104BE0007F0B811171CE6E2D812F869586958695CE
:104BF0000E94C20A811168CED49CF001D59CF00DB0
:104C00001124E259FD4F1F5FA7CF90E080E083CED3
:104C100080913403482F50E09A0135952795282B31
:104C200010E020FD13C0182F187083FD0EC082FF06
:104C30000AC080913503882301F1813001F182306F
:104C400029F0833019F01D8101C016E080913303F3
:104C5000810F80932B0310923F0320913103213069
:104C600031F4845F80932B0384E080933F03903E74
:104C700040F0905C90932E0309C013E0E7CF19E059
:104C8000E5CF9032B8F380E280932E0340912B035E
:104C900038E0439FA0011124435D554F60912E03DE
:104CA00070E080912F0390913F0308E028E0891B7A
:104CB000990B0E943E0600E028E048E061E070E0C9
:104CC00088E790E00E943C0A4091350368E0469FE7
:104CD000A00111244D50554F08E028E061E070E03C
:104CE00088E790E00E943E0680913603882319F001
:104CF00081508093360300E028E047E461E070E0F3
:104D000081E390E00E943C0A42E3F42E5AE0E52E53
:104D100020913903822F6E2D0E94652B9B8198175D
:104D2000D0F49170D92EAB814DEE5AE0A0FF02C0B5
:104D300040EF5AE008E023E061E070E08F2D90E062
:104D40000E943E0684E0D11001C083E0F80EBB81D2
:104D5000BF5FBB83DDCF211103C084E08093480394
:104D600010923D0310923F031D830C94811D12305D
:104D7000F1F40E94382A00912B0310912E03B10107
:104D80000E94932B41E005970CF440E0602F812FA7
:104D90000E94A80A41E0602F81E0810F0E94A80ACA
:104DA00080912E038E5F80932E030C94BB1D1330D5
:104DB00049F441E063E0802F0E94A80A41E063E0EB
:104DC0000C94CE1D143049F442E064E0802F0E9420
:104DD000A80A42E064E00C94CE1D1530F1F40E9464
:104DE000382AB1010E94932B42E005970CF043E072
:104DF00060912B0380912E030E94A80A0E94382AFA
:104E0000B1010E94932B42E005970CF043E08091A2
:104E10002E0360912B038F5FC1CFFF24F394F00E1C
:104E20001E3149F440E06EE1802F0E94A80A40E064
:104E30006EE18F2DB3CF1F3141F448E06FE1802F39
:104E40000E94A80A48E06FE1F4CF43E0612F802F71
:104E50000E94A80A43E0612FECCF1F5F10932B0341
:104E60000C94AC1D0E94382A64E070E00E94932BE1
:104E700080932B0324E1E22EF12C0CE010E00E9441
:104E8000382A5C010E94382A6C010E94382AFC01F1
:104E9000C501B1010E94932B42E0480FC601B70142
:104EA0000E94932B28E0280FCF01B8010E94932B7A
:104EB000622F8E5F0E948C1680912B038F5F8093F0
:104EC0002B038830E0F20E94382A64E070E00E94F0
:104ED000932B80932B0314E6812E912C02E0C02E9D
:104EE000D12C89E1482E512C9CE0692E712C0E9416
:104EF000382A209138032695B4010E94932B820F03
:104F000080933F0314E0883250F015E0863438F087
:104F100017E08F3520F01AE0833708F016E00E9482
:104F2000382A5C010E94382A7C010E94382AFC0140
:104F3000C501B6010E94932B41E0480FC701B201A1
:104F40000E94932B36E0380FCF01B3010E94932BC0
:104F5000212F632F8E5F0E94431680912B038F5F5A
:104F600080932B03883118F20E94382A64E670E09F
:104F70000E94932BC2970CF075C00E94382A66E1FC
:104F800070E00E94932B082F66E0F62EF80E0E9428
:104F9000382A6BE070E00E94932B182F882E73E064
:104FA000B72EB80EEE80E7E0AE2EA00EF8E0CF2EC2
:104FB000C00EA5E09A2E900EB4E06B2E600E772402
:104FC0007394780E075FD82CDE0C40E06F2D8D2D8A
:104FD0000E94A80A40E06A2D8D2D0E94A80A40E098
:104FE0006C2D8D2D0E94A80A662D6E0D48E0872D30
:104FF0000E94A80A48E0692D8D2D0E94A80A48E069
:10500000602F8D2D0E94A80AE394E6E0EE12DBCF1C
:105010001B5F48E0692D812F0E94A80A48E06F2D90
:10502000812F0E94A80A48E06A2D812F0E94A80AB9
:1050300048E06C2D812F0E94A80A48E0602F812F44
:105040000E94A80A4BE06C2D8B2D0E94A80AF7E065
:105050008EEFFB1508F482E040E06C2DB81A8B2D22
:105060000E94A80A80913803082F077009F0AEC08B
:10507000882309F4ABC00E94382A60E170E00E94E6
:10508000932B182F98E0C92EC80E29E0B22EB10E2E
:105090003AE0F32EF10E4BE0D42ED10E5CE0E52E7B
:1050A000E10E135F48E06C2D802F0E94A80A40E0BB
:1050B0006B2D802F0E94A80A40E06F2D802F0E9448
:1050C000A80A40E06D2D802F0E94A80A40E06E2DB6
:1050D000802F0E94A80A48E0612F802F0E94A80A12
:1050E0000F5F0031F9F640E06C2D80E00E94A80AC5
:1050F00040E0612F80E00E94A80A40E0612F81E03B
:105100000E94A80A48E06B2D82E00E94A80A48E0AD
:105110006F2D82E00E94A80A48E06D2D82E00E9477
:10512000A80A43E06E2D82E00E94A80A4CE06F2D91
:1051300086E00E94A80A43E06B2D87E00E94A80A3F
:1051400048E06F2D87E00E94A80A48E06D2D87E0B7
:105150000E94A80A48E06E2D87E00E94A80A43E05A
:105160006B2D8CE00E94A80A48E06F2D8CE00E9415
:10517000A80A48E06D2D8CE00E94A80A48E06E2D38
:105180008CE00E94A80A40E0612F8AE00E94A80AF1
:1051900040E0612F8BE00E94A80A4CE06D2D8BE06F
:1051A0000E94A80A4CE06F2D8FE00E94A80A4DE0F3
:1051B0006E2D8FE00E94A80A40E0612F8FE00E94D0
:1051C000A80A40E0612F8EE00E94A80A48E06DE145
:1051D0008EE00E94A80A48E06DE18FE00E94A80AD4
:1051E00049E06EE18FE00E94A80A81E080933E03CF
:1051F00080913D038F5F982F893008F098E090935D
:105200003D03883018F188E00E946C09882381F002
:1052100083E284BD8FEF88BD81EF80938000109280
:10522000880010928A0082E08093480310923E0327
:1052300084E00E946C09882309F4B7C0809133038D
:105240008F5F89320CF065C08093330380916B02CD
:1052500090916C0287709927892B59F483E284BD61
:105260008FEF88BD81EF80938000109288001092AC
:105270008A00109245031092440310924703109243
:1052800046031091380310932E038DED99E00E9490
:10529000F80984E290E090934503809344031092D0
:1052A000470310924603812F0E942C0F1092450352
:1052B0001092440380E190E090934703809346036B
:1052C0008CEC99E00E94F809109245031092440377
:1052D00080E290E090934703809346038DEB99E042
:1052E0000E94F80901E024E040E56AE270E090E005
:1052F00080E00E945E0A40913303440F22E06BE29B
:1053000070E090E080E00E943C0A0E9477090C94D3
:105310000D1C109233036EEB8FEF90E00E94391753
:1053200069E780E091E00E94391761E081E091E057
:105330000E9439176091380382E091E00E9439178A
:105340006091390383E091E00E94391760913C033A
:1053500084E091E00E94391760913B0385E091E081
:105360000E94391760913A0386E091E00E94391754
:105370008BEDE82E82E0F82E07E011E0D7016D9169
:105380007D01C8010E9439170F5F1F4F0731B1E03F
:105390001B07A1F783E284BD18BC81EF80938000D6
:1053A0001092880010928A0051CF109233034ECF92
:1053B000EB3010F00C94C320F0E0EF51F64D0C945C
:1053C000A72B252242223C224A224622C320C32068
:1053D0004E2252229D22AF228F929F92AF92BF9275
:1053E000CF92DF92EF92FF92CF93DF93EC0168812F
:1053F00079818A819B81611571058105910521F46F
:1054000064E279ED8BE597E02DE133EF41E050E088
:105410000E94022B49015A019B01AC01A7EAB1E4A9
:105420000E94212B6B017C01ACEEB4EFA50194012D
:105430000E942F2BDC01CB018C0D9D1DAE1DBF1DCD
:10544000B7FF03C00197A109B04888839983AA8355
:10545000BB839F77DF91CF91FF90EF90DF90CF904C
:10546000BF90AF909F908F9008950E94EC2908956F
:105470008DE091E00E94EC290895B0E0A0E08093D7
:105480000D0190930E01A0930F01B09310010895A8
:105490008F929F92AF92BF92CF92DF92EF92FF9244
:1054A000CF93DF93EC01688179818A819B816115BB
:1054B00071058105910521F464E279ED8BE597E0B2
:1054C0002DE133EF41E050E00E94022B49015A01E7
:1054D0009B01AC01A7EAB1E40E94212B6B017C0186
:1054E000ACEEB4EFA50194010E942F2BC60ED71E7F
:1054F000E81EF91EF7FE06C081E0C81AD108E108CF
:1055000080E8F80AC882D982EA82FB82C701B60124
:105510009F77DF91CF91FF90EF90DF90CF90BF907A
:10552000AF909F908F9008958F929F92AF92BF926D
:10553000CF92DF92EF92FF92609111017091120170
:1055400080911301909114016115710581059105F8
:1055500021F464E279ED8BE597E02DE133EF41E052
:1055600050E00E94022B49015A019B01AC01A7EABD
:10557000B1E40E94212B6B017C01ACEEB4EFA501DC
:1055800094010E942F2BC60ED71EE81EF91EF7FEAF
:1055900006C081E0C81AD108E10880E8F80AC09284
:1055A0001101D0921201E0921301F0921401C7018F
:1055B000B6019F77FF90EF90DF90CF90BF90AF90B4
:1055C0009F908F90089560931101709312018093C2
:1055D0001301909314010895F999FECF92BD81BDF6
:1055E000F89A992780B50895262FF999FECF1FBA0A
:1055F00092BD81BD20BD0FB6F894FA9AF99A0FBEFC
:1056000001960895052E97FB1EF400940E94192B15
:1056100057FD07D00E94342B07FC03D04EF40C94A6
:10562000192B50954095309521953F4F4F4F5F4F27
:10563000089590958095709561957F4F8F4F9F4FFE
:1056400008950E94562BA59F900DB49F900DA49F86
:10565000800D911D11240895B7FF0C94212B0E94F9
:10566000212B821B930B0895A1E21A2EAA1BBB1BB0
:10567000FD010DC0AA1FBB1FEE1FFF1FA217B3071E
:10568000E407F50720F0A21BB30BE40BF50B661F34
:10569000771F881F991F1A9469F7609570958095F8
:1056A00090959B01AC01BD01CF010895A29FB0016F
:1056B000B39FC001A39F700D811D1124911DB29F46
:1056C000700D811D1124911D0895991B79E004C06E
:1056D000991F961708F0961B881F7A95C9F7809531
:1056E000089587FB082E062687FD819567FD619545
:1056F0000E94652B0EF4919507FC81950895AA1BD5
:10570000BB1B51E107C0AA1FBB1FA617B70710F0AC
:10571000A61BB70B881F991F5A95A9F780959095DE
:10572000BC01CD01089597FB072E16F4009407D015
:1057300077FD09D00E947F2B07FC05D03EF49095A1
:1057400081959F4F0895709561957F4F0895EE0F55
:0E575000FF1F0590F491E02D0994F894FFCF0F
:10575E00FFFFFFFF00E1000000000000100100004D
:10576E00000100000000C180810000000000000068
:10577E00F407890815080A085B081908370800009D
:10578E0000009509C707CE0ECD0E7800486F6C64E9
:0C579E00204120546F20437261667400AB
:00000001FF
