:100000000C9493100C94BB100C94BB100C94BB106C
:100010000C94BB100C94BB100C94BB100C94BB1034
:100020000C94BB100C94BB100C94BF2F0C942E306E
:100030000C94BB100C94BB100C94BB100C94BB1014
:100040000C94BB100C94BB100C94BB100C94BB1004
:100050000C94BB100C94BB100C94BB100C9460322D
:100060000C94BB100C94BB100C94BB100C94BB10E4
:100070000C94BB100C94BB100C94BB100C94BB10D4
:100080000C94BB100C94BB100C94BB100C94BB10C4
:100090000C94BB100C94BB100C94BB100C94BB10B4
:1000A0000C94BB100C94BB100C94BB100608C0E061
:1000B000E6FE7EFE19160E000C19191EFF1E081012
:1000C000303838747C7C4E7E5EFEFEFE7F7F7F7E05
:1000D0007E7E7E7E3C3C383838383C7EFB111C1ED0
:1000E0002112131E0FFF18081018585C747C7CFC3A
:1000F000FC5E5F5F5C5C587870706060607078EC8C
:100100001D120B1C15FF1408101010101010386869
:1001100078787F7E7C78703030307CEE170B1C1640
:100120001318FF0B083C183C18183C3C5AC3E7A5B1
:1001300016190C1D1E0F1CFF0C08DC8EDBBFFFFF09
:10014000FE7C787060F0100B18111E19191E12FF3A
:100150000808183C6C2C0C1728280D1C0B211013B8
:100160001D12FF0508081C1C08141D0B1C0E13187B
:100170000FFF1008082C341C1C3838383838381C4D
:100180001C1C1C080F0F16FF04080232BFF61D0FBF
:100190000B12191C1D0FFF100810585C7AFEFF7E11
:1001A0007FFEFF3C1818183C7E111C191F1A0F1CEB
:1001B000FF0E0870C6B8A0EE7D777DAEA0A0BC474C
:1001C00038190D1E191A1F1DFF0C080E18BFE070FC
:1001D0006CF06CA03F180E0D1C0B0CFF0C08183CAB
:1001E0006AFFFFFFFF7E3C18183C1016191F180EFF
:1001F0000F1CFF0C0838549C1C3E1F3C3C08081C7C
:10020000140D0B1E10131D12FF0C0804263A3E3E5F
:100210007E7E3E1C1C3E7F0C0B1D1DFF0A08081C29
:10022000143C3F1E1C3C081C1E1C191F1EFF080806
:100230001068FEFFFC7EFFD50C0F1E0BFF040808A4
:100240001C081C171318181921FF0808302838102B
:1002500038387C6C111F1A1A23FF080810302878D0
:10026000383810381119160E10131D12FF080878AF
:10027000E4CACDC1E5791E08081E35514FB0997EFC
:100280003908086098A44A52251906070840A6A90B
:1002900095452D120608C0E0E6FE7EFE19160E00FA
:1002A0000C19191EFF1E0810303838747C7C4E7EE5
:1002B0005EFEFEFE7F7F7F7E7E7E7E7E3C3C38380B
:1002C00038383C7EFB111C1E2112131E0FFF18082C
:1002D0001018585C747C7CFCFC5E5F5F5C5C58783A
:1002E00070706060607078EC1D120B1C15FF1408B4
:1002F000101010101010386878787F7E7C7870307D
:1003000030307CEE170B1C161318FF0B083C183C02
:1003100018183C3C5AC3E7A516190C1D1E0F1CFFEC
:100320000C08DC8EDBBFFFFFFE7C787060F0100BEA
:1003300018111E19191E12FF0808183C6C2C0C17F6
:1003400028280D1C0B2110131D12FF0508081C1C6A
:1003500008141D0B1C0E13180FFF1008082C341C5A
:100360001C3838383838381C1C1C1C080F0F16FF76
:1003700004080232BFF61D0F0B12191C1D0FFF10CF
:100380000810585C7AFEFF7E7FFEFF3C1818183C70
:100390007E111C191F1A0F1CFF0E0870C6B8A0EEA4
:1003A0007D777DAEA0A0BC4738190D1E191A1F1D00
:1003B000FF0C080E18BFE0706CF06CA03F180E0D1B
:1003C0001C0B0CFF0C08183C6AFFFFFFFF7E3C185B
:1003D000183C1016191F180E0F1CFF0C0838549CDF
:1003E0001C3E1F3C3C08081C140D0B1E10131D1254
:1003F000FF0C0804263A3E3E7E7E3E1C1C3E7F0CCF
:100400000B1D1DFF0A08081C143C3F1E1C3C081C49
:100410001E1C191F1EFF08081068FEFFFC7EFFD57A
:100420000C0F1E0BFF0408081C081C1713181819C2
:1004300021FF08083028381038387C6C111F1A1A30
:1004400023FF080810302878383810381119160E94
:1004500010131D12FF12191F1C1DFF0B0E20130D70
:100460000FFF1D0F1616FF0C1F23FF190B1C1DFF7E
:100470000D081C0808080808081C1C1C1C1C081A6D
:100480001C19001A19160FFF0F080C0C0C0C7C5CC1
:100490007424640406040404061D121C13171AFFB6
:1004A000111C1F0CFF20131D131E2A0D131E2305E4
:1004B0000226110B170F1D271011FF140B150F002B
:1004C00010131D120F1D2A1E120F00190D0F0B18ED
:1004D000000B1E00181311121EFF1D19170F00101C
:1004E000131D12000B1C0F2A191816230013182AAB
:1004F0000E0F0F1A00210B1E0F1CFF0AFF09FF0829
:10050000FF07FF06FF05FF04FF03FF02FF161800A9
:1005100000000000000000000000000000000000DB
:10052000000000000000008040A854080480C4C4FB
:10053000C4C4C4444C4C98F8F060000004020502A6
:100540000404040505050506060303010101000076
:10055000000000000000000000000000000000009B
:10056000000000000000000080E0F8FEFEFEFEFE3D
:10057000FEFEFEFEFEFEFEFEFCFCF8F0607E7F7FCF
:100580007F7F7F7F7F7F7F7F7F7F7F7F3F1F1F0FEB
:100590000F07000000000000000000000000000045
:1005A0000000000000000000000000008050A810C3
:1005B0000800888888888888989830F0E0C0000013
:1005C00008050A050808080B0B0B0B0D0D060602A3
:1005D0000303010000000000000000000000000014
:1005E00000000000000000000000000000C0F0FC5F
:1005F000FCFCFCFCFCFCFCFCFCFCFCFCF8F8F0E06B
:10060000C07C7F7F7F7F7F7F7F7F7F7F7F7F7F7FBC
:100610007F3F3F1F0F0704000000000000000000A4
:10062000000000606000000000000000000080800A
:1006300080A8948883850D8E8F0C0F020C0C98F87F
:10064000F06000000501050105040404040404062B
:10065000060303010101000000000000000000F09B
:10066000F8F8F8F8F8F8F0F0C0808000000000C05A
:10067000C0E0F8FEFEFFFFFFFFFFFFFFFFFFFEFEF3
:10068000FCFCF8F0607F7F7F7F7F7F7F7F7F7F7FB5
:100690007F7F7F7F3F1F1F0F0F07000000000000BC
:1006A00000000000000000C0C000000000000000CA
:1006B000000000008050A810060A1A1C1E181E8494
:1006C000981830F0E0C0000008050A05080808087E
:1006D0000808080C000E70626303010000000000AF
:1006E000000000E0F0F0F0F0F0F0E0E0800000004A
:1006F0000000000000C0F0FCFCFFFFFFFFFFFFFF59
:10070000FFFFFDFDF9F8F0E0C07C7F7F7F7F7F7FFA
:100710007F7F7F7F7F7F7FFFFFFFFFFF0F07040447
:1007200008163F1A1A163F1A1A5000B00164025AEE
:1007300002030014005000B00154024A02010004F8
:10074000003002200343023D02020003006001B0BA
:100750000138022E02020004000000200128021CC1
:10076000020F0019000000200117020902140028DE
:1007700000000040000102F3010A002800300220BE
:1007800003EA01DC011400280030022003D701C96C
:100790000105002D0060022003C101B1016400C801
:1007A0000060022003A90197013200FA00300260C4
:1007B000028E0188010100040030022003840172CE
:1007C0000114006400300260026A01630101000448
:1007D00000000040005A015001040008006002209F
:1007E00003460138010A001E0030022003300123B5
:1007F000010A001E00600220031C0106015000AA2D
:1008000000600220030001E6006400C800600220CE
:1008100003DD00BD00B400FA006001B001B400AC1B
:100820000001000A0000170101000005020808038A
:100830000036001701000000050105080200500005
:100840001700010000060306040300400017010022
:100850000000031E040804005000170101010003FA
:100860000E050A050036030B010100000A19040CED
:100870000501320C14010100000A0F070C050148A4
:100880000017000001000814080C0400320A1000D0
:100890000101000219040C0300460C1700010100BD
:1008A0000150070E080046001700000101040A0766
:1008B0001006003E030C00010000080408040100BB
:1008C000320017000101000608031004003C040B6D
:1008D00000010100080207050200400009010100B3
:1008E0000004140808060042001700000100042854
:1008F000090C0701440017000001000450070B0514
:100900000050040A000001010364061407014B00B3
:100910000E0000000102C805180801500D17000064
:10092000000101FA081E08015F1E1E000000000001
:100930000008060300401008FFD5ABD5FF001F1FBD
:100940001818FFFF0003FFFF552000001CE2020201
:1009500002023CC000000000000000000000000097
:1009600000000038C404040418E000000000000087
:10097000FE010101FE0000000000000000E0101078
:10098000E000000000000000000080C0A02020A0C7
:10099000C000000000000000000000000000006037
:1009A00090080807000000000304048242223C2053
:1009B0002020202040800080404146784080000F69
:1009C000301008844223F20C00FF008080804040F9
:1009D0004080FF00007F808060100C040201010055
:1009E000000101010100010102040C1A6282047875
:1009F000201008F00000010101010EF00000007F4E
:100A0000C000001C22221E00803CC201001C2242A9
:100A1000427E8201C0204285083040FF00007F8175
:100A200000182A4A4A4844FF000038483FFEFCFCB0
:100A3000F8F8F8F0F0F0F0F0F0F0F0F0F8F8F8FC7A
:100A4000FCFE3FC000049A610000000000000000AE
:100A5000017E808080710E04040404020100010202
:100A60000304040404040404030000000003040459
:100A70001F2020201F0102020202020103060404BB
:100A800002020101030B0B2B33B7B7F7F777578738
:100A900093133B3B2B0900000001010000000708F5
:100AA00000000C32020000006CFEFFF76200000044
:100AB00000300000000060F0F8F060000808F7E186
:100AC000C2C6C6C2E1F7F7E3E5E5E5E5E3F70E10D8
:100AD00000000000804020904824120905024824AC
:100AE00012090402010000000000000000000000E4
:100AF00080C0E0F0783C1E0F0702783C1E0F070311
:100B0000010000000000000000C0209048241414E0
:100B10001414244890A0473806010000000000008B
:100B20000000000000C0E0F0783C1C1C1C1C3C785D
:100B3000F0E07F3F0701000000000000000000001F
:100B400000000000000000000080788679060000A8
:100B500000000000000000FF00FF00000000000097
:100B6000000000000080F8FE7F060000000000008A
:100B7000000000FFFFFF00000D10F82442E181E1BA
:100B8000E1C101010306FC08152A68C1191D1E1EDA
:100B90001E9CE01FF8FCFEFFFFFFFFFFFFFFFFFEB4
:100BA000FC081D3F7FFFFFFFFFFFFFFFFF1F08083F
:100BB000F7E1C2C6C6C2E1F7F7E3E5E5E5E5E3F72D
:100BC0000E10000000008040209048241209050209
:100BD0004824120904020100000000000000000087
:100BE000000080C0E0F0783C1E0F0702783C1E0F2A
:100BF0000703010000000000000000C0209048240E
:100C000014141414244890A0473806010000000072
:100C100000000000000000C0E0F0783C1C1C1C1C20
:100C20003C78F0E07F3F070100000000000000007A
:100C300000000000000000000000008078867906B7
:100C4000000000000000000000FF00FF00000000A6
:100C50000000000000000080F8FE7F060000000099
:100C60000000000000FFFFFF00000E107884020D5E
:100C7000CD9D9DFDEDCDED4A24D8000C13EC1E1E3C
:100C80001E1D1BC32122150878FCFEFFFFFFFFFF7E
:100C9000FFFFFFFEFCD8000C1FFFFFFFFFFFFFFF61
:100CA0003F3F1D080108090903080F050F0F050F35
:100CB00003080F05070F05078B02810277026D02FB
:100CC0001A08007E425A5A7E425E7E425A427E5244
:100CD0005A4A7E42525A7E425A627E0008081E35A7
:100CE000514FB0997E3908086098A44A52251906D8
:100CF0000B083C183C18183C3C5AC3E7A508087878
:100D0000E4CACDC1E5791E0408163F1A1A163F1A27
:100D10001A0C1F23001A1C131719000C0B131E00AA
:100D200010191CFF0C1C13181100170F001E121CA9
:100D30000F0F2A16190C1D1E0F1C1D000B180E007C
:100D40001300211316162A1D0F16160023191F0053
:100D500018130D0F000C0B131EFF1915FF030807C6
:100D60000707111800F00C0201E1E181E1E181E3E4
:100D700002FC00000000FF0050B041E37BFAFAF3F0
:100D800071A84718E0800203020302030203020372
:100D9000030303020202031D0F1E0010131D121392
:100DA00018110017190E0F2A0D0B1D1F0B16FF0C23
:100DB0001C13181100170F0010191F1C000C191913
:100DC0001E1D2A10191C000B00180F2100210B23D7
:100DD0002A1E190010131D12FF1D0F1E0010131DD7
:100DE000121318110017190E0F2A1A1C19FF1915C2
:100DF000FF03080707070608C0E0E6FE7EFE11189D
:100E0000007088049AFDED8DFDED8DEDFD9A04884E
:100E100070F008B57AF9FBF367C50507E363F17471
:100E20000BF00302020302030203020203020302A5
:100E3000030203F608120804F8041223191F001213
:100E40000B200F001819000C0B131E29FF000000C7
:100E500001020003001D0B200F0E001915FF1D10CD
:100E600022FF1D10220025FF0408163F1A1A163F04
:100E70001A1A17230010131D12FF080878E4CACDB0
:100E8000C1E5791E08081E35514FB0997E39080812
:100E90006098A44A52251906070840A6A995452D31
:100EA000120308070707230F1DFF1819FF1D0B204A
:100EB0000FFF0E0F160F1E0FFF1C0F0B161623FF32
:100EC000050802060E060202060E0602080C0E0CAB
:100ED00008080C0E0C080408011505035000B001A9
:100EE0004C044204030014005000B0013C043204DE
:100EF00001000400300220032B042504020003003B
:100F00006001B0012004160402000400000020016A
:100F1000100404040F00190000002001FF03F10376
:100F20001400280000004000E903DB030A00280049
:100F300030022003D203C40314002800300220032F
:100F4000BF03B10305002D0060022003A90399032C
:100F50006400C8006002200391037F033200FA009E
:100F600030026002760370030100040030022003A7
:100F70006C035A03140064003002600252034B03F6
:100F80000100040000004000420338030400080090
:100F9000600220032E0320030A001E0030022003FB
:100FA00018030B030A001E00600220030403EE0274
:100FB0005000AA0060022003E802CE026400C800CC
:100FC00060022003C502A502B400FA006001B0016E
:100FD0009C02940201000A000C0F1D1E00160F183F
:100FE000111E12000D17FF0D1F1C1C0F181E0012E2
:100FF0000B1F16FF08087EE7E78181E7E77E0808F8
:10100000F7E1C2C6C6C2E1F7F7E3E5E5E5E5E3F7D8
:101010000E100000000080402090482412090502B4
:101020004824120904020100000000000000000032
:10103000000080C0E0F0783C1E0F0702783C1E0FD5
:101040000703010000000000000000C020904824B9
:1010500014141414244890A047380601000000001E
:1010600000000000000000C0E0F0783C1C1C1C1CCC
:101070003C78F0E07F3F0701000000000000000026
:101080000000000000000000000000807886790663
:10109000000000000000000000FF00FF0000000052
:1010A0000000000000000080F8FE7F060000000045
:1010B0000000000000FFFFFF000025FF0D17FF10DC
:1010C000106050D04C82DA19C1814141C102FC004C
:1010D00000000000037C0323A38303017E010000C2
:1010E000006070F0FCFEFEFFFFFFFFFFFFFEFC0054
:1010F00000000000037F7FFFFFFFFF7F7F010000F4
:1011000000C0A0A09804B432820282828204F80057
:101110000000000106798786072726827D020100EC
:1011200000C0E0E0F8FCFCFEFEFEFEFEFEFCF80067
:101130000000000107FFFFFFFFFFFFFFFF030100AB
:10114000000040B008840242626242028408B0405B
:1011500000000001027D0383830303037D0201007D
:10116000000040F0F8FCFEFEFEFEFEFEFCF8F04043
:1011700000000001037FFFFFFFFFFF7F7F030100EF
:10118000000040B008840232323232028408B0409B
:10119000000000011E60970407878407F80601001D
:1011A000000040F0F8FCFEFEFEFEFEFEFCF8F04003
:1011B000000000011F7FFFFFFFFFFFFFFF0701008F
:1011C00000006050D04C82DA19C1814141C102FC5B
:1011D0000000000000730C03838303037114050AED
:1011E00004006070F0FCFEFEFFFFFFFFFFFFFEFC4F
:1011F0000000000000737FFFFFFFFF7F7F1F0F0EC7
:10120000046050D04C82DA19C1814141C102FC0016
:10121000000000102B541303838303017E010000A0
:10122000006070F0FCFEFEFFFFFFFFFFFFFEFC0012
:10123000000000103B7F7FFFFFFFFF7F7F0100006A
:10124000000040B008840242626242028408B0405A
:1012500000000001027D0383830303036916090074
:10126000000040F0F8FCFEFEFEFEFEFEFCF8F04042
:1012700000000001037FFFFFFFFFFF7F7F1F0900CA
:1012800000006050D04C82DA19C1814141C102FC9A
:10129000000000000877080B83830303710C030030
:1012A00000006070F0FCFEFEFFFFFFFFFFFFFEFC92
:1012B00000000000087F7FFFFFFFFF7F7F0F03001C
:1012C0000040B008040232323232020408B040005A
:1012D00000000106788704070704877806010000EC
:1012E0000040F0F8FCFEFEFEFEFEFEFCF8F04000C2
:1012F000000001077FFFFFFFFFFFFF7F07010000E6
:101300000040B008040232323232020408B0400019
:1013100000000106788704070704870806013C30AF
:101320000040F0F8FCFEFEFEFEFEFEFCF8F0400081
:10133000000001077FFFFFFFFFFFFF3F373D7E7C7F
:101340003840B008040232323232020408B04000A1
:101350000000010678870C03030C87780601000063
:101360000040F0F8FCFEFEFEFEFEFEFCF8F0400041
:10137000000001077FFFFFFFFFFFFF7F0701000065
:1013800000670462045B045504E60CA0040100DC61
:101390000C9904030088047F04C80070046B049057
:1013A000011D0F1616000B16160010131D1200104B
:1013B000191CFF13000B170018191E000C1F231314
:1013C00018112A1E12191D0F000C19191E1DFF23BA
:1013D000191F00120B200F0018190010131D122ADC
:1013E0001E19001D0F1616FF1915FF030807070722
:1013F0000408163F1A1A163F1A1A1F1D0F101F163F
:10140000000B0E20130D0F0010191CFF031E960079
:1014100000DA04BB04A50423191F001518192100C4
:101420000B1616FF191A0F1800050B172A1E1900A4
:1014300017130E181311121EFF111800000CFCFCDC
:10144000FEF6DE1EDEF6FEFCFC0C0000F0F8FE7F71
:101450007F7D7BF3EBD3EBD5EBF7FE78F00307064C
:1014600003070307000303030303030203030E1030
:1014700003F37353D351F65671D35373F303FCFD47
:10148000FDFDFDE1DDDDE1FDFDFDFDFC1010FFFFDB
:10149000FFFFFFFFFFFFFFFFFFFFFFFFFFFFFFFF5C
:1014A000FFFFFFFFFFFFFFFFFFFFFFFFFFFFFFFF4C
:1014B000FBF7FFFFFFFFFFBFFFBFFFFFFFFFFFFFC8
:1014C000FFFBF7FBFFFFFFFFFFFFFFFDFFFF8F7736
:1014D00077F7EB752B15A146AE4EA752A95FFEC557
:1014E0009A3CBA3C9AC5FAC14E9F5E9FCEE1FF017D
:1014F0000000383C3C3C3C3C3C38000001FFBF80D5
:101500008080808080808080808C8C8080BFFFF78E
:10151000BDFFFFF65FFFFF6FFDFFBFFFFEF7FEFFA2
:10152000BBFFFFF7BFFFFBFFDFF77FFFDFFBFFFF27
:10153000FFFFFFFF7FB7ABCDF55EF5DFFEDBFFFF03
:10154000FFFFFFFFE7D6DABABD6FFDB7FE6FFFFF03
:1015500000FFFFFFFFFFFFFFFFFFFFFFFFFFFFFF9A
:10156000F8E6E9C3DBC3DBC3DBC3DBC3DBC3FFFFDD
:10157000FFFFFFFFFFFFFFFFFFFFFF00FFFFDBC3DA
:10158000DBC3DBC3DBC3DBC3DBE1E6F8FFFFFFFF4D
:101590001FE7F7FBFBFBFBFBFBFBFBFBFBFBFFFF87
:1015A00000FFFFFFFFFFFFFFFFFFFFFFFFFFFBFB52
:1015B000FBFBFBFBFBFBFBFBFBF7E71FFFFFFFFF5F
:1015C000FFFFFFFFFFFFFFFFFFFFFF00FFFFFFFF2A
:1015D000FFFFFFFFFFFFFFFFFFFFFF00FFFFFFFF1A
:1015E000FFFFFFFFFFFFFFFFFFFFFF00FFFFFFFF0A
:1015F00000FFFFFFFFFFFFFFFFFFFFFFFFFFFFFFFA
:1016000000FFFFFFFFFFFFFFFFFFFFFFFFFFFBFBF1
:10161000FBFBFBFBFBFBFBFBFBFBFBFBFBFBFFFF12
:10162000FFFFFFFFFFFFFFFFFFFFFFFFFFFFFFFFCA
:10163000FFFFFFFFFFFFFFFFFFFFFFFFFFFFDBC31A
:10164000DBC3DBC3DBC3DBC3DBC3DBC3DBC301FD4A
:10165000F5FDFD01FDF5FDFD01FDF5FDFD01C0DF21
:101660009F97DFC0DF9F97DFC0DF9F97DFC0FFFF3F
:1016700000FFFFFFF7FBF7FFFFFFFBFDFBFFFFFF97
:10168000F8E7EFDFDFDFDFDFDFDDDEDDDFDFFFFFFE
:10169000F7FBF7FFFFF7FBF7FFFFFF00FFFFDFDFC1
:1016A000DDDEDDDFDFDFDFDFDFEFE7F8FFFFFFFF9E
:1016B0001F073783DBC3DBC3DBC3DBC3DBC3FFFF36
:1016C00000FEFFFFEFF7EFFFFFFFFFFDFEFDDBC3B7
:1016D0005BC3DBC3DBC3DBC3BB07E71FFFFFFFFE4F
:1016E000FFFEFFFFFFEFF7EFFFFFFE00FFFFFFFF33
:1016F000DFEFDFFFFFFFFFFFFFF7FBF7FFFFFFFF5E
:10170000BFDFBFFFFFFFFFF7FBF7FFFFFFFF00009B
:101710002010200000000000000804080000000065
:101720004020400000000008040800000000FFFF07
:101730007FBF7FFFFFFFFFFFFFF7FBF7FFFFDFDF4D
:10174000DFDFDFDFDFDFDFDBDDDBDFDFDFDFDBC3D3
:101750005BC3DBC3DBC3DBC3DBC3DBC3DBC3FFFEBA
:10176000FFFEFFFFFFEFF7EFFFFFFFFFFFFFFFFFB2
:1017700000FFFFF7FBF7FFFFFFFFFF7FFFFFFFFF0C
:1017800000FFFFFFEFF7EFFFFFFFFEFFFEFFFFFF92
:101790007FFFFFFFFFFFF7FBF7FFFF00FFFFFFFEED
:1017A000FFFEFFFFFFEFF7EFFFFFFF00FFFFFFFF71
:1017B000FFFFFFFFBFDFBFFFFFFFFFFBFDFBFFEFF3
:1017C000F7EFFFFFFFFFFFFFFBFDFB3FDFDFFFFF4B
:1017D000FF7FBFCDF7FFFFFFFFFF3FCFF7FFFFFF0B
:1017E000FFFEFFF7EFFFBFDFFFFFFCF3FFFFFAAFE6
:1017F000FD837DFEFF87FDFFFFFFFFEFFFFF7EDB29
:101800007EF71FEEF17FDEF7FFFFFFFFFEFF000018
:101810000000000000000000020C00047FFF000038
:101820000000000C000000102204080810FCFF7FDC
:101830003C10282000000000000000000000FC1800
:101840000808040000000000000000000000000084
:101850000000000000000000000000000000C0C008
:10186000E0D0C0C0C0A0100181F0C08080C00303E0
:101870000703010123170F0F0F0F132101030000AE
:101880000002020000000000000000000000000054
:101890000000000000000004040001070B0300002A
:1018A0000000000000000000000000000000030332
:1018B0000601000000000000000000000000000021
:1018C0000000000000000000000000000000000018
:1018D0000000000000000000000000000000000008
:1018E0000000000000000020100080E0D080000018
:1018F0000000000000000000000000000000C0C068
:10190000E0800000000000000000000000001F8FC9
:1019100047F7FBF3F1FDFDFBFBF777EF1FFFFEFC45
:10192000D9AA51A2058305A355AAD9FCFEFF7FBF02
:101930005FA75FBB5DFDFDFD5DFDFBF7EF1FE0C237
:10194000C58A950A172F158AC7CBD7CBE5F8FF00B4
:10195000FFFF00DBDBDBDBDBDBDBDBDBDB00FF807C
:10196000BFBF80B6B6B6969696B6B2B6B68000DB66
:10197000DBDBDBDBDB5B5BDBDB00FFFF00FF80B681
:10198000B6B6B6B6B6B6B6B69680BFBF80FFFE0195
:1019900001018101010179C97901010101FD9F0066
:1019A000808003858888888780808080801FFDFDF7
:1019B000055555ADFD0555757D0DD5D50D7D1F9F83
:1019C0009F9F9D919D9F939D939F9B95951F05D54F
:1019D00095457D657D6555555535FDFD01FE119B90
:1019E000959F9197979F91959F1F9F9F009FFFFFA6
:1019F00000FFFFF7FBF7FFFFFFFFFFFBFDFBFFFF14
:101A0000F8E7EFDFDFDFDFDFDFDFDDDEDDDFFFF782
:101A1000FBF7FFFFFFFFF7FBF7FFFF00FFFFDFDF35
:101A2000DFDDDEDDDFDFDFDFDFEFE7F8FFFFFFFF1A
:101A30001F073783DBC3DBC3DBC3DBC3DBC3FFFFB2
:101A400000FEFFFFEFF7EFFFFFFFFDFEFDFFDBC333
:101A5000DB43DBC3DBC3DBC3BB07E71FFFFFFFFFCA
:101A6000FEFFFEFFFFFFEFF7EFFFFE00FFFFFFFFB0
:101A7000FFDFEFDFFFFFFFFFF7FBF7FFFFFFFFFFDA
:101A8000FFBFDFBFFFFFFFFFF7FBF7FFFFFF0020F8
:101A90001020000000000000080408000000000002
:101AA0000040204000000000080408000000FF7F04
:101AB000BF7FFFFFFFFFFFFFF7FBF7FFFFFFDFDF4A
:101AC000DFDFDFDFDFDFDFDFDBDDDBDFDFDFDBC350
:101AD000DB43DBC3DBC3DBC3DBC3DBC3DBC3FFFF36
:101AE000FEFFFEFFFFFFEFF7EFFFFFFFFFFFFFFF30
:101AF00000FFFFFFF7FBF7FFFFFF7FBF7FFFFFFF49
:101B000000FFFFEFF7EFFFFFFFFFFFFFFFFFFFFF0C
:101B1000FF7FFFFFFFF7FBF7FFFFFF00FFFFFFFF68
:101B2000FEFFFEFFFFFFEFF7EFFFFF00FFFFFFFFEE
:101B3000FFFFFFFFDFEFDFFFFFFFFBFDFBFFFFFF0F
:101B4000EFF7EFFFFFFFFFFFFFFBFD3BDFDFFFFFD7
:101B5000FF7FBFCDF7FFFFFFFFFF3FCFF7FFFFFF87
:101B6000FFFEFFF7EFFFBFDFFFFFFCF3FFFFFAAF62
:101B7000FD837DFEC7BDFFFFFFFFFFF7FFFF7EDB9D
:101B80007EF79F6EF573FFBED7FFFFFFFDFF1414B6
:101B9000131823221E1E231E1E1E1E1E1E1E221E64
:101BA0001E1E1E1E2128292A221E221E1E1E1E1E29
:101BB0001E221313131313141414141414131313D5
:101BC0001804040404040404040024242424242405
:101BD0002424040426032724040404040404040421
:101BE0001B131313131314141414141415151510B4
:101BF00004040404040400000000000101000000CB
:101C00000000040202020104000400040404041B96
:101C1000131313131314141414141420250404049C
:101C200004040404000001000000000000000000A3
:101C300000010001010004000000000404041B1363
:101C4000131313131414141414141C0000000404AC
:101C50000404040000000000000000000000000078
:101C6000000000000000000000000504041B131326
:101C70001313131314141414141C00000000000098
:101C80000000000000000000000100000000000053
:101C90001116161225000100000504041B1313136E
:101CA00013131313141414141C000100000000007B
:101CB000000000010000000000000000010000170B
:101CC00013131825000000000504041B131313133D
:101CD000131313131414141C00000000111616160D
:101CE00016161616161616161612000100001713F1
:101CF000191025000000240504041B1313131313EB
:101D00001313131314141C000000001713131313E0
:101D1000131313131313131318000000000F1510DF
:101D20002500000000240504041B131313131313D0
:101D300013131314141C00000000171313131313B0
:101D400013131414141413180000000000000000F2
:101D500000000000000504041B13131313080C09F2
:101D6000131314141C000000021713080C0C0913A1
:101D700013141414141318000000010000000000D4
:101D8000000400040404041B131313130B010A13AF
:101D90001314141C000002020E0E0E00010A13138D
:101DA00014141414131804000000000000000000B4
:101DB0000000240504041B131313130B010A13134F
:101DC00014141C000000021713060D0D0713131343
:101DD0001313131318040400000001000000000096
:101DE00000240504041B131313130B010A1313140B
:101DF000141C0000010017131313131313131313F0
:101E00001313131804040000002424000000000130
:101E1000040404040E1313130E0E010A13131414F6
:101E200020000000001713141414131313131313BA
:101E30001915100404040000000000010000000057
:101E40000404041B131313130B010A131314141C9F
:101E50000000000017131414141313131313131892
:101E60000404040400000000000000240000250514
:101E700004041B131313130B010A131314141C0073
:101E80000004041713141414131915151515100450
:101E90000000000000000000000000000024050415
:101EA000041B131313130B250A131314141C000023
:101EB0000404171314141413180404040404040071
:101EC00001010000000000000000002424050404BB
:101ED0001B13131313060D07131314141C00000413
:101EE000041713131313131804000000000000005C
:101EF0000000000000010000000000040404041BB6
:101F000013131313131313131314141C00000004DE
:101F10000F15151515151004000000000000000035
:101F200000000000000000002424040404041B132B
:101F300013131313131313131414220001000000BE
:101F40000000000404040400000000000000000180
:101F5000000000000000000000010404041B131333
:101F6000131313131313131414250000000000019E
:101F70000100000000040000000000000101012435
:101F80000000000000000100240504041B131313CB
:101F900013131313131414142525211F1F1F1F1FA0
:101FA0001F1F1F1F1F1F211F1F1F1F1F1F1F1F1F3F
:101FB0001F1F1F1F1F1F1F1F1F1F1F201313131360
:101FC00013141414141414080B0002020200000964
:101FD0000400000102020000052400100105240194
:101FE00001010424020605240600010705810310EF
:101FF000004009040100020A000000070502024037
:1020000000000705830240000004030904120100D8
:1020100002EF020140412336800001010203014129
:10202000726475696E6F204C4C43004142413131FE
:102030003036008D14A1C881CFD9F102AF07060553
:10204000040100080A0B0C0D0901FF49200B0509CA
:10205000050705050503050105FF04FD04FB040F45
:102060000F0F0FF0F0F0F004080F6F4F0F2F264006
:102070004786B4B400085252120E2E2E0008AAAAA7
:10208000000064646100464669006A6A2E600B6B5A
:10209000F003D6A06E00E7C707006D6B00006A2A48
:1020A00008404A22280E707E0E087737088639B914
:1020B00086B672B4D67FB7DFEFFF47FBFF190D0F6F
:1020C0000B180010131D1200120B1E0F0021191CFB
:1020D000171DFF190D1E191A1F1D001E1919FF21AA
:1020E0000B1C18131811001D120B1C151D29FF12B3
:1020F0000F161A000B1E000D131E23050226110BCE
:10210000170F1D271E0C1922FF1E12131D00131D71
:10211000001723001D1A191E28000C0B0D1500199D
:10212000101029FFC53211241FBECFEFDAE0DEBF49
:10213000CDBF11E0A0E0B1E0E6E7FEE602C0059009
:102140000D92A633B107D9F727E0A6E3B1E001C0AD
:102150001D92A133B207E1F710E1C3E9D0E104C059
:102160002197FE010E943337C239D107C9F70E9477
:10217000EF330C9439370C940000480F592F511D40
:102180001416150684F5803891056CF597FF02C08A
:1021900090E080E04138510514F040E850E0481BE1
:1021A000FB01E770FF2721E001C0220FEA95EAF763
:1021B00077FF02C0695F7F4FFB0133E0F595E7953C
:1021C0003A95E1F7F695FE2FEE27F795E795E80F9C
:1021D000F91FE450FE4F415030F08191DF0111971B
:1021E000822B8C93F8CF0895FC018091FB0188230A
:1021F00011F13FB7F89482E08093E9002091F2005A
:10220000822F90E01816190614F481E090E08823DC
:1022100039F0289844E64093FA014091F100408358
:10222000222339F02091F200211103C02BE62093E4
:10223000E8003FBF08958FEF9FEF08952FB7F89400
:1022400083E08093E9009091E800892F807295FFE8
:1022500004C09091F20080E4891B2FBF0895809103
:10226000F20181110DC082E08093EE0184E0809341
:10227000EF011092F1011092F00181E08093F201E0
:102280008EEE91E00895A3E5B1E02FB7F8947D912B
:102290008D919C9166B52FBFA89B05C06F3F18F428
:1022A0007F5F8F4F9F4F22E0660F771F881F991F18
:1022B0002A95D1F708954091DD015091DE012091DA
:1022C000DB013091DC0142175307B4F49091E80030
:1022D0009570E1F39091E80092FD19C08093F100B0
:1022E0008091DD019091DE0101968F739927892BF2
:1022F00019F48EEF8093E8008091DD019091DE016A
:1023000001969093DE018093DD0181E0089580E0E5
:102310000895EF92FF920F931F93CF93DF93F82EC0
:10232000192FE62E042F81E0860F880F0E945B1183
:1023300083E00E945B11CF2DD12FEC0EFD2EF11CFE
:10234000CE15DF05B9F007FF13C0FE0184910E948E
:102350005B11182F80E00E945B118123219681116F
:10236000EFCFDF91CF911F910F91FF90EF900895E4
:102370008881EDCF81E0F5CFDF92EF92FF920F934E
:102380001F93CF93DF93D82E8A01EB017B01E40EDC
:10239000F51ECE15DF0559F0D7FE12C0FE0184915F
:1023A0000E945B1121968111F4CF0FEF1FEFC8013E
:1023B000DF91CF911F910F91FF90EF90DF900895E3
:1023C0008881EECF0F931F93CF93DF931F92CDB7EA
:1023D000DEB782E0898342E450E067EC7FE180E889
:1023E0000E94BC110E942F11DC0112960D911C91CC
:1023F0000115110589F0D801ED91FC910280F3815E
:10240000E02DBE016F5F7F4FC801099597FD04C0A5
:10241000F80100851185ECCF89810F90DF91CF9174
:102420001F910F910895615030F02091F100FC014F
:1024300020830196F8CF289884E68093FA010895C6
:10244000CF93DF931F92CDB7DEB76983DC01ED91A7
:10245000FC910280F381E02D41E050E0BE016F5F0E
:102460007F4F09950F90DF91CF91089583E080937E
:10247000E9008091F200882319F08AE38093E80054
:1024800008950E941E1190E00895CF93DF931F924C
:10249000CDB7DEB7FC018485958597FD08C02FEF89
:1024A0003FEF358724870F90DF91CF910895CE01BC
:1024B00001960E94F410019719F4898190E0F3CFFE
:1024C0008FEF9FEFF0CF0F931F93CF93DF931F9268
:1024D000CDB7DEB78C01FC018485958597FF0BC0D5
:1024E000CE0101960E94F410019771F4898190E069
:1024F000F80195878487F801848595850F90DF9191
:10250000CF911F910F9108958FEF9FEFF1CFFC01B5
:102510008485958597FD0BC09FB7F89482E08093E2
:10252000E9008091F2009FBF90E0019608959FB767
:10253000F89482E08093E9008091F2009FBF90E0E0
:1025400008958FB18095807F669B88601C9B846016
:1025500008951092DA013E98579808953E9A579A36
:1025600081E08093DA0108959091EC01982329F499
:102570009091ED01982381E009F480E00895CF93D4
:10258000C82F0E94A112982F9C2381E09C1380E009
:10259000CF910895CF93460F572F511D77FF02C05B
:1025A00070E060E030E1FA014134510514F0E0E4FC
:1025B000F0E06E177F07D4F480389105A0F4FB019A
:1025C000C1E0E1FDC4E0E0FDCC0FE2FDC295E87F93
:1025D0003E9FD0011124A80FA450BE4F0C900C2A8E
:1025E00020FF0C260C926F5F7F4FDDCFCF910895B7
:1025F000EF92FF920F931F93CF93DF937C018B0198
:10260000C42FD22F6034710510F40E94BD10B801A0
:102610006D0F711D615071096034710520F44C2FEC
:10262000C7010E94BD1021E04D2FB801C7010E94D3
:10263000CA12C7018C0F911D21E04D2FB8010197DF
:10264000DF91CF911F910F91FF90EF900C94CA12E0
:10265000CF92DF92EF92FF920F931F93CF93DF936E
:10266000122FE0902B07F0902C07E60EF71EC0917A
:102670002907D0912A07C80FD91F6E01C40ED11C9B
:10268000CC15DD0544F4202F412FB701CE010E9467
:10269000CA122196F5CFDF91CF911F910F91FF9034
:1026A000EF90DF90CF90089577FF02C0615F7F4F7A
:1026B00024E0759567952A95E1F72FE2269FF001B2
:1026C000279FF00D11249C0197FF02C0215F3F4F0F
:1026D00084E0359527958A95E1F7E20FF31FE257DD
:1026E000F44E8491089580916401909165016CE3AA
:1026F00070E00E940B37655081E0603108F080E0A7
:10270000089584E00E94B412882361F080EA93E186
:1027100090930301809302018FE693E2909301016D
:1027200080930001089581E08093EB0180E4809321
:1027300090008FE19EE49093990080939800089513
:10274000CF93DF9380E80E94B412882349F0C091B0
:102750005F010E949313CC2351F1C150C0935F01DC
:1027600080E10E94B412882351F0C0915F01D0E053
:102770002196C370DD270E949313C0935F0188E008
:102780000E94B412882381F080915F01811111C0F1
:102790008BE594E190930301809302018FE894E22A
:1027A0009093010180930001DF91CF910895C3E0E0
:1027B000D5CF813049F48DEC99E19093030180935A
:1027C000020180E094E2ECCF823059F41092610172
:1027D00084E194E190930301809302018EE993E2F6
:1027E000DFCF81E893E1909303018093020183E6B8
:1027F00093E2D6CF82E08093EB0180E48093900057
:1028000083EF91E0909399008093980008958EE073
:102810008093EB0180E4809390008FE097E29093A7
:102820009900809398000895CF93DF9384E00E94ED
:10283000B412882361F080EA93E1909303018093BE
:1028400002018FE693E29093010180930001D09101
:10285000D801ED2F0D2E000CFF0BE45FFB4EC49151
:1028600080916101811124C088E00E94B412882304
:10287000F9F0D330CCF480916A0190916B01EC2F88
:10288000F0E08E179F0780F08E1B9F0B90936B01DB
:1028900080936A01DF5FD093D80181E0809361016A
:1028A000DF91CF910C94FA13DF91CF910C94071420
:1028B000DF91CF910895CF93DF9384E00E94B4120B
:1028C000882361F080EA93E19093030180930201F1
:1028D0008FE693E2909301018093000180E10E94D2
:1028E000B412882351F0C0916001D0E02196C370EA
:1028F000DD270E949313C093600180E80E94B41208
:10290000882349F0C09160010E949313CC23B9F051
:10291000C150C093600188E00E94B412882309F47A
:102920006BC080916001813019F158F08230A9F1BB
:10293000833009F447C0DF91CF910C94FA13C3E0C0
:10294000E8CF20916A0130916B012115310509F41E
:102950004FC080916701833608F04AC02150310989
:1029600030936B0120936A018F5F80936701E3CFFF
:1029700020916A0130916B0123303105C8F18091BB
:1029800068018336A8F52350310930936B012093F9
:102990006A018F5F80936801CECF80916A01909128
:1029A0006B01883C910520F12091D501211120C0B7
:1029B000885C910990936B0180936A0181E0809318
:1029C000D501B9CF80916A0190916B01803921E0E6
:1029D000920770F02091D60121110AC080599140D0
:1029E00090936B0180936A0181E08093D601A3CF1D
:1029F000DF91CF910C940714DF91CF910895FC01E2
:102A0000222379F1758364835783468371836083BE
:102A100053834283808526813781A481B581A6179F
:102A2000B70719F424173507D1F06A1B7B0B421B3B
:102A3000530B9B0177FF04C022273327261B370B3C
:102A4000CA0157FF04C088279927841B950B82175A
:102A50009307D4F4872F8095881F8827881F808745
:102A600008952081318182819381A481B581A2174B
:102A7000B30729F4A681B781A817B90739F23583BE
:102A8000248397838683C2CF82E057FDE8CF83E01B
:102A9000E6CFFC01E45AFF4F208121502083211111
:102AA00012C0339620EB36E13183208332961182B7
:102AB000108232962DE43CE1318320838B599F4F65
:102AC000FC01118210820895CF92DF92EF92FF9263
:102AD0000F931F93CF93DF93EC0188E00E94BF1206
:102AE000811175C06D857E856C5F7F4F8B859C8560
:102AF00004960E9454138F508E01015A1F4FBE013D
:102B00006F597F4FAE014D595F4FDE01AB59BF4F3B
:102B10008D3008F051C01F86E9A90E2E000CFF0B66
:102B2000EE59FE4F84818150848338858D859E8542
:102B3000CB84DC84EA81FB81E880F980CE14DF0459
:102B400019F48E179F07D1F0CE18DF088E1B9F0B4C
:102B50007601D7FE04C0EE24FF24EC18FD08FC012A
:102B600097FF04C0EE27FF27E81BF90BEE15FF05C2
:102B7000F4F43D2D3095331F3327331F388784EF0E
:102B80009CE2F80191838083FB011182108289E429
:102B90009EE1FA01918380831D921C92DF91CF9177
:102BA0001F910F91FF90EF90DF90CF90089532E04A
:102BB00097FDE4CF33E0E2CF80EB96E1F80191831B
:102BC0008083FB01118210828DE49CE1E2CF80E1E1
:102BD0000E94BF12882329F08D859E8502969E87CC
:102BE0008D8780E80E94BF12882329F08D859E85FD
:102BF00002979E878D8780E20E94BF12882329F06A
:102C00008B859C8502979C878B8780E40E94BF12EE
:102C1000882329F08B859C8502969C878B878091E1
:102C2000D50181112CC08D859E852A813B81A9010A
:102C3000495E5F4FB9016F5071098617970714F409
:102C4000C90140974817590714F4C90148969E874F
:102C50008D8728813981A901495E5F4F8B859C85CD
:102C6000B9016F5071098617970714F4C90140978D
:102C70004817590714F4C90148969C878B878B85A0
:102C80009C85813EF2E09F0714F080EE92E097FF72
:102C900002C090E080E09C878B878D859E85893679
:102CA00021E0920714F088E691E097FF02C090E0DF
:102CB00080E09E878D8772CF0F931F93CF93DF9312
:102CC000EC0180E10E94B412882341F08B898331AA
:102CD0000CF042C08F5F8B8B0E94931380E80E94A0
:102CE000B412882339F08B891816C4F581508B8B68
:102CF0000E94931380E40E94B412811105C080E207
:102D00000E94B412882359F00C8910E00F5F1F4F06
:102D1000017011270E9493130C8B0E94931384E07F
:102D20000E94B412882399F0FE01E15AFF4F80EB14
:102D300096E19183808332961182108232968DE4DF
:102D40009CE191838083CB59DF4F19821882DF91F8
:102D5000CF911F910F91089583E1BDCF80E0C7CF40
:102D6000EF92FF920F931F93CF93DF93EC0188E0D4
:102D70000E94BF12882309F447C0E9A90E2E000C57
:102D8000FF0BEE59FE4F84818823A9F18885880FB7
:102D9000990BFC01ED5CF14F44918C5C914FFC016F
:102DA000849128813981240F311D47FD3A953C8754
:102DB0002B872A813B81280F311D87FD3A953E875D
:102DC0002D87FE01E15AFF4F84E695E191838083D0
:102DD000329611821082329687EB9EE19183808336
:102DE000CB59DF4F19821882DF91CF911F910F913C
:102DF000FF90EF90089582E380935E018BE39EE065
:102E000090935D0180935C0184E00E94B41288235A
:102E100081F01A8A198AFE01E15AFF4F81EF99E287
:102E200091838083329611821082329682E492E2FC
:102E3000D5CF08811981EA80FB8080E10E94BF1212
:102E4000882319F0F2E0EF0EF11C80E80E94BF1217
:102E5000882319F082E0E81AF10880E20E94BF128C
:102E6000882311F00250110980E40E94BF128823C8
:102E700011F00E5F1F4F20E0A701B801CE010E94A4
:102E8000FF146A817B81625F7F4F888199810896F8
:102E90000E9454132C813D818F3030F03983288378
:102EA0008E819F819B838A83888199818217930772
:102EB00059F481E04A815B812E813F81421753079B
:102EC00009F480E0898790CF81E0FCCF0F931F93B6
:102ED000CF93DF93EC0160FD38C080915A018823C5
:102EE000A1F080915B01811110C08091110190913E
:102EF00012012091A2063091A306232B09F05CC099
:102F0000019690931201809311018091110190918B
:102F100012018153924021E08733910508F420E0AB
:102F200020935B01C79708F442C00091A20610915C
:102F3000A3060F5F1F4F017011270E949313109378
:102F4000A3060093A20610925A0180915B01882388
:102F500071F160911101709112018091A20690911E
:102F6000A306019759F5685F7F4F21E049EC50E0D7
:102F7000CE010E94FF1481E08887FE01E159FF4FD6
:102F8000DE01A959BF4F8D919D910D90BC91A02D4F
:102F900080839183A283B3833C96CD58DF4F888191
:102FA0009981AA81BB8180839183A283B383DF91BE
:102FB000CF911F910F9108950197A3CF21E049EC84
:102FC00050E0CE010E94FF141886D7CFCF93DF9335
:102FD000EC0184E00E94B4128823E9F0FE01E1597B
:102FE000FF4FDE01A959BF4F8D919D910D90BC916E
:102FF000A02D80839183A283B3833C96CD58DF4F6D
:1030000088819981AA81BB8180839183A283B383C4
:10301000DF91CF910895C091620188E00E94B412BF
:10302000C11116C08823A1F38091A9019091AA0132
:10303000843091054CF004979093AA018093A901E4
:1030400081E080936201E4CFDF91CF910C9407146B
:103050008823F1F28091630191E0892780936301D5
:10306000D7CFCF93DF93EC0184E00E94B412882382
:10307000E9F0FE01E159FF4FDE01A959BF4F8D91E3
:103080009D910D90BC91A02D80839183A283B383E9
:103090003C96CD58DF4F88819981AA81BB8180837E
:1030A0009183A283B383DF91CF910895C091D7011B
:1030B00088E00E94B412C11116C08823A1F3809148
:1030C000A1019091A201833091054CF00397909358
:1030D000A2018093A10181E08093D701E4CFDF9129
:1030E000CF910C9407148823F1F220916A0130915A
:1030F0006B012A30310598F380916901833678F7A6
:103100002A50310930936B0120936A018F5F8093BD
:103110006901DF91CF910C94FA131F93CF93DF9342
:10312000EC01162F84E00E94B412E0910201F091AC
:103130000301882361F183E1E03AF80741F54A8110
:103140005B81405F5F4F6881798120E0CE010E9402
:10315000FF14FE01E159FF4FDE01A959BF4F8D91C8
:103160009D910D90BC91A02D80839183A283B38308
:103170003C96CD58DF4F88819981AA81BB8180839D
:103180009183A283B383DF91CF911F910895812F03
:10319000DF91CF911F9109940F93DC01ED91FC9188
:1031A000DF011F96A617B707BCF0620F711D27FD40
:1031B0007A95E617F70784F4FC0122813381C9016F
:1031C0000F968417950744F0400F511D07FD5A953F
:1031D00081E0241735070CF080E00F910895FC0181
:1031E000E054F1094E175F0784F0805C9F4F84170D
:1031F00095075CF0CB0180972817390734F0605EA3
:103200007F4F81E0621773070CF480E00895FC01A2
:10321000E158FF4F20812F5F2083283791F470976A
:1032200029EC3AE2318320833296118210823A9659
:1032300028E337E23183208383589F4FFC011182BA
:10324000108208956C33A1F4FC01E159FF4F27E08F
:1032500039E1318320833296118210823A9629E235
:103260003FE13183208383589F4FFC0111821082FC
:103270000895DB018C93282F082E000C330B4DE0B2
:103280008402C00111248B5D974FFC01449111967B
:103290004C9311973196E4911296EC931297FC019E
:1032A0003296E4911396EC931397FC013396E491D4
:1032B0001496EC931497FC013496E4911596EC93D4
:1032C0001597FC013596E4911696EC931697FC0140
:1032D0003696E4911796EC931797FC013796E49194
:1032E0001896EC931897FC013896E4915A96EC9353
:1032F0005A97FC013996E4915B96EC935B97FC013D
:103300003A96E4911996EC931997FC013B96E49157
:1033100041E0E13009F040E01A964C931A970C9680
:10332000FC0184911B968C931B974CE0429FC0013B
:10333000439F900D1124875D984FFC012591349196
:103340001D963C932E931C97FC0132962591349147
:103350001F963C932E931E97FC0134962591349131
:1033600057963C932E935697FC01369625913491AF
:1033700059963C932E935897FC013896E491F0E0CF
:103380005196FC93EE935097FC013A96E491F0E04D
:103390005396FC93EE9352970895EF92FF920F93FA
:1033A0001F93CF93DF93CDB7DEB76C970FB6F8942A
:1033B000DEBF0FBECDBF84E00E94B412882361F04F
:1033C00080EA93E190930301809302018FE693E2F8
:1033D000909301018093000188E00E94B412882339
:1033E00009F43FC081E8E82E81E0F82E10E000E00B
:1033F000BE016F5F7F4F802F0E943919111108C0E5
:1034000011E0F70180819181181619060CF010E087
:10341000F701219131917F014985429FC001439F6E
:10342000900D112420916A0130916B01820F931F3E
:1034300090936B0180936A013297118210820F5F23
:103440000431B1F611110E94FA1380EA93E19093CE
:103450000301809302018FE693E290930101809330
:1034600000016C960FB6F894DEBF0FBECDBFDF91A2
:10347000CF911F910F91FF90EF9008952F923F925F
:103480004F925F926F927F928F929F92AF92BF9274
:10349000CF92DF92EF92FF920F931F93CF93DF9320
:1034A00000D000D000D0CDB7DEB71901CD82CA2C34
:1034B0004115510509F4BAC11FEF5E2C8112512C40
:1034C000FA01F491F983FA013196E4911981A12F5F
:1034D000B0E03D01680E791E161417040CF0A6C169
:1034E000803891050CF0A2C1A62E062E000CBB0858
:1034F00095012E0F311D121613060CF097C1603482
:103500000CF094C14E5F5F4F01111A01DE2ED6946C
:10351000D694D694E770FF24F394E11101C0F12C06
:10352000ED2DEF0DFF27FF1FEA9F4001EB9F900C51
:10353000FA9F900C1124EE20C1F0589CF001599C88
:10354000F00D112491012E0F3F1FE89C2001E99CF2
:10355000500C1124440D551D002351F02E0F3F1F18
:10356000440D551D280D391D03C091010111FACFDD
:10357000B7FE03C0B194A194B108FA2DF7709F2E45
:10358000E62E67FF03C077E0E72EE60EE594E594AC
:10359000E59467FF06C0992021F0EA94E8E0E91974
:1035A0009E2EEE27FF27E81BF90B97FD02C0F0E0E7
:1035B000E0E000E8802E881A00E8601671040CF440
:1035C00089808E1AAE2C0E2C000CBB081FEF0A2D22
:1035D0000095E1160CF000E0FD0CAF0CB11C79E099
:1035E000A716B1041CF018E0F12EFE18F01AE00E38
:1035F000DE2C1E2D70E8170350011124A80EB91EF1
:1036000025014E0E5F1E7981709F80011124E00F0D
:10361000F11F4E0F5F1F2E0F3F1F7D8171707C8346
:103620007D8170FF14C0A82CB12CF50131974E0F8D
:103630005F1F2E0F3F1FFD01EA19FB0997FF03C013
:10364000F195E195F1094E0F5F1F2E0F3F1F8D8100
:1036500082708B839D8191FF18C08F2D8150990BB3
:10366000FC01EA9FC001EB9F900DFA9F900D112481
:10367000480F591F280F391F67FF07C01195019583
:103680001109400F511F200F311F092D092C000C6B
:10369000110B1A8309833D01660C771C71946194A8
:1036A00071080E2D0F0DA82CB12C7D01EA18FB0816
:1036B000AA0EBB1E0D1509F4B9C0D201A450BE4F0D
:1036C00010E0811609F49AC0FA0164918FEF90E03E
:1036D0002114310419F0F901849190E0CC2011F00B
:1036E000609568237B81772309F445C06295E62FB6
:1036F000F0E0BF0175956795759567956373EE0F5B
:10370000FF1FEE0FFF1FEC7C6E2B70E0FB01F595A9
:10371000E795E575660F771F6A7A6E2BFC0174E0FA
:10372000EE0FFF1F7A95E1F7FF2774E096958795D6
:103730007A95E1F7E82BF92BCF0196958795969529
:103740008795837399279E838D83CF01880F991F57
:10375000880F991F8C7C9927ED81FE818E2B9F2BE2
:10376000FC01F695E795E575FF27880F991F8A7A82
:1037700099278E2B9F2B70E0098002C0660F771F60
:103780000A94E2F7F2E0CF121AC0D7FC03C08C9182
:1037900086278C93992049F086E08D1534F0FD0141
:1037A000E058FF4F8081872780837C81772309F150
:1037B00041505109215031091F5F119682CF098074
:1037C00002C0880F991F0A94E2F780959095D7FC64
:1037D00004C0EC91E823E62BEC93992031F3E6E06A
:1037E000ED151CF3FD01E058FF4F80818923872BE5
:1037F000DBCF4F5F5F4F2F5F3F4FDECFD3948C8186
:10380000882379F04A0D5B1D2A0D3B1D9B8199236E
:1038100021F0460D571D260D371DE0E84E0E511CB8
:1038200049CF4E0D5F1D2E0D3F1DF0CF26960FB6D2
:10383000F894DEBF0FBECDBFDF91CF911F910F91E6
:10384000FF90EF90DF90CF90BF90AF909F908F90C0
:103850007F906F905F904F903F902F9008958F9240
:10386000AF92CF92EF920F93E6E2F7E03581630FCC
:103870000380F481E02D88248A94AE2CC02EE22EA1
:1038800001E030E020E08E0F9F1F0E943E1A0F9152
:10389000EF90CF90AF908F900895EF920F93DC014F
:1038A000862F18963C911897E32FEE0FFF0BE35BE2
:1038B000F14F24913196049119969C91199799236F
:1038C00041F06AE00E94FF3680FD03C0323078F498
:1038D0002F5F12966D917C911397E12C4FEB50E185
:1038E0008D919C910E942F1C0F91EF90089501E003
:1038F000F0CFEF92FF920F931F93CF93DF93EC01E2
:103900008885813009F48AC034F48823B9F000E056
:1039100010E021E020C0823009F48EC08330B9F776
:10392000AA81BB811A96E881F981633308F4319743
:1039300002E010E022E083E0F82E0DC0AA81BB81F6
:10394000E881F981633308F062C03B9701E010E041
:1039500021E045E0F42EE12C40E150E1BD01CF0132
:103960000E942F1C6A817B81012F2F2D4FEB50E18C
:10397000888199810E942F1C8091290790912A07A4
:1039800090932E0780932D0780912B0790912C0701
:103990009093300780932F0710922A0710922907DF
:1039A00010922C0710922B0700E028E046E464E315
:1039B00070E08DE190E00E94281301E026E044E4ED
:1039C00065E370E08EE190E00E94281348894695F7
:1039D00000E024E066E370E080E290E00E942813BB
:1039E00080912D0790912E0790932A0780932907A5
:1039F00080912F079091300790932C0780932B078D
:103A0000DF91CF911F910F91FF90EF9008953A971A
:103A100001E010E021E037E0F32E9DCFAA81BB81C9
:103A2000E881F981633320F43D9600E011E090CF06
:103A30003C9600E011E0EECFAA81BB811A97E881A5
:103A4000F981633338F4359601E010E022E096E026
:103A5000F92E81CF3696F8CFEF92FF920F93CF9346
:103A6000DF937C01062F0E94791CC6E2D7E08B8190
:103A70009C8198878F838D819E819A8789871C82FC
:103A80001B821E821D820170D70190968C918695B3
:103A900090E022E04CE062E370E080960E94281300
:103AA0000E94731301E00827F701E35AFF4F40819A
:103AB000469546954695D7019096EC91E6958E2FC2
:103AC00090E022E062E370E080960E9428138F81EC
:103AD00098859C838B8389859A859E838D83DF91CE
:103AE000CF910F91FF90EF9008958F92AF92CF9268
:103AF000EF920F93E6E2F7E03581630F0380F481E4
:103B0000E02D88248A94A02EC12CE22E00E030E023
:103B100020E08E0F9F1F0E943E1A0F91EF90CF90D2
:103B2000AF908F9008950F9300E020E046E359E0B6
:103B30006CE170E088E390E00E94751D0F9108959C
:103B40002F923F924F925F926F927F928F929F92AD
:103B5000AF92BF92CF92DF92EF92FF920F931F939B
:103B6000CF93DF939C01FB014C3331F49091D90149
:103B700081E0891B8093D901C0E1D0E0C901BE0179
:103B80000E941F374C01CF01BE010E941F37EE2457
:103B9000FF24E81AF90ACF01809797FD0F9644E0B9
:103BA000959587954A95E1F74FE2489FE001499F37
:103BB000D00D1124C9018054910997FD0F9624E07E
:103BC000959587952A95E1F7C80FD91F2E018BEEA1
:103BD000480E511C3CE1232E33243394AA24BB24E9
:103BE000A818B908D12CC12CCE018257944E3C01A3
:103BF000F301EC0DFD1D149181EF810F8D3028F440
:103C00008091D901829D100D11240E947313082FF9
:103C10000325212F4CE854E1B701C5010E94751D11
:103C20009FEFC91AD90A80E1A80EB11C99E0C91604
:103C3000D104F1F680E1E80EF11CAF964C165D065A
:103C400069F6DF91CF911F910F91FF90EF90DF9078
:103C5000CF90BF90AF909F908F907F906F905F902C
:103C60004F903F902F9008950F93CF93DF93EC01E7
:103C70000E94731301E008276A817B8120E04EE6F1
:103C800054E1888199810E94751DDF91CF910F9138
:103C90000895DF92EF92FF920F931F93CF93DF93DC
:103CA000EC01F62E8885813009F44CC054F4882349
:103CB000D1F068E37FEF88E39FEF00E010E020E0C1
:103CC0001CC0823009F446C0833099F76A817B8139
:103CD000665F7F4F88819981019702E010E022E0C2
:103CE00033E0D32E0AC06A817B81888199810A974B
:103CF00001E010E020E055E0D52EE12C40E150E15C
:103D00000E942F1C6A817B81012F2D2D4FEB50E1EA
:103D1000888199810E942F1C21E08EE18F1508F087
:103D200020E06D857E8502E04EEF5FE08B859C850F
:103D30000E94751DDF91CF911F910F91FF90EF9021
:103D4000DF9008956A817B81888199810A9600E0DD
:103D500011E0D0CF6A817B816A5071098881998195
:103D6000069601E010E022E046E0D42EC6CFAF92E6
:103D7000BF92CF92DF92EF92FF920F931F93CF9358
:103D8000DF93EC016A817B818881998138853130AC
:103D900009F445C034F43323A1F0F12C00E010E025
:103DA0001CC0323009F447C03330B9F75B012CE056
:103DB000A21AB1086C01FF24F39401E012E023E0A1
:103DC0000CC05B0124E0A21AB1086C012EE0C20E07
:103DD000D11CF12C00E010E024E0E12C4FEB50E18D
:103DE0000E942F1C0F2D212F40E150E1B501C6018B
:103DF0000E942F1C6D857E8500E020E044EF5FE08F
:103E00008B859C850E94751DDF91CF911F910F912D
:103E1000FF90EF90DF90CF90BF90AF9008955B013F
:103E200024E0A21AB1086C012CE0C21AD108FF24C8
:103E3000F39401E0D0CF5B012CE0A20EB11C6C0129
:103E40002FEFC21AD20A22E0F22E00E012E026E0A2
:103E5000C4CF0F9300E020E048E459E060E170E057
:103E600081E190E00E94751D0F9108954F925F923D
:103E70006F927F928F92AF92CF92EF92FF920F93B9
:103E80001F93CF93DF93182FF92E2B01FA01849102
:103E90003A01FFEF6F1A7F0AC12FDF2D8F3F81F1AB
:103EA0008A3259F4F6E04F0E511CC12FDF2DF30179
:103EB0008491FFEF6F1A7F0AF1CF482F50E055959C
:103EC000479580FD19C080E02FE530E260912B0717
:103ED000640D680F8091290790912A07812CAA24EC
:103EE000A394C12CE42E00E047E650E28C0F9D1F06
:103EF0000E943E1A2596DBCF8CEF23E630E2E6CF18
:103F0000DF91CF911F910F91FF90EF90CF90AF90E5
:103F10008F907F906F905F904F900895CF92DF9237
:103F2000EF92FF920F931F93CF93DF93FC017B01DE
:103F30008A01CA0120E0CAE0D0E0009731F02F5F8B
:103F4000BE010E940B37CB01F8CF822F220F990BB5
:103F5000019725E0289FE001299FD00D1124CE0F65
:103F6000DF1F9AE0C92ED12C0115110591F0C8016F
:103F7000B6010E940B378B01FC01EE0FFF1FE55BC2
:103F8000FF4D45915491B701CE010E94361F2597F0
:103F9000EBCFDF91CF911F910F91FF90EF90DF90CA
:103FA000CF9008954115510521F449E450E20C9455
:103FB000361F0C948E1FEF92FF920F931F93CF9397
:103FC000DF93EC016A817B816C5071098881998152
:103FD00000E026E340E30D970E9428136A817B816D
:103FE0008881998101E021E14EE20C970E9428131B
:103FF0004DA55EA56A817B816A50710988A9869565
:10400000E8E1F0E0E81BF109888199810D9700E073
:1040100020E08E0F9F1F0E94751DFE01E45AFF4F86
:1040200080818E5128E0833328F48D8929E0843102
:1040300009F42AE06A817B81E12C00E04FEB50E13A
:10404000888199810E942F1C4BA55CA56A817B8188
:104050006C5E7F4F2FA53BEF3203C001112497FD0B
:1040600001969595879528813981820F931F0B962C
:104070000E94361F8D89843109F44FC049A55AA585
:1040800015E0443651052CF413E04A3051050CF08C
:1040900014E02BEF210370011124F7FE03C03FEF62
:1040A000E31AF30AF594E79488819981E80EF91EE2
:1040B000C7010B967C016A817B81665E7F4F0E94FF
:1040C000D21F93E0199FE00CF11C11246A817B81BF
:1040D000665E7F4F4CEB50E1C70101960E94361F90
:1040E00029A53AA58FA198A528173907B1F46A81A7
:1040F0007B81665E7F4F812F110F990B880F991F6F
:104100008E0D9F1D4AEB50E10696DF91CF911F91D6
:104110000F91FF90EF900C94361FDF91CF911F917C
:104120000F91FF90EF9008952F923F924F925F92E0
:104130006F927F928F929F92AF92BF92CF92DF92B7
:10414000EF92FF920F931F93CF93DF93CDB7DEB71C
:10415000A8970FB6F894DEBF0FBECDBF6C0180915B
:10416000290790912A0790932E0780932D0780911D
:104170002B0790912C079093300780932F07109274
:104180002A071092290710922C0710922B0700E0A3
:104190002BE34CE56AE070E082E190E00E94281396
:1041A000F601848947EE5FE0882311F048ED5FE077
:1041B0006CE070E086E190E00E94361FF601838992
:1041C000082F10E0980124593E4F38A32F8F3CE070
:1041D000839FC00111243801660C771CF12CE12C5F
:1041E000B12CA12CFC01E052F14FFEA3EDA39C01E8
:1041F0002E51314F38A72FA3802FF6019389053117
:1042000008F09EC0292F092E000C330B2E5F3F4F64
:10421000201731070CF494C01801FFEF2F1A3F0A42
:10422000891B2FE0829F20011124420138E1830E77
:10423000911CA101B40186E190E00E94D21FEF8D94
:10424000F8A18191F8A3EF8F882309F46FC0EDA145
:10425000FEA1EA0DFB1D259134913AA329A3EFA1FC
:10426000F8A5EA0DFB1D859194919CA38BA3F60103
:104270008489811156C021E831E03E8F2D8FBE0127
:104280006F5F7F4F802F0E943919F601848981303A
:10429000B9F489818431A1F0ED8DFE8DEE0DFF1D05
:1042A000E60DF71D208131818B899C8928173907FC
:1042B0003CF04AEB50E1B40188E590E00E94361FE3
:1042C000B2016F5E7F4F00E020E04BA15CA18CE269
:1042D00090E00E94751DFAE14F0E511C49A15AA1B0
:1042E000B2018CE290E00E94361FF6018489813091
:1042F00019F48981843169F0ED8DFE8DEE0DFF1D7D
:10430000E60DF71D40815181B2018CE590E00E94DD
:10431000D21FFCE0AF0EB11C22E0E20EF11C8101C5
:104320006BCF8BEA91E09E8F8D8FA9CF00E020E0CC
:1043300046ED5EE0B4018CE290E00E94751DE9CF8D
:1043400019165CF4E12C00E021E040EC5EE063E152
:1043500070E086E690E00E942F1CF601838983318D
:104360005CF4E12C00E020E040EC5EE06CE370E007
:1043700086E690E00E942F1CA8960FB6F894DEBF48
:104380000FBECDBFDF91CF911F910F91FF90EF90A6
:10439000DF90CF90BF90AF909F908F907F906F9065
:1043A0005F904F903F902F900895EF92FF920F9360
:1043B000CF93DF937C01C6E2D7E08B819C81988705
:1043C0008F838D819E819A8789878AE090E09C8384
:1043D0008B831E821D8200E020E44CE270E060E0EE
:1043E00090E080E00E94281349EB5EE064E170E019
:1043F00086E090E00E94361F42EB5EE06AE170E0EA
:1044000086E090E00E94361F4DEA5EE060E270E0D8
:1044100086E090E00E94361F20E046ED5EE060E21C
:1044200070E08BE190E00E94751D4AEA5EE06CE26C
:1044300070E08AE090E00E94361F46EA5EE062E3A8
:1044400070E08AE090E00E94361FF7016289F6E092
:104450006F9FB0011124645D7F4F20E041EA5EE070
:1044600086E090E00E94751D8F8198859C838B83E8
:1044700089859A859E838D83DF91CF910F91FF90DF
:10448000EF900895EF920F93CF93DF93EC0180911B
:10449000290790912A0790932E0780932D078091EA
:1044A0002B0790912C079093300780932F078AE079
:1044B00090E090932A078093290710922C0710927E
:1044C0002B0700E020E44CE270E060E090E080E048
:1044D0000E94281320E048E95EE064E070E082E09A
:1044E00090E00E94751D20E04EE85EE064E070E020
:1044F0008CE090E00E94751D20E044E85EE064E0FE
:1045000070E086E190E00E94751D20E04AE75EE0E1
:1045100064E070E080E290E00E94751D89A92AE0C5
:104520008202C001112420E041EA5EE06EE070E00A
:1045300004960E94751D42E75EE068E170E086E047
:1045400090E00E94361F4DEA5EE06FE170E086E089
:1045500090E00E94361F8091DA014EE55EE08823EC
:1045600011F042E65EE066E270E086E090E00E94D4
:10457000361F42EB5EE06DE270E086E090E00E9464
:10458000361F698987E06802B0011124685E7F4F99
:1045900000E020E041EA5EE081E090E00E94751DCD
:1045A000E12C20E048E65EE067E370E086E090E022
:1045B0000E942F1C40916A0150916B0168E370E0EA
:1045C0008CE090E00E94D21F80912D0790912E07E1
:1045D00090932A078093290780912F0790913007A5
:1045E00090932C0780932B07DF91CF910F91EF9041
:1045F0000895EF920F93E12C00E020E04FE157E0A7
:1046000070E060E086E590E00E942F1C40916A0116
:1046100050916B0161E070E08CE590E00F91EF90BC
:104620000C94D21F0F93CF93DF93862FE09100015C
:10463000F091010109950E94F92200E020E046EE88
:104640005CE068E070E08AE390E00E94751DC2E6DD
:10465000D1E04D8150E06AE070E086E490E00E9495
:10466000D21F20E04CED5CE068E070E088E590E06F
:104670000E94751D4E8150E06AE070E084E690E093
:10468000DF91CF910F910C94D21F0F93CF93DF93B3
:10469000EC01E6E2F7E0658176816D5E7F4F838114
:1046A00094812BE249E60C960E94F81200E020E08B
:1046B000AE0162E070E084E190E00E94751DDF9140
:1046C000CF910F91089589E394E10E94452344E23C
:1046D00054E164E270E089E190E00C94361F0F939E
:1046E0001F93CF93DF9389E394E10E944523609168
:1046F0005F0189E0689FB0011124675E7F4F00E091
:1047000020E04BEE53E18AE290E00E94751D01E843
:1047100013E1C9E1D0E0F80145915491BE0180E375
:1047200090E00E94361F0E5F1F4F2996CD33D105B2
:1047300091F7DF91CF911F910F910895EF920F9311
:10474000CF9389E394E10E944523E091D8018091C1
:104750006101E33021F447E154E1882359F00E2E42
:10476000000CFF0B882379F0EE0FFF1FE15FFB4E7B
:10477000459154916EE170E084E190E0CF910F910A
:10478000EF900C94361FE45FFB4EC4914AEF53E167
:104790006EE170E084E190E00E94361FE12C00E0C1
:1047A00020E040EF53E167E270E08BE290E00E948E
:1047B0002F1C4C2F50E068E270E081E390E00E94F3
:1047C000D21F60912B0770912C076B5D7F4F8091FA
:1047D000290790912A072AE042E386960E94F81260
:1047E00020E04BEE53E162E370E086E390E00E944C
:1047F000751D48EE53E162E370E08CE390E0BECFBC
:10480000CF92DF92EF92FF920F931F93CF93DF939C
:10481000CDB7DEB76C970FB6F894DEBF0FBECDBF35
:1048200089E394E10E94452381E8E82E81E0F82E97
:1048300010E0D12CC12CBE016F5F7F4F812F0E94F1
:104840003919F701219131917F014985429FC001BA
:10485000439F900D1124C80ED91E1F5F143159F7C4
:10486000C114D10491F58091A9019091AA0143EB63
:1048700053E11816190614F04FEC53E16EE170E0A5
:1048800088E190E00E94361F00E020E04BEE53E10B
:1048900062E370E086E390E00E94751D48EE53E10C
:1048A00062E370E08CE390E00E94361F6C960FB6D6
:1048B000F894DEBF0FBECDBFDF91CF911F910F9156
:1048C000FF90EF90DF90CF90089541EA53E16EE1C1
:1048D00070E084E190E00E94361FE12C00E020E0CF
:1048E00040EF53E167E270E08BE290E00E942F1C02
:1048F000A60168E270E081E390E00E94D21F60911F
:104900002B0770912C076B5D7F4F80912907909149
:104910002A072AE042E386960E94F812B5CF6F92EA
:104920007F928F929F92AF92BF92CF92DF92EF923F
:104930000F93CF9389E394E10E94452389E8A82E41
:1049400083E1B82E96E1C92ED12CC0E0F501459146
:10495000549100E020E0B60188E190E00E94751DCE
:10496000F50132964591549146018FEF881A980AC5
:10497000B4018DE290E00E94361FF50134966590F7
:1049800074908091D501C23021F0C33021F4809120
:10499000D601811110C0E12C00E020E040EF53E18E
:1049A000B6018CE590E00E942F1CA301B40182E6C1
:1049B00090E00E94D21FCF5F86E0A80EB11C89E074
:1049C000C80ED11CC43009F0C1CF6091600189E0EC
:1049D0006802B0011124685E7F4F00E020E04BEEDA
:1049E00053E181E190E00E94751DCF910F91EF900E
:1049F000DF90CF90BF90AF909F908F907F906F90FF
:104A000008950F938EEF9DE00E94452380916201EF
:104A1000882349F08091630149ED5DE08823C9F066
:104A200047E95DE016C000E020E046EF5DE068E0A9
:104A300070E080E590E00E94751D4091A9015091C1
:104A4000AA016AE070E08CE590E00E94D21F4FEA74
:104A50005DE06CE170E081E190E00E94361F00E0D3
:104A600020E041EF5DE062E370E086E390E00E94C9
:104A7000751D4EEE5DE062E370E08CE390E00F9117
:104A80000C94361FEF920F93CF938C3331F49091A7
:104A9000570181E0891B8093570180915A01C2E040
:104AA000811101C0C0E00E94731391E0E82EE92655
:104AB00001E08091A2069091A306892B09F400E001
:104AC000209157012C0F4DE055E069EB70E080918B
:104AD0001101909112010E942F1CCF910F91EF9024
:104AE00008951F93CF93DF93162FC0911101D0919A
:104AF00012012296462F69EC70E0CE010E94A01DA3
:104B0000E6E2F7E080E490E08C1B9D0B94838383C6
:104B100087E59FEF968385838CE496E00E94341EA0
:104B200082E596E00E94341E88E596E00E94341EDD
:104B30008EE596E00E94341E84E696E00E94341EC4
:104B4000812FDF91CF911F910C944225FC010E948F
:104B50004311319728F068517C4F8F4F9F4FF9CF09
:104B6000AB01FC010E944311641775078E079F0774
:104B7000C8F3089585E090E00C94A6258F929F924B
:104B8000AF92BF92CF92DF92EF92FF920F931F935B
:104B9000CF93DF936C017B018A0180910F01882301
:104BA00009F45AC08091FB01882309F455C0809113
:104BB000E10180FF05C08091E00082608093E00009
:104BC000E801B12C8AEFA82E93E0892E2AE3922ED9
:104BD000209711F4BB20C9F10E941E11811108C059
:104BE000AA94AA20C9F181E090E00E94A625F0CF06
:104BF0008C171D0611F00CF08C2F9FB7F894809243
:104C0000E9002091E80025FD02C09FBFE1CF282FD9
:104C100030E0C21BD30BF701815020F0419140934B
:104C2000F100FACFE20EF31EBB2021F09092E800D3
:104C3000B12CEBCF8091E80085FDE7CF9092E800A2
:104C4000BB24B394209709F3F3CF5D9884E6809357
:104C5000E001101611063CF081E090E0F60193832C
:104C6000828310E000E0C801DF91CF911F910F9186
:104C7000FF90EF90DF90CF90BF90AF909F908F907C
:104C80000895FC0101900020E9F73197AF01481B1E
:104C9000590BBC018CEF95E00C94BE258F929F922E
:104CA000AF92BF920F931F93CF93DF93CDB7DEB731
:104CB000A1970FB6F894DEBF0FBECDBF19A2423048
:104CC00008F44AE08E010F5D1F4F842E912CB12C09
:104CD000A12CA50194010E94CE36E62FB901CA018C
:104CE000EA30F4F4E05DD801EE938D01232B242B00
:104CF000252B79F790E080E0109719F0CD010E9404
:104D00004126A1960FB6F894DEBF0FBECDBFDF914E
:104D1000CF911F910F91BF90AF909F908F9008956A
:104D2000E95CE1CFCF92DF92EF92FF92CF93DF93D6
:104D30006C01990FEE08FF08F7FE1FC06DE28CEFC3
:104D400095E00E942012EC0166277727CB016C19B1
:104D50007D098E099F094AE00E944E26C80FD91F7F
:104D600080E391E00E9441268C0F9D1FDF91CF913F
:104D7000FF90EF90DF90CF9008954AE0C701B60111
:104D80000E944E26EC01ECCFEF920F9382E69DE05D
:104D90000E9445238091D70141E15DE0811102C06D
:104DA00044E25DE068E170E081E190E00E94361F3E
:104DB00000E020E04DE55DE064E370E086E390E034
:104DC0000E94751D4AE55DE064E370E08CE390E0CD
:104DD0000E94361F8091D7018823B9F1E12C20E091
:104DE00047E05DE067E270E08BE290E00E942F1CFC
:104DF0004AE050E068E270E081E390E00E948E1F9C
:104E000060912B0770912C076B5D7F4F8091290774
:104E100090912A072AE042E386960E94F8120E94A7
:104E2000F92220E04DEF5CE068E070E080E590E082
:104E30000E94751D4091690150E06AE070E08CE5C8
:104E400090E00F91EF900C94D21F00E020E040EF33
:104E50005CE068E070E080E590E00E94751D4091A4
:104E6000A1015091A2016AE070E08FE590E0E9CFE6
:104E7000AF92BF92CF92DF92EF92FF920F931F9368
:104E8000CF93DF93EC01162F6A817B81603271052D
:104E900014F460E270E0613521E0720714F060E51F
:104EA00071E0888199818034910514F480E490E068
:104EB000813B32E0930714F080EB92E0412F0E9497
:104EC000A01D8881998130E020E0803491054CF06C
:104ED00020E430E0281B390B813B924014F020E99C
:104EE0003DEF4A815B8190E080E0403251054CF01B
:104EF00080E290E0841B950B4135514014F080ED29
:104F00009EEF30932A072093290790932C078093D4
:104F10002B07FAE6CF2EF6E0DF2EA2EAAA2EA6E0B5
:104F2000BA2EF601638174818A819B819B01281BC3
:104F3000390BC901CF968F379105A0F48081882362
:104F400089F001E0133308F400E0E2E0EE2ED60130
:104F500017962C9117974EE95AE011968D919C91D6
:104F60000E942F1CB8E0CB0ED11CAC14BD04C9F6B6
:104F70004CE4C42E46E0D42E5AE6E52E56E0F52E3B
:104F8000F601828193812A813B81821B930BCF960C
:104F90008F37910518F4C6010E94341EF6E0CF0E3B
:104FA000D11CEC14FD0461F780915801882311F1A4
:104FB000E12C00E020E048E75BE066E170E080E49F
:104FC00090E00E942F1C01E020E04EEC5AE066E1E8
:104FD00070E086E390E00E942F1C21E01F3108F46E
:104FE00020E002E04CEB5AE06EE170E088E290E0F5
:104FF0000E94751D8A819B81893C91052CF18091CD
:105000005901882309F1E12C00E020E04AE65CE048
:1050100066E471E080E292E00E942F1C20E040EC08
:105020005BE066E471E08CE292E00E942F1C21E0DC
:105030001F3108F420E002E04EEA5BE06BE471E02F
:1050400082E492E00E94751D812F0E94422580918A
:105050006401909165016CE370E00E940B3764502D
:10506000653178F08A819B818034910554F400E0A9
:1050700020E040EC5CE064E170E08BE791E00E94AE
:10508000751DFE01EB59FF4F20813181C9019595B6
:1050900087958C0F9D1F32970190F081E02D20FFA6
:1050A00008C0DC012D913C91E20FF31F0190F081CB
:1050B000E02D612F099580E490E090932A0780937A
:1050C000290710922C0710922B0700E029E040E4FA
:1050D00070E060E090E080E00E942813E9A9EE0F04
:1050E000FF0BE854F34F4591549120E070E060E0ED
:1050F00084E090E00E94751DE9A90E2E000CFF0BC4
:10510000EE59FE4F448150E062E070E08FE090E0A5
:105110000E94D21F80916401909165016CE370E060
:105120000E940B37D62FC62F40EB5CE06C3010F49A
:1051300048EA5CE0E12C00E020E062E070E08CE313
:1051400090E00E942F1CCC2309F46EC0CD3010F0EB
:10515000C4EFCD0F8BE2CA3008F086E24C2F50E04E
:1051600062E070E090E00E94D21FE12C00E020E0BD
:1051700044EA5CE062E070E080E390E00E942F1C73
:1051800080916401909165016CE370E00E940B379F
:1051900065E070E00E940B37462F440F440FC42F88
:1051A000C60F82E3CA3048F449E450E262E070E09E
:1051B00082E390E00E94361F87E34C2F50E062E0CC
:1051C00070E090E00E94D21F80915E01882371F10F
:1051D000815080935E0110922A0710922907109245
:1051E0002C0710922B07D0E0C0E020E045E06BE3F5
:1051F00070E0CE010E94CA122196C038D105A9F7ED
:1052000040915C0150915D016CE370E090E080E0C2
:10521000DF91CF911F910F91FF90EF90DF90CF9092
:10522000BF90AF900C94361FCCE097CFDF91CF9119
:105230001F910F91FF90EF90DF90CF90BF90AF90B4
:1052400008950F931F93CF93DF9380E490E00E9423
:1052500086368A3599F402E611E0C1E4D0E0CE0149
:105260000E948636F80181938F012196C83BD105B3
:10527000B1F7DF91CF911F910F91089510926201C4
:105280001092630180EC93E0909365018093640138
:1052900010926601109267011092680110926901E4
:1052A0008AE090E090936B0180936A011092D5019F
:1052B0001092D6011092D7011092D801ECE6F1E0DD
:1052C000A1E8B1E011921D921D9299961C921E9236
:1052D000989781E0E138F807A9F7CBCFFF920F93B9
:1052E0001F93CF93DF93EC01F62E08811981C8013B
:1052F0000E948636F81621F06F2DC8010E948E3666
:10530000CE01DF91CF911F910F91FF9008950F93E0
:105310001F93CF93DF9300D0CDB7DEB78C0184E02D
:105320000E94B4128823C9F0F801E15AFF4F80EBC4
:1053300096E19183808332961182108232968DE4B9
:105340009CE1918380833296118210820F900F909E
:10535000DF91CF911F910F91089580E10E94B412C7
:10536000882319F081E0F801828B80E80E94B41252
:10537000882311F0F801128A88E00E94B412882371
:1053800029F3F8018289882379F280E490E09A83F6
:10539000898360E0CE0101960E946E2981E490E04D
:1053A0009A83898360E0CE0101960E946E290E9453
:1053B00021290E94212920E040E151E060E971E0CB
:1053C000C8010E94FF14F80111AA138A1092A306C3
:1053D0001092A20680E392E0909312018093110153
:1053E000A4CFCF92DF92EF92FF920F931F93CF93B0
:1053F000DF9300D0CDB7DEB78C0184E00E94B412F9
:10540000882371F0F801E15AFF4F80EB96E1918318
:10541000808332961182108232968DE49CE179C0AD
:1054200080E10E94B412882369F0F801E188F12C30
:10543000FFEFEF1AFF0A83E0E822FF240E94931394
:10544000F801E18A80E80E94B412882359F0F8013B
:10545000F1880E9493138FEF8F0DF11001C083E04C
:10546000F801818B80E40E94B412882369F0F8016E
:10547000E1A8F12CFFEFEF1AFF0A83E0E822FF24F6
:105480000E949313F801E1AA80E20E94B4128823DB
:1054900059F0F801F1A80E9493138FEF8F0DF110CE
:1054A00001C083E0F80181AB88E00E94B412882338
:1054B00039F0F8018189813091F16CF48823E9F0A9
:1054C0000F900F90DF91CF911F910F91FF90EF9070
:1054D000DF90CF900895823009F447C0833081F780
:1054E000E15AFF4F87E899E29183808332961182D7
:1054F0001082329685ED91E20CC0E15AFF4F8CE5A7
:1055000096E191838083329611821082329684E9EB
:1055100090E291838083329611821082D1CF6AE526
:1055200080E490E00E948E3682E6C82E81E0D82E7C
:1055300091E4E92EF12CFA82E982F60161916F0182
:10554000CE0101960E946E29FFEFEF1AFF0A88EB49
:10555000E816F10481F78AE580935E0185E59EE017
:1055600090935D0180935C014DCF8091DA01882397
:1055700069F00E94A9126091DA0182E090E09A83BA
:105580008983CE0101960E946E299ACF0E94AE12A5
:10559000F2CF4F925F926F927F92AF92BF92CF9273
:1055A000DF92EF92FF920F931F93CF93DF93EC0163
:1055B0006C3349F4FC01E058FF4F80818F5F8130EC
:1055C00009F4B0C08083FE01EF59FF4F2081318183
:1055D000C901959587958C0F9D1F32970190F08199
:1055E000E02D20FF08C0DC012D913C91E20FF31F5C
:1055F0000190F081E02D0995CA80DB80A880B980F8
:1056000026E130E040E450E0B601C5010E94EF1809
:10561000182F20E0882361F06E817F8126E130E041
:1056200040E450E08C819D810E94EF1821E0282702
:1056300080916401909165016CE370E00E940B37EA
:10564000062F112321F010915801111108C02223B7
:1056500029F011E08CEF800F873008F010E01093F4
:10566000580126E431E040E252E0B601C5010E9453
:10567000EF18882381F06E817F8126E431E040E2DB
:1056800052E08C819D810E94EF18F0905901F11039
:105690000DC091E08927F0906201F11007C08823C6
:1056A00029F00551043010F4F0908001F092590176
:1056B000B5E1CB16D1040CF051C0B601C501089676
:1056C0000E945413833009F049C080916401909185
:1056D00065016CE370E00E940B3764506531B0F5F2
:1056E000FE01E159FF4F8DE898E191838083329666
:1056F000118210823A9682E193E291838083C358AB
:10570000DF4F19821882DF91CF911F910F91FF9087
:10571000EF90DF90CF90BF90AF907F906F905F90B1
:105720004F900895108280916401909165010296D6
:10573000803A25E0920729F09093650180936401F7
:1057400042CF10926501109264013DCF8C819D8102
:10575000998388838E819F819B838A83888520910A
:10576000A2063091A306232BA9F5823079F480910B
:105770001101909112010497288139812817390766
:105780002CF08A819B81893B91058CF5112309F4CA
:1057900045C000E120E146E150E060E470E0CE0168
:1057A0000E94CC188823D1F18C819D8199838883B4
:1057B0008E819F819B838A83FE01E159FF4F81E3A4
:1057C00098E1918380833296118210823A9684EC1C
:1057D00096E293CF8230D1F680911101909112011F
:1057E000049628813981821793075CF6CFCF809188
:1057F000D601882359F281E080935A0110925B010F
:10580000FE01E159FF4F86E697E19183808332964E
:10581000118210823A9681E795E26FCFFF2009F15D
:1058200000E120E146E451E060E272E0CE010E9436
:10583000CC188823B1F08C819D81998388838E81D7
:105840009F819B838A83FE01E159FF4F86EE97E19A
:10585000918380833296118210823A9681E095E29C
:105860004CCF2AE6E22E26E0F22E32EAA32E36E0D4
:10587000B32E48E6442E55245394612C712CF70125
:10588000C380D480018112816A817B819601A80145
:10589000888199810E94EF188823C1F16E817F81F0
:1058A0009601A8018C819D810E94EF1881112EC064
:1058B000D7018C9181112EC00E94731314E08111C5
:1058C00001C011E00E942E36212F30E050E040E070
:1058D0000E949C3621E0611571058105910509F052
:1058E00020E0F7012083672B682B692B79F40E9455
:1058F0002E36A30192010E949C3660517F4F8F4F3C
:105900009F4FD70116967C936E931597F701808170
:105910008823C9F0D70115968D919C9116979C010B
:105920002150310916963C932E931597029741E02A
:105930000D9708F040E0F701478381E0232B09F43D
:1059400080E0D7018C93F70143815481618172819A
:1059500008E028E0CE010E94CC18882379F0D70116
:105960008C91882349F0809166018E3F28F48F5FE7
:10597000809366010E94FA13F7011082F8E0EF0E9F
:10598000F11CAE14BF0409F07ACF8CE4E82E86E057
:10599000F82E9AE6C92E96E0D92E18E7D70112966E
:1059A0004D915C9113976D917C9106E02CE0CE01B6
:1059B0000E94CC18882389F08C819D8199838883EB
:1059C0008E819F819B838A83F701848195811093C7
:1059D0005E0190935D0180935C01F6E0EF0EF11C97
:1059E000CE14DF04D9F68FCE8F929F92AF92BF92E2
:1059F000CF92DF92EF92FF920F931F93CF93DF939B
:105A0000CDB7DEB76C970FB6F894DEBF0FBECDBF33
:105A10008C01F62E84E00E94B412882329F1F8014B
:105A2000E15AFF4F80EB96E1918380833296118299
:105A3000108232968DE49CE19183808332961182AC
:105A400010826C960FB6F894DEBF0FBECDBFDF910B
:105A5000CF911F910F91FF90EF90DF90CF90BF906B
:105A6000AF909F908F9008955CE3E52EFE10E9CFF4
:105A7000D8011F968C911F978F5F1F968C931F974D
:105A80008A3069F21D966D917C911E976C5F7F4FF5
:105A90001B968D919C9104960E94541388248394A4
:105AA000843109F0812CA12CC12CB12C4CE3E42EC3
:105AB000F12CBE016F5F7F4F8B2D0E9439198B85B2
:105AC000881609F496C0912C83E391E00E94412648
:105AD000692D70E090E080E04AE00E944E2680E36D
