:100000000C9431100C9459100C9459100C945910F4
:100010000C9459100C9459100C9459100C945910BC
:100020000C9459100C9459100C94DA1A0C94491B26
:100030000C9459100C9459100C9459100C9459109C
:100040000C9459100C9459100C9459100C9459108C
:100050000C9459100C9459100C9459100C947B1D4D
:100060000C9459100C9459100C9459100C9459106C
:100070000C9459100C9459100C9459100C9459105C
:100080000C94C51D0C9459100C9459100C945910D3
:100090000C9459100C9459100C9459100C9459103C
:1000A0000C9459100C9459100C9459101109001407
:1000B00000020000110901150003000011090216D9
:1000C00000040000150901170004010115090718B3
:1000D000000401021709001900040102110F011A9E
:1000E00001040201110F051B01040202150F031C7C
:1000F00001040203170F041E02060302170F071E56
:1001000002060302170F001E02050303170F011E4C
:1001100002050303170F011E02040304170F031E39
:1001200002040304170F071E02040304170F001E26
:1001300002040304170F021E02040304170F011E1A
:10014000020403041B0F0128030704021B0F0728E6
:10015000030704021B0F0028030704021B0F0128DA
:10016000030704021B0F0428030604031B0F0128C6
:10017000030604031B0F0728030604031B0F0028B4
:10018000030604031B0F0128030504041B0F0328A7
:10019000030504041D0F0132050A06021D0F073274
:1001A000050A06021D0F0032050A06021D0F013264
:1001B000050A06021D0F0532050906031D0F01324F
:1001C000050906031D0F0732050906031D0F00323E
:1001D000050906031D0F0132050806041D0F023232
:1001E000050806041F0F013C060E07011F0F073C00
:1001F000060E07011F0F043C060D07021F0F013CEE
:10020000060C07031F0F033C060B07041F0F013CDE
:10021000060A07051F0F073C071002001F0F003ECC
:10022000071002001F0F0540071002001F0F0142B8
:10023000071002001F0F014607100200F1015000D5
:1002400000002000E703500000002000CE0750000F
:1002500000002000E703500000002000A60450002A
:1002600000002000E904500000002000E7035000D7
:10027000000020007803500000002000F101500031
:1002800000002000E703500000002000CE075000CF
:1002900000002000E703500000002000A6045000EA
:1002A00000002000E904500000002000E703500097
:1002B000000020007803500000002000B90050002A
:1002C00000002000B900500000002000B9005000DC
:1002D00000009000740150000000200074016000D4
:1002E00000001000EA026000000080006E00500074
:1002F000000090007C005000000090003405500089
:1003000000002000EA02500000002000E703500037
:10031000000020003405500000002000E9045000D7
:1003200000009000E703500000009000AC03500074
:1003300000009000E703500000009000EA02600116
:10034000000060009602500000002000EA02500009
:1003500000002000500250000000200071025000F8
:1003600000002000F101B00000003000D305B00013
:1003700000003000BA01B00000003000D305B0002A
:1003800000003000E703500000002000E7035000A9
:1003900000002000E70350000000900034055000EA
:1003A00000002000EA02500000002000E703500097
:1003B000000020003405500000002000E904600027
:1003C00000008000E703600000008000AC035000E4
:1003D00000009000E703500000009000EA02600176
:1003E000000060009602500000002000EA02500069
:1003F0000000200050025000000020007102500058
:1004000000002000F101B00000003000D305B00072
:1004100000003000BA01B00000003000D305B00089
:1004200000003000E703500000002000E703500008
:1004300000002000E7035000000090003405500049
:1004400000002000EA02500000002000E7035000F6
:10045000000020003405500000002000E904500096
:1004600000009000E703500000009000AC03500033
:1004700000009000E703500000009000EA026001D5
:10048000000060009602600000001000EA026000B8
:1004900000001000500250000000200071025000C7
:1004A00000002000F101B00000003000D305B000D2
:1004B00000003000BA01B00000003000D305B000E9
:1004C00000003000E703500000002000E703500068
:1004D00000002000E70350000000900034055000A9
:1004E00000002000EA02500000002000E703500056
:1004F000000020003405500000002000E9045000F6
:1005000000009000AC03500000002000E703500002
:10051000000020009602500000002000EA02500077
:100520000000200071025000000090009602500070
:1005300000002000960250000000200096025000AB
:100540000000900071025000000020007102500075
:10055000000020007102500000009000F1015000E6
:1005600000009000F101500000007001BA0160002D
:1005700000001000D401600000001000F101B00084
:10058000008000000000003E5B4F5B3E3E6B4F6B07
:100590003E1C3E7C3E1C183C7E3C181C577D571C64
:1005A0001C5E7F5E1C00183C1800FFE7C3E7FF00DD
:1005B00018241800FFE7DBE7FF30483A060E26292B
:1005C000792926407F050507407F05253F5A3CE7EE
:1005D0003C5A7F3E1C1C08081C1C3E7F14227F22B4
:1005E000145F5F005F5F06097F017F006689956A7F
:1005F000606060606094A2FFA29408047E0408100A
:10060000207E201008082A1C08081C2A08081E1032
:100610001010100C1E0C1E0C30383E3830060E3EEA
:100620000E06000000000000005F00000007000749
:1006300000147F147F14242A7F2A12231308646273
:1006400036495620500008070300001C22410000D4
:1006500041221C002A1C7F1C2A08083E0808008032
:1006600070300008080808080000606000201008CA
:1006700004023E5149453E00427F400072494949CB
:10068000462141494D331814127F102745454539FD
:100690003C4A494931412111090736494949364601
:1006A0004949291E000014000000403400000008E1
:1006B0001422411414141414004122140802015984
:1006C00009063E415D594E7C1211127C7F49494911
:1006D000363E414141227F4141413E7F49494941A6
:1006E0007F090909013E414151737F0808087F00D5
:1006F000417F41002040413F017F081422417F405B
:100700004040407F021C027F7F0408107F3E414131
:10071000413E7F090909063E4151215E7F091929A1
:1007200046264949493203017F01033F4040403F8B
:100730001F2040201F3F4038403F631408146303CC
:10074000047804036159494D43007F41414102044B
:10075000081020004141417F040201020440404052
:100760004040000307080020545478407F28444448
:10077000383844444428384444287F385454541862
:1007800000087E090218A4A49C787F08040478005D
:10079000447D40002040403D007F1028440000413F
:1007A0007F40007C047804787C0804047838444452
:1007B0004438FC1824241818242418FC7C08040449
:1007C00008485454542404043F44243C4040207CB2
:1007D0001C2040201C3C4030403C44281028444C05
:1007E0009090907C4464544C4400083641000000D2
:1007F000770000004136080002010204023C262373
:10080000263C1EA1A161123A4040207A385454552A
:1008100059215555794121545478412155547840F6
:1008200020545579400C1E5272123955555559397C
:100830005454545939555454580000457C410002D1
:10084000457D420001457C40F0292429F0F028250F
:1008500028F07C545545002054547C547C0A097F70
:100860004932494949323248484832324A48483088
:100870003A4141217A3A42402078009DA0A07D393A
:10088000444444393D4040403D3C24FF2424487EBC
:100890004943662B2FFC2F2BFF0929F620C0887EA9
:1008A000090320545479410000447D413048484AAE
:1008B00032384040227A007A0A0A727D0D19317D61
:1008C0002629292F28262929292630484D40203835
:1008D0000808080808080808382F10C8ACBA2F10F4
:1008E0002834FA00007B000008142A142222142A5B
:1008F00014089500220095AA005500AAAA55AA55E9
:10090000AA000000FF00101010FF00141414FF00D4
:100910001010FF00FF1010F010F0141414FC00145D
:1009200014F700FF0000FF00FF1414F404FC14147B
:1009300017101F10101F101F1414141F0010101078
:10094000F0000000001F101010101F10101010F009
:1009500010000000FF101010101010101010FF10E9
:10096000000000FF140000FF00FF00001F10170030
:1009700000FC04F414141710171414F404F4000009
:10098000FF00F714141414141414F700F7141414BB
:10099000171410101F101F141414F4141010F0105A
:1009A000F000001F101F0000001F14000000FC14C6
:1009B0000000F010F01010FF10FF141414FF1410BA
:1009C00010101F00000000F010FFFFFFFFFFF0F00D
:1009D000F0F0F0FFFFFF0000000000FFFF0F0F0F1F
:1009E0000F0F38444438447C2A2A3E147E02020603
:1009F00006027E027E0263554941633844443C044A
:100A0000407E201E2006027E020299A5E7A5991CC1
:100A10002A492A1C4C7201724C304A4D4D303048E4
:100A2000784830BC625A463D3E494949007E010142
:100A3000017E2A2A2A2A2A44445F444440514A44D7
:100A40004040444A51400000FF0103E080FF0000A5
:100A500008086B6B083612362436060F090F06009D
:100A60000018180000001010003040FF0101001FA6
:100A700001011E00191D1712003C3C3C3C00000007
:100A80000000F0F89C8E8783878E9CF8F00000FEB3
:100A9000FF0303030303070EFCF80000FEFF03033C
:100AA000030303070EFCF80000FFFF000000000036
:100AB0000000FFFF0000FEFF8383838383C7EE7C7B
:100AC000380000F8FC0E07030303070EFCF80000D3
:100AD0003F7FE0C08080C0E07F3FFFFF0101010158
:100AE000010101FFFF0000FFFF0C0C0C0C1C3E7706
:100AF000E3C100007FFFC0C0C0C0C0E0703F1F0066
:100B0000001F3F70E0C0C0C0E0703F1F00007FFFCB
:100B1000C1C1C1C1C1E3773E1C00001F3F70E0C0EE
:100B2000C0C0E0703F1F000000000001FFFF010097
:100B300000008D14A1C881CFD9F102AF5061737349
:100B400000506F6E74616E004F7661706500446F87
:100B5000726961004D696E766F004461686C004F88
:100B60006E696C0042616C6C6F6D002D2D2D2D47F0
:100B7000686F7374732D2D2D2D002D2D2D2D426F2B
:100B80006E757365732D2D2D2D00457667656E7915
:100B90006B7A203230323100312E3000426F6D627C
:100BA0006572626F79200041524455424F590045A9
:100BB0005647454E594B5A5A322032303231005244
:100BC000554E4E455200424F4D42455220424F59DC
:100BD000204245434F4D455300434F4E47524154E9
:100BE000554C4154494F4E5300526164697573200E
:100BF00000426F6D62732020004C6976657320207F
:100C00000047686F73742020004C6576656C202067
:100C100000412D696E666F004C6976657320004C4B
:100C20006576656C200047414D45204F5645520082
:100C30005F0140020000D0005F01E0010000B00051
:100C40005F01500000001000C002B0010000A000D1
:100C5000C002500043035000000010002D0260004D
:100C6000000060002D02300100006000A101500072
:100C70002D02500000001000A101B0000000100083
:100C8000F101C0020000C001EA02500000001000A3
:100C90007102500000001000EA02B00000001000D5
:100CA0000D02B00000001000A101E00000005000A3
:100CB000A101000100001000A101B000000010001F
:100CC000A101B00000001000A101B0000000100060
:100CD0005F0130020000D0005F01F0010000B000B1
:100CE0005F01500000001000C002B0010000A00031
:100CF000C002500043035000000010002D025000BD
:100D0000000070002D02300100005000A1016000C1
:100D10002D025000000010002D02B0000000100055
:100D2000D401B000000010007102B00000001000FB
:100D3000EA02B000000010000D02B0000000D00078
:100D40000D02E000000040002D0220000000100015
:100D50007102200000001000C002B0000000D000AE
:100D60008B00B000000010008B005000000010004D
:100D70008B005000000010008B00B000008030009D
:100D80001000400080003000400038004000380073
:100D900040003000400020004000280040002000BB
:100DA0004000180040000080000000040500000022
:100DB000090A0B080D0E0F0C11121314151617004B
:100DC000191A1B1C1D1E1F00212223242526270063
:100DD000292A2B2C2D2E2F280000000303030000AE
:100DE00003030303030303030101010101010101E3
:100DF00001010101010101010101010101010101E3
:100E0000010101010101010120002000100020006A
:100E100000002000200020003000200040002000C2
:100E200000802000400040004000300040005000A2
:100E30004000400040006000400050004000700052
:100E40004000800040000080000140009000400011
:100E500000004000800040007000400000004000A2
:100E600060004000500040000000400000004000D2
:100E7000400040003000400000800D0230010000C2
:100E80005000A101E00000004000A101500000005E
:100E90001000F101300100005000A101E00000004D
:100EA0004000A1015000000010000D0250000000A1
:100EB00010002D02500000001000500250000000F1
:100EC000100071025000000010000D0250000000E0
:100ED0007000A1015000000070007401300100009A
:100EE00060002D023001000050000D0230010000B2
:100EF0004000A101E00000005000A1015000F101FC
:100F0000300100005000A101E00000004000A101FC
:100F10005000000010007401B000000010005F01DC
:100F200040004B01400038014000740150000000B7
:100F300070008A01500000007000A101B0000000A4
:100F4000D0006800B0000080E703500000005000AF
:100F5000AC035000E7035000AC035000E70350001F
:100F6000AC035000E7035000EA02500000005000BC
:100F7000C0025000EA025000C0025000EA025000D5
:100F8000C0025000EA025000710250009602500068
:100F9000C0025000EA025000710250009602500058
:100FA000C0025000EA0250007102500000005000E0
:100FB000F101500000005000BA011001008043030D
:100FC000300071023000A101200000001000380143
:100FD000200000001000D0002000000010009C0045
:100FE00020000000100068002000000010004E00EB
:100FF000200000001000D000200000001000C400FD
:10100000200000001000B900200000001000AF0018
:10101000200000001000A500200000001000AF001C
:10102000200000001000B900200000001000C400E3
:10103000200000001000D000D00000005000D000C0
:101040006000F700500000007000F7005000000042
:101050007000D00030010080C002B000000010001D
:101060007102B00000001000AC03B00000001000DE
:10107000E703B000000010004303B0000000D00000
:101080004303E00000005000AC0320001F042000D8
:10109000000010005F04B0000000D0001601B00096
:1010A0000000100016015000000010001601500052
:1010B000000010001601B0000080FFFFFDFDFBFCEA
:1010C000F9FAF7F9F5F8F4F7F2F6F0F5EEF5ECF4D5
:1010D000EAF4E9F4E7F4E5F4E3F4E1F4DFF4DEF54F
:1010E000DCF5DAF6D8F7D6F8D4F9D3FBD1FCCFFD8E
:1010F000CDFFCB00C902C704C606FF01FE03FD05F4
:10110000FB07FA09F90BF80EF610F513F416F318AD
:10111000F11BF01FEF22EE25EC29EB2CEA30E9342D
:10112000E738E63CE540E445E249E14EE053DF586C
:10113000DD5DDC62DB67DA6CD87200000100020062
:1011400003FF04FF0500060007000700080109016E
:101150000A020B030C050D060E070E090F0A100CF0
:10116000110E1210131214151517151A161C171F2D
:10117000182219251A281B2C1C2FFF00FE01FD0226
:10118000FC03FB05FA06F808F709F60BF50DF40F5A
:10119000F311F114F016EF19EE1BED1EEC21EA2409
:1011A000E927E82BE72EE632E535E339E23DE14178
:1011B000E045DF4ADE4EDC53DB570001FF03FE054E
:1011C000FE07FD09FC0CFC0EFB11FA13FA16F919C7
:1011D000F81CF81FF723F626F62AF52DF431F4351E
:1011E000F339F23DF242F146F04BF04FEF54EE5935
:1011F000ED5EED63EC69EB6EEB7400000000000047
:1012000001010101010201030204020502060307B4
:101210000309030A030C040E041004120514051636
:101220000519051B061E062106240727072A072D78
:10123000073108340838083C09400000010002006A
:1012400003000400050106010702080309040A055A
:101250000B060C070D090E0A0F0C100E10101112C0
:10126000121413171419151C161F172118241927E7
:101270001A2B1B2E1C321D351E39000001000200E6
:1012800003000401050206020703080409060A0711
:101290000A080B0A0C0B0D0D0E0F0F11101311166F
:1012A0001218131B141D1420152316261729182D88
:1012B00019301A331B371C3B1D3F01000301050287
:1012C000060308050A060B080D090F0B100D120F77
:1012D00014111613171619181B1B1C1E1E2120246F
:1012E0002127232A252D273128352A382C3C2D402B
:1012F0002F443149324D34523656000001FF02FF6F
:1013000003FF04FF05FF05FF06FF07FF08000900B4
:101310000A000B010B020C030D040E060F07100947
:10132000110A110C120E1310141315151617171A93
:10133000171D182019231A261B29000001FF01FE82
:1013400002FE02FE03FD03FD04FD04FE05FE05FE94
:1013500006FF06FF070007000801080209040A0546
:101360000A070B080B0A0C0C0C0E0D100D130E15B2
:101370000E180F1A0F1D1020102301FF02FE03FD8F
:1013800004FC06FB07FB08FA09FA0BFA0CF90DF945
:101390000EF910FA11FA12FA13FB15FC16FD17FEDE
:1013A00018FF1A001B001C021D031F05200721093E
:1013B000220B240D25102612271500FFFFFEFEFC30
:1013C000FDFBFCFAFBF9FAF9FAF8F9F7F8F7F7F789
:1013D000F6F7F5F7F4F7F4F7F3F7F2F8F1F8F0F9B8
:1013E000EFFAEEFBEEFCEDFDECFFEB00EA01E903AA
:1013F000E805E807E709E60BE50DFF00FDFFFBFF49
:10140000F9FEF7FEF5FEF3FEF1FEEFFEEDFEEBFF5B
:10141000E900E700E500E301E102DF03DD05DB06AB
:10142000DA08D80AD60CD40ED210D012CE14CC17AB
:10143000CA19C81CC61FC422C2250000FF00FE0036
:10144000FD00FC00FB00FA01F902F803F704F605C1
:10145000F506F407F309F20AF10CF00EEF10EE12A4
:10146000ED14EC16EB19EA1BE91EE821E724E62748
:10147000E52AE42EE331E235E13800FFFFFFFEFE0E
:10148000FEFDFDFDFCFCFBFCFBFCFAFCF9FCF9FCA1
:10149000F8FDF7FDF6FEF6FFF5FFF400F300F302AA
:1014A000F203F105F106F008EF0AEE0CEE0EED1076
:1014B000EC13EC15EB18EA1AE91D3C3E4561737913
:1014C000003C3E48617264004220617564696F208F
:1014D0004F4646004220617564696F204F4E0050B0
:1014E00072657373204120746F207374617274008D
:1014F000181800000000000000008080C0C060E0FC
:1015000020E030F030F030F030F030F038F82EFEDF
:1015100042FE86FEC8F85C7C3636020201010000FD
:101520000000E0E0F8F81EFE03FF01FF38FF7CFF3B
:101530003EFF0EFF01FF00FF00FF00FF00FF00FF66
:1015400000FF00FF01FF07FFFCFCF8F800000000AF
:10155000000003030F0F1C1F383F203F607F407FB8
:10156000C0FFC0FFC0FFC0FFC0FFC0FF607F607F43
:10157000303F303F181F0E0F030300000000000033
:101580000000000000000000F0FFFF1F010101014A
:10159000818181C3FE7E0000000000000000000089
:1015A0000000000000000000000000C0000000C0BB
:1015B000000000000080808080808000000000002B
:1015C000000000000000000000000000000000001B
:1015D000000000000000000000000000000000000B
:1015E00000000000000000000000000000000000FB
:1015F000000000000000F0FFFF7F0F070707030354
:1016000003030307060CFCF8F000000000000000D4
:1016100000000000000000000000FEFFFEF0FEFFE2
:10162000FE000000F8FFC7C0C0F0BF3E0000E0FFB2
:10163000FFC3C3C3C3030000F0FF1F03030387FE00
:101640007C0000F0FE8E82C27E3C0000F8FC0C0C98
:101650000CFCF8000080F8780080F87800000000AA
:10166000000000C0F0FFFF1F03000000000000802A
:101670008080C0E0F07E3F1F0100000000000000FD
:10168000000000000000000080FCFF7F0003000F4E
:10169000FFF800FCFFFF838080E1FF1E00F8FFFFE2
:1016A0008F818181810000FCFFFF030303FFFD00A8
:1016B0000000FCFFC7C1C1E37F3E003E7F61606068
:1016C0007E3F01000003073E3E07030000000000CC
:1016D00000000E0F0F0F0F0E06060606030303038E
:1016E00001010100000000000000000000000000F7
:1016F00000000000000000000303030000000000E1
:1017000003030001010101010101000000010101C9
:1017100001010101010000000000000000000000C4
:1017200000000000000000000000000000000000B9
:1017300000000000000000000000000000000000A9
:101740000000080B00020202000009040000010270
:1017500002000005240010010524010101042402F7
:101760000605240600010705810310004009040155
:1017700000020A000000070502024000000705837E
:10178000024000000403090412010002EF020140BC
:101790004123368000010102030141726475696EC4
:1017A0006F204C4C43004142413131303600100132
:1017B000280A301A3803403C481D503E581F426FDB
:1017C0006D6220636F6E74726F6C00467265657A2D
:1017D000652067686F7374730057616C6B206F7658
:1017E000657220626F6D62730057616C6B206F765B
:1017F00065722077616C6C730050726F74656374EE
:10180000696F6E0053706565640052616469757339
:10181000004F6E65206D6F726520626F6D6200080B
:101820000800003A3AC5FF457F4D7FFFFF3B3B0074
:1018300000080800003A3AC5FF457FFDFF7F7F039F
:10184000030000080800003A3A457FE5FFFDFF7FEE
:101850007F03030000080800003A3A457FC5FF5D9A
:101860007FFFFF03030000080800003B3BFFFF4D24
:101870007F457FC5FF3A3A00000808000003037F58
:101880007FFDFF457FC5FF3A3A00000808000003CE
:10189000037F7FFDFFE5FF457F3A3A00000808001F
:1018A000000303FFFF5D7FC5FF457F3A3A00000854
:1018B0000800003A3ACFFF457F457FCFFF3A3A0014
:1018C00000080800001A1AEFFF457F457F4F7FBAD6
:1018D000BA0000080800003A3ACFFF457F457FCFA5
:1018E000FF3A3A000008080000BABA4F7F457F452A
:1018F0007FEFFF1A1A000008083838CAFA477F45F8
:101900004F454F477FCAFA383808087878C6FE47EF
:101910004F45474547474FC6FE383808088EBEC377
:10192000FF81C78080808081C7C3FF8EBE08088189
:10193000810000000000000000000001018EBE08D0
:10194000081C1C223E4D7F81FF8DFF417F223E1CE3
:101950001C08083838447C9AFE82FE9AFE82FE44B7
:101960007C383808081818243C5A7E82FE9AFE42B9
:101970007E243C181808080C0C121E6D7F81FF8D08
:10198000FF617F121E0C0C08081C1C223E417F8D3B
:10199000FF81FF4D7F223E1C1C08083838447C82A2
:1019A000FE9AFE82FE9AFE447C38380808181824F5
:1019B0003C427E9AFE82FE5A7E243C181808080C8F
:1019C0000C121E617F8DFF81FF6D7F121E0C0C08B3
:1019D000083C3C427E9DFF81FF81FF9DFF427E3C93
:1019E0003C08087E7E81FFBDFF81FF81FFBDFF8136
:1019F000FF7E7E08087E7E81FFBDFF99FF99FFBDB7
:101A0000FF81FF7E7E08087E7E81FFBDFFA5E7A5E2
:101A1000E7BDFF81FF7E7E08087E7EFFFFC3C3C354
:101A2000C3C3C3C3C3FFFF7E7E0808FFFFC3C381D8
:101A300081818181818181C3C3FFFF0808C3C38184
:101A40008100000000000000008181C3C3080881FC
:101A500081000000000000000000000000818108FB
:101A600008000038384444444446463A3A020200EA
:101A70000008080000484824241212484824241270
:101A80001200000808000038383838383830303054
:101A90003030300000080800003C3C34343434342A
:101AA0003434343C3C00000808000024242424245E
:101AB00024242424242424000008080000000034E6
:101AC00034242424242C2C000000000808000000EA
:101AD000007E7E000000007E7E00000000080800FE
:101AE0000000007E7E4A4A4A4A3434000000000862
:101AF000083838C4FC5A7E417F597F427EC4FC3886
:101B00003808081C1C627E2D3F213F2D3F223EE2FB
:101B1000FE1C1C08083C3CC2FE4D7F417F4D7F42AD
:101B20007E627E1C1C08083C3CC2FE5A7E417F59E6
:101B30007F427E427E3C3C08083838C4FC427E59D5
:101B40007F417F5A7EC4FC383808081C1CE2FE2204
:101B50003E2D3F213F2D3F627E1C1C08081C1C624D
:101B60007E427E4D7F417F4D7FC2FE3C3C08083C5B
:101B70003C427E427E597F417F5A7EC2FE3C3C08F9
:101B8000087E7ED5FF89FF81FF89FF81FFD5FF7E1B
:101B90007E08087C7CD6FE8AFE82FE8AFE82FED605
:101BA000FE7C7C08083E3E6B7F457F417F457F4140
:101BB0007F6B7F3E3E08087E7EABFF85FF81FF8501
:101BC000FF81FFABFF7E7E08087E7ED5FF81FF8907
:101BD000FF81FF89FFD5FF7E7E08087C7CD6FE82D0
:101BE000FE8AFE82FE8AFED6FE7C7C08083E3E6BA4
:101BF0007F417F457F417F457F6B7F3E3E08087E6A
:101C00007EABFF81FF85FF81FF85FFABFF7E7E08F6
:101C1000083C3C427EADFFA1FFADFF81FF427E3C10
:101C20003C08081C1C223E557F517F557F417F2276
:101C30003E1C1C08083838447CAAFEA2FEAAFE827C
:101C4000FE447C38380808787884FCAAFEA2FEAAF4
:101C5000FE82FE84FC787808083C3C427E81FFAD21
:101C6000FFA1FFADFF427E3C3C08081C1C223E4108
:101C70007F557F517F557F223E1C1C080838384411
:101C80007C82FEAAFEA2FEAAFE447C3838080878B0
:101C90007884FC82FEAAFEA2FEAAFE84FC78780864
:101CA000081F1FF1FF85FF81FF85FF81FF8FFFF870
:101CB000F808080000FFFF81FF85FF81FF85FF8195
:101CC000FFFFFF0808F8F88FFF81FF85FF81FF8580
:101CD000FFF1FF1F1F0808FFFF81FF85FF81FF85C0
:101CE000FF81FFFFFF000008081E1EE2FE8AFE8241
:101CF000FE8AFE82FE86FEF8F808080000FEFE82DC
:101D0000FE8AFE82FE8AFE82FEFEFE0808F8F88643
:101D1000FE82FE8AFE82FE8AFEE2FE1E1E0808FE8B
:101D2000FE82FE8AFE82FE8AFE82FEFEFE00000821
:101D3000080000FCFC4A7EC9FF417F427EFCFC009B
:101D40000008088080F8F894FC92FE82FE84FCF87B
:101D5000F880800808F8F894FC92FE82FE84FCF873
:101D6000F88080000008087C7CCAFE497FC1FF42E1
:101D70007EFCFC0000000008080000FCFC427E41E4
:101D80007FC9FF4A7EFCFC000008088080F8F884C8
:101D9000FC82FE92FE94FCF8F88080080800008027
:101DA00080F8F884FC82FE92FE94FCF8F8080800A3
:101DB000000000FCFC427EC1FF497FCAFE7C7C081B
:101DC000083C3C427E85FF81FF81FF85FF427E3CCF
:101DD0003C080800003C3C427E85FF85FF427E3C7B
:101DE0003C00000808000000007E7E85FF85FF7E25
:101DF0007E000000000808000000000000FFFFFF58
:101E0000FF0000000000000808000000000000FFC4
:101E1000FF00000000000000000808000000007E35
:101E20007E85FF7E7E0000000000000808000000A4
:101E3000007E7E85FF85FF7E7E0000000008080092
:101E4000003C3C427E85FF85FF427E3C3C00000812
:101E5000087C7CE7FFE6FEBEFEE6FEE6FEFFFF7CBA
:101E60007C08087878CEFECCFCBCFCCCFCCCFCFE1C
:101E7000FE787808083C3C677F667E5E7E667E66FC
:101E80007E7F7F3C3C08083C3CE7FFE6FEDEFEE64A
:101E9000FEE6FEFFFF3C3C08087C7CFFFFE6FEE61A
:101EA000FEBEFEE6FEE7FF7C7C08087878FEFECCEE
:101EB000FCCCFCBCFCCCFCCEFE787808083C3C7F1B
:101EC0007F667E667E5E7E667E677F3C3C08083C61
:101ED0003CFFFFE6FEE6FEDEFEE6FEE7FF3C3C00E2
:101EE00002200000000800FF81BDBDBDBD81FFAA2A
:101EF000A2AA8AAAA82AAA28A2A28AAA280AA82844
:101F000022A28A8A2008000822208A80200800DB7A
:101F10001BDBD8DBDBC3DBDBDB1BDBD8C3DBDB386A
:101F200044928A82443A013048948C84483402387E
:101F300044928A82443A0118244A4642241A01EE05
:101F4000018181800181DD77808181018081BBBB3E
:101F500081800181818077DD810180818101EE10A6
:101F60002A74AA55281808183E7EFFFF7E3C183CAC
:101F70007EFBFFF7EF7E3C7EFFBBF7E3E7DF7EFFF4
:101F80007FB3C3E3E3CFBF7E1BA3C3E3E3893F3C3F
:101F900002A1C3C381083C180220818100081810E7
:101FA0000A300810081808383E2C3C383C381C6CA5
:101FB0007E3E366C7E381EE66F3F72E6CF7C2FC3C6
:101FC000E77FE1C387FF4781C3F7C08103DF830059
:101FD00083E38000018F010002E10000000B00009C
:101FE000022055AA00080000027BFBBFAE080000DB
:101FF000337BEEF7BFAE00317BFF4CE6F7BFA67B2D
:10200000DF6E4444E6FFFFDF4E24444044EEF74ECB
:1020100006240000404CE60406200000004844FF6F
:10202000FF8181818181FFFF81FF81818181FFFFAC
:102030008181FF818181FFFF81818181FF81FFFF9C
:102040008181818181FFFFFF81818181FF81FFFF8C
:10205000818181FF8181FFFF81FF81818181FF007B
:102060003F1E11241FBECFEFDAE0DEBFCDBF11E06F
:10207000A0E0B1E0E6EFFEE502C005900D92A034CD
:10208000B107D9F728E0A0E4B1E001C01D92AE3A53
:10209000B207E1F710E1C1E3D0E104C02197FE01EE
:1020A0000E94732FC033D107C9F70E946C1E0C9495
:1020B000792F0C9400008091B60108958F929F9221
:1020C000AF92BF92CF92DF92EF92FF921F93CF9386
:1020D000DF93DC014115510509F4B2C0FA01D49136
:1020E0003196E491ED2EF12C6C01CE0CDF1C1C140A
:1020F0001D040CF0A5C0803891050CF0A1C0CB01E7
:102100008E0F911D181619060CF09AC060347105D7
:102110000CF096C0C62FC770CB0177FD079613E071
:10212000959587951A95E1F7382F77FF04C0CC2352
:1021300011F03FEF380F882799278A1B9B0BB7FDBB
:1021400002C090E080E020E82A1BF0E8CF16D1041E
:102150000CF42D2F281BC32E032E000CDD086C2D34
:1021600060953F3F0CF060E011E07E2F777009F43E
:1021700010E0E695E695E6951E0FC10ED11C79E0BC
:10218000C716D10414F018E0131B161B360F70E8A5
:102190003703F0011124AE0FBF1FA80FB91FA65BB4
:1021A000BB4FC22ED12CFA013296D69F800D911DC5
:1021B0001124880F991FE80FF91F60E870E06C196F
:1021C0007D09A7014C195D09440F551F81E090E07E
:1021D0007C010C2E01C0EE0C0A94EAF7822E9C2E94
:1021E000CF93DF93ED01EF96EF962296A590C590E1
:1021F000992059F0AE9C5001CE9C600137302CF4F0
:10220000F880D094FD20FB28F99233233AF0FC901B
:10221000C094FC20FA28FD920C940F1111962A9577
:1022200029F71A9551F0282D33951124E40FF11D4B
:10223000A60FB11DC60FD11DD9CFDF91CF911124AB
:10224000DF91CF911F91FF90EF90DF90CF90BF90E3
:10225000AF909F908F9008954F925F926F927F9270
:102260008F929F92AF92BF92CF92DF92EF92FF92A6
:102270000F931F93CF93DF9330E0F901E80FF91F1D
:102280001E161F060CF07CC0803891050CF078C03B
:10229000602E712CF301E60FF71F1E161F060CF0BF
:1022A0006FC0603471050CF06BC0E62FE7705E2ED6
:1022B000E7E06E0E711CE3E075946794EA95E1F730
:1022C000F3E075956795FA95E1F7062E000C770B0C
:1022D000DB01B695BA2FAA27B795A795A80FB91F06
:1022E000A65BBB4FEA01F12CE12C6701C60ED71E9D
:1022F00048E0C416D1040CF043C0EFEFCE16DE0662
:10230000A4F18C0150E040E04D01E0E88E0E911CFC
:1023100017FD21C0FA01EC0FFD1FA490B12C052C74
:1023200002C0AA0CBB1C0A94E2F7EFEFCE16DE0641
:10233000C1F1FD01E40FF51F40804A28408255207D
:1023400051F0E7E0CE16D10431F0F401E40FF51FAF
:10235000A080BA28B0824F5F5F4F0F5F1F4F4217B8
:1023600053071CF40038110599F64FEFE41AF40AEC
:10237000A058BF4FC20FD31F6E147F0409F0B5CF12
:10238000DF91CF911F910F91FF90EF90DF90CF9051
:10239000BF90AF909F908F907F906F905F904F9085
:1023A00008955110D2CFD7CF90914702981304C00F
:1023B00090914802961709F190E2699FB0011124AB
:1023C000665B7D4F680F711DFB0180818823A9F03A
:1023D00094EF980F943288F09091430292FF04C0DA
:1023E00028EF280F243048F093FF05C09EEF980F88
:1023F00081E0943008F080E0089581E0089590E055
:10240000880F991FFC01E255F84E24918155984E92
:10241000FC018491569547955695479585FF11C0C7
:102420004770420F5527551F22E1249FC001259F69
:10243000900D1124AC01415E574E80E190E00C9468
:102440005E1043704C5FEDCFEAE4F4E030EB20E146
:1024500046E05C983EBD4A95F1F72EBD20E82395F5
:1024600007C0449140815C9A4EBD8111412D41933A
:1024700044912A95B1F73395383B49F744910DB40F
:102480000895FC0180913702882311F13FB7F89439
:1024900082E08093E9002091F200822F90E01816EC
:1024A000190614F481E090E0882339F0289844E676
:1024B000409336024091F1004083222339F020916D
:1024C000F200211103C02BE62093E8003FBF0895DE
:1024D0008FEF9FEF08952FB7F89483E08093E90082
:1024E0009091E800892F807295FF04C09091F200CE
:1024F00080E4891B2FBF089580912E0281110DC0A9
:1025000082E080932A0284E080932B0210922D02B5
:1025100010922C0281E080932E028AE292E00895CC
:10252000CF93DF931F92CDB7DEB76983DC01ED91C6
:10253000FC910280F381E02D41E050E0BE016F5F2D
:102540007F4F09950F90DF91CF91089583E080939D
:10255000E9008091F200882319F08AE38093E80073
:1025600008950E946B1290E00895CF93DF931F921D
:10257000CDB7DEB7FC018485958597FD08C02FEFA8
:102580003FEF358724870F90DF91CF910895CE01DB
:1025900001960E944112019719F4898190E0F3CFCE
:1025A0008FEF9FEFF0CF0F931F93CF93DF931F9287
:1025B000CDB7DEB78C01FC018485958597FF0BC0F4
:1025C000CE0101960E944112019771F4898190E039
:1025D000F80195878487F801848595850F90DF91B0
:1025E000CF911F910F9108958FEF9FEFF1CFFC01D5
:1025F0008485958597FD0BC09FB7F89482E0809302
:10260000E9008091F2009FBF90E0019608959FB786
:10261000F89482E08093E9008091F2009FBF90E0FF
:102620000895409124025091250220912202309178
:10263000230242175307B4F49091E8009570E1F338
:102640009091E80092FD19C08093F10080912402DE
:102650009091250201968F739927892B19F48EEF9B
:102660008093E80080912402909125020196909336
:1026700025028093240281E0089580E00895DF928E
:10268000EF92FF920F931F93CF93DF93D82E8A017F
:10269000EB017B01E40EF51ECE15DF0559F0D7FEE8
:1026A00012C0FE0184910E94111321968111F4CF72
:1026B0000FEF1FEFC801DF91CF911F910F91FF9096
:1026C000EF90DF9008958881EECF0F931F93CF9303
:1026D000DF931F92CDB7DEB782E0898342E450E0FA
:1026E00062E477E180E80E943F130E947C12DC01E3
:1026F00012960D911C910115110589F0D801ED91EB
:10270000FC910280F381E02DBE016F5F7F4FC80115
:10271000099597FD04C0F80100851185ECCF8981EA
:102720000F90DF91CF911F910F910895615030F07C
:102730002091F100FC0120830196F8CF289884E6CF
:10274000809336020895AF92BF92CF92DF92EF92BC
:10275000FF920F931F93CF93DF936C017B018B014B
:10276000040F151FEB015E01AE18BF08C017D1079B
:1027700059F06991D601ED91FC910190F081E02D25
:10278000C6010995892B79F7C501DF91CF911F917A
:102790000F91FF90EF90DF90CF90BF90AF90089592
:1027A000FC010E946714319728F068517C4F8F4FCD
:1027B0009F4FF9CFAB01FC010E94671464177507A6
:1027C0008E079F07C8F308958F929F92AF92BF9292
:1027D000CF92DF92EF92FF920F931F93CF93DF93ED
:1027E0006C017B018A0180910E01882309F45AC093
:1027F00080913702882309F455C08091290280FF17
:1028000005C08091E00082608093E000E801B12C77
:102810008AEFA82E93E0892E2AE3922E209711F4B6
:10282000BB20C9F10E946B12811108C0AA94AA2092
:10283000C9F181E090E00E94D013F0CF8C171D0603
:1028400011F00CF08C2F9FB7F8948092E900209142
:10285000E80025FD02C09FBFE1CF282F30E0C21B5A
:10286000D30BF701815020F041914093F100FACF52
:10287000E20EF31EBB2021F09092E800B12CEBCFCA
:102880008091E80085FDE7CF9092E800BB24B394E7
:10289000209709F3F3CF5D9884E680932802101601
:1028A00011063CF081E090E0F6019383828310E012
:1028B00000E0C801DF91CF911F910F91FF90EF9041
:1028C000DF90CF90BF90AF909F908F900895ACE530
:1028D000B1E02FB7F8947D918D919C9166B52FBF93
:1028E000A89B05C06F3F18F47F5F8F4F9F4F22E07A
:1028F000660F771F881F991F2A95D1F70895209199
:102900005301E0915101F0915201CF010296909351
:10291000520180935101222319F0859194910895D9
:10292000808191810895CF92DF92EF92FF92CF93B1
:10293000DF930E947F14811520E8920791F4809123
:1029400071008D7F809371001092910046985F987E
:1029500010925001DF91CF91FF90EF90DF90CF90D8
:10296000089521E020935001813020E8920751F42E
:1029700080914E0190914F019093520180935101AB
:102980000E947F1497FD05C020914D01222309F478
:1029900054C020914C01211150C021E020935401DA
:1029A000EC01DF77209709F04BC081E0809355015F
:1029B00046983FE9C32E3FE0D32EE12CF12CCAEF1D
:1029C000D0E0E091A808F091A9080995811103C011
:1029D00081E08093550180915401882329F08091F2
:1029E0005501882309F43FC05F980E947F14009727
:1029F000F1F19C01DE010E94642FDC01CB0129E092
:102A0000B595A795979587952A95D1F7109290003F
:102A10002AE020939100D0929900C0929800809370
:102A2000560190935701A0935801B093590180919A
:102A300071008260809371008DCF10925401B0CFED
:102A40009E0150E040E060E472E48FE090E00E947C
:102A5000102F69017A0181E0C81AD108E108F10854
:102A600010925501AECF4699BFCF5F9ABECF8FEF80
:102A70009FEFDC01CBCF9C01E1E7F0E090819D7FEF
:102A8000908381E080935301309352012093510150
:102A900030934F0120934E010C94931490E00C94CA
:102AA000D0138FB18095807F669B88601C9B84606B
:102AB00008951092B6013E98579808953E9A579AF5
:102AC00081E08093B601089580389105B8F46034B0
:102AD0007105A0F490E121E061FD24E060FD220F8A
:102AE00062FD2295687F969FD0011124A80FA65BF6
:102AF000BB4F0C90022A40FF02260C9208958F9241
:102B00009F92AF92BF92CF92DF92EF92FF920F937C
:102B10001F93CF93DF936D3089F0C0903802D0902F
:102B200039026A30D1F410923B0210923A0288E0E6
:102B3000C80ED11CD0923902C092380281E090E0D8
:102B4000DF91CF911F910F91FF90EF90DF90CF9089
:102B5000BF90AF909F908F90089500913A0210918E
:102B60003B02E5E06E9FE0011124CE57DA4F4801A9
:102B7000F12CF5E0E12CFF1629F0CE010196FE01C3
:102B8000E490EC01B12CA12C4E2D4170B6016A0DE0
:102B90007B1DC4010E946415E694FFEFAF1ABF0AC3
:102BA00088E0A816B10481F7F394EFEF8E1A9E0A1D
:102BB000F6E0FF12DECF0A5F1F4F10933B02009337
:102BC0003A02BCCF0F931F93CF93DF938C01D0E0D9
:102BD000C0E0F801EC0FFD1F6491662341F08AEA22
:102BE00098E00E947F15892B11F02196F2CFCE013B
:102BF000DF91CF911F910F910895EF92FF920F9364
:102C00001F93CF93DF937C01EB0110913C02137073
:102C100068817981CB0107968734910518F528E002
:102C2000129FA0011124415C504E08E028E0C7012A
:102C30000E942C11688179814FE55AE1C7010E94F9
:102C40005E10888199819701265F3F4F30933B0248
:102C500020933A02909339028093380281E198E1FF
:102C60000E94E21588819981BC01665F7F4F79835C
:102C7000688341968734910518F588E0189FA00174
:102C80001124415C504E08E028E0C7010E942C113D
:102C90006881798141E75AE1C7010E945E1088810D
:102CA00099819701265F3F4F30933B0220933A0270
:102CB00090933902809338028AE098E10E94E215ED
:102CC00088819981BC01665F7F4F798368834196D3
:102CD0008734910518F528E0129FA0011124415C6A
:102CE000504E08E028E0C7010E942C1168817981CC
:102CF00043E85AE1C7010E945E10888199819701DB
:102D0000265F3F4F30933B0220933A029093390263
:102D10008093380284E098E10E94E21588819981CD
:102D2000BC01665F7F4F7983688341968734910544
:102D300018F588E0189FA0011124415C504E08E06E
:102D400028E0C7010E942C116881798145E95AE188
:102D5000C7010E945E10888199819701265F3F4FCD
:102D600030933B0220933A029093390280933802C9
:102D700089EF97E10E94E21588819981BC01665F25
:102D80007F4F7983688341968734910518F528E051
:102D9000129FA0011124415C504E08E028E0C701B9
:102DA0000E942C116881798147EA5AE1C7010E948B
:102DB0005E10888199819701265F3F4F30933B02D7
:102DC00020933A02909339028093380289EE97E17A
:102DD0000E94E21588819981BC01665F7F4F7983EB
:102DE000688341968734910518F588E0189FA00103
:102DF0001124415C504E08E028E0C7010E942C11CC
:102E00006881798149EB5AE1C7010E945E1088818F
:102E100099819701265F3F4F30933B0220933A02FE
:102E2000909339028093380289ED97E10E94E21570
:102E300088819981BC01665F7F4F79836883419661
:102E40008734910518F528E0129FA0011124415CF8
:102E5000504E08E028E0C7010E942C11688179815A
:102E60004BEC5AE1C7010E945E108881998197015D
:102E7000265F3F4F30933B0220933A0290933902F2
:102E8000809338028BEC97E10E94E215888199814A
:102E9000BC01665F7F4F79836883419687349105D3
:102EA00018F588E0189FA0011124415C504E08E0FD
:102EB00028E0C7010E942C11688179814DED5AE10B
:102EC000C7010E945E10888199812AE0E20EF11C00
:102ED000F0923B02E0923A029093390280933802DA
:102EE0008EEB97E10E94E215888199810A96998379
:102EF0008883DF91CF911F910F91FF90EF900895FC
:102F00008F929F92AF92BF92CF92DF92EF92FF92F9
:102F10000F93CF93DF935B01EC014C01840E911C66
:102F20006B01C20ED11CC815D905D4F47501B7FECA
:102F300002C0F12CE12CC60121E4C216D10414F028
:102F400080E490E0E816F9064CF4402FB701CE017A
:102F50000E9464158FEFE81AF80AEDCF2196E3CFAF
:102F6000DF91CF910F91FF90EF90DF90CF90BF90C6
:102F7000AF909F908F90089590E2499FA0011124F7
:102F8000465B5D4F460F511DFA019081992339F040
:102F900082FF03C081E0923009F080E0089581E073
:102FA0000895FC019081892F8770833018F4987FF1
:102FB000908308958530E8F3987F985FF9CF90E289
:102FC000699FF0011124E80FF11DE65BFD4F908130
:102FD000923019F483E08083089598509430E8F497
:102FE000E9EBF1E030E020E09381992381F09081DA
:102FF00089130DC0918169130AC086E0829FF00198
:10300000839FF00D1124E754FE4F128208952F5F25
:103010003F4F36962031310539F70895089590E0F5
:1030200080E00895CF92DF92EF92FF920F931F936B
:10303000CF93DF93CDB7DEB7A1970FB6F894DEBF7D
:103040000FBECDBF282F30E050E040E019A28E0126
:103050000F5D1F4F8AE0C82ED12CE12CF12CCA0144
:10306000B901A70196010E94422F605DF8016293A9
:103070008F01211531054105510589F790E080E068
:10308000309761F001900020E9F73197AF01401BC4
:10309000510BB8018AEA98E00E94A313A1960FB6DB
:1030A000F894DEBF0FBECDBFDF91CF911F910F917E
:1030B000FF90EF90DF90CF900895CF92DF92EF9244
:1030C000FF92CF93DF9310928A008FEF88BD10920A
:1030D00088008CE392E00E943B1510921D02109232
:1030E0001C0280E09EEF90931B0280931A0280E8FE
:1030F000809319021092B8011092200210921F02C0
:10310000C9EBD1E080E5C82ED12CE12CF12C0E9436
:103110009E2EA70196010E94102F655F6A83269656
:1031200082E0C931D80799F7DF91CF91FF90EF90F6
:10313000DF90CF9008954F925F926F927F929F920F
:10314000AF92BF92CF92DF92EF92FF920F931F93B5
:10315000CF93DF93982EA62E8EEFB82E94E0492EB3
:10316000512C612C712CC0910101CC2ED12CF12C51
:10317000E12CC114D104E104F10439F00E949E2E27
:10318000A70196010E94102F6B01CC2DC090020167
:10319000D12CF12CE12CC114D104E104F10439F05B
:1031A0000E949E2EA70196010E94102F6B01DC2D1C
:1031B00020E2C29EF0011124EC0FF11DE65BFD4FF1
:1031C0008081811128C0C43010F4D43020F10E94D5
:1031D0009E2EF090B201E4E0FE9E80011124015980
:1031E0001E4FA30192010E94102F63706861F801C5
:1031F0006283CC0FCC0FCC0FC083DD0FDD0FDD0F52
:10320000D183938281E08F0D8093B201AA948031A3
:1032100028F4AA2019F0BA94B110A5CFDF91CF916C
:103220001F910F91FF90EF90DF90CF90BF90AF90E4
:103230009F907F906F905F904F9008952F923F9254
:103240004F925F926F927F928F929F92AF92BF92B6
:10325000CF92DF92EF92FF920F931F93CF93DF9362
:10326000CDB7DEB729970FB6F894DEBF0FBECDBF3E
:1032700080E58093B10188E49FE00E943B151092A5
:10328000B4011092AF0120911E02422F4150550B04
:1032900093E0440F551F9A95E1F759874887FA0143
:1032A000E155FF4F8490FA01E355FF4FE490FA0196
:1032B000E455FF4F5491598350930101E09202016C
:1032C0002AE4C22E22E0D22E22242394312CF12C87
:1032D000852F90E09D838C83EE2DF0E0FF83EE83BD
:1032E000912CB12CA12C44E6442E512C612C712C34
:1032F000EF14E9F1860190E080E0282FF9818F1723
:1033000070F5AC014F5F5F4F5B834A83882361F0A8
:103310008C819D814817590739F0FF2029F0EE81F3
:10332000FF81E215F30541F421E0F80120838A8151
:103330009B810F5F1F4FE1CF2F2920FFF5CF0E9408
:103340009E2EA30192010E94102F681579058A050F
:103350009B0514F422E0E9CFF8011082E8CFF39442
:10336000F0E2CF0ED11C2FEF221A320AC1CFE9EBC7
:10337000F1E089E192E0138236968E179F07D9F724
:1033800088E080933E0280933F0288E1809341026F
:103390001092450210924702109248021092490280
:1033A00010926B0210926C0210928B02EFE6F1E029
:1033B0008FEA91E0128234968E179F07D9F7109208
:1033C000B201E885F985E055FF4F8491E885F985DC
:1033D000EF54FF4F649161110E949B18E885F985B5
:1033E000EE54FF4F8491E885F985ED54FF4F6491C9
:1033F000662331F09091B201903110F40E949B1835
:10340000C0900101D12CF12CE12CC114D104E104B4
:10341000F10439F00E949E2EA70196010E94102F00
:103420006B0180900201912CB12CA12C811491048C
:10343000A104B10439F00E949E2EA50194010E94BE
:10344000102F4B0130E2839EF0011124EC0DF11D91
:10345000E65BFD4F8081823099F6C0926E018092CA
:103460006C01E885F985E255FF4FE491E0936D0129
:103470004CED498388E0C82ED12CE12CF12C8091B1
:103480006D0181115AC080914402803108F05CC006
:10349000C0900101D12CF12CE12CC114D104E10424
:1034A000F10439F00E949E2EA70196010E94102F70
:1034B0006B01C982C0900201D12CF12CE12CC11406
:1034C000D104E104F10439F00E949E2EA701960177
:1034D0000E94102F6B019C2D80E2C89EF0011124E8
:1034E0002981E20FF11DE65BFD4F8081823081F67C
:1034F00080916E0182135CC020916C012C1541F209
:1035000080936B0190936A0129960FB6F894DEBF01
:103510000FBECDBFDF91CF911F910F91FF90EF9024
:10352000DF90CF90BF90AF909F908F907F906F90E3
:103530005F904F903F902F900895813099F4809143
:103540004602883108F4A4CF0E949E2EA70196015E
:103550000E94102F60936D01598151505983511170
:103560008ECF96CF823029F48091430281FDECCF3B
:103570008FCF833029F48091430284FDE5CF88CF3B
:10358000843029F48091430283FDDECF81CF8530E2
:1035900029F48091430282FDD7CF7ACF873029F476
:1035A0008091430285FDD0CF73CF863069F670CF0E
:1035B0008981A6CF1F920F920FB60F9211248F937D
:1035C0009F938091E1009091E100937F9093E100BF
:1035D00083FF0FC01092E90091E09093EB001092EE
:1035E000EC0092E39093ED001092370298E09093F4
:1035F000F00082FF22C093E09093E9009091F200E6
:10360000992319F09AE39093E80090912802992366
:1036100041F090912802915090932802911101C09D
:103620005D9A90913602992341F090913602915023
:1036300090933602911101C0289A84FF18C080919E
:10364000E2008E7E81608093E2008091E1008F7EB7
:103650008093E100809129028E7E8061809329020F
:103660009F918F910F900FBE0F901F90189580FF24
:10367000F7CF8091E2008E7E80618093E20080919E
:10368000E1008E7E8093E100809129028E7E816030
:10369000E5CF1F920F920FB60F921124CF92DF92B7
:1036A000EF92FF920F931F932F933F934F935F934C
:1036B0006F937F938F939F93AF93BF93EF93FF93FA
:1036C000CF93DF93CDB7DEB76C97DEBFCDBF10923F
:1036D000E9008091E80083FF25C068E0CE014596AF
:1036E0000E94961382EF8093E8008D8987FF39C08E
:1036F0009091E80090FFFCCF982F907609F034C1AC
:103700009E894F89588D2F89F88C911131C080384E
:1037100061F5809127028093F1001092F1008EEF05
:103720008093E8006C960FB6F894DEBF0FBECDBF55
:10373000DF91CF91FF91EF91BF91AF919F918F91C9
:103740007F916F915F914F913F912F911F910F91B9
:10375000FF90EF90DF90CF900F900FBE0F901F90D3
:1037600018959EEF9093E800C7CF1092F100D5CF47
:10377000913059F48111D3CF4130510581F68091B8
:1037800027028D7F80932702CACF933049F481119D
:10379000C6CF4130510519F6809127028260F2CFE1
:1037A000953041F48091E80080FFFCCF20682093A1
:1037B000E300B5CF963009F0A9C00B8D1C8D22E037
:1037C0001092E9001092250210922402F2122EC0EB
:1037D00010922302109222020E9465131F8299E028
:1037E0009983FA8291E09E8390EA98879AEF99876D
:1037F0002091240230912502275F3F4F3C832B8389
:103800008D831092E90010922502109224021093E9
:1038100023020093220249E050E0BE016F5F7F4F18
:1038200080E00E943F130E94651379CF109323021A
:10383000009322020E947C12DC0112960D911C91D1
:103840000115110509F451C1D801ED91FC910480D5
:10385000F581E02DBE016B5E7F4FC8010995009791
:1038600009F03EC1F80100851185EACFF3E0FF12AF
:103870000EC08F89882309F440C0823061F440E88B
:1038800067E086EA97E10E940C1E811148CF81E231
:103890008093EB0047CF813029F440E86BE08AE960
:1038A00097E1F1CF833099F70E947C12DC011296E8
:1038B000ED90FC908E010F5F1F4F6801E114F10441
:1038C00079F0D701ED91FC910680F781E02DB801E8
:1038D000C7010995080F111DF701E084F184EECFAF
:1038E000D8011C92F60101900020E9F73197BF0141
:1038F0006C197D0940E0C601C6CF64E877E1FB01A1
:10390000449150E080E80E943F1309CF973009F4BA
:10391000BECF983021F481E08093F10000CF993040
:1039200009F0FDCE837009F0B2CFECE1F1E081E067
:1039300031E096E32191222371F08093E9003093E6
:10394000EB00DF0111972C912093EC009093ED0098
:103950008F5F873079F78EE78093EA001092EA0054
:103960008F8980933702DBCE8B8D9C8D1092E9007E
:103970001092250210922402909323028093220237
:10398000898D811192C08E899D89913A49F4813245
:1039900009F07DCF47E050E067E071E080E0B3CF11
:1039A000913209F074CF833269F48F89988DB0E039
:1039B000A0E08093030190930401A0930501B093CC
:1039C0000601ADCE803269F48091E80082FFFCCF21
:1039D00067E087E091E00E9496138BEF8093E80008
:1039E0009ECE823209F09BCE8F8980930E01EEEF3E
:1039F000FFE7859194918B3F9C4D51F1E0E0F8E019
:103A00008091070190910801A0910901B0910A01EC
:103A1000803B9440A105B105F1F480910E0180FD39
:103A20001AC0EE3F8AE0F80789F587E797E79183A8
:103A30008083809160008093260288E19BE00FB62E
:103A4000F894A895809360000FBE9093600067CEB5
:103A5000EEEFFAE0D5CF808191818737974709F063
:103A60005ECEA8958091600088618093600080910F
:103A7000260280936000EE3F2AE0F20789F08091F1
:103A8000FE0A9091FF0A9183808349CE80819181C3
:103A90008737980751F29093FF0A8093FE0AC5CFAB
:103AA0001092FF0A1092FE0A3ACE0E947C12DC01AC
:103AB00012960D911C910115110509F4E8CED8015B
:103AC000ED91FC910190F081E02DBE016B5E7F4F86
:103AD000C8010995811123CEF80100851185EBCF2E
:103AE000181619060CF41BCED2CEF1E0FF12BECE92
:103AF00068E877E104CF0F920FB68F939F93EF930F
:103B0000FF9380915B018D5F8D3708F08D57809317
:103B10005B01E2E6F1E080818E4F808391819F4FCF
:103B2000918382818F4F828383818F4F8383ECE5E2
:103B3000F1E080818F5F808381818F4F81838281DB
:103B40008F4F828383818F4F83838FB18F6066997C
:103B50001C9B88278F3681F480915A01981B9630E0
:103B600068F0E0E0F8E087E78083818388E1809374
:103B70006000F0936000FFCF90935A01FF91EF91A6
:103B80009F918F910FBE0F9018951F920F920FB6B5
:103B90000F9211242F933F934F935F936F937F93D3
:103BA0008F939F93AF93BF93EF93FF9380915601B1
:103BB00090915701A0915801B09159010097A1052A
:103BC000B10539F120915501211105C0369A209196
:103BD000540121114F9A0197A109B109B7FD08C0FD
:103BE0008093560190935701A0935801B0935901C7
:103BF000FF91EF91BF91AF919F918F917F916F91C5
:103C00005F914F913F912F910F900FBE0F901F909A
:103C100018950E949314ECCFEF92FF920F931F938D
:103C2000CF93DF93F82E192FE62E042F81E0860F15
:103C3000880F0E94111383E00E941113CF2DD12F02
:103C4000EC0EFD2EF11CCE15DF05B9F007FF13C0F9
:103C5000FE0184910E941113182F80E00E9411131D
:103C6000812321968111EFCFDF91CF911F910F9189
:103C7000FF90EF9008958881EDCF81E0F5CFEAE4E1
:103C8000F8E01382128288EE93E0A0E0B0E0848333
:103C90009583A683B78386E291E0918380838FEF3B
:103CA0009FEF95878487EAEAF8E01382128288E31F
:103CB00091E0918380838BE590E19093A9088093B4
:103CC000A80880E090E89093A7088093A6084698FB
:103CD0003E9A5F98579A0895CDB7DEB72897DEBF12
:103CE000CDBF789483E084BD83E085BD81E080937F
:103CF0006E00E1E8F0E083E08083E0E881E080832B
:103D0000E1E983E08083E0E981E08083E1EC87E022
:103D10008083E3EC81E08083E0EC82E08083E2EC6E
:103D200081E08083EAE787E0808380688083109267
:103D3000370210922702109229028091D7008160E9
:103D40008093D70080EA8093D80089B5806189BDCF
:103D500089B5826089BD09B400FEFDCF81E090E0A5
:103D60000E94D0138091D8008F7C80618093D8000E
:103D70008091E000807F8093E0008091E1008E7E62
:103D80008093E1008DE08093E200559A209A81ECC7
:103D900080937C0081E785B987E684B985E38BB998
:103DA0008FE38AB9769A6E9880EF81BB10BA80E56E
:103DB0008CBD81E08DBD85E00E944E15599A85E04D
:103DC0000E944E155C98E2E3FBE085918EBD0000F9
:103DD0000DB407FEFDCFEC33C1F75C9A81E8809308
:103DE000640081E08093650080E00E9424120E94BC
:103DF000511587FF15C05C9885EA8EBD00000DB493
:103E000007FEFDCF5C9A2E9858982D9880916400FB
:103E100080628093640081E083BF889513BEFCCFED
:103E20000E94511582FF37C02D980E945115847849
:103E30008438A1F42D9A88EC0E944E1558986FEFA3
:103E400082E090E00E94FE2E84EF91E00E94D01369
:103E5000589A0E94511584788438D9F30E945115DC
:103E600084718431A1F42D9A88EC0E944E152E980D
:103E700060E082E090E00E94FE2E84EF91E00E94DC
:103E8000D0132E9A0E94511584718431D9F388EC95
:103E90000E944E15C5CF2D9A82E090E00E94F62E2A
:103EA0008823A1F10E945E1581E090E00E94F62E29
:103EB000182F147081FF0CC011112E98E1EFEE2E17
:103EC000FF24FA940E94511586FF23C02E9A589A17
:103ED00082E30E944E150E9451158111F9CF81E2B3
:103EE00080930001109221020E945D187CE0872ED1
:103EF00080916001882309F469C01092600180E01C
:103F000090E0892BA9F30E940000F0CF0E94591580
:103F1000CBCF112331F024E0E216F10411F42E9AF4
:103F2000589881E00E94241200E128E542E85AE016
:103F3000B70184E190E00E942C1180E00E942412DD
:103F40008FE00E944E153FEFE31AF30A49E1E416B1
:103F5000F10409F0B7CF112311F0589A2D9880E998
:103F600091E00E94D0132D9A81E090E00E94F62EFD
:103F700080FFAECF8AE090E00E94F62E9FEF980F70
:103F80009E3F08F0A5CF22E330E030933B02209320
:103F90003A0228E330E030933902209338020BE0F4
:103FA00010E0682F8AEA98E00E947F15C8010E94FD
:103FB000F62E0F5F1F4F0131110599F780E00E9427
:103FC000241288EE93E00E94D01382CF9091620178
:103FD00080916101592F581B852F209100015217A4
:103FE00048F48F5F821708F08ACF81E083BF8895FD
:103FF00013BE85CF81E08093600190936101ECE373
:10400000F2E08081918101968083918380912102E9
:104010008111B2C10E945115B82E80911F0290915A
:10402000200201969093200280931F0280911C022F
:1040300090911D02049690931D0280931C02209182
:104040001A0230911B02280F391F30931B02209354
:104050001A0221153240ECF018161906D4F420E0AB
:1040600032E030931B0220931A028136910534F01E
:1040700080E690E090931D0280931C0280911C02C8
:1040800090911D0291958195910990931D028093C5
:104090001C0280911902BEE68B9FC0011124885238
:1040A0009F4F880F892F881F990B8093190259EB16
:1040B000C52E51E0D52E09E112E0760164E3A62E6B
:1040C00099249A94F7018281811163C0A082809122
:1040D0001A0290911B0235E0959587953A95E1F784
:1040E00081830E949E2E20E130E040E050E00E945B
:1040F000102FD70113966C93139714961C92149754
:1041000012969C92F6E0EF0EF11C0E151F05D1F6EB
:10411000B3FC67C08B2D807679F08091B801811156
:104120000BC08AE08093B8018091B7018F5F823025
:1041300008F051C08093B701B2FE0EC08091B80163
:1041400081110AC08AE08093B8018091B60188236A
:1041500009F444C00E9459158091B801882319F0D0
:1041600081508093B80180911F0290912002883580
:10417000924008F46AC083E08093210280E490E0DA
:1041800090931B0280931A021092200210921F0239
:1041900058C08F3F19F081508283B4CF84818F5FE4
:1041A0008483803208F4AECFA08280911A0290916D
:1041B0001B0225E0959587952A95E1F781830E945A
:1041C0009E2E20E130E040E050E00E94102FF701E9
:1041D0006383148297CF1092B701AECF0E945E1511
:1041E000BBCF81E08093210210928A009FEF98BD9F
:1041F000109288001092B5011092B40110924302FF
:104200001092410293E090934202809344021092F4
:1042100045028093460280931E021092B3011092D1
:10422000B2019091B70191110AC095E090934202BA
:1042300092E09093440290934602809343020E943E
:104240001E1981E00E9424125ACEA0901902B12CAE
:1042500000E220E742E855E16DE070E0C5010E9410
:104260002C1160911A0270911B0205E075956795FB
:104270000A95E1F740EF54E180E290E00E945E1081
:104280008CE190E08A199B0990933B0280933A025B
:104290008CE290E090933902809338028FED94E1A4
:1042A0000E94E21580E490E08A199B0990933B02FA
:1042B00080933A0286E390E090933902809338022B
:1042C0008091B601882309F451C084ED94E10E94E5
:1042D000E2158CE090E08A199B0990933B02809351
:1042E0003A0286E390E090933902809338028091FD
:1042F000B701813009F03DC081EC94E10E94E215E4
:10430000D60112968C9112978F3F49F513966C91B6
:10431000B0E26B9FF0011124D60114966C911497B2
:104320006E0F7F2F711D660F771FFB01E654FF4E46
:10433000949165547F4EFB0164911196EC91119715
:10434000062E000C770B6E0F711D8C91E92F990FC3
:10435000FF0B41E08E0F9F2F911D0E946415B6E068
:10436000CB0ED11CEC14FD0459F66BCF88EC94E114
:10437000AECF8AEB94E1C2CF813011F00C94A62B22
:10438000E0913C02F0913D02FC83EB830E945115C9
:10439000182F8091B50181FF0BC08D7F80618093C4
:1043A000B5018AE58093B40188E590E10E943B1550
:1043B0008091B50182FF0BC09CE39093B4018B7F89
:1043C00088608093B5018EEB9FE00E943B15809141
:1043D000B401882309F4BAC181508093B4018111DA
:1043E000B5C18091B50183FF96C1877F8093B501E8
:1043F000909142029923F1F19150909342021092D0
:10440000450210924702109248021092400286E93B
:104410008093490288E18093410280E58093B10155
:1044200088E49FE00E943B15E9EBF1E089E192E02E
:10443000138236968E179F07D9F73091020160914B
:1044400001014AE452E090E03917F1F0FA0120E06E
:10445000621761F0808178EF780F743018F0805126
:10446000883108F410822F5F3196F2CF9F5F405E53
:104470005F4FEACF81608093B5018AE79EE00E949A
:104480003B1584EB8093B1018091B1018111D6C3BA
:104490008091B001882309F4D2C7813009F092C716
:1044A0008CE590E090933B0280933A0288E390E0A1
:1044B000909339028093380281E19CE00E94E215DA
:1044C00040EF54E168E170E082E590E00E945E1008
:1044D00010E000E0F12CE12C60913C0270913D0273
:1044E0006E0D7F1D6F717727600F711F660F771F2D
:1044F000FB01E654FF4E849165547F4EFB016491AD
:10450000062E000C770B685E7F4F082E000C990B6F
:1045100041E08A599F4F0E946415F3E0EF0EF11CB1
:10452000005E1F4F011522E01207B1F608E010E00F
:1045300010933B0200933A02109339020093380221
:1045400089E09CE00E94E21580911E020E941218F0
:1045500010933B0200933A0280E190E0909339027D
:104560008093380281E09CE00E94E2158091B201C4
:104570000E94121810933B0200933A0288E190E0E7
:10458000909339028093380289EF9BE00E94E215F4
:10459000809142020E94121810933B0200933A024B
:1045A00080E290E0909339028093380281EF9BE0A3
:1045B0000E94E215809144020E94121810933B025F
:1045C00000933A0288E290E0909339028093380297
:1045D00089EE9BE00E94E215809146020E9412182B
:1045E00010913C0213708091430281FFCCC638E0E9
:1045F000139FC0011124AC01415C504E7A0128E0A8
:1046000064E370E088E090E00E942C1143E85AE1F6
:1046100064E370E088E090E00E945E1028E0A7016B
:1046200064E370E082E190E00E942C1143E85AE1DB
:1046300064E370E082E190E00E945E100CE1E02E05
:10464000F12C8091430282FF17C098E0199FA001CE
:104650001124415C504E08E028E064E370E0C7019B
:104660000E942C1149EB5AE164E370E0C7010E94FB
:104670005E10AAE0EA0EF11C8091430283FF17C08E
:10468000B8E01B9FA0011124415C504E08E028E0D7
:1046900064E370E0C7010E942C1147EA5AE164E329
:1046A00070E0C7010E945E10EAE0EE0EF11C8091FE
:1046B000430284FF17C0F8E01F9FA0011124415C52
:1046C000504E08E028E064E370E0C7010E942C111E
:1046D00045E95AE164E370E0C7010E945E102AE0F8
:1046E000E20EF11C8091430285FFABCD38E0139FB1
:1046F000A0011124415C504E08E028E064E370E022
:10470000C7010E942C114DED5AE164E370E0C7012E
:104710000E945E1096CD84FF19C08F7E8093B501F4
:1047200080911E028F5F80931E02833350F0809130
:104730001E02833308F0EDC5109221020E945D181D
:1047400080CD0E941E1980E58093B1018091B10156
:10475000882319F081508093B1018091B1018111BA
:104760006DC29091B001012F047012FF48C080917A
:10477000B3018F5F8C3390F58093B301911142C0E8
:1047800070910201F0900101E0906E01D0906C01F7
:10479000C0906B01B0906A014AE452E020E07217C9
:1047A00009F475C0DA0130E0F31609F46CC06C91BD
:1047B000862F90E0FC01E852F24FE491EE2359F08D
:1047C000FB81EF2341F4653009F057C03E114EC024
:1047D0002D114CC08C923F5F1196E6CF1092B30121
:1047E000992349F01092B0011092190210921B0205
:1047F00010921A0249CE81E08093B001F5CF109259
:10480000B301BCCF13FF0DC080911902811109C003
:1048100082E0913009F081E08093B0018FE08093D5
:10482000190217FF0CC080911A0290911B021816F2
:1048300019062CF4019790931B0280931A0214FF1F
:104840000CC080911A0290911B02803191052CF4CA
:10485000019690931B0280931A028091190288237B
:1048600009F416CE8150809319020ECE3C1105C07A
:104870002B1103C088E28C93AECFFC01E855F24FB8
:10488000E491EC93A8CF2F5F405E5F4F88CF69EB38
:10489000262E61E0362E79E1A72E72E0B72E710147
:1048A000E0E29E2EF8E17F2EA0E16A2ED70113965A
:1048B0008C911397882349F112968C9112978F3F10
:1048C00021F18111BAC011966C9111978C91B0E2CF
:1048D0006B9F60011124C80ED11CF70194819111C6
:1048E00032C080914502815080934502F601E65B1B
:1048F000FD4F60828EE79DE00E943B15D701149624
:104900008C9114978F5F14968C93F6E0EF0EF11C48
:10491000AE14BF0459F62091410223FFF4C08091E8
:10492000B50184FDF0C024FD8CC0909140029F5FD2
:1049300090934002903208F4EAC0109241028460E1
:104940008093B501E0C0258120FF09C0F601E91B75
:10495000F109E65BFD4F208121113EC07082D70135
:1049600015968C91159781FF0BC014968C91F601CA
:10497000E80FF11DE65BFD4F9081911135C070820B
:10498000F701858182FF0DC08481F60120E2829FBC
:10499000E019F1091124E65BFD4F9081911132C0BD
:1049A0009082D70115968C91159783FF0EC01496AF
:1049B0006C91B0E26B9FF0011124EC0DFD1DE65BE4
:1049C000FD4F808181112BC09082F70194818381FA
:1049D000981394CF138292CF891B0E94DF17F7019F
:1049E00085818E7F8583BBCFF70190816181890F9F
:1049F0000E94DF17D70115968C9115978D7F15961C
:104A00008C93BECFD70111966C911197681B8C9136
:104A10000E94DF17F70185818B7F8583C2CFF70165
:104A20008181680F80810E94DF17D70115968C91D4
:104A30001597877F15968C93C8CF8150F701828395
:104A400064CF80914902882319F0815080934902F4
:104A5000809149029091430294FD05C181116BC17F
:104A600080913E0240913F02682F6695669566955B
:104A700070E0E42FE695E695E69530E2E39FF001DD
:104A80001124665B7D4FDB01AE0FBF1F9C919051DF
:104A9000983158F190E0079653E0959587955A958F
:104AA000E1F7865B9D4FE80FF91F308130513831B7
:104AB000E0F050E0495F5F4FB3E055954795BA95F8
:104AC000E1F735E0440F551F3A95E1F7640F751F84
:104AD000DB013C913051383140F0840F951FFC01CF
:104AE00080818051883108F0C0C02F7E2093410220
:104AF000809142028150809342021092400288E4E9
:104B00009EE00E943B158091410284FD46C38FEFD9
:104B100080938A008091AF01882319F0815080939F
:104B2000AF01AFE6EA2EA1E0FA2E312C212CD701FD
:104B30001296DC901297D3FE61C0D4FE31C30C9163
:104B4000602F66956695669511969C90492D4695C1
:104B500046954695E62FF0E0B0E24B9FC001112448
:104B60009F01265B3D4F38872F83D901A80FB91FBE
:104B70002C9120512831A8F1202F30E0290157E055
:104B8000450E511CF3E055944794FA95E1F7D20194
:104B9000A65BBD4F8A0F9B1FFC018081805188312D
:104BA00000F1892D90E03C01F7E06F0E711C73E07D
:104BB000759467947A95E1F75301E5E0AA0CBB1C64
:104BC000EA95E1F7EF81F885EA0DFB1D5081505120
:104BD000583138F0AA0DBB1D5C915051583108F086
:104BE000E8C26D2D6F7ED70112966C93129780915B
:104BF000B20181508093B20113961C92BFEF2B1A21
:104C00003B0AE4E0EE0EF11CF0E12F16310409F04E
:104C10008ECF8091B201811176C318BC80916E0154
:104C2000811174C38FEF809388008091B50180FF5C
:104C30002BCC8091B101882309F479CD8091B50105
:104C400080FF79C386E290E090933B0280933A0222
:104C500080E290E0909339028093380286E29CE0F3
:104C60000E94E215EECA811166C040913E0250E0FA
:104C70007A01F2E0EF0EF11C6A0135E0C30ED11C9F
:104C800060913F0270E02B0182E0480E511C5B01F5
:104C900095E0A90EB11CEFE6F1E0AFEA6A2EA1E0C3
:104CA0007A2E828184FF42C0808190E0E816F90666
:104CB00014F40C944C2EDC011596A417B5074CF493
:104CC000C816D9069CF0DC011296A417B5070CF49F
:104CD000DEC7A181B0E04A165B062CF01596A61738
:104CE000B7070CF002CFE816F9067CF0DC01159648
:104CF000A417B50754F0A181B0E0AA16BB062CF0AA
:104D00001296A617B7070CF0F0CEC816D90674F0A5
:104D100002968417950754F0818190E0A816B90691
:104D20002CF00296861797070CF0DFCE34966E169D
:104D30007F0609F0B6CF80916E01882309F443C045
:104D4000E0903F02F12CA4E0EA0EF11C43E0F59460
:104D5000E7944A95E1F755E0EE0CFF1C5A95E1F710
:104D600080913E0290E0049663E0959587956A9560
:104D7000E1F7E80EF91EF701E65BFD4F7F01808148
:104D80008C50843000F582E29EE00E943B15D701F2
:104D90001C9210926E01E0916D01E830A0F4F0E0F9
:104DA000EC52F94D0C94732FDC260A2712271E278C
:104DB000222726272A272E2780914402803118F4A3
:104DC0008F5F809344028091B20181114BC0E091CA
:104DD0003F02F0E03496B3E0F595E795BA95E1F738
:104DE00080913E0290E0049623E0959587952A9560
:104DF000E1F735E0EE0FFF1F3A95E1F7E65BFD4F77
:104E0000E80FF91F80818852883060F58091B501E4
:104E1000826096CD809146028831A8F68F5F80939C
:104E20004602D1CF8091430281FDCDCF80FF04C0E7
:104E3000826080934302C7CF8160FBCF80914302A1
:104E40008061F7CF809143028860F3CF8091430265
:104E50008460EFCF80EF8093AF01B5CF80914302A4
:104E60008062E7CF8091430281FD05C080FF76C15B
:104E7000BB81B0FD48CE112309F445CE13FF3CC0E1
:104E800090914502809144029817B0F5C0903E027F
:104E9000D12CE4E0CE0ED11CE3E0D594C794EA9582
:104EA000E1F7E0903F02F12CF4E0EF0EF11CF3E0AB
:104EB000F594E794FA95E1F75701A5E0AA0CBB1C1D
:104EC000AA95E1F7AC0CBD1C9501265B3D4F59013D
:104ED000D9018C91811110C0E9EBF1E0712C612CAA
:104EE0008381882309F4B0C6BFEF6B1A7B0A36961C
:104EF00020E162167104A1F70023D9F080914302EA
:104F000085FF17C090E080E0D10113962C91139794
:104F1000222309F439C112962C91222309F434C1B9
:104F200026E0289FF001299FF00D1124E754FE4F41
:104F30001282812F807621F08FE392E00E94D117B8
:104F4000812F807921F08EE392E00E94D117409169
:104F500047024423E9F080913F0290E0049663E029
:104F6000959587956A95E1F720913E0230E02C5F98
:104F70003F4F73E0359527957A95E1F7421304C0CA
:104F800090914802891721F010924702109248022E
:104F900015FF3AC0809141028C7F809341020091BD
:104FA0003E02802F90E07C01E1E0EE1AF108F7FE6E
:104FB00004C07C01F6E0EF0EF11C43E0F594E794A9
:104FC0004A95E1F760913F02C62ED12C27E0C20E30
:104FD000D11C53E0D594C7945A95E1F76695669530
:104FE00066958E2D0E94D411882371F06C2D8E2D24
:104FF0000E94D411882341F0809140028F5F8093FA
:105000004002015000933E0216FF34C080914102DD
:105010008C7F81608093410200913E02E02EF12C52
:1050200038E0E30EF11C23E0F594E7942A95E1F7CC
:1050300060913F02C62ED12C47E0C40ED11C33E054
:10504000D594C7943A95E1F76695669566958E2D49
:105050000E94D411882371F06C2D8E2D0E94D411E2
:10506000882341F0809140028F5F809340020F5F60
:1050700000933E0217FF3BC0809141028C7F82600B
:105080008093410200913F02802F90E07C0151E02B
:10509000E51AF108F7FE04C07C01A6E0EA0EF11C57
:1050A00083E0F594E7948A95E1F780913E02C82E5B
:1050B000D12CB7E0CB0ED11C93E0D594C7949A9530
:1050C000E1F76E2D8695869586950E94D4118823EA
:1050D00071F06E2D8C2D0E94D411882341F08091A7
:1050E00040028F5F80934002015000933F0214FF03
:1050F0000ACD80914102836080934102D0903F02AB
:105100000D2D10E0085F1F4FB3E015950795BA9578
:10511000E1F780913E02E82EF12CE7E0EE0EF11C63
:1051200013E0F594E7941A95E1F7602F869586953C
:1051300086950E94D411882309F4E5CC602F8E2D2A
:105140000E94D411882309F4DECC809140028F5F45
:1051500080934002D394D0923F02D5CC8B819C8126
:1051600083709927892B09F486CECDCC8FEF82836B
:1051700086E0869DF001879DF00D1124E754FE4FD7
:1051800014828FE08583B8CE0196B6E02B0E311CD9
:105190008031910509F0B8CECCCE10928A00BACCFD
:1051A000F70183818F5F8383803208F427CD1282D9
:1051B00025CD5091AF01511121CDAB81BC81A20D04
:1051C000B31DF7015381E52FF0E0EE0FFF1FE1550E
:1051D000F84E1491512F5370D1F5A770BB27AB2B0C
:1051E00009F00CCDFD2DF370CF2E52E0F517C1F173
:1051F000A3E0FA1709F484C0B1E0FB1769F1590183
:10520000E1E0AE1AB108B7FE04C05901F6E0AF0EF6
:10521000B11C23E0B594A7942A95E1F76A2D812F5C
:105220000E94BC17462D6A2D811131C00E949E2E0E
:1052300024E030E040E050E00E94102F6370FD2D2C
:10524000FC7FDF2ED62AD7011296DC92D7CC5130C4
:1052500049F6A370BB27C3CF285F3F4F5901D9CF71
:105260005C0121E0A21AB108B7FE04C05C0136E07F
:10527000A30EB11C93E0B594A7949A95E1F74A2D3B
:10528000812F0E94BC17882389F24A2D642D812F1B
:105290000E94BC17882351F28C2D90E0FC01E95E3E
:1052A000FE4F2081020FD7010C938D5E9E4FFC01B3
:1052B0008081980E11969C9213FFA0CC092907704B
:1052C00009F09CCC0E949E2E2AE030E040E050E0A5
:1052D0000E94102F672B682B692B09F08FCCD70108
:1052E00012961C911C7F0E949E2E24E030E040E02C
:1052F00050E00E94102F6370162BF70112837ECCB2
:1053000008965C01B7CF8FEF88BD88CC10928800DB
:105310008CCC82E08093210280E48093190288EF94
:105320009FEF90931B0280931A0280E39CE00E94FF
:105330003B150C9421210AE210E010933B020093EC
:105340003A0280E290E090933902809338028FE134
:105350009CE00E94E21580911E020E941218109398
:105360003B0200933A0288E390E0909339028093E5
:10537000380288E19CE00E94E215809142020E947E
:1053800012180C942121A8E0EA2EF12C80FF59C9B3
:1053900088E0189FA0011124415C504E08E028E0ED
:1053A00064E370E088E090E00E942C1143E85AE149
:1053B00064E370E088E090E00E945E10B2E1EB2EC2
:1053C000F12C3FC9E0901A02F0901B028827992720
:1053D0008E199F099A838983BE016F5F7F4F88E092
:1053E00090E00E94FD1501E020E446E070E060E0FE
:1053F00089E790E00E94801700E02EE344E061E03E
:1054000070E08AE790E00E94801784E38E9DB001EF
:105410008F9D700D112477FF02C0615F7F4FF4E014
:1054200075956795FA95E1F76E5F7F4F01E028E08B
:1054300042E08BE790E00E9480170C94212120919C
:105440000101213109F047C08CEF9FEF9093690172
:1054500080936801A090020149E0A41269C08CEF1A
:105460009FEF9093670180936601B12CF12CE12CA2
:10547000AB1409F490C06701CC0CDD1CCC0CDD1C16
:1054800010E080910101181708F080C0812F90E092
:10549000F601E80FF91FE65BFD4F4081A8E04A9F47
:1054A000A00111244152514E609166017091670133
:1054B0006E0D7F1D23E0880F991F2A95E1F7E0917B
:1054C0006801F091690108E028E08E0F9F1F0E949B
:1054D0002C111F5FD6CF30913E028CE390E0831BEE
:1054E000910930E0A901E3E0440F551FEA95E1F787
:1054F000480F591F403851058CF0909369018093F3
:1055000068018091680190916901181619060CF0E4
:10551000A1CF10926901109268019CCF80E190E0C8
:10552000821B930B73E0880F991F7A95E1F7E5CF03
:1055300020913F028CE190E0821B91094A2D50E0BE
:105540009A0163E0220F331F6A95E1F7280F391F94
:10555000203431058CF0909367018093660180912F
:10556000660190916701181619060CF07ECF109213
:1055700067011092660179CF88E090E0841B950B5B
:1055800043E0880F991F4A95E1F7E5CFB394B8E05F
:10559000EB0EF11C6DCF60916C0180916E0170E09B
:1055A000FB0105E0EE0FFF1F0A95E1F790E0E80F21
:1055B000F91FE65BFD4F20812C50243028F5209107
:1055C0006D0130E0205E3F4FE2E1E29FA001E39FEA
:1055D000500D1124415E574EB3E0660F771FBA9508
:1055E000E1F72091660130916701620F731F13E0AC
:1055F000880F991F1A95E1F7209168013091690190
:10560000820F931F0E945E108091410283FF33C07E
:105610004091400284FF86C043708370813009F45A
:105620004C5F8250823008F4485F809149028823A1
:1056300009F473C080913C0290913D0283709927D8
:105640000297CCF4E2E14E9FA0011124415E574E37
:1056500060913F028091660190916701680F792FF8
:10566000711D20913E028091680190916901820F25
:10567000911D0E945E100FE611E0F12CE12CA2E1D9
:10568000DA2EF801B281B3FF3CC08091AF01A701CF
:10569000811106C040913C0250913D024E0D5F1DAC
:1056A000F801238181816091660170916701680F23
:1056B000711D30818091680190916901830F911D66
:1056C000B4FF3EC030E0220F331FF901E255F84E1F
:1056D000A491F901E155F84EE4919A013695279588
:1056E00036952795E5FF27C027702A0F3327331FEC
:1056F000D29EA001D39E500D1124415E574E0E94B0
:105700005E10FFEFEF1AFF0A0C5F1F4F20E1E21659
:10571000F10409F0B6CF0C942121F2E14F9FA001D2
:10572000112494CF469546954695445F22E1429FC9
:10573000A00111248BCF2370B0FFD7CF2C5FD5CF22
:105740002695269530E0285E3F4FD2CF823009F073
:10575000B7C000913C0210913D020E945115980182
:10576000332707701127012B09F492C023703327C8
:10577000232B09F49CC00091190210E033E1E32EC1
:10578000F12CF0923B02E0923A021093390200931E
:10579000380289ED9BE00E94E2158AE090E0909348
:1057A0003B0280933A02C8010A9690933902809393
:1057B000380286EC9BE00E94E2158AE590E0909327
:1057C0003B0280933A02C801449690933902809339
:1057D00038028FEB9BE00E94E215F0923B02E092D0
:1057E0003A02C8014E9690933902809338028FEAAC
:1057F0009BE00E94E2158BE290E090933B02809345
:105800003A02085D1F4F109339020093380287EA6D
:105810009BE00E94E21500E028E040E868E370E0C9
:1058200090E080E00E94801710E0F12CE12C312FF5
:1058300031703D831E824D815E814A5F5F4F23E060
:10584000440F551F2A95E1F74152514E08E028E0D8
:1058500068E370E0C7010E942C111F5F48E0E40E6E
:10586000F11C103121F780911A0290911B029C01CA
:10587000237033272C5F3F4F62E1629FA001639F3B
:10588000500D1124415E574E60E370E00C94882364
:1058900080911A0290911B02019690931B028093B3
:1058A0001A02883791050CF461CF0C949C238091E7
:1058B0001902882309F45FCF8150809319025BCFCE
:1058C000833011F00C94212110913C020E9451155B
:1058D00020911F02309120022F5F3F4F3093200212
:1058E00020931F0281110C949C232835324010F024
:1058F0000C949C2310FD09C080911A0290911B0208
:10590000019790931B0280931A0290ECA92EBB245E
:10591000BA94C0901A02D0901B027601D7FE03C041
:1059200083E0E80EF11CF594E794F594E794EA0C13
:10593000FB1C08E028E04FEE5EE1B70190E080E05C
:105940000E942C1128E04FEE5EE1B70188E790E05D
:105950000E942C1198E0A90EB11CA0E8AA16B1046F
:10596000C1F6DA82C98200E110E010933B02009395
:105970003A02D0923902C09238028CE99BE00E9430
:10598000E21588E99BE00E94E21589819A810A96D6
:105990009A83898310933B0200933A0290933902D1
:1059A000809338028AE89BE00E94E21589819A81FF
:1059B0009C012C5E3F4F3A8329834B968734910597
:1059C00060F410933B0200933A0230933902209323
:1059D00038028AE79BE00E94E21589819A810A9643
:1059E0009A838983BE016F5F7F4F80E190E00E94C0
:1059F000FD1589819A819C012C5E3F4F3A83298352
:105A00004B968734910570F480E190E090933B02CF
:105A100080933A0230933902209338028BE69BE060
:105A20000E94E21589819A81BC01665F7F4F7A836B
:105A30006983419687349105B8F440913C025091B6
:105A40003D0280E00E94FF1189819A812AE130E0C5
:105A500030933B0220933A029093390280933802AC
:105A600084E69BE00E94E21589819A81BC01665F11
:105A70007F4F7A836983419687349105B8F44091CA
:105A80003C0250913D0281E00E94FF1189819A8180
:105A90002AE130E030933B0220933A02909339029E
:105AA000809338028FE59BE00E94E21589819A81FC
:105AB000BC01665F7F4F7A83698341968734910585
:105AC000B8F440913C0250913D0282E00E94FF11E7
:105AD00089819A812AE130E030933B0220933A0297
