:100000000C941C050C9444050C9444050C94440574
:100010000C9444050C9444050C9444050C9444053C
:100020000C9444050C9444050C94940F0C94031008
:100030000C9444050C9444050C9444050C9444051C
:100040000C9444050C9444050C9444050C9444050C
:100050000C9444050C9444050C9444050C943512FE
:100060000C9444050C9444050C9444050C944405EC
:100070000C9444050C9444050C9444050C944405DC
:100080000C9444050C9444050C9444050C944405CC
:100090000C9444050C9444050C9444050C944405BC
:1000A0000C9444050C9444050C9444050D1279DC21
:1000B000BCBCFC780C1278DCBCBCFC783C42A9A926
:1000C00081817E183C42A5A581817E183C42959590
:1000D00081817E183C42818181817E187D2E7D3C0C
:1000E000546A3C287D2E7D3C562A3C287D2E7D3C42
:1000F000566A3C283C283C3C546A3C283C283C3C02
:10010000562A3C283C283C3C566A3C28BE74BE3CDF
:10011000546A3C14BE74BE3C562A3C14BE74BE3CA9
:10012000566A3C143C3C3C3C546A3C283C3C3C3CBD
:10013000562A3C283C3C3C3C566A3C2850210A212B
:100140009840840A00522C2244344A0000102C3A71
:100150005C340800FDFDFDFDFDFD01FF0066FFFFB5
:10016000FF7E3C1880FF3020FF0604FF2020202067
:1001700020202052554E4E45520053454520594FA0
:100180005520414741494E20494E204C4F4445009F
:100190002020202020202052554E4E455200204243
:1001A0004F4D424552204D414E204245434F4D4513
:1001B0005300434F4E47524154554C4154494F4EC2
:1001C00053004C4556454C0000000000003E5B4F7C
:1001D0005B3E3E6B4F6B3E1C3E7C3E1C183C7E3CA7
:1001E000181C577D571C1C5E7F5E1C00183C1800B5
:1001F000FFE7C3E7FF0018241800FFE7DBE7FF3045
:10020000483A060E2629792926407F050507407FB2
:1002100005253F5A3CE73C5A7F3E1C1C08081C1C25
:100220003E7F14227F22145F5F005F5F06097F011B
:100230007F006689956A606060606094A2FFA29406
:1002400008047E040810207E201008082A1C0808D4
:100250001C2A08081E101010100C1E0C1E0C303822
:100260003E3830060E3E0E06000000000000005F23
:1002700000000007000700147F147F14242A7F2A3F
:100280001223130864623649562050000807030001
:10029000001C2241000041221C002A1C7F1C2A084D
:1002A000083E0808008070300008080808080000B0
:1002B00060600020100804023E5149453E00427F24
:1002C000400072494949462141494D331814127F73
:1002D0001027454545393C4A494931412111090713
:1002E0003649494936464949291E00001400000094
:1002F0004034000000081422411414141414004166
:1003000022140802015909063E415D594E7C121122
:10031000127C7F494949363E414141227F4141415A
:100320003E7F494949417F090909013E41415173D5
:100330007F0808087F00417F41002040413F017F46
:10034000081422417F404040407F021C027F7F040E
:1003500008107F3E4141413E7F090909063E415157
:10036000215E7F09192946264949493203017F0147
:10037000033F4040403F1F2040201F3F4038403F48
:10038000631408146303047804036159494D43005E
:100390007F4141410204081020004141417F040295
:1003A000010204404040404000030708002054542C
:1003B00078407F284444383844444428384444280A
:1003C0007F385454541800087E090218A4A49C785D
:1003D0007F0804047800447D40002040403D007FB9
:1003E0001028440000417F40007C047804787C0899
:1003F0000404783844444438FC182424181824246D
:1004000018FC7C08040408485454542404043F4451
:10041000243C4040207C1C2040201C3C4030403C80
:1004200044281028444C9090907C4464544C4400E0
:100430000836410000007700000041360800020144
:100440000204023C2623263C1EA1A161123A404030
:10045000207A3854545559215555794121545478AE
:1004600041215554784020545579400C1E52721247
:1004700039555555593954545459395554545800CF
:1004800000457C410002457D420001457C40F02949
:100490002429F0F0282528F07C5455450020545498
:1004A0007C547C0A097F49324949493232484848DC
:1004B00032324A4848303A4141217A3A4240207823
:1004C000009DA0A07D39444444393D4040403D3C1E
:1004D00024FF2424487E4943662B2FFC2F2BFF0941
:1004E00029F620C0887E0903205454794100004435
:1004F0007D413048484A32384040227A007A0A0A20
:10050000727D0D19317D2629292F28262929292692
:1005100030484D4020380808080808080808382FD7
:1005200010C8ACBA2F102834FA00007B0000081461
:100530002A142222142A14089500220095AA005594
:1005400000AAAA55AA55AA000000FF00101010FF2B
:1005500000141414FF001010FF00FF1010F010F032
:10056000141414FC001414F700FF0000FF00FF1423
:1005700014F404FC141417101F10101F101F14146F
:10058000141F00101010F0000000001F10101010B9
:100590001F10101010F010000000FF1010101010AD
:1005A00010101010FF10000000FF140000FF00FFEB
:1005B00000001F10170000FC04F414141710171487
:1005C00014F404F40000FF00F714141414141414A9
:1005D000F700F7141414171410101F101F1414141C
:1005E000F4141010F010F000001F101F0000001F86
:1005F00014000000FC140000F010F01010FF10FFB9
:10060000141414FF141010101F00000000F010FF4D
:10061000FFFFFFFFF0F0F0F0F0FFFFFF0000000031
:1006200000FFFF0F0F0F0F0F38444438447C2A2A75
:100630003E147E02020606027E027E026355494196
:10064000633844443C04407E201E2006027E0202A1
:1006500099A5E7A5991C2A492A1C4C7201724C30B5
:100660004A4D4D303048784830BC625A463D3E498C
:100670004949007E0101017E2A2A2A2A2A44445F30
:10068000444440514A444040444A51400000FF0124
:1006900003E080FF000008086B6B08361236243632
:1006A000060F090F06000018180000001010003097
:1006B00040FF0101001F01011E00191D1712003C1F
:1006C0003C3C3C00000000008D14A1C881CFD9F152
:1006D00002AF070605040100080A0B0C0D092A00E9
:1006E00041424F555400504C415900722510945EC0
:1006F0008A25169448AA3D56F5488A255095487390
:10070000A4A0928800000004000000000200000085
:10071000000A0000000553F800002EAAA8000055AA
:100720000038000031A2A000004000200001E0AA33
:10073000A00001410030001BA3AAF80015401300DF
:10074000000FE00A000055500A0001BBBA04000582
:10075000555500000FFFFF800015555540001BBB8D
:10076000BB800015555540006FEFEFE00055555523
:1007700050003BBBBBB0005555555000FFFFFFF884
:10078000005555555000BBBBBBB8005555555000E2
:10079000EFEFEFE80055555550003BBBBBB000559F
:1007A000555550007FFFFFF00015555540003BBBED
:1007B000BB800015555540000FEFEF8000055555E3
:1007C000000001BBB800000055500000001FC00031
:1007D00000FF00000030000000000000FF000000EB
:1007E00030000000000000C1800000300000000068
:1007F0000000C180000030000000000000C1800047
:100800000030000000000000C18000003000000047
:10081000000000C1878FFE3F0F8F3FF0F8FCC187BB
:100820008FFE3F0F8F3FF0F8FCFF1CCE673399CE51
:1008300033198CC6FF1CCE673399CE33198CC6C1D1
:100840009CCE67339FCC33187CC6C19CCE6733984F
:100850000C3318CCC6C19CCE6733980C3318CCC669
:10086000C19CCE6733980C33198CC6C19CCE6733BC
:10087000980C33198CC6C19CCE673399CC33198C34
:10088000C6C19CCE673399CC33198CC6FF078E67DF
:100890003F0F8C3318FCC6FF078E673F0F8C331851
:1008A000FCC600000000000000000000008A028A70
:1008B000020A0A88020888825505044515050411B4
:1008C00010544480888A2222888822088882411411
:1008D000444511114411110444808888202088085F
:1008E00020088880411444451110041111044480EB
:1008F000888A2222880822088882411444451110DF
:10090000041110444480888A02028A8802080882FE
:100910005514444511114411110444AA088A222295
:10092000888A22088882410505541505051550500E
:1009300054808088A828088828A0A8A84100000022
:100940001000000000000080800000200000000077
:100950000000410000001000000000000080800046
:100960000000000000000000550000001000000022
:10097000000000AA00000020000000000000416EFE
:1009800079206B6579206261636B2E2E2E00003119
:100990003238313730323539344071712E636F6DF2
:1009A00000452D6D61696C004C4857204172740000
:1009B0004C48572070726F6772616D6D696E670089
:1009C00000203E41626F757400080B0002020200B5
:1009D00000090400000102020000052400100105C6
:1009E00024010101042402060524060001070581F3
:1009F0000310004009040100020A0000000705027C
:100A000002400000070583024000000403090412AD
:100A1000010002EF02014041233680000101020380
:100A20000141726475696E6F204C4C430041424134
:100A30003131303600007F1211241FBECFEFDAE0D3
:100A4000DEBFCDBF11E0A0E0B1E0E2ECFAE202C00F
:100A500005900D92AC35B107D9F728E0ACE5B1E0CF
:100A600001C01D92AB31B207E1F715E0CCE1D5E052
:100A700004C02197FE010E945915CB31D107C9F757
:100A80000E949C120C945F150C940000FC01809154
:100A9000C607882311F13FB7F89482E08093E900FC
:100AA0002091F200822F90E01816190614F481E0CC
:100AB00090E0882339F0289844E64093C507409198
:100AC000F1004083222339F02091F200211103C06C
:100AD0002BE62093E8003FBF08958FEF9FEF089526
:100AE0002FB7F89483E08093E9009091E800892F74
:100AF000807295FF04C09091F20080E4891B2FBFA3
:100B000008958091BD0781110DC082E08093B907DF
:100B100084E08093BA071092BC071092BB0781E073
:100B20008093BD0789EB97E00895CF93DF931F92E1
:100B3000CDB7DEB76983DC01ED91FC910280F381D2
:100B4000E02D41E050E0BE016F5F7F4F09950F90AF
:100B5000DF91CF91089583E08093E9008091F200C6
:100B6000882319F08AE38093E80008950E947005B5
:100B700090E00895CF93DF931F92CDB7DEB7FC01CD
:100B80008485958597FD08C02FEF3FEF3587248733
:100B90000F90DF91CF910895CE0101960E944605F6
:100BA000019719F4898190E0F3CF8FEF9FEFF0CF99
:100BB0000F931F93CF93DF931F92CDB7DEB78C01B6
:100BC000FC018485958597FF0BC0CE0101960E949C
:100BD0004605019771F4898190E0F8019587848733
:100BE000F801848595850F90DF91CF911F910F912A
:100BF00008958FEF9FEFF1CFFC018485958597FDD8
:100C00000BC09FB7F89482E08093E9008091F200D6
:100C10009FBF90E0019608959FB7F89482E080937B
:100C2000E9008091F2009FBF90E008954091B307E2
:100C30005091B4072091B1073091B2074217530782
:100C4000B4F49091E8009570E1F39091E80092FD82
:100C500019C08093F1008091B3079091B407019679
:100C60008F739927892B19F48EEF8093E800809178
:100C7000B3079091B40701969093B4078093B3079C
:100C800081E0089580E00895EF92FF920F931F9303
:100C9000CF93DF93F82E192FE62E042F81E0860FD5
:100CA000880F0E94160683E00E941606CF2DD12FD2
:100CB000EC0EFD2EF11CCE15DF05B9F007FF13C0B9
:100CC000FE0184910E941606182F80E00E941606ED
:100CD000812321968111EFCFDF91CF911F910F9149
:100CE000FF90EF9008958881EDCF81E0F5CFDF92FE
:100CF000EF92FF920F931F93CF93DF93D82E8A0129
:100D0000EB017B01E40EF51ECE15DF0559F0D7FE91
:100D100012C0FE0184910E94160621968111F4CF23
:100D20000FEF1FEFC801DF91CF911F910F91FF903F
:100D3000EF90DF9008958881EECF0F931F93CF93AC
:100D4000DF931F92CDB7DEB782E0898342E450E0A3
:100D500069EC79E080E80E9477060E948105DC0159
:100D600012960D911C910115110589F0D801ED9194
:100D7000FC910280F381E02DBE016F5F7F4FC801BF
:100D8000099597FD04C0F80100851185ECCF898194
:100D90000F90DF91CF911F910F910895615030F026
:100DA0002091F100FC0120830196F8CF289884E679
:100DB0008093C5070895AF92BF92CF92DF92EF92D2
:100DC000FF920F931F93CF93DF936C017B018B01F5
:100DD000040F151FEB015E01AE18BF08C017D10745
:100DE00059F06991D601ED91FC910190F081E02DCF
:100DF000C6010995892B79F7C501DF91CF911F9124
:100E00000F91FF90EF90DF90CF90BF90AF9008953B
:100E1000FC010E94A307319728F068517C4F8F4F47
:100E20009F4FF9CFAB01FC010E94A3076417750720
:100E30008E079F07C8F3089585E090E00C9408079B
:100E40008F929F92AF92BF92CF92DF92EF92FF92DA
:100E50000F931F93CF93DF936C017B018A018091E5
:100E60000B01882309F45AC08091C607882309F42E
:100E700055C08091B80780FF05C08091E000826076
:100E80008093E000E801B12C8AEFA82E93E0892E30
:100E90002AE3922E209711F4BB20C9F10E9470051D
:100EA000811108C0AA94AA20C9F181E090E00E94B3
:100EB0000807F0CF8C171D0611F00CF08C2F9FB790
:100EC000F8948092E9002091E80025FD02C09FBFC0
:100ED000E1CF282F30E0C21BD30BF701815020F067
:100EE00041914093F100FACFE20EF31EBB2021F0B6
:100EF0009092E800B12CEBCF8091E80085FDE7CF20
:100F00009092E800BB24B394209709F3F3CF5D9847
:100F100084E68093B707101611063CF081E090E05C
:100F2000F6019383828310E000E0C801DF91CF9146
:100F30001F910F91FF90EF90DF90CF90BF90AF90F7
:100F40009F908F900895A5EDB5E02FB7F8947D910F
:100F50008D919C9166B52FBFA89B05C06F3F18F47B
:100F60007F5F8F4F9F4F22E0660F771F881F991F6B
:100F70002A95D1F70895AB01FC010E94A3074150C7
:100F80005109E109F10928F068517C4F8F4F9F4FBB
:100F9000F6CFAB01FC010E94A307641775078E070B
:100FA0009F07C8F308952FB7F8946091D105709109
:100FB000D2058091D3059091D4052FBF08958FB1AC
:100FC0008095807F669B88601C9B8460089590E07C
:100FD000EFECF1E091119FEF8FEF9193919391934B
:100FE00091938150D0F71092DA051092D9051092A2
:100FF000DC051092DB050895EFECF1E080E030EBCA
:1010000020E146E05C983EBD4A95F1F72EBD20E810
:10101000239507C0449140815C9A4EBD8111412DBA
:10102000419344912A95B1F73395383B49F70DB474
:10103000089580389105B8F460347105A0F490E10A
:1010400021E061FD24E060FD220F62FD2295687FB2
:10105000969FD0011124A80FA153BE4F0C90022AD5
:1010600040FF02260C9208958F929F92AF92BF92FA
:10107000CF92DF92EF92FF920F931F93CF93DF9364
:101080006D3089F0C090D905D090DA056A30D1F47E
:101090001092DC051092DB0588E0C80ED11CD092BE
:1010A000DA05C092D90581E090E0DF91CF911F91E0
:1010B0000F91FF90EF90DF90CF90BF90AF909F90F7
:1010C0008F9008950091DB051091DC05E5E06E9F9F
:1010D000E0011124C853DE4F4801F12CF5E0E12C6A
:1010E000FF1629F0CE010196FE01E490EC01B12C2F
:1010F000A12C4E2D4170B6016A0D7B1DC4010E94CA
:101100001908E694FFEFAF1ABF0A88E0A816B104E9
:1011100081F7F394EFEF8E1A9E0AF6E0FF12DECF0E
:101120000A5F1F4F1093DC050093DB05BCCF2F92A5
:101130003F924F925F926F927F928F929F92AF9267
:10114000BF92CF92DF92EF92FF920F931F93CF93B4
:10115000DF9300D01F92CDB7DEB7C22ED12C9601FF
:10116000280F391F121613060CF058C0803891054D
:101170000CF054C010E09801260F371F121613060A
:101180000CF04CC0603471050CF048C0E9823A01A3
:101190007B836A832C01160127E0220E311C93E029
:1011A000359427949A95E1F75B01912C812CF12CD1
:1011B000E12CF70183E0F595E7958A95E1F7E80DD5
:1011C000F91DE60DF71DE491C7018770992720E806
:1011D00030E002C0359527958A95E2F7C901F0E025
:1011E000E223F923EF2B39F04981B501C2018E0DBD
:1011F0009F1D0E9419083FEFE31AF30AEC14FD0447
:10120000C4F2820C931C8FEFA81AB80AC5012A8178
:101210003B81821B930B801791074CF20F900F902C
:101220000F90DF91CF911F910F91FF90EF90DF9082
:10123000CF90BF90AF909F908F907F906F905F9076
:101240004F903F902F900895813019F128F182300E
:1012500031F1833031F1892F990F990B860F911D50
:101260003FE0389FF001399FF00D1124E152FA4F11
:10127000E40FF11DE20FF11D27FDFA9590819130E9
:1012800099F0923089F081E0933071F08093AC0155
:10129000089520E091E0DFCF2FEF90E0DCCF21E058
:1012A000FCCF20E09FEFD7CF80E0F0CF2F923F928E
:1012B0004F925F926F927F928F929F92AF92BF9266
:1012C000CF92DF92EF92FF920F931F93CF93DF9312
:1012D000D0E0C0E0D12CC12C41E0B601CE010E948B
:1012E00019082FEFC21AD20A80E4C816D104A1F758
:1012F0002196C038D10571F78091A5011CEF180F18
:10130000C82ED12C160194E0290E311C83E090E008
:101310002C014C185D08812E012E000C9908281410
:1013200039040CF4D6C0C091A60168EFF62EFC0E6D
:101330005201A80CB91C73E0AA0CBB1C7A95E1F70A
:10134000D0E03E01A9E06A0E711C2F978F2D0F2C63
:10135000000C990B681679060CF4B9C0BEE1BF15F4
:10136000B0F01F30A0F42FE0289FF001299FF00D6E
:101370001124E152FA4FE80DF91D2081233009F4C0
:101380005AC038F4213019F1223009F43DC0F394E9
:10139000DDCF253009F484C008F46BC02630B9F7DE
:1013A0002091A201B501620F711D27FD7A958C1B5A
:1013B0009D0B0897A3E0880F991FAA95E1F730913C
:1013C000A101E12C08E028E04CE351E016C0209197
:1013D000A201B501620F711D27FD7A958C1B9D0B33
:1013E000089753E0880F991F5A95E1F73091A101B2
:1013F000E12C08E028E044E551E0830F911D37FD22
:101400009A950E949708C3CF2091A201B501620F5F
:10141000711D27FD7A958C1B9D0B089743E0880F63
:10142000991F4A95E1F73091A101E12C08E028E0ED
:1014300044E651E0E2CFE0916201F0E0EE0FFF1FE1
:10144000E05FFE4F408151812091A201B501620F02
:10145000711D27FD7A958C1B9D0B089733E0880F33
:10146000991F3A95E1F73091A101E12C08E028E0BD
:10147000C4CF2091A201B501620F711D27FD7A959D
:101480008C1B9D0B089703E0880F991F0A95E1F7C5
:101490003091A101E12C08E028E04CE451E0ADCF0F
:1014A0002091A201B501620F711D27FD7A958C1B59
:1014B0009D0B0897B3E0880F991FBA95E1F730911B
:1014C000A101E12C08E028E044E451E096CF1F5F41
:1014D00022CF809162018F5F823008F0ADC080938F
:1014E00062011091B007112309F47EC0F1ECAF2E18
:1014F000F1E0BF2ECDEAD1E087E0C81AD108D501CE
:10150000ED915D01EF3F89F1F0E0EE0FFF1FEC5E22
:10151000FE4F40815181698170E06C197D096450F2
:10152000710933E0660F771F3A95E1F78091A201C8
:10153000680F711D87FD7A95888190E02091A60142
:101540002F50330B821B930B0897E3E0880F991FF2
:10155000EA95E1F73091A101E12C08E028E0830F42
:10156000911D37FD9A950E9497082296BBECAB1609
:10157000B1E0BB0621F60E94D3078090A7019090AE
:10158000A801A090A901B090AA0128E8820E23E149
:10159000921EA11CB11CC0916301681579058A05D2
:1015A0009B0508F44CC08091A401EC2FF0E093E07F
:1015B000899FE00DF11D1124EE0FFF1FE45EFE4F29
:1015C00040815181E12C08E028E068E170E088E387
:1015D00090E00E9497088091A3018823C9F1CF5F12
:1015E000C0936301C330E0F5D0E0C0E088E3C82ECB
:1015F000D12C40E0B601CE010E941908BFEFCB1AF2
:10160000DB0A20E4C216D104A1F72196C038D10527
:1016100069F7D0E0C0E0F12CF11629F1EE24E39453
:1016200008E028E04CE551E068E370E0CE010E945C
:101630009708F3942996F0CF1092620152CFC1110E
:10164000CACFE091A401A3E0EA9FF0011124B4CF36
:101650000E94D307681579058A059B0508F4BFCF5A
:1016600010926301C1CFDF91CF911F910F91FF9035
:10167000EF90DF90CF90BF90AF909F908F907F9032
:101680006F905F904F903F902F900C94FC078FEFDE
:101690008093DD050E94DF0787FD1092DD050E9423
:1016A000DF0784FF03C081E08093DD050E94DF0730
:1016B00085FF03C082E08093DD050E94DF0786FF7F
:1016C00003C083E08093DD050E94DF0783FF03C032
:1016D00084E08093DD050E94DF0782FF03C085E080
:1016E0008093DD050895089590E080E0089542E03C
:1016F00050E069E571E087E198E00C94DB060F9318
:101700001F93CF93DF938C01D0E0C0E0F801EC0F82
:10171000FD1F6491662341F087E198E00E94340840
:10172000892B11F02196F2CF0E94770B8C0F9D1F11
:10173000DF91CF911F910F910895CF92DF92EF9299
:10174000FF920F931F93CF93DF93CDB7DEB7A1978F
:101750000FB6F894DEBF0FBECDBF0E94E70784E34B
:1017600090E09093DC058093DB0580E190E090931E
:10177000DA058093D90582EC91E00E947F0B80E42A
:1017800090E09093DC058093DB0580E290E09093FD
:10179000DA058093D9052091DE0530E050E040E085
:1017A00019A28E010F5D1F4F8AE0C82ED12CE12CAB
:1017B000F12CCA01B901A70196010E942815605DAC
:1017C000F80162938F01211531054105510589F713
:1017D000309761F001900020E9F73197AF01401B8D
:1017E000510BB80187E198E00E94DB060E94770B5D
:1017F0000E94FC0768EE73E080E090E00E94BB0767
:10180000A1960FB6F894DEBF0FBECDBFDF91CF918A
:101810001F910F91FF90EF90DF90CF9008953F922E
:101820004F925F926F927F928F929F92AF92BF92F0
:10183000CF92DF92EF92FF920F931F93CF93DF939C
:1018400083E08093B00782E08093A401E4E6F1E0B6
:10185000A1ECB1E08FEF11921192119211928D9340
:1018600091E0EC38F907B9F73FEDE32E35E0F32EC0
:10187000C0E0D12CCC24C39444E0842E912CA12C24
:10188000B12C5CE1452E512C612C712C62E0362E7E
:101890008701D0E0CC2319F0CE3009F040C0F80128
:1018A000C082DF5F015F1F4FDF31A1F7CF5FFFEF26
:1018B000EF1AFF0ACF3061F71092B7061092C606F2
:1018C0001092D5061092B8061092C7061092D6064E
:1018D0001092B9061092C8061092D706C093A601BE
:1018E00087E08093A5010E94D3076093A7017093BE
:1018F000A8018093A9019093AA01DF91CF911F9134
:101900000F91FF90EF90DF90CF90BF90AF909F909E
:101910008F907F906F905F904F903F900895DD2360
:1019200009F4BDCFDE3109F4BACF8D2F8C2B80FFA7
:10193000B6CF0E949E14A50194010E94F614672B55
:10194000682B692B19F4F8013082ABCF0E949E14EA
:10195000A30192010E94F614672B682B692BA1F456
:101960008091DE05D81608F09CCF8D2D90E0FC010B
:10197000EE0FFF1FE355FE4FD083C1838F539E4F61
:10198000FC013082D3948DCFF80110828ACF8F92E0
:101990009F92AF92BF92CF92DF92EF92FF920F93FE
:1019A0001F93CF93DF938091B007882309F453C02E
:1019B0000E94D307AB01BC018091CB019091CC0177
:1019C000A091CD01B091CE018C599F4FAF4FBF4F29
:1019D000481759076A077B07F0F10E94D307609305
:1019E000CB017093CC018093CD019093CE0151EC4B
:1019F000E52E51E0F52E0DEA11E064E0862E912CE3
:101A0000A12CB12CF701D1907F01FFEFDF16E1F09F
:101A1000F801D181C0814D2F6C2F8D2D0E9424099A
:101A20008091AC01882309F489C0F1E0DF1609F444
:101A30007DC0DF1608F476C022E0D21609F47AC021
:101A400083E0D81609F478C00E5F1F4FFBECEF1649
:101A5000F1E0FF06B9F601EC11E0F80181E09191A7
:101A60009F3F09F080E021E0EB3CF207C1F7809353
:101A7000AB01882309F473C08091DE058A3009F038
:101A800067C00E94E70780E190E09093DC058093B7
:101A9000DB051092DA051092D90582EB91E00E94E5
:101AA0007F0B8EE991E00E947F0B80E991E00E941C
:101AB0007F0B8AE791E00E947F0B8CE691E00E9409
:101AC0007F0BEE24E39408E028E04CE151E060E372
:101AD00070E088E390E00E949708D0E0C0E008E35F
:101AE00010E041E0B801CE010E9419080F5F1F4FBE
:101AF00000341105B1F72196C038D10581F7D0E047
:101B0000C0E0E12C08E028E044E651E068E370E042
:101B1000CE010E9497082896C038D10591F70E94FF
:101B2000FC07FFCFD150F801D1838ECFCF5FF801F2
:101B3000C0838ACFDF5FF7CFC150F9CF0E949E14D8
:101B4000E7012197A50194010E94F61468837CCFD8
:101B50008F5F8093DE050E949D0B0E940F0C2FED7E
:101B600035E08FE056E065E0F9019FE140814430C7
:101B700009F0FAC0608391503F969111F7CF8150E0
:101B80002F5F3F4F8111F0CF8091B007882309F478
:101B9000BEC1CDEAD1E04FE0F42EEE24EA94C88035
:101BA000D980FC9CF0011124E152FA4FED0DF11D9A
:101BB0008081843028F0F80180818F3F09F0E08235
:101BC0000E94D307AB01BC018091A7019091A801AD
:101BD000A091A901B091AA0188579C4EAF4FBF4F69
:101BE000481759076A077B0730F18091A6012091B9
:101BF000A501C81206C0D21204C0F80190819F3F0F
:101C000059F4F89EC001112481529A4F820F911D00
:101C1000FC018081843078F08091B00781508093FE
:101C2000B0070E94D3076093A7017093A801809327
:101C3000A9019093AA0122960F5F1F4FF1E0C13CCA
:101C4000DF0709F0ACCFC091DD05C23009F416C141
:101C500008F093C0CC2309F4C7C0C13009F4E9C02F
:101C60008091A301882331F01092A1011092A2016A
:101C70001092A301C091A001CC2309F448C10E9495
:101C8000D307AB01BC018091640190916501A091E3
:101C90006601B09167018854944FAF4FBF4F48170A
:101CA00059076A077B0708F432C140918C01E09123
:101CB0008D01F0E02FE0429FC0011124DC01A15210
:101CC000BA4FAE0FBF1F24E02C938E0F9F1FDC0175
:101CD000A053BA4F23E054E03C913D7F313009F0EE
:101CE0005C9321501F962111F7CF2FE0429FE00D0A
:101CF000F11D1124E252FA4F30E020E04FE054E0B1
:101D00006191613079F0429FD001439FB00D112461
:101D1000A80FB91FA053BA4F6C91633019F0DF01BF
:101D200011975C932F5F3F4F2330310549F78FEFB9
:101D30008C0F8093A001ECE8F1E0A4E6B1E080E034
:101D40008F5FC81709F4E3C09281908393819183D8
:101D500014964D915D916D917C9117974D935D9384
:101D60006D937D933296ECCF453011F4508303CFC1
:101D7000463009F000CF1082FECEC33009F4A3C074
:101D8000C43009F06DCFC091A001CA3008F068CF0F
:101D90009091A6018091A5012FE0929FF00111245E
:101DA000E152FA4FE80FF11D2081233009F458CF9A
:101DB000CF5FC093A001C150DD0BDE01AA0FBB1F96
:101DC000A457BE4F9C9311968C9383E080830E940E
:101DD000D307CC0FDD1FCC0FDD1FCC59DE4F68833E
:101DE00079838A839B833CCF1092A401C091A50183
:101DF0004C2F6091A60180E00E942409C23008F4B3
:101E00002FCF8091AC01882309F42ACF81E0809301
:101E1000A3018093A201D091A201D83034F40E9492
:101E20005609DD5FD093A201F6CFC150C093A50142
:101E300017CF82E08093A401D091A5014D2F60912E
:101E4000A6010E942409DD3008F00ACF8091AC0180
:101E5000882309F405CFC093A3018FEF8093A201DB
:101E6000C091A201C93F34F00E945609C350C093EB
:101E7000A201F6CFDF5FD093A501F2CE83E080937D
:101E8000A401C091A6014091A5016C2F0E942409D4
:101E9000C23008F4E5CE8091AC01882309F4E0CE8D
:101EA00081E08093A3018093A101D091A101D8305A
:101EB00034F40E945609DD5FD093A101F6CFC150E2
:101EC000C093A601CDCED1E0D093A401C091A601CC
:101ED0004091A5016C2F81E00E942409CD3108F0CA
:101EE000BFCE8091AC01882309F4BACED093A30170
:101EF0008FEF8093A101D091A101D93F34F00E94CE
:101F00005609D350D093A101F6CFCF5FD9CFDF913F
:101F1000CF911F910F91FF90EF90DF90CF90BF90E6
:101F2000AF909F908F9008951F920F920FB60F92CF
:101F300011248F939F938091E1009091E100937F12
:101F40009093E10083FF0FC01092E90091E090931D
:101F5000EB001092EC0092E39093ED001092C60714
:101F600098E09093F00082FF22C093E09093E90004
:101F70009091F200992319F09AE39093E8009091E0
:101F8000B707992341F09091B70791509093B70705
:101F9000911101C05D9A9091C507992341F09091EC
:101FA000C50791509093C507911101C0289A84FFED
:101FB00018C08091E2008E7E81608093E200809163
:101FC000E1008F7E8093E1008091B8078E7E806172
:101FD0008093B8079F918F910F900FBE0F901F9025
:101FE000189580FFF7CF8091E2008E7E806180930C
:101FF000E2008091E1008E7E8093E1008091B8073D
:102000008E7E8160E5CF1F920F920FB60F92112442
:10201000CF92DF92EF92FF920F931F932F933F93F4
:102020004F935F936F937F938F939F93AF93BF93E0
:10203000EF93FF93CF93DF93CDB7DEB76C97DEBFFF
:10204000CDBF1092E9008091E80083FF25C068E0D1
:10205000CE0145960E94CE0682EF8093E8008D89DE
:1020600087FF39C09091E80090FFFCCF982F9076C1
:1020700009F034C19E894F89588D2F89F88C9111B0
:1020800031C0803861F58091B6078093F1001092DD
:10209000F1008EEF8093E8006C960FB6F894DEBFE7
:1020A0000FBECDBFDF91CF91FF91EF91BF91AF9167
:1020B0009F918F917F916F915F914F913F912F9160
:1020C0001F910F91FF90EF90DF90CF900F900FBE78
:1020D0000F901F9018959EEF9093E800C7CF109235
:1020E000F100D5CF913059F48111D3CF4130510552
:1020F00081F68091B6078D7F8093B607CACF933063
:1021000049F48111C6CF4130510519F68091B607C7
:102110008260F2CF953041F48091E80080FFFCCFDF
:1021200020682093E300B5CF963009F0A9C00B8D4D
:102130001C8D22E01092E9001092B4071092B307B0
:10214000F2122EC01092B2071092B1070E949D06A3
:102150001F8299E09983FA8291E09E8390EA9887A2
:102160009AEF99872091B3073091B407275F3F4FCB
:102170003C832B838D831092E9001092B407109258
:10218000B3071093B2070093B10749E050E0BE01D6
:102190006F5F7F4F80E00E9477060E949D0679CF97
:1021A0001093B2070093B1070E948105DC011296DB
:1021B0000D911C910115110509F451C1D801ED9142
:1021C000FC910480F581E02DBE016B5E7F4FC8015C
:1021D0000995009709F03EC1F80100851185EACF05
:1021E000F3E0FF120EC08F89882309F440C08230CB
:1021F00061F440E867E08DE29AE00E9444068111B4
:1022000048CF81E28093EB0047CF813029F440E84A
:102210006BE081E29AE0F1CF833099F70E9481056B
:10222000DC011296ED90FC908E010F5F1F4F68014C
:10223000E114F10479F0D701ED91FC910680F7816A
:10224000E02DB801C7010995080F111DF701E084C1
:10225000F184EECFD8011C92F60101900020E9F73D
:102260003197BF016C197D0940E0C601C6CF6BE014
:102270007AE0FB01449150E080E80E94770609CFA4
:10228000973009F4BECF983021F481E08093F100BB
:1022900000CF993009F0FDCE837009F0B2CFE5E3AD
:1022A000F1E081E031E096E32191222371F0809307
:1022B000E9003093EB00DF0111972C912093EC00A3
:1022C0009093ED008F5F873079F78EE78093EA0077
:1022D0001092EA008F898093C607DBCE8B8D9C8D90
:1022E0001092E9001092B4071092B3079093B207CE
:1022F0008093B107898D811192C08E899D89913A11
:1023000049F4813209F07DCF47E050E064E071E0AC
:1023100080E0B3CF913209F074CF833269F48F89B2
:10232000988DB0E0A0E08093000190930101A0930C
:102330000201B0930301ADCE803269F48091E800D0
:1023400082FFFCCF67E084E091E00E94CE068BEF35
:102350008093E8009ECE823209F09BCE8F898093D5
:102360000B01EEEFFFE7859194918B3F9C4D51F16E
:10237000E0E0F8E08091040190910501A091060150
:10238000B0910701803B9440A105B105F1F4809123
:102390000B0180FD1AC0EE3F8AE0F80789F587E758
:1023A00097E791838083809160008093B50788E1EF
:1023B0009BE00FB6F894A895809360000FBE9093B1
:1023C000600067CEEEEFFAE0D5CF8081918187374C
:1023D000974709F05ECEA895809160008861809350
:1023E00060008091B50780936000EE3F2AE0F2071D
:1023F00089F08091FE0A9091FF0A9183808349CEF3
:10240000808191818737980751F29093FF0A8093DA
:10241000FE0AC5CF1092FF0A1092FE0A3ACE0E9421
:102420008105DC0112960D911C910115110509F42D
:10243000E8CED801ED91FC910190F081E02DBE0134
:102440006B5E7F4FC8010995811123CEF80100858D
:102450001185EBCF181619060CF41BCED2CEF1E085
:10246000FF12BECE6FE07AE004CF0F920FB68F93CB
:102470009F93EF93FF938091D0058D5F8D3708F088
:102480008D578093D005E1EDF5E080818E4F8083FC
:1024900091819F4F918382818F4F828383818F4F60
:1024A0008383E5EDF5E080818F5F808381818F4FAD
:1024B000818382818F4F828383818F4F83838FB10A
:1024C0008F6066991C9B88278F3681F48091CF0599
:1024D000981B963068F0E0E0F8E087E7808381831E
:1024E00088E180936000F0936000FFCF9093CF0568
:1024F000FF91EF919F918F910FBE0F901895E7EC90
:10250000F7E01382128288EE93E0A0E0B0E08483CB
:102510009583A683B7838FE391E0918380838FEFC8
:102520009FEF95878487E7E1F8E01382128281E5C7
:1025300091E0918380830895789483E084BD83E063
:1025400085BD81E080936E00E1E8F0E083E0808368
:10255000E0E881E08083E1E983E08083E0E981E0F5
:102560008083E1EC87E08083E3EC81E08083E0EC32
:1025700082E08083E2EC81E08083EAE787E0808389
:10258000806880831092C6071092B6071092B80731
:102590008091D70081608093D70080EA8093D80033
:1025A00089B5806189BD89B5826089BD09B400FEA5
:1025B000FDCF81E090E00E9408078091D8008F7CD9
:1025C00080618093D8008091E000807F8093E0005C
:1025D0008091E1008E7E8093E1008DE08093E200A7
:1025E000559A209A81EC80937C0081E785B987E633
:1025F00084B985E38BB98FE38AB9769A6E9880EFB8
:1026000081BB10BA80E58CBD81E08DBD0E941C07A6
:10261000599A0E941C075C98E8ECF6E085918EBD03
:1026200000000DB407FEFDCFE23DC1F75C9A81E8E2
:102630008093640081E080936500E2EDF6E0E49130
:1026400090917B008E2F880F880F80729F7D892B41
:1026500080937B00E770E064E0937C0080917A00D7
:10266000806480937A0080917A0086FDFCCF80910F
:10267000780060917900762F682F072E000C880B68
:10268000990B611571058105910511F00E94ED14FA
:10269000C0E0DFEF86E4C82ED12C9FE2A92EB12C3A
:1026A0002EE3822E912CC11105C08091DD0584306E
:1026B00009F4A7C00E94470B8091DD05813009F421
:1026C00054C008F450C0843009F451C00E94E70798
:1026D000EE24E39407E227E541ED57E061E070E086
:1026E00087E290E00E94970809E225E244E057E083
:1026F00067E170E090E080E00E94970805E027E243
:102700004BEE56E06AE370E081E490E00E949708A7
:10271000D092DC05C092DB0507E210E01093DA05E9
:102720000093D90586EE96E00E947F0BD092DC05DF
:10273000C092DB05B092DA05A092D90580EE96E052
:102740000E947F0B9092DC058092DB05C11154C082
:102750001093DA050093D9058EED96E00E947F0B69
:102760000E94FC07A0CFC0E0B1CFC1E0AFCFCC2327
:1027700009F4ACCFD093DD050E94E7071092DC0589
:102780001092DB051092DA051092D90581EC99E0E0
:102790000E947F0B80EC99E00E947F0B80EB99E018
:1027A0000E947F0B88EA99E00E947F0B81EA99E002
:1027B0000E947F0B8FE899E00E947F0B8EE899E0E2
:1027C0000E947F0B8EE799E00E947F0B0E94FC071E
:1027D00068EC70E080E090E00E94BB078091DD052E
:1027E0008F3F19F40E94470BF9CF68EC70E080E04E
:1027F00090E00E94BB076ACFB092DA05A092D9059B
:10280000ABCF81E08093DE050E949D0B0E940F0CF0
:1028100014E0D12CC12CC0E0D0E08091B007811130
:1028200035C02FED35E08FE0F90190E010839F5F18
:102830003F969F31D9F781502F5F3F4F8111F4CFE1
:102840008091DF05833058F00E9456090E94C70C22
:1028500064EF71E080E090E00E94BB07F1CF0E943E
:102860005609E12C08E028E04CE151E068E170E015
:1028700088E390E00E9497080E94FC0768E873E1F3
:1028800080E090E00E94BB07F60109950E94470B8B
:102890000E9456090E94C70C209709F4BECF0E94DF
:1028A0000000BBCF8F929F92AF92BF92CF92DF92E8
:1028B000EF92FF92CF93DF93EC01688179818A8157
:1028C0009B81611571058105910521F464E279ED23
:1028D0008BE597E02DE133EF41E050E00E94F614E4
:1028E00049015A019B01AC01A7EAB1E40E94151508
:1028F0006B017C01ACEEB4EFA50194010E9423159D
:10290000C60ED71EE81EF91EF7FE06C081E0C81AE3
:10291000D108E10880E8F80AC882D982EA82FB82FD
:10292000C701B6019F77DF91CF91FF90EF90DF90C5
:10293000CF90BF90AF909F908F9008958F929F926D
:10294000AF92BF92CF92DF92EF92FF9260910C0113
:1029500070910D0180910E0190910F01611571052B
:102960008105910521F464E279ED8BE597E02DE195
:1029700033EF41E050E00E94F61449015A019B01F7
:10298000AC01A7EAB1E40E9415156B017C01ACEE25
:10299000B4EFA50194010E942315C60ED71EE81EB0
:1029A000F91EF7FE06C081E0C81AD108E10880E8E8
:1029B000F80AC0920C01D0920D01E0920E01F09243
:1029C0000F01C701B6019F77FF90EF90DF90CF9086
:1029D000BF90AF909F908F90089560930C0170937B
:1029E0000D0180930E0190930F010895052E97FB22
:1029F0001EF400940E940D1557FD07D00E94281563
:102A000007FC03D04EF40C940D155095409530956D
:102A100021953F4F4F4F5F4F08959095809570954A
:102A200061957F4F8F4F9F4F08950E944A15A59F34
:102A3000900DB49F900DA49F800D911D11240895B9
:102A4000B7FF0C9415150E941515821B930B089562
:102A5000A1E21A2EAA1BBB1BFD010DC0AA1FBB1FA2
:102A6000EE1FFF1FA217B307E407F50720F0A21B14
:102A7000B30BE40BF50B661F771F881F991F1A9481
:102A800069F760957095809590959B01AC01BD01AB
:102A9000CF010895A29FB001B39FC001A39F700D05
:102AA000811D1124911DB29F700D811D1124911D56
:102AB0000895EE0FFF1F0590F491E02D0994F8940E
:022AC000FFCF46
:102AC200FFFFFFFF00E10000000000000100000026
:102AD200B400AC00D400CC00C400BC0034012C0112
:102AE20024011C0114010C010401FC00F400EC009F
:102AF200E400DC0000C180810000000000000095BD
:102B0200052007B605AB05FC05BA05D8050000008F
:0C2B1200003408DB06740B730B0D0A0086
:00000001FF
