:100000000C9405070C942D070C942D070C942D07C8
:100010000C942D070C942D070C942D070C942D0790
:100020000C942D070C942D070C94EC1F0C945B2062
:100030000C942D070C942D070C942D070C942D0770
:100040000C942D070C942D070C942D070C942D0760
:100050000C942D070C942D070C942D070C948D22D5
:100060000C942D070C942D070C942D070C942D0740
:100070000C942D070C942D070C942D070C942D0730
:100080000C94D7220C942D070C942D070C942D075B
:100090000C942D070C942D070C942D070C942D0710
:1000A0000C942D070C942D070C942D07090FE8D202
:1000B000D9ED76BB4EC7B7DD6EB7DBED7636090FEF
:1000C000E8D3E974FCDBED76BBDD6E6703090F1046
:1000D0009BCE6EB7DB753A36090FB8B2E9145FD71D
:1000E000ABCF85A2ED6CDB5901090FBC92EE55A98F
:1000F000A4D2AAAD53E4E9E8B6B303090FF8B6CA2F
:10010000F55FB9B5EBD436EEED6CDB5901090F386C
:10011000B39FEAB397770A4BDBD9B6B302090FBC9A
:10012000924EA5FAECE554CEC9D9D3F9EC367A094A
:100130000FB8B29F6AA2745FBB8E773B7B3A5A09B5
:100140000F38972ACA6B998E39BD1D5B090F5CA7C2
:100150003EF54D96DBF5B950B79D1D20064B0000CE
:1001600000190075054B000000190027054B000021
:1001700000190097044B000000190017044B000001
:10018000001900B8074B0000001900E0064B000002
:1001900000190010034B0000001900BA024B0000C8
:1001A00000190093024B00000019004B024B0000A5
:1001B0000019000B024B0000001900DC034B00008B
:1001C00000190070034B000000190088014B00006B
:1001D0000019005D014B00000019004A014B0000AE
:1001E00000190026014B000000190006014B000019
:1001F000001900EE014B0000001900B8014B00008F
:10020000001900C4004B0000001900AF004B0000B3
:10021000001900A5004B000000190093004B0000DE
:1002200000190083004B0000001900F7004B00008C
:10023000001900DC004B000000190062004B0000B8
:1002400000190057004B000000190052004B00003D
:1002500000190049004B000000190041004B00004C
:100260000019007B004B00000019006E004B0000DD
:1002700000190031004B00000019002C004B000059
:1002800000190029004B000000190025004B000058
:1002900000190021004B00000019003E004B000037
:1002A00000190037004B000000190000804B024B82
:1002B0000000000F004B024B0000000F004B024BF0
:1002C0000000000F0026014B000080E0060F001721
:1002D000040F0027050F0000800A08180060008046
:1002E000002000400000006000900020000000009E
:1002F000000000801000208000008000002000002E
:100300000000400A10000000000000000000000093
:10031000000000000000000000EFEFE0EFEFEFEF63
:100320000FEFEF01010101010101000101FFFFFFDA
:10033000FFFFFFFFFFFF00010101010101010101BA
:10034000000000FF42424242FF00000000030000A4
:100350000000030000020202020202020202020086
:10036000000000000000000000EFAFE06FEFEFEDD5
:100370000FEBEF010101010101010001010000B0DB
:10038000B000B0B000000000000101000101000059
:1003900000EFEFE0EEEEEEEE0EEFEF0101010101F6
:1003A0000101000101EEECE0E8E8EAE808ECEE010A
:1003B000010101010101000101ECE0C0C088808061
:1003C00000E0EC01010101010101000101E08000F8
:1003D000000800010086E0010101010101010001A6
:1003E000010000000000000000000000000000000C
:1003F0000000000000E08080000000000080E001BC
:10040000010101010101000101ECE0C0808080C018
:1004100000E0EC01010101010101000101EFECE04C
:10042000E8E8E8E80CECEF0101010101010100013D
:1004300001EFEFE0EEEEEEEE0FEFEF010101010153
:100440000101000101090FA8D69D2BA2AC932A75CA
:10045000BB08B3DBB106090F88769D7A995DCBDACC
:10046000756AD46DD7B101090FB8969F6AA274D787
:10047000ABCFCDBC9D753B2B0607A8D2E9743A2EB5
:100480000407723A9D8E0A06077C3A9D4E47070480
:10049000079D4BA7A303030788E5030792CC040736
:1004A000B8D2E99C5304077C3A9D760E0607DE6EAF
:1004B000B7DBED76070407A59276BB5D010607B7AB
:1004C000DBED76BBDD020407A5926ABBDD02030704
:1004D000F8743A0307759A100407D476BB924A2A37
:1004E0000407B7DBAD5452011507A54E47255555F6
:1004F0002A1595F3D99C2293AA2A958A4AEA745C14
:1005000095032907522E95AA4A95E272AA929575EB
:100510005452E5B3924AAAAA542A6EE552A9544EFF
:1005200071399F4E392EA9AA52A9A8A4AA64656B55
:100530004A550A2907D369A9A293AA9295ADA9F6AB
:100540004A4DEF54252BEBB8944BA5AA52A5B89C65
:10055000AA64651D552A25552A2AE9F24949A94A5E
:10056000012208BEFFC1DFDFFFF1EFDFE1FFC1DFE6
:10057000DFFFEBFFFFFFFFFFFFFFFFFFFFFFFFFFBF
:10058000FFFFFFFFBE2208BEFFE3DDD5C5FFE3DDB1
:10059000DDE3FFC1DFDFFFC1DDDDE3FFEBFFFFFFD9
:1005A000FFFFFFFFFFFFFFFFBE1F08BEFFC1FBF7FE
:1005B000FBC1FFC1D5DDFFC1FBF7C1FFEBFFFFFFB3
:1005C000FFFFFFFFFFFFFFFFFFBE3B08BEDBD5D5F0
:1005D000EDFFE3DDDDEBFFE3DDDDE3FFC1F5F5CBB3
:1005E000FFC1D5DDFFEBFFFFFFFFFFFFFFFFFFFFB9
:1005F000FFFFFFFFFFFFFFFFFFFFFFFFFFFFFFFF0B
:10060000FFFFFFFFFFFFBEF4F5F9F6F7F8FBFAFF77
:10061000FCFDFE0002030401060508090A070B0C95
:100620000E0F008801640000001400DC0364000069
:100630000014004B0264000000280017046400004E
:100640000014002705640000001400200664000068
:1006500000280000802006640000001400270564C4
:10066000000000140017046400000028004B02641E
:100670000000001400DC0364000000140088016422
:1006800000000028000080E0061E0000000A00E0D4
:10069000061E0000800208D4D205087F7F3E1C0899
:1006A0004120FE0105F1F1F111D1B1D111F151510A
:1006B0005151515151515151515151510000FF006F
:1006C000007F7F09090F06007F7F19396F46007F81
:1006D0007F4949414100266F49497B3200266F49D5
:1006E000497B32FF0000FFFFFFFEFFFEFF0279CDD6
:1006F00095A5CD790111111101F9F901010000FF52
:1007000000007F7F09090F06007F7F4040404000C6
:100710007C7E0B0B7E7C00070F78780F07000000B3
:1007200000000000FF00001F3F3F33333333333EF0
:1007300036363E363E363E36363E36363E3600009D
:10074000FF00003E7F41417F3E007F7F0E1C7F7F88
:100750000000000000000000000000000000000099
:1007600000000000003F4050404040784641415961
:100770005941414141595941414141414141410062
:10078000007F000001017F7F0101007C7E0B0B7E5A
:100790007C007F7F09090F06007F7F4949414100A6
:1007A0000000000000008D14A1C881CFD9F102AF74
:1007B000450FA38B6DB9554E29BB73A76C3EBAE8A4
:1007C000A24B293FDB4A112593A5E8B2D94AA62BB3
:1007D0009B4F395BC988625BA62B999F4CD96C25CE
:1007E000F39329BAC8145D7429E7A38B2EBA58A3D2
:1007F000EB74AE93CA29ED6EC5145D74D145A77C28
:100800004E91C594733A975F763AD7D9647ED9E909
:100810005C45A67CAED33945E6B8A28BEE93DD5D90
:10082000C96A49155DBE72D145175D747910100013
:100830002E5F3F5D3D5F1F1F3F5F3E5E37572A01C2
:100840000145091101410101014509110141013F22
:100850000FA5AA64656B2AA9AA52A9B83A5595AA08
:100860004A755CCEA7538E4BBA7C362BA9A4AA4AF4
:10087000A5E2562E95AA4A95E272AA92957554D28F
:10088000E5B359492555552A15D2A5AA64656B2AA1
:10089000A9AA52A9B83A5595AA4A755CE9B454F187
:1008A0003955C9CA3A2AA92A59D99A2A9D962A7E1F
:1008B000E552A9AA54292EA72A595947255D3E9BDE
:1008C00095545255A55221122C07EA5455AA2AD5FF
:1008D00071A5D352C5E754252BEBA8A4AA64656B78
:1008E000AA745AAAF8954BA5AA52A5B89CAA646501
:1008F0001D9554F9ACA492AA2A954A010207A55362
:10090000360980403F1F3F5F3F5F2E002E5F3F5FF5
:100910003B5B3E5E3F1F3F5F3F5F2E002E5F3F5FB2
:100920003B5B3E5E1F2FEFEFEFEFEEE0EEEFEFCF22
:100930000B1B3E5E3F1F3F5F3F5F2E002E5F3F5F02
:100940003B5B3E5E3F1F3F5F3F5F2E002E5F3F5F82
:100950003B5B1E2EEFEFEFEFEFEFEEE0EECF0F0F72
:100960001B5B3E5E3F1F3F5F3F5F2E002E5F3F5F82
:100970003B5B3E5E3F1F3F5F3F5F2E002E5F3F5F52
:100980003B5B3E5E002E5F3F5D3D5F1F1F3F5F3E56
:100990005E37572A002E5F3F5D3D5F1F1F3F5F3E62
:1009A0005E37572AC0FEFFFFFFFFFFFFFFFF1F015B
:1009B0000000402A000EEFF7F5F9FBFBFBFBFBFA0A
:1009C000FAFBFBFAF8F2E30305CDEFF7F7FBFBFACE
:1009D000FAFBFBFCFFFFFFFFFFFFFF7F070000D8D4
:1009E000EEF7FBFAF8FAFBFBF9F9FBFBE3E3070E82
:1009F0005E37572A002E5F3F5D3D5F1F1F3F5F3E02
:100A00005E37572A02028A12220282020A12A202C8
:100A100002028A12220282020A12A20202028A122E
:100A20002202C2FCFFFFFFFFFFFFFFFF7F0100006C
:100A300000102202E0FFFFFFFFFFFF3F030080F8EE
:100A4000FEFFFFFFFF3F01F0FEFFFFFFFFFF3F073D
:100A500000E0FCFFFFFFFFFFFFFF1F00C0F8FFFFEC
:100A6000FFFFFFFF3F3938383C3F3F3F0F03000097
:100A70000080828A92A28282828A92A28202020AE2
:100A80001222820200000000000020E0E0E0E0E02E
:100A9000E0E0E0E0E0E0E0E0E0E0E0C0C0800000B6
:100AA00000007FFFFFFFFFFFFFFFFFFFFEFEFEFED8
:100AB0007E1F01003F7FFFFFFFFFFFFEFEFEFFFFE7
:100AC000FFFF7F3F07003C7FFFFFFFFFFF7F3E3EB2
:100AD0007EFFFFFFFFFFFFFFCF8100003F7FFFFF93
:100AE000FFFFFFFFFEFEFEFEFE7E3F0F0000000048
:100AF0007F80BE8A8A8280A2948894A2807F000030
:100B0000000000000000000000C0F8FFFFFFFFFF32
:100B1000FFFF1F070787E7FFFFFFFFFF7F070000BB
:100B20000008F8F8F8F8F8F8F8F80008F8F8F8F815
:100B3000F8F8F8380000F8F8F8F8F8F8F8F8E0F8FD
:100B4000F8F8F8F8F8F8F8F0E00000F8F8F8F8F835
:100B5000F8F8E0F8F8F8F8F8F8F8F0E0000000C06D
:100B6000E0F0F8F8F8F8F8F8F8F8F8F8F0E000082D
:100B7000C8F8F8F8F8F8F8F8E0E0F0F8F83800000D
:100B80000000000000000000E0FFFFFFFFFFFFFF8C
:100B9000FFFFFFFFFFFFFFFFEF87030100000000E3
:100BA00080F0FFFFFFFFFFFF0F00E0FEFFFFFFFFF2
:100BB000FFFF030080FCFFFFFFFFFFFFFF0701F1C6
:100BC000FFFFFFFFFFFFFF3F0080FEFFFFFFFFFF74
:100BD000FF0701F1FFFFFFFFFFFF1F03C0F8FFFF4B
:100BE000FFFFFFFF3F3938383C3F3F3F0F0380FC9A
:100BF000FFFFFFFFFFFF7F07000101000000000073
:100C000000000000000070FFFFFFFFFFFFFFFFFF7D
:100C10008300073F7FFFFFFFFFFF7E7C3C0E0078D5
:100C2000FFFFFFFFFFFFFF7FFEFEFFFFFFFFFFFF56
:100C300087800078FFFFFFFFFFFFFF8F0070FFFF3F
:100C4000FFFFFFFFFFFF810078FFFFFFFFFFFF8730
:100C50000070FFFFFFFFFFFFFF8700003F7FFFFFE8
:100C6000FFFFFFFFFEFEFEFEFE7E3F0F0078FFFF50
:100C7000FFFFFFFFFF878000000000002E5F3F5F47
:100C80003B5B3E5E002C5E3C58385818183858388C
:100C90005830502800285A3C5838581818385838B6
:100CA0005A305028002858385838581818385838AA
:100CB000583050280028583858385818183858389C
:100CC00058305028002858385838581C1838583888
:100CD00058305028002858385838581818385A3C76
:100CE00058305028002858385838581818385A3C66
:100CF00058305028002858385838581C1B3B5B3E49
:100D00005A33532A0000F4019C00A5000000A800FB
:100D100093009C0000000900E9009C00000009000D
:100D2000A5009C0000000900F7009C0000000900DD
:100D3000A500A5000000A800E900A5000000A8008B
:100D400083009C0000000900D0009C000000090006
:100D500093009C0000000900E9009C0000000900CD
:100D600093009C00000009008B009C000000D0074D
:100D70000180080B000202020000090400000102C9
:100D800002000005240010010524010101042402D1
:100D9000060524060001070581031000400904012F
:100DA00000020A0000000705020240000007058358
:100DB000024000000403090412010002EF02014096
:100DC0004123368000010102030141726475696E9E
:100DD0006F204C4C43004142413131303600040514
:100DE0000E11110E00121F10121915120A11150AF8
:100DF00006051F04171515090E1515080119050319
:100E00000A15150A12150906512311241FBECFEF2A
:100E1000DAE0DEBFCDBF13E0A0E0B1E0E8E1F2E54B
:100E200002C005900D92AC32B107D9F729E0ACE2CF
:100E3000B3E001C01D92A038B207E1F717E0C5E0AA
:100E4000D7E004C02197FE010E940429C430D107D5
:100E5000C9F70E948A230C940A290C9400008091FF
:100E60004A0308958150833008F18AE0869F9001FB
:100E7000879F300D1124849FB001859F700D112430
:100E8000EFE8F8E0808184FF0AC0828193818217B5
:100E9000930729F4848195818617970739F03E9648
:100EA00088E0E33EF80771F780E0089581E0089557
:100EB000873030F4843040F5882331F180E00895A4
:100EC0008031E0F78AE0869F9001879F300D1124E2
:100ED000849FB001859F700D1124EFE8F8E08081B8
:100EE00084FF0DC082858B3051F4828193818217FB
:100EF000930729F48481958186179707F9F23E9626
:100F000088E0E33EF80759F781E00895853039F12C
:100F100020F4882321F180E0089587508830D8F7A5
:100F20008AE0869F9001879F300D1124849FB00135
:100F3000859F700D1124EFE8F8E0808184FF0AC0DE
:100F4000828193818217930729F484819581861782
:100F5000970709F33E9688E0E33EF80771F781E0D2
:100F60000895982F8C3198F46F3F99F0603198F480
:100F7000E82FE69580E1E89FF0011124E758F84F4B
:100F8000E60FF11D868190FF82958F70089581E0B4
:100F9000089580E0089582E00895E82FE69590E1B5
:100FA000E99FF0011124E758F84FE60FF11D9681F3
:100FB00080FD08C09F7080E1489FA0011124942B00
:100FC00096830895907F492B46830895AF92BF92F0
:100FD000CF92DF92EF92FF920F931F93CF93DF9305
:100FE000EFE8F8E0062E000C770B042E000C550BF2
:100FF000208124FD07C03E9628E0E33EF207C1F7BA
:1010000080E037C02F70DC013C913F70231799F3CB
:101010002181022F0F70A281B3810A0F1B2F111D96
:10102000E480F580DC011296CD91DC911397C60F18
:10103000D71F1496AD90BC906801BAE0CB0ED11CBE
:10104000CC15DD05C4F62A960C171D07A4F62295CB
:101050002F702E0D3F2D311DD501A40FB51FE901B5
:101060002A96AC17BD073CF61A962A173B071CF6C2
:1010700081E0DF91CF911F910F91FF90EF90DF9072
:10108000CF90BF90AF900895480F592F511D14165F
:10109000150694F5803891057CF597FF02C090E025
:1010A00080E04138510514F040E850E0481BFB0156
:1010B000E770FF2721E030E001C0220FEA95EAF750
:1010C000209577FF02C0695F7F4FFB0133E0F59504
:1010D000E7953A95E1F7F695FE2FEE27F795E79518
:1010E000E80FF91FE059FC4F415030F08191DF01CA
:1010F000119782238C93F8CF08958091710790E027
:1011000020917B0730917C07821B930B2AE030E013
:10111000B9010E948527863020F0A901481B51099A
:10112000CA0121E005970CF020E0822F0895CF92AC
:10113000DF92EF9280917F09282F30E0F901EE0FC6
:10114000FF1FE20FF31FED5BF64F208131814281DB
:10115000815080937F09E3E4F9E090E0981740F430
:10116000C380D480E580C192D192E1929F5FF6CF97
:10117000842FB901EF90DF90CF900895FC0180910A
:101180006F03882311F13FB7F89482E08093E90060
:101190002091F200822F90E01816190614F481E0D5
:1011A00090E0882339F0289844E640936E034091FC
:1011B000F1004083222339F02091F200211103C075
:1011C0002BE62093E8003FBF08958FEF9FEF08952F
:1011D0002FB7F89483E08093E9009091E800892F7D
:1011E000807295FF04C09091F20080E4891B2FBFAC
:1011F00008958091660381110DC082E0809362039F
:1012000084E080936303109265031092640381E08D
:101210008093660382E693E00895CF93DF931F9255
:10122000CDB7DEB76983DC01ED91FC910280F381DB
:10123000E02D41E050E0BE016F5F7F4F09950F90B8
:10124000DF91CF91089583E08093E9008091F200CF
:10125000882319F08AE38093E80008950E94E80843
:1012600090E00895CF93DF931F92CDB7DEB7FC01D6
:101270008485958597FD08C02FEF3FEF358724873C
:101280000F90DF91CF910895CE0101960E94BE0884
:10129000019719F4898190E0F3CF8FEF9FEFF0CFA2
:1012A0000F931F93CF93DF931F92CDB7DEB78C01BF
:1012B000FC018485958597FF0BC0CE0101960E94A5
:1012C000BE08019771F4898190E0F80195878487C1
:1012D000F801848595850F90DF91CF911F910F9133
:1012E00008958FEF9FEFF1CFFC018485958597FDE1
:1012F0000BC09FB7F89482E08093E9008091F200E0
:101300009FBF90E0019608959FB7F89482E0809384
:10131000E9008091F2009FBF90E0089540915C0346
:1013200050915D0320915A0330915B03421753079C
:10133000B4F49091E8009570E1F39091E80092FD8B
:1013400019C08093F10080915C0390915D03019638
:101350008F739927892B19F48EEF8093E800809181
:101360005C0390915D03019690935D0380935C0311
:1013700081E0089580E00895DF92EF92FF920F934D
:101380001F93CF93DF93D82E8A01EB017B01E40EEC
:10139000F51ECE15DF0559F0D7FE12C0FE0184916F
:1013A0000E948E0921968111F4CF0FEF1FEFC80123
:1013B000DF91CF911F910F91FF90EF90DF900895F3
:1013C0008881EECF0F931F93CF93DF931F92CDB7FA
:1013D000DEB782E0898342E450E062E77DE080E8A6
:1013E0000E94BC090E94F908DC0112960D911C9123
:1013F0000115110589F0D801ED91FC910280F3816E
:10140000E02DBE016F5F7F4FC801099597FD04C0B5
:10141000F80100851185ECCF89810F90DF91CF9184
:101420001F910F910895615030F02091F100FC015F
:1014300020830196F8CF289884E680936E03089560
:101440000DB407FEFDCF8EB51EBC08958EBD000005
:101450000DB407FEFDCF8EB50895FC010E94C40AAD
:10146000319728F068517C4F8F4F9F4FF9CFAB01D8
:10147000FC010E94C40A641775078E079F07C8F312
:1014800008958F929F92AF92BF92CF92DF92EF9288
:10149000FF920F931F93CF93DF936C017B018A011F
:1014A00080910D01882309F45AC080916F0388232D
:1014B00009F455C08091610380FF05C08091E00070
:1014C00082608093E000E801B12C8AEFA82E93E0BF
:1014D000892E2AE3922E209711F4BB20C9F10E9495
:1014E000E808811108C0AA94AA20C9F181E090E01F
:1014F0000E942D0AF0CF8C171D0611F00CF08C2FD6
:101500009FB7F8948092E9002091E80025FD02C081
:101510009FBFE1CF282F30E0C21BD30BF7018150D2
:1015200020F041914093F100FACFE20EF31EBB2070
:1015300021F09092E800B12CEBCF8091E80085FD7E
:10154000E7CF9092E800BB24B394209709F3F3CF40
:101550005D9884E680936003101611063CF081E0EC
:1015600090E0F6019383828310E000E0C801DF91F0
:10157000CF911F910F91FF90EF90DF90CF90BF9090
:10158000AF909F908F900895A6E4B3E02FB7F894A2
:101590007D918D919C9166B52FBFA89B05C06F3F33
:1015A00018F47F5F8F4F9F4F22E0660F771F881FD1
:1015B000991F2A95D1F7089520913D03E0913B03AF
:1015C000F0913C03CF01029690933C0380933B0340
:1015D000222319F085919491089580819181089535
:1015E000E1E7F0E080818D7F808310929100469842
:1015F0005F98109258030895CF92DF92EF92FF9276
:10160000CF93DF930E94DC0A811520E8920741F412
:10161000DF91CF91FF90EF90DF90CF900C94F00A84
:1016200021E020935803813020E8920751F4809103
:10163000390390913A0390933C0380933B030E94BB
:10164000DC0A97FD05C020913803222309F45BC012
:1016500020913703211157C021E020933E03EC0174
:10166000DF77209709F052C081E080933F034698CE
:101670003FE9C32E3FE0D32EE12CF12CCAEFD0E09E
:10168000E0914109F09142090995811103C081E07F
:1016900080933F0380913E03882329F080913F038C
:1016A000882309F446C05F980E94DC0A009709F479
:1016B00044C09C01DE010E94E928DC01CB0129E045
:1016C000B595A795979587952A95D1F71092900093
:1016D0002AE020939100D0929900C09298008093C4
:1016E000400390934103A0934203B093430380913E
:1016F0007100826080937100DF91CF91FF90EF9035
:10170000DF90CF90089510923E03A9CF9E0150E044
:1017100040E060E472E48FE090E00E949528690167
:101720007A0181E0C81AD108E108F10810923F035C
:10173000A7CF4699B8CF5F9AB7CF8FEF9FEFDC0165
:10174000C5CF9C01E1E7F0E090819D7F908381E02F
:1017500080933D0330933C0320933B0330933A0343
:10176000209339030C94FC0A4F925F926F927F9200
:101770008F929F92AF92BF92CF92DF92EF92FF92A1
:101780000F931F93CF93DF934C015901FC2DC02F72
:10179000D0E0CE01880D991D181619060CF06CC00A
:1017A00020E8821691040CF067C09B012E0D311DBC
:1017B000121613060CF060C0603471050CF05CC0AA
:1017C0004115510509F458C0E62FE770FE2EDB01E4
:1017D00077FD179633E0B595A7953A95E1F73A2F3F
:1017E00077FF04C0FF2011F03FEF3A0F66277727FD
:1017F0006819790997FC02C070E060E080389105B3
:101800000CF44BC090E89819961BA32F032E000CE4
:10181000BB0B1A2F10953F3F0CF010E021E08E2DEE
:10182000877009F420E0E694E694E694E20EAE0DAB
:10183000B11D19971CF028E0E22EE31AE11A310FCE
:1018400020E83203D0011124A80DB91DA60FB71F3F
:10185000019F600D711D1124460F571F0F2D0F2C76
:10186000000C110BF33009F41CC1C8F4F13009F479
:10187000D0C0F23009F47CC0DF91CF911F910F915D
:10188000FF90EF90DF90CF90BF90AF909F908F90A0
:101890007F906F905F904F900895902FB5CFFA3F53
:1018A000B1F1232F2E0DFB3F39F7321729F3BD017C
:1018B00060597C4FD12CC12CC91608F0A4C0FA0184
:1018C000EC0DFD1DE491F0E04F01002E02C0880CEC
:1018D000991C0A94E2F737FD06C0FB018081E82CD1
:1018E000E0948E218083FF2061F0373054F45B0157
:1018F000F0E8AF0EB11CE92CE094F50180818E2157
:101900008083FFEFCF1ADF0A6F5F7F4FD5CF232F82
:101910002E0D321709F4B0CFBD0160597C4FD12C88
:10192000C12CC91608F069C0FA01EC0DFD1DE49147
:10193000F0E04F01002E02C0880C991C0A94E2F7D7
:1019400037FD04C0FB01808188298083FF2051F08E
:10195000373044F45B01F0E8AF0EB11CF501808133
:1019600089298083FFEFCF1ADF0A6F5F7F4FD9CFBE
:101970006FEF70E00F2C02C0660F771F0A94E2F73A
:1019800060957095772E232F2E0D321709F474CFA2
:10199000FD01E059FC4F6F01B12CA12CA91638F5BF
:1019A000FA01EA0DFB1DE491F0E02F01002E02C0C8
:1019B000440C551C0A94E2F737FD05C0F6018081FE
:1019C000862384298083FF2059F037304CF4460168
:1019D000F0E88F0E911CF401808187218529808396
:1019E000FFEFAF1ABF0A8FEFC81AD80AD7CF3F5FF1
:1019F0004C0F5D1FA058BF4FC8CF3F5F4C0F5D1FFE
:101A0000A058BF4F86CF3F5F4C0F5D1FA058BF4F00
:101A10004CCF6A0D7B1D232F2E0D321709F42CCFCE
:101A2000FD01E059FC4F6F01B12CA12CA91688F5DE
:101A3000FB01EA0DFB1D8490912C002E02C0880C46
:101A4000991C0A94E2F780949094FA01EA0DFB1D28
:101A50006490712C002E02C0660C771C0A94E2F789
:101A600037FD05C0F6018081882186298083FF200B
:101A700049F037303CF4F601E058FF4F808189216E
:101A800087298083FFEFAF1ABF0A8FEFC81AD80AE1
:101A9000CDCF3F5F4C0F5D1F6C0F7D1FA058BF4F18
:101AA000BCCFC92ED12CFA01E60FF71FA059BC4FAD
:101AB00000E810E00C191D09CC19DD09BE01660F04
:101AC000771F41E050E06A010F2C01C0CC0C0A9452
:101AD000EAF7592F2E2D792ECF93DF93ED01EF9654
:101AE000EF9622968590A590FF2059F08C9C40019E
:101AF000AC9C500137302CF4E880B094EB20E928FE
:101B0000E99233233AF0EC90A094EA20E828ED9291
:101B10000C948B0D11965A9529F72A9551F0572D53
:101B200033951124E60FF11DA00FB11DC00FD11D7B
:101B3000D9CFDF91CF9111249FCECF92EF920F9307
:101B4000EEEDFDE00491EFEDFDE0E49040EE5DE0B0
:101B50006623D1F041E050E03E2D377011F450E0A3
:101B600040E02E2D269526952695240F352F311DE4
:101B7000029FF001039FF00D11246E9FA0016F9F43
:101B8000500D11244052524F2BEFC22E30E020E076
:101B90006AE370E00E94B40B0F91EF90CF9008952C
:101BA000CF92EF920F93CF93DF93DC01FA01049170
:101BB0003196E4904E5F5F4F2223D1F0C1E0D0E038
:101BC0009E2D977011F4D0E0C0E0EE2DE695E695DD
:101BD000E695EC0FFD2FF11D0E9FE0010F9FD00D3C
:101BE00011242C9FC0012D9F900D1124480F591FC7
:101BF00082E0C82E30E020E0CD010E94B40BDF91DE
:101C0000CF910F91EF90CF90089590E00C942D0A12
:101C10008FB18095807F669B88601C9B846008954F
:101C200080915603809357030E94080E80935603B9
:101C3000089580389105B8F460347105A0F490E1FE
:101C400021E061FD24E060FD220F62FD2295687FA6
:101C5000969FD0011124A80FA059BC4F0C90022AC6
:101C600040FF02260C9208958F929F92AF92BF92EE
:101C7000CF92DF92EF92FF920F931F93CF93DF9358
:101C80005C01EB01042FE22E6034710510F40E9418
:101C90004408EC0EFD2EF11CB7016150710960344F
:101CA000710520F4402FC5010E944408D7FF02C0EF
:101CB000D0E0C0E04E01670181E4E816F1041CF0B9
:101CC00080E4C82ED12C8C149D044CF440E0B40167
:101CD000C5010E94190E8FEF881A980AECCF0A0DE1
:101CE0001B2D111D01501109CC15DD053CF440E000
:101CF000BE01C8010E94190E2196F6CFDF91CF9147
:101D00001F910F91FF90EF90DF90CF90BF90AF9019
:101D10009F908F9008951F93CF93DF93DC0130E065
:101D200020E050E040E011E0C1E0D0E026173707A6
:101D300091F114968C911497811115C014961C93EF
:101D4000149712968D919C911397ED91FC91119798
:101D5000E80FF91FE4911596EC93159701961396E9
:101D60009C938E93129714969C91149715968C9130
:101D70001597892349F0FE01022E02C0EE0FFF1FC6
:101D80000A94E2F74E2B5F2B990F14969C931497AD
:101D90002F5F3F4FCBCFCA01DF91CF911F910895A5
:101DA0002F923F924F925F926F927F928F929F926B
:101DB000AF92BF92CF92DF92EF92FF920F931F9359
:101DC000CF93DF93CDB7DEB72F970FB6F894DEBF72
:101DD0000FBECDBF4C017B012C870D875A834983F1
:101DE0001C821B821D821E8268E070E0CE0101967B
:101DF0000E948B0E1C019C012F5F3F4F3B872A875F
:101E000068E070E0CE0101960E948B0E8C0161E0CB
:101E100070E0CE0101960E948B0E2A853B85280D2D
:101E2000391D37FDF5C030E8831691040CF0F0C081
:101E30000F5F1F4F98012E0D3F1D37FDE9C040E495
:101E4000E416F1040CF0E4C06701F7FE04C0CC24F2
:101E5000DD24CE18DF0857E0C522DD242701F7FE78
:101E600003C097E0490E511C73E0559447947A954E
:101E7000E1F7F7FE09C021E0421A510828E030E0FE
:101E8000A9014C195D096A01980117FF02C0295F79
:101E90003F4FA90163E0559547956A95E1F758874B
:101EA0004F8307701127012B21F04F5F5F4F588739
:101EB0004F830D857101011102C0F12CE12C89873E
:101EC00001E010E0B12CA12C88E090E09C012C19DD
:101ED0003D093F872E874F815885A416B5060CF023
:101EE00097C066246394712C61E070E0CE01019686
:101EF0000E948B0E892B21F452E0650E711CF4CFE9
:101F0000B301CE0101960E948B0E01963C0170E058
:101F100060E06615770508F071C089858111102B86
:101F2000A02FAA0F09F067C0A2014A0D5B1DCA01CC
:101F300001960997D0F5C4018E0D9F1D803891053B
:101F4000A0F5CA019695982F882797958795880DB3
:101F5000991D8E0D9F1D4F3F540709F454C0212F2A
:101F60000C2C01C0220F0A94EAF7FC01E059FC4F47
:101F7000B0810C85002371F12B2B2083C114D10477
:101F8000A1F04730510589F0212F30E00E8402C0C6
:101F9000359527950A94E2F7FC01E051FC4F10813A
:101FA0004C854423D1F0212B20830D85011118C0CD
:101FB0002FEFE21AF20A4A855B85E416F506CCF0AB
:101FC0005FEFA51AB50A01E0F12CE12C6F5F7F4F9E
:101FD0001A2F9FCF20952B23D0CF20952123E4CFFC
:101FE00081E0E81AF108F7FE04C09FEFA91AB90AC8
:101FF000710101E0EBCF0A2FA12FE8CF298531E055
:102000002327298768CFC114D10409F0BDCFCDCFD4
:102010002F960FB6F894DEBF0FBECDBFDF91CF91E4
:102020001F910F91FF90EF90DF90CF90BF90AF90F6
:102030009F908F907F906F905F904F903F902F90E8
:1020400008958091710790E020917B0730917C0783
:10205000821B930B6AE070E00E9485279C0181E05F
:10206000232B09F080E00895CF938091570383FDDF
:1020700004C09091560393FD05C082FD05C0809178
:10208000560382FD1092010120E040EA56E061E132
:1020900070E080E290E00E94D00D80914B0390911F
:1020A0004C0360E370E00E9499278831910570F439
:1020B000C1E10C9708F0CEE120E049E956E069E182
:1020C00070E08BE590E00E94D00D04C0CFE18497D2
:1020D00008F0C0E26C2F70E041E084E390E00E94E1
:1020E000190EC0FD0AC020E045E956E06CE170E041
:1020F0008DE290E0CF910C94D00DCF910895909106
:102100007707981714F0691714F4809377070895E8
:102110001092720710927D0782E0809373071092ED
:102120007E0780917107873160F080917B079091E5
:102130007C0789399F4F2CF0109273078EEF8093A4
:102140007E070895FC012285261714F0421714F427
:10215000FC0162870895809176078150809376070D
:1021600096E090930101882339F08AE08093780704
:1021700085E596E00C94A10B88E0F8CF882329F040
:1021800083508D3010F080E0089581E00895813013
:1021900028F0843028F08750893010F080E00895CE
:1021A00081E00895CF93DF9382EB90E00E94512865
:1021B00080935F0883EB90E00E945128C0E7D7E04E
:1021C0008E8384EB90E00E9459289D838C83DF915D
:1021D000CF910895CF93DF93D82F8FEA90E00E949C
:1021E0005128C82F80EB90E00E945128D11104C0E3
:1021F000CC3411F48235B1F16CE48FEA90E00E94A6
:102200005F2862E580EB90E00E945F2861E081EB4F
:1022100090E00E945F2861E082EB90E00E945F28DE
:1022200065E083EB90E00E945F2861E086EB90E040
:102230000E945F2861E087EB90E00E945F2865E0E4
:1022400088EB90E00E945F2870E060E084EB90E013
:102250000E94712870E060E089EB90E0DF91CF91FF
:102260000C947128DF91CF910895BF92CF92DF92A5
:10227000EF92FF920F931F93CF93DF93EC016E8346
:102280004F83862F880F880F860F8F70A42FAA0F79
:10229000AA0FA40F90E1A902D00111248A2B8983EF
:1022A0008CE067FD03C0662311F084E08C8747FF54
:1022B00044C01C862223B9F11985111134C08C85C4
:1022C000811141C01D868A819B812AE030E0B901DD
:1022D0000E949927062F8C819D81B9010E94992720
:1022E000FF24FA94F60ECC24CA94C00EBB24B394F7
:1022F000B00EDF2CD11A6D2D802F0E94B1078330D4
:1023000089F46D2D8C2D0E94B107E82E6D2D8B2D3B
:102310000E94B1071F5F9DEF9E0D923018F0835011
:10232000823038F71987DF91CF911F910F91FF907D
:10233000EF90DF90CF90BF900895442309F4BACF77
:1023400088E08C87B7CF0E94F92726E030E040E094
:1023500050E00E9495286987E6CF4F925F926F9276
:102360007F928F929F92AF92BF92CF92DF92EF9225
:10237000FF920F931F93CF93DF93CDB7DEB73C014E
:10238000502E4B889C88BD88203108F0BDC0082D98
:102390009E2D842EE62EE22FF0E0EF52FE4E0C949E
:1023A0000429E111E111E111FD11FD11FD11861268
:1023B0008612861286128612B912B912B912E1116A
:1023C000E111992321F0935010E0923008F411E0CC
:1023D00046EF60E0C3010E94E60793E0591294C003
:1023E0001123E1F1811190C046E065E0C3010E9434
:1023F000A2102B2D4EEF60E02EC040E06AE0C3013A
:102400000E94E60711E01827912CEFEF8E1A9E0A22
:10241000F12CA401B701802F0E948607D82EB701A6
:102420006F5F7F4FA4018A2D0E948607E82E8C2DB6
:102430000E94BE10F82E8A2D0E94C710F4E0CF1221
:102440001FC01123E9F04AE067E0C3010E94A21017
:102450002B2D40E062E0C3010E943511812FDF91F6
:10246000CF911F910F91FF90EF90DF90CF90BF9091
:10247000AF909F908F907F906F905F904F90089556
:1024800094E0591214C0FF20D9F0882309F4D1C078
:10249000112309F4D5C044E061E0C3010E94A210F9
:1024A0002B2D40E062E0C3010E94351117C0E3E02C
:1024B0005E1206C0FF2021F046E065E01111C5CF95
:1024C000DD20B1F08BE0F30182872B2D42E060E04C
:1024D000C3010E9435110750093010F011E0BECF42
:1024E0008FE1F301838787E896E00E94A10BF6CF86
:1024F000882331F0FF2041F0112309F4AFCFCBCF77
:10250000FF2011F0E110F8CF10E0A8CF4AE060E022
:10251000C3010E94E60711E01827482D50E04F5FE5
:102520005F4F6E2D70E0802F0E948607033059F4B4
:10253000112309F493CF4BEF6AEFC3010E94A2105D
:102540002B2D42E058CF8823F9F2112309F486CFCE
:102550008BE0F30182872B2D42E060E0C3010E94F3
:1025600035110750093008F0B9CF8FE1F3018387A7
:1025700075CF40E066EFC3010E94E60711E018271F
:10258000C82CD12CFFEFCF1ADF0AF12CA601B7011E
:10259000802F0E948607A82EB70161507109A601FD
:1025A000842D0E948607E82E892D0E94BE10F82EE9
:1025B000842D0E94C71094E099120BC0112349F09A
:1025C00049EF66EFC3010E94A2102B2D40E06EEF91
:1025D0006ACFE4E05E1209C0FF20B9F0882369F1F8
:1025E000112391F14FEF6CEFEDCFF3E05F120DC0CF
:1025F000FF2059F0112349F046E065E0C3010E9435
:10260000A2102B2D40E06EEF26CFA1105BCF8823C8
:1026100039F0FF2009F478CF112309F41FCFE2CF5E
:10262000FF2009F471CFEE2009F46ECF1111C8CF4D
:1026300015CFDD2009F466CF45CFAA20A1F342CF04
:10264000DD2009F40BCF3ECFAA2009F407CF3ACF03
:102650002F923F924F925F926F927F928F929F92B2
:10266000AF92BF92CF92DF92EF92FF920F931F93A0
:10267000CF93DF93CDB7DEB72D970FB6F894DEBFBB
:102680000FBECDBF8091700790E020917907309107
:102690007A07821B930B05962AE030E0B9010E946D
:1026A0008527162F6D878091710790E040917B07F9
:1026B00050917C07841B950B0596B9010E948527D4
:1026C0007B016C8780910101853009F071C1812FF8
:1026D0000E94B107082FC0905603D0905703D094A2
:1026E000DC201092720710927D07809177078B3063
:1026F00021F01092730710927E076E2D812F0E9499
:10270000B107863071F580917407909175074996ED
:10271000909375078093740740E06E2D812F0E947F
:10272000CD0780916008882319F08150809360085C
:10273000B0906008B11011C080916108B81668F4BB
:10274000EB2DF0E0EE0FFF1FED59F74F43E06181F5
:1027500080810E94CD07B394EFCF8BEC92E00E9472
:10276000A10B809135039C2D9C709C3009F0DCC13D
:102770008F5F80933503853130F08D3308F463C06B
:102780008D3309F473C08D2D8470D3FC02C00C947A
:102790008D1F81110C94901F0E942110882311F429
:1027A0000C94901F8091700790E0209179073091F0
:1027B0007A07821B930B02966AE070E00E948527DD
:1027C000162FDD24DA94D60E6E2D8D2D0E94B107C2
:1027D000A82EBB24B394BE0C6B2D8D2D0E94B10787
:1027E000813011F00C94901F8FEF8A0D823010F41D
:1027F0000C94901F53E0A51611F40C94901F84EFD5
:10280000809377071092720710927D0747E06B2D37
:102810008D2D0E94CD0780917F09843169F093E06E
:10282000899FF0011124ED5BF64FD082B1829CEDBF
:1028300092838F5F80937F090E94100E8DEA92E051
:102840000E94A10B22C020E430E0A901481B5109DD
:10285000CA01880F93E294BD9FEF98BD91EF9093CA
:1028600080001092880080938A008DCF10923503EB
:1028700083E284BD8FEF88BD81EF8093800010924A
:10288000880010928A000E94AB1080914B0380FD5B
:102890008FC01092900810929E081092AC0810926F
:1028A000BA081092C8081092D6081FE8612E18E0E6
:1028B000712EF301808184FF72C0828193816AE06E
:1028C00070E00E949927D62E6887848195816AE0FE
:1028D00070E00E949927F62E69878D2D0E94B1071E
:1028E000B82EEE24E394EF0C6E2D8D2D0E94B107CF
:1028F000982EF6E0BF121AC0D30118968C91811160
:1029000015C00E94F9270E94F9272AE030E040E034
:1029100050E00E9495286C5E7F4F8F4F9F4FF301D0
:10292000608740E06F2D8D2D0E94CD07D3011A9650
:102930008C911A978D309CF51296ED91FC91FB8746
:10294000EA87CF016AE070E00E949927892B39F568
:10295000D30114960D911C91C8016AE070E00E94A9
:102960009927892BE1F4F3018385882309F414C4A2
:102970008085882379F0FA946F2D8D2D0E94B10700
:10298000811108C0D30118961C9246E06F2D8D2D41
:102990000E94CD07F3011782838581508387FEE073
:1029A0006F0E711C23EE621628E0720609F081CFCB
:1029B00080914B0390914C036CE070E00E9499274A
:1029C000892B31F48091340391E08927809334037B
:1029D0001091010188EF810F833010F40C94AD1D2C
:1029E000B12CA12C712C912C812C612CC0907907D9
:1029F000D0907A07C80CD91CC60109968938910570
:102A000028F5E0907B07F0907C07EA0CFB1CC701DF
:102A1000099689349105D0F4672D862D0E94B1075F
:102A2000082F882339F0282F43E053E0B701C6016F
:102A30000E94D00D29EF200F243040F4B7016A50D6
:102A4000710949ED52E0C6010E94D00D63943AE04D
:102A5000830E911C4CE16412C9CF73945AE0A50E09
:102A6000B11C80E17812BFCF153021F08091340382
:102A70008823F1F080917707082F001F0027001F9F
:102A8000082E000C990B97FF03C091958195910931
:102A9000880F990BFC01E25EFE4F408151816091ED
:102AA000710770E08091700721E090E00E94D00EE5
:102AB000AFE88A2EA8E09A2E6401D6018C9184FF9B
:102AC000A7C44090790750907A0712966D907C9039
:102AD00013975201A60CB71C14962D913C91159793
:102AE000E0907B07F0907C07E20EF31E1B96EC91C2
:102AF0001B97E33108F06DC5F0E0EF57FA4E0C94E8
:102B00000429EE19071B071B031B031BFF1AFF1ADF
:102B1000F81AF81AF11AF11AE61AE61AED1AED1A6D
:102B2000E61AE61AED1AED1A882309F42CCE83E290
:102B300084BD8FEF88BD81EF809380001092880064
:102B400010928A00109235031ECE0E942110882315
:102B500011F40C94901F8091700790E020917907F8
:102B600030917A07821B930B02966AE070E00E9414
:102B70008527162FDD24D394D60E6E2D8D2D0E9421
:102B8000B107B82EAA24A394AE0C6A2D8D2D0E94F5
:102B9000B107813011F00C94901F8FEF8B0D8230B4
:102BA00010F40C94901FA3E0BA1611F40C94901F2B
:102BB0008CE0809377071092720710927D0747E0B0
:102BC0006A2D8D2D0E94CD0780917F09843109F4F3
:102BD00033CEB3E08B9FF0011124ED5BF64FD08232
:102BE000A18225CEF4E02F1621F02F81243009F0A8
:102BF000CDC168E087E00E947F100E94F00A99C072
:102C00000E947D08882309F455C08F81835082304B
:102C100010F18114910481F1011141C0511060C182
:102C2000892811F40C94E91FB6016F5F7F4FA5014D
:102C3000862D0E945807082F811111C0109272072B
:102C400010927D07002309F4A1C08BE080937707E1
:102C50000E9488101ACE002389F3552029F064E0E1
:102C600081E00E947F1065C03F816AE087E03430D8
:102C7000C1F366E085E0F5CFA501B601832D0E9482
:102C80005807182F882311F40C94881F8BE0809329
:102C900077078BE591E00E94A10B012FCFCFA50113
:102CA000B6016F5F7F4F862D0E943207882309F49B
:102CB000BBCFD5CF62E06E0D872D0E94B107382EB5
:102CC000862D0E94BE10002311F40C947D1F8823D2
:102CD00011F40C94781F36014FEF641A740AA501A1
:102CE000B301832D0E94320781111DC0892899F1FB
:102CF000642D812F0E94B107182F8F810E94BE1072
:102D0000082F882309F49ACFB6016F5F7F4FA50182
:102D1000812F0E945807082F882309F48FCF8BE05A
:102D2000809377076ACF64E081E00E947F10109261
:102D3000770780917B075AE0E59E800D11248093F0
:102D40007107809170078C3390F482E08093720752
:102D500010927D071BC0A501B301832D0E94580767
:102D6000082F882309F46ACF66E085E044CF2091DC
:102D7000790730917A0729363F4F34F01092720765
:102D80008EEF80937D0702C087FFDFCF109273071D
:102D900081C1C5FEFDC06E2D812F0E94B107782E26
:102DA0008091700790E02091790730917A07821B1B
:102DB000930B6AE070E00E9485274C0155245A94D9
:102DC000510E892B09F0512E6E2D852D0E94B107D1
:102DD000282E442443944E0C642D852D0E94B10767
:102DE0008F8381E0810F8114910409F4812F642D78
:102DF0000E94B107382E822D0E94BE10082F570165
:102E0000BB24AFEFAA1ABA0AC12ED12CA501B60174
:102E1000832D0E943207682E0E942110909177071F
:102E20009B3091F4882309F4AFC061100C94E51F26
:102E3000B4E02B1611F07B12A9C069EF86EF0E9457
:102E40007F100E94F00A7FC00E947D08882309F449
:102E50004BC08DEF870D823020F18928A1F101113F
:102E600002C061103DC0642D812F0E94B107182F50
:102E7000872D0E94BE10F1E0CF1AD108882339F0C7
:102E8000A501B601812F0E94320781110FC0A50153
:102E9000B601812F0E945807082F882309F4CECE4F
:102EA00005C0002309F4CACE662029F06FEF8CEF2D
:102EB0000E947F1048C0E4E069EF86EF7E16C1F300
:102EC00066E085E0F5CFA501B601832D0E94580785
:102ED000182F8111DBCE0111E9CF662009F4AECEA7
:102EE000109277070C94E91F62E06E0D852D0E9409
:102EF000B107182F8F810E94BE10002309F49ECEC7
:102F0000882311F40C94E91F21E0C21AD108A5010D
:102F1000B601812F0E94320781110FC0A501B601B1
:102F2000812F0E945807082F8928D9F0882309F497
:102F300085CE8BE08093770784CF6FEF8CEF0E9474
:102F40007F101092770780917B073AE0E39E800D17
:102F5000112480937107809170078D3340F08EEFBC
:102F6000F5CE882309F46ACE66E085E068CF20912B
:102F7000790730917A0737FF04C01092720782E018
:102F800000CF8111ECCF02CF01E058CE082F56CEF2
:102F9000C7FE92C08091710790E020917B0730912D
:102FA0007C07821B930B08966AE070E00E948527DD
:102FB0007B01B62E0E942110C82E6FEF6E0D81117D
:102FC00001C06E2D812F0E94B107D82ECC2019F0A0
:102FD000BB24B394BE0C6B2D812F0E94B10790913E
:102FE000770795301CF19730A4F09B30F9F404304A
:102FF00011F4C11099C0A70155274F5F5F4F612F92
:1030000070E00E943207882309F422CE10927707DD
:1030100008C0CC2061F1033021F48FEF8D0D823098
:1030200030F50E94F00A1092720792CE0E94F00AC8
:103030008091700790E02091790730917A07821B88
:10304000930B2AE030E0B9010E948527863020F0FA
:10305000A901481B5109CA0105972CF7033019F73C
:103060008FEF8D0D8230F8F285E0809377078091A5
:1030700079075AE0159F800D1124809370071092F4
:10308000720710927D0780917107883130F08EEFC2
:103090008093730710927E07F8CB20917B073091C5
:1030A0007C0737FF06C01092730782E080937E078B
:1030B000ECCB8111ECCFE9CBC4FC09C08091730744
:1030C000823029F080917E078E3F09F0DECB80911F
:1030D000710790E020917B0730917C07821B930B56
:1030E00008966AE070E00E9485277B01B62E0E9458
:1030F0002110D82E6FEF6E0D81116E2D812F0E9441
:10310000B107C82EDD2019F0BB24B394BE0C6B2D83
:10311000812F0E94B107B82E809177078B30C1F4C0
:10312000043031F4DD2031F087E08093770779CFE8
:10313000D11008C0A70155274F5F5F4F612F70E086
:103140008B2D5FCF84EF8C0D843008F46ACFF2CFE3
:1031500083E0B8120DC0809179079AE0199F800D25
:103160001124809370076BEF8AEF0E947F1070CD5F
:103170008B2D0E94BE10882309F448CFB11003C0E4
:103180008BE08093770780917907AAE01A9F800DE2
:103190001124809370075CCD6FEF6F0D8D2D0E9411
:1031A000B1078F836F2DCC24C394CD0C8C2D0E943E
:1031B000B107582E6E2D8C2D0E94B107482E6E2D12
:1031C000EE24EA94ED0C8E2D0E94B107382E6F2D5F
:1031D0008E2D0E94B107282ED30119968C91199734
:1031E000882309F46BC01F922F923F92892CA42C44
:1031F000C52CEF800B2D1D962C914F2D6D2DC301ED
:103200000E94AD11F3019185915091870F900F901D
:103210000F908111C4CB1485F3018085882379F048
:103220009FEF990D923058F4B11009C081508087FA
:10323000811105C046E06F2D8D2D0E94CD07F1E074
:10324000FF932F923F92892CA42CC52CEF800B2D3D
:10325000212F4F2D6D2DC3010E94AD110F900F90A6
:103260000F9081119CCBF12EB8E0DB2E112309F4D5
:103270009AC0115021E02F932F923F92892CA42CB9
:10328000C52CEF800B2D212F49856885C3010E9435
:10329000AD110F900F900F90882309F434C6D3011D
:1032A0001A968C918B3009F07ACB892D0E94C71029
:1032B000882309F474CBF301178271CB80917007D6
:1032C00090E02091790730917A07821B930B2A8531
:1032D0003B85281B390BC9012091710730E04091D3
:1032E0007B0750917C07241B350B021B130B97FFA8
:1032F00025C010161106BCF4919581959109081707
:103300001907DCF180179107D4F511E0EDEFE10F1B
:1033100080E0EC3020F4F0E0EE5EFE4F8081D301DF
:103320001D968C9379CF0115110559F108171907CE
:1033300054F1801791074CF515E0E8CF0097C9F0DC
:103340001016110644F4081719070CF1801791079D
:1033500004F51FE0DBCF01151105E9F0119501958A
:10336000110980179107CCF008171907C4F41BE066
:10337000CDCF17FF16C018E0C9CF13E0C7CF12E0BA
:10338000C5CF14E0C3CF17E0C1CF16E0BFCF1DE01B
:10339000BDCF1EE0BBCF1CE0B9CF19E0B7CF1AE01C
:1033A000B5CF10E0B3CF1FE065CFF39431E03F938A
:1033B0002F923F92892CA42CC52CEF800B2D2F2D02
:1033C00049856885C3010E94AD110F900F900F9041
:1033D000811165CFDA94D11049CF61CFF601828592
:1033E000082F001F0027001F082E000C990B97FFC5
:1033F00003C0919581959109880F990BFC01E25EBC
:10340000FE4F4081518121E0B701C5010E94D00EDD
:10341000FEE0CF0ED11C23EEC21628E0D20609F042
:103420004CCB20907007312C8091790790917A07CE
:10343000281A390A40907107512C80917B0790918E
:103440007C07481A590AD4018C9184FF34C0129623
:103450008D919C911397F101E81BF90B14968D91B6
:103460009C91B201681B790BA09071074A2D50E026
:10347000461B570BE09070072E2D30E02E1B3F0BA4
:10348000473FBFEF5B070CF027C12F3F4FEF3407DB
:103490000CF465C12C3731050CF069C1E3948E2D15
:1034A0008E1BF7E86F2EF4E07F2E4DEB54E090E09A
:1034B0008F3F09F043C19EE0890E911CC814D904C6
:1034C00011F6812F8B7F833009F070C10091590371
:1034D000802F002E000C990B302F330F27E3231B76
:1034E00040E450E0481B590B440FBC010E94340ECD
:1034F000F12CE12CC02ED12C41E0B601C7010E9475
:10350000190EA2E0EA0EF11CB2E8EB16F104A1F7E5
:1035100096E3E92EE01AB12CA12CF12C41E0B70181
:10352000C5010E94190EE2E0AE0EB11CF2E8AF1622
:10353000B104A1F7F12CE12C41E0B701C6010E94D2
:10354000190E22E0E20EF11C32E4E316F104A1F7B9
:103550008FE7E82EE01AD12CC12CF12C41E0B60106
:10356000C7010E94190E42E0C40ED11C52E4C516D8
:10357000D104A1F7133009F0D4C20150E02E002E7F
:10358000000CFF088BE190E08E199F09880F20E462
:1035900030E02E193F09B22EBB0C902EA12CD12C5D
:1035A000C12C11E0180F97FCFBC0C7018C199D09B5
:1035B000212F2A0D4B2D4A0DBC010E94340E9A94E6
:1035C0008FEFC81AD80AA394A394EDCFF1E0AF1AF5
:1035D000B10800E047E654E016CF2FEFA21AB20A76
:1035E000F8CF32E0E31AF10800E046E554E00BCFF3
:1035F00044E0E41AF10800E045E454E004CF56E06A
:10360000E51AF108F1CF88E0E81AF108F4CF9AE062
:10361000E91AF1082A50310915963C932E93149714
:103620001B961C92C3016AE070E00E949927062F46
:10363000C9016AE070E00E949927362EBFEFB00FF3
:10364000BF838B2F0E94B107888722242394230CE9
:10365000622D8F810E94B1078F830F5F632D802FB2
:103660000E94B107382E622D802F0E94B107082FCB
:103670008091700790E0841995098615970584F468
:1036800088850E94BE108823F1F08F810E94C710A8
:103690008823C9F02FEFF60122873EEF3683A4CFAF
:1036A000832D0E94BE10882329F0802F0E94C7100E
:1036B000811109C0EFEFD6011A96EC931A97FEEF2D
:1036C0001696FC9391CF81E0D6011A968C931A97A7
:1036D000E2E01696EC9388CF45335105A4F02F3FD6
:1036E0005FEF35070CF44CC02C3731050CF050C09F
:1036F000E3948E2D8E1BE8E76E2EE4E07E2E4CEADE
:1037000054E093E3D5CE2C3F8FEF380754F49A2D35
:10371000961B7AE9672E74E0772E43ED54E080E043
:103720000DC02C3731050CF4C6CE9A2D961B66E9D8
:10373000662E64E0762E4EEC54E08CE7A92EB12C78
:10374000E82EF12C00E020E0B501C7010E94D00E68
:1037500021E0A301B501C7010E94D00EACCE5FE805
:10376000652E54E0752E46EC54E090E0D8CF45EA43
:10377000642E44E0742E40EE54E090E08BE7DECF00
:1037800030E8632E34E0732E45EB54E092E3C7CF6C
:103790002EE9622E24E0722E48ED54E092E3EECF43
:1037A0000093590384E00F3F09F4D4C110E000E016
:1037B000B7E3EB2EF12C40E0B701C8010E94190ECF
:1037C000BFEFEB1AFB0AE0E4EE16F104A1F70F5F7E
:1037D0001F4F0038110561F720E04AEC55E069E31E
:1037E00070E090E080E00E94D00D8091740790918D
:1037F0007507FE01319626E0DF011D922A95E9F753
:103800008F019E01295F3F4FAAE0EA2EF12CB701FC
:103810000E9499278193CB012E173F07C1F7E5E35B
:10382000EE2EF12CF80161918F01C7010E949D0DD0
:10383000F5E0EF1AF10827E1E216F10499F710918B
:10384000760720E049EA55E069E370E08DE390E017
:103850000E94D00D0AE0812F602F0E94F828192FB6
:10386000682F81E590E00E949D0D612F86E590E034
:103870000E949D0D10910101153009F0CFC11091EA
:10388000600820E045E855E069E370E08EE590E0EF
:103890000E94D00D812F602F0E94F828192F682FC9
:1038A00085E790E00E949D0D612F8AE790E00E94DD
:1038B0009D0D40914B0350914C0380917207709184
:1038C000730760917D0730917E0740FFF1C143701F
:1038D0005527452B01F5AFE8B8E043EE58E09C9141
:1038E00094FF15C01B969C911B97911110C01A96BE
:1038F000EC911A9793EF9E0F933008F0EFC1E45FBD
:10390000F0E0E95FF94FE4911A96EC931A971E964E
:103910004A175B0721F720917007280F2093700743
:1039200010917107170F10937107E0907907F090CD
:103930007A07E60EF11C67FDFA94F0927A07E0929E
:10394000790740917B0750917C07430F511D37FD4C
:103950005A9550937C0740937B07812F90E0841BFE
:10396000950B0596EAE0F0E0BF010E948527362F0F
:10397000822F90E08E199F090596BF010E9485272E
:10398000862F632F0E94B107123000F58330F1F4C7
:1039900010915F081F5F809176078A3018F48F5F5F
:1039A0008093760786E08093010110935F08612F72
:1039B00082EB90E00E945F288BE01B3908F489E0DD
:1039C0008093780783E296E00E94A10B80914B03DD
:1039D00080FD77C00FE818E073EEE72E78E0F72E51
:1039E000D8018C9184FF51C016968C91169712962F
:1039F0006D917C911397680F711D87FD7A951396D1
:103A00007C936E93129717968C91179714964D91FD
:103A10005C911597480F511D87FD5A9515965C933B
:103A20004E9314972091700730E080917907909120
:103A30007A07281B390B80917107E0917B07F09181
:103A40007C076901B2E0CB0ED11CDB011896CA16C7
:103A5000DB06DCF46E5F7F4F285F3F4F6217730712
:103A6000A4F490E08E1B9F0BBC016E5F7F4F9A0108
:103A7000285F3F4F6217730744F44E5F5F4F08960D
:103A80004817590714F40E94AB10025F1F4FE0164D
:103A9000F10609F0A5CF10E000E0612F802F0E9411
:103AA000B10799EF980F943030F441E0480F612F3F
:103AB000802F0E94CD070F5F0C3179F71F5F103107
:103AC00059F780917F09882309F492C1F12C4DE0C8
:103AD000942E53EEA52E58E0B52E6AE0E62E809186
:103AE0007F09F81608F07AC1CF2CD12C8601000F7F
:103AF000111FF801EC0DFD1DED5BF64F828188234F
:103B000071F081508283803109F407C108F0F8C058
:103B1000813009F404C14FE0883009F4F7C0F39410
:103B2000DECF10E8F12CE12CE01664F427EB210F36
:103B3000412FB701C7010E94340E9FEFE91AF90A1D
:103B40001250F2CF0F5F009359030C3109F02ECEC3
:103B5000809178078093010129CE1A3029F500E081
:103B600021E043E355E069E170E08AE290E00E94E1
:103B7000D00E09E210E041E066E170E0C8010E9469
:103B8000190E0E5F1F4F09351105A9F709E210E064
:103B900041E060E270E0C8010E94190E0E5F1F4F05
:103BA00009351105A9F702CE00E021E042E055E019
:103BB000183079F110915F08812F64E60E94F8288F
:103BC000082F282F4EED5DE069E170E088E490E079
:103BD0000E94D00D812FACE90A9F800D11246AE06C
:103BE0000E94F828192F282F4EED5DE069E170E062
:103BF0008DE490E00E94D00D212F4EED5DE069E153
:103C000070E082E590E00E94D00D00E021E048EEF7
:103C100054E069E170E08BE290E0A9CFF0905F089A
:103C200020E041E655E069E370E08EE590E00E9417
:103C3000D00D64E670E08F2D90E00E948527F82E6D
:103C400080E790E00E949D0D8F2D602F0E94F82844
:103C5000092F682F85E790E00E949D0D602F8AE76D
:103C600090E00E949D0D209156038091570380950E
:103C70008223143009F024C19091360322FF0EC133
:103C80009E3208F0EAC0993208F4F3C083E284BDA2
:103C90008FEF88BD81EF8093800080E4809388005F
:103CA00010928A00809136038F5F80933603A0C004
:103CB000811107C0711105C0611103C0332309F4DC
:103CC00006CE90917707ECE0E90FEC3120F4F0E0BC
:103CD000E95FF94F949190937707F9CD16969C91EF
:103CE0001697911106C017969C911797992309F47E
:103CF0000ECE9CE09E0F9C3108F006CEE92F00CE40
:103D0000883149F04CE0803209F009CF618180812F
:103D10000E94CD0704CF4DE0F9CF4EE0F7CF809160
:103D2000620890E0880F991F8957974FAFE8B8E075
:103D30003F01AF014F5F5F4F2C9124FF35C0F3016E
:103D400020812E9D9001112412966D917C911397E4
:103D50002617370749F5FA0120812E9D900111247D
:103D600014966D917C91159726173707E9F4FC019D
:103D7000218160816E9DB001112413967C936E9316
:103D800012972E9D9001112415963C932E93149713
:103D90001A969C921A971B961C921B9716961C9229
:103DA000169717961C9217971E96AA16BB0621F611
:103DB000F801EC0DFD1DED5BF64F80812D85821322
:103DC00006C081813C85831302C00E94AB100C0D9C
:103DD0001D1DF801ED5BF64F41E098CF809145093C
:103DE000813031F40E94970880917F098111F6CFCC
:103DF00080913503811118C080913603811114C060
:103E000080916008811172C090910101953009F490
:103E100080E293E294BD809588BD81EF809380001D
:103E20001092880010928A002D960FB6F894DEBF8B
:103E30000FBECDBFDF91CF911F910F91FF90EF90FB
:103E4000DF90CF90BF90AF909F908F907F906F90BA
:103E50005F904F903F902F900895933370F0909122
:103E60005F0887FF14C09A3990F49F5F90935F08B2
:103E7000BFCF9F5F90933603BBCF83E284BD8FEFAC
:103E800088BD81EF809380001092880009CF84FF65
:103E9000AFCF923008F4ACCF9150E8CF992391F096
:103EA000933340F092E090930101109236038823FF
:103EB00009F49ECF109257031092560385E00CC070
:103EC00010923603882309F493CF183061F038F448
:103ED00080917807173071F78093010189CF82E0D4
:103EE0001B30D0F3E7CF1092010182CF80E091CF59
:103EF000892811F00C9478166CC0892811F40C9460
:103F00001E160C9478164FE0F4124FCAF12C4ECACC
:103F100001110C942F160C940E1681110C94A515FA
:103F2000C6FC02C00C94C9166E2D812F0E94B107E9
:103F30008F838091700790E02091790730917A0704
:103F4000821B930B6AE070E00E9485274C01772466
:103F50007394710E892B09F0712E6E2D872D0E949E
:103F6000B107282E442443944E0C642D872D0E94C3
:103F7000B107682E8FEF810F8114910409F4812F0E
:103F8000642D0E94B107382E822D0E94BE10082F8A
:103F90005701BB24EFEFAE1ABE0AC12ED12CA501EA
:103FA000B601832D0E943207582E0E942110909155
:103FB00077079B3011F00C940016882311F40C94B1
:103FC000C417552011F40C94F215109277070E9433
:103FD000F00A00E00C941E161F920F920FB60F927B
:103FE00011248F939F938091E1009091E100937F42
:103FF0009093E10083FF0FC01092E90091E090934D
:10400000EB001092EC0092E39093ED0010926F039E
:1040100098E09093F00082FF22C093E09093E90033
:104020009091F200992319F09AE39093E80090910F
:104030006003992341F09091600391509093600345
:10404000911101C05D9A90916E03992341F0909176
:104050006E03915090936E03911101C0289A84FFD2
:1040600018C08091E2008E7E81608093E200809192
:10407000E1008F7E8093E100809161038E7E8061FC
:10408000809361039F918F910F900FBE0F901F90AF
:10409000189580FFF7CF8091E2008E7E806180933B
:1040A000E2008091E1008E7E8093E10080916103C7
:1040B0008E7E8160E5CF1F920F920FB60F92112472
:1040C000CF92DF92EF92FF920F931F932F933F9324
:1040D0004F935F936F937F938F939F93AF93BF9310
:1040E000EF93FF93CF93DF93CDB7DEB76C97DEBF2F
:1040F000CDBF1092E9008091E80083FF25C068E001
:10410000CE0145960E94130A82EF8093E8008D89C4
:1041100087FF39C09091E80090FFFCCF982F9076F0
:1041200009F034C19E894F89588D2F89F88C9111DF
:1041300031C0803861F580915F038093F100109267
:10414000F1008EEF8093E8006C960FB6F894DEBF16
:104150000FBECDBFDF91CF91FF91EF91BF91AF9196
:104160009F918F917F916F915F914F913F912F918F
:104170001F910F91FF90EF90DF90CF900F900FBEA7
:104180000F901F9018959EEF9093E800C7CF109264
:10419000F100D5CF913059F48111D3CF4130510581
:1041A00081F680915F038D7F80935F03CACF933048
:1041B00049F48111C6CF4130510519F680915F0352
:1041C0008260F2CF953041F48091E80080FFFCCF0F
:1041D00020682093E300B5CF963009F0A9C00B8D7D
:1041E0001C8D22E01092E90010925D0310925C0396
:1041F000F2122EC010925B0310925A030E94E20941
:104200001F8299E09983FA8291E09E8390EA9887D1
:104210009AEF998720915C0330915D03275F3F4FB0
:104220003C832B838D831092E90010925D031092E2
:104230005C0310935B0300935A0349E050E0BE0116
:104240006F5F7F4F80E00E94BC090E94E20979CF36
:1042500010935B0300935A030E94F908DC01129645
:104260000D911C910115110509F451C1D801ED9171
:10427000FC910480F581E02DBE016B5E7F4FC8018B
:104280000995009709F03EC1F80100851185EACF34
:10429000F3E0FF120EC08F89882309F440C08230FA
:1042A00061F440E867E086ED9DE00E941E238111E5
:1042B00048CF81E28093EB0047CF813029F440E87A
:1042C0006BE08AEC9DE0F1CF833099F70E94F9080A
:1042D000DC011296ED90FC908E010F5F1F4F68017C
:1042E000E114F10479F0D701ED91FC910680F7819A
:1042F000E02DB801C7010995080F111DF701E084F1
:10430000F184EECFD8011C92F60101900020E9F76C
:104310003197BF016C197D0940E0C601C6CF64EB3F
:104320007DE0FB01449150E080E80E94BC0909CF88
:10433000973009F4BECF983021F481E08093F100EA
:1043400000CF993009F0FDCE837009F0B2CFE3E1E0
:10435000F3E081E031E096E32191222371F0809334
:10436000E9003093EB00DF0111972C912093EC00D2
:104370009093ED008F5F873079F78EE78093EA00A6
:104380001092EA008F8980936F03DBCE8B8D9C8D1A
:104390001092E90010925D0310925C0390935B030E
:1043A00080935A03898D811192C08E899D89913A9B
:1043B00049F4813209F07DCF47E050E066E071E0DA
:1043C00080E0B3CF913209F074CF833269F48F89E2
:1043D000988DB0E0A0E08093020190930301A09338
:1043E0000401B0930501ADCE803269F48091E800FC
:1043F00082FFFCCF67E086E091E00E94130A8BEF1A
:104400008093E8009ECE823209F09BCE8F89809304
:104410000D01EEEFFFE7859194918B3F9C4D51F19B
:10442000E0E0F8E08091060190910701A091080179
:10443000B0910901803B9440A105B105F1F4809150
:104440000D0180FD1AC0EE3F8AE0F80789F587E785
:1044500097E7918380838091600080935E0388E179
:104460009BE00FB6F894A895809360000FBE9093E0
:10447000600067CEEEEFFAE0D5CF8081918187377B
:10448000974709F05ECEA89580916000886180937F
:10449000600080915E0380936000EE3F2AE0F207A7
:1044A00089F08091FE0A9091FF0A9183808349CE22
:1044B000808191818737980751F29093FF0A80930A
:1044C000FE0AC5CF1092FF0A1092FE0A3ACE0E9451
:1044D000F908DC0112960D911C910115110509F4E2
:1044E000E8CED801ED91FC910190F081E02DBE0164
:1044F0006B5E7F4FC8010995811123CEF8010085BD
:104500001185EBCF181619060CF41BCED2CEF1E0B4
:10451000FF12BECE68EB7DE004CF0F920FB68F93F3
:104520009F93EF93FF93809145038D5F8D3708F044
:104530008D5780934503EFE4F3E080818E4F8083B5
:1045400091819F4F918382818F4F828383818F4F8F
:104550008383E6E4F3E080818F5F808381818F4FE6
:10456000818382818F4F828383818F4F83838FB139
:104570008F6066991C9B88278F3681F48091440355
:10458000981B963068F0E0E0F8E087E7808381834D
:1045900088E180936000F0936000FFCF9093440324
:1045A000FF91EF919F918F910FBE0F9018951F92E1
:1045B0000F920FB60F9211242F933F934F935F9357
:1045C0006F937F938F939F93AF93BF93EF93FF93DB
:1045D0008091400390914103A0914203B091430325
:1045E0000097A105B10539F120913F03211105C0C4
:1045F000369A20913E0321114F9A0197A109B109E2
:10460000B7FD08C08093400390934103A0934203F9
:10461000B0934303FF91EF91BF91AF919F918F9121
:104620007F916F915F914F913F912F910F900FBEAE
:104630000F901F9018950E94FC0AECCFEF92FF920A
:104640000F931F93CF93DF93F82E192FE62E042F8D
:1046500081E0860F880F0E948E0983E00E948E09F8
:10466000CF2DD12FEC0EFD2EF11CCE15DF05B9F0AC
:1046700007FF13C0FE0184910E948E09182F80E06D
:104680000E948E09812321968111EFCFDF91CF9176
:104690001F910F91FF90EF9008958881EDCF81E0F9
:1046A000F5CF1092E6081092E50888EE93E0A0E0BE
:1046B000B0E08093E7089093E808A093E908B093EE
:1046C000EA088DE193E09093E4088093E3088FEF8C
:1046D0009FEF9093F0088093EF088FE297E090931C
:1046E00042098093410980E090E8909340098093CB
:1046F0003F0946983E9A5F98579AE3E4F9E01082A2
:1047000011821282339689E0EF37F807C1F71092D1
:104710007F090895789483E084BD83E085BD81E0BE
:1047200080936E00E1E8F0E083E08083E0E881E0E0
:104730008083E1E983E08083E0E981E08083E1EC4C
:1047400087E08083E3EC81E08083E0EC82E080839B
:10475000E2EC81E08083EAE787E080838068808301
:1047600010926F0310925F03109261038091D70043
:1047700081608093D70080EA8093D80089B58061FA
:1047800089BD89B5826089BD09B400FEFDCF81E095
:1047900090E00E942D0A8091D8008F7C80618093E8
:1047A000D8008091E000807F8093E0008091E1005C
:1047B0008E7E8093E1008DE08093E200559A209AEE
:1047C00081EC80937C0081E785B987E684B985E335
:1047D0008BB98FE38AB9769A6E9880EF81BB10BA55
:1047E00080E58CBD81E08DBD85E00E94050E599A63
:1047F00085E00E94050E5C98E6EAF7E085918EBDA3
:1048000000000DB407FEFDCFE03BC1F75C9A81E8E4
:104810008093640081E0809365000E94080E87FF0A
:1048200015C05C9885EA8EBD00000DB407FEFDCF73
:104830005C9A2E9858982D9880916400806280939D
:10484000640081E083BF889513BEFCCF0E94080EF0
:1048500082FF43C02D980E94080E84788438D1F4DA
:104860002D9A88EC0E94050E589882E090E00E94F4
:1048700051288F3F29F06FEF82E090E00E94772867
:1048800084EF91E00E942D0A589A0E94080E8478C5
:104890008438D9F30E94080E84718431D1F42D9AA2
:1048A00088EC0E94050E2E9882E090E00E9451282C
:1048B000882329F060E082E090E00E94772884EF6E
:1048C00091E00E942D0A2E9A0E94080E8471843174
:1048D000D9F388EC0E94050EB9CF2D9A88E2809317
:1048E0000001809164008E7F8093640080917A0043
:1048F000806480937A0080917A0086FDFCCFC0911D
:104900007800D09179000E94C40AAB01BC01CE01AD
:10491000B0E0A0E0DC01992788278C019D01040FFD
:10492000151F261F371FC901B8012091640021609F
:1049300020936400611571058105910511F00E94B5
:10494000482882E090E00E945128882309F445C05D
:104950003E9A579A81E080934A0380E00E94EA10D1
:104960000E94D21084E18093700783E280937107E4
:1049700010927707109278075B9A5B9AE4E1F0E077
:10498000859194918831954969F5E6E1F0E084914B
:10499000E7E1F0E0E491F82FF0935403E093530340
:1049A0005A988BEA0E94260A5A9A4CE1442E512CBE
:1049B00057E1652E712C68E9862E99249A94DAE0E5
:1049C000B0904D03BB20A9F010924D0380E090E021
:1049D000892BB1F30E940000F2CF10924A033E9857
:1049E0005798BBCF8BE89FEF90935403809353036A
:1049F000D7CF90914F0380914E03292F281B822FF0
:104A000020910001821740F48F5F8217F8F681E051
:104A100083BF889513BEDACF81E080934D039093D6
:104A20004E03EBE4F3E080819181019680839183D2
:104A30000E94100EE0910101EE30C0F4F0E0ED5D57
:104A4000FA4D0C94042955257225E425F026F0260C
:104A5000F0264F27F026F0265327F0267A27312517
:104A600034258DE0809301010E9434105B98E0E7CB
:104A7000F3E081E030EB20E146E05C983EBD4A95F2
:104A8000F1F72EBD20E8239507C0449140815C9A40
:104A90004EBD8111412D419344912A95B1F7339533
:104AA000383B49F70DB45B9A91CF8091580381113F
:104AB00004C084E09DE00E94A10B20E042E059E0A8
:104AC00070E060E090E080E00E94D00D809157039C
:104AD000809590915603892383FFC8CF81E080930E
:104AE0000101C4CF83EB90E00E945128C09155038F
:104AF000853009F05BC082EB90E00E945128813044
:104B000009F054C01C2F110F110F1C0F185EBB248D
:104B1000B39448EC58E068E170E000E021E086E200
:104B200090E00E94D00E612F70E021E04CEF58E041
:104B30008FE190E00E94D00E08EF1FEF20E04DE2E1
:104B400058E070E060E0C8010E94D00D20E04DE226
:104B500058E068E370E0C80108960E94D00D005F3D
:104B60001F4F0838110551F7809157038095909198
:104B700056038923B11010C087FF05C0CC2319F05C
:104B8000C150C093550384FF07C090915503911104
:104B900003C091E09093550383FF68CF8091550344
:104BA00081110CC00E94D21082E099CFCD9F102DB0
:104BB00011241D5E4FE458E063E1AECF813009F06F
:104BC00055CF0E94EA10EECF0E94F00A80917F0933
:104BD000882319F00E949708F9CFE0915F088E2F83
:104BE00090E0FC01EE0FFF1FE80FF91FE25CFE4FA3
:104BF000C080D180E28021E02093770700905303AA
:104C0000D00C00905403E01C5A9883E00E94260ABE
:104C10008E2D0E94260A8D2D0E94260A8C2D0E9420
:104C2000260A1EBC0E94200A8D9F800111240E942A
:104C3000200A8D9FC00111240B3311053CF4109202
:104C40007A07109279070093700711C098012B53CF
:104C500031092E353105A8F42BE3209370072BE39F
:104C600030E0201B310B30937A072093790787318E
:104C700091057CF410927C0710927B07809371075A
:104C800019C0E7E6FFEFF0937A07E0937907095937
:104C9000DACF9C01275131092235310508F04DC08A
:104CA00027E1209371078301081B190B10937C07E0
:104CB00000937B070E94200AB82E0FE818E0C0E09E
:104CC000F8018081807F8C2B80831086CB1598F42F
:104CD0000E94200A8D9FC0011124F80193838283D2
:104CE0000E94200A8D9FC0011124F80195838483BE
:104CF000808180618083CF5F025F1F4FC63001F7E4
:104D00000E94200A80936108C0E080916108C81762
:104D1000D0F40C2F10E00E94200AF801EE0FFF1FC4
:104D2000ED59F74F80830E94200A000F111FF801F0
:104D3000EC59F74F8083CF5FE8CF90927C07809249
:104D40007B0788569BCF17E8A12E18E0B12E09E704
:104D500017E00E94200AF50180830E94200AF501D5
:104D60008183F2E0AF0EB11C2FE838E02A153B0535
:104D700081F70E94200AB82E32E0831334C0C0E1CC
:104D80003C2EC0E05801212C0E94200A282F30E040
:104D9000B4E035952795BA95E1F7263009F4CF5F51
:104DA000982F9F70963009F4CF5FF5018683239486
:104DB000F0E1AF0EB11C2EE02212E6CF3A940F5F65
:104DC0001F4F3110DFCFC09360080DB407FEFDCF39
:104DD0008EB55A9A8CE18093590383E08093010148
:104DE0000E94281343CE10E000E0C0E00E94200A99
:104DF000382F329536953770282F2F71363009F4B9
:104E0000C20F222301F3432F4295407FF801CF01C7
:104E1000B11027C0B2010E94992796958795A4E00A
:104E2000880F991FAA95E1F78758984FDC01A60FC4
:104E3000B11D16968C911697E0FD10C08F70842BD3
:104E400016968C9331968E2F801B821700F321507B
:104E500030E02F5F3F4F020F131FC8CF807F832B9F
:104E6000EFCF54E0969587955A95E1F7A82FA69530
:104E700050E1A59FD0011124A758B84F9E2F9F70D5
:104E8000A90FB11D16969C91169780FD05C09F70C5
:104E9000942B16969C93D6CF907F932BFACF10929B
:104EA000590387E09BCFC0915F086C2F82EB90E0A5
:104EB0000E945F286C2F87EB90E00E945F28C091D2
:104EC00076076C2F83EB90E00E945F286C2F88EBB5
:104ED00090E00E945F280091740710917507B80157
:104EE00084EB90E00E947128B80189EB90E00E9469
:104EF000712876CF00E021E040EB57E068E170E0F8
:104F00008DE190E00E94D00EB1CD97FB072E16F4F4
:104F1000009407D077FD09D00E94992707FC05D09F
:104F20003EF4909581959F4F0895709561957F4FC0
:104F30000895AA1BBB1B51E107C0AA1FBB1FA617E0
:104F4000B70710F0A61BB70B881F991F5A95A9F732
:104F500080959095BC01CD0108958F929F92AF925C
:104F6000BF92CF92DF92EF92FF92CF93DF93EC014B
:104F7000688179818A819B8161157105810591051F
:104F800021F464E279ED8BE597E02DE133EF41E028
:104F900050E00E94952849015A019B01AC01A7EA03
:104FA000B1E40E94B4286B017C01ACEEB4EFA50122
:104FB00094010E94C228C60ED71EE81EF91EF7FEF5
:104FC00006C081E0C81AD108E10880E8F80AC88262
:104FD000D982EA82FB82C701B6019F77DF91CF9128
:104FE000FF90EF90DF90CF90BF90AF909F908F9009
:104FF00008958F929F92AF92BF92CF92DF92EF92DD
:10500000FF9260910E0170910F01809110019091BB
:105010001101611571058105910521F464E279EDB5
:105020008BE597E02DE133EF41E050E00E949528B9
:1050300049015A019B01AC01A7EAB1E40E94B428DE
:105040006B017C01ACEEB4EFA50194010E94C22873
:10505000C60ED71EE81EF91EF7FE06C081E0C81A6C
:10506000D108E10880E8F80AC0920E01D0920F0141
:10507000E0921001F0921101C701B6019F77FF90F5
:10508000EF90DF90CF90BF90AF909F908F9008955A
:1050900060930E0170930F018093100190931101A2
:1050A0000895F999FECF92BD81BDF89A992780B5F0
:1050B0000895A8E1B0E042E050E00C948728262F44
:1050C000F999FECF92BD81BDF89A019700B40216FE
:1050D00039F01FBA20BD0FB6F894FA9AF99A0FBEAC
:1050E00008950196272F0E9460280C945F28262F90
:1050F000F999FECF1FBA92BD81BD20BD0FB6F894BD
:10510000FA9AF99A0FBE01960895DC01CB01FC01D1
:10511000F999FECF06C0F2BDE1BDF89A319600B410
:105120000D9241505040B8F70895052E97FB1EF49C
:1051300000940E94AC2857FD07D00E94C72807FCA6
:1051400003D04EF40C94AC285095409530952195A1
:105150003F4F4F4F5F4F08959095809570956195A3
:105160007F4F8F4F9F4F08950E94E928A59F900D74
:10517000B49F900DA49F800D911D11240895B7FF39
:105180000C94B4280E94B428821B930B0895A1E2CA
:105190001A2EAA1BBB1BFD010DC0AA1FBB1FEE1FB1
:1051A000FF1FA217B307E407F50720F0A21BB30BFC
:1051B000E40BF50B661F771F881F991F1A9469F778
:1051C00060957095809590959B01AC01BD01CF01D4
:1051D0000895A29FB001B39FC001A39F700D811DD0
:1051E0001124911DB29F700D811D1124911D0895F0
:1051F000991B79E004C0991F961708F0961B881F29
:105200007A95C9F780950895EE0FFF1F0590F491E8
:08521000E02D0994F894FFCF92
:10521800100CFFFFFFFF00E100000000000001008C
:10522800000004040404080808080C0C0C0C6704AB
:105238004C013F012F013F01560445041D010D019A
:105248001D01FB00E900D800CD00BE00AC00000045
:1052580000000000700000110100A00100570200CA
:10526800EC0200A903003D04000A0500A505002280
:1052780006009C06002707003A08001D0900D3090C
:1052880000630A00F80A00A00B00030C008A0C0057
:105298005B0D00F70D00BC0E00460F003C1000EB44
:1052A8001000EF11009C12003E1300B913005814AF
:1052B80000241500001600A41600A5170073180096
:1052C800171900BF1900A81A00561B003E1C001F22
:1052D8001D001C1E00111F00F31F007D20007C21F3
:1052E800003522001C2300B12300AE240023250032
:1052F800BD25001B2600FD26008127006728007CAD
:105308002900362A00362B00ED2B00CE2C00C92DA3
:1053180000762E004C2F00E42F00E53000EF31001E
:10532800BC32004E33004334000C3500C8350070E1
:105338003600113700D837006A3800323900153A7C
:1053480000BB3A00703B00643C00753D00193E000C
:10535800E83E009F3F005640004D4100664200482D
:105368004300FC4300B744004845004B460009474A
:1053780000DD4700894800764900404A00F34A00AA
:10538800CF4B00724C00194D00B44D00C74E00C2FF
:105398004F004F50006051006152006A5300DB53C8
:1053A80000D054008755003B56000957001058009C
:1053B800BD5800265900C25900825A00345B0007C4
:1053C8005C000E5D00CD5D00705E004D5F00046006
:1053D80000CA60008A6100396200316300E5630039
:1053E8009764001A6500FB65004D6600ED66008451
:1053F80067007B6800356900B36900816A00786BD3
:10540800007F6C00476D00236E00226F00976F00CD
:105418005170003C7100C771006D72003F7300D875
:10542800730000C18081000000000000000D0941E8
:0C5438000A2E09230974093209500900EA
:00000001FF
