:100000000C940A060C9432060C9432060C943206B8
:100010000C9432060C9432060C9432060C94320680
:100020000C9432060C9432060C949D0D0C940C0E1C
:100030000C9432060C9432060C9432060C94320660
:100040000C9432060C9432060C9432060C94320650
:100050000C9432060C9432060C9432060C943E102A
:100060000C9432060C9432060C9432060C94320630
:100070000C9432060C9432060C9432060C94320620
:100080000C9488100C9432060C9432060C943206B0
:100090000C9432060C9432060C9432060C94320600
:1000A0000C9432060C9432060C94320600000000C8
:1000B000003E5B4F5B3E3E6B4F6B3E1C3E7C3E1CEE
:1000C000183C7E3C181C577D571C1C5E7F5E1C0034
:1000D000183C1800FFE7C3E7FF0018241800FFE7EB
:1000E000DBE7FF30483A060E2629792926407F05AE
:1000F0000507407F05253F5A3CE73C5A7F3E1C1CC4
:1001000008081C1C3E7F14227F22145F5F005F5F83
:1001100006097F017F006689956A6060606060946F
:10012000A2FFA29408047E040810207E2010080874
:100130002A1C08081C2A08081E101010100C1E0C7F
:100140001E0C30383E3830060E3E0E060000000011
:100150000000005F00000007000700147F147F14F8
:10016000242A7F2A1223130864623649562050003D
:1001700008070300001C2241000041221C002A1C29
:100180007F1C2A08083E0808008070300008080814
:100190000808000060600020100804023E51494534
:1001A0003E00427F400072494949462141494D3352
:1001B0001814127F1027454545393C4A49493141B9
:1001C000211109073649494936464949291E000087
:1001D00014000000403400000008142241141414DC
:1001E0001414004122140802015909063E415D59C8
:1001F0004E7C1211127C7F494949363E41414122D1
:100200007F4141413E7F494949417F090909013EFA
:10021000414151737F0808087F00417F4100204021
:10022000413F017F081422417F404040407F021C33
:10023000027F7F0408107F3E4141413E7F0909094A
:10024000063E4151215E7F09192946264949493216
:1002500003017F01033F4040403F1F2040201F3FDC
:100260004038403F63140814630304780403615961
:10027000494D43007F4141410204081020004141A3
:10028000417F04020102044040404040000307084F
:100290000020545478407F2844443838444444284B
:1002A000384444287F385454541800087E090218F2
:1002B000A4A49C787F0804047800447D400020407A
:1002C000403D007F1028440000417F40007C0478BE
:1002D00004787C080404783844444438FC18242406
:1002E0001818242418FC7C08040408485454542486
:1002F00004043F44243C4040207C1C2040201C3C03
:100300004030403C44281028444C9090907C4464F9
:10031000544C44000836410000007700000041368C
:10032000080002010204023C2623263C1EA1A16112
:10033000123A4040207A3854545559215555794144
:100340002154547841215554784020545579400C1B
:100350001E527212395555555939545454593955FC
:100360005454580000457C410002457D420001453F
:100370007C40F0292429F0F0282528F07C545545AC
:10038000002054547C547C0A097F4932494949323F
:100390003248484832324A4848303A4141217A3A54
:1003A00042402078009DA0A07D39444444393D401E
:1003B00040403D3C24FF2424487E4943662B2FFCCB
:1003C0002F2BFF0929F620C0887E09032054547979
:1003D000410000447D413048484A32384040227A4A
:1003E000007A0A0A727D0D19317D2629292F2826C7
:1003F0002929292630484D402038080808080808CF
:100400000808382F10C8ACBA2F102834FA00007B27
:10041000000008142A142222142A1408950022002D
:1004200095AA005500AAAA55AA55AA000000FF00E7
:10043000101010FF00141414FF001010FF00FF1024
:1004400010F010F0141414FC001414F700FF000056
:10045000FF00FF1414F404FC141417101F10101FD5
:10046000101F1414141F00101010F0000000001FC3
:10047000101010101F10101010F010000000FF10CE
:100480001010101010101010FF10000000FF1400CA
:1004900000FF00FF00001F10170000FC04F41414FC
:1004A0001710171414F404F40000FF00F7141414C8
:1004B00014141414F700F7141414171410101F1048
:1004C0001F141414F4141010F010F000001F101F6B
:1004D0000000001F14000000FC140000F010F010D9
:1004E00010FF10FF141414FF141010101F00000050
:1004F00000F010FFFFFFFFFFF0F0F0F0F0FFFFFF54
:100500000000000000FFFF0F0F0F0F0F38444438AA
:10051000447C2A2A3E147E02020606027E027E02E5
:1005200063554941633844443C04407E201E200604
:10053000027E020299A5E7A5991C2A492A1C4C7241
:1005400001724C304A4D4D303048784830BC625AC8
:10055000463D3E494949007E0101017E2A2A2A2A58
:100560002A44445F444440514A444040444A514034
:100570000000FF0103E080FF000008086B6B0836F5
:1005800012362436060F090F060000181800000066
:100590001010003040FF0101001F01011E00191D55
:1005A0001712003C3C3C3C0000000000F0F89C8E20
:1005B0008783878E9CF8F00000FEFF03030303038C
:1005C000070EFCF80000FEFF0303030303070EFC05
:1005D000F80000FFFF00000000000000FFFF000027
:1005E000FEFF8383838383C7EE7C380000F8FC0E14
:1005F00007030303070EFCF800003F7FE0C0808084
:10060000C0E07F3FFFFF01010101010101FFFF0089
:1006100000FFFF0C0C0C0C1C3E77E3C100007FFFB9
:10062000C0C0C0C0C0E0703F1F00001F3F70E0C0EE
:10063000C0C0E0703F1F00007FFFC1C1C1C1C1E366
:10064000773E1C00001F3F70E0C0C0C0E0703F1F3D
:10065000000000000001FFFF010000008D14A1C890
:1006600081CFD9F102AF00000000000000000000BF
:10067000000000000000000000000000000000007A
:1006800000000000000001800001FFFFFFFFFFFFEE
:10069000FFFF800001800140000100000000000019
:1006A0000000800002800120000100000000000026
:1006B00000008000048001980001003FFFFFFC0063
:1006C00000008000198000CE0001003FFFFC000008
:1006D00000008000730000F38001003FF80000007C
:1006E00000008001CF00013CE00100380000000064
:1006F000000080073C80018E3001003839F9B9B91B
:100700008300800C718000C3100100383BFDFDFDAB
:10071000C7008008C30000F05001003F39FDFDFC18
:10072000C600800A0F0000789801003F381DDDDC0C
:10073000EE0080191E00004CC801003F381DDDDCB2
:100740007E00801332000063CC01003839FDFDFCCF
:100750003C008033C6000030660100383BFDFDFCE4
:100760003C0080660C00003CEB8100383BFDF9F852
:10077000380081D73C00002FB8E100383B9DC1C054
:100780003800871DF40000333A1900383BFDC1C022
:100790003800985CCC00001E6C0F00383BFDC1C0D7
:1007A0007000F03678000017C489003839EDC1C1F7
:1007B000F0009123E80000198F2700383801818369
:1007C000C000E4F19800000F39DB003839FFFFFF6B
:1007D0008000DB9CF0000007F337000000007FFE84
:1007E0000000ECCFE0000000C36B00000000000040
:1007F0000000D6C300000000FECF00000000000093
:100800000000F37F000000007B9300003FC001DC8C
:100810000000C9DE00000000031700003FE001DC1B
:100820000000E8C000000000002F00003FF001DCE5
:100830000000F4000000000000790000387801DCBE
:1008400000009E000000000000310000383801DC8C
:1008500000008C000000000000010000383801DCBE
:100860000000800000000000000100003831F9DCC9
:100870000000800000000000000100003FF3FDDCEC
:100880000000800000000000000100003FE1FDDCEE
:100890000000800000000000000100003FF01DDCAF
:1008A00000008000000000000001000038381DDC5E
:1008B0000000800000000000000100003839FDDC6D
:1008C000000080000000000000010000383BFDDC5B
:1008D000000080000000000000010000383BFDDC4B
:1008E000000080000000000000010000387B9DDC5B
:1008F0000000800000000000000100003FFBFDDC64
:100900000000800000000000000100003FF3FDDC5B
:100910000000800000000000000100003FE1EDDC6D
:100920000000800000000000000100000000000046
:100930000000800000000000000100000000000036
:100940000000800000000000000100000000000026
:1009500000008000000000000001FFFFFFFFFFFF1C
:10096000FFFF800000000000000000000000000009
:100970000000000000000000000000000000000077
:100980000000000000000000000000000000000067
:100990000000000000000000000000000000000057
:1009A0000000000000000000000000000000000047
:1009B0000000000000000000000000000000000037
:1009C0000000000000000000000000000000000027
:1009D0000000000000000000000000000000000017
:1009E0000000000000000000000000000000000007
:1009F00000000000000000000000000000000000F7
:100A000000000000000000000000000000000000E6
:100A100000000000000000000000000000000000D6
:100A200000000000000000000000000000000000C6
:100A300000000000000000000000000000000000B6
:100A400000000000000000000000000000000000A6
:100A50000000000000000000000000000000000096
:100A60000000000000000B02F4010601F4014A013D
:100A7000F401B801F4018801F4010601F4010B024C
:100A8000F4010601F4014A01F401B801F4018801FE
:100A9000F4010601F401B801F401DC00F4010601DF
:100AA000F4015D01F4012601F401DC00F401B80158
:100AB000F401DC00F4010601F4018801F4012601CF
:100AC000F4015D01F4010B02D0070080FF80003FBC
:100AD000C3FC07F80080FFFFE04207FC0FF08083B3
:100AE000002042044C08108083002442044C8810EB
:100AF0008FF3002442644C88108903232042644C05
:100B000009908903232042644C09908903232042E1
:100B1000644C09F089132321C2644C3900891323E2
:100B200027C2040CF9008103232042040C09008130
:100B300003232042060C0900FFFFFFFFC3FDF7FF60
:100B40000000000000000000000006012C019300DE
:100B500096000000960083009600C400EE02260175
:100B60008403F7002500C4002500A50025008300AC
:100B700025006E00250057002500490025003E0095
:100B8000F401008006011F0015011F0026011F004F
:100B90000080DC034B002705E10000802E006B0085
:100BA0000601F4010080080B0002020200000904A3
:100BB00000000102020000052400100105240101CB
:100BC0000104240206052406000107058103100024
:100BD0004009040100020A0000000705020240006B
:100BE000000705830240000004030904120100020B
:100BF000EF020140412336800001010203014172EE
:100C00006475696E6F204C4C430041424131313074
:100C10003600021111241FBECFEFDAE0DEBFCDBFD8
:100C200011E0A0E0B1E0E6E8FEE202C005900D921E
:100C3000AE37B107D9F726E0AEE7B1E001C01D92AB
:100C4000A233B207E1F716E0CAE0D6E004C021976C
:100C5000FE010E943B17C930D107C9F70E942F112E
:100C60000C9441170C9400008091A7010895480F3F
:100C7000592F511D141615066CF597FF02C090E010
:100C800080E04138510514F040E850E0481BFB017A
:100C9000E770FF2721E001C0220FEA95EAF777FF0E
:100CA00002C0695F7F4FFB0133E0F595E7953A9508
:100CB000E1F7F695FE2FEE27F795E795E80FF91F78
:100CC000E253FE4F415030F08191DF011197822BAA
:100CD0008C93F8CF0895EEECF1E030EB20E146E0A4
:100CE0005C983EBD4A95F1F72EBD20E8239507C0DC
:100CF000449140815C9A4EBD8111412D41934491B4
:100D00002A95B1F73395383B49F70DB40895FC01A6
:100D10008091CD01882311F13FB7F89482E0809350
:100D2000E9002091F200822F90E01816190614F4C1
:100D300081E090E0882339F0289844E64093CC0184
:100D40004091F1004083222339F02091F2002111DB
:100D500003C02BE62093E8003FBF08958FEF9FEF7D
:100D600008952FB7F89483E08093E9009091E8000C
:100D7000892F807295FF04C09091F20080E4891B56
:100D80002FBF08958091C40181110DC082E080932E
:100D9000C00184E08093C1011092C3011092C2018E
:100DA00081E08093C40180EC91E00895CF93DF93BC
:100DB0001F92CDB7DEB76983DC01ED91FC91028013
:100DC000F381E02D41E050E0BE016F5F7F4F099558
:100DD0000F90DF91CF91089583E08093E900809197
:100DE000F200882319F08AE38093E80008950E94B6
:100DF000B10690E00895CF93DF931F92CDB7DEB791
:100E0000FC018485958597FD08C02FEF3FEF35875E
:100E100024870F90DF91CF910895CE0101960E9413
:100E20008706019719F4898190E0F3CF8FEF9FEF48
:100E3000F0CF0F931F93CF93DF931F92CDB7DEB701
:100E40008C01FC018485958597FF0BC0CE0101962E
:100E50000E948706019771F4898190E0F8019587D7
:100E60008487F801848595850F90DF91CF911F913C
:100E70000F9108958FEF9FEFF1CFFC018485958549
:100E800097FD0BC09FB7F89482E08093E9008091B2
:100E9000F2009FBF90E0019608959FB7F89482E01A
:100EA0008093E9008091F2009FBF90E00895409107
:100EB000BA015091BB012091B8013091B90142179C
:100EC0005307B4F49091E8009570E1F39091E80035
:100ED00092FD19C08093F1008091BA019091BB01FD
:100EE00001968F739927892B19F48EEF8093E80070
:100EF0008091BA019091BB0101969093BB018093C0
:100F0000BA0181E0089580E00895DF92EF92FF92A8
:100F10000F931F93CF93DF93D82E8A01EB017B01B0
:100F2000E40EF51ECE15DF0559F0D7FE12C0FE0106
:100F300084910E94570721968111F4CF0FEF1FEF84
:100F4000C801DF91CF911F910F91FF90EF90DF903B
:100F500008958881EECF0F931F93CF93DF931F9255
:100F6000CDB7DEB782E0898342E450E066EA7BE0F9
:100F700080E80E9485070E94C206DC0112960D914E
:100F80001C910115110589F0D801ED91FC910280A9
:100F9000F381E02DBE016F5F7F4FC801099597FD7A
:100FA00004C0F80100851185ECCF89810F90DF9195
:100FB000CF911F910F910895615030F02091F10071
:100FC000FC0120830196F8CF289884E68093CC0119
:100FD0000895AF92BF92CF92DF92EF92FF920F935C
:100FE0001F93CF93DF936C017B018B01040F151FBF
:100FF000EB015E01AE18BF08C017D10759F0699127
:10100000D601ED91FC910190F081E02DC60109958A
:10101000892B79F7C501DF91CF911F910F91FF9037
:10102000EF90DF90CF90BF90AF900895FC010E94A9
:10103000AD08319728F068517C4F8F4F9F4FF9CF03
:10104000AB01FC010E94AD08641775078E079F076E
:10105000C8F308958F929F92AF92BF92CF92DF9282
:10106000EF92FF920F931F93CF93DF936C017B015D
:101070008A0180911201882309F45AC08091CD0120
:10108000882309F455C08091BF0180FF05C080917D
:10109000E00082608093E000E801B12C8AEFA82E86
:1010A00093E0892E2AE3922E209711F4BB20C9F1F8
:1010B0000E94B106811108C0AA94AA20C9F181E05A
:1010C00090E00E941608F0CF8C171D0611F00CF06E
:1010D0008C2F9FB7F8948092E9002091E80025FDBD
:1010E00002C09FBFE1CF282F30E0C21BD30BF70116
:1010F000815020F041914093F100FACFE20EF31EAF
:10110000BB2021F09092E800B12CEBCF8091E80059
:1011100085FDE7CF9092E800BB24B394209709F3B4
:10112000F3CF5D9884E68093BE01101611063CF063
:1011300081E090E0F6019383828310E000E0C80133
:10114000DF91CF911F910F91FF90EF90DF90CF90A3
:10115000BF90AF909F908F900895AAE9B1E02FB70C
:10116000F8947D918D919C9166B52FBFA89B05C089
:101170006F3F18F47F5F8F4F9F4F22E0660F771FFE
:10118000881F991F2A95D1F70895AB01FC010E9491
:10119000AD0841505109E109F10928F068517C4F2F
:1011A0008F4F9F4FF6CFAB01FC010E94AD08641733
:1011B00075078E079F07C8F3089520918D01E09170
:1011C0008B01F0918C01CF01029690938C0180935A
:1011D0008B01222319F0859194910895808191814A
:1011E0000895E1E7F0E080818D7F80831092910087
:1011F00046985F9810928A010895CF92DF92EF92FD
:10120000FF92CF93DF930E94DD08811520E89207BB
:1012100041F4DF91CF91FF90EF90DF90CF900C944D
:10122000F10821E020938A01813020E8920751F4EF
:10123000809188019091890190938C0180938B011A
:101240000E94DD0897FD05C020918701222309F443
:101250005BC020918601211157C021E020938E01AF
:10126000EC01DF77209709F052C081E080938F0175
:1012700046983FE9C32E3FE0D32EE12CF12CCAEF74
:10128000D0E0E0912C06F0912D060995811103C064
:1012900081E080938F0180918E01882329F08091D5
:1012A0008F01882309F446C05F980E94DD080097EB
:1012B00009F444C09C01DE010E942C17DC01CB0123
:1012C00029E0B595A795979587952A95D1F710921E
:1012D00090002AE020939100D0929900C09298004B
:1012E0008093900190939101A0939201B093930108
:1012F00080917100826080937100DF91CF91FF90A7
:10130000EF90DF90CF90089510928E01A9CF9E01AB
:1013100050E040E060E472E48FE090E00E94D81674
:1013200069017A0181E0C81AD108E108F108109238
:101330008F01A7CF4699B8CF5F9AB7CF8FEF9FEFB6
:10134000DC01C5CF9C01E1E7F0E090819D7F9083B7
:1013500081E080938D0130938C0120938B01309339
:101360008901209388010C94FD0890E00C941608E4
:101370008FB18095807F669B88601C9B84600895F8
:101380001092A7013E98579808953E9A579A81E087
:101390008093A701089590E0EEECF1E091119FEFAA
:1013A0008FEF91939193919391938150D0F71092F5
:1013B000A4011092A3011092A6011092A501089514
:1013C00080E00C946B0680389105B8F460347105A8
:1013D000A0F490E121E061FD24E060FD220F62FDB8
:1013E0002295687F969FD0011124A80FA253BE4F6B
:1013F0000C90022A40FF02260C9208952F923F92F1
:101400004F925F926F927F928F929F92AF92BF9214
:10141000CF92DF92EF92FF920F931F93CF93DF93C0
:10142000EC018B017A016901C61AD70AD7FE03C005
:10143000D194C194D10847018C1A9D0A97FE03C02C
:101440009194819491088C149D0454F49E2D8F2DB9
:101450007901292F382F9C2F8D2FE801092F182F64
:10146000EC16FD0654F4902F812F8901292F382F77
:101470009C2F8D2FE701E92EF82E17012C1A3D0A1B
:101480002901401A510A57FE03C051944194510852
:10149000310137FE03C08FEF681A780A759467949C
:1014A0008FEF021713070CF481E0A82E880FBB08FA
:1014B000EC16FD06A4F041E0BE01C8018C149D04A9
:1014C00014F0B801CE010E94E3096418750877FE94
:1014D00004C00A0D1B1D620C731C2196E9CFDF911D
:1014E000CF911F910F91FF90EF90DF90CF90BF9021
:1014F000AF909F908F907F906F905F904F903F90B4
:101500002F9008952F923F925F926F927F928F92C9
:101510009F92AF92BF92CF92DF92EF92FF920F9382
:101520001F93CF93DF9300D000D0CDB7DEB79C835D
:101530008B83562EBC016C5F7F4F452D80E290E07F
:101540000E94E3096B817C8164507109452D80E222
:1015500090E00E94E309452D6B817C8184E290E05C
:101560000E94E309452D6B817C818CE190E00E9413
:10157000E30981E090E09A838983F12CE12C04E077
:1015800010E028EF222E33243A943DEFC32EDD24C1
:10159000DA948FEFE81AF80A89819A8102969A8381
:1015A0008983C80ED91E470190E2890E911C452DF2
:1015B000AB80BC80A00EB11EB501C4010E94E3093E
:1015C00080E2682E712C6E187F08452DB501C3018D
:1015D0000E94E309452DAB80BC80A01AB10AB50179
:1015E000C4010E94E309452DB501C3010E94E3092E
:1015F000AB80BC80AE0CBF1C452DB501480180E21C
:10160000880E911CC4010E94E309452DB50190E2AA
:10161000692E712C601A710AC3010E94E309AB8024
:10162000BC80AE18BF08452DB501C4010E94E30976
:10163000452DB501C3010E94E309E016F106B4F09F
:101640000F900F900F900F90DF91CF911F910F91FE
:10165000FF90EF90DF90CF90BF90AF909F908F90D2
:101660007F906F905F903F902F900895D7FC91CF1F
:101670000150110992E0290E311CC20CD31C89CFF4
:101680008F929F92AF92BF92CF92DF92EF92FF9292
:101690000F931F93CF93DF935C01EB01042FE22E96
:1016A0006034710510F40E943706EC0EFD2EF11C1B
:1016B000B701615071096034710520F4402FC501F4
:1016C0000E943706D7FF02C0D0E0C0E04E0167019C
:1016D00081E4E816F1041CF080E4C82ED12C8C14AF
:1016E0009D044CF441E0B401C5010E94E3098FEF71
:1016F000881A980AECCF0A0D1B2D111D01501109F3
:10170000CC15DD053CF441E0BE01C8010E94E309AF
:101710002196F6CFDF91CF911F910F91FF90EF901F
:10172000DF90CF90BF90AF909F908F9008958F9251
:101730009F92AF92BF92CF92DF92EF92FF920F9360
:101740001F93CF93DF936D3089F0C090A301D090A9
:10175000A4016A30D1F41092A6011092A50188E08C
:10176000C80ED11CD092A401C092A30181E090E0E8
:10177000DF91CF911F910F91FF90EF90DF90CF906D
:10178000BF90AF909F908F9008950091A501109108
:10179000A601E5E06E9FE0011124C455DF4F48012A
:1017A000F12CF5E0E12CFF1629F0CE010196FE01A7
:1017B000E490EC01B12CA12C4E2D4170B6016A0DC4
:1017C0007B1DC4010E94E309E694FFEFAF1ABF0A34
:1017D00088E0A816B10481F7F394EFEF8E1A9E0A01
:1017E000F6E0FF12DECF0A5F1F4F1093A6010093B1
:1017F000A501BCCF80918401882321F0109284013F
:1018000080E008952091960190918501322F391B37
:10181000932F30910101931740F49F5F931790F439
:1018200091E093BF889513BE089581E08093840171
:1018300020938501EEE9F1E080819181019680831A
:10184000918381E0089564E670E080E090E00E947A
:10185000C5080E94B8098111FCCF64E670E080E001
:1018600090E00C94C5088091050180930601409199
:10187000A2014F5F4093A2012091A0013091A101EC
:10188000285F3F4F3093A1012093A001429FC001E8
:10189000439F900D1124805E9F4E9C0186E03595FC
:1018A00027958A95E1F7809102018054820F8093F9
:1018B0000501089580918A01811125C080917100F0
:1018C0008D7F8093710010928D018EE196E0909350
:1018D0008C0180938B01909389018093880181E230
:1018E00090E090931F0680931E068DE790E0909302
:1018F00021068093200680E090E890932306809351
:1019000022060E94FD0880E79FEF9093A10180933B
:10191000A0011092A2018091050180930201089517
:101920008F929F92AF92BF92CF92DF92EF92FF92EF
:101930000F931F93CF93DF938FEAE82E81E0F82E69
:1019400090E4A92EF701C1917F01CC2309F441C095
:10195000B3800C2E000CDD0B2B2D4CE06FEF7FEFD6
:10196000CE010E94400B80910301CB2C0B2C000C6C
:10197000DD088601080F111D2A2D281B2B194CE0AC
:10198000B801CE010E94400B4E01F2E08F1A91087F
:10199000B6016350710923E040E1C4010E94400B8D
:1019A00023E040E1B801C4010E94400B2296960159
:1019B00025503109AE0170E060E0CE010E94FE09C1
:1019C000B8016B5F7F4F2DE330E0AE01CE010E9486
:1019D000FE0983EBE81681E0F80609F0B3CFDF914A
:1019E000CF911F910F91FF90EF90DF90CF90BF901C
:1019F000AF909F908F9008950F931F93CF93DF9395
:101A000080910001815087FD32C080930001C09118
:101A100005010C2E000CDD0B60E0CE010E94820A55
:101A200061E0CE010E94820A809100018E01081BB4
:101A3000110987FD139598014BE150E0BE0180E24A
:101A400090E00E94FE09B8016F5F7F4F41E08BE19B
:101A500090E00E94E309BE016250710941E081E219
:101A600090E0DF91CF911F910F910C94E30984E0F6
:101A7000CCCF40E86FE370E090E080E00C94370654
:101A8000089590E080E00895FC0101900020E9F7BE
:101A90003197AF01481B590BBC018EE296E00C94C4
:101AA000E907CF92DF92EF92FF920F931F93CF93AC
:101AB000DF93CDB7DEB7A1970FB6F894DEBF0FBEA8
:101AC000CDBF9C0150E040E019A28E010F5D1F4F79
:101AD0008AE0C82ED12CE12CF12CCA01B901A70152
:101AE00096010E940A17605DF80162938F0121152B
:101AF00031054105510589F790E080E0309761F0AC
:101B000001900020E9F73197AF01401B510BB8015C
:101B10008EE296E00E94E907A1960FB6F894DEBF28
:101B20000FBECDBFDF91CF911F910F91FF90EF902E
:101B3000DF90CF9008950C94C2161F920F920FB6AB
:101B40000F9211248F939F938091E1009091E10077
:101B5000937F9093E10083FF0FC01092E90091E022
:101B60009093EB001092EC0092E39093ED001092B2
:101B7000CD0198E09093F00082FF22C093E0909313
:101B8000E9009091F200992319F09AE39093E8000C
:101B90009091BE01992341F09091BE019150909394
:101BA000BE01911101C05D9A9091CC01992341F041
:101BB0009091CC0191509093CC01911101C0289A41
:101BC00084FF18C08091E2008E7E81608093E200E5
:101BD0008091E1008F7E8093E1008091BF018E7E35
:101BE00080618093BF019F918F910F900FBE0F90E6
:101BF0001F90189580FFF7CF8091E2008E7E806164
:101C00008093E2008091E1008E7E8093E1008091DC
:101C1000BF018E7E8160E5CF1F920F920FB60F92AB
:101C20001124CF92DF92EF92FF920F931F932F9385
:101C30003F934F935F936F937F938F939F93AF9354
:101C4000BF93EF93FF93CF93DF93CDB7DEB76C973E
:101C5000DEBFCDBF1092E9008091E80083FF25C070
:101C600068E0CE0145960E94DC0782EF8093E80091
:101C70008D8987FF39C09091E80090FFFCCF982FA5
:101C8000907609F034C19E894F89588D2F89F88C40
:101C9000911131C0803861F58091BD018093F100D0
:101CA0001092F1008EEF8093E8006C960FB6F894D6
:101CB000DEBF0FBECDBFDF91CF91FF91EF91BF91FE
:101CC000AF919F918F917F916F915F914F913F91D4
:101CD0002F911F910F91FF90EF90DF90CF900F9079
:101CE0000FBE0F901F9018959EEF9093E800C7CFFE
:101CF0001092F100D5CF913059F48111D3CF4130FA
:101D0000510581F68091BD018D7F8093BD01CACFC1
:101D1000933049F48111C6CF4130510519F68091B5
:101D2000BD018260F2CF953041F48091E80080FFE0
:101D3000FCCF20682093E300B5CF963009F0A9C00E
:101D40000B8D1C8D22E01092E9001092BB011092C5
:101D5000BA01F2122EC01092B9011092B8010E947D
:101D6000AB071F8299E09983FA8291E09E8390EA03
:101D700098879AEF99872091BA013091BB01275F2C
:101D80003F4F3C832B838D831092E9001092BB015F
:101D90001092BA011093B9010093B80149E050E0E4
:101DA000BE016F5F7F4F80E00E9485070E94AB07F6
:101DB00079CF1093B9010093B8010E94C206DC01EB
:101DC00012960D911C910115110509F451C1D8010C
:101DD000ED91FC910480F581E02DBE016B5E7F4F9B
:101DE000C8010995009709F03EC1F80100851185E9
:101DF000EACFF3E0FF120EC08F89882309F440C0B8
:101E0000823061F440E867E08AE09CE00E94CF10F5
:101E1000811148CF81E28093EB0047CF813029F4D4
:101E200040E86BE08EEF9BE0F1CF833099F70E94A2
:101E3000C206DC011296ED90FC908E010F5F1F4FE1
:101E40006801E114F10479F0D701ED91FC9106806D
:101E5000F781E02DB801C7010995080F111DF701A1
:101E6000E084F184EECFD8011C92F60101900020AD
:101E7000E9F73197BF016C197D0940E0C601C6CF73
:101E800068EE7BE0FB01449150E080E80E9485070A
:101E900009CF973009F4BECF983021F481E08093C8
:101EA000F10000CF993009F0FDCE837009F0B2CF78
:101EB000E8E1F1E081E031E096E32191222371F045
:101EC0008093E9003093EB00DF0111972C91209370
:101ED000EC009093ED008F5F873079F78EE7809369
:101EE000EA001092EA008F898093CD01DBCE8B8DC2
:101EF0009C8D1092E9001092BB011092BA01909350
:101F0000B9018093B801898D811192C08E899D8914
:101F1000913A49F4813209F07DCF47E050E06BE01F
:101F200071E080E0B3CF913209F074CF833269F46D
:101F30008F89988DB0E0A0E080930701909308010D
:101F4000A0930901B0930A01ADCE803269F480916B
:101F5000E80082FFFCCF67E08BE091E00E94DC07A5
:101F60008BEF8093E8009ECE823209F09BCE8F8962
:101F700080931201EEEFFFE7859194918B3F9C4D8A
:101F800051F1E0E0F8E080910B0190910C01A091FB
:101F90000D01B0910E01803B9440A105B105F1F413
:101FA0008091120180FD1AC0EE3F8AE0F80789F5A2
:101FB00087E797E791838083809160008093BC01DD
:101FC00088E19BE00FB6F894A895809360000FBE5F
:101FD0009093600067CEEEEFFAE0D5CF80819181DB
:101FE0008737974709F05ECEA89580916000886199
:101FF000809360008091BC0180936000EE3F2AE0F6
:10200000F20789F08091FE0A9091FF0A9183808304
:1020100049CE808191818737980751F29093FF0ACA
:102020008093FE0AC5CF1092FF0A1092FE0A3ACEA4
:102030000E94C206DC0112960D911C91011511053A
:1020400009F4E8CED801ED91FC910190F081E02DEA
:10205000BE016B5E7F4FC8010995811123CEF80147
:1020600000851185EBCF181619060CF41BCED2CEC5
:10207000F1E0FF12BECE6CEE7BE004CF0F920FB604
:102080008F939F93EF93FF93809195018D5F8D3791
:1020900008F08D5780939501E6E9F1E080818E4F3D
:1020A000808391819F4F918382818F4F828383812F
:1020B0008F4F8383EAE9F1E080818F5F80838181A4
:1020C0008F4F818382818F4F828383818F4F838360
:1020D0008FB18F6066991C9B88278F3681F4809121
:1020E0009401981B963068F0E0E0F8E087E7808381
:1020F000818388E180936000F0936000FFCF90932C
:102100009401FF91EF919F918F910FBE0F901895C1
:102110001F920F920FB60F9211242F933F934F935C
:102120005F936F937F938F939F93AF93BF93EF933F
:10213000FF938091900190919101A0919201B091B3
:1021400093010097A105B10539F120918F0121116B
:1021500005C0369A20918E0121114F9A0197A1094D
:10216000B109B7FD08C08093900190939101A093AD
:102170009201B0939301FF91EF91BF91AF919F9125
:102180008F917F916F915F914F913F912F910F9020
:102190000FBE0F901F9018950E94FD08ECCFEF9294
:1021A000FF920F931F93CF93DF93F82E192FE62EF4
:1021B000042F81E0860F880F0E94570783E00E945A
:1021C0005707CF2DD12FEC0EFD2EF11CCE15DF05BC
:1021D000B9F007FF13C0FE0184910E945707182F22
:1021E00080E00E945707812321968111EFCFDF9174
:1021F000CF911F910F91FF90EF9008958881EDCFBF
:1022000081E0F5CFEEECF5E01382128288EE93E0E8
:10221000A0E0B0E084839583A683B78382E291E057
:10222000918380838FEF9FEF95878487EEE2F6E0BE
:102230001382128284E391E09183808384E396E0A9
:1022400090932D0680932C0680E090E890932B06C7
:1022500080932A0646983E9A5F98579A08957894F4
:1022600083E084BD83E085BD81E080936E00E1E87A
:10227000F0E083E08083E0E881E08083E1E983E0CF
:102280008083E0E981E08083E1EC87E08083E3EC18
:1022900081E08083E0EC82E08083E2EC81E0808377
:1022A000EAE787E08083806880831092CD011092F6
:1022B000BD011092BF018091D70081608093D7004B
:1022C00080EA8093D80089B5806189BD89B5826034
:1022D00089BD09B400FEFDCF81E090E00E941608A0
:1022E0008091D8008F7C80618093D8008091E0003D
:1022F000807F8093E0008091E1008E7E8093E100FA
:102300008DE08093E200559A209A81EC80937C00C6
:1023100081E785B987E684B985E38BB98FE38AB90C
:10232000769A6E9880EF81BB10BA80E58CBD81E013
:102330008DBD85E00E94B509599A85E00E94B509D6
:102340005C98ECE5F6E085918EBD00000DB407FECB
:10235000FDCFE636C1F75C9A81E88093640081E0A6
:10236000809365000E94E0090E94B80987FF15C0AC
:102370005C9885EA8EBD00000DB407FEFDCF5C9A27
:102380002E9858982D988091640080628093640004
:1023900081E083BF889513BEFCCF0E94B80982FFFD
:1023A00043C02D980E94B80984788438D1F42D9ABE
:1023B00088EC0E94B509589882E090E00E94C2160D
:1023C0008F3F29F06FEF82E090E00E94CA1684EF01
:1023D00091E00E941608589A0E94B80984788438BF
:1023E000D9F30E94B80984718431D1F42D9A88EC14
:1023F0000E94B5092E9882E090E00E94C2168823C0
:1024000029F060E082E090E00E94CA1684EF91E03B
:102410000E9416082E9A0E94B80984718431D9F35B
:1024200088EC0E94B509B9CF2D9A82E090E00E9415
:102430009B0D882309F46BC20E94C50981E090E0DE
:102440000E949B0D182F147081FF0AC011112E9845
:10245000C1EFDFEF0E94B80986FF5CC22E9A589A3E
:1024600082E30E94B5090E94B8098111F9CF81E287
:10247000809301010E94CB09F12CE12C10E000E0D7
:10248000B0E8CB2ED12CD0E0C0E0FE01A3E0F59562
:10249000E795AA95E1F7EE0DFF1DEA59F94FE49192
:1024A000CE0187709927960102C0359527958A95A8
:1024B000E2F7C901F0E0E223F923EF2B29F041E034
:1024C000B801CE010E94E3092196C038D105E9F692
:1024D0000F5F1F4F30E1E30EF11C0034110599F638
:1024E0000E94E00986E69AE00E94A20964EF71E08A
:1024F00080E090E00E94C50882E190E09093A60100
:102500008093A50187E390E09093A4018093A301B9
:102510008CE391E00E94440D0E94E0090E94B809FA
:102520008823E1F30E94230C809164008E7F8093C6
:10253000640080917A00806480937A0080917A00B0
:1025400086FDFCCFC0917800D09179000E94AD0843
:10255000AB01BC01CE01B0E0A0E0DC0199278827E7
:102560008C019D01040F151F261F371FC901B801DB
:10257000209164002160209364006115710581053C
:10258000910511F00E94B9161092AF011092B0019E
:102590001092B1011092B20120E8222E312C32E3C8
:1025A000632E712C4AE3442E512C5EE1C52ED12CB2
:1025B0006EE3A62EB12C7AE2872E912C0E94FA0BA4
:1025C000882309F433C30E94B80985FF0BC08091AA
:1025D000A701882309F438C20E94F1080E94C009AB
:1025E0000E94230C0E94CB098091B701811142C047
:1025F0000E94390D0E94FC0CC6E0D0E0D093A601E9
:10260000C093A50183E090E09093A4018093A3017F
:102610008DE491E00E94440DD093A601C093A501E2
:1026200083E390E09093A4018093A3018FE591E070
:102630000E94440D8091A7011BE0CEE4811102C0ED
:1026400011E1C0E6D0E0412F6BE370E0CE010E94C3
:102650003706412F6CE370E0CE010E9437060E94DE
:10266000B8098C7939F081E08093B7010E94F108B4
:102670000E945A0C8091B701813009F008C19091F5
:10268000060180910501891734F00E94B8098C7900
:1026900011F00E945A0C0E94330C80910501843085
:1026A0005CF484E0809305011092A2018093020102
:1026B0001092A1011092A00180919E0190919F0122
:1026C0008F719927892B59F5EFEAF1E0D0E0C0E04E
:1026D00081918111C0C1C155DE4F80E8888380910E
:1026E00003018201081B110986E090E0A0E0B0E040
:1026F000073011059CF00E946A16012E000C220B77
:10270000330BA901980126503109410951090E9452
:10271000D816DC01CB010696A11DB11D8C83CFEA32
:10272000D1E08E01F80181918F01882331F182502F
:102730003197843F0CF495C1808380818031E9F426
:102740008091AD019091AE0101969093AE0180937E
:10275000AD0180910401815080930401F0E2F09377
:10276000AC01809105018C508093AB012FE0209348
:10277000AA0182E99BE00E94A20931E0033B130712
:1027800089F68091AA01882339F18091AB018150AB
:102790008093AB0187FD67C12091AC01022E000C34
:1027A000330B3093A6012093A501082E000C990B42
:1027B0009093A4018093A3018091AD019091AE010B
:1027C0000E94510D8091AC0182508093AC018091A8
:1027D000AA0181508093AA01809105018C3334F0C5
:1027E0008BE38093050142E04093B701909105018E
:1027F0007DEF790F9D5FF09003013091B701299132
:10280000222369F16CE0620F8B816E3130F023324C
:1028100020F4781710F4911121C04EEF420F5EE0C2
:10282000520F5E3140F0433230F4781720F4EDEF70
:10283000E80FE91798F08F0D6E3130F0233220F455
:102840007F3310F4891750F05E3148F0433238F48A
:1028500023E0280F721718F4891708F432E00C17D8
:102860001D0769F63093B7010E94900C0E94390D44
:102870000E94FC0C52E15F1550F48091040181111B
:1028800006C0FA94F092030185E0809304018091E0
:10289000B701823009F0C8C18091AD019091AE01BD
:1028A0002091A8013091A9012817390720F49093AD
:1028B000A9018093A8010E94E00984E89BE00E949E
:1028C000A20964E670E080E090E00E94C5081092E2
:1028D000A20180910501809302011092A101109242
:1028E000A001809105018B330CF0C0C00E94330C15
:1028F0000E94CB090E94900C0E94390D0E94FC0C92
:102900000E94E0090E94FA0B8823E1F3EACF0E94BB
:10291000C00994CD112329F0C430D10511F42E9AA9
:10292000589881E00E946B060C2F0770A02EAE0114
:1029300003E0559547950A95E1F7CA019695982FBA
:1029400088279795879582539E4F70E060E04E3FB1
:102950002FEF520769F130E020E0DB01A455BA4FB8
:102960007C01E0E8EE0EF11CFD01E20FF31FE491A3
:10297000F0E04F010A2C02C0880C991C0A94E2F77F
:102980004F3F540739F06C01C20ED31EF601B488D4
:10299000B828B48AAA2039F06701C20ED31EF60106
:1029A00004890929048B2F5F3F4F28353105E1F653
:1029B0004F5F5F4F80589F4F685A7F4F603B710554
:1029C00031F60E94E0098FE00E94B5092196C931D5
:1029D000D10509F03FCD112311F0589A2D9880E9C7
:1029E00091E00E9416082D9A81E090E00E949B0DD4
:1029F00080FF36CD8AE090E00E949B0D9FEF980FFC
:102A00009E3F08F02DCD22E330E03093A6012093C5
:102A1000A50128E330E03093A4012093A301CBE08B
:102A2000D0E0682F8EE296E00E94970BCE010E94C4
:102A30009B0D2196C131D105A1F70E94E00988EED6
:102A400093E00E9416080CCD0E94C5098CE99BE01A
:102A50000E94A209C5CD2196C430D10509F038CE17
:102A60005ECE10826ACE1092AA01B6CE8AE49BE0B6
:102A70000E94A20920E340E668E070E080E190E077
:102A80000E94400BC1E1D0E009E010E040E0B80155
:102A9000CE010E94E3090F5F1F4F07331105B1F705
:102AA0002196CF36D10581F79CE0E92EF12C10E07C
:102AB00000E0D0E0C0E0FE0183E0F595E7958A955F
:102AC000E1F7E00FF11FE453F54FE491CE01877079
:102AD0009927910102C0359527958A95E2F7C9019A
:102AE000F0E0E223F923EF2B31F041E0B701CE0112
:102AF0004E960E94E3092196C834D105E1F6075F9E
:102B00001F4F3FEFE31AF30A0E37110591F620919C
:102B1000AD013091AE0198E1203147E2340770F405
:102B200092E1283E53E0350748F49CE02436310515
:102B300028F496E02A30310508F490E0F301E91B0F
:102B4000F109F093A601E093A501D092A401C092EF
:102B5000A301C9010E94510DB092A601A092A50146
:102B6000D092A401C092A30182E791E00E94440D9B
:102B70002091A8013091A90198E12031F7E23F07A7
:102B800070F492E1283E03E0300748F49CE02436DC
:102B9000310528F496E02A30310508F490E0A301CD
:102BA000491B51095093A6014093A5019092A4019D
:102BB0008092A301C9010E94510DB092A601A0927A
:102BC000A5019092A4018092A30188E791E00E9460
:102BD000440D0E94E00968EE73E080E090E00E94FE
:102BE000C5080E94B8098C79E1F30E94230C109269
:102BF000B70186E69AE00E94A2091092AE011092F7
:102C0000AD011092AA011092AF011092B001109282
:102C1000B1011092B2018FE1809305018EE18093A2
:102C2000030185E0809304010E94E00980E090E0C8
:102C3000892B09F4C3CC0E940000C0CC8F929F92D4
:102C4000AF92BF92CF92DF92EF92FF92CF93DF933A
:102C5000EC01688179818A819B816115710581050B
:102C6000910521F464E279ED8BE597E02DE133EFF6
:102C700041E050E00E94D81649015A019B01AC0185
:102C8000A7EAB1E40E94F7166B017C01ACEEB4EF49
:102C9000A50194010E940517C60ED71EE81EF91E55
:102CA000F7FE06C081E0C81AD108E10880E8F80AFA
:102CB000C882D982EA82FB82C701B6019F77DF9181
:102CC000CF91FF90EF90DF90CF90BF90AF909F900B
:102CD0008F9008958F929F92AF92BF92CF92DF9282
:102CE000EF92FF9260911301709114018091150190
:102CF00090911601611571058105910521F464E239
:102D000079ED8BE597E02DE133EF41E050E00E9453
:102D1000D81649015A019B01AC01A7EAB1E40E940F
:102D2000F7166B017C01ACEEB4EFA50194010E9493
:102D30000517C60ED71EE81EF91EF7FE06C081E075
:102D4000C81AD108E10880E8F80AC0921301D092AD
:102D50001401E0921501F0921601C701B6019F77A8
:102D6000FF90EF90DF90CF90BF90AF909F908F90AB
:102D7000089560931301709314018093150190934B
:102D800016010895F999FECF92BD81BDF89A992751
:102D900080B50895262FF999FECF1FBA92BD81BD47
:102DA00020BD0FB6F894FA9AF99A0FBE01960895CD
:102DB000052E97FB1EF400940E94EF1657FD07D0D6
:102DC0000E940A1707FC03D04EF40C94EF1650959E
:102DD0004095309521953F4F4F4F5F4F0895909507
:102DE0008095709561957F4F8F4F9F4F08950E94FA
:102DF0002C17A59F900DB49F900DA49F800D911D41
:102E000011240895B7FF0C94F7160E94F716821B41
:102E1000930B0895A1E21A2EAA1BBB1BFD010DC046
:102E2000AA1FBB1FEE1FFF1FA217B307E407F5077A
:102E300020F0A21BB30BE40BF50B661F771F881F56
:102E4000991F1A9469F760957095809590959B01EC
:102E5000AC01BD01CF010895A29FB001B39FC00195
:102E6000A39F700D811D1124911DB29F700D811DB6
:102E70001124911D0895EE0FFF1F0590F491E02D90
:062E80000994F894FFCF55
:102E860004101F1E051F1FFFFFFFFF00E1000000CB
:102E96000000000100000000C18081000000000069
:102EA6000000D6062A08F706EC063D07FB061907BA
:102EB60000000000970BE907410D400D5072657345
:102EC6007320416E7920427574746F6E00412C42F6
:102ED6002C55702C446F776E3A204A756D70004CF5
:102EE6006566743A20536F756E64204F6E2F4F6679
:0E2EF600660053636F726500486967680000EC
:00000001FF
