:100000000C9427080C944F080C944F080C944F083C
:100010000C944F080C944F080C944F080C944F0804
:100020000C944F080C944F080C94BF1E0C942E1F78
:100030000C944F080C944F080C944F080C944F08E4
:100040000C944F080C9402220C944F080C944F0807
:100050000C944F080C944F080C944F080C9460219A
:100060000C944F080C944F080C944F080C944F08B4
:100070000C944F080C944F080C944F080C944F08A4
:100080000C94AA210C944F080C944F080C944F0820
:100090000C944F080C944F080C944F080C944F0884
:1000A0000C944F080C944F080C944F0805A84CCDA5
:1000B000B2D44EB93836A9020C50B9918688083CA2
:1000C000A6AAAA2ABE000000803F544845204D49F8
:1000D00054204C4943454E53452E0052454C454112
:1000E00053454420554E44455200544849532050EE
:1000F000524F4752414D2049530050524F475245AD
:100100004D4D4544204259204F424F4E4F004445EB
:1001100043454D4245522032303136002D20484F64
:100120004C4C4F57205345454B4552202D004352D0
:1001300045444954005245434F52440053544152A0
:10014000542047414D45000000000000700100C0F0
:10015000000C00CAA77C0A42F55508534248195EB4
:10016000F55112003000000027450040941C001497
:10017000F3190504F11104200400000441100400E7
:10018000040000104208015E14450F40F0010059C0
:1001900055551351555D0D8C927C085755550D5E84
:1001A00055550D51520C015E55550F5655550F00C2
:1001B000A0000000A4000000C2280080A228008047
:1001C00062080040500D0000E318009C92241F5F5D
:1001D000555D0D9C1445115F1425075F5555115F42
:1001E0005114015E54551D1F41101F40F44500106D
:1001F0000421071F41181D1F0441105EF0041F9CBD
:1002000010041F5E54450F5F9214035ED4451F5FB8
:1002100092341B5655550D41F005011F0421071F4F
:100220004208011FE4410F1743181D07C10901517E
:10023000564D1100F0450000F0010040F40100802F
:10024000100C001004411090480064800019904A7E
:100250000064800019904C0064800019904D006487
:10026000800019904F00C880F09037007880000A15
:100270009036008C800014903500A080001E9034D1
:1002800000B4800028903300C8800032903200DC37
:1002900080003C903100F08000469030000480F0F7
:1002A0009043000A904F000A904C000A80F090148E
:1002B000911301F48081F01083AC696DAD82100060
:1002C000136C69EDAD022000232CE9ED2D022020F6
:1002D00006D8D25A5AC4101082AD6D69AC83102072
:1002E00002ADED696C130020022DEDE92C23001006
:1002F000C45A5AD2D806204E4557205245434F5231
:10030000440053434F524500594F5552000000E0FE
:10031000F0F83C9C9C9C9C9C800000C060606060ED
:10032000E0C08000E0E0E0406060E0E0C06060E0ED
:10033000E0C00080C0E0E06060E0C08000E0F0F875
:100340003C1C1C1C3CF8F0E00060E0E0E00000E039
:10035000E0E06080C0E0E06060E0C08000E0E0E0FD
:10036000C0E0E000000000070F1F3C3B3B3B3F3F6D
:100370001F001C3E3F3333133F3F3F003F3F3F00D2
:1003800000003F3F3F00003F3F3F000F1F3F36361A
:100390003637370700070F1F3C3838383C1F0F0728
:1003A0000000031F3F3E3E3F1F03000F1F3F363636
:1003B00036373707003F3F3F00000000000000FCD9
:1003C000FCFC8C8CCCFCF8780080C0E0E06060E045
:1003D000C0800000C060606060E0C0800080C0E05D
:1003E000E0E0E0C0FEFEFE0020E0E0E00000E0E033
:1003F000E0600000381C1C9CFCFC78000000003F02
:100400003F3F03071F3E3E38200F1F3F363636372B
:100410003707001C3E3F3333133F3F3F000F1F3F62
:10042000313030183F3F3F000000C3CFFFFC7F1F3B
:100430000300000000383B3B390000000090064EEE
:10044000E4C0881899E0F8FC1C1CFCF8F00F1F3F72
:1004500038383F1F07383838FCFCFC00000000002B
:100460003F3F3F000000381C1C9CFCF878383C3EA5
:100470003B3B393838001CDCDCDCFC783800383990
:1004800039393F1F0E00C0F07CFCFCFC000F0F0D43
:100490000C3F3F3F0CFCFCFCFCDCDC9C003938389A
:1004A00038383F1F0FE0F0F8BCDCDCDC800F1F3F6A
:1004B00039393F1F0F1C1C1C9CDCFC7C1C00303E8F
:1004C0003F3F03000070F8FC8C8CFCF8700E1F3F5F
:1004D00031313F1F0EF0F8FC9C9CFCF8E0003939EC
:1004E000393D1F1F074F424E2D593031205645527E
:1004F00020302E333200C0C6CFDFFFFB73037CFEFB
:10050000FFC7E3FF7F3E00FFFFFF1B1B1B03000332
:1005100003FFFFFF030300000000000000008080D5
:10052000808000000000000000000000000080E06B
:10053000F058AC56AB55AB5500FF01010102020467
:100540000810608000003FFFAA55AA55AA55AA5579
:10055000A85FAC5CAC5CAC5CAC5C0CCF3C0000005D
:100560000103060D1A152A252A252A252215120906
:10057000040201000000FFFF57AB57AB57AB57AB6E
:1005800003FF808080000000000000000000FFFFEB
:1005900055AA55AA55AA55AA00FF0000000101025C
:1005A000040830C000001F7FD5AA55AA55AA55AA35
:1005B00054AF56AE56AE56AE562E86671E0000009D
:1005C000000103060D0A151215121512110A09046D
:1005D0000201000000000000000000008080C0C098
:1005E000C0C0808080000000000000000000C0F05B
:1005F00078AC56AB55AA55AA00FF000000010102D5
:10060000040830C00000FFFF55AA55AA55AA55AAF4
:1006100000FFFEAE56AE56AE56AE5607FE001F1792
:100620001512151215121512101F17121512151288
:10063000151215101F009045000A80F03C7EFFFF48
:10064000FF7E3CFD8181FDFDFDFEC0C0FEFD8D8D68
:10065000FDFDFDFEC6C6FEDDDDDDDDFDFDEEEEEEE3
:10066000EE1C0100000E01FA000000EA00DB00CAE7
:1006700000504C41592054494D45202000504C41D8
:100680005920434F554E5420005D20005B004245E9
:1006900053542031302053434F524553004F464668
:1006A000004F4E00534F554E4420003C01A40635E8
:1006B000012E0153434F5245004C4153540000005A
:1006C000000000000080C0E0F070787800F8FC06C0
:1006D000F3F9FDFDFDF9F204F80060408000000030
:1006E000000000000000000000E0D8D6CBD4EAE40F
:1006F000EAF5F2F5F2F9F7F6ECEDEBEBEBE9F4FAEB
:10070000F9F8FA797A7B7C600000000000000000B4
:10071000000707073FC70703AB53FBFBFBFDFD814A
:1007200081FDFDFDFEC0C0FEFEFEFEFF1F000000BD
:1007300000000000000000C0201028488404A556D6
:10074000AC59AA5DB757B76FAF69A828E86EAF5725
:10075000B757AB54AA56EA42E2160C0408F000035D
:10076000040404050203010FF920202522252A355F
:100770002A35EA203FF52A352A25222520F03F0098
:10078000000101010100F0F8FCFEFE9E1E1E1E1E6F
:100790003C00000000008080C0C0C0C0C0C080001D
:1007A000000000008080C0C0C0C0C0C08000000049
:1007B000FFFFFFFFFF000080C0C0C0C0C0C000003E
:1007C0008080C0C0C0C0C0C080000000C0C0C0C029
:1007D000C080C0C0C000E1C3C7878F8F9FFFFEFEEF
:1007E000FCF800007CFFFFFFFFBB39393F3F3FBFF4
:1007F0003E007CFFFFFFFFBB39393F3F3FBF3E005C
:10080000FFFFFFFFFF187EFFFFFFFFE783007CFF76
:10081000FFFFFFBB39393F3F3FBF3E00FFFFFFFFF8
:10082000FF0703030300030707070707070703037F
:10083000010000000001030307070707070707037C
:10084000000000010303070707070707070300006D
:100850000707070707000001070707070707040145
:100860000303070707070707070300000707070732
:10087000070000000000FEFEFEFEFE8080808080FB
:100880008080FEFEFEFEFE000000008080C0C0C032
:10089000C0C0C08080000000FFFFFFFFFF0000FF1E
:1008A000FFFFFFFF000000008080C0C0C0C0C0C0CC
:1008B00080800000C0C0C0C0C0C0000000C0C0C078
:1008C000C0C0800000C0C0C0C0C0FFFFFFFFFF0F5E
:1008D0000F0F0F0F0F0FFFFFFFFFFF00007CFFFF49
:1008E000FFFFC78383C7FFFFFFFF7C00FFFFFFFF02
:1008F000FF0000FFFFFFFFFF00007CFFFFFFFFC7BF
:100900008383C7FFFFFFFF7C000F7FFFFFFFF0F037
:10091000FFFF1F1FFFFFFFF0F0FFFF7F070007072C
:10092000070707000000000000000707070707008F
:10093000000001030307070707070703030100007F
:100940000707070707000007070707070000000160
:100950000303070707070707030301000000000759
:100960000707070707030000070707070707030034
:100970000000904A001480F000000000003E5B4F31
:100980005B3E3E6B4F6B3E1C3E7C3E1C183C7E3CEF
:10099000181C577D571C1C5E7F5E1C00183C1800FD
:1009A000FFE7C3E7FF0018241800FFE7DBE7FF308D
:1009B000483A060E2629792926407F050507407FFB
:1009C00005253F5A3CE73C5A7F3E1C1C08081C1C6E
:1009D0003E7F14227F22145F5F005F5F06097F0164
:1009E0007F006689956A606060606094A2FFA2944F
:1009F00008047E040810207E201008082A1C08081D
:100A00001C2A08081E101010100C1E0C1E0C30386A
:100A10003E3830060E3E0E06000000000000005F6B
:100A200000000007000700147F147F14242A7F2A87
:100A30001223130864623649562050000807030049
:100A4000001C2241000041221C002A1C7F1C2A0895
:100A5000083E0808008070300008080808080000F8
:100A600060600020100804023E5149453E00427F6C
:100A7000400072494949462141494D331814127FBB
:100A80001027454545393C4A49493141211109075B
:100A90003649494936464949291E000014000000DC
:100AA00040340000000814224114141414140041AE
:100AB00022140802015909063E415D594E7C12116B
:100AC000127C7F494949363E414141227F414141A3
:100AD0003E7F494949417F090909013E414151731E
:100AE0007F0808087F00417F41002040413F017F8F
:100AF000081422417F404040407F021C027F7F0457
:100B000008107F3E4141413E7F090909063E41519F
:100B1000215E7F09192946264949493203017F018F
:100B2000033F4040403F1F2040201F3F4038403F90
:100B3000631408146303047804036159494D4300A6
:100B40007F4141410204081020004141417F0402DD
:100B50000102044040404040000307080020545474
:100B600078407F2844443838444444283844442852
:100B70007F385454541800087E090218A4A49C78A5
:100B80007F0804047800447D40002040403D007F01
:100B90001028440000417F40007C047804787C08E1
:100BA0000404783844444438FC18242418182424B5
:100BB00018FC7C08040408485454542404043F449A
:100BC000243C4040207C1C2040201C3C4030403CC9
:100BD00044281028444C9090907C4464544C440029
:100BE000083641000000770000004136080002018D
:100BF0000204023C2623263C1EA1A161123A404079
:100C0000207A3854545559215555794121545478F6
:100C100041215554784020545579400C1E5272128F
:100C20003955555559395454545939555454580017
:100C300000457C410002457D420001457C40F02991
:100C40002429F0F0282528F07C54554500205454E0
:100C50007C547C0A097F4932494949323248484824
:100C600032324A4848303A4141217A3A424020786B
:100C7000009DA0A07D39444444393D4040403D3C66
:100C800024FF2424487E4943662B2FFC2F2BFF0989
:100C900029F620C0887E090320545479410000447D
:100CA0007D413048484A32384040227A007A0A0A68
:100CB000727D0D19317D2629292F282629292926DB
:100CC00030484D4020380808080808080808382F20
:100CD00010C8ACBA2F102834FA00007B00000814AA
:100CE0002A142222142A14089500220095AA0055DD
:100CF00000AAAA55AA55AA000000FF00101010FF74
:100D000000141414FF001010FF00FF1010F010F07A
:100D1000141414FC001414F700FF0000FF00FF146B
:100D200014F404FC141417101F10101F101F1414B7
:100D3000141F00101010F0000000001F1010101001
:100D40001F10101010F010000000FF1010101010F5
:100D500010101010FF10000000FF140000FF00FF33
:100D600000001F10170000FC04F4141417101714CF
:100D700014F404F40000FF00F714141414141414F1
:100D8000F700F7141414171410101F101F14141464
:100D9000F4141010F010F000001F101F0000001FCE
:100DA00014000000FC140000F010F01010FF10FF01
:100DB000141414FF141010101F00000000F010FF96
:100DC000FFFFFFFFF0F0F0F0F0FFFFFF000000007A
:100DD00000FFFF0F0F0F0F0F38444438447C2A2ABE
:100DE0003E147E02020606027E027E0263554941DF
:100DF000633844443C04407E201E2006027E0202EA
:100E000099A5E7A5991C2A492A1C4C7201724C30FD
:100E10004A4D4D303048784830BC625A463D3E49D4
:100E20004949007E0101017E2A2A2A2A2A44445F78
:100E3000444440514A444040444A51400000FF016C
:100E400003E080FF000008086B6B0836123624367A
:100E5000060F090F060000181800000010100030DF
:100E600040FF0101001F01011E00191D1712003C67
:100E70003C3C3C0000000000060115012601370142
:100E80004A015D01720188019F01B801D201EE01A2
:100E90000B022A024B026E029302BA02E402100312
:100EA0003F037003A403DC03170455049704DD0417
:100EB00027057505C80520067D06E0064907B80721
:100EC0002D08A9082D09B9094D0AEA0A900B400C12
:100ED000FA0CC00D910E6F0F5A1053115B12721362
:100EE0009A14D41520178018F519801B231DDE1EB7
:100EF000B420A622B524E4263429A72B402E0031A5
:100F0000EA330037453ABC3D68414C456B49C84D12
:100F100068524F57805C0062101112131516171893
:100F20001A1C1D1F21232527292C2E3134373A3E28
:100F30004145494E52575C62686E757B838B939C2A
:100F4000A5AFB9C4D0DCE9F70000000200090F002A
:100F500000030401000C000000000000000000007D
:100F60000000000000000003010000000024002732
:100F7000002A002D0030008D14A1C881CFD9F102C4
:100F8000AF040802011040804010204080408008DB
:100F900002040180402010020110801020404020F7
:100FA00000000000250028002B002E003100040462
:100FB0000404040304050202020204030202020202
:100FC00006060606060604040202020404140213BE
:100FD00002120215020702080204010101020100C7
:100FE000080B0002020200000904000001020200D6
:100FF0000005240010010524010101042402060556
:1010000024060001070581031000400904010002C5
:101010000A000000070502024000000705830240A5
:1010200000000403090412010002EF020140412301
:10103000368000010102030141726475696E6F2000
:101040004C4C430041424131313036006D22112475
:101050001FBECFEFDAE0DEBFCDBF11E0A0E0B1E010
:10106000E2E1F8E502C005900D92A635B107D9F787
:1010700027E0A6E5B1E001C01D92A339B207E1F770
:1010800018E0C7E2D8E004C02197FE010E942029A1
:10109000C632D107C9F70E94A4220C94072C0C94E5
:1010A0000000CF93DF93DC0177FF13C022273327A3
:1010B000261B370B842F042E000C990B2817390799
:1010C0002CF4460F70E060E0141644F0DF91CF91ED
:1010D00008951416DCF760347105C4F7A038B10523
:1010E000A9F3262FCB01840F911D47FD9A958134DA
:1010F000910514F040E4461B27709FEF022E01C0BB
:10110000990F0A94EAF7420F621B710977FF02C038
:10111000695F7F4F83E0759567958A95E1F7FB01DD
:10112000F695FE2FEE27F795E795EA0FFB1FE95797
:10113000FC4F28E030E06FEF70E014163CF64830CA
:1011400064F4D901A41BB10947FDB395EB0102C0BA
:10115000D595C795AA95E2F79C238081982B90831B
:101160004850E058FF4F9FEFE8CF0F93CF93DF93A6
:1011700077FF14C0AA27BB27A61BB70BE22F022EAE
:10118000000CFF0BAE17BF072CF4260F70E060E0D9
:1011900012163CF0DF91CF910F91089560347105E4
:1011A000CCF7FC01E40FF11DE138F10514F040E843
:1011B000481B562FFB01E20FF11D27FDFA95E13484
:1011C000F10514F020E4261B57703FEF052E01C0F7
:1011D000330F0A94EAF7250F651B710977FF02C0E8
:1011E000695F7F4F53E0759567955A95E1F776955E
:1011F000762F662777956795860F971F89579C4F9F
:10120000A8E0B0E0CFEFD0E0121624F6283064F466
:10121000BD01621B710927FD7395FE0102C0F595A2
:10122000E7956A95E2F73E2301110DC03095FC0168
:10123000542F6081632361935150D9F7285080580F
:101240009F4F3FEFE1CFFC01542F6081632B6193EF
:101250005150D9F7F3CF2F923F924F925F926F92F6
:101260007F928F929F92AF92BF92CF92DF92EF9236
:10127000FF920F931F93CF93DF9300D000D0CDB791
:10128000DEB7822E912C9401280F391F37FDB0C094
:10129000803891050CF0ACC09B01200F311D37FD4B
:1012A000A7C0603471050CF0A3C0DB0177FF04C058
:1012B000AA27BB27A61BB70BA770BB279B0177FFED
:1012C00002C0295F3F4FF3E035952795FA95E1F786
:1012D00077FF08C02150310968E070E0FB01EA1B8C
:1012E000FB0BDF01202E269426942694312C0770C8
:1012F00019F0FFEF2F1A3F0AB9017695762F66276E
:1013000077956795680F791F6D587C4F8A01220E7B
:10131000331E48E050E03A016A1A7B0A2F3F4FEF34
:1013200034070CF458C07C836B836C0150E040E0C0
:101330002B01F0E84F0E511CD7FC3BC02F3F32076A
:1013400009F4A6C05A01A00EB11EEB81FC81F488FD
:10135000F1E0EF1264C0F501A490EA2D0A2E01C05D
:10136000EE0F0A94EAF7FE2AEB81FC81F48A1097CB
:1013700001F127303105E9F0FA01E00FF11FFA839E
:10138000E9835201A40EB51EF501F488F1E0EF12D5
:101390005FC0E981FA81F491EF2FF0E0FA83E983ED
:1013A000062C02C0F595E7950A94E2F7FE2AF501AE
:1013B000F48A4F5F5F4FFFEFCF1ADF0AEB81FC81AA
:1013C0003196FC83EB83481559052CF4E0E8CE16E2
:1013D000D10409F0B1CF2F5F3F4F60587F4F080D08
:1013E000191D2215330521F02830310509F096CF5B
:1013F0000F900F900F900F90DF91CF911F910F9151
:10140000FF90EF90DF90CF90BF90AF909F908F9024
:101410007F906F905F904F903F902F900895F501CF
:10142000E1100DC0A490EA2DF0E00A2E02C0EE0FEC
:10143000FF1F0A94E2F7E095F095FE2295CFA49065
:10144000EA2D0A2E01C0EE0F0A94EAF7FE268CCF91
:10145000E981FA81E1100FC0F491EF2FF0E0FA83F7
:10146000E983062C02C0F595E7950A94E2F7E0952A
:10147000F095FE229CCFF491EF2FF0E0FA83E98300
:10148000062C02C0F595E7950A94E2F7FE268FCF69
:10149000109709F071CF8DCF90E0E7E8F3E091115C
:1014A0009FEF8FEF91939193919391938150D0F708
:1014B0000895E1E0F0E00E946E0A319728F068514B
:1014C0007C4F8F4F9F4FF9CFAB01FC010E946E0AFA
:1014D000641775078E079F07C8F30895A1EFB2E060
:1014E0002FB7F8947D918D919C9166B52FBFA89BE5
:1014F00005C06F3F18F47F5F8F4F9F4F22E0660F4C
:10150000771F881F991F2A95D1F70895FC018091B4
:101510001B03882311F13FB7F89482E08093E90020
:101520002091F200822F90E01816190614F481E041
:1015300090E0882339F0289844E640931A034091BC
:10154000F1004083222339F02091F200211103C0E1
:101550002BE62093E8003FBF08958FEF9FEF08959B
:101560002FB7F89483E08093E9009091E800892FE9
:10157000807295FF04C09091F20080E4891B2FBF18
:1015800008958091120381110DC082E080930E03B3
:1015900084E080930F03109211031092100381E0F6
:1015A000809312038EE093E008958F929F92AF9202
:1015B000BF92CF92DF92EF92FF920F931F93CF9340
:1015C000DF936C017B018A0180910B01882309F470
:1015D00058C080911B03882309F453C080910D03E8
:1015E00080FF05C08091E00082608093E000E80108
:1015F000B12C8AEFA82E93E0892E2AE3922E209711
:1016000011F4BB20B9F10E94B00A811106C0AA945E
:10161000AA20B9F10E94590AF2CF8C171D0611F0C9
:101620000CF08C2F9FB7F8948092E9002091E8008D
:1016300025FD02C09FBFE3CF282F30E0C21BD30B94
:10164000F701815020F041914093F100FACFE20E72
:10165000F31EBB2021F09092E800B12CEBCF8091DB
:10166000E80085FDE7CF9092E800BB24B394209773
:1016700009F3F3CF5D9884E680930C0310161106EE
:101680003CF081E090E0F6019383828310E000E07B
:10169000C801DF91CF911F910F91FF90EF90DF90E4
:1016A000CF90BF90AF909F908F900895CF93DF938E
:1016B0001F92CDB7DEB76983DC01ED91FC9102800A
:1016C000F381E02D41E050E0BE016F5F7F4F09954F
:1016D0000F90DF91CF91089583E08093E90080918E
:1016E000F200882319F08AE38093E80008950E94AD
:1016F000B00A90E00895CF93DF931F92CDB7DEB785
:10170000FC018485958597FD08C02FEF3FEF358755
:1017100024870F90DF91CF910895CE0101960E940A
:10172000860A019719F4898190E0F3CF8FEF9FEF3C
:10173000F0CF0F931F93CF93DF931F92CDB7DEB7F8
:101740008C01FC018485958597FF0BC0CE01019625
:101750000E94860A019771F4898190E0F8019587CB
:101760008487F801848595850F90DF91CF911F9133
:101770000F9108958FEF9FEFF1CFFC018485958540
:1017800097FD0BC09FB7F89482E08093E9008091A9
:10179000F2009FBF90E0019608959FB7F89482E011
:1017A0008093E9008091F2009FBF90E008954091FE
:1017B0000803509109032091060330910703421753
:1017C0005307B4F49091E8009570E1F39091E8002C
:1017D00092FD19C08093F100809108039091090354
:1017E00001968F739927892B19F48EEF8093E80067
:1017F00080910803909109030196909309038093C7
:10180000080381E0089580E00895EF92FF920F931E
:101810001F93CF93DF93F82E192FE62E042F81E02C
:10182000860F880F0E94D70B83E00E94D70BCF2D25
:10183000D12FEC0EFD2EF11CCE15DF05B9F007FF00
:1018400013C0FE0184910E94D70B182F80E00E94E4
:10185000D70B812321968111EFCFDF91CF911F917B
:101860000F91FF90EF9008958881EDCF81E0F5CF43
:10187000DF92EF92FF920F931F93CF93DF93D82EB7
:101880008A01EB017B01E40EF51ECE15DF0559F050
:10189000D7FE12C0FE0184910E94D70B21968111C0
:1018A000F4CF0FEF1FEFC801DF91CF911F910F9180
:1018B000FF90EF90DF9008958881EECF0F931F93F4
:1018C000CF93DF931F92CDB7DEB782E0898342E4E6
:1018D00050E060EE7FE080E80E94380C0E94C10A70
:1018E000DC0112960D911C910115110589F0D801AA
:1018F000ED91FC910280F381E02DBE016F5F7F4F7F
:10190000C801099597FD04C0F80100851185ECCF49
:1019100089810F90DF91CF911F910F9108956150B0
:1019200030F02091F100FC0120830196F8CF289837
:1019300084E680931A03089588E78093FF02089550
:101940000895AF92BF92CF92DF92EF92FF920F93E2
:101950001F93CF93DF936C017B018B01040F151F45
:10196000EB015E01AE18BF08C017D10759F06991AD
:10197000D601ED91FC910190F081E02DC601099511
:10198000892B79F7C501DF91CF911F910F91FF90BE
:10199000EF90DF90CF90BF90AF900895282F30E068
:1019A000F901E85BF04F9491F901EF57F04F849102
:1019B0002255304FF9012491222309F430C0992394
:1019C000E9F091509F30D0F4E92FF0E0E651F34F69
:1019D0000C942029180D1C0DF90C100D140DFE0C83
:1019E000FE0CFE0C1F0D250D290D2D0D330DFE0CCB
:1019F000370D909180009F7790938000E22FF0E068
:101A0000EE0FFF1FE056F04FA591B4919FB7F894E9
:101A1000EC91611132C080958E238C939FBF089505
:101A2000909180009F7DE8CF90918000977FE4CFD8
:101A300094B59F7794BDE2CF94B59F7DFBCF9091F5
:101A400090009F7790939000D9CF909190009F7DC8
:101A5000F9CF90919000977FF5CF9091C0009F773C
:101A60009093C000CBCF9091C0009F7DF9CF909113
:101A7000C200977F9093C200C1CF8E2BCECFCF9361
:101A8000DF9390E0FC01EF57F04F24918255904F87
:101A9000FC0184918823C9F090E0880F991FFC0114
:101AA000E759F04FA591B491FC01E056F04FC59174
:101AB000D49161110DC09FB7F8948C912095822329
:101AC0008C938881282328839FBFDF91CF9108952D
:101AD000623051F49FB7F8943C91822F8095832314
:101AE0008C93E8812E2BEFCF8FB7F894EC912E2BAF
:101AF0002C938FBFEACF1F93CF93DF93182FEB0167
:101B000061E00E943F0D209739F460E0812FDF9162
:101B1000CF911F910C94CE0CCF3FD10511F461E011
:101B2000F5CFE12FF0E0E85BF04FE491E150EF30CA
:101B300008F07FC0F0E0E156F24F0C942029AE0D82
:101B4000B60DBB0DC50DCF0D190E190E190ED90D01
:101B5000E30DED0DF70D040E190E0C0E84B5806823
:101B600084BDC7BDDF91CF911F91089584B5806278
:101B700084BDC8BDF7CF80918000806880938000CD
:101B8000D0938900C0938800EDCF8091800080625F
:101B900080938000D0938B00C0938A00E3CF809124
:101BA0008000886080938000D0938D00C0938C006B
:101BB000D9CF80919000806880939000D093990055
:101BC000C0939800CFCF8091900080628093900066
:101BD000D0939B00C0939A00C5CF809190008860FD
:101BE00080939000D0939D00C0939C00BBCF8091C8
:101BF000C00080688093C0008091C0008F7B80937C
:101C0000C000C093CF00AECF8091C00080628093AF
:101C1000C000C093D000A6CF8091C200886080939E
:101C2000C2008091C2008B7F8093C200C093D2001B
:101C300099CFC038D1050CF072CF67CFAB01FC0152
:101C40000E946E0A41505109E109F10928F06851DA
:101C50007C4F8F4F9F4FF6CFAB01FC010E946E0A65
:101C6000641775078E079F07C8F308958FB1809595
:101C7000807F669B88601C9B8460089583B7817F0A
:101C800083BF83B7816083BF889583B78E7F83BF0F
:101C90000895E091FD02F091FE0290818091FC0296
:101CA0008095892380830895E091FD02F091FE02E2
:101CB00080819091FC02892B80830895CF92DF92DE
:101CC000EF92FF920F931F93CF93E82FF0E0E95923
:101CD000F04FC491E62FF0E0603398F5E85EF04FE6
:101CE000E4910E2F10E0F12CE12C60E074E284EF1F
:101CF00090E0A70198010E947E26215031094109F8
:101D0000510991E02115310581E0480751056CF03A
:101D100060E970ED83E090E0A70198010E947E26C3
:101D2000215031094109510993E0C13089F0C33094
:101D3000F9F0CF911F910F91FF90EF90DF90CF902E
:101D40000895EE0FFF1FE85EF14F05911491CBCF80
:101D500080918100887F892B809381003093890056
:101D60002093880080916F00826080936F00E1CFA4
:101D700080919100887F892B809391003093990006
:101D8000209398001093EE020093ED0281E080937F
:101D9000EC0280917100826080937100CACFE82FBD
:101DA000F0E0E959F04FE491E13019F0E33089F0C7
:101DB000089580916F008D7F80936F008091F8026D
:101DC000E091F902F091FA02908180958923808355
:101DD00008951092EC028091F502E091F602F091E4
:101DE000F702F2CFE0911E03F0911F03BF016F5F76
:101DF0007F4F70931F0360931E032491922F907F57
:101E0000822F8F70903819F40E94CF0EEBCF90394B
:101E100081F43296F0931F03E0931E03FB0164915B
:101E200090911C038917F0F667FDDCCF0E945E0ECF
:101E3000D9CF903E49F48091200390912103909353
:101E40001F0380931E03CECF903F19F410921D0301
:101E5000089597FDC7CF3296F0931F03E0931E03BA
:101E6000FB016491A091ED02B091EE02322F262F7A
:101E70000E94D2266C507E4F8F4F9F4F28EE33E04A
:101E800040E050E00E94B0262093E8023093E9023F
:101E90004093EA025093EB028091E8029091E902AC
:101EA000A091EA02B091EB02892B8A2B8B2B61F473
:101EB00081E090E0A0E0B0E08093E8029093E90236
:101EC000A093EA02B093EB0208950F931F93CF9370
:101ED000DF9320912203222329F1162FEC01809118
:101EE0001D03882381F0809191078617D8F000E0C8
:101EF00080911C03081728F4802F0E94CF0E0F5FDB
:101F0000F7CF10921D0310939107D0932103C09334
:101F10002003D0931F03C0931E030E94F20E81E0A2
:101F200080931D03DF91CF911F910F91089510921F
:101F30002203E4E6F0E0808188608083E5E6F0E05B
:101F40008081886080830895E4E6F0E08081877F67
:101F50008083E5E6F0E08081877F808381E0809365
:101F60002203089560387105E8F440345105D0F437
:101F7000342F369536953695A0E83A9FF001112416
:101F8000E60FF71FE80FF91F3489CA0187709927F8
:101F900041E050E001C0440F8A95EAF7222319F08E
:101FA000432B448B089540954323FBCF2F923F92C0
:101FB0004F925F926F927F928F929F92AF92BF9259
:101FC000CF92DF92EF92FF920F931F93CF93DF9305
:101FD000CDB7DEB72D970FB6F894DEBF0FBECDBFDD
:101FE0006A3069F5FC01EA5EFB4FDC01A85EBB4F7D
:101FF0002C9148E0249F9001112440815181240FAD
:10200000351F3183208314971D921C922D960FB695
:10201000F894DEBF0FBECDBFDF91CF911F910F911E
:10202000FF90EF90DF90CF90BF90AF909F908F90F8
:102030007F906F905F904F903F902F9008956D30FC
:1020400029F39D878C878C5E9B4F9A838983FC0143
:10205000808091802C853D85285E3B4F3C832B837F
:1020600030E8831691040CF071C0EC85FD85EA5EC2
:10207000FB4F6080718040E4641671040CF066C010
:10208000AB81BC814C9045E09401449E200D311DF4
:102090001124121613060CF059C0242C312C910176
:1020A00053E0220F331F5A95E1F7260D371D121604
:1020B00013060CF04BC0649FB001112410E000E047
:1020C000FB01E858F64FFB87EA87E0E0053029F08E
:1020D000EA85FB85E00FF11FE491530198E0592E4A
:1020E0002E2F30E03E832D83E170EF83F12CE12C25
:1020F000E414D8F4C4018E0D9F1D99878887D12CD4
:10210000C12CC41470F4A6014A0D5B1D2F81688593
:1021100079858C859D850E94B20F9FEFC91AD90AD7
:10212000F0CFAFEFEA1AFA0AE3CFED81FE81F59521
:10213000E7955A94A20CB31C5110D2CF0F5F1F4FDA
:10214000820C931C0630110509F0BFCFEB81FC8196
:102150002081422F50E0A981BA818D919C91B6E0F7
:102160002B9F800D911D1124E981FA819183808339
:10217000EC85FD85E75EFB4F2081222309F446CFE5
:102180006AEF64039001659F300D112420583F4F82
:10219000281739070CF03ACFAC85BD85ED91FC913D
:1021A00011970190F081E02D6AE0CD012D960FB6D8
:1021B000F894DEBF0FBECDBFDF91CF911F910F917D
:1021C000FF90EF90DF90CF90BF90AF909F908F9057
:1021D0007F906F905F904F903F902F9009946FEF9A
:1021E00082E799E00C94650FCF93DF93D091FF02C3
:1021F000D150D093FF022D2F2F50330BC90163E034
:1022000070E00E940C298AE39AEAA3EEBEEE04C0B5
:10221000B695A795979587956A95D2F7C82FC170FF
:10222000C093BB026FEF70E08AE00E947B0D6FEFFE
:1022300070E083E00E947B0D8FE7C89F802D112402
:102240006FEF70E0681B710989E00E947B0D81E0EF
:10225000D11180E0DF91CF910895CF92DF92EF927C
:102260000F931F93CF93DF93EC016B018A014A30E8
:1022700051055CF0CA016AE070E00E940C29AB01D4
:10228000B601CE010A970E942D11C8016AE070E0E4
:102290000E940C29AC0184E0440F551F8A95E1F798
:1022A0004B5B5B4FEE24E39400E128E0B601CE01E6
:1022B0000E942B09DF91CF911F910F91EF90DF903A
:1022C000CF9008952F923F924F925F926F927F929C
:1022D0008F929F92AF92BF92CF92DF92EF92FF9236
:1022E0000F931F93CF93DF93CDB7DEB72F970FB622
:1022F000F894DEBF0FBECDBF6A3071F5FC01EA5E17
:10230000FB4FDC01A85EBB4F4C912081318156E030
:10231000459F200D311D11243183208314971D9278
:102320001C9281E090E02F960FB6F894DEBF0FBEAE
:10233000CDBFDF91CF911F910F91FF90EF90DF9074
:10234000CF90BF90AF909F908F907F906F905F9055
:102350004F903F902F90089520EE260F203408F7DD
:102360009F878E878C5E9B4F9E838D83FC010081AF
:1023700011812E853F85285E3B4F3987288700389D
:1023800011050CF065C0EE85FF85EA5EFB4F80818C
:1023900091819B838A83803491050CF059C0D901C7
:1023A0008C91482E512C9801B5E08B9F200D311D4A
:1023B000112437FD4DC02A813B81E6E08E9F200D20
:1023C000311D112437FD44C0EE85FF85E55EFB4FCE
:1023D0007080EE85FF85E65EFB4F608024E0629FA3
:1023E000F0011124E953FF4F85909590A590B4908A
:1023F000813009F05FC026E0D22EF12CE12CD5010E
:10240000C40181709927AA27BB2780FC02C07614DB
:1024100079F0262D892B8A2B8B2B09F4272D4A81C5
:102420005B814E0D5F1DB8018E859F850E94B20FA6
:10243000B694A794979487943FEFE31AF30A56E073
:10244000E516F104E1F6DA940F5F1F4FD110D5CFF6
:10245000A885B9852C91422F50E0ED81FE818081C5
:102460009181F6E02F9F800D911D1124AD81BE81D9
:102470008D939C93EE85FF85E75EFB4F20812223A1
:1024800009F44FCF6AEF64039001659F300D11246A
:1024900020583F4F281739070CF043CFAE85BF8532
:1024A000ED91FC9111970190F081E02D6AE0CD0152
:1024B000099537CF180186E089830A811B8196E050
:1024C0009C83D101A40DB51DBD87AC87D501C40186
:1024D00081709927AA27BB2780FC02C0761481F15E
:1024E000892B8A2B8B2B31F16F826101F801E40D6E
:1024F000F51DFB87EA872C853D85C216D30604F5BA
:10250000780117FF02C0F12CE12C8A859B8581346C
:10251000910514F080E490E0E816F9066CF42F8140
:10252000A701B6018E859F850E94B20F3FEFE31A87
:10253000F30AEBCF7F82D9CF5FEFC51AD50ADBCF85
:10254000B694A794979487948C8181508C83040DC2
:10255000151D8111BBCF998191509983240C351C95
:102560009111ABCF75CFEF92FF920F931F93CF9343
:10257000DF938C017B01D0E0C0E0F701EC0FFD1F81
:102580006491662339F0C8010E946211892B11F011
:102590002196F3CFCE01DF91CF911F910F91FF9044
:1025A000EF9008958F929F92AF92BF92CF92DF9259
:1025B000EF920F93CF93DF930E944C0A2091FF027A
:1025C00088E790E0821B910968E270E00E940C2984
:1025D0004B0186E1C82E85E0D82E9CE1A92EB12CB6
:1025E000D0E0C0E081E090E08C169D0611F090E014
:1025F00080E02091BB02289FB001299F700D11241B
:10260000645F7F4FEE24E39400E228E1A601C50158
:102610000E942B09219688E1A80EB11C80E6C80E05
:10262000D11CC330D105F1F608E020E246EF54E0BA
:102630006CE270E084E490E00E942B0980E190E07D
:1026400090938807809387078AE390E090938A07A6
:102650008093890765EE74E083E793E0DF91CF9183
:102660000F91EF90DF90CF90BF90AF909F908F90A1
:102670000C94B312089590E080E00895FB0101905E
:102680000020E9F73197AF01461B570B0C94A10CC2
:102690008F929F92AF92BF920F931F93CF93DF932E
:1026A000CDB7DEB7A1970FB6F894DEBF0FBECDBF92
:1026B00019A2423008F44AE08E010F5D1F4F842EAC
:1026C000912CB12CA12CA50194010E94B026E62FDB
:1026D000B901CA01EA3004F5E05DD801EE938D013D
:1026E000232B242B252B79F790E080E0109729F0FD
:1026F000BD0183E793E00E943E13A1960FB6F894C4
:10270000DEBF0FBECDBFDF91CF911F910F91BF9064
:10271000AF909F908F900895E95CDFCFAB01BC0133
:10272000F999FECF8091E1029091E2020E94612628
:102730008091E1029091E20204969093E2028093EC
:10274000E1020895F999FECFBC018091E1029091D8
:10275000E2020E9469268091E1029091E2020296D3
:102760009093E2028093E1020895CF93DF93F99969
:10277000FECFC091E102D091E202CE010E94472635
:102780002496D093E202C093E102DF91CF910895A5
:10279000CF93DF93F999FECFC091E102D091E2028D
:1027A000CE010E944D262296D093E202C093E10210
:1027B000DF91CF9108952F923F924F925F926F9247
:1027C0007F928F929F92AF92BF92CF92DF92EF92C1
:1027D000FF920F931F93CF93DF93CDB7DEB7689728
:1027E0000FB6F894DEBF0FBECDBF8091E002882304
:1027F00071F01091DF020E944C0A113009F40CC1F3
:1028000008F447C0123009F4FDC11092E002809133
:10281000DF02811125C08091C0028695869563E014
:1028200070E0681B710977FD60E0633009F461E0D6
:102830008AE0689FB00111246D5B794F4AE050E057
:102840008BE196E00E942426E090BF0208E027E09A
:102850004CE356E06AE170E086E190E00E942B09CB
:1028600068960FB6F894DEBF0FBECDBFDF91CF9153
:102870001F910F91FF90EF90DF90CF90BF90AF909E
:102880009F908F907F906F905F904F903F902F9090
:102890000895EE24E39404E124E546E758E070E06F
:1028A00060E083E090E00E942B0920E546E857E0D5
:1028B00063E170E08DE290E00E942B0908E228E2DB
:1028C0004EEB56E068E170E084E090E00E942B0956
:1028D0008091DD029091DE029E012F5F3F4F7901D2
:1028E000892B09F443C002E610E010938807009397
:1028F000870710928A071092890769EB76E083E7D1
:1029000093E00E94B312109388070093870786E034
:1029100090E090938A078093890763EB76E083E7E2
:1029200093E00E94B3128091DE028F938091DD02CA
:102930008F938BE491E09F938F93FF92EF920E948D
:102940003A2910938807009387078EE090E09093D0
:102950008A0780938907B70183E793E00E943E13BB
:102960000F900F900F900F900F900F906BEAA62E84
:1029700066E0B62E78E2C72ED12C10E000E0F5011B
:1029800085909490B401C7010E942D268091DC02AD
:10299000082E000C990B80179107D9F58CE390E075
:1029A0009093880780938707D0928A07C0928907FF
:1029B000B70183E793E00E943E1334EA831636E0C2
:1029C000930661F48091DB0261EA76E0811102C036
:1029D0006DE976E083E793E00E94B3120F5F1F4F2B
:1029E00082E0A80EB11C96E0C90ED11C043011057E
:1029F00031F66091DC02E6E06E02B0011124685D00
:102A00007F4F01E025E045E084E390E00E94B508B7
:102A1000FCCE80E490E0C4CF86E190E090938807FC
:102A20008093870784E090E090938A0780938907DA
:102A30006EE876E083E793E00E94B312E7E0F4E00B
:102A400026E834E08081806181932E173F07D1F71B
:102A500047EC242E42E0342EC12CD12C7601C394B5
:102A600004E010E04601F1E08F1A9108388E2F8AB9
:102A7000260137013EE0A32EB12C90E080E029E052
:102A80008216910411F486E090E0F801E81BF90B3E
:102A9000F0938807E0938707B0928A07A09289078E
:102AA0006CE876E083E793E00E94B3124AE0C3014A
:102AB000B2010E94481369E876E083E793E00E9440
:102AC000B312EF89F88D61917191F88FEF8B90E0DF
:102AD00080E04AE00E944813FFEF8F1A9F0A26E029
:102AE000A20EB11C3FEF431A530A630A730A8CE229
:102AF000A816B10411F6045C1F4F95E0C90ED11C55
:102B0000E11CF11CEAE02E0E311C0C37110509F016
:102B1000A9CFE7E0F6E026E836E080818061819386
:102B20002E173F07D1F700E110E0109388070093BC
:102B3000870780E390E090938A07809389076DE789
:102B400076E083E793E00E94B3126091C502709132
:102B5000C60290E080E04AE00E9448131093880784
:102B60000093870786E390E090938A078093890714
:102B700061E776E083E793E00E94B3126091C102BF
:102B80007091C2028091C3029091C40220E13EE0A4
:102B900040E050E00E94B026CA01B9014AE00E941C
:102BA00048136091C1027091C2028091C30290915A
:102BB000C4022CE3C22ED12CE12CF12CA7019601EA
:102BC0000E94B026CA01B901A70196010E94B02651
:102BD0009F938F937F936F938FE491E09F938F9355
:102BE0008E010F5F1F4F1F930F930E943A29B80168
:102BF00083E793E00E943E130FB6F894DEBF0FBE4A
:102C0000CDBF03CE81E6E82E86E0F82E08E010E086
:102C1000F701659174916115710501F1CE0101967D
:102C20000E942D2666E170E0CE0101960E943426B6
:102C3000382F2DEF2303C0011124805C9F4F909308
:102C400088078093870710938A0700938907BE013E
:102C50006F5F7F4F83E793E00E943E1332E0E30E05
:102C6000F11C0A5F1F4F0833110591F6CECD2F924C
:102C70003F925F926F927F928F929F92AF92BF929C
:102C8000CF92DF92EF92FF920F931F93CF93DF9338
:102C9000CDB7DEB72E970FB6F894DEBF0FBECDBF0F
:102CA0000E944C0A8091B9029091BA0281FB2224C1
:102CB00020F8312C813D934014F4312C212C60916B
:102CC000B7027091B802C101860F971F9A8389835A
:102CD0008090B5029090B602820C931C10E000E048
:102CE000F2E16F2E712C877099279E838D839195C9
:102CF000819591099C01277033273A872987882776
:102D00009927881999099C012770332738872F83C1
:102D1000C9019195819591099C01277033273C87C2
:102D20002B87E091B402E00FF12FF11DCF0108963F
:102D300060E970E00E940C296C017C0173E0F5945D
:102D4000E7947A95E1F75C0137E0A322BB24E770B2
:102D5000FF27E35CFB4F5490C701880F991F9C83AA
:102D60008B83FC01E057FD4F9081292F30E03E8797
:102D70002D87A114B10409F062C0C7014196B301C7
:102D80000E940C29FC01EE0FFF1FE057FD4F8081D0
:102D9000A901481B51094F5F5F4F2D853E858981F1
:102DA0009A81280F391F3E872D8737FD5FC0141683
:102DB000150614F041E050E02D853E8524173507B7
:102DC0000CF4A9018D859E85841B950B9E878D87AC
:102DD000BC01C8010E945108452D098401C04695D7
:102DE0000A94EAF7852D0D8001C0880F0A94EAF74E
:102DF000482BF801E957FC4F28E030E08D859E858F
:102E0000281B390B8D859E85181619067CF50897A9
:102E10005CF58FEF90E0022E02C0959587950A949D
:102E2000E2F784239081892B8083E058FF4F8D85C2
:102E30009E8508979E878D87285F3F4FE3CF41E0AF
:102E400050E087E0A816B10409F0A7CFC701439668
:102E5000B3010E940C29FC01EE0FFF1FE057FD4F4C
:102E600080814D855E8595CF8FEFDBCFEB81FC8137
:102E7000E057FD4F218130E0C7014196A114B10414
:102E800039F087E0A816B10409F063C0C701439682
:102E9000B3010E940C29FC01EE0FFF1FE057FD4F0C
:102EA0009181892F90E0821B930B01969C838B83E9
:102EB00090E4E92EF12CE21AF30AE818F908F7FC7D
:102EC0004BC02B813C811216130624F081E090E068
:102ED0009C838B832B813C81E216F30614F4FC82E5
:102EE000EB8260E470E06E197F094B81C8010E949B
:102EF00051088B819C81E81AF90A852D0F8001C049
:102F000086950A94EAF70B8401C0550C0A94EAF7F7
:102F1000582AD801A95FB84F28E030E02E193F09A0
:102F20001E141F04CCF48FEF98E0E916F1042CF482
:102F3000022E01C0880F0A94EAF785219C91892B03
:102F40008C93A058B10988E0E81AF108285F3F4F38
:102F5000E7CF81E090E0AACFF601EE0FFF1FE05926
:102F6000FE4F40814423A9F0449FA0011124B6E004
:102F700055954795BA95E1F78181480F511D87FD19
:102F80005A95420D531D21E0B80183E793E00E945A
:102F9000B20F0F5F1F4F0038110509F0C2CEE0914C
:102FA0006F01F0E0EE0FFF1FE057FD4F8181209190
:102FB0006E0140916D01608170E090916C01911102
:102FC00096C024039001112437FF02C0295F3F4FB0
:102FD000F3E035952795FA95E1F7820F932F911D30
:102FE0000897880D991D29813A81620F731F681710
:102FF00079070CF4BC016933710514F068E370E0E3
:1030000080916B0134E0839FC00111244695480FE5
:10301000592F511DE3E0440F551FEA95E1F749543C
:103020005D4F80916A01EE24E39408E028E090E08F
:103030000E942B09809169018823B9F08C3008F037
:1030400059C086958650990B109288071092870771
:1030500090938A0780938907609167017091680156
:1030600090E080E04AE00E94481380916601882346
:1030700009F443C080916401909165019A8389832A
:10308000499724F028E130E03A83298389819A81A5
:1030900040979A83898300E020E140E4BC0180E20C
:1030A00090E00E94B508EE24E39400E120E44DEBAB
:1030B00053E069817A8180E290E00E942B092E968C
:1030C0000FB6F894DEBF0FBECDBFDF91CF911F9139
:1030D0000F91FF90EF90DF90CF90BF90AF909F90B7
:1030E0008F907F906F905F903F902F900895680D24
:1030F000791D86CF90E080E0A7CF80916C01882376
:10310000F1F220916401309165013A83298380EDC9
:1031100091E06C01C21AD30A1C141D0414F4D12CC2
:10312000C12C00E020E148E5B60184E190E00E9476
:10313000B508EE24E39400E128E54DE053E0B60144
:1031400084E190E00E942B0989819A81803C914022
:1031500024F480EC91E09A8389838091630190E06C
:103160009C012E5F3F4F220F220F220F33E0880F6A
:10317000991F3A95E1F7E980FA8030E9E31A31E0E6
:10318000F30AB701681B790B00E048E48CE190E09A
:103190000E94B5084091670150916801B7018AE526
:1031A00090E00E942D110EE110E01093880700932B
:1031B000870789819A818D58914090938A078093DF
:1031C000890768E073E083E793E00E94B3121093ED
:1031D00088070093870789819A8187589140909347
:1031E0008A078093890762E073E083E793E00E9497
:1031F000B31280916301882309F461CF8091B902F1
:103200009091BA0268E070E00E940C2904970CF0DB
:1032100056CF82E290E09093880780938707898158
:103220009A818659914090938A078093890767EF26
:1032300072E083E793E02E960FB6F894DEBF0FBEE0
:10324000CDBFDF91CF911F910F91FF90EF90DF9055
:10325000CF90BF90AF909F908F907F906F905F9036
:103260003F902F900C94B3120F931F93CF93DF9343
:103270001092DF0281E08093E002C0912203CC2310
:1032800009F471C00E94A40FC093DB021092DC020B
:103290008091BC0281114BC080E093E09093E202E8
:1032A0008093E1020E94B5136F3472448E449140C2
:1032B00009F05CC0C3E0D0E00BEE14E40E94C81338
:1032C0009C01C29FC001C39F900DD29F900D1124FD
:1032D000080F191F2196C031D10581F70E94C8132C
:1032E0000817190709F042C084E093E09093E202C6
:1032F0008093E102C7ECD2E00E94C81389939993AE
:1033000032E0CB3DD307C1F70E94C8139093C602A9
:103310008093C5020E94B5136093C1027093C202EC
:103320008093C3029093C40282E08093BC020E9407
:10333000702564E670E00E940C298A568093C002D2
:1033400081E08093BF021092BE020E94702564EB60
:1033500070E00E940C29845C8093BD02DF91CF91C4
:103360001F910F9108950E94970F8ECFE7ECF2E026
:103370008BED92E0119211928E179F07D9F7109260
:10338000C6021092C5021092C1021092C20210929F
:10339000C3021092C40281E0C8CFAF92BF92CF9215
:1033A000DF92EF92FF920F931F93CF93DF937C01F5
:1033B000B62E8A01FA01C1808081C81ADD080E94F8
:1033C000702563E070E00E940C29EC01BB2031F015
:1033D00088E090E09C012C1B3D0BE901F801818104
:1033E0008252990B65E070E00E940C295B010E94FB
:1033F0007025FE01EC19FD099F01F7FF04C022278B
:1034000033272E1B3F0B61E170E0621B730B9501AC
:10341000B7FE04C0222733272A193B09621B730B0E
:103420000E940C299C0128503109CC16DD0614F4A9
:103430002E0F3F1FB7FE02C02A193B09F8018181F8
:10344000820F932F911D8031910514F480E190E05B
:103450008933910514F088E390E0982F9C1BF701C5
:1034600090838183DF91CF911F910F91FF90EF9017
:10347000DF90CF90BF90AF9008950F931F93CF939D
:10348000DF9381E08093660110926C0188E790E001
:103490009093650180936401109268011092670116
:1034A000109269011092B4021092BA021092B902FD
:1034B00010925D0110925F0110925E0180E2809394
:1034C0006201E0E9F2E090E288E290838183329643
:1034D00022E0E23AF207C9F7D0E0C0E08E010056E0
:1034E0001D4F80915D019FEF980F90935D0160E00B
:1034F00087FF19C00E9470259C01990F440B550B42
:1035000030584F4F5F4FA0916701B09168010E9402
:103510009D2626E195958795779567952A95D1F70C
:1035200060935D0161E0A801CE018E559D4F0E9420
:10353000CD192296C231D10589F6E0E7F1E010827B
:10354000329682E0E039F807D1F710926A0181E003
:1035500080936F0180936B0110926D0110926E0148
:1035600060E087E492E0DF91CF911F910F910C947E
:10357000650FCF92DF92EF92FF92CF938091DF029F
:103580008111C3C08091C0029FEF980F9093C00239
:10359000811109C00E94702564E670E00E940C2928
:1035A0008A568093C0028091BE029091BD0288230A
:1035B00041F090FF06C03091BF0221E0231B209311
:1035C000BF022FEF290F2093BD0291110DC091E092
:1035D00089278093BE020E94702564EB70E00E94F0
:1035E0000C29845C8093BD0280918F0790E08095C8
:1035F000909520919007207830E082239323892BA7
:1036000079F08091DC028823B1F181508093DC0253
:103610006FEF86E396E00E94650F81E08093E00201
:1036200080918F0790E08095909520919007207170
:1036300030E082239323892B79F08091DC02833060
:10364000E1F08F5F8093DC026FEF86E396E00E94EB
:10365000650F81E08093E00280918F0790E0809574
:103660009095209190072C7030E082239323892B32
:1036700039F4C0E01EC083E0C9CF1092DC02E4CF71
:103680008091DC02813079F124F4882341F0C0E09C
:103690000DC08230B1F18330D1F782E033C0609148
:1036A000220382E090E00E945326C1E081E08093F3
:1036B000E0020E9470256C01990FEE08FF080E943D
:1036C0006E0AC616D706E806F90631F06C257D2588
:1036D0008E259F250E941B268C2FCF91FF90EF9067
:1036E000DF90CF900895C091DB02C82739F00E9487
:1036F000A40FC093DB020E94EF10C9CF0E94970F66
:10370000F8CF81E08093DF02F6CF80918F0790E0C1
:1037100080959095209190072C7030E08223932320
:10372000892B09F4A6CF1092DF020E94EF1081E0EE
:103730008093E0029ECFBF92CF92DF92EF92FF92F2
:103740000F931F93CF93DF93B0906C01809166012C
:10375000811103C0BB2009F40DC3809164019091D5
:10376000650101979093650180936401892B11F4A1
:103770001092660110916601111191C08091B902F9
:103780009091BA0202968B19910960E074E00E9450
:103790000C299093BA028093B902E090B902F0909C
:1037A000BA0220EDE21623E0F20629F462E08EEA86
:1037B00092E00E94650FB701FF0C880B990B0E94E5
:1037C0008B272BED3FE049E450E40E94562820E08F
:1037D00030E040E05BE30E9456280E944E2720E044
:1037E00030E040E05FE30E9456289B01AC0160E0BE
:1037F00070E080E09FE30E94E1266B017C01609114
:10380000620170E090E080E00E948B279B01AC0198
:10381000C701B6010E9456280E9453276B019B01E5
:103820007093610160936001CB018095909597FD45
:103830000196959587959093B8028093B702C6013B
:1038400037FD0196959587959093B6028093B502C2
:10385000BB2039F1809190078C7090E020918F0708
:1038600030E02095309582239323892B11F00E941C
:103870003D1A80916D01882309F4BEC08150809368
:103880006D0180916B01880F90916A01890F9FEF04
:10389000980F993308F070C190936A01ADC011E0A0
:1038A0007CCF80916D018111E9CF111108C09091F9
:1038B0009007892F807296FF95C081119DC081E08D
:1038C00080936B0101E010E020916F0130E0C901AD
:1038D000800F911F429662E170E00E940C29DC018A
:1038E000AA0FBB1FA057BD4F11965C911197220FD5
:1038F000331FF901E057FD4F418120813C91E42FB6
:10390000E31BFF0BBF01E52FE21BFF0B9F016E17AF
:103910007F070CF49B01C20ED31EF8E0CF16D10432
:103920000CF46AC0451B40936E0180936F0188E0E0
:1039300080936D0180916A01080F111D09331105F3
:103940000CF446C00091B40206950695069510E069
:10395000C801419662E170E00E940C29880F991F0E
:103960009C0120573D4F790180915D019FEF980F99
:1039700090935D0187FF1AC00E9470259C01990FEA
:10398000440B550B30584F4F5F4FA0916701B091DA
:1039900068010E949D2626E1959587957795679504
:1039A0002A95D1F760935D01BB24B394C801880FB9
:1039B000991FA7016B2D80579D4F0E94CD198091B3
:1039C0006701909168010196909368018093670167
:1039D0008091660181114DCF63E080EA92E00E9400
:1039E000650F47CF882341F010926B0180916A01E7
:1039F0000FEF1FEF811168CF2091B5023091B60211
:103A0000E0E7F1E010E000E0C80187709927892B1A
:103A100079F4D801C3E0B595A795CA95E1F7AA0F47
:103A2000BB1FA057BD4F1196CC91C20FD32FD11DF4
:103A30008081882399F08F5F8083889FC001112443
:103A4000A6E095958795AA95E1F74181840F911D90
:103A500047FD9A95C817D9070CF410820F5F1F4FC6
:103A600032960039110581F680916601811155C1A8
:103A70000E9470256091B9027091BA02E6E07595D6
:103A80006795EA95E1F76F5F7F4F0E940C29892BBC
:103A900009F50E947025B8010E940C29DC01AA0FCB
:103AA000BB1FA059BE4F2C91211114C021E02C93B3
:103AB00097FD0796FC0133E0F595E7953A95E1F718
:103AC000EE0FFF1FE057FD4F80819091B702890FE5
:103AD00011968C938091660181111FC18091B9026A
:103AE0009091BA02892B09F018C180915E019091E2
:103AF0005F01019690935F0180935E0120916201C6
:103B00002F3F19F02F5F20936201E0916F01F0E0E9
:103B1000EE0FFF1FE057FD4F21813081231B330B38
:103B2000243031050CF0F9C021E020936C01982F6E
:103B30008827990F092E000CAA0BBB0B4091670137
:103B4000509168015093DE024093DD022AE030E09C
:103B5000E9019E0121503109F901EE0FFF1FE953E0
:103B6000FD4F6081718164177507A0F4293031051C
:103B7000B1F4C9E0D0E0EDCF825080936A0180912A
:103B8000B40290E0019660E970E00E940C298093F5
:103B9000B40232CFCA30D10599F09E0109C0CC0FD2
:103BA000DD1FC953DD4F798368832115310581F607
:103BB000F901EE0FFF1FE953FD4F51834083E901E7
:103BC0002091C5023091C6022F5F3F4F3093C6024D
:103BD0002093C5024091C1025091C2026091C3027C
:103BE0007091C402840F951FA61FB71F8093C10256
:103BF0009093C202A093C302B093C4028091BC020E
:103C0000813061F480E093E09093E2028093E102DE
:103C10006FE472E48EE491E00E948E13CE018E5721
:103C20009E4F880F991F9093E2028093E1028E01CC
:103C3000000F111F09531D4F47ECE42E42E0F42EF4
:103C40005BEDC52E52E0D52EC016D10639F0F80135
:103C5000819191918F010E94A213F6CF8091C502AC
:103C60009091C6020E94A2136091C1027091C2029B
:103C70008091C3029091C4020E948E1323E030E031
:103C80004BEE54E4F701619171917F01629FC00195
:103C9000639F900D729F900D1124480F591F2F5F45
:103CA0003F4F2D30310571F7C090C102D090C20254
:103CB000E090C302F090C4028091C5029091C602C8
:103CC0006DE0689F9001699F300D11246EE06C9D3E
:103CD000C0016D9D900D1124280F391F6FE06E9D5E
:103CE000C0016F9D900D1124820F931F840F951FAB
:103CF0000E94A21382E08093BC0281E0C11180E0A7
:103D00008093630180EE91E090936501809364015C
:103D100061E089E692E00E94650F80916C019091CC
:103D2000690120916A012033A8F0209166012111D8
:103D300011C0811121C0903218F49F5F90936901E6
:103D4000DF91CF911F910F91FF90EF90DF90CF9077
:103D5000BF900895992319F0915090936901882399
:103D600079F381E02091640130916501232B41F3C7
:103D700080E0E6CF10E002CD992399F3EDCF1F92BA
:103D80000F920FB60F9211248F939F938091E100B1
:103D90009091E100937F9093E10083FF0FC0109218
:103DA000E90091E09093EB001092EC0092E3909385
:103DB000ED0010921B0398E09093F00082FF22C068
:103DC00093E09093E9009091F200992319F09AE31F
:103DD0009093E80090910C03992341F090910C038B
:103DE000915090930C03911101C05D9A90911A0328
:103DF000992341F090911A03915090931A039111D5
:103E000001C0289A84FF18C08091E2008E7E8160F4
:103E10008093E2008091E1008F7E8093E1008091A9
:103E20000D038E7E806180930D039F918F910F9083
:103E30000FBE0F901F90189580FFF7CF8091E20082
:103E40008E7E80618093E2008091E1008E7E80937F
:103E5000E10080910D038E7E8160E5CF1F920F926D
:103E60000FB60F921124CF92DF92EF92FF920F9331
:103E70001F932F933F934F935F936F937F938F93F2
:103E80009F93AF93BF93EF93FF93CF93DF93CDB700
:103E9000DEB76C97DEBFCDBF1092E9008091E800DD
:103EA00083FF25C068E0CE0145960E948F0C82EF0B
:103EB0008093E8008D8987FF39C09091E80090FFDA
:103EC000FCCF982F907609F034C19E894F89588D88
:103ED0002F89F88C911131C0803861F580910B03E6
:103EE0008093F1001092F1008EEF8093E8006C96C1
:103EF0000FB6F894DEBF0FBECDBFDF91CF91FF911B
:103F0000EF91BF91AF919F918F917F916F915F9151
:103F10004F913F912F911F910F91FF90EF90DF9064
:103F2000CF900F900FBE0F901F9018959EEF90931B
:103F3000E800C7CF1092F100D5CF913059F481112C
:103F4000D3CF4130510581F680910B038D7F809353
:103F50000B03CACF933049F48111C6CF41305105CC
:103F600019F680910B038260F2CF953041F4809175
:103F7000E80080FFFCCF20682093E300B5CF9630A7
:103F800009F0A9C00B8D1C8D22E01092E90010925F
:103F9000090310920803F2122EC010920703109228
:103FA00006030E945E0C1F8299E09983FA8291E0D9
:103FB0009E8390EA98879AEF998720910803309121
:103FC0000903275F3F4F3C832B838D831092E900C9
:103FD000109209031092080310930703009306033D
:103FE00049E050E0BE016F5F7F4F80E00E94380CD7
:103FF0000E945E0C79CF10930703009306030E9482
:10400000C10ADC0112960D911C910115110509F4EC
:1040100051C1D801ED91FC910480F581E02DBE01E4
:104020006B5E7F4FC8010995009709F03EC1F8010A
:1040300000851185EACFF3E0FF120EC08F89882337
:1040400009F440C0823061F440E867E084E490E124
:104050000E94050C811148CF81E28093EB0047CF8D
:10406000813029F440E86BE088E390E1F1CF8330C0
:1040700099F70E94C10ADC011296ED90FC908E0126
:104080000F5F1F4F6801E114F10479F0D701ED9142
:10409000FC910680F781E02DB801C7010995080F52
:1040A000111DF701E084F184EECFD8011C92F601D6
:1040B00001900020E9F73197BF016C197D0940E0BC
:1040C000C601C6CF62E270E1FB01449150E080E896
:1040D0000E94380C09CF973009F4BECF983021F4F4
:1040E00081E08093F10000CF993009F0FDCE83701C
:1040F00009F0B2CFE7E2F1E081E031E096E321910F
:10410000222371F08093E9003093EB00DF011197D7
:104110002C912093EC009093ED008F5F873079F71E
:104120008EE78093EA001092EA008F8980931B0348
:10413000DBCE8B8D9C8D1092E900109209031092BA
:1041400008039093070380930603898D811192C021
:104150008E899D89913A49F4813209F07DCF47E0FB
:1041600050E064E071E080E0B3CF913209F074CFA9
:10417000833269F48F89988DB0E0A0E080930001CC
:1041800090930101A0930201B0930301ADCE803260
:1041900069F48091E80082FFFCCF67E084E091E061
:1041A0000E948F0C8BEF8093E8009ECE823209F044
:1041B0009BCE8F8980930B01EEEFFFE78591949161
:1041C0008B3F9C4D51F1E0E0F8E08091040190912B
:1041D0000501A0910601B0910701803B9440A10523
:1041E000B105F1F480910B0180FD1AC0EE3F8AE029
:1041F000F80789F587E797E79183808380916000CE
:1042000080930A0388E19BE00FB6F894A895809309
:1042100060000FBE9093600067CEEEEFFAE0D5CF5E
:10422000808191818737974709F05ECEA89580916C
:10423000600088618093600080910A038093600031
:10424000EE3F2AE0F20789F08091FE0A9091FF0A82
:104250009183808349CE808191818737980751F27D
:104260009093FF0A8093FE0AC5CF1092FF0A109226
:10427000FE0A3ACE0E94C10ADC0112960D911C91F1
:104280000115110509F4E8CED801ED91FC910190DA
:10429000F081E02DBE016B5E7F4FC8010995811151
:1042A00023CEF80100851185EBCF181619060CF402
:1042B0001BCED2CEF1E0FF12BECE66E270E104CF9B
:1042C0000F920FB68F939F93EF93FF938091F0021D
:1042D0008D5F8D3708F08D578093F002E0E0F3E0BA
:1042E00080818E4F808391819F4F918382818F4FF8
:1042F000828383818F4F8383E1EFF2E080818F5F40
:10430000808381818F4F818382818F4F82838381DC
:104310008F4F83838FB18F6066991C9B88278F3660
:1043200081F48091EF02981B963068F0E0E0F8E0AD
:1043300087E78083818388E180936000F093600049
:10434000FFCF9093EF02FF91EF919F918F910FBE5E
:104350000F9018951F920F920FB60F9211242F9362
:104360003F934F935F936F937F938F939F93AF93FD
:10437000BF93EF93FF938091EC02882349F08091E3
:10438000F502E091F602F091F7029081892780838F
:1043900080911D03882329F18091E8029091E90220
:1043A000A091EA02B091EB02892B8A2B8B2BC9F0EA
:1043B0008091E8029091E902A091EA02B091EB02AB
:1043C0000197A109B1098093E8029093E902A093B3
:1043D000EA02B093EB02892B8A2B8B2B11F40E94FB
:1043E000F20EFF91EF91BF91AF919F918F917F91CD
:1043F0006F915F914F913F912F910F900FBE0F9052
:104400001F9018951F920F920FB60F9211248F9341
:104410009F93AF93BF93EF93FF938091E70288231D
:1044200009F452C08091E3029091E402A091E50268
:10443000B091E602892B8A2B8B2BA1F19091F80287
:10444000E091F902F091FA028081892780838091BE
:10445000E3029091E402A091E502B091E602181601
:1044600019061A061B069CF48091E3029091E4025F
:10447000A091E502B091E6020197A109B1098093EC
:10448000E3029093E402A093E502B093E602FF9169
:10449000EF91BF91AF919F918F910F900FBE0F90B1
:1044A0001F9018951092E70280916F008D7F809386
:1044B0006F008091F802E091F902F091FA02908188
:1044C000809589238083E3CF9091F802E091F902EF
:1044D000F091FA0280818927F5CFE3E2F3E01382BD
:1044E000128288EE93E0A0E0B0E084839583A683F7
:1044F000B78381E391E0918380838FEF9FEF95876E
:104500008487E3E7F3E0138212828CE3868380E101
:1045100081871086178216861786108A118A128A5A
:10452000109288071092870710928A0710928907C5
:1045300081E080938B0723E431E0318320838093F3
:104540008D0710928E070895789483E084BD83E0F0
:1045500085BD81E080936E00E1E8F0E083E0808338
:10456000E0E881E08083E1E983E08083E0E981E0C5
:104570008083E1EC87E08083E3EC81E08083E0EC02
:1045800082E08083E2EC81E08083EAE787E0808359
:104590008068808310921B0310920B0310920D030E
:1045A0008091D70081608093D70080EA8093D80003
:1045B00089B5806189BD89B5826089BD09B400FE75
:1045C000FDCF0E94590A8091D8008F7C8061809332
:1045D000D8008091E000807F8093E0008091E1002E
:1045E0008E7E8093E1008DE08093E200559A209AC0
:1045F000CFB7F8948091FB02811127C0EFEBFFE069
:104600008491E2E9FFE09491E82FF0E0EE0FFF1FC4
:10461000E759F04FA591B491EC91E92321F461E0C1
:1046200081E10E94CE0C61E081E10E943F0D8CB5DA
:1046300080618CBD8CB580648CBD61E08FE00E9490
:104640003F0D61E080E10E943F0D8091FB028F5F92
:104650008093FB02CFBFCDECDFE0BE01FE01849171
:104660006F5F7F4F2296FB016491882319F00E94AF
:104670003F0DF3CF61E082E00E94CE0C61E070E07C
:1046800080E090E00E941E0E60E082E00E94CE0C6E
:104690006AE070E080E090E00E941E0E61E082E03F
:1046A0000E94CE0C8FEA9FE0FC012491E22FF0E003
:1046B000EE0FFF1FE056F04F25913491E2E8FFE046
:1046C0002491FC018491E82FF0E0EE0FFF1FE056EB
:1046D000F04FA591B4918C91E22FE095E823EC93F3
:1046E000E2EBFFE0E491F0E0EE0FFF1FE056F04F49
:1046F000859194919093FE028093FD02E5E8FFE09E
:10470000E491E093FC028CB58C7F8CBD8DB581600B
:104710008DBD0E94490EE7E7FFE081E89FE024910C
:104720002EBD00000DB407FEFDCF2EB531968E17BD
:104730009F07A9F70E94540E8091640081608093C6
:1047400064008091640082608093640080916400C2
:10475000806880936400809164008064809364002A
:10476000809165008160809365000E94360E87FF0E
:1047700022C00E94490E85EA8EBD00000DB407FEDE
:10478000FDCF8EB50E94540E70E060E08AE00E947A
:104790007B0D70E060E083E00E947B0D70E060E0E4
:1047A00089E00E947B0D80916400806280936400A8
:1047B0000E943E0EFDCF80911C03823091F0E82FC5
:1047C000F0E0E959F04FC4918F5F80931C0361E0E2
:1047D00085E00E943F0DC13009F461C0C33009F487
:1047E00080C061E086E00E943F0D82E090E00E9480
:1047F0003F26882309F4A2C080916500877F8093BB
:10480000650081E0809322038CE38093790380E14B
:1048100080937C0388E78093FF0296E0E92E20E1F5
:10482000D22E00E010E0CC24C3942FB7F8948091EE
:10483000000390910103A0910203B09103032FBFE5
:1048400020918503222391F020917D03F82FF21B04
:10485000F093860320917A0330917B032F5F3F4FC3
:1048600030937B0320937A03109285034091810358
:10487000509182036091830370918403841795079C
:10488000A607B7070CF062C0481B423010F00E9428
:104890003E0E0115110549F20E940000C6CF10928C
:1048A0008000109281008091810088608093810057
:1048B00080918100816080938100E3EBFFE0E491CF
:1048C000F0E0EE0FFF1FE056F04F8591949190932A
:1048D000FA028093F902E6E8FFE0E491E093F8023F
:1048E00080CF10929000109291008091910088608A
:1048F0008093910080919100816080939100E3EB1F
:10490000FFE0E491F0E0EE0FFF1FE056F04F8591DD
:1049100094919093F7028093F602E6E8FFE0E49129
:10492000E093F50280911C03882321F06CE380E082
:104930000E945E0E80E00E94CF0E53CF10922203A1
:10494000809165008860809365005ECF20917C0334
:10495000AC01BD01420F511D611D711D40938103CA
:1049600050938203609383037093840380937D0349
:1049700090937E03A0937F03B0938003C09285033E
:104980008091900780938F070E94360E8093900746
:104990008091040390910503E89EF001E99EF00DDB
:1049A0001124EC5EFE4F0280F381E02D0995B82EB4
:1049B0008091040390910503E89EF001E99EF00DBB
:1049C0001124EC5EFE4F0480F581E02D099580EB0B
:1049D000F82EC7E8D3E00E94490EFEBC0DB407FED6
:1049E000FDCFDEBC0DB407FEFDCF0E94540ECE01FC
:1049F00080589F4F29912EBD0DB407FEFDCFC817DB
:104A0000D907C1F7F39438EBF312E5CFBB2009F4D3
:104A100040CF8091040390910503019791F081E0CC
:104A200090E09093050380930403E89EF001E99ED3
:104A3000F00D1124EC5EFE4F0190F081E02D099500
:104A400028CF82E090E0EDCF8F929F92AF92BF92FD
:104A5000CF92DF92EF92FF92CF93DF93EC016881C8
:104A600079818A819B81611571058105910521F408
:104A700064E279ED8BE597E02DE133EF41E050E022
:104A80000E947E2649015A019B01AC01A7EAB1E4CC
:104A90000E949D266B017C01ACEEB4EFA501940150
:104AA0000E94AB26DC01CB018C0D9D1DAE1DBF1DF0
:104AB000B7FF03C00197A109B04888839983AA83EF
:104AC000BB839F77DF91CF91FF90EF90DF90CF90E6
:104AD000BF90AF909F908F9008950E9424250895D5
:104AE0008CE091E00E9424250895B0E0A0E080933E
:104AF0000C0190930D01A0930E01B0930F01089546
:104B00008F929F92AF92BF92CF92DF92EF92FF92DD
:104B1000CF93DF93EC01688179818A819B81611554
:104B200071058105910521F464E279ED8BE597E04B
:104B30002DE133EF41E050E00E947E2649015A0109
:104B40009B01AC01A7EAB1E40E949D266B017C01A8
:104B5000ACEEB4EFA50194010E94AB26C60ED71EA1
:104B6000E81EF91EF7FE06C081E0C81AD108E10868
:104B700080E8F80AC882D982EA82FB82C701B601BE
:104B80009F77DF91CF91FF90EF90DF90CF90BF9014
:104B9000AF909F908F9008958F929F92AF92BF9207
:104BA000CF92DF92EF92FF9260911001709111010C
:104BB0008091120190911301611571058105910594
:104BC00021F464E279ED8BE597E02DE133EF41E0EC
:104BD00050E00E947E2649015A019B01AC01A7EAE0
:104BE000B1E40E949D266B017C01ACEEB4EFA501FF
:104BF00094010E94AB26C60ED71EE81EF91EF7FED2
:104C000006C081E0C81AD108E10880E8F80AC0921D
:104C10001001D0921101E0921201F0921301C7012C
:104C2000B6019F77FF90EF90DF90CF90BF90AF904D
:104C30009F908F900895609310017093110180935D
:104C40001201909313010895FB01DC0102C005904D
:104C50000D9241505040D8F70895FB01DC010590BA
:104C60000D920020E1F70895FC0161507040019021
:104C70000110D8F7809590958E0F9F1F0895F99990
:104C8000FECF92BD81BDF89A992780B50895A6E11F
:104C9000B0E044E050E00C947026A8E1B0E042E0BF
:104CA00050E00C947026262FF999FECF1FBA92BDC2
:104CB00081BD20BD0FB6F894FA9AF99A0FBE0196FD
:104CC0000895242F0E945426252F0E9454260C94C8
:104CD00069260E945326272F0C945426DC01CB0111
:104CE000FC01F999FECF06C0F2BDE1BDF89A3196FC
:104CF00000B40D9241505040B8F70895052E97FB2F
:104D00001EF400940E94952657FD07D00E94B026FD
:104D100007FC03D04EF40C949526509540953095A1
:104D200021953F4F4F4F5F4F089590958095709517
:104D300061957F4F8F4F9F4F08950E94D226A59F68
:104D4000900DB49F900DA49F800D911D1124089586
:104D5000B7FF0C949D260E949D26821B930B0895FD
:104D6000A1E21A2EAA1BBB1BFD010DC0AA1FBB1F6F
:104D7000EE1FFF1FA217B307E407F50720F0A21BE1
:104D8000B30BE40BF50B661F771F881F991F1A944E
:104D900069F760957095809590959B01AC01BD0178
:104DA000CF010895A29FB001B39FC001A39F700DD2
:104DB000811D1124911DB29F700D811D1124911D23
:104DC00008955058BB27AA270E94F9260C9408285A
:104DD0000E94CF2738F00E94D62720F039F49F3F59
:104DE00019F426F40C94CC270EF4E095E7FB0C9410
:104DF000C627E92F0E942D2858F3BA1762077307B8
:104E00008407950720F079F4A6F50C944F280EF44A
:104E1000E0950B2EBA2FA02D0B01B90190010C01CA
:104E2000CA01A0011124FF27591B99F0593F50F4E2
:104E3000503E68F11A16F040A22F232F342F44273A
:104E4000585FF3CF469537952795A795F040539532
:104E5000C9F77EF41F16BA0B620B730B840BBAF002
:104E60009150A1F0FF0FBB1F661F771F881FC2F76D
:104E70000EC0BA0F621F731F841F48F48795779581
:104E80006795B795F7959E3F08F0B0CF9395880F3B
:104E900008F09927EE0F9795879508950E94DF27D0
:104EA000E3950C9419280E945A276894B1110C9428
:104EB000502808950E94352888F09F5798F0B92F00
:104EC0009927B751B0F0E1F0660F771F881F991F3F
:104ED0001AF0BA95C9F714C0B13091F00E944F286A
:104EE000B1E008950C944F28672F782F8827B85F7A
:104EF00039F0B93FCCF3869577956795B395D9F797
:104F00003EF490958095709561957F4F8F4F9F4FA0
:104F10000895E89409C097FB3EF4909580957095AC
:104F200061957F4F8F4F9F4F9923A9F0F92F96E9F5
:104F3000BB279395F695879577956795B795F1116A
:104F4000F8CFFAF4BB0F11F460FF1BC06F5F7F4F07
:104F50008F4F9F4F16C0882311F096E911C0772319
:104F600021F09EE8872F762F05C0662371F096E822
:104F7000862F70E060E02AF09A95660F771F881FF1
:104F8000DAF7880F9695879597F9089597F99F67AF
:104F900080E870E060E008959FEF80EC08950024C1
:104FA0000A941616170618060906089500240A948E
:104FB000121613061406050608950C94CC270E94B9
:104FC0003528D8F3E894E0E0BB279F57F0F02AEDAE
:104FD0003FE049EC06C0EE0FBB0F661F771F881F2E
:104FE00028F0B23A62077307840728F0B25A620BBE
:104FF000730B840BE3959A9572F7803830F49A9589
:10500000BB0F661F771F881FD2F790480C94C528E6
:10501000092E0394000C11F4882352F0BB0F40F4C6
:10502000BF2B11F460FF04C06F5F7F4F8F4F9F4F06
:105030000895EF93E0FF07C0A2EA2AED3FE049ECB4
:105040005FEB0E94F9260E9408280F90039401FC50
:105050009058ECEAF0E00C94D12857FD9058440F9A
:10506000551F59F05F3F71F04795880F97FB991FC7
:1050700061F09F3F79F08795089512161306140684
:10508000551FF2CF4695F1DF08C016161706180611
:10509000991FF1CF86957105610508940895E894EC
:1050A000BB2766277727CB0197F908950E946928C7
:1050B0000C9408280E94CF2738F00E94D62720F0B1
:1050C000952311F00C94C6270C94CC2711240C9432
:1050D00050280E942D2870F3959FC1F3950F50E042
:1050E000551F629FF001729FBB27F00DB11D639F9A
:1050F000AA27F00DB11DAA1F649F6627B00DA11D40
:10510000661F829F2227B00DA11D621F739FB00DE5
:10511000A11D621F839FA00D611D221F749F332755
:10512000A00D611D231F849F600D211D822F762FEE
:105130006A2F11249F5750409AF0F1F088234AF0CB
:10514000EE0FFF1FBB1F661F771F881F9150504037
:10515000A9F79E3F510580F00C94C6270C94502867
:105160005F3FE4F3983ED4F3869577956795B795BE
:10517000F795E7959F5FC1F7FE2B880F911D9695D8
:10518000879597F908959F3F31F0915020F48795C6
:1051900077956795B795880F911D9695879597F99F
:1051A00008959F938F937F936F93FF93EF939B014A
:1051B000AC010E945628EF91FF910E94E5282F91A3
:1051C0003F914F915F910C945628DF93CF931F939B
:1051D0000F93FF92EF92DF927B018C01689406C0DF
:1051E000DA2EEF010E946928FE01E894A59125912D
:1051F000359145915591A6F3EF010E94F926FE01E4
:105200009701A801DA9469F7DF90EF90FF900F9172
:105210001F91CF91DF91089597FB072E16F400940C
:1052200007D077FD09D00E94262907FC05D03EF45F
:10523000909581959F4F0895709561957F4F089542
:10524000EE0FFF1F0590F491E02D0994AA1BBB1BE4
:1052500051E107C0AA1FBB1FA617B70710F0A61B76
:10526000B70B881F991F5A95A9F780959095BC0197
:10527000CD010895AEE0B0E0E0E4F9E20C94DE2B5D
:105280000D891E8986E08C831A8309838FEF9FE73F
:105290009E838D83AE01475E5F4F6F89788DCE010F
:1052A00001960E945D292F813885020F131FF80196
:1052B00010822E96E4E00C94FA2BABE0B0E0E3E62B
:1052C000F9E20C94D02B7C013B018A01FC0117828E
:1052D0001682838181FFC8C1CE0101965C01F7016E
:1052E0009381F30193FD859193FF81913F01882381
:1052F00009F453C1853239F493FD859193FF81916F
:105300003F01853229F4B70190E00E94422BE7CF9C
:10531000912C212C312CFFE1F31538F08B3211F157
:1053200090F4803209F1833229F137FC3CC020ED42
:10533000280F2A3050F536FE20C08AE0989E200DB6
:105340001124922E06C08D3291F0803371F768944B
:1053500030F8F30193FD859193FF81913F01811115
:10536000DACF21C0689431F8689432F8F2CF6894AB
:1053700033F8EFCF689434F8ECCFEAE02E9E200D9E
:105380001124222E689435F8E4CF8E3229F436FCAD
:1053900004C1689436F8DDCF8C3619F4689437F878
:1053A000D8CF8836B1F2982F9F7D95549330E0F096
:1053B0008336A1F18337C1F1833509F063C0280139
:1053C000F2E04F0E511CF801C080D180692D70E0D1
:1053D00036FC02C06FEF7FEFC6010E94372B4C01F5
:1053E000689437F882010AC00C5F1F4FFFE3F9830E
:1053F00088248394912C6501E89437F833FE2DC0FE
:10540000522C8114910471F5552009F468CFB7012D
:1054100080E290E00E94422B5A94F6CFF8018081FE
:1054200089830E5F1F4FE4CF2801F2E04F0E511C1D
:10543000F801C080D180692D70E036FC02C06FEFAA
:105440007FEFC6010E9434264C018201D5CFB701FF
:1054500080E290E00E94422B2A942814190409F05B
:10546000B0F7CECFF60137FC859137FE81916F0101
:10547000B70190E00E94422B51105A94F1E08F1A2C
:105480009108BFCF843619F0893609F077C0F8014A
:1054900037FE6BC060817181828193810C5F1F4FE9
:1054A000F32DFF763F2E97FF09C09095809570955C
:1054B00061957F4F8F4F9F4F689437F82AE030E017
:1054C000A5010E94722BC82ECA188C2C432C36FEC4
:1054D0000CC0E89440F8C91440F434FE05C032FC16
:1054E00003C0F32DFE7E4F2E892C44FE95C0FE0195
:1054F000EC0DF11D8081803309F087C0242D297EB9
:10550000422E842D8870582E43FC95C040FE8FC0DB
:105510009C2C821418F42C0C922C981844FE91C0E8
:10552000B70180E390E00E94422B42FE09C088E769
:1055300090E041FE02C088E590E0B7010E94422B56
:10554000C91408F48AC0CA94D12C9FEFC91AD90A89
:10555000CA0CDB1CF60182916F01B70190E00E943A
:10556000422BAC14BD04B1F74FCF60817181072E7F
:10557000000C880B990B0E5F1F4F92CFD32CE89431
:10558000D4F82AE030E0853739F1232D297FD22E57
:105590008F3601F148F48835A9F0F70186819781AB
:1055A0002B96E2E10C94EC2B803749F08837A9F771
:1055B000D4FE02C06894D2F820E130E00DC06894B7
:1055C000D4F8F6CF34FE03C0822F8660D82E20E1B7
:1055D00032E002C028E030E0F801D7FE0FC0608161
:1055E0007181828193810C5F1F4FA5010E94722BF4
:1055F000C82ECA183D2CE89437F867CF60817181B6
:1056000090E080E00E5F1F4FF0CF42FC02C0839419
:1056100078CF8394839475CF842D867809F471CFE5
:10562000F6CFB70180E290E00E94422B839482146F
:10563000C0F3512C73CF522C5818821408F46ECF3B
:10564000F8CF842D867809F47BCF8BE241FE80E28F
:1056500047FC8DE2B70190E071CFB70180E390E0A5
:105660000E94422B9A946CCF8FEF9FEF99CFFC0151
:105670000590615070400110D8F7809590958E0F7D
:105680009F1F08950F931F93CF93DF93182F092F18
:10569000EB018B8181FD09C01FEF0FEF812F902F50
:1056A000DF91CF911F910F91089582FF14C02E8139
:1056B0003F818C819D81281739073CF4E881F9816D
:1056C000CF0101969983888310838E819F810196F3
:1056D0009F838E83E3CFE885F985812F0995892BF8
:1056E000A1F3DACFFA01AA27283051F1203181F154
:1056F000E8946F936E7F6E5F7F4F8F4F9F4FAF4FDA
:10570000B1E03ED0B4E03CD0670F781F891F9A1FEC
:10571000A11D680F791F8A1F911DA11D6A0F711DA0
:10572000811D911DA11D20D009F468943F912AE0AC
:10573000269F11243019305D3193DEF6CF01089594
:10574000462F4770405D4193B3E00FD0C9F7F6CFC5
:10575000462F4F70405D4A3318F0495D31FD40528D
:10576000419302D0A9F7EACFB4E0A6959795879523
:1057700077956795BA95C9F7009761057105089502
:105780009B01AC010A2E06945795479537952795AE
:10579000BA95C9F7620F731F841F951FA01D089546
:1057A0002F923F924F925F926F927F928F929F9231
:1057B000AF92BF92CF92DF92EF92FF920F931F931F
:1057C000CF93DF93CDB7DEB7CA1BDB0B0FB6F894D0
:1057D000DEBF0FBECDBF09942A88398848885F8410
:1057E0006E847D848C849B84AA84B984C884DF8081
:1057F000EE80FD800C811B81AA81B981CE0FD11D65
:105800000FB6F894DEBF0FBECDBFED010895F8943A
:02581000FFCFC8
:10581200FFFFFFFF00E100000000000001000000A8
:10582200010000009C0CF410D2123419B91ADB13D7
:105832003D1A9B1B371600C180810000000000004A
:1058420000560BD50A770B6C0BBD0B7B0B990B002B
:105852000000006211A10C3B133A132535640027A6
:0658620025303264220033
:00000001FF
