:100000000C94C4060C94EC060C94EC060C94EC06D0
:100010000C94EC060C94EC060C94EC060C94EC0698
:100020000C94EC060C94EC060C94A6170C94151882
:100030000C94EC060C94EC060C94EC060C94EC0678
:100040000C94EC060C94E91A0C94EC060C94EC0657
:100050000C94EC060C94EC060C94EC060C94471AE9
:100060000C94EC060C94EC060C94EC060C94EC0648
:100070000C94EC060C94EC060C94EC060C94EC0638
:100080000C94911A0C94EC060C94EC060C94EC066F
:100090000C94EC060C94EC060C94EC060C94EC0618
:1000A0000C94EC060C94EC060C94EC0607070790F5
:1000B00037911300478000478190430047800047F5
:1000C000903E0047800047903B0047800005901419
:1000D0009138004781004780904400478000479056
:1000E0003F00478000479020913C004781004191AC
:1000F00013000580003B0047819043004780004784
:10010000903E004D800041903B004D800005903FA7
:10011000911E0047809040004181809041004D91A8
:10012000408000418100119043911F00948081F034
:10013000FF0101410101C94141C901014901017F9B
:1001400040407F0101490101C94141C90101490103
:1001500001C94141494141494141C90101490101A7
:10016000FF0000FF0000000000FF0000FF01014948
:100170000101C94141494141494141C90101490187
:1001800001C94141C901014901017F40407F01018D
:10019000490101C94141C90101410101FF000000BC
:1001A000000000000000000000000000000000004F
:1001B000FF0000920000FF0000FF0000920000F22C
:1001C00090909290909290909F8080FF000092007B
:1001D00000FF8080808080808080FF00009200008F
:1001E000FF8080FF0000000000FF8080FF00009281
:1001F0000000FF8080808080808080FF000092006F
:1002000000FF80809F9090929090929090F20000DA
:10021000920000FF0000FF0000920000FF000000BD
:1002200000000000000000000000000000000000CE
:10023000FF0000240000FF00003F20202420202495
:100240002020E40000240000E42020E4000024003A
:1002500000E42020242020242020E40000040000CA
:10026000E02020202020202020202020E00000046A
:100270000000E42020242020242020E4000024008A
:1002800000E42020E40000240000E42020242020BA
:100290002420203F0000FF0000240000FF00000099
:1002A000000000000000000000000000000000004E
:1002B000FF0000490000C9414149414149414149CC
:1002C00041414940404940407F0000FF0000490053
:1002D00000FF0000000000000000FF000000000020
:1002E000FF0000000000000000000000FF00000010
:1002F0000000FF0000000000000000FF00004900B7
:1003000000FF00007F404049404049414149414190
:10031000494141494141C90000490000FF00000036
:1003200000000000000000000000000000000000CD
:10033000FF000092000093828292828292828292D7
:100340008282920202920202FE0000FF00009200EE
:1003500000FF0000000000000000FF00000000009F
:10036000FF0000000000000000000000FF0000008F
:100370000000FF0000000000000000FF00009200ED
:1003800000FF0000FE0202920202928282928282AA
:10039000928282928282930000920000FF0000000D
:1003A000000000000000000000000000000000004D
:1003B000FF0000240000FF0000FC040424040424C7
:1003C0000404270000240000270404270000240060
:1003D000002704042404042404042700002000004F
:1003E00007040404040404040404040407000020B3
:1003F000000027040424040424040427000024002B
:100400000027040427000024000027040424040417
:10041000240404FC0000FF0000240000FF00000092
:1004200000000000000000000000000000000000CC
:10043000FF0000490000FF0000FF00004900004FDE
:100440000909490909490909F90101FF00004900A1
:1004500000FF0101010101010101FF00004900004D
:10046000FF0101FF0000000000FF0101FF00004943
:100470000000FF0101010101010101FF000049002D
:1004800000FF0101F909094909094909094F00005B
:10049000490000FF0000FF0000490000FF000000CD
:1004A000000000000000000000000000000000004C
:1004B000FF8080828080938282938080928080FE01
:1004C0000202FE808092808093828293808092805C
:1004D00080938282928282928282938080928080B4
:1004E000FF0000FF0000000000FF0000FF8080927E
:1004F0008080938282928282928282938080928094
:1005000080938282938080928080FE0202FE8080AF
:10051000928080938282938080828080FF0000009E
:1005200000000000000000000000000000000000CB
:1005300000000000003E5B4F5B3E3E6B4F6B3E1C7D
:100540003E7C3E1C183C7E3C181C577D571C1C5E94
:100550007F5E1C00183C1800FFE7C3E7FF0018246B
:100560001800FFE7DBE7FF30483A060E2629792915
:1005700026407F050507407F05253F5A3CE73C5A4A
:100580007F3E1C1C08081C1C3E7F14227F22145F27
:100590005F005F5F06097F017F006689956A606082
:1005A00060606094A2FFA29408047E040810207E7C
:1005B000201008082A1C08081C2A08081E10101001
:1005C000100C1E0C1E0C30383E3830060E3E0E0647
:1005D000000000000000005F00000007000700149A
:1005E0007F147F14242A7F2A122313086462364959
:1005F0005620500008070300001C22410000412241
:100600001C002A1C7F1C2A08083E08080080703045
:1006100000080808080800006060002010080402B4
:100620003E5149453E00427F4000724949494621BA
:1006300041494D331814127F1027454545393C4A2E
:100640004949314121110907364949493646494945
:10065000291E00001400000040340000000814228D
:1006600041141414141400412214080201590906FB
:100670003E415D594E7C1211127C7F494949363EFC
:10068000414141227F4141413E7F494949417F09E2
:100690000909013E414151737F0808087F00417FED
:1006A00041002040413F017F081422417F404040EB
:1006B000407F021C027F7F0408107F3E4141413E83
:1006C0007F090909063E4151215E7F091929462605
:1006D0004949493203017F01033F4040403F1F2009
:1006E00040201F3F4038403F6314081463030478E0
:1006F00004036159494D43007F4141410204081000
:1007000020004141417F040201020440404040403A
:10071000000307080020545478407F2844443838A8
:1007200044444428384444287F385454541800081A
:100730007E090218A4A49C787F0804047800447DF4
:1007400040002040403D007F1028440000417F4091
:10075000007C047804787C080404783844444438E5
:10076000FC1824241818242418FC7C0804040848C5
:100770005454542404043F44243C4040207C1C2016
:1007800040201C3C4030403C44281028444C909071
:10079000907C4464544C44000836410000007700CB
:1007A00000004136080002010204023C2623263CD8
:1007B0001EA1A161123A4040207A38545455592163
:1007C000555579412154547841215554784020544D
:1007D0005579400C1E527212395555555939545499
:1007E000545939555454580000457C410002457D08
:1007F000420001457C40F0292429F0F0282528F00A
:100800007C545545002054547C547C0A097F49325D
:10081000494949323248484832324A4848303A41D8
:1008200041217A3A42402078009DA0A07D3944447D
:1008300044393D4040403D3C24FF2424487E494308
:10084000662B2FFC2F2BFF0929F620C0887E090379
:1008500020545479410000447D413048484A3238A0
:100860004040227A007A0A0A727D0D19317D2629CC
:10087000292F28262929292630484D4020380808C4
:10088000080808080808382F10C8ACBA2F102834F8
:10089000FA00007B000008142A142222142A1408EB
:1008A0009500220095AA005500AAAA55AA55AA00AB
:1008B0000000FF00101010FF00141414FF001010AF
:1008C000FF00FF1010F010F0141414FC001414F7C3
:1008D00000FF0000FF00FF1414F404FC14141710B0
:1008E0001F10101F101F1414141F00101010F00000
:1008F0000000001F101010101F10101010F010003A
:100900000000FF101010101010101010FF10000049
:1009100000FF140000FF00FF00001F10170000FC84
:1009200004F414141710171414F404F40000FF0056
:10093000F714141414141414F700F71414141714DF
:1009400010101F101F141414F4141010F010F000E5
:10095000001F101F0000001F14000000FC14000006
:10096000F010F01010FF10FF141414FF14101010EA
:100970001F00000000F010FFFFFFFFFFF0F0F0F09D
:10098000F0FFFFFF0000000000FFFF0F0F0F0F0F31
:1009900038444438447C2A2A3E147E020206060269
:1009A0007E027E0263554941633844443C04407EE4
:1009B000201E2006027E020299A5E7A5991C2A495D
:1009C0002A1C4C7201724C304A4D4D3030487848E8
:1009D00030BC625A463D3E494949007E0101017ED4
:1009E0002A2A2A2A2A44445F444440514A44404027
:1009F000444A51400000FF0103E080FF0000080866
:100A00006B6B083612362436060F090F06000018E5
:100A1000180000001010003040FF0101001F01010C
:100A20001E00191D1712003C3C3C3C000000000059
:100A300006011501260137014A015D017201880195
:100A40009F01B801D201EE010B022A024B026E0295
:100A50009302BA02E40210033F037003A403DC0311
:100A6000170455049704DD0427057505C8052006FD
:100A70007D06E0064907B8072D08A9082D09B90920
:100A80004D0AEA0A900B400CFA0CC00D910E6F0F44
:100A90005A1053115B1272139A14D4152017801830
:100AA000F519801B231DDE1EB420A622B524E426E2
:100AB0003429A72B402E0031EA330037453ABC3D9C
:100AC00068414C456B49C84D68524F57805C006285
:100AD00010111213151617181A1C1D1F2123252774
:100AE000292C2E3134373A3E4145494E52575C62EB
:100AF000686E757B838B939CA5AFB9C4D0DCE9F796
:100B00000000000200090F0000030401000C0000B7
:100B1000000000000000000000000000000000F0E5
:100B2000F89C8E8783878E9CF8F00000FEFF0303FD
:100B3000030303070EFCF80000FEFF030303030397
:100B4000070EFCF80000FFFF00000000000000FF9F
:100B5000FF0000FEFF8383838383C7EE7C380000A1
:100B6000F8FC0E07030303070EFCF800003F7FE0CC
:100B7000C08080C0E07F3FFFFF0101010101010152
:100B8000FFFF0000FFFF0C0C0C0C1C3E77E3C100C4
:100B9000007FFFC0C0C0C0C0E0703F1F00001F3F0B
:100BA00070E0C0C0C0E0703F1F00007FFFC1C1C146
:100BB000C1C1E3773E1C00001F3F70E0C0C0C0E031
:100BC000703F1F000000000001FFFF010000000057
:100BD000000000240027002A002D0030008D14A101
:100BE000C881CFD9F102AF14021302120215020715
:100BF000020802040101010201000012905400C029
:100C000091580031800039905B004381003B916036
:100C1000007F80007281F0001290490058914A00D4
:100C200029800043904C0014810027914E003B80A6
:100C3000005B81F002050B050200279054007780CD
:100C4000001C9053005880002990520060800017CB
:100C5000905100658000149050004E80000A904F23
:100C60000043800021904E004E80001F904D004BAD
:100C700080002C904C005580000D904B005080005F
:100C80000A904A005880904900DD80F0000B904F98
:100C9000914B0117808100D6002390410023915190
:100CA000011D8100F480000590430023914F011D38
:100CB000810388800005F0080B0002020200000991
:100CC00004000001020200000524001001052401B7
:100CD0000101042402060524060001070581031012
:100CE000004009040100020A00000007050202405A
:100CF00000000705830240000004030904120100FC
:100D000002EF02014041233680000101020301414C
:100D1000726475696E6F204C4C4300414241313121
:100D2000303600040802011040804010204080400E
:100D30008008020401804020100201108010204031
:100D4000402000000000250028002B002E0031006C
:100D50000404040404030405020202020403020260
:100D60000202060606060606040402020204040342
:100D7000010701070704070505070707070705051A
:100D8000070707070107541B11241FBECFEFDAE046
:100D9000DEBFCDBF11E0A0E0B1E0E0E7F8E502C0C2
:100DA00005900D92A63AB107D9F727E0A6EAB1E07F
:100DB00001C01D92AF37B207E1F716E0C4ECD6E0F0
:100DC00004C02197FE010E941C2CC33CD107C9F727
:100DD0000E94D21B0C94362C0C9400000F931F938E
:100DE0000091490210914A0220914B0230914C022D
:100DF000DC01CB01800F911FA21FB31F809349021A
:100E000090934A02A0934B02B0934C02209172023D
:100E100021110DC080319742A105B10540F08091AC
:100E200055028F5F8093550281E0809372021F917B
:100E30000F9108952F923F924F925F926F927F92FF
:100E40008F929F92AF92BF92CF92DF92EF92FF92DA
:100E50000F931F93CF93DF93CDB7DEB72A970FB6CB
:100E6000F894DEBF0FBECDBF822E912C9401280FC7
:100E7000391F37FDF6C0803891050CF0F2C09B0198
:100E8000200F311D37FDEDC0603471050CF0E9C055
:100E9000DB0177FF04C0AA27BB27A61BB70BA770EF
:100EA000BB279B0177FF02C0295F3F4FF3E03595D9
:100EB0002795FA95E1F777FF08C02150310968E0DE
:100EC00070E0FB01EA1BFB0BDF01E02FE695E695E6
:100ED000E6952E2E312C077019F0FFEF2F1A3F0ADE
:100EE000BA01220E331EA9015695542F4427579557
:100EF0004795480F591FD12CC12CFA01ED58FD4FD1
:100F0000FA83E983FA01ED50FD4FFC83EB8348E05F
:100F100050E03A016A1A7B0A2216330609F4A1C08E
:100F20002830310509F49DC02F3FFFEF3F070CF437
:100F300058C049815A814C0D5D1D5E834D834B81A4
:100F40005C814C0D5D1D5A8749878C0150E040E063
:100F500017FD37C02F3F320709F47FC05A01A60E94
:100F6000B71EED81FE81F488F1E0EF1242C0F50179
:100F7000A490EA2D0A2E01C0EE0F0A94EAF7FE2A89
:100F8000ED81FE81F48A1097E1F027303105C9F038
:100F90002A01460E571EA984BA84A40EB51EF50177
:100FA000F488F1E0EF123EC0F2014490E42DF0E04D
:100FB000062C02C0F595E7950A94E2F7FE2AF501A2
:100FC000F48A4F5F5F4F0F5F1F4FED81FE813196B7
:100FD000FE83ED834815590524F40038110509F006
:100FE000B7CF2F5F3F4F680D791DF0E8CF0ED11CB2
:100FF00093CFF501E1100DC0A490EA2DF0E00A2E88
:1010000002C0EE0FFF1F0A94E2F7E095F095FE2272
:10101000B7CFA490EA2D0A2E01C0EE0F0A94EAF78A
:10102000FE26AECFF201E1100DC04490E42DF0E0B9
:10103000062C02C0F595E7950A94E2F7E095F09545
:10104000FE22BDCF4490E42DF0E0062C02C0F595C1
:10105000E7950A94E2F7FE26B2CF109709F098CFF1
:10106000B0CF2A960FB6F894DEBF0FBECDBFDF918A
:10107000CF911F910F91FF90EF90DF90CF90BF9095
:10108000AF909F908F907F906F905F904F903F9028
:101090002F90089590E0E7E8F2E091119FEF8FEF35
:1010A00091939193919391938150D0F708958F925A
:1010B0009F92AF92BF92CF92DF92EF920F93CF9316
:1010C000DF936091440270914502809146029091B5
:1010D00047020E94AE2A4B0160914002709141028A
:1010E00080914202909143020E94AE2ACB01E12CF2
:1010F00003E023E040E85DE0B4010E941A07C0E489
:10110000D2E08CE4C82E82E0D82E6E8D6150770B31
:101110008D8DE12C03E023E040E85DE08150990BE8
:101120000E941A072396CC16DD0679F7DF91CF913E
:101130000F91EF90DF90CF90BF90AF909F908F90E6
:101140000895E1E0F0E00E94B608319728F0685178
:101150007C4F8F4F9F4FF9CFAB01FC010E94B60827
:10116000641775078E079F07C8F30895A1ECB1E0D7
:101170002FB7F8947D918D919C9166B52FBFA89B58
:1011800005C06F3F18F47F5F8F4F9F4F22E0660FBF
:10119000771F881F991F2A95D1F70895FC01809128
:1011A000E801882311F13FB7F89482E08093E900C9
:1011B0002091F200822F90E01816190614F481E0B5
:1011C00090E0882339F0289844E64093E701409165
:1011D000F1004083222339F02091F200211103C055
:1011E0002BE62093E8003FBF08958FEF9FEF08950F
:1011F0002FB7F89483E08093E9009091E800892F5D
:10120000807295FF04C09091F20080E4891B2FBF8B
:1012100008958091DF0181110DC082E08093DB0190
:1012200084E08093DC011092DE011092DD0181E008
:101230008093DF018BED91E008958F929F92AF92A2
:10124000BF92CF92DF92EF92FF920F931F93CF93B3
:10125000DF936C017B018A0180910F01882309F4DF
:1012600058C08091E801882309F453C08091DA01C5
:1012700080FF05C08091E00082608093E000E8017B
:10128000B12C8AEFA82E93E0892E2AE3922E209784
:1012900011F4BB20B9F10E94F808811106C0AA948C
:1012A000AA20B9F10E94A108F2CF8C171D0611F0F7
:1012B0000CF08C2F9FB7F8948092E9002091E80001
:1012C00025FD02C09FBFE3CF282F30E0C21BD30B08
:1012D000F701815020F041914093F100FACFE20EE6
:1012E000F31EBB2021F09092E800B12CEBCF80914F
:1012F000E80085FDE7CF9092E800BB24B3942097E7
:1013000009F3F3CF5D9884E68093D9011016110696
:101310003CF081E090E0F6019383828310E000E0EE
:10132000C801DF91CF911F910F91FF90EF90DF9057
:10133000CF90BF90AF909F908F900895CF93DF9301
:101340001F92CDB7DEB76983DC01ED91FC9102807D
:10135000F381E02D41E050E0BE016F5F7F4F0995C2
:101360000F90DF91CF91089583E08093E900809101
:10137000F200882319F08AE38093E80008950E9420
:10138000F80890E00895CF93DF931F92CDB7DEB7B2
:10139000FC018485958597FD08C02FEF3FEF3587C9
:1013A00024870F90DF91CF910895CE0101960E947E
:1013B000CE08019719F4898190E0F3CF8FEF9FEF6A
:1013C000F0CF0F931F93CF93DF931F92CDB7DEB76C
:1013D0008C01FC018485958597FF0BC0CE01019699
:1013E0000E94CE08019771F4898190E0F8019587F9
:1013F0008487F801848595850F90DF91CF911F91A7
:101400000F9108958FEF9FEFF1CFFC0184859585B3
:1014100097FD0BC09FB7F89482E08093E90080911C
:10142000F2009FBF90E0019608959FB7F89482E084
:101430008093E9008091F2009FBF90E00895409171
:10144000D5015091D6012091D3013091D40142179A
:101450005307B4F49091E8009570E1F39091E8009F
:1014600092FD19C08093F1008091D5019091D60131
:1014700001968F739927892B19F48EEF8093E800DA
:101480008091D5019091D60101969093D6018093D9
:10149000D50181E0089580E00895EF92FF920F93C7
:1014A0001F93CF93DF93F82E192FE62E042F81E0A0
:1014B000860F880F0E941F0A83E00E941F0ACF2D0B
:1014C000D12FEC0EFD2EF11CCE15DF05B9F007FF74
:1014D00013C0FE0184910E941F0A182F80E00E9411
:1014E0001F0A812321968111EFCFDF91CF911F91A8
:1014F0000F91FF90EF9008958881EDCF81E0F5CFB7
:10150000DF92EF92FF920F931F93CF93DF93D82E2A
:101510008A01EB017B01E40EF51ECE15DF0559F0C3
:10152000D7FE12C0FE0184910E941F0A21968111EC
:10153000F4CF0FEF1FEFC801DF91CF911F910F91F3
:10154000FF90EF90DF9008958881EECF0F931F9367
:10155000CF93DF931F92CDB7DEB782E0898342E459
:1015600050E067EB7CE080E80E94800A0E94090955
:10157000DC0112960D911C910115110589F0D8011D
:10158000ED91FC910280F381E02DBE016F5F7F4FF2
:10159000C801099597FD04C0F80100851185ECCFBD
:1015A00089810F90DF91CF911F910F910895615024
:1015B00030F02091F100FC0120830196F8CF2898AB
:1015C00084E68093E70108950895AF92BF92CF9289
:1015D000DF92EF92FF920F931F93CF93DF936C01F3
:1015E0007B018B01040F151FEB015E01AE18BF08D4
:1015F000C017D10759F06991D601ED91FC91019086
:10160000F081E02DC6010995892B79F7C501DF919D
:10161000CF911F910F91FF90EF90DF90CF90BF90EF
:10162000AF900895282F30E0F901E050F54F9491E4
:10163000F901ED5DF24F8491205B324FF901249165
:10164000222309F430C09923E9F091509F30D0F45F
:10165000E92FF0E0E25DF44F0C941C2C5C0B600B66
:101660003D0B540B580B420B420B420B630B690BA7
:101670006D0B710B770B420B7B0B909180009F776A
:1016800090938000E22FF0E0EE0FFF1FEE5BF24F31
:10169000A591B4919FB7F894EC91611132C08095F7
:1016A0008E238C939FBF0895909180009F7DE8CFFB
:1016B00090918000977FE4CF94B59F7794BDE2CF5F
:1016C00094B59F7DFBCF909190009F779093900071
:1016D000D9CF909190009F7DF9CF90919000977F06
:1016E000F5CF9091C0009F779093C000CBCF9091A1
:1016F000C0009F7DF9CF9091C200977F9093C20068
:10170000C1CF8E2BCECFCF93DF9390E0FC01ED5D68
:10171000F24F2491805B924FFC0184918823C9F0A1
:1017200090E0880F991FFC01E153F44FA591B4910B
:10173000FC01EE5BF24FC591D49161110DC09FB7D2
:10174000F8948C91209582238C9388812823288378
:101750009FBFDF91CF910895623051F49FB7F89405
:101760003C91822F809583238C93E8812E2BEFCFA1
:101770008FB7F894EC912E2B2C938FBFEACF1F9349
:10178000CF93DF93182FEB0161E00E94830B20972A
:1017900039F460E0812FDF91CF911F910C94120BEF
:1017A000CF3FD10511F461E0F5CFE12FF0E0E0503B
:1017B000F54FE491E150EF3008F07FC0F0E0ED51DB
:1017C000F44F0C941C2CF20BFA0BFF0B090C130CAE
:1017D0005D0C5D0C5D0C1D0C270C310C3B0C480C9A
:1017E0005D0C500C84B5806884BDC7BDDF91CF917E
:1017F0001F91089584B5806284BDC8BDF7CF8091E4
:101800008000806880938000D0938900C093880016
:10181000EDCF80918000806280938000D0938B0018
:10182000C0938A00E3CF809180008860809380001D
:10183000D0938D00C0938C00D9CF809190008068A8
:1018400080939000D0939900C0939800CFCF80915F
:101850009000806280939000D0939B00C0939A0088
:10186000C5CF80919000886080939000D0939D00B8
:10187000C0939C00BBCF8091C00080688093C00063
:101880008091C0008F7B8093C000C093CF00AECF0B
:101890008091C00080628093C000C093D000A6CF2A
:1018A0008091C20088608093C2008091C2008B7FCB
:1018B0008093C200C093D20099CFC038D1050CF0FC
:1018C00072CF67CFAB01FC010E94B60841505109AD
:1018D000E109F10928F068517C4F8F4F9F4FF6CFF7
:1018E000AB01FC010E94B608641775078E079F07BD
:1018F000C8F308952FB7F8946091BD017091BE01AF
:101900008091BF019091C0012FBF08958F929F9247
:10191000AF92BF92CF92DF92EF92FF920F931F93FD
:10192000CF93DF93EC01162F20E030E0A90168810E
:1019300079818A819B810E94A92A882331F1C090F4
:101940006902D0906A02E0906B02F0906C0228EE7F
:10195000C21623E0D206E104F10424F56C817D81F6
:101960008E819F810E94AE2A4B01688179818A8194
:101970009B810E94AE2ACB01EE24E39403E023E096
:1019800043E85DE0B4010E941A07DF91CF911F91F7
:101990000F91FF90EF90DF90CF90BF90AF909F900E
:1019A0008F9008950E947A0C28EEC21A23E0D20A82
:1019B000E108F1086C157D058E059F0578F60E94FB
:1019C0007A0C24E630E040E050E00E940B2A6333BA
:1019D00071058105910510F61111C0CFD6CF8FB1D9
:1019E0008095807F669B88601C9B84600895E09151
:1019F000C701F091C80190818091C601809589232B
:101A0000808308950F931F93CF93DF93182FD92FBF
:101A1000C0EB00E10E94F70CCEBD0DB407FEFDCF78
:101A20000EBD0DB407FEFDCFE091C701F091C801D6
:101A300080819091C601892B8083E12FFD2FCF01FA
:101A400080589F4F21912EBD0DB407FEFDCF8E17FC
:101A50009F07C1F7182FD92FCF5FC83BD9F6DF9169
:101A6000CF911F910F910895CF92DF92EF92FF9245
:101A70000F931F93CF93E82FF0E0E159F24FC491F9
:101A8000E62FF0E0603398F5E053F54FE4910E2F28
:101A900010E0F12CE12C60E074E284EF90E0A7010B
:101AA00098010E94D929215031094109510991E039
:101AB0002115310581E0480751056CF060E970EDB2
:101AC00083E090E0A70198010E94D92921503109B3
:101AD0004109510993E0C13089F0C330F9F0CF9149
:101AE0001F910F91FF90EF90DF90CF900895EE0F30
:101AF000FF1FE053F64F05911491CBCF80918100E9
:101B0000887F892B809381003093890020938800FF
:101B100080916F00826080936F00E1CF809191008F
:101B2000887F892B809391003093990020939800AF
:101B30001093BA010093B90181E08093B8018091BC
:101B40007100826080937100CACFE82FF0E0E15904
:101B5000F24FE491E13019F0E33089F0089580917B
:101B60006F008D7F80936F008091EC01E091ED011B
:101B7000F091EE01908180958923808308951092E1
:101B8000B8018091E901E091EA01F091EB01F2CF17
:101B9000CF93DF939091EF01923081F0C82FE92F1E
:101BA000F0E0E159F24FD4919F5F9093EF0161E033
:101BB0000E94830BD13029F0D33049F1DF91CF91CE
:101BC00008951092800010928100809181008860B9
:101BD00080938100809181008160809381008C2FAF
:101BE00090E0FC01E05BF24FE491F0E0EE0FFF1FAC
:101BF000EE5BF24F259134913093EE012093ED018D
:101C00008D5D924FFC0184918093EC01D7CF1092AF
:101C100090001092910080919100886080939100D3
:101C2000809191008160809391008C2F90E0FC0165
:101C3000E05BF24FE491F0E0EE0FFF1FEE5BF24F3E
:101C4000259134913093EB012093EA018D5D924F01
:101C5000FC0184918093E9018091EF01882321F0B8
:101C60006CE380E00E94340D80E0DF91CF910C9412
:101C7000A50DE091CA01F091CB01BF016F5F7F4FCD
:101C80007093CB016093CA012491922F907F822F91
:101C90008F70903819F40E94A50DEBCF903981F424
:101CA0003296F093CB01E093CA01FB0164919091CD
:101CB000EF018917F0F667FDDCCF0E94340DD9CF14
:101CC000903E49F48091CC019091CD019093CB014D
:101CD0008093CA01CECF903F19F41092C9010895A4
:101CE00097FDC7CF3296F093CB01E093CA01FB0179
:101CF0006491A091B901B091BA01322F262F0E94B0
:101D00002D2A6C507E4F8F4F9F4F28EE33E040E0DE
:101D100050E00E940B2A2093B4013093B501409308
:101D2000B6015093B7018091B4019091B501A09193
:101D3000B601B091B701892B8A2B8B2B61F481E01E
:101D400090E0A0E0B0E08093B4019093B501A0933F
:101D5000B601B093B70108951092CE01E4E6F0E029
:101D6000808188608083E5E6F0E080818860808300
:101D70000895E4E6F0E08081877F8083E5E6F0E087
:101D80008081877F808381E08093CE0108956038D1
:101D90007105E8F440345105D0F4342F369536956A
:101DA0003695A0E83A9FF0011124E60FF71FE80FDF
:101DB000F91F3489CA018770992741E050E001C0BA
:101DC000440F8A95EAF7222319F0432B448B089598
:101DD00040954323FBCF2F923F924F925F926F9299
:101DE0007F928F929F92AF92BF92CF92DF92EF92AB
:101DF000FF920F931F93CF93DF9300D01F92CDB725
:101E0000DEB79B838A837B016A0109838901061BF4
:101E1000170B17FF03C011950195110956018A810F
:101E20009B81A81AB90AB7FE03C0B194A194B10866
:101E3000A016B1065CF49C2D8D2D6901292F382F39
:101E40009A818B81FB82EA82E92EF82E8A819B811E
:101E5000C816D9065CF49E2D8F2D7901292F382FB5
:101E60009A818B81DB82CA82C92ED82E16018A8183
:101E70009B81281A390A29014E185F0857FE03C0B2
:101E8000519441945108310137FE03C09FEF691A04
:101E9000790A759467948FEFE216F3060CF481E0EB
:101EA000882E880F99088A819B81C816D906DCF094
:101EB0002981AC01B701A016B1061CF0A7016A8107
:101EC0007B8183E792E00E94C70E6418750877FE55
:101ED00004C0E80CF91C620C731C8A819B8101967A
:101EE0009B838A83E0CF0F900F900F90DF91CF916B
:101EF0001F910F91FF90EF90DF90CF90BF90AF9028
:101F00009F908F907F906F905F904F903F902F9019
:101F100008954F925F926F927F928F929F92AF92AD
:101F2000BF92CF92DF92EF92FF920F931F93CF93C6
:101F3000DF93EC016CE271E080E090E00E94620CC3
:101F400000E412E0BE0190E080E00E94E42AF80183
:101F500024813581468157810E943D2A0E94AE2A04
:101F60006B01F80180809180A280B38020E030E096
:101F700040E450E4C501B4010E943D2A0E94AE2A0B
:101F80002B01C501B4010E94AE2ACB0100E09601ED
:101F9000A201B6010E94EB0E87E892E0DF91CF919B
:101FA0001F910F91FF90EF90DF90CF90BF90AF9077
:101FB0009F908F907F906F905F904F900C94020D48
:101FC0002F923F924F925F926F927F928F929F9249
:101FD000AF92BF92CF92DF92EF92FF920F931F9337
:101FE000CF93DF93CDB7DEB72D970FB6F894DEBF52
:101FF0000FBECDBF6A3069F5FC01EA5EFB4FDC0124
:10200000A85EBB4F2C9148E0249F90011124408191
:102010005181240F351F3183208314971D921C9208
:102020002D960FB6F894DEBF0FBECDBFDF91CF91D6
:102030001F910F91FF90EF90DF90CF90BF90AF90E6
:102040009F908F907F906F905F904F903F902F90D8
:1020500008956D3029F39D878C878C5E9B4F9A8302
:102060008983FC01808091802C853D85285E3B4FD3
:102070003C832B8330E8831691040CF071C0EC850F
:10208000FD85EA5EFB4F6080718040E46416710458
:102090000CF066C0AB81BC814C9045E09401449E3D
:1020A000200D311D1124121613060CF059C0242CDA
:1020B000312C910153E0220F331F5A95E1F7260D81
:1020C000371D121613060CF04BC0649FB00111248B
:1020D00010E000E0FB01E05DFA4FFB87EA87E0E0FB
:1020E000053029F0EA85FB85E00FF11FE4915301EB
:1020F00098E0592E2E2F30E03E832D83E170EF8340
:10210000F12CE12CE414D8F4C4018E0D9F1D9987A5
:102110008887D12CC12CC41470F4A6014A0D5B1D14
:102120002F81688579858C859D850E94C70E9FEFDC
:10213000C91AD90AF0CFAFEFEA1AFA0AE3CFED8154
:10214000FE81F595E7955A94A20CB31C5110D2CF9D
:102150000F5F1F4F820C931C0630110509F0BFCF93
:10216000EB81FC812081422F50E0A981BA818D91C1
:102170009C91B6E02B9F800D911D1124E981FA817D
:1021800091838083EC85FD85E75EFB4F20812223D0
:1021900009F446CF6AEF64039001659F300D112466
:1021A00020583F4F281739070CF03ACFAC85BD8532
:1021B000ED91FC9111970190F081E02D6AE0CD0145
:1021C0002D960FB6F894DEBF0FBECDBFDF91CF9135
:1021D0001F910F91FF90EF90DF90CF90BF90AF9045
:1021E0009F908F907F906F905F904F903F902F9037
:1021F0000994682F83E792E00C94E00F089590E033
:1022000080E00895CF92DF92EF92FF92CF93DF9319
:10221000EC0181E08093B301E1E8F0E08081887F08
:1022200081608083DE01AA0FBB1F9A01AB010E946F
:10223000F82928EE33E040E050E00E940B2A6901C3
:102240007A019E0150E040E060E072E18AE790E0B0
:102250000E94D9292150310941095109309389003F
:1022600020938800C092AF01D092B001E092B101FA
:10227000F092B201EFE6F0E0808182608083DF912E
:10228000CF91FF90EF90DF90CF900895603471056B
:1022900000F5462F477066956695669590E8699FAC
:1022A000B00111246D587D4F680F711DFB018489A9
:1022B00090E021E030E0042E02C0220F331F0A9488
:1022C000E2F78223932302C0959587954A95E2F71A
:1022D000089580E008956F927F928F929F92AF92BF
:1022E000BF92CF92DF92EF92FF920F931F93CF9303
:1022F000DF937901F9013297FE97A8F5622E742ECB
:102300005B016C01C42FD52F912C812C10E000E0D3
:10231000B8016E0D7F1DCE010E9446118823B1F0D9
:10232000870CF6018082060DF501008381E0DF91C4
:10233000CF911F910F91FF90EF90DF90CF90BF90C2
:10234000AF909F908F907F906F9008950F5F1F4F79
:1023500003301105E9F6FFEF8F1A9F0A219683E0FB
:102360008816910499F680E0E2CF0F931F93CF93E4
:10237000DF938C01EB012496BE0101970E94461168
:10238000811107C0BE01C80103960E94461191E069
:10239000811190E0892FDF91CF911F910F910895C6
:1023A0000F931F93CF93DF93EB018C010250110920
:1023B00061507109C8010E944611811108C0BE0117
:1023C0006D5F7F4FC8010E94461191E0811190E03E
:1023D000892FDF91CF911F910F9108950F931F9334
:1023E000CF93DF938C01EB012297BE0101970E94EE
:1023F0004611811107C0BE01C80103960E94461113
:1024000091E0811190E0892FDF91CF911F910F9181
:1024100008950F931F93CF93DF93EB018C010C5F13
:102420001F4F61507109C8010E944611811108C0F7
:10243000BE016D5F7F4FC8010E94461191E081117E
:1024400090E0892FDF91CF911F910F910895CF9246
:10245000DF92EF92FF920F931F93CF93DF93EC01E4
:102460008B017B0181E0E81AF1086E0183E0C80E60
:10247000D11CB701C6010E944611811121C00D5F18
:102480001F4FB801C6010E944611811119C0219742
:10249000B701CE010E944611811112C0B801CE01D0
:1024A0000E94461191E0811101C090E0892FDF91D7
:1024B000CF911F910F91FF90EF90DF90CF900895F3
:1024C00091E0F4CFEF92FF920F931F93CF93DF939E
:1024D0007C01EB01842FA901980186FF13C0F7014D
:1024E00060817181828193810E943D2AF70160831E
:1024F000718382839383DF91CF911F910F91FF901E
:10250000EF90089585FF08C0F70160817181828195
:1025100093810E943C2AEACF87FF0BC068817981B2
:102520008A819B810E943C2A688379838A839B836A
:10253000E2CF84FFE0CF688179818A819B810E940C
:102540003D2AF2CF8F929F92AF92BF92CF92DF92AD
:10255000EF92FF920F93CF93DF93EC01C880D98065
:10256000EA80FB8020E030E0A901C701B6010E94AB
:10257000A92A882351F16C817D818E819F810E94DF
:10258000AE2A4B01C701B6010E94AE2ACB01E12C55
:1025900003E023E04CEA50E0B4010E941A076D8585
:1025A000662399F04E8550E070E021E083E792E0E9
:1025B000DF91CF910F91FF90EF90DF90CF90BF9080
:1025C000AF909F908F900C94C70EDF91CF910F9199
:1025D000FF90EF90DF90CF90BF90AF909F908F9043
:1025E0000895CF93DF93E0E4F2E0168A148E138E01
:1025F000AAE7B7E01C9211961D921D921D921C92A3
:10260000149793E0958F968F81E0878F90A32CE3AA
:1026100021A382A339E633A394A385A336A327A3DA
:1026200080A711A612A613A614A6AEE8B6E088E706
:10263000ED0119928A95E9F710928D06148A80E0CF
:1026400090E0A0E0BFE3808B918BA28BB38B80E006
:1026500090E0A4E5B2E480839183A283B38380E019
:1026600090E0A0E3B2E484839583A683B783178ABE
:10267000108E118E128E15A61586108616A617A618
:1026800010AA11AADF91CF910895FC0101900020BA
:10269000E9F73197AF01481B590BBC0183E792E082
:1026A0000C94E50A8F929F92AF92BF920F931F9363
:1026B000CF93DF93CDB7DEB7A1970FB6F894DEBF07
:1026C0000FBECDBF19A2423008F44AE08E010F5D63
:1026D0001F4F842E912CB12CA12CA50194010E9496
:1026E0000B2AE62FB901CA01EA30F4F4E05DD80103
:1026F000EE938D01232B242B252B79F790E080E09E
:10270000109719F0CD010E944513A1960FB6F894C9
:10271000DEBF0FBECDBFDF91CF911F910F91BF9054
:10272000AF909F908F900895E95CE1CF009711F0F2
:102730000C94451390E080E008950F931F93CF937E
:10274000DF938C01D62FC42F85E090E0909388060C
:102750008093870630E030938A06209389066413BD
:1027600004C089E391E00E949613C8010E94961369
:10277000DC1308C08CE391E0DF91CF911F910F91A2
:102780000C949613DF91CF911F910F9108950E94A1
:102790004A0885E090E0909388068093870690939E
:1027A0008A06809389068FE391E00E94451388E4AE
:1027B00091E00E94451329E14091CF0160E08BE454
:1027C00091E00E949D1323E24091CF0161E080E5FA
:1027D00091E00E949D138091CE012DE24091CF01A6
:1027E00062E0882341F08CE591E00E949D1387E828
:1027F00092E00C94020D89E691E0F7CF8F929F92C0
:10280000AF92BF92CF92DF92EF92FF920F931F93FE
:10281000CF93DF93CDB7DEB7A1970FB6F894DEBFA5
:102820000FBECDBF80915602882381F010925602D0
:1028300080914802803209F4C8C0803809F4C8C0C9
:10284000803109F0C8C081E79DE013C08091480243
:10285000882361F30E947A0C24EF31E040E050E0DD
:102860000E940B2A6B3F710581059105F8F68AE7F6
:102870009DE090934F0280934E02C0904E02D09004
:102880004F026091440270914502809146029091FE
:1028900047020E94AE2A4B016091400270914102B2
:1028A00080914202909143020E94AE2ACB01EE2415
:1028B000E39403E023E0A601B4010E941A07E0E4D8
:1028C000CE2EE2E0DE2EF601878D882371F0668D34
:1028D0006150770B858DEE24E39403E023E040E81C
:1028E0005DE08150990B0E941A07F3E0CF0ED11CD6
:1028F0008CE4C81682E0D80631F709E710E0D12C45
:10290000C12C20E0A601B80183E792E00E94C70E27
:102910009FEFC91AD90AE0E4CE16D10491F70F5FF0
:102920001F4F0038110559F70DE610E077E3C72E69
:10293000D12C20E0A601B80183E792E00E94C70EE7
:10294000FFEFCF1ADF0A80E4C816D10491F70F5FBA
:102950001F4F0038110551F72091490230914A026A
:1029600040914B0250914C0219A28E010F5D1F4FF6
:102970006AE0C62ED12CE12CF12CCA01B901A701C5
:1029800096010E94D929605DF80162938F0121159B
:1029900031054105510589F7DD24D39499E7A92E26
:1029A000B12CF80181918F018823C1F0B092880683
:1029B000A09287062D2D30E030938A062093890659
:1029C000F8E0DF0E0E94F910ECCF87E79DE051CFD1
:1029D00084E79DE04ECF8DE79DE04BCFD12CC12CFD
:1029E0008EE6A82EB12C809155028730B8F4815024
:1029F000990BC816D906ACF4EE24E39403E023E067
:102A00004DE75DE06AE370E0C5010E941A0784E0CB
:102A1000A80EB11C9FEFC91AD90AE5CF85E090E056
:102A2000E8CFA1960FB6F894DEBF0FBECDBFDF9101
:102A3000CF911F910F91FF90EF90DF90CF90BF90BB
:102A4000AF909F908F900895CF92DF92EF920F9367
:102A5000CF93DF930E944A08EE24E39400E420E839
:102A600040E351E070E060E090E080E00E941A07EF
:102A70000E94FE13D0E0C0E0CC24C394D12C8091FE
:102A800000018C171D0689F084F0EE24E39404E025
:102A900025E044E35CE0B6018EE690E00E941A0770
:102AA00085E0C80ED11C2196EACFDF91CF910F911E
:102AB000EF90DF90CF9008958F929F92AF92BF9248
:102AC000EF92FF921F93CF93DF93CDB7DEB7A1971D
:102AD0000FB6F894DEBF0FBECDBF88E290E09093B2
:102AE00088068093870686E090E090938A0680931C
:102AF000890687E791E00E94961320914902309160
:102B00004A0240914B0250914C0219A210E07E0102
:102B100081E2E80EF11C8AE0882E912CA12CB12CC8
:102B20001F5FCA01B901A50194010E94D929605D06
:102B3000F70162937F01211531054105510581F7A8
:102B40002DEF2103C0011124C7969093880680932E
:102B5000870680E190E090938A06809389063097FB
:102B600019F0CF010E944513A1960FB6F894DEBF6D
:102B70000FBECDBFDF91CF911F91FF90EF90BF901F
:102B8000AF909F908F900895CF92DF92EF92FF9237
:102B9000CF93DF93EC01C98CDA8CEB8CFC8C0E9418
:102BA0007A0CC616D706E806F906F8F4888D811166
:102BB00024C00E947A0C6B017C010E946B2928EBD7
:102BC0003BE040E050E00E94D92968577C4E8F4F8F
:102BD0009F4FC60ED71EE81EF91EC98EDA8EEB8EE9
:102BE000FC8E888D91E08927888F888DDF91CF9129
:102BF000FF90EF90DF90CF9008950E947A0C6B01C8
:102C00007C010E946B2920ED37E040E050E00E94FB
:102C1000D92968517C4F8F4F9F4FDBCFCF93C82F5F
:102C20000E946B2922E030E040E050E00E94D92968
:102C3000C03211F0C03451F480E86115710551F0D3
:102C400080E16130710531F080E204C080E46130E0
:102C50007105D1F7CF910895CF93DF93EC010E94D6
:102C6000A2121D861D8A1C8A1F8A1E8A80E090E09F
:102C7000A0E0BFE389879A87AB87BC8780E090E0BC
:102C8000A4E5B2E488839983AA83BB836B8964300B
:102C900060F585E0689FB0011124072E000C880BB9
:102CA000990B0E94E62A20E030E048EB51E40E94B4
:102CB0003D2A6C837D838E839F8380E80E940E165D
:102CC0008887188E0E946B292CEA3DE040E050E096
:102CD0000E94D9296C507E4F8F4F9F4F698F7A8FFA
:102CE0008B8F9C8FDF91CF9108950E946B292FE0ED
:102CF00030E040E050E00E94D929CFCF4F925F9260
:102D00006F927F92BF92CF92DF92EF92FF920F93DA
:102D10001F93CF93DF93B82E84E080930101C6E028
:102D2000D7E084EFC82EDD24D394E12CF12C10E001
:102D300000E0809101018017110691F18CF1BB2018
:102D400049F01D86188219821A821B821C821D82FC
:102D50001E821F820B8BCE010E942C160E947A0CC1
:102D6000DC01CB018C0D9D1DAE1DBF1D8F87988B87
:102D7000A98BBA8B498C5A8C6B8C7C8C480E591E53
:102D80006A1E7B1E498E5A8E6B8E7C8E0F5F1F4F84
:102D90006D9680E2C80E83E0D81EE11CF11CC9CFFD
:102DA000DF91CF911F910F91FF90EF90DF90CF9027
:102DB000BF907F906F905F904F9008950C94CB29B7
:102DC0000C94C329CF92DF92EF92FF92CF93DF93BF
:102DD000809164008E7F8093640087EC80937C00F8
:102DE00080E280937B0062E070E080E090E00E94EF
:102DF000620C80917A00806480937A0080917A00DE
:102E000086FDFCCFE0907800F0907900E094F0949B
:102E10008EE580937C0062E070E080E090E00E94AC
:102E2000620C80917A00806480937A0080917A00AD
:102E300086FDFCCFC0907800D09079000E94B60843
:102E4000C094D094CE9CD001CF9CB00DDE9CB00D30
:102E500011249B01AC0120953095409550950E941E
:102E6000F8296B017C010E94B6086C0D7D1D8E1D3A
:102E70009F1D611571058105910511F00E94BA2908
:102E800080916400816080936400C3E0D0E0D093BF
:102E90000301C09302018FEA90E09093CD018093EB
:102EA000CC019093CB018093CA010E94390E81E03E
:102EB0008093C9010E94241587E892E00E94020DC8
:102EC00068EE73E080E090E00E94620C0E945C1566
:102ED0008EE190E090938806809387068EE290E0E2
:102EE00090938A06809389068EE791E00E9496135C
:102EF0006091000170E090E080E04AE00E9452138F
:102F000087E892E00E94020D6CED75E080E090E0B1
:102F10000E94620C0E9424156CE271E080E090E057
:102F20000E94620C0E94241581E00E947E1687E8B0
:102F300092E00E94020DD0930301C0930201DF9141
:102F4000CF91FF90EF90DF90CF9008951F920F9256
:102F50000FB60F9211248F939F938091E10090916F
:102F6000E100937F9093E10083FF0FC01092E9008E
:102F700091E09093EB001092EC0092E39093ED00BF
:102F80001092E80198E09093F00082FF22C093E055
:102F90009093E9009091F200992319F09AE39093AD
:102FA000E8009091D901992341F09091D901915075
:102FB0009093D901911101C05D9A9091E7019923F5
:102FC00041F09091E70191509093E701911101C078
:102FD000289A84FF18C08091E2008E7E81608093E1
:102FE000E2008091E1008F7E8093E1008091DA0120
:102FF0008E7E80618093DA019F918F910F900FBE3A
:103000000F901F90189580FFF7CF8091E2008E7E81
:1030100080618093E2008091E1008E7E8093E100E8
:103020008091DA018E7E8160E5CF1F920F920FB6FC
:103030000F921124CF92DF92EF92FF920F931F9382
:103040002F933F934F935F936F937F938F939F93B0
:10305000AF93BF93EF93FF93CF93DF93CDB7DEB7DB
:103060006C97DEBFCDBF1092E9008091E80083FF2E
:1030700025C068E0CE0145960E94D70A82EF809372
:10308000E8008D8987FF39C09091E80090FFFCCF60
:10309000982F907609F034C19E894F89588D2F89D9
:1030A000F88C911131C0803861F58091D8018093FE
:1030B000F1001092F1008EEF8093E8006C960FB64D
:1030C000F894DEBF0FBECDBFDF91CF91FF91EF919E
:1030D000BF91AF919F918F917F916F915F914F9130
:1030E0003F912F911F910F91FF90EF90DF90CF9024
:1030F0000F900FBE0F901F9018959EEF9093E800D1
:10310000C7CF1092F100D5CF913059F48111D3CFB0
:103110004130510581F68091D8018D7F8093D8018F
:10312000CACF933049F48111C6CF4130510519F609
:103130008091D8018260F2CF953041F48091E8000F
:1031400080FFFCCF20682093E300B5CF963009F0D4
:10315000A9C00B8D1C8D22E01092E9001092D601BF
:103160001092D501F2122EC01092D4011092D30108
:103170000E94A60A1F8299E09983FA8291E09E83B9
:1031800090EA98879AEF99872091D5013091D601DE
:10319000275F3F4F3C832B838D831092E900109271
:1031A000D6011092D5011093D4010093D30149E0C8
:1031B00050E0BE016F5F7F4F80E00E94800A0E9456
:1031C000A60A79CF1093D4010093D3010E94090974
:1031D000DC0112960D911C910115110509F451C1E4
:1031E000D801ED91FC910480F581E02DBE016B5E6C
:1031F0007F4FC8010995009709F03EC1F80100858D
:103200001185EACFF3E0FF120EC08F89882309F4FD
:1032100040C0823061F440E867E08BE19DE00E94AD
:103220004D0A811148CF81E28093EB0047CF813076
:1032300029F440E86BE08FE09DE0F1CF833099F70F
:103240000E940909DC011296ED90FC908E010F5F3F
:103250001F4F6801E114F10479F0D701ED91FC9161
:103260000680F781E02DB801C7010995080F111DEF
:10327000F701E084F184EECFD8011C92F6010190B1
:103280000020E9F73197BF016C197D0940E0C601C4
:10329000C6CF69EF7CE0FB01449150E080E80E94DA
:1032A000800A09CF973009F4BECF983021F481E02D
:1032B0008093F10000CF993009F0FDCE837009F0C2
:1032C000B2CFE5E1F1E081E031E096E32191222304
:1032D00071F08093E9003093EB00DF0111972C919E
:1032E0002093EC009093ED008F5F873079F78EE7A5
:1032F0008093EA001092EA008F898093E801DBCE88
:103300008B8D9C8D1092E9001092D6011092D50100
:103310009093D4018093D301898D811192C08E89BD
:103320009D89913A49F4813209F07DCF47E050E020
:1033300068E071E080E0B3CF913209F074CF83325E
:1033400069F48F89988DB0E0A0E080930401909398
:103350000501A0930601B0930701ADCE803269F458
:103360008091E80082FFFCCF67E088E091E00E9456
:10337000D70A8BEF8093E8009ECE823209F09BCE75
:103380008F8980930F01EEEFFFE7859194918B3F3A
:103390009C4D51F1E0E0F8E0809108019091090125
:1033A000A0910A01B0910B01803B9440A105B105A9
:1033B000F1F480910F0180FD1AC0EE3F8AE0F8071A
:1033C00089F587E797E791838083809160008093F8
:1033D000D70188E19BE00FB6F894A8958093600030
:1033E0000FBE9093600067CEEEEFFAE0D5CF8081FC
:1033F00091818737974709F05ECEA895809160004C
:103400008861809360008091D70180936000EE3FD7
:103410002AE0F20789F08091FE0A9091FF0A9183D9
:10342000808349CE808191818737980751F29093AC
:10343000FF0A8093FE0AC5CF1092FF0A1092FE0A7F
:103440003ACE0E940909DC0112960D911C910115DA
:10345000110509F4E8CED801ED91FC910190F081BD
:10346000E02DBE016B5E7F4FC8010995811123CE0F
:10347000F80100851185EBCF181619060CF41BCE48
:10348000D2CEF1E0FF12BECE6DEF7CE004CF0F9202
:103490000FB68F939F93EF93FF938091BC018D5F45
:1034A0008D3708F08D578093BC01EDEBF1E0808102
:1034B0008E4F808391819F4F918382818F4F828332
:1034C00083818F4F8383E1ECF1E080818F5F808384
:1034D00081818F4F818382818F4F828383818F4F40
:1034E00083838FB18F6066991C9B88278F3681F408
:1034F0008091BB01981B963068F0E0E0F8E087E728
:103500008083818388E180936000F0936000FFCF27
:103510009093BB01FF91EF919F918F910FBE0F9000
:1035200018951F920F920FB60F9211242F933F936D
:103530004F935F936F937F938F939F93AF93BF93BB
:10354000EF93FF938091B801882349F08091E901BE
:10355000E091EA01F091EB019081892780838091CD
:10356000C901882329F18091B4019091B501A091FE
:10357000B601B091B701892B8A2B8B2BC9F08091B2
:10358000B4019091B501A091B601B091B701019736
:10359000A109B1098093B4019093B501A093B6013C
:1035A000B093B701892B8A2B8B2B11F40E94390E13
:1035B000FF91EF91BF91AF919F918F917F916F910B
:1035C0005F914F913F912F910F900FBE0F901F90E1
:1035D00018951F920F920FB60F9211248F939F93FD
:1035E000AF93BF93EF93FF938091B301882309F4C6
:1035F00052C08091AF019091B001A091B101B09102
:10360000B201892B8A2B8B2BA1F19091EC01E091D7
:10361000ED01F091EE018081892780838091AF01D7
:103620009091B001A091B101B091B20118161906A4
:103630001A061B069CF48091AF019091B001A091F5
:10364000B101B091B2010197A109B1098093AF0115
:103650009093B001A093B101B093B201FF91EF91AB
:10366000BF91AF919F918F910F900FBE0F901F90C0
:1036700018951092B30180916F008D7F80936F0039
:103680008091EC01E091ED01F091EE019081809547
:1036900089238083E3CF9091EC01E091ED01F091DB
:1036A000EE0180818927F5CF1092F3011092F2018B
:1036B00088EE93E0A0E0B0E08093F4019093F501F0
:1036C000A093F601B093F7018FE191E09093F1019F
:1036D0008093F0018FEF9FEF9093FD018093FC01A9
:1036E000109276021092750281E391E09093740239
:1036F000809373028CE38093790280E180937C0253
:1037000010927B0210927A02109281021092820231
:103710001092830210928402109285021092880601
:103720001092870610928A061092890681E0809393
:103730008B0683E0809355021092490210924A0250
:1037400010924B0210924C02109272020E94F112DF
:10375000EEE8F6E088E7DF011D928A95E9F710921E
:103760008D06E6E0F7E01082118212821382148245
:10377000158216821782138A1786108A118A128A76
:10378000168615867D96B7E0EA37FB0761F710923B
:103790007A0710927B0710927C0710927D07109297
:1037A0007E070895CDB7DEB72C97DEBFCDBF7894E6
:1037B00083E084BD83E085BD81E080936E00E1E815
:1037C000F0E083E08083E0E881E08083E1E983E06A
:1037D0008083E0E981E08083E1EC87E08083E3ECB3
:1037E00081E08083E0EC82E08083E2EC81E0808312
:1037F000EAE787E08083806880831092E801109276
:10380000D8011092DA018091D70081608093D700AF
:1038100080EA8093D80089B5806189BD89B58260CE
:1038200089BD09B400FEFDCF0E94A1088091D80097
:103830008F7C80618093D8008091E000807F8093AE
:10384000E0008091E1008E7E8093E1008DE0809326
:10385000E200559A209A85E00E94C80D86E00E94F9
:10386000C80D1FB7F8948091C501811127C0E1E60A
:10387000FDE08491E4E3FDE09491E82FF0E0EE0FA9
:10388000FF1FE153F44FA591B491EC91E92321F48A
:1038900061E081E10E94120B61E081E10E94830BF3
:1038A0008CB580618CBD8CB580648CBD61E08FE08F
:1038B0000E94830B61E080E10E94830B8091C5012F
:1038C0008F5F8093C5011FBF07EE1BE0B801F801B1
:1038D00084916F5F7F4F0E5F1F4FFB0164918823C0
:1038E00019F00E94830BF2CF61E082E00E94120B7C
:1038F00061E070E080E090E00E94620C60E082E0B5
:103900000E94120B6AE070E080E090E00E94620C7E
:1039100061E082E00E94120B81E59DE0FC012491B0
:10392000E22FF0E0EE0FFF1FEE5BF24F2591349196
:10393000E4E2FDE02491FC018491E82FF0E0EE0F39
:10394000FF1FEE5BF24FA591B4918C91E22FE095B1
:10395000E823EC93E4E5FDE0E491F0E0EE0FFF1FD7
:10396000EE5BF24F859194919093C8018093C701CB
:10397000E7E2FDE0E491E093C6018CB58C7F8CBD5D
:103980008DB581608DBD0E94F70CEDEDFBE087EEFB
:103990009BE024912EBD00000DB407FEFDCF2EB597
:1039A00031968E179F07A9F7E091C701F091C801E2
:1039B00080819091C601892B808380916400816011
:1039C00080936400809164008260809364008091A1
:1039D00064008068809364008091640080648093B8
:1039E0006400809165008160809365000E94EF0C07
:1039F00087FF1AC080E294E01EBC00000DB407FEF1
:103A0000FDCF2EB50197C1F770E060E08AE00E941B
:103A1000BF0B70E060E083E00E94BF0B70E060E0ED
:103A200089E00E94BF0BFFCF6EEEC62EDD24DA9434
:103A3000B60169517F4F8AE00E94BF0B6FEF70E0C3
:103A400083E00E94BF0B6FEF70E089E00E94BF0B24
:103A50000E944A08EE24E39400E128E54FE15BE090
:103A6000B60184E190E00E941A0787E892E00E9484
:103A7000020D6BE170E080E090E00E94620CF0EFDC
:103A8000CF1206C06AEF70E080E090E00E94620C06
:103A90000FEFC01AD00A19E1C116D10449F66EEE33
:103AA00072E080E090E00E94620C6FEF70E08AE0CC
:103AB0000E94BF0B6FEF70E083E00E94BF0B6FEFBF
:103AC00070E089E00E94BF0B85E00E94C80D86E08F
:103AD0000E94C80D1092C90182E090E00E94E01699
:103AE00081110E94B90E8091CE01811108C00E94FF
:103AF000AC0E6091CE0182E090E00E94DE1688E27A
:103B00008093790289E180937C020E947A0C9B0168
:103B1000AB01BC0180918502882389F080917D02F0
:103B2000322F381B3093860280917A0290917B026B
:103B3000019690937B0280937A0210928502809185
:103B4000810290918202A0918302B0918402481771
:103B500059076A077B07A4F4821B823050F083B7B1
:103B6000817F83BF83B7816083BF889583B78E7F52
:103B700083BF80E090E0892B41F20E940000C5CF16
:103B800080917C028A019B01080F111D211D311DAE
:103B9000D901C8018093810290938202A09383028D
:103BA000B093840240937D0250937E0260937F0223
:103BB0007093800281E08093850280910201909150
:103BC00003018230910511F40C94D22708F05CC0F7
:103BD000019779F683E08093550210924902109282
:103BE0004A0210924B0210924C02109272020E94F2
:103BF000F1120E94C7131091CF010E94EF0C87FFB2
:103C000008C08FEF810F87FF02C00C943928809382
:103C1000CF010E94EF0C84FF0CC08091CF01082ED1
:103C2000000C990B019663E070E00E94082C8093D1
:103C3000CF010E94EF0C83FD02C00C944F280E941C
:103C4000C71344E150E060E070E08FE692E00E942C
:103C5000021168EC70E080E090E00E94620C8091BC
:103C6000CF01823011F00C9440288091CE0188233E
:103C700011F40C943C280E94AC0E6091CE0182E0BD
:103C800090E00E94DE1675CF8330910509F49DC047
:103C9000059709F06ECF0E944A0880E290E0909369
:103CA00088068093870610928A06109289068AE910
:103CB00091E00E94961300E911E0412C512C320151
:103CC00043942AE0E22EF12C38E1C32ED12CD0927D
:103CD0008806C0928706F0928A06E09289064AE03A
:103CE000C301B2010E945213C8010E94E016882E3F
:103CF000C80101960E94E0162FEF821204C08F3F88
:103D000011F40C946728982C882E092C000CAA0812
:103D1000BB08C80102960E94E016382E8093D0019D
:103D2000C80103960E94E0168093D101C801049651
:103D30000E94E0168093D20181149104A104B10481
:103D4000E9F080E390E09093880680938706F092F4
:103D50008A06E0928906832D0E94F9108091D10194
:103D60000E94F9108091D2010E94F91080E20E9415
:103D7000F9104AE0C501B4010E945213B8E0EB0EFD
:103D8000F11CEFEF4E1A5E0A6E0A7E0A0B5F1F4FA0
:103D9000FBE04F1651046104710409F098CF0E94B2
:103DA000EF0C83FD02C00C946C2881E090E09093AE
:103DB00003018093020144E150E060E070E08BE099
:103DC00092E00E9402110C945F280E945708E12C97
:103DD00004E025E044E35CE06CE270E084E390E022
:103DE0000E941A0756E0252E57E0352E8101F12C4E
:103DF000E12C809101018E151F0451F04CF0C80197
:103E00000E94A2122FEFE21AF20A035E1F4FF1CFB7
:103E10008091540281112BC10E94EF0C182FC09089
:103E20006902D0906A02E0906B02F0906C020E94EE
:103E30007A0C6C157D058E059F0528F5C0906E02E5
:103E4000D0906F02E0907002F09071020E947A0CA4
:103E5000C616D706E806F906B0F44EE150E060E079
:103E600070E080E293E00E9402110E947A0C645D8F
:103E70007E4F8F4F9F4F60936E0270936F028093BF
:103E8000700290937102111110934D02C090400284
:103E9000D0904102E0904202F0904302CD82DE8257
:103EA000EF82F8868090440290904502A0904602EE
:103EB000B090470289829A82AB82BC8210914D02F7
:103EC00080914802181709F450C016FF12C0C501AE
:103ED000B4010E94AE2A2B01C701B6010E94AE2A8E
:103EE000CB01B2010E940912882319F080E480936B
:103EF000480217FF12C0C501B4010E94AE2A2B016F
:103F0000C701B6010E94AE2ACB01B2010E94EE1198
:103F1000882319F080E88093480215FF12C0C5017C
:103F2000B4010E94AE2A2B01C701B6010E94AE2A3D
:103F3000CB01B2010E94D011882319F080E2809356
:103F4000480214FF12C0C501B4010E94AE2A4B0101
:103F5000C701B6010E94AE2ACB01B4010E94B5117F
:103F6000882319F080E180934802C0905702D090D6
:103F70005802E0905902F0905A020E947A0C6C1597
:103F80007D058E059F0508F0CCC08FE892ECA5EF6B
:103F9000BEE38093500290935102A0935202B093DB
:103FA0005302F09048026091440270914502809162
:103FB0004602909147020E94AE2A4B016091400256
:103FC0007091410280914202909143020E94AE2A78
:103FD0002B0180918D0690E045E0489FF001499FBC
:103FE000F00D1124E357F94F2181328101962415F8
:103FF000350509F09BC0238134818216930609F0B0
:1040000095C0489FF001499FF00D1124E357F94FE7
:10401000F082009150021091510220915202309191
:1040200053024F2DBE016F5F7F4FCE0105960E9458
:104030006212C980DA80EB80FC804D805E806F80E8
:104040007884C301B2010E94AE2A4B01C701B601B8
:104050000E94AE2AC4010E942712882309F47FC05F
:1040600080914D028093480281E0809356028091B6
:104070007A07882311F40C94B628209140023091DD
:104080004102409142025091430260E070E084E5B9
:1040900092E40E943C2A9F7720E030E040E050E428
:1040A0000E94A92A181614F40C94A5282091440201
:1040B00030914502409146025091470260E070E025
:1040C00080E392E40E943C2A9F7720E030E040E0C9
:1040D00050E40E94A92A181614F40C94A5288AEF1B
:1040E0009BE09093CD018093CC019093CB01809382
:1040F000CA010E94390E81E08093C90110927A07AB
:104100002091000188EE93E0289FB001299F700D57
:104110001124072E000C880B990B0E94EE060C94BC
:10412000B6288AE999E9A9E1BFE333CF68E170E0F5
:104130000E94082C80938D0625E0289FF001299F7E
:10414000F00D1124E357F94F528241829482838209
:104150000196289FF001299FF00D112457CF40921E
:10416000400250924102609242027092430220E06B
:1041700030E04CE752E4C701B6010E94962B1816B6
:104180000CF4F8C0C0924402D0924502E09246027C
:10419000F092470220E030E040E450EC60914402AD
:1041A0007091450280914602909147020E94A92A8F
:1041B00087FF0CC000E010E028E732E400934402DF
:1041C00010934502209346023093470260914402C7
:1041D0007091450280914602909147020E94AE2A5A
:1041E0009B01A401BE01675F7F4FCE010A960E942A
:1041F0006B118823E1F144E150E060E070E08BE076
:1042000092E00E9402110E947A0C68537F4F8F4FF8
:104210009F4F609357027093580280935902909376
:104220005A026AE070E080E090E00E94EE06809121
:104230005B0290915C02019690935C0280935B021A
:104240008634910519F08A3A910589F481E08093CA
:104250007A070E947A0C685D7C4D8F4F9F4F609368
:104260007B0770937C0780937D0790937E0700E423
:1042700012E048E1E42E4CEFF42ED8015F968C91C9
:104280005F978823C9F15D966C9170E090E080E0C3
:104290000E94E42A9B01AC016091400270914102AE
:1042A00080914202909143020E943C2A9F7720E035
:1042B00030E040E050E40E94A92A1816ECF0F80122
:1042C000668D70E090E080E00E94E42A9B01AC01E2
:1042D000609144027091450280914602909147029C
:1042E0000E943C2A9F7720E030E040E050E40E94AA
:1042F000A92A18160CF0F6C60D5F1F4FF2E00C3419
:104300001F0709F0BACF10914802609144027091E2
:10431000450280914602909147020E94AE2A4B01CD
:10432000609140027091410280914202909143025B
:104330000E94AE2A2B0180918D0690E045E0489FB7
:10434000F001499FF00D1124E357F94F218132818B
:10435000019624153505D9F42381348182169306FC
:10436000B1F4489FF001499FF00D1124E357F94F34
:1043700010837DCE80E090E0A0E0B0EC809344021A
:1043800090934502A0934602B093470203CF68E1A1
:1043900070E00E94082C80938D0625E0289FF00194
:1043A000299FF00D1124E357F94F528241829482E4
:1043B00083820196289FF001299FF00D1124D6CF0A
:1043C0008D829E82AF82B88649825A826B827C82BD
:1043D00020914002309141024091420250914302AB
:1043E000C501B4010E943C2A9F7720E030E040E004
:1043F00050E40E94A92A18160CF44EC020914402E1
:10440000309145024091460250914702C301B201EA
:104410000E943C2A9F7720E030E040E050E40E9478
:10442000A92A1816CCF14090690250906A02609057
:104430006B0270906C020E947A0C641575058605FB
:10444000970508F42AC181E08093540260914402E8
:104450007091450280914602909147020E94B52AD0
:10446000D62E60914002709141028091420290915B
:1044700043020E94B52AE6E0F7E090E080E025855F
:10448000621305C02685D21202C0168615860196D3
:104490007D96801791079CF369817A818B819C813D
:1044A0000E94AE2A4B018B016D817E818F819885A0
:1044B0000E94AE2A2B019B01EDE8F6E090E080E03F
:1044C0004181528101962417350709F06CC143815F
:1044D00054810417150709F066C145E0489FF001B3
:1044E000499FF00D1124E357F94FD080D70154961E
:1044F0008D919C9155972817390709F05BC1569605
:104500008D919C910817190709F054C140906902D8
:1045100050906A0260906B0270906C020E947A0C5C
:10452000641575058605970508F42BC249805A80E5
:104530006B807C806D817E818F8198850E94AE2A00
:104540006533710551F4C301B2010E94AE2A6C506B
:1045500071096532710508F014C2D70119960D91E1
:104560001D912D913C911C97D70118964C91BE013D
:104570006F5F7F4FCE0105960E946212DC2C69812D
:104580007A818B819C810E94AE2A2B016D817E8174
:104590008F8198850E94AE2ACB01B2010E9427121A
:1045A000882309F402C2F701448055806680778031
:1045B00020E030E0A901C301B2010E94962B181639
:1045C0000CF0F3C120E030E040E752E4C301B20157
:1045D0000E94A92A87FFE9C1C301B2010E94AE2A45
:1045E0008B01D7016D917D918D919C910E94AE2A96
:1045F000EDE8F6E090E080E02181328101966217DB
:10460000730709F0CCC1238134810217130709F025
:10461000C6C1B5E0B89FF001B99FF00D1124E35772
:10462000F94FD080D11005C0F70180850E940E1689
:10463000D82EF70180819181A281B3818D839E83E1
:10464000AF83B88784819581A681B78189839A8356
:10465000AB83BC8300E010E020E83FE34D2DBE01BA
:104660006F5F7F4FCE0105960E94621269817A8149
:104670008B819C810E94AE2A2B016D817E818F816E
:1046800098850E94AE2AD70155967C936E935497D5
:1046900057965C924E92569772CFE7E1FCE0F0930A
:1046A000CD01E093CC01F093CB01E093CA010E94CD
:1046B000390E81E08093C90161E0C7010E94860C38
:1046C0006CE771E080E090E00E94620C87E892E085
:1046D0000E94020DC7010E942C160E947A0C2B0129
:1046E0003C018090690290906A02A0906B02B090A9
:1046F0006C020E947A0CAB01BC01D70153962C913D
:10470000E4EFF1E02E9FC0012F9F900D1124092EA0
:10471000000CAA0BBB0B880D991DAA1DBB1D840D97
:10472000951DA61DB71D2C013D01441A550A660AA8
:10473000770AD7011F964D925D926D927C925297A7
:1047400059968D919D910D90BC91A02D840D951D34
:10475000A61DB71DF701818F928FA38FB48F609133
:104760006D026F5F60936D02F8EC6F9FB0011124D2
:10477000072E000C880B990B0E94EE0680916902AF
:1047800090916A02A0916B02B0916C0284589E4F86
:10479000AF4FBF4F8093690290936A02A0936B0260
:1047A000B0936C0243C535968831910509F088CEE7
:1047B000D12C9CCEF7018085B401803219F0803471
:1047C00009F063C0C2010E94EE11811107C0B4015B
:1047D000C2010E94B511882309F498CE0E946B296A
:1047E00023E030E040E050E00E94D929672B682B9D
:1047F000692B09F054C0D70114964D905D906D90CF
:104800007C90179720E030E040EA50E4C301B20109
:104810000E94962B18160CF079CE20E030E040E78D
:1048200052E4C301B2010E94A92A87FF6FCED110C2
:1048300061C0C7010E94C415882309F455C0F7015F
:104840008085803211F0803491F5D70114966D91F6
:104850007D918D919C9117970E94AE2A072E000C96
:10486000880B990B0E94E62A209144023091450260
:1048700040914602509147020E94962B30E8D32E79
:104880001816C4F190E1D92E35C0C2010E94D01192
:104890008111A4CFB401C2010E9409129CCFD11092
:1048A000AACFC7010E94C4158111A5CF2FCE608168
:1048B0007181828193810E94AE2A072E000C880BA1
:1048C000990B0E94E62A20914002309141024091CA
:1048D0004202509143020E94A92A20E4D22E87FD71
:1048E00009C080E2D82E06C0D70118968C910E948C
:1048F0000E16D82E69817A818B819C810E94AE2A06
:104900002B016D817E818F8198850E94AE2AF701EF
:10491000758B648B578A468A00E010E020E83FE3FD
:104920004D2DBE016F5F7F4FCE0105960E94621232
:1049300069817A818B819C810E94AE2A2B016D81D5
:104940007E818F8198850E94AE2ACB01B2010E94A0
:104950002712882351F1F70180819181A281B381CF
:104960008D839E83AF83B88784819581A681B7812B
:1049700089839A83AB83BC8380850E940E16D82ED0
:10498000CBCF2AE939E949E15FE3F7016185728517
:10499000838594850E949B2B8B019C01E5CD3596E8
:1049A0008831910509F028CE3FCEF701D0868D8160
:1049B0009E81AF81B88580839183A283B383498030
:1049C0005A806B807C8020E030E04CE752E4C301E9
:1049D000B2010E94962B1816D4F1D70114964D926D
:1049E0005D926D927C92179720E030E040E450ECAD
:1049F000F70164817581868197810E94A92A87FFCA
:104A00000BC000E010E028E732E4D70114960D93C4
:104A10001D932D933C931797F70116861586648195
:104A20007581868197810E94AE2A2B01D7016D91F5
:104A30007D918D919C910E94AE2A9201AB01B701AC
:104A4000625F7F4FC7010D960E946B11EFC300E0BC
:104A500010E020E030ECD70114960D931D932D93B8
:104A60003C931797C1CF0E94FE1380917A07882349
:104A700061F0EE24E39404E025E044E35CE06CE2C2
:104A800070E084E390E00E941A0710E000E080915B
:104A900001018017110659F054F060E0C1010E9435
:104AA000860C0F5F1F4F2DE1220E311CF0CF80913D
:104AB0005402882309F44DC289E39CE09093CD0110
:104AC0008093CC019093CB018093CA010E94390E50
:104AD00081E08093C90180915502815080935502F5
:104AE00010927A0790E080E00E94890F81E090E0C8
:104AF0000E94890F82E090E00E94890F8091550208
:104B000081115EC260E070E0CB010E94620C0E94E5
:104B10005C158EE190E0909388068093870683E28F
:104B200090E090938A068093890685E891E00E9440
:104B3000961387E892E00E94020D60ED77E080E036
:104B400090E00E94620C81E090E0909303018093DA
:104B50000201C0904902D0904A02E0904B02F090CE
:104B60004C02C114D104E104F10409F4F2C100E9DA
:104B700011E0512CC8010E94E016B82EC801019620
:104B80000E94E0163FEFB31203C08F3F09F4C8C084
:104B90009B2D21E0250DB0E0A0E08C159D05AE0514
:104BA000BF0508F006C20E944A0880E28093D00147
:104BB0008093D1018093D20110E070E1872E912C77
:104BC000E8E56E2E712CF4E1CF2ED12CA8E42A2E2C
:104BD000312CB1E2AB2E00E2B02E6FE3462E87E817
:104BE00092E00E94020D0E944A08909288068092EC
:104BF000870610928A06109289068FE891E00E943B
:104C00009613709288066092870610928A06109218
:104C100089066091490270914A0280914B029091FD
:104C20004C024AE00E94521388E390E09093880679
:104C300080938706D0928A06C09289068091D0011F
:104C40000E94F910A0E4B0E0B0938806A093870614
:104C5000D0928A06C09289068091D1010E94F910F3
:104C60003092880620928706D0928A06C0928906E2
:104C70008091D2010E94F91001E02BE130E04EE377
:104C800050E06BE170E088E390E00E94EB0E2BE1D6
:104C900030E046E450E06BE170E080E490E00E9498
:104CA000EB0E2BE130E04EE450E06BE170E088E485
:104CB00090E00E94EB0E00E02CE130E048E550E08F
:104CC0006CE170E088E390E00E94EB0E812F012EF2
:104CD000000C990B079653E0880F991F5A95E1F73E
:104CE000AC014A5F5F4F01E02CE130E06CE170E025
:104CF0000E94EB0E66E970E080E090E00E94620C9A
:104D00000E94EF0C85FF0FC0115008F488C04AEFD5
:104D100050E060E070E086E194E00E94021107C07C
:104D200090E080E036CF0E94EF0C82FDEDCF0E9434
:104D3000EF0C86FF0CC01F5F133008F072C04AEF03
:104D400050E060E070E086E194E00E9402110E9471
:104D5000EF0C84FF28C0812F012E000C990BFC0161
:104D6000E053FE4F7F0100810F5F00834AEF50E068
:104D700060E070E08BE092E00E940211003311F4D9
:104D8000D701BC92F7018081813211F401E40083E4
:104D9000D7018C918B3511F4E0E3EC93D7018C9122
:104DA000803409F4AC920E94EF0C87FF28C0812F59
:104DB000012E000C990BFC01E053FE4F7F01008196
:104DC000015000834AEF50E060E070E08BE092E039
:104DD0000E940211003211F4D7014C92F701808138
:104DE0008F3211F40AE50083D7018C918F3111F4D1
:104DF000EFE2EC93D7018C91803409F4BC920E94CD
:104E0000EF0C83FFECCE123074F41F5F4AEF50E0DA
:104E100060E070E086E194E00E940211DECE10E0D6
:104E200086CF12E094CF4AEF50E060E070E086E178
:104E300094E00E940211B5E05B9E800111240057AE
:104E40001E4FC8010E94E016682E4801EFEF8E1A2F
:104E50009E0AC4010E94E016FFEF6F1203C08F3F4D
:104E600009F4A4C0762C682E580122E0A20EB11CD1
:104E7000C5010E94E016282E680133E0C30ED11C44
:104E8000C6010E94E016382E780144E0E40EF11CC1
:104E9000C7010E94E016482E6091490270914A02B3
:104EA00080914B0290914C02672F782F892F992780
:104EB000C8010E94DE1660914902C4010E94DE16FC
:104EC0006091D001C5010E94DE166091D101C6013A
:104ED0000E94DE166091D201C7010E94DE16C30156
:104EE000B0E0A0E08093490290934A02A0934B0265
:104EF000B0934C022092D0013092D1014092D20165
:104F000053940B5F1F4F8AE058129BCF10924902B7
:104F100010924A0210924B0210924C0280E280934F
:104F2000D0018093D1018093D20185E090E09093ED
:104F300003018093020144E150E060E070E08BE007
:104F400092E00E9402116CE271E080E090E00E9429
:104F5000620C87E892E00E94020D80915B029091C2
:104F60005C02843F910510F40C94B91D8CE89CE020
:104F70009093CD018093CC019093CB018093CA0193
:104F80000E94390E81E08093C901809100018F5FFA
:104F9000809300016CEA7DE080E090E00E94620C6A
:104FA0000E94F1120E94E2160C94B91D712C612C22
:104FB0005BCF0B5F1F4F522E9AE02913DBCDBBCF87
:104FC00064EF71E080E090E00E94620C0E9457085C
:104FD0001092690210926A0210926B0210926C0297
:104FE000EEE8F6E088E7DF011D928A95E9F7109276
:104FF0008D061092540280E090E0A0E0BFE3809321
:10500000500290935102A0935202B093530280E059
:1050100090E0A4E5B2E48093400290934102A09313
:105020004202B093430280E090E0A0E3B2E48093B8
:10503000440290934502A0934602B0934702109217
:105040005702109258021092590210925A0210926E
:105050006D0210924D021092480210926E02109250
:105060006F02109270021092710280E00E947E1610
:1050700070CF82E00C94071E0E94B90E0C943D1E66
:10508000811108C082E090E09093030180930201B7
:105090000C94B91D813019F485E090E0F5CF809132
:1050A000CF01181711F40C94B91D0E94C71344E1E5
:1050B00050E060E070E08BE092E00E94021168EC4A
:1050C00070E080E090E00E94620C0C94B91D812C8D
:1050D000912C54010C94891E87E892E00E94020DE5
:1050E0000C94B91DD8015F961C9210926D020E941B
:1050F0007A0CAB01BC01209100012150330B2E9D95
:10510000C0012F9D900D3E9D900D11248837BCEE5F
:105110009B0714F488E79CEE8059984E092E000CEA
:10512000AA0BBB0B840F951FA61FB71F80936902A4
:1051300090936A02A0936B02B0936C0262E370E0FA
:1051400080E090E00E94EE06D7C8C0907B07D09028
:105150007C07E0907D07F0907E070E947A0CC616CF
:10516000D706E806F90610F410927A0786E0E82ED2
:1051700087E0F82E1C861B860091010110E02B852C
:105180003C85201731070CF06ECCD7011896CC90D7
:1051900018971F964D905D906D907C9052970E944D
:1051A0007A0C641575058605970508F435CCF7016A
:1051B00080809180A280B380448055806680778013
:1051C00020E030E044E552E4C501B4010E94A92A80
:1051D0008111F6C820E030E048E851E4C301B20193
:1051E0000E94962B18160CF0EBC820E030E04CE142
:1051F00052E4C301B2010E94A92A87FFE1C820E05E
:1052000030E040E85FE3C301B2010E943C2A0E9403
:10521000AE2A072E000C880B990B0E94E62AD701B4
:1052200014966D937D938D939C931797EB85FC85D6
:105230003196FC87EB87FDE1EF0EF11C9DCF8F923D
:105240009F92AF92BF92CF92DF92EF92FF92CF9355
:10525000DF93EC01688179818A819B8161157105F9
:105260008105910521F464E279ED8BE597E02DE16C
:1052700033EF41E050E00E94D92949015A019B01D6
:10528000AC01A7EAB1E40E94F8296B017C01ACEE05
:10529000B4EFA50194010E94062AC60ED71EE81E8F
:1052A000F91EF7FE06C081E0C81AD108E10880E8BF
:1052B000F80AC882D982EA82FB82C701B6019F77C9
:1052C000DF91CF91FF90EF90DF90CF90BF90AF90A4
:1052D0009F908F9008958F929F92AF92BF92CF929E
:1052E000DF92EF92FF926091100170911101809115
:1052F000120190911301611571058105910521F449
:1053000064E279ED8BE597E02DE133EF41E050E089
:105310000E94D92949015A019B01AC01A7EAB1E4D5
:105320000E94F8296B017C01ACEEB4EFA501940159
:105330000E94062AC60ED71EE81EF91EF7FE06C0FA
:1053400081E0C81AD108E10880E8F80AC09210018B
:10535000D0921101E0921201F0921301C701B6013F
:105360009F77FF90EF90DF90CF90BF90AF909F908E
:105370008F90089560931001709311018093120132
:10538000909313010895F999FECF92BD81BDF89ACB
:10539000992780B50895262FF999FECF1FBA92BD9F
:1053A00081BD20BD0FB6F894FA9AF99A0FBE019606
:1053B0000895052E97FB1EF400940E94F02957FDD6
:1053C00007D00E940B2A07FC03D04EF40C94F0295E
:1053D00050954095309521953F4F4F4F5F4F089521
:1053E00090958095709561957F4F8F4F9F4F089551
:1053F0000E942D2AA59F900DB49F900DA49F800D13
:10540000911D11240895B7FF0C94F8290E94F829E2
:10541000821B930B0895A1E21A2EAA1BBB1BFD0150
:105420000DC0AA1FBB1FEE1FFF1FA217B307E40783
:10543000F50720F0A21BB30BE40BF50B661F771FDB
:10544000881F991F1A9469F76095709580959095BB
:105450009B01AC01BD01CF010895A29FB001B39F94
:10546000C001A39F700D811D1124911DB29F700D6D
:10547000811D1124911D08955058BB27AA270E9411
:10548000542A0C945C2B0E944E2B38F00E94552B12
:1054900020F039F49F3F19F426F40C944B2B0EF4B2
:1054A000E095E7FB0C94452BE92F0E946D2B58F3F8
:1054B000BA17620773078407950720F079F4A6F5F9
:1054C0000C948F2B0EF4E0950B2EBA2FA02D0B0110
:1054D000B90190010C01CA01A0011124FF27591B39
:1054E00099F0593F50F4503E68F11A16F040A22F3F
:1054F000232F342F4427585FF3CF469537952795B0
:10550000A795F0405395C9F77EF41F16BA0B620BAE
:10551000730B840BBAF09150A1F0FF0FBB1F661FF5
:10552000771F881FC2F70EC0BA0F621F731F841F38
:1055300048F4879577956795B795F7959E3F08F05E
:10554000B0CF9395880F08F09927EE0F9795879520
:1055500008950E94212B08F481E008950E94B52A45
:105560006894B1110C94902B08950E94752B88F0CB
:105570009F5798F0B92F9927B751B0F0E1F0660F17
:10558000771F881F991F1AF0BA95C9F714C0B13058
:1055900091F00E948F2BB1E008950C948F2B672F10
:1055A000782F8827B85F39F0B93FCCF38695779587
:1055B0006795B395D9F73EF4909580957095619570
:1055C0007F4F8F4F9F4F0895E89409C097FB3EF49B
:1055D00090958095709561957F4F8F4F9F4F992340
:1055E000A9F0F92F96E9BB279395F69587957795BE
:1055F0006795B795F111F8CFFAF4BB0F11F460FF7E
:105600001BC06F5F7F4F8F4F9F4F16C0882311F0D5
:1056100096E911C0772321F09EE8872F762F05C0E9
:10562000662371F096E8862F70E060E02AF09A9584
:10563000660F771F881FDAF7880F9695879597F979
:105640000895990F0008550FAA0BE0E8FEEF161613
:105650001706E807F907C0F012161306E407F50766
:1056600098F0621B730B840B950B39F40A2661F0DA
:10567000232B242B252B21F408950A2609F4A1407D
:10568000A6958FEF811D811D089597F99F6780E88A
:1056900070E060E008959FEF80EC089500240A9484
:1056A0001616170618060906089500240A941216FD
:1056B0001306140605060895092E0394000C11F430
:1056C000882352F0BB0F40F4BF2B11F460FF04C0DD
:1056D0006F5F7F4F8F4F9F4F089557FD9058440F36
:1056E000551F59F05F3F71F04795880F97FB991F41
:1056F00061F09F3F79F087950895121613061406FE
:10570000551FF2CF4695F1DF08C01616170618068A
:10571000991FF1CF86957105610508940895E89465
:10572000BB2766277727CB0197F908950E94212B85
:1057300008F48FEF08950E94AE2B0C945C2B0E940E
:105740004E2B38F00E94552B20F0952311F00C942D
:10575000452B0C944B2B11240C94902B0E946D2BF9
:1057600070F3959FC1F3950F50E0551F629FF001B4
:10577000729FBB27F00DB11D639FAA27F00DB11DCD
:10578000AA1F649F6627B00DA11D661F829F222756
:10579000B00DA11D621F739FB00DA11D621F839FDD
:1057A000A00D611D221F749F3327A00D611D231FB3
:1057B000849F600D211D822F762F6A2F11249F5701
:1057C00050409AF0F1F088234AF0EE0FFF1FBB1F04
:1057D000661F771F881F91505040A9F79E3F5105C3
:1057E00080F00C94452B0C94902B5F3FE4F3983E93
:1057F000D4F3869577956795B795F795E7959F5F6D
:10580000C1F7FE2B880F911D9695879597F90895FE
:1058100097FB072E16F4009407D077FD09D00E945D
:10582000222C07FC05D03EF4909581959F4F08955A
:10583000709561957F4F0895EE0FFF1F0590F491CD
:10584000E02D0994AA1BBB1B51E107C0AA1FBB1F77
:10585000A617B70710F0A61BB70B881F991F5A95FC
:10586000A9F780959095BC01CD010895F894FFCFDC
:1058700001040100FFFFFFFF00E100000000000045
:105880000100000000C18081000000000000009EB7
:10589000091D09BF09B409050AC309E1090000008F
:1058A00000E00FE50AFF10FE105B2000205D0041C4
:1058B0007264752D6D616E000D0A00506C61790087
:1058C000486967682053636F72657300536F756E24
:1058D000642069733A204F4E00536F756E642069DF
:1058E000733A204F46460053636F72653A004C6529
:1058F00076656C200047414D45204F564552004883
:105900004947482053434F52450048494748205390
:06591000434F5245530015
:00000001FF
