:100000000C9456180C947E180C947E180C947E1840
:100010000C947E180C947E180C947E180C947E1808
:100020000C947E180C947E180C94A4230C94132426
:100030000C947E180C947E180C947E180C947E18E8
:100040000C947E180C947E180C947E180C947E18D8
:100050000C947E180C947E180C947E180C944526F3
:100060000C947E180C947E180C947E180C947E18B8
:100070000C947E180C947E180C947E180C947E18A8
:100080000C948F260C947E180C947E180C947E1879
:100090000C947E180C947E180C947E180C947E1888
:1000A0000C947E180C947E180C947E180408FBF1B6
:1000B000E0FF0C1000000000000000000000000045
:1000C00000000038383838383800000000000000E0
:1000D00000000000000000000000003F3F3F3F3FE5
:1000E0003F0000000000F0F0F0F0F0F0F0F0000051
:1000F0000000003F3F3F3F3F3F0000000208AC5C74
:10010000AC5FAC5F02085CAC5FAC5FAC80808080B1
:10011000808080808080808080800000E0F0F0E03F
:10012000C0C0C0C0C08000000FFFFFFFFFFFFFFF87
:10013000FFFFFFFFFFEFFE7EFFFFFFFFFFFFFFFF61
:10014000FFFFFE3C001F1F1F1F1F3F7F7F7F7F7F22
:10015000FBFFFFFEFFFFFFFFFFC783030703010055
:1001600000000000006070707E7F7F7F7F3F070788
:1001700007071F1F1F1F1F1F0F06000080808080A2
:10018000808080808080808080800000E0F0F0E0CF
:10019000C0C0C0C0C08000000FFFFFFFFFFFFFFF17
:1001A000FFFFFFFFFFEFFE7EFFFFFFFFFFFFFFFFF1
:1001B000FFFFFE3C001F1F1F1F1F3F7FFFFFFFFFB2
:1001C000FFFFFFFEFFFFFF7F1F0703030703010081
:1001D0000000000000060F1F1F1F3F3F1F070707FB
:1001E000077F7F7F7F7F7E707060000000000000CF
:1001F00000000000000000000000000000000000FF
:100200000000000000000000FEFCFCFCF8F8F0C05C
:1002100000000000000000000000000000000000DE
:1002200000000000FFFFFFFFFFFFFFFF7F7FFFFFDA
:10023000FEFEFCFCFCFEFE7FFFFFFFFEFCFE3E1C04
:10024000F87F3F3F1F0F05000000737F7F7F7F7F98
:100250007F7D7830000000010100000000000000F8
:10026000000000000000000000000000000000008E
:10027000000000000000000000000000000000007E
:10028000000000000000000000000000C0F0F8F8CE
:10029000FCFCFCFE1C3EFEFCFEFFFFFF7FFEFEFCA6
:1002A000FCFCFEFEFFFF7F7FFFFFFFFFFFFFFFFF66
:1002B000000000010100000030787D7F7F7F7F7F9C
:1002C0007F73000000050F1F3F3F7FF81C208080D8
:1002D0008080808080808080808080800000E0102E
:1002E000106040404040408000000FF00FFFFFFFD3
:1002F000FFFFFFFFFF0F706FD242C14642C0C20E28
:1003000000000001C23C001F10171717274747477E
:1003100047C0C4000102030202203C4482020402DE
:10032000010000000000006010101F0101010078B2
:10033000040404041E20201011110906000080800E
:100340008080808080808080808080800000E010BD
:10035000106040404040408000000FF00FFFFFFF62
:10036000FFFFFFFFFF0F706FD242C14642C0C20EB7
:1003700000000001C23C001F101717172747C7478E
:10038000474044000102030282601C04020204028E
:1003900001000000000000060911111020201E04B9
:1003A00004040478000101011E1010600000000028
:1003B000000000000000000000000000000000003D
:1003C00000000000000000000000C20C0404080847
:1003D00070C00000000000000000000000000000ED
:1003E00000000000000090085C2C301800804141A3
:1003F000818102020404040282418181810E04C2CF
:10040000221C88472420100B05000000730C0800F4
:10041000000002054830000000010100000000005B
:1004200000000000000000000000000000000000CC
:1004300000000000000000000000000000000000BC
:100440000000000000000000000000000000C0707C
:10045000080804040CC21C22C2040E81818141825E
:1004600002040404020281814141800018302C5CA6
:100470000890000000010100000030480502000063
:1004800000080C73000000050B1020244788043E70
:10049000FEFEFFFFFFFFFFFFFFF280CC9EDEFFFFAF
:1004A000FFFFFFFFFEFC700000000000237F7F7F46
:1004B0007F3F3F3F7FFF7FFFFFFF7FFFFFFFFFFF8C
:1004C000FDC08000000000000000000000000000EF
:1004D00000000000000000000007070707070707EB
:1004E00006008080C0C0C0E0E0E0F0F0E0CC9EDE1E
:1004F000FFFFFFFFFFFFFEFC70000000000003078E
:100500003F7F7F7F7F7F7FFFFFFFFFFFFFFFFFFFBB
:10051000FFFF7DF8FCFC7C380000000000000000BC
:100520000000000006070707070707070000000094
:1005300000000000000000000070FCFEFFFFFFFF55
:10054000FFFFDE9ECC80F2FFFFFFFFFFFFFFFEFEFE
:100550003E0400000080C0FDFFFFFFFFFF7FFFFFA4
:10056000FF7FFF7F3F3F3F7F7F7F7F2300000006AD
:10057000070707070707070000000000000000004A
:100580000000000000000000000000000070FCFE01
:10059000FFFFFFFFFFFFDE9ECCE0F0F0E0E0E0C0F9
:1005A000C0C080800000387CFCFCF87DFFFFFFFFAE
:1005B000FFFFFFFFFFFFFF7F7F7F7F7F7F3F0703FF
:1005C0000000000000000000000007070707070701
:1005D00007060000000000000000000000001C13DF
:1005E000043AC20A2909050505010DF2804C92D290
:1005F0002125694D0901028C700000000000235C78
:1006000041484828242460B94786848C458180006D
:1006100003033DC080000000000000000000000057
:1006200000000000000000000000000701000000C2
:1006300000010600808040404020A0A09010E04CC7
:1006400092D22125694D0901028C70000000000042
:1006500002043E7E3F5F47416090909A84C421012E
:100660000000838345888484443800000000000033
:10067000000000000000060100000000010700006B
:100680000000000000000000000000708C02010962
:100690004D692521D2924C80F20D010505050929ED
:1006A0000AC23A0400000080C03D03030080814577
:1006B0008C848647B9602424284848415C23000084
:1006C000000601000000000107000000000000001B
:1006D00000000000000000000000000000000070AA
:1006E0008C0201094D692521D2924CE01090A0A006
:1006F00020404040808000003844848488458383C3
:1007000000000121C4849A90906041475F3F7E3E83
:1007100004020000000000000000000007010000CB
:1007200000000106000000000000000000000000C2
:1007300004080C30030C001B001B0C0318061810D7
:1007400000000000000000000020400000402000E9
:100750000000000000000000000000000000000099
:100760000000000000000000000000000000000089
:100770000000000000000010002000001000200019
:100780001000000000000000000000000000000059
:100790000000000000000000000000000000000059
:1007A00000000000004000100000000210000000E7
:1007B0001000200000000000000000000000000009
:1007C0000000000000000000000000000000000029
:1007D00000000000004000000020040000000000B5
:1007E00000004000000000000000000002000000C7
:1007F00000000000000000000000000200000000F7
:1008000000000000000000000000000000000000E8
:1008100000000000000000000000000008000000D0
:1008200001000000000000000000002000000000A7
:1008300004080C03300C1B001B000618030C043EBC
:10084000FEFEFFFFFFFFFFFFFFF280CC9EDEFFFFFB
:10085000FFFFFFFFFEFC700000000000237F7F7F92
:100860007F3F3F3F7FFF7FFFFFFF7FFFFFFFFFFFD8
:10087000FDC080000000000000000000000000003B
:100880000000000000000000000707070707070737
:100890000600043EFEFEFFFFFFFFFFFFFFF280CCDD
:1008A0009EDEFFFFFFFFFFFFFEFC70000000000068
:1008B000237F7F7F7F3F3F3F7FFFFFFFFFFFFFFFE4
:1008C000FFFFFFFF7DF8FCFC7C380000000000000B
:1008D00000000000000006070707070707070000E1
:1008E00000000000000000000000043EFEFEFFFFCC
:1008F000FFFFFFFFFFFFFFFFFFFFFFFFFEFC70009A
:100900000000000000000000237F7F7F7F3F3FFF4B
:10091000FFFFFFFFFFFFFFFF7DF8FCFC7C380000BE
:10092000000000000000000000000607070707079E
:1009300007070000000000000000000000000000A9
:100940000004FEFEFEFEFEFEFEFEFEFEFEFEFC704F
:1009500000000000000000000000000000207FFFF9
:10096000FFFFFFFFFFFFFFFFFFFDF8FCFC7C3800EF
:10097000000000000000000000000607070707074E
:100980000707000000000000000000000000000059
:100990000070FCFEFFFFFFFFFFFFFFFFFFFFFFFFF9
:1009A000FFFFFEFE3E0400000000387CFCFCF87DEA
:1009B000FFFFFFFFFFFFFFFFFF3F3F7F7F7F7F23A3
:1009C0000000000000000000000000000000070719
:1009D00007070707070600000000000000000000EE
:1009E000000000000070FCFEFFFFFFFFFFFFDE9E27
:1009F000CC80F2FFFFFFFFFFFFFFFEFE3E04387CCE
:100A0000FCFCF87DFFFFFFFFFFFFFFFFFFFFFF7F05
:100A10003F3F3F7F7F7F7F230000000000000000FA
:100A2000000007070707070707060000000000008F
:100A300000000000000000000070FCFEFFFFFFFF50
:100A4000FFFFDE9ECC80F2FFFFFFFFFFFFFFFEFEF9
:100A50003E0400000080C0FDFFFFFFFFFF7FFFFF9F
:100A6000FF7FFF7F3F3F3F7F7F7F7F2300000006A8
:100A70000707070707070700000000000000000045
:100A8000000000000000000000001C13043AC20A2D
:100A90002909050505010DF2804C92D22125694DE9
:100AA0000901028C700000000000235C41484828C6
:100AB000242460B94786848C4581800003033DC0AF
:100AC00080000000000000000000000000000000A6
:100AD0000000000000000007010000000001060007
:100AE000043AC20A2909050505010DF2804C92D28B
:100AF0002125694D0901028C700000000000235C73
:100B00004148482824246091979E84C42101000014
:100B1000838345888484443800000000000000007E
:100B200000000000060100000000010700000000B6
:100B30000000000000000000043AC20A290905056F
:100B400005010D728025694D0901028C70000000BD
:100B5000000000000000235C41484828249490884D
:100B600049060000838345888484443800000000DF
:100B70000000000000000000060100000000010766
:100B80000000000000000000000000000000000461
:100B9000FA024A4A0A0A0A0A02FA04008C700000A1
:100BA0000000000000000000000000205F405252E2
:100BB00050505050405F2005888484443800000025
:100BC0000000000000000000060100000000010716
:100BD00000000000000000000000000000000070A5
:100BE0008C0201094D692580720D01050505092951
:100BF0000AC23A0400000000384484848845838394
:100C00000000064988909424284848415C2300004D
:100C100000000000000000000000000007010000CC
:100C200000000106000000000000000000000000BD
:100C3000000000708C0201094D692521D2924C8080
:100C4000F20D0105050509290AC23A0438448484D5
:100C50008845838300000121C4849E9791602424E9
:100C6000284848415C23000000000000000000000C
:100C70000701000000000106000000000000000065
:100C800000000000000000708C0201094D69252160
:100C9000D2924C80F20D0105050509290AC23A04D9
:100CA00000000080C03D0303008081458C8486479E
:100CB000B9602424284848415C2300000006010054
:100CC000000000010700000000000000000000001C
:100CD0000000000000000000000010B8F8FEFFFF58
:100CE000FFFFFFFFFEF8B81000000000000080C109
:100CF000C3F7FFFFFFFFFFFFF7C3C1800000000045
:100D00000003E7FFFFFFFFFF7F7FFFFFFFFFFFE71E
:100D100003000000000010B8F8FEFFFFFFFFFFFF18
:100D2000FEF8B810000000000070F8F9F3F7FFFFBC
:100D3000FFFFFFFFF7F3F9F8700000000000E0F09C
:100D4000F1FBFFFF7F7FFFFFFBF1F0E00000000001
:100D5000000000008CFEFFFFFFFEFEFCF8F0E0F05C
:100D6000E04000002070F0F0E0E1E3F3FFFFFFFF60
:100D7000F3F1E3E7020000000000000100CCFCFFFB
:100D8000FFFF1FBFFFFFE7C30000000000000000DF
:100D90008CFEFFFFFFFEFEFCF8F0E0F0E0400000FC
:100DA0001E3E7C78F0F1E3F3FFFFFFFFFBF1E3F77A
:100DB000F2783C1C0000000000CCFCFFFFFF1FBFCE
:100DC000FFFFE7C3000000001418000010A8682E01
:100DD00021AF2121A1212E68A810000000000000F1
:100DE000804142340808F1F1080834424180000093
:100DF00000000003E4181A1C6F807070806F1C1ACA
:100E000018E403000000000010A8682E115F111103
:100E100051112E68A810000000000070888912345B
:100E20000808F1F1080834128988700000000000F9
:100E3000E010111A6E807070806C1A1110E00000C2
:100E40000000000000008C72091549122A54A810F5
:100E5000A050A040000020509010A0A1A2920D0030
:100E6000000D029122E5020000000000000100CC0C
:100E7000343301F111A1421F24C30000000000001F
:100E800000008C72091549122A54A810A050A040E5
:100E900000001E2244489091A2920D00000D029184
:100EA00022959248241C0000000000CC343301F14C
:100EB00011A1421F24C30000000004040008000028
:100EC00008040800040904000002000000000000FB
:100ED0000000000000000000000000000000000012
:100EE0000000000000000000000080C0E8FCF8F0F6
:100EF000C0E0C080070F0F0F0F0F0F0F0F0700008C
:100F000000000000000000000000000000000000E1
:100F1000000000000000E0F8FC980000F8FEFFFE72
:100F2000FFFFFFFFFCF8030F0F0F0F0F0F0F0F0353
:100F300000000080000000000000000087FFFFF8B4
:100F4000C0E0C0000080FFFFFFFFFFFFF980FFFF50
:100F5000FFFFFFFFFFFFFFFF030F0F0F0F0F0F0F2D
:100F60000F0300003CFEFCC0000000000000FCFF7E
:100F7000FFFFFEFFCE00F8FCFFFFFFFFFFFFFFFCBF
:100F8000FFFFFFFFFFFFFFFFFFFF000F0F0F0F0F20
:100F90000F0F0F000A2400000000000000000000F6
:100FA0000000000000000000000000000000000041
:100FB000000000008040681408304020408007088E
:100FC0000000060C00000807000000000000000000
:100FD0000000000000000000000000000000000011
:100FE000E01864980000F806010601C0000704F844
:100FF000030C00000F0300000C0300000080000041
:10100000000000000000877807F84020C000008042
:101010007F0020071E067980FF000000E0800106A7
:1010200000FF030C0000030F00000C0300003CC293
:101030003CC0000000000000FC03003FF231CE0085
:10104000F80403000100083003FCFF000000FFF07B
:10105000000000FF000F0000000F00000F00000064
:101060000101010000183D7F7F7F3D183078FCFEB4
:10107000FC783007080000000000000018254240FE
:101080004225183048848284483003081F051F1FFA
:10109000151B1F11111F110E1F15111F05011F1107
:1010A0001D1F041F001F0010101F1F041B1F101006
:1010B0001F061F1F011F1F111F1F05071F311F1FA5
:1010C000051B17151D011F011F101F0F100F1F0CEF
:1010D0001F1B041B071C071915130C121E1F120CD3
:1010E0001E12120C121F0C1A14041F052E2A1E1F8A
:1010F000021C001D00201D001F041A011F001E04F9
:101100001E1E021E1E121E3E120C0C123E1E020657
:1011100014120A020F121E101E0E100E1E081E1AA6
:10112000041A2E281E1A12161F111F001F001D154B
:101130001711151F07041F17151D1F151D01011F6E
:101140001F151F17151F00170000100004083E0987
:10115000093E3F25251A1E2121123F21211E3F2530
:1011600025213F0505011E21293A3F04043F213F67
:1011700021001021211F3F040A313F2020203F027F
:10118000023F3F02043F1E21211E3F0909061E2186
:10119000112E3F09093622252519013F01011F2083
:1011A000201F0F10201F3F10103F3B04043B03047F
:1011B0003807312D2321102A2A3C3F2424181C22D1
:1011C00022141824243F1C2A2A2C047E05014C5288
:1011D000523E3F040438243D20004040443D3F0837
:1011E0001422213F20003E04043E3E04023C1C2207
:1011F000221C7E22221C1C22227E3E040204242A5F
:101200002A12021F22201E20201E0E10201E3E1019
:10121000103E360808364E50503E322A26221E29ED
:10122000251E223F2000322929261221251A0C0AC8
:101230003F08172525191E252518013905031A25EC
:10124000251A0629291E002F0000002000008D14F9
:10125000A1C881CFD9F102AF0A1003FDFE06DADA88
:1012600006FEFD03EFEEEDEDEDEDEDEDEEEF804072
:10127000FDFDFDFDFDFDFDFDFDFDFDFDFDFDFD3D5E
:101280001DCDE7F3FBF9F9AD55AD55AD55AD55EDB8
:101290003B87DDDDDDDD9D9D3D3D7D7DFDFDFDFD76
:1012A000FDFDFDFDFDFDFD3DFD1D1DFDFD1D1DFDAE
:1012B0001D1DFD3D1D9D9D1D3DFD1D1DFDFD1D1D9E
:1012C000FDFD7DFD3D1D9D9D1D3DFD3D1D9D9D1D0E
:1012D0003DFD3D1D9D9D1D3DFD1D1D9D9D1D3DFD1E
:1012E0001D1D9D9D9D9DFD3D1D9D9D1D3DFDFDFD6E
:1012F000FFFFFFFFFFFFFFFFFFFFFF7F7F7F3F003D
:10130000003FB5BF9FDFDFDFCD4A4D4A0D2693B8C2
:101310003E3F7FFFFFFFFFFFFFFFFFFEFEFCF9F3F5
:1013200007FFFFFFFFFFFF00FF808079F98080FF4C
:1013300080807FC0809F998141FF808079F9808083
:10134000FFFF987FCC88999981C37FC0809F9F8F32
:10135000CF7FC0809F9F8040FF808079F18084FF95
:10136000808099999F9F7FCC88999981C3FFFFFFC7
:10137000E7076BFBF70F0FF77B7BF0F0E0800000D7
:101380000080E1FFFFFFFF3F8CE4F2FAFAF6CF1F87
:10139000FF7FBCD8D1B337471F9F3FBFBF9F6FF3BD
:1013A000FCFFFFFFFFFFFFFEFEFEFFFEFEFEFFFE57
:1013B000FEFFFFFEFEFEFEFFFEFEFEFFFEFEFEFF48
:1013C000FFFFFFFFFEFEFEFEFFFFFFFEFEFEFEFF35
:1013D000FFFFFEFEFEFEFFFEFEFEFFFEFEFEFFFE28
:1013E000FEFEFEFEFEFFFEFEFEFEFEFFFFFFFFFF17
:1013F00081F8FFFFC780807FF1C398F1FFFFFCFCFD
:10140000FEFFFFFFFFFFFF801F7FFFFFE3C1498358
:10141000FE009383C7FFFF7C00D80092BAB5363632
:1014200035330FFFFFFFFFFFFFFFFFFFFFFFFFFF52
:10143000FFFFFFFFFFFFFFFFFFFFFFFFFFFFFFFFBC
:10144000FFFFFFFFFFFFFFFFFFFFFFFFFFFFFFFFAC
:10145000FFFFFFFFFFFFFFFFFFFFFFFFFFFFFFFF9C
:10146000FFFFFFFFFFFFFFFFFFFFFFFFFFFFFFFF8C
:10147000FFFFFFFFFFFFFFFFFCF1071FFFFFFFFF65
:10148000FFFFFFFFFFFEFFFBFF767EFCFCFCFFFF84
:10149000FFFEF1E3DB99341E008081E3F3F7FFFFE9
:1014A000FF3FC4FBFFFFFFFFFFFFFFFFFFFFFFFF4B
:1014B000FFFFFFFFFFFFFFFFFFFFFFFFFFFFFFFF3C
:1014C000FFFFFFFFFFFFFFFFFFFFFFFFFFFFFFFF2C
:1014D000FFFFFFFFFFFFFFFFFFFFFFFFFFFFFFFF1C
:1014E000FFFFFFFFFFFFFFFFFFFFFFFFFFFFFFFF0C
:1014F000E38F3F7F3F3F1F0F07F3FCFFFFFFFFFF1F
:10150000FFFBF7F77777BF9797B3B0444E9F9F0FD6
:101510008F9F9F3F3F7F7F7E7EFCFCF9FB078FFF05
:10152000F0E0C60EFDFDFBF7F7EFEFEFDFDFDFDFEB
:10153000DFBFBFBFBFBFBFBFBFBF7F7F7FFFFFFF9B
:10154000FFFFFFFFFFFFFFFFFFFFFFFFFFFFFFFFAB
:10155000FFFFFFFFFFFFFFFFFFFFFFFFFFFFFFFF9B
:10156000FFFFFFFFFFFFFFFFFFFFFFFFFFFFFFFF8B
:1015700003030000000000008007FFFFFFFFFFFFE4
:10158000FFFF0F0100000103070F1F3F3E7E7D7923
:10159000F2768E7E0C000000000004041C3E3F7FAB
:1015A0007F7F1F80FFFFFF7F0F83FFFFFFFFFFFF96
:1015B000FFFFFFFFFFFFFFFFFFFFFFFFFEF8010739
:1015C000FFFFFFFFFFFFFFFFFFFFFFFFFFFFFFFF2B
:1015D000FFFFFFFFFFFFFFFFFFFFFFFFFFFFFFFF1B
:1015E000FFFFFFFFFFFFFFFFFFFFFFFFFFFFFFFF0B
:1015F00000000000000000E0FFF8801FFFFFFFFF79
:10160000FFFFC0C69C387870E0C0408040300804BE
:101610000201000000000000000000008080C0C047
:10162000E0E2F7E7E7F9FCFCFEBFBF7F7F7F3F3FCB
:101630003FBF9FCFC7E3F3FFFF3F9FC7F3BDBEBFD1
:10164000BFBFBFBFBFBFBFBFBFBFBFBFBFBFBFBFAA
:10165000BFBFBFBFBFBFBFBFBFBFBFBFBFBFBFBF9A
:10166000BFBFBFBFBFBFBFBFBFBFBFBFBFBFBFBF8A
:1016700010033200930232000B023200700332007A
:101680005D01320026013200EE013200C40032005A
:10169000A500320083003200DC0032005700320027
:1016A000490032007B0032007B0032000000140051
:1016B0007B003200000014007B0032000080AF008D
:1016C000140088011400008003081F111F001F0070
:1016D0001D151711151F07041F17151D1F151D01B7
:1016E000011F1F151F17151FFFFFFFFFFFFFFFFF44
:1016F000FFFFFFFFFFFFFFFFFFFFFFFFFFFFFFFFFA
:10170000FFFFFFFFFFFFFFFFFFFFFFFFFFFFFFFFE9
:10171000FFFFFFFFFFFFFFFFFFFFFFFFFFFFFFFFD9
:10172000FFFFFFFC1F1F3F3F3F3F3F3F3F3F3F3F0C
:101730003F3F3F3F3F3F3F3F3F3F3F3F3F3F3F3FB9
:101740003F3F3F3F3F3F3F3F3F3F3F3F3F3F3F3FA9
:101750003F3F3F3F3F3F3F3F3F3F3F3F3F3F3F3F99
:101760003C0EFF01FDFDFDFDFD0DF5B52DFD0DB59B
:10177000B50DFD05EDDDED05FD05B5B5F5FDFDFD91
:101780000DF5F50DFD05FDFDFD05FD05B5B5F5FDF9
:1017900005B5B54DFDFDFDFDFDFDFD0107FC1F106F
:1017A00037272727272625252627242727242724C8
:1017B00027272724272425252527272726252526CB
:1017C00027272625262727242525252724272724BC
:1017D0002727272727272720203F8008FFFFFFFFF5
:1017E000FFFFFFFFFFFFFFFFFFFFFFFFFFFFFFFF09
:1017F000FFFFFFFFFFFFFFFFFFFFFFFFFFFFFFFFF9
:10180000FFFFFFFFFFFF80809CA29A8080BC0ABC84
:1018100000A4AA92808080A4AA928082BE8280BC0A
:101820008ABC8082BE8280BE009C229C80BE8CBE10
:101830008080FFFFFFFFFFFFFFFFFFFFFFFFFFFFB6
:10184000FFFFFFFFFFFFFFFFFFFFFFFFFFFFFFFFA8
:10185000FFFFFFFFFFFFFFFFFFFFFFFFFFFFFFFF98
:10186000FFFFFFFFFFFFFFFFFFFFFFFFFFFFFFFF88
:10187000FFFFFFFFFFFFFFFFFFFFF8F4E8D4A854CE
:10188000A854A854A804F0F4F0F4F07470747074C0
:101890007074707470747074707470747074F0F428
:1018A000F0F4F0F4707470747074707470F4F0F498
:1018B000F0F4F004A854A854A854A8D4E8F4F8FF0D
:1018C000FFFFFFFFFFFFFFFFFFFFFFFFFFFFFFFF28
:1018D000FFFFFFFFFFFFFFFFFFFFFFFFFFFFFFFF18
:1018E000FFFFFFFFFFFFFFFFFFFFFFFFFFFFFFFF08
:1018F000FFFFFFFFFFFFFFFFFFFFFFFFFFFFFFFFF8
:10190000FEFDFEFDFE00FFFFFFFF00FFFDFFFDFFF0
:10191000FDFFFDFFFDFFFDFFFDFFFDFFFDFF00FFE4
:10192000FFFFFF00FFFDFFFDFFFDFFFDFF00FFFFCD
:10193000FFFFFF00FEFDFEFDFEFFFFFFFFFFFFFFBD
:10194000FFFFFFFFFFFFFFFFFFFFFFFFFFFFFFFFA7
:10195000FFFFFFFFFFFFFFFFFFFFFFFFFFFFFFFF97
:10196000FFFFFFFFFFFFFFFFFFFFFFFFFFFFFFFF87
:10197000FFFFFFFFFFFFFFFFFFFFFFFFFFFFFFFF77
:10198000FFFFFFFFFF00FFFFFFFFFCFBFBFBFBFB7D
:10199000FBFBFBFBFBFBFBFBFBFBFBFBFBFBFCFF92
:1019A000FFFFFF00FFFFFFFFFFFFFFFFFF00FFFF45
:1019B000FFFFFF00FFFFFFFFFFFFFFFFFFFFFFFF36
:1019C000FFFFFFFFFFFFFFFFFFFFFFFFFFFFFFFF27
:1019D000FFFFFFFFFFFFFFFFFFFFFFFFFFFFFFFF17
:1019E000FFFFFFFFFFFFFFFFFFFFFFFFFFFFFFFF07
:1019F000FFFFFFFFFFFFF1E9D1A951A951A951A9AB
:101A00005109E1E9E1E9E1E9E1E9E1E9E1E9E1E9F6
:101A1000E1E9E1E9E1E9E1E9E1E9E1E9E1E9E1E976
:101A2000E1E9E1E9E1E9E1E9E1E9E1E9E1E9E1E966
:101A3000E1E9E1E9E1E9E10951A951A951A951A976
:101A4000D1E9F1FFFFFFFFFFFFFFFFFFFFFFFFFFF8
:101A5000FFFFFFFFFFFFFFFFFFFFFFFFFFFFFFFF96
:101A6000FFFFFFFFFFFFFFFFFFFFFFFFFFFFFFFF86
:101A7000FFFFFFFFFFFFFFFFFFFFFFFEFDFAFDFA85
:101A8000FD00FFFFFF01FEEAF6EAF6EAF6FAF6FAD3
:101A9000FEFEFEFEFEFEFEFEFEFE01FFFFFF01FE5D
:101AA000EAF6EAF6EAF6FAF6FAFEFEFEFEFEFEFEBA
:101AB000FEFEFE01FFFFFF00FDFAFDFAFDFEFFFF47
:101AC000FFFFFFFFFFFFFFFFFFFFFFFFFFFFFFFF26
:101AD000FFFFFFFFFFFFFFFFFFFFFFFFFFFFFFFF16
:101AE000FFFFFFFFFFFFFFFFFFFFFFFFFFFF8F0F66
:101AF0008FDFDFDFDFDFDFDFDFDFDFDFDFDFDFDF46
:101B0000DF50DFDF8F088FDFDFDFDFDFDFDFDFDFEB
:101B1000DFDFDFDFDFDFDFDFDFDFD88F0F8FD8DF53
:101B2000DFDFDFDFDFDFDFDFDFDFDFDFDFDFDFDFC5
:101B3000DFDF8F088FDFDF50DFDFDFDFDFDFDFDFBB
:101B4000DFDFDFDFDFDFDFDF8F0F8FFFFFFFFFFF75
:101B5000FFFFFFFFFFFFFFFFFFFFFFFFFFFFFFFF95
:101B6000FFFFFFFFFFFFFFFFFFFFFFFFFFFF8F40B4
:101B70008F4F8F4F8F4F8F4F8F4F0F4F0F4F0F4FF5
:101B80000F480F4F0F400F4F0F4F0F4F0F4F0F4F7B
:101B90000F4F0F4F0F4F0F4F0F4F0F4F004F0F4F64
:101BA0000F4F0F4F0F4F0F4F0F4F0F4F0F4F0F4F45
:101BB0000F4F0F400F4F0F480F4F0F4F0F4F0F4F4B
:101BC0008F4F8F4F8F4F8F4F8F408FFFFFFFFFFF44
:101BD000FFFFFFFFFFFFFFFFFFFFFFFFFFFFFFFF15
:101BE000FFFFFFFFFFFFFFFFFFFFFFFFFFFFFFFF05
:101BF000FEFDFAF5EAD5EAD5EA00FFFFFFFF0FF791
:101C000057B757B757B7D7B7D7F7F7F7F7F7F7F784
:101C10000FFF0FF757B757B757B7D7B7D7F7F7F73C
:101C2000F7F7F7F7F7F70FFF0FF757B757B757B7AC
:101C3000D7B7D7F7F7F7F7F7F7F70FFFFFFFFF0073
:101C4000EAD5EAD5EAF5FAFDFEFFFFFFFFFFFFFF49
:101C5000FFFFFFFFFFFFFFFFFFFFFFFFFFFFFFFF94
:101C6000FFFFFFFFFFFFFFFFFFFFFFFFFFFFFFFF84
:101C7000FFFFFFFFFFFFFF7FBFD05F5F5F6FACAF76
:101C8000ADAEAFAFAF6F5F5F5FDFBF7FFFFFFFFF47
:101C900080FF80FFFDFEFF1FEFF7F777F777F7F77D
:101CA000EF1FFFFFFFFF80FF80FFFDFEFF3FDF6FA5
:101CB000AFAFAFAFAFAFAFAFAFAFA8AFAFAFAF6882
:101CC000DF3FFFFFFFFFFFFFFFFFFFFFFFFFFFFF04
:101CD000FFFFFFFFFFFFFFFFFFFFFFFFFFFFFFFF14
:101CE000FFFFFFFFFFFFFFFFFFFFFFFFFFFFFFFF04
:101CF000FFFFFFFFFF3FD0EF29EEF7D7F7DBFBEB4E
:101D0000FBEBFBEBFBDBF7D7F7EE29EFD03FFFFF59
:101D1000D4FFD4FFFFFFFF00FFEEE5E3E3E3E7EED0
:101D2000FF00FFFFFFFFD4FFD4FFFF3FD06F292E3E
:101D300077D7B3F3F3F3F797F7F7F7F7B7D7772E2C
:101D4000296FD03FFFFFFFFFFFFFFFFFFFFFFFFFF8
:101D5000FFFFFFFFFFFFFFFFFFFFFFFFFFFFFFFF93
:101D6000FFFFFFFFFFFFFFFFFFFFFFFFFFFFFFFF83
:101D7000FFFFFFFF9F606F6F07F6056F6F6F6E6D60
:101D80006D6D6D6D6E6F6F6F05F6076F6F609FFF06
:101D9000FFFFFF3FDFEFEF80FFBFFFBFFFBFFFBFD2
:101DA000FF80EFEFDF3FFFFFFFFF9F606F6E04F4E8
:101DB000066F6F6A6A6A6A6A6A6A6A6A6F6F06F4AD
:101DC000046E6F609FFFFFFFFFFFFFFFFFFFFFFF3E
:101DD000FFFFFFFFFFFFFFFFFFFFFFFFFFFDFDFD19
:101DE000FDFDFDFDFDFDFDFDFDFDFDFDFDFDFDFD23
:101DF000FDFFFFFFFFFFFCFCFCFCFEFFFFFFFFFF02
:101E0000FFFFFFFFFFFFFFFFFEFCFCFCFCFFFFFFEF
:101E1000FFFFFCFCFCFCFCFCFCFCFCFCFCFCFCFCFC
:101E2000FCFCFCFCFCFCFCFFFFFFFFFFFCFCFCFCE3
:101E3000FEFFFFFFFFFFFFFFFFFFFFFFFFFFFEFCB7
:101E4000FCFCFCFFFFFFFFFFFDFDFDFDFDFDFDFDBB
:101E5000FDFDFDFDFDFDFDFDFDFDFFFFDC00B40012
:101E60009300B4004A01B400008006101A2C00321E
:101E700000210032003700320000800408FFE0F14A
:101E8000FB456D7074797E7468657E6275636B6501
:101E9000740A62797E676F696E677E6F75747369A5
:101EA00064652E0A49747E646F65737E6E6F747EFE
:101EB0006E6565640A746F7E62657E66756C6C7EA5
:101EC000666F727E69740A746F7E62657E656D707E
:101ED000746965642E004661696C696E677E746F13
:101EE0007E63617463680A617E64726F707E776975
:101EF0006C6C7E73746172740A617E666972657E51
:101F0000616E647E636F73740A796F757E617E6C37
:101F10006966652E0043617463687E7468657E64DB
:101F2000726F70730A6265666F72657E7468657938
:101F30007E6869740A7468657E666C6F6F727E7401
:101F40006F7E6761696E0A706F696E74732E001020
:101F5000110CFFFF0101010101010101010101015A
:101F60000101010101010101010101010101010161
:101F7000010101010101FFFF02020202020202024D
:101F80000202020202020202020202020202020231
:101F9000FFFF030303030303030303030303030319
:101FA00003030303030303030303030303030016F1
:101FB00016161600000000010101010405060708BD
:101FC000091616161616160000000001010101047C
:101FD0000506070809161616161616000000000159
:101FE0000101010405060708090A0B0C0D0E0F106C
:101FF0001112131415161616161616161616161690
:1020000016161616161616161616160000000000DE
:1020100000000000000000000000000000000101BE
:1020200001010101010101010101010101010101A0
:102030000101020202020202020202020202020282
:102040000202020202020202020202020202020270
:102050000202020202020202020202020000000068
:1020600000000000000000000011111212131312F2
:102070001211111212131312121111111111111246
:102080001213131212111112121313121211111131
:1020900011111110100F0F0E0E0D0D0C0C0B0B0A61
:1020A0000A090909090A0A0B0B0C0C0D0E0F101175
:1020B00012131415161616161616161616151413D0
:1020C00012111213140049667E68657E6661696CA0
:1020D000737E746F0A63617463687E7468657E6F73
:1020E000696C7E69740A77696C6C7E66616C6C7E63
:1020F0006F6E7E7468650A637573746F6D65727355
:102100007E62656C6F770A616E647E636F73747E46
:10211000617E6C6966652E005468726F777E7468A4
:10212000657E6F696C7E746F0A796F75727E636FFE
:102130006C6C65616775650A746F7E6761696E7E38
:10214000706F696E74732E00130C00FFFF010101A4
:10215000010101010101010101010101010101016F
:1021600001010101010101FFFF020202020202025C
:10217000020202020202020202020202020202023F
:10218000020202020202020202020202020202022F
:1021900002FFFF000000000000000000000000003F
:1021A000000000000000000000000000000000002F
:1021B000000000020406080A0C0E10121416181A69
:1021C0001C1E20222426262626262422201E1C1AF7
:1021D00018161412100E0C0A080604020000000063
:1021E00000000045454545454545454545454500B3
:1021F0000102454545454545454545454545454516
:102200004545450001030405060708090A0B0D0EA4
:102210000F10111213141516161616161616161779
:1022200018191A1B1C1D1E1F202121212121210DDF
:102230000C0B0A0908070605040302010000000050
:1022400000000102030405060708090A0B0C0D0E25
:102250000F1011121314141414141414141414144D
:10226000141414141414141414141414141414142E
:1022700014141414141414141414145573657E696E
:10228000747E7768656E0A796F757E6172657E65AA
:102290006D707479696E670A796F75727E627563A5
:1022A0006B65747E746F0A6465636964657E7768C4
:1022B0006963687E7761790A746F7E676F2E004864
:1022C000616E67696E677E6F6E7E7468650A6761AE
:1022D000726167657E77616C6C7E69730A617E6D81
:1022E00061707E746861747E73686F77730A796F4A
:1022F00075727E636F6C6C6561677565730A706F6C
:10230000736974696F6E2E000C0C00FFFF010101F0
:1023100001010101010101010101010101010101AD
:1023200001010101010101FFFF020202020202029A
:10233000020202020202020202020202020202027D
:1023400002FFFF446F7E6E6F747E7370656E647EF5
:10235000746F6F0A6C6F6E677E6F757473696465F6
:102360000A77616974696E677E666F727E796F75D0
:10237000720A636F6C6C65616775657E61737E79E7
:102380006F750A6D61797E63617573657E610A663A
:102390006972657E696E736964652E004C696B6550
:1023A000776973657E7768656E7E796F750A61728D
:1023B000657E6F7574736964657E796F750A636194
:1023C0006E7E7365657E64726970737E0A666F7275
:1023D0006D696E677E696E736964652E0010070013
:1023E0001C3F3F1C0406000400002E2E7E74697002
:1023F0007E7468657E6F696C7E6F6E0A7468726544
:10240000657E637573746F6D6572730A646F776E42
:102410007E62656C6F772E0012081F0204021F0097
:102420001F00121515090012151509000808387C3F
:102430005F0E7F7834005468657E67616D657E69E4
:10244000737E6F7665720A7768656E7E796F757ECA
:102450006D6973730A74687265657E6F696C7E64FA
:10246000726970730A696E736964657E6F727E2E1D
:102470002E008040FBF7E7E3C3A1B0B8B8787979C4
:102480000901010123B3B3B3B3B3B3B3B3B3B3B36C
:10249000B3B3B3B3B3B3B383718031B3B3B3B3B333
:1024A000B3B3B3B3B3B3B3B3B3B3B3B3B3B3B3B3FC
:1024B000B3B3B3B3B301F001B3B3B3B3B3B3B3B313
:1024C000B3B3B3B3B3B3B3B3B3B3B3B3B3B3B3B3DC
:1024D000B331807183B3B3B3B3B3B3B3B3B3B3B3F3
:1024E000B3B3B32301010101797978B8B8B0A1C3BE
:1024F000E3E7F7FB0F0F1F1F3F3F7F7FFFFFFFFF4C
:10250000FFFFFEFEFFFFFEFDFDFBFBF7F70FEFEF0A
:10251000EFEFEFEFEFEFEFEFEFEEEFEFEFEFEFEFCC
:10252000EFEFEFEFEFEFEFEFEFEFEFEFEFEFEFEFBB
:10253000EFEFEFEFEFEFEEEFEFEFEFEFEFEFEFEFAC
:10254000EFEFEFEFEFEFEFEFEFEFEFEFEFEFEFEF9B
:10255000EFEFEEEFEFEFEFEFEFEF0FF7F7FBFBFD36
:10256000FDFEFFFFFEFEFFFFFFFFFFFFFFFFFFFF80
:10257000FFFFFFFFB6B66C6C6858D8B0B0A06161C1
:1025800043C38787FFFFFFFFFFFFFFFFFF00FFFF42
:10259000FFFFFF07078747A7D7E7F7F7F7F7F7F733
:1025A000F7F7F7F7F7F7F707FFFFFFFFFFFFFFFF6B
:1025B000FFFFFFFFFFFFFFFFFFFFFFFFFFFFFFFF2B
:1025C000FFFFFFFFFFFFFFF7F757F7F7F7F7F7F703
:1025D000F7F7F7F757F7F7FFFFFF00FFFFFFFFFFE2
:1025E000FFFFFFFFFFFFFFFFFFFFFFFFFFFFFFFFFB
:1025F000FFFFFFFF9A9A95B5B5B52A6A6A555555FA
:10260000D5AAAAFFFFFFFFFFFFFFFFFFFF00FFFFAD
:10261000FFFFFF00FDFEFFFFFFFFFFFFFFFFFFFFCC
:10262000FFFFFFFFFF7FFF00FFFFFFFFFFFFFFFF39
:10263000FFFFFFFFFFFFFFFFFFFFFFFFFFFFFFFFAA
:10264000FFFFFFFFFFFFFF7D7D557D7D7D7D7D7D54
:102650007D7D7D7D557D7DFFFFFF00FFFFFFFFFF3F
:10266000FFFFFFFFFFFFFFFFFFFFFFFFFF7F7F7FFA
:102670007F3F3F3FFFFFFFFFFFFFFFFFFFFFFF0029
:10268000000000FFFFFFFFFFFFFFFFFFFF00FFFF56
:10269000FFFFFFF0F7F7F7F7F7F7F7F7F7F7F7F7B9
:1026A000F7F7F7F5F4F4F7F0FFFFFFFFFFFFFFFF89
:1026B000FFFFFFFFFFFFFFFFFFFFFFFFFFFFFFFF2A
:1026C000FFFFFFFFFFFFFFFFFFFFFFFFFFFFFFFF1A
:1026D000FFFFFFFFFFFFFFFFFFFF00FFFFFF07F709
:1026E000F7F3FB03FF01010000FEFEFEFEFEFFFF0D
:1026F000FFFFFFFFFFFFFFFFFFFFFFFFFFFFFF00E9
:10270000000000FFFFFFFFFFFFFFFFFFFF00FFFFD5
:10271000FFFFFFFFFFFFFFFFFFFFFFFFFFFFFFFFC9
:10272000FFFFFFFFFFFFFFFFFFFFFFFFFFFFFFFFB9
:10273000FFFFFFFFFFFFFFFFFFFFFFFFFFFFFFFFA9
:10274000FFFFFFFFFFFFFFFFFFFFFFFFFFFFFFFF99
:10275000FFFFFFFFFFFFFFFFFFFF00FFFFFF000185
:1027600001030300FF00000000FFFFFFFFFFFFFF6A
:10277000FFFFFFFFFFFFFFFFFFFFFFFFFFFFFF0068
:10278000000000FFFFFFFFFFFF7F7FBFBFC0DFDF55
:10279000DFDFDFDFDFDFDFDFDFDFDFDFDFDFDFDF49
:1027A000DFDFDFDFDFDFDFDFDFDFDFDFDFDFDFDF39
:1027B000DFDFDFDFDFDFDFDFDFDFDFDFDFDFDFDF29
:1027C000DFDFDFDFDFDFDFDFDFDFDFDFDFDFDFDF19
:1027D000DFDFDFDFDFDFDFDFDFDFC0BFBF7F000185
:1027E00000000000FF00000000FFFFFFFFFFFFFFF1
:1027F000FFFFFFFFFFFFFFFFFFFFFF7FBFBFDFC048
:10280000E0F010575B5D5D5E5E5F5F5F5F5F5F5F27
:102810005F5F5F5F5F5F5F5F1FFFFFFFFFFFFFFFA8
:102820001F5F5F5F5F5F5F5F5F5F5F5F5F5F5F5FF8
:102830005F5F5F5F5F5F5F5F5F5F5F5F5F5F5F5FA8
:102840005F5F5F5F5F5F5F5F5F5F5F5F5F5F5F5F98
:102850005F5F5F5F5F5F5F5F5F5F5F5F5F5F5F5E89
:102860005E5C5C18F7F0E0E0C0DFBFBF7FFFFFFFFA
:10287000FFFFFFFF1014000CFEFEFEFEFFFFFFFF38
:10288000FFFFFEFEFEFE0CC3FFFFFFFFFFFFFFFF8B
:10289000FFFFFFFFFFFFC3207FFFFFFFFFFFFFFFE3
:1028A000FFFFFFFFFF7F201018F3050D0DEDEEEE8B
:1028B000EEEE0E0E0D0D0D05F33C818282FBFBFB4F
:1028C000FBFB0202028282813CDFA020407D7D7DF5
:1028D0007D7D4141414020A0DF501803FF000000F2
:1028E0000078787800000103FFFF0000000078788E
:1028F0007878F8F8FF07FB0F000080F88000000FE1
:10290000FF03FF00000000F8F8F800000103FFFFDC
:10291000000000007FFFC37F00000000FF8FBFA703
:10292000A1A1E0F8F87800010107FF00FF00000016
:1029300000FC0CFC00000207FFFF000000007C7C94
:102940007C7C7F7FCFF01F000000C747C7000000DE
:102950001FF0FF000000007F7F7F00000000FFF9F4
:10296000F7EC08F800000000F8F8FCFFFFFFFFFF9D
:1029700003FF6161606060FCFEFFFFF0F7F4F4F4B8
:10298000FCFFF0F7F4F4F4FCF3F7F4F4F4F4F4F4EB
:10299000F4F4F4FCF3F7F4F4F4FCFFF0F7F4F4F4DB
:1029A000FCF3F7F4F4F4F4F4F4F4F4FCFEFFFFFFAA
:1029B000FFFFF0F7F4F4F4FCFFFFFFFFFFFFFFFF62
:1029C000F0F7F4F4F4F4FCFFFFFFFF080800606E7A
:1029D0000202626E0080606E120A626E01121807B7
:1029E00011CDECF4F6EF1FBFC7F38D26068CF9E38B
:1029F0000F009F3F4783934780FFEFDF3F3F3FBF7D
:102A00009FC7E08087CDE6F6F8FCFFFFFFFFFFBF22
:102A10003F1FDDFFFE0711CDECF4F6EF1FBFC7F33C
:102A2000FD7E3E3C79E30F00912064F1FF7F80FF43
:102A3000EFDF3F3C39B89CC7E08087CDE6F6F8FC75
:102A4000FFFFFFFFFFBF3F1FDDFFFE0711CD2C146F
:102A5000962F1FBFC7F3FDFEFEFCF9E30F009F3F5B
:102A60007EFCFC7E80FFEFDF230901A39FC7E0808F
:102A700087CDE6F6F8FCFFFFFFFFFFBF3F1FDDFF3E
:102A8000FE8040FDFDFDFD3DDD3D0D0D05C5C5C5CF
:102A9000050D0D3DDDFD05050505FD1DFD050505C6
:102AA00005FDFDFDFDFDFDFDFDFDFDFD7D7DFDFD4E
:102AB000FDFD7D7DFDFDFDFD7D7DFDFDFDFDFD7DC6
:102AC000FDFDFDFDFDFDFDFDFDFDFDFDFDFDFDFD36
:102AD0007D7D3D3D9D9DDDDDDDDD873BED55AD55CE
:102AE000AD55AD55ADF9F9FBF3E7CD1D3DFDFDFD50
:102AF000FDFDFDFDFDFDFDFDFDFDFDFDFDFDFDFD06
:102B0000FDFDFDFFFFFFFF00FF00000000FFFFFFD6
:102B100000000000FFFF00000000FF00FF000000B9
:102B200000FFFFFFFFFFFFFFFFFF0FF0FFFE00C0F2
:102B3000C0C0C1FE00C0C0C0C0C7F800C0C0C0C394
:102B4000FC01FFFFFFFFFFFFFFFFFF07F3F9FCFEA4
:102B5000FEFFFFFFFFFFFFFFFF7F3F3EB893260D05
:102B60004A4D4ACDDFDFDF9FBFB53F00003F7F7F8B
:102B70007FFFFFFFFFFFFFFFFFFFFFFFFFFFFFFFE5
:102B8000FFFFFFFFFFFFFFFCF3ECD0D0A0A3A3A348
:102B9000A0D0F0FC83BFA0A0A0E0FF80BFA0A0A0B9
:102BA000A0A1A1A1E1FFFFDFBF9F9CC3A79FC0C75A
:102BB000C7C7A79FC0C7C7C787BFC7C0C7C7C7B753
:102BC000CFA09F9F9FBFBFFFFFFFFFFCF36F9FBF83
:102BD000BF3F9F1F4737B3D1D8BC7FFF1FCFF6FA47
:102BE000FAF2E48C3FFFFFFFFFE18000000080E08D
:102BF000F0F07B7BF70F0FF7FB6B07E7D78F3F7F7B
:102C0000FFFFFFFFFFFFFF0FFF03030303E3E3E308
:102C10000303070FFF3F030303E30303033FFF0F18
:102C2000FF030303030F7FFF03030303FF0FFF03F0
:102C3000030303FF1FEF1F070703E3E3E303070794
:102C40001FFFFFFFFFFFFFFFFF0F33353636B5BA1B
:102C50009200D8007CFFFFC7839300FE8349C1E345
:102C6000FFFF7F1F80FFFFFFFFFFFFFEFCFCFFFF5A
:102C7000F198C3F17F8080C7FFFFF881FFF0C0FFAC
:102C800060BDC1FFFFFFFF00FF00000000E3E3E3C2
:102C9000E0E030D87F0000001E1F1E0000007FC053
:102CA000FF00000000F0800300000000FF00FF00B4
:102CB000000000FF00FF00000000FFFFFF0E0E0EEF
:102CC0000EFFFFFFFFFFFFFFFBC43FFFFFFFF7F318
:102CD000E38180001E3499DBE3F1FEFFFFFFFCFC83
:102CE000FC7E76FFFBFFFEFFFFFFFFFFFFFFFFFF06
:102CF0001F07F1FCFFFFFFFFFFFFFFFFBF1F4F7725
:102D0000787FFF7F7F7F7F405F505050707F7F7F55
:102D10007F7F405F505050707F415F505050704FE8
:102D20005F505050707F4F5C50505070FF603FB00C
:102D3000D0D8E8EFE8EFECE8E8E8EBEBEBE8E8E820
:102D4000ECF7F7F7F7FBFDFD0EC6E0F0FF8F07FB92
:102D5000F9FCFC7E7E7F7F3F3F9F9F8F0F9F9F4EA2
:102D600044B0B39797BF7777F7F7FBFFFFFFFFFFFD
:102D7000FFFCF3070F1F3F3F7F3F8FE3F9FCFEFF90
:102D8000FFFFFE010101010101010101010101013A
:102D90000101010101010101010101010101010123
:102DA00001010101010101010101017F8100FEFF1B
:102DB000FFFFFFFFFFFFFFFFFFFFFFFFFFFFFFFF23
:102DC000FFFF830F7FFFFFFF801F7F7F7F3F3E1C42
:102DD000040400000000000C7E8E76F2797D7E3EB9
:102DE0003F1F0F0703010000010FFFFFFFFFFFFF61
:102DF000FFFF078000000000000003030307070730
:102E00000F3FFF0000000000000000000000000075
:102E100000000000000000000000000000000000B2
:102E200000000000000000000000000000030C3360
:102E3000479F3FFFFFF3E3C7CF9FBF3F3F3F7F7FEA
:102E40007FBFBFFEFCFCF9E7E7F7E2E0C0C080808F
:102E500000000000000000000000010204083040F3
:102E60008040C0E07078389CC6C0FFFFFFFFFFFFC6
:102E70001F80F8FFE000000000000000000000C01C
:102E8000E0E0E10208D4D205077F7F3E1C08411F25
:102E9000FE0105F1F1F111D1B1D111F151515151B1
:102EA000515151515151515151510000FF00007F7A
:102EB0007F09090F06007F7F19396F46007F7F4920
:102EC00049414100266F49497B3200266F49497BC1
:102ED00032FF0000FFFFFFFEFFFEFF0279CD95A548
:102EE000CD790111111101F9F901010000FF000074
:102EF0007F7F09090F06007F7F40404040007C7EB5
:102F00000B0B7E7C00070F78780F07000000000095
:102F10000000FF00001F3F3F33333333333E36366C
:102F20003E363E363E36363E36363E360000FF00F2
:102F3000003E7F41417F3E007F7F0E1C7F7F00006F
:102F40000000000000000000000000000000000081
:102F50000000003F405040404078464141595941AF
:102F60004141415959414141414141414100007F65
:102F7000000001017F7F0101007C7E0B0B7E7C0045
:102F80007F7F09090F06007F7F494941410000000A
:102F9000000000008801A0014B02D0008801A001C0
:102FA0004B026F021003D0007201D0008801D000E4
:102FB000EE01D0009302A0017201D0008801A001AF
:102FC000EE016F021003D0001003D0008801D00082
:102FD000EE01D0008801A0014B02D0008801A001C1
:102FE0004B026F021003D0007201D0008801D000A4
:102FF000EE01D0009302A0017201D0008801A0016F
:10300000EE016F021003D0001003D0008801D00041
:10301000EE01D0000B02D0009302D0001003D000CC
:103020004B02A0011003D000EE01D0004B02D000F3
:103030001003D0004B026F024B0253070080080BB5
:103040000002020200000904000001020200000563
:1030500024001001052401010104240206052406B0
:1030600000010705810310004009040100020A0065
:10307000000007050202400000070583024000002F
:103080000403090412010002EF02014041233680CB
:1030900000010102030141726475696E6F204C4C9E
:1030A00043004142413131303600092711241FBE0F
:1030B000CFEFDAE0DEBFCDBF13E0A0E0B1E0EEE796
:1030C000FBE602C005900D92A63DB107D9F728E0B6
:1030D000A6EDB3E001C01D92AA3AB207E1F718E1EC
:1030E000C6E5D8E104C02197FE010E94B035C53580
:1030F000D107C9F70E9450270C94BD350C940000ED
:10310000809184080895E4E3F4E030EB20E146E0A8
:103110005C983EBD4A95F1F72EBD20E8239507C087
:10312000449140815C9A4EBD8111412D419344915F
:103130002A95B1F73395383B49F70DB40895FC0152
:1031400080913304882311F13FB7F89482E0809393
:10315000E9002091F200822F90E01816190614F46D
:1031600081E090E0882339F0289844E640933204C7
:103170004091F1004083222339F02091F200211187
:1031800003C02BE62093E8003FBF08958FEF9FEF29
:1031900008952FB7F89483E08093E9009091E800B8
:1031A000892F807295FF04C09091F20080E4891B02
:1031B0002FBF089580912A0481110DC082E0809371
:1031C000260484E080932704109229041092280496
:1031D00081E080932A0486E294E00895CF93DF9300
:1031E0001F92CDB7DEB76983DC01ED91FC910280BF
:1031F000F381E02D41E050E0BE016F5F7F4F099504
:103200000F90DF91CF91089583E08093E900809142
:10321000F200882319F08AE38093E80008950E9461
:10322000C91890E00895CF93DF931F92CDB7DEB712
:10323000FC018485958597FD08C02FEF3FEF35870A
:1032400024870F90DF91CF910895CE0101960E94BF
:103250009F18019719F4898190E0F3CF8FEF9FEFCA
:10326000F0CF0F931F93CF93DF931F92CDB7DEB7AD
:103270008C01FC018485958597FF0BC0CE010196DA
:103280000E949F18019771F4898190E0F801958759
:103290008487F801848595850F90DF91CF911F91E8
:1032A0000F9108958FEF9FEFF1CFFC0184859585F5
:1032B00097FD0BC09FB7F89482E08093E90080915E
:1032C000F2009FBF90E0019608959FB7F89482E0C6
:1032D0008093E9008091F2009FBF90E008954091B3
:1032E00020045091210420911E0430911F044217A4
:1032F0005307B4F49091E8009570E1F39091E800E1
:1033000092FD19C08093F1008091200490912104D6
:1033100001968F739927892B19F48EEF8093E8001B
:103320008091200490912104019690932104809330
:10333000200481E0089580E00895DF92EF92FF92EB
:103340000F931F93CF93DF93D82E8A01EB017B015C
:10335000E40EF51ECE15DF0559F0D7FE12C0FE01B2
:1033600084910E946F1921968111F4CF0FEF1FEF06
:10337000C801DF91CF911F910F91FF90EF90DF90E7
:1033800008958881EECF0F931F93CF93DF931F9201
:10339000CDB7DEB782E0898342E450E06EE370E3AC
:1033A00080E80E949D190E94DA18DC0112960D91A6
:1033B0001C910115110589F0D801ED91FC91028055
:1033C000F381E02DBE016F5F7F4FC801099597FD26
:1033D00004C0F80100851185ECCF89810F90DF9141
:1033E000CF911F910F910895615030F02091F1001D
:1033F000FC0120830196F8CF289884E6809332045C
:103400000895AF92BF92CF92DF92EF92FF920F9307
:103410001F93CF93DF936C017B018B01040F151F6A
:10342000EB015E01AE18BF08C017D10759F06991D2
:10343000D601ED91FC910190F081E02DC601099536
:10344000892B79F7C501DF91CF911F910F91FF90E3
:10345000EF90DF90CF90BF90AF900895FC010E9455
:10346000C51A319728F068517C4F8F4F9F4FF9CF85
:10347000AB01FC010E94C51A641775078E079F07F0
:10348000C8F308958F929F92AF92BF92CF92DF922E
:10349000EF92FF920F931F93CF93DF936C017B0109
:1034A0008A0180911703882309F45AC0809133045C
:1034B000882309F455C08091250480FF05C08091C0
:1034C000E00082608093E000E801B12C8AEFA82E32
:1034D00093E0892E2AE3922E209711F4BB20C9F1A4
:1034E0000E94C918811108C0AA94AA20C9F181E0DC
:1034F00090E00E942E1AF0CF8C171D0611F00CF0F0
:103500008C2F9FB7F8948092E9002091E80025FD68
:1035100002C09FBFE1CF282F30E0C21BD30BF701C1
:10352000815020F041914093F100FACFE20EF31E5A
:10353000BB2021F09092E800B12CEBCF8091E80005
:1035400085FDE7CF9092E800BB24B394209709F360
:10355000F3CF5D9884E680932404101611063CF0A6
:1035600081E090E0F6019383828310E000E0C801DF
:10357000DF91CF911F910F91FF90EF90DF90CF904F
:10358000BF90AF909F908F900895A0EFB3E02FB7BA
:10359000F8947D918D919C9166B52FBFA89B05C035
:1035A0006F3F18F47F5F8F4F9F4F22E0660F771FAA
:1035B000881F991F2A95D1F708952091E703E0917C
:1035C000E503F091E603CF0102969093E603809322
:1035D000E503222319F085919491089580819181CA
:1035E0000895E1E7F0E080818D7F80831092910063
:1035F00046985F981092E4030895CF92DF92EF927D
:10360000FF92CF93DF930E94DD1A811520E8920785
:1036100041F4DF91CF91FF90EF90DF90CF900C9429
:10362000F11A21E02093E403813020E8920751F45D
:103630008091E2039091E3039093E6038093E50386
:103640000E94DD1A97FD05C02091E103222309F4B1
:103650005BC02091E003211157C021E02093E803D3
:10366000EC01DF77209709F052C081E08093E903F5
:1036700046983FE9C32E3FE0D32EE12CF12CCAEF50
:10368000D0E0E0919308F09194080995811103C06E
:1036900081E08093E9038091E803882329F08091F9
:1036A000E903882309F446C05F980E94DD1A009759
:1036B00009F444C09C01DE010E947935DC01CB0194
:1036C00029E0B595A795979587952A95D1F71092FA
:1036D00090002AE020939100D0929900C092980027
:1036E0008093EA039093EB03A093EC03B093ED0374
:1036F00080917100826080937100DF91CF91FF9083
:10370000EF90DF90CF9008951092E803A9CF9E012B
:1037100050E040E060E472E48FE090E00E942535E4
:1037200069017A0181E0C81AD108E108F108109214
:10373000E903A7CF4699B8CF5F9AB7CF8FEF9FEF36
:10374000DC01C5CF9C01E1E7F0E090819D7F908393
:1037500081E08093E7033093E6032093E503309301
:10376000E3032093E2030C94FD1A9C01E1E7F0E0EF
:1037700090819D7F90831092E703E5E8F8E0F09355
:10378000E603E093E503F093E303E093E203318380
:1037900020837383628380E090E8958384830C9414
:1037A000FD1A6F927F928F929F92AF92BF92CF92AB
:1037B000DF92EF92FF920F931F93CF93DF934C0111
:1037C000CB013A017C2DFA01649131965491F2E0DB
:1037D0006F0E711CC62FD0E0211102C0EE2009F13E
:1037E000E1E0F0E0352F377011F4F0E0E0E0A52FD4
:1037F000A695A695A695AE0FBF2FB11DAC9FF00163
:10380000AD9FF00DBC9FF00D1124733009F08BC0FB
:10381000EE0FFF1F2E9FD0012F9FB00D11246A0EB7
:103820007B1ED401AC0FBD1F1A161B060CF06CC01A
:1038300020E8821691040CF067C09C01250F311D11
:10384000121613060CF060C0803491050CF05CC0B9
:103850006114710409F458C0382F3770FC0197FDCA
:10386000379623E0F595E7952A95E1F72E2F97FFF8
:1038700004C0332311F02FEF2E0FEE27FF27E81996
:10388000F90997FC02C0F0E0E0E090E89819A03850
:10389000B1050CF4962F9E1BA22F022E000CBB0B21
:1038A0004A2F40952F3F0CF040E0DD24D394852F24
:1038B000877009F4D12C569556955695D50EAD0DB9
:1038C000B11D19971CF058E0D52ED21AD41A240F26
:1038D00050E82503D0011124A80DB91DAE0FBF1F5C
:1038E000649FE00DF11D11246E0E7F1EE32E032E4A
:1038F000000CFF08733009F423C108F5713009F496
:10390000D6C0723009F484C0DF91CF911F910F911E
:10391000FF90EF90DF90CF90BF90AF909F908F90EF
:103920007F906F9008950115110509F473CFEE9EF5
:10393000D001EF9EB00D11240A0F1B1F6BCF7A3FF1
:10394000B1F10D2D020F7B3FF9F62017E9F2BD0111
:103950006C5C7B4FD12CC12CC91608F0A2C0F301BE
:10396000EC0DFD1DE491F0E0AF010E2C02C0440F00
:10397000551F0A94E2F727FD06C0FB018081142F32
:10398000109581238083332361F0273054F45B0149
:10399000F0E8AF0EB11C452F4095F50180818423DE
:1039A0008083FFEFCF1ADF0A6F5F7F4FD5CF0D2DDA
:1039B000020F201709F4A8CFBD016C5C7B4FD12CFE
:1039C000C12CC91608F067C0F301EC0DFD1DE49190
:1039D000F0E0AF010E2C02C0440F551F0A94E2F72D
:1039E00027FD04C0FB018081842B8083332351F0A9
:1039F000273044F45B01F0E8AF0EB11CF501808183
:103A0000852B8083FFEFCF1ADF0A6F5F7F4FD9CFFF
:103A10006FEF70E0032E02C0660F771F0A94E2F783
:103A200060957095972E8D2C820E281509F46CCF19
:103A30008D010C5C1B4FD12CC12CC91630F5F30144
:103A4000EC0DFD1DE491F0E0AF010E2C02C0440F1F
:103A5000551F0A94E2F727FD05C0F80180818623EF
:103A6000842B8083332359F027304CF45801F0E83D
:103A7000AF0EB11CF50180818921852B8083FFEF7A
:103A8000CF1ADF0A0F5F1F4FD8CF2F5F6C0E7D1E3E
:103A9000A058BF4FCACF2F5F6C0E7D1EA058BF4FDE
:103AA00088CF2F5F6C0E7D1EA058BF4F4ECF0E0FDC
:103AB0001F1F8D2D820F281709F426CFBD016C5CC6
:103AC0007B4FD12CC12CC91698F5F801EC0DFD1DCA
:103AD000A490B12C0E2C02C0AA0CBB1C0A94E2F7D5
:103AE000A094B094F301EC0DFD1D8490912C0E2C4C
:103AF00002C0880C991C0A94E2F727FD08C0FB015C
:103B00004081E42FEA214E2F4829FB0140833323D3
:103B100049F027303CF4FB01E058FF4FA080BA2069
:103B2000B928B082FFEFCF1ADF0A6F5F7F4FCBCF8C
:103B30002F5F6C0E7D1E0C0F1D1FA058BF4FBBCFFB
:103B4000E92EF12CE60DF71DAC5CBB4F60E870E090
:103B50006E197F09CE19DF09AE01440F551FC1E070
:103B6000D0E07E01032E01C0EE0C0A94EAF7192F73
:103B70000D2D892E932ECF93DF93ED01EF96EF96C7
:103B80002296A590C590992059F0AE9C5001CE9CEC
:103B9000600127302CF4F880D094FD20FB28F992A6
:103BA00022233AF0FC90C094FC20FA28FD920C9459
:103BB000DA1D11961A9529F70A9551F0182D2395BB
:103BC0001124E40FF11DA60FB11DC60FD11DD9CFD1
:103BD000DF91CF91112498CECF92EF920F931F9344
:103BE0003BEFC32EE12C10E000E00E94D11B1F919F
:103BF0000F91EF90CF900895CF92EF920F931F9374
:103C000032E0C32EE12C10E000E00E94D11B1F9196
:103C10000F91EF90CF900895CF92EF920F931F9353
:103C2000F901202FCC24C3948F010E94D11B1F9136
:103C30000F91EF90CF90089590E00C942E1A8FB1D1
:103C40008095807F669B88601C9B8460089510929D
:103C500084083E98579808953E9A579A81E0809339
:103C60008408089590E1282F81E061FD84E060FDE3
:103C7000880F62FD8295687F969FD0011124A20F64
:103C8000AC5CBB4F0C90082A40FF08260C920895AC
:103C90008038910528F46034710510F40C94321EBC
:103CA000089590911904982329F490911A04982367
:103CB00081E009F480E008958F929F92AF92BF92C5
:103CC000CF92DF92EF92FF920F93CF93DF934B014E
:103CD000EC015C01A40EB11C7B01E20EF11CCA15C3
:103CE000DB05B4F46401C70121E4E216F10414F029
:103CF00080E490E0C816D9064CF4402FB601CE01FE
:103D00000E94481E8FEFC81AD80AEDCF2196E7CF40
:103D1000DF91CF910F91FF90EF90DF90CF90BF9008
:103D2000AF909F908F900895CF92EF920F931F9333
:103D3000CF93DF93EC019E816A3071F48D818C8387
:103D40006985960F9E8381E090E0DF91CF911F916E
:103D50000F91EF90CF900895262F6A3360F460336F
:103D600068F5613269F16E3229F198859C5F8C812A
:103D7000890F8C83E8CF6134C0F36B35E8F08FE9AD
:103D8000860F27548A3188F761E0690F062E000CF0
:103D9000770B8C81082E000C990B3F81313091F408
:103DA0003AEFC32EE12C10E000E04CE451E10E9418
:103DB000D11BDBCF2FE3E8CF2154E6CF2C5FE4CF3C
:103DC0002EE3E2CF4CE451E10E94EC1DCECFCF9226
:103DD000EF920F931F93CF93DF93EC016A3079F446
:103DE0008D818C838E819985890F8E8381E090E00F
:103DF000DF91CF911F910F91EF90CF9008958C811B
:103E00006E3719F48E5F8C83F1CF262F6A3358F406
:103E1000603358F5613259F16E3219F198859D5F22
:103E20008C81890FF0CF6134C8F36B35E0F09FE9E6
:103E3000960F27549A3190F76E816F5F062E000C13
:103E4000770B082E000C990B3F81313091F43AEF3B
:103E5000C32EE12C10E000E04AE850E10E94D11BA3
:103E6000DDCF2FE3E9CF2154E7CF2C5FE5CF2EE361
:103E7000E3CF4AE850E10E94EC1DD0CF0F931F938F
:103E8000CF93DF938C01D0E0C0E0F801EC0FFD1F71
:103E90006491662341F080EA98E00E94E71E892B36
:103EA00011F02196F2CFCE01DF91CF911F910F91AA
:103EB0000895089590E080E00895CF93DF93EC019A
:103EC0008AAD863150F48F5F8AAF8E3030F464E172
:103ED00070E08CED90E00E94B51B81E09AAD9E30C1
:103EE00009F080E0DF91CF910895EF920F93CF9387
:103EF000DF93DB01322FDA960C91DA97063109F461
:103F00003BC081116AC0063108F036C0202F30E076
:103F1000F901ED56F04ED9969C91D997C42F440FD4
:103F2000DD0B0C94B035A91FA91FC11FC11FCD1FE8
:103F3000CD1FCD1FCD1FCD1FCD1FCD1FCD1FCD1F21
:103F4000CD1FD91FD91FD91FD91FE91FE91FE91F8D
:103F5000E91F260F371FF901618570E0A90FB11D18
:103F60008C91E12C00E02EE530E143E750E18C0F2D
:103F70009D2F911D0E940C1EDF91CF910F91EF900C
:103F80000895260F371FF901618570E0A90FB11D53
:103F90008C91EE24E39401E0E6CF260F371FF90160
:103FA000618570E0A90FB11D8C9192E0E92E02E0CD
:103FB000DACF0E50A90FB11D8C918150990BE02ED4
:103FC0002CEC3EE044E95FE068E170E08C0F9D1F5F
:103FD000D1CF85E1801B082FEDCF0231F8F40E30F0
:103FE000A8F1D9968C91D997823031F622EF200F23
:103FF0006CE170E0631B710915969C91042E000C16
:10400000550BFA01E90FF11DCF014AEB5EE0019774
:10401000DF91CF910F91EF900C94EC1D063108F0D9
:10402000ABCFD9969C91D997923009F0A5CF25E1D5
:10403000201B6CE170E0631B710915968C91042EB6
:10404000000C550B840F952F911DDFCFD9969C91B5
:10405000D997923020F09230D1F06FEF06C00C303B
:10406000E0F7FB01E00FF11D618D631B770BA90FDA
:10407000B11D13962C91842F440F990B40E0820FB1
:10408000911DDF91CF910F91EF900C94481EFB0191
:10409000E00FF11D61A5E9CFCF92DF92EF920F9370
:1040A0001F93CF93DF93909165029D3040F012E013
:1040B00001E0973130F0905313E09A3008F012E0AD
:1040C00000E02CE430E06901C61AD108C82F880F3F
:1040D000DD0BE02E28ED3CE048EC5DE0B601CE01C2
:1040E00002960E940C1EE12E012F28ED3CE048ECC8
:1040F0005DE0B601CE0184599F4F0E940C1EDF91F6
:10410000CF911F910F91EF90DF90CF900895EF9294
:10411000FF920F931F93CF93DF93E82E880FFF0832
:10412000E0910603F0E0EF55FD4F018D002E000CED
:10413000110B045011090E0D1F1D40E065E170E0E8
:10414000C8010E94481E40E066E170E0C8010E947C
:10415000481E40E067E170E0C8010E94481EE091FF
:104160009603F0E0E458FC4FC0810C2E000CDD0BF0
:104170002497CE0DDF1D40E06BE170E0CE010E9480
:10418000481E40E06CE170E0CE010E94481E40E015
:104190006DE170E0CE01DF91CF911F910F91FF9003
:1041A000EF900C94481EEF920F9341E050E09091F5
:1041B0009503913011F050E040E0E091960399E1D1
:1041C000949F9001959F300D1124285E3C4FE20F83
:1041D000F32FF11D02A929E230E0A901461B510984
:1041E000BA01E081082E000C990BE02E2EE338E096
:1041F0004AE85AE08E0F911DE7FD9A950E940C1E29
:104200000F91EF900895962F20916502223158F476
:104210002D3008F05AC0223089F1C8F52223A9F0C8
:104220002130F9F00895203360F4253208F07CC085
:10423000233209F463C008F06EC0223209F451C081
:104240000895253308F48CC008956FE170E0691B70
:104250007109082E000C990B20E040E358E00D9600
:104260000BC063E270E0691B7109082E000C990B0A
:1042700021E040E358E00C960C94EC1D67E270E0FE
:10428000691B7109082E000C990B22E0E6CF30E083
:10429000A90143505109BA01660F771F660F771FB6
:1042A000695D7F4F691B7109082E000C990B0C96F4
:1042B00057FDA901FA01F595E795F595E79521E0F8
:1042C00040E358E08E1B9F0BD7CF2D5066E470E083
:1042D000691B7109082E000C990B4EE357E00197FA
:1042E000CBCF6FE170E0691B7109082E000C990BB0
:1042F00020E040E357E080599F4FBECF63E270E07B
:10430000691B7109082E000C990B21E040E357E06E
:104310008F589F4FB1CF67E270E0691B7109082E7B
:10432000000C990B22E0E5CF2552330BB901660F43
:10433000771F660F771F695D7F4F691B7109082E14
:10434000000C990BFC01EF58FF4FC901959587951B
:104350009595879521E040E358E08E0F9F1F8CCF05
:10436000205366E470E0691B7109082E000C990B5C
:104370004EE357E087599F4F7FCFEF920F93909175
:104380000603913041F0D0F0973129F19831B1F125
:104390000F91EF9008952EE030E0A901461B5109DE
:1043A000BA01082E000C990BE12C00E02EE834E055
:1043B0004EED55E00F960E940C1EEACF2EE030E045
:1043C000A901461B5109BA01082E000C990BEE24D5
:1043D000E39401E0EBCF2EE030E0A901461B510948
:1043E000BA01082E000C990B32E0E32E02E02EE811
:1043F00034E04EED55E0885A9F4FDDCF2EE030E09F
:10440000A901461B5109BA01082E000C990B23E0A3
:10441000E22E03E0ECCFEF920F93CF93DF93E09186
:104420000603F0E0EF55FD4FDF01A55BBF4F0C9198
:10443000C82F880FDD0B8081E02E2CE031E04CECA2
:1044400052E06DE170E0FE01E80FF11D87FDFA9585
:10445000CF010E940C1EE091060320910703E23079
:10446000C9F0E63129F1222371F12150F0E0EF5536
:10447000FD4F8081082E000C990B019642EB50E015
:1044800061E270E08C0F9D1FDF91CF910F91EF9053
:104490000C94EC1D2223B9F0215044E051E066E277
:1044A00070E0CE01DF91CF910F91EF900C94FC1D45
:1044B000222349F021504CEF50E065E270E0CE013C
:1044C00082589F4FEFCFDF91CF910F91EF900895DA
:1044D000EF92FF921F93CF93DF93C62FD0E0D19539
:1044E000C195D10910E0E82E880FFF08212F4AED71
:1044F00057E1BE01C7010E94FC1D1F5F28961D30B9
:10450000A9F7DF91CF911F91FF90EF900895CF937E
:10451000C62F20E04CEA50E06AE370E090E00E9491
:10452000FC1DCC2351F020E04BE75EE16AE370E034
:104530008C2F90E0CF910C94FC1DCF910895EF92B9
:10454000FF920F931F93CF93DF93C82F10E000E0EB
:10455000E82EF12C40E0B801C7010E94481E0E5F12
:104560001F4F02341105B1F7CF5F01E010E0D0E03A
:1045700040E0B801CE010E94481E0E5F1F4F01347B
:104580001105B1F7DF91CF911F910F91FF90EF903F
:1045900008958F929F92AF92BF92CF92DF92EF9247
:1045A000FF928135910538F4899768F081E1809315
:1045B000980382E20CC08937910548F18BE0809323
:1045C000980386E104C084E18093980388E2809395
:1045D000990380919503813009F455C038F18430F6
:1045E00069F480919703815080939703811106C0ED
:1045F00080919603882381F08831A1F0FF90EF909D
:10460000DF90CF90BF90AF909F908F9008958EE0F5
:10461000809398038CE1DBCF81E0809395038093B6
:104620009603ECCF1092950387E1F9CF8091960322
:104630008150809396038111E1CF84E080939503AC
:10464000C0909903D12CF12CE12C80909803912CEF
:10465000B12CA12C8C149D04AE04BF048CF4C8189A
:10466000D908EA08FB0841F00E947F34A7019601AF
:104670000E9425356B017C018C0C9D1CAE1CBF1C5F
:1046800080929703BBCF809196038F5F80939603B0
:10469000883109F0B3CFD1CF81E00E94831840E088
:1046A00054E06FEF70E084E394E00C94B635EF9241
:1046B000FF921F93CF93DF9300D000D000D0CDB7EF
:1046C000DEB76FE48FE192E00E94053560E580E29D
:1046D00092E00E94053581E2E82E82E0F82E11E496
:1046E0001A8219821E821D821B831C831D8346E051
:1046F00050E0B701CE0101960E94F5341F5F86E0BD
:10470000E80EF11C83E3E81682E0F80649F72696E6
:104710000FB6F894DEBF0FBECDBFDF91CF911F91D2
:10472000FF90EF900895CF93C091840882E090E0CD
:104730000E94E734C81731F06C2F82E090E0CF91EF
:104740000C941735CF9108951F920F920FB60F92C8
:1047500011248F939F938091E1009091E100937FCA
:104760009093E10083FF0FC01092E90091E09093D5
:10477000EB001092EC0092E39093ED001092330462
:1047800098E09093F00082FF22C093E09093E900BC
:104790009091F200992319F09AE39093E800909198
:1047A0002404992341F0909124049150909324047F
:1047B000911101C05D9A90913204992341F090913A
:1047C0003204915090933204911101C0289A84FFD1
:1047D00018C08091E2008E7E81608093E20080911B
:1047E000E1008F7E8093E100809125048E7E8061C0
:1047F000809325049F918F910F900FBE0F901F9073
:10480000189580FFF7CF8091E2008E7E80618093C3
:10481000E2008091E1008E7E8093E100809125048A
:104820008E7E8160E5CF1F920F920FB60F921124FA
:10483000CF92DF92EF92FF920F931F932F933F93AC
:104840004F935F936F937F938F939F93AF93BF9398
:10485000EF93FF93CF93DF93CDB7DEB76C97DEBFB7
:10486000CDBF1092E9008091E80083FF25C068E089
:10487000CE0145960E94F41982EF8093E8008D895D
:1048800087FF39C09091E80090FFFCCF982F907679
:1048900009F034C19E894F89588D2F89F88C911168
:1048A00031C0803861F5809123048093F10010922B
:1048B000F1008EEF8093E8006C960FB6F894DEBF9F
:1048C0000FBECDBFDF91CF91FF91EF91BF91AF911F
:1048D0009F918F917F916F915F914F913F912F9118
:1048E0001F910F91FF90EF90DF90CF900F900FBE30
:1048F0000F901F9018959EEF9093E800C7CF1092ED
:10490000F100D5CF913059F48111D3CF4130510509
:1049100081F6809123048D7F80932304CACF933046
:1049200049F48111C6CF4130510519F68091230415
:104930008260F2CF953041F48091E80080FFFCCF97
:1049400020682093E300B5CF963009F0A9C00B8D05
:104950001C8D22E01092E900109221041092200494
:10496000F2122EC010921F0410921E040E94C3194E
:104970001F8299E09983FA8291E09E8390EA98875A
:104980009AEF99872091200430912104275F3F4FAF
:104990003C832B838D831092E900109221041092A6
:1049A000200410931F0400931E0449E050E0BE0150
:1049B0006F5F7F4F80E00E949D190E94C31979CFDD
:1049C00010931F0400931E040E94DA18DC01129653
:1049D0000D911C910115110509F451C1D801ED91FA
:1049E000FC910480F581E02DBE016B5E7F4FC80114
:1049F0000995009709F03EC1F80100851185EACFBD
:104A0000F3E0FF120EC08F89882309F440C0823082
:104A100061F440E867E082EA90E30E94D6268111C3
:104A200048CF81E28093EB0047CF813029F440E802
:104A30006BE086E990E3F1CF833099F70E94DA18B2
:104A4000DC011296ED90FC908E010F5F1F4F680104
:104A5000E114F10479F0D701ED91FC910680F78122
:104A6000E02DB801C7010995080F111DF701E08479
:104A7000F184EECFD8011C92F60101900020E9F7F5
:104A80003197BF016C197D0940E0C601C6CF60E8CF
:104A900070E3FB01449150E080E80E949D1909CF2A
:104AA000973009F4BECF983021F481E08093F10073
:104AB00000CF993009F0FDCE837009F0B2CFEFE955
:104AC000F3E081E031E096E32191222371F08093BD
:104AD000E9003093EB00DF0111972C912093EC005B
:104AE0009093ED008F5F873079F78EE78093EA002F
:104AF0001092EA008F8980933304DBCE8B8D9C8DDE
:104B00001092E900109221041092200490931F0447
:104B100080931E04898D811192C08E899D89913A5E
:104B200049F4813209F07DCF47E050E060E173E065
:104B300080E0B3CF913209F074CF833269F48F896A
:104B4000988DB0E0A0E080930C0390930D03A093A8
:104B50000E03B0930F03ADCE803269F48091E8006C
:104B600082FFFCCF67E080E193E00E94F4198BEFB5
:104B70008093E8009ECE823209F09BCE8F8980938D
:104B80001703EEEFFFE7859194918B3F9C4D51F118
:104B9000E0E0F8E08091100390911103A0911203DE
:104BA000B0911303803B9440A105B105F1F48091CD
:104BB000170380FD1AC0EE3F8AE0F80789F587E702
:104BC00097E791838083809160008093220488E13D
:104BD0009BE00FB6F894A895809360000FBE909369
:104BE000600067CEEEEFFAE0D5CF80819181873704
:104BF000974709F05ECEA895809160008861809308
:104C000060008091220480936000EE3F2AE0F2076A
:104C100089F08091FE0A9091FF0A9183808349CEAA
:104C2000808191818737980751F29093FF0A809392
:104C3000FE0AC5CF1092FF0A1092FE0A3ACE0E94D9
:104C4000DA18DC0112960D911C910115110509F479
:104C5000E8CED801ED91FC910190F081E02DBE01EC
:104C60006B5E7F4FC8010995811123CEF801008545
:104C70001185EBCF181619060CF41BCED2CEF1E03D
:104C8000FF12BECE64E870E304CF0F920FB68F938D
:104C90009F93EF93FF938091EF038D5F8D3708F023
:104CA0008D578093EF03E6EFF3E080818E4F808392
:104CB00091819F4F918382818F4F828383818F4F18
:104CC0008383E0EFF3E080818F5F808381818F4F6A
:104CD000818382818F4F828383818F4F83838FB1C2
:104CE0008F6066991C9B88278F3681F48091EE0334
:104CF000981B963068F0E0E0F8E087E780838183D6
:104D000088E180936000F0936000FFCF9093EE0302
:104D1000FF91EF919F918F910FBE0F9018951F9269
:104D20000F920FB60F9211242F933F934F935F93DF
:104D30006F937F938F939F93AF93BF93EF93FF9363
:104D40008091EA039091EB03A091EC03B091ED0305
:104D50000097A105B10539F12091E903211105C0A2
:104D6000369A2091E80321114F9A0197A109B109C0
:104D7000B7FD08C08093EA039093EB03A093EC0384
:104D8000B093ED03FF91EF91BF91AF919F918F9100
:104D90007F916F915F914F913F912F910F900FBE37
:104DA0000F901F9018950E94FD1AECCFEF92FF9282
:104DB0000F931F93CF93DF93F82E192FE62E042F16
:104DC00081E0860F880F0E946F1983E00E946F199F
:104DD000CF2DD12FEC0EFD2EF11CCE15DF05B9F035
:104DE00007FF13C0FE0184910E946F19182F80E005
:104DF0000E946F19812321968111EFCFDF91CF910E
:104E00001F910F91FF90EF9008958881EDCF81E081
:104E1000F5CFE4E3F8E01382128288EE93E0A0E09D
:104E2000B0E084839583A683B78389EA93E0918376
:104E300080838FEF9FEF9587848780E898E1909338
:104E400094088093930880E090E890939208809370
:104E5000910846983E9A5F98579AE0EAF8E01382E4
:104E6000128287EC93E09183808398E0918781E0C0
:104E700080871582168214828783E6E9F8E0138220
:104E800012822BEB33E03183208391878087158258
:104E900016821482878380918408809395080895F0
:104EA000CDB7DEB7EF97DEBFCDBF789483E084BD8A
:104EB00083E085BD81E080936E00E1E8F0E083E06F
:104EC0008083E0E881E08083E1E983E08083E0E9BA
:104ED00081E08083E1EC87E08083E3EC81E0808304
:104EE000E0EC82E08083E2EC81E08083EAE787E027
:104EF0008083806880831092330410922304109280
:104F000025048091D70081608093D70080EA809348
:104F1000D80089B5806189BD89B5826089BD09B431
:104F200000FEFDCF81E090E00E942E1A8091D80013
:104F30008F7C80618093D8008091E000807F809397
:104F4000E0008091E1008E7E8093E1008DE080930F
:104F5000E200559A209A81EC80937C0081E785B924
:104F600087E684B985E38BB98FE38AB9769A6E9820
:104F700080EF81BB10BA80E58CBD81E08DBD85E0FE
:104F80000E941C1E599A85E00E941C1E5C98EEE44B
:104F9000F2E185918EBD00000DB407FEFDCFE8352E
:104FA000C1F75C9A81E88093640081E0809365009A
:104FB0000E941F1E87FF15C05C9885EA8EBD000009
:104FC0000DB407FEFDCF5C9A2E9858982D988091CD
:104FD000640080628093640081E083BF889513BE83
:104FE000FCCF0E941F1E82FF43C02D980E941F1EEF
:104FF00084788438D1F42D9A88EC0E941C1E58982D
:1050000082E090E00E94E7348F3F29F06FEF82E06A
:1050100090E00E94173584EF91E00E942E1A589A72
:105020000E941F1E84788438D9F30E941F1E847149
:105030008431D1F42D9A88EC0E941C1E2E9882E0B7
:1050400090E00E94E734882329F060E082E090E05D
:105050000E94173584EF91E00E942E1A2E9A0E942A
:105060001F1E84718431D9F388EC0E941C1EB9CFB5
:105070002D9A809164008E7F8093640080917A00E5
:10508000806480937A0080917A0086FDFCCF009145
:105090007800109179000E94C51AAB01BC01C801CB
:1050A000B0E0A0E0DC01992788278C019D01040F66
:1050B000151F261F371FC901B80120916400216008
:1050C00020936400611571058105910511F00E941E
:1050D000CE3484E18093080383E284BD8FEF88BDE2
:1050E00081EF809380001092880010928A0082E005
:1050F00090E00E94E734882331F10E942C1E8FE15A
:1051000092E00E94E734182F80E292E00E94E73498
:105110001F3411F4803511F00E945723FAE02F2E2E
:10512000312CA3E04A2E512C612C712CF090F40309
:10513000FF2061F01092F40380E090E0892BB1F33E
:105140000E940000F3CF0E94271ED9CF9091F60352
:105150008091F503192F181B812F20910803121736
:1051600040F48F5F821740F781E083BF889513BEBC
:10517000E3CF81E08093F4039093F503E7E1F4E05B
:105180008081918101968083918390901A049092FE
:1051900019040E941F1E182F80931A04E0911D0409
:1051A000EF3008F0C9CFF0E0E852F74D0C94B0357D
:1051B000E728F1287B2989290D2A1D2A1D2A1D2A65
:1051C0001D2A1D2A1D2A072E412E7231EB31109205
:1051D0000B0310920A0381E080931D0484E1809305
:1051E00008039094912229F180910A0390910B0376
:1051F0001816190634F480E290E090930B03809324
:105200000A0380910A0390910B03892B91F46DE2BC
:1052100070E08EE690E00E94B51B6DE270E08CE2DB
:1052200090E00E94B51B81E090E090930B03809387
:105230000A0380910A0390910B031816190654F47F
:10524000019690930B0380930A03819719F482E0EF
:1052500080931D0420E04EE85EE261E170E080E2B0
:1052600090E00E94FC1D809117049091180460E664
:1052700070E00E948835883488F48033C0F5883126
:10528000E0F420E047E85EE269E170E08BE590E061
:105290000E94FC1D80E00E9483184ECF803688F764
:1052A00020E043E85EE26CE170E08DE290E00E9475
:1052B000FC1D41E060E270E015C020E043E85EE2E2
:1052C0006CE170E08DE290E00E94FC1D20E047E878
:1052D0005EE269E170E08BE590E00E94FC1D41E038
:1052E0006EE170E084E390E00E94321ED3CF41E093
:1052F0006FE170E0F7CF83E080931D0410920B0301
:1053000010920A0384E18093080384E99FE20E94DB
:10531000A21B00910A0310910B030F5F1F4F109304
:105320000B0300930A0380911604882319F081501F
:105330008093160420E041E85AE270E060E090E0DB
:1053400080E00E94FC1D043411050CF047C00034BD
:1053500011050CF04FC020E00C3311050CF04BC0D0
:1053600088E00E94511E882319F084E080931D0478
:1053700084E00E94511E882339F010921C04109280
:105380001B048DE080931D0480E80E94511E811152
:1053900005C080E10E94511E882369F08091840835
:1053A0008823A1F10E94271E0E949323F092950862
:1053B00080E28093160480911604882361F0209186
:1053C000950881E028274BEC59E266E370E084E71A
:1053D00090E00E94FC1D0E944C23AECE08341105C3
:1053E0009CF00837110509F0BBCF10920B03109207
:1053F0000A03B6CF21E04DED59E262E170E080E5AD
:1054000090E00E94FC1DACCF22E0F5CF0E942C1E44
:105410000E949323FF24F394C9CF10921504109295
:105420000B0310920A03109207038AE1809308038A
:1054300085E080931D040E94F11A80911D0487303D
:1054400009F4C1C180F4853009F47AC0863009F4CA
:1054500010C188E00E94511E882309F4BCCF8BE064
:1054600080931D04B8CF893009F4E9C208F444C21E
:105470008A3079F700910A0310910B03015011094A
:1054800010930B0300930A0320E049ED58E26AE110
:1054900070E083E090E00E94FC1D013611050CF4E1
:1054A000A7C3E12C00E027E738E247EA58E26AE0C8
:1054B00070E084E690E00E940C1EE12C00E027E7FB
:1054C00038E247EA58E261E270E08BE590E00E9442
:1054D0000C1EE12C00E027E738E247EA58E261E2DF
:1054E00070E08DE690E00E940C1E60E081E00E947A
:1054F000872280E20E94511E8823A1F010920B03A4
:1055000010920A0389E080931D04109215041092F2
:10551000950388E080939603109297031092980366
:105520001092990380E40E94511E882309F491CFC0
:1055300010920B0310920A031092150488E088C0A1
:1055400010921304809117049091180466E070E0A3
:105550000E948835892B69F480910A0390910B038E
:1055600001968D35910509F476C090930B038093D5
:105570000A03E0900A03F0900B03F701E759FF4D8F
:10558000E491E0930603F701E45FFF4DE491E093BB
:105590000703F701E155F04EE491E093A00282E0A9
:1055A00080939F0220E042E754E270E060E08AEBE3
:1055B0009FEF0E94FC1D01E026E041E168E170E000
:1055C00086E290E00E945C1E8AEB0E940B222091F2
:1055D00015044AEB66E672E0809113040E94751F81
:1055E0008BE30E949F22C7018E5A904EFC012491AA
:1055F000022F0150110BF801E15BF04EE49120E421
:105600002093A5082093A408E093A6081092A70869
:10561000FC018491823039F1833041F1813021F4F1
:1056200085E19FE10E943E1F20E04BE75EE16AE3D7
:1056300070E08BE790E00E94FC1D80E40E94511E08
:10564000882309F406CF10920B0310920A0386E018
:1056500080931D04FECE10920B0310920A0386E085
:1056600080931D0486CF86ED9EE1DCCF81E89EE12C
:10567000D9CF20910A0330910B0363E02132310529
:105680000CF466E081E08093130470E080911704CD
:10569000909118040E948835892B51F42F5F3F4F59
:1056A0002C34310509F47BC030930B0320930A039B
:1056B0006091150486E40E94682200910A0310910B
:1056C0000B030C3011050CF472C0003111052CF0E5
:1056D000C8014E97049708F06AC010920603F801BB
:1056E000E15DFD4DE491E093960381E00431110505
:1056F0000CF480E080939503F801ED51FE4DE491A8
:10570000E0936502F801E956FE4DF490F09215041D
:105710006F2D86E40E94BD216F2D86E40E94D32068
:105720006F2D86E40E9403216F2D86E40E944C2099
:1057300083E40E949F22055B1E4DF8018491282F6F
:105740002150330BF901E85BFE4DE49182E0809338
:10575000A5088093A408E093A608F80104910130FD
:1057600051F1023069F16EE381E00E94872280E20C
:105770000E94511E882339F010920B0310920A03E5
:1057800085E080931D0480E40E94511E882309F463
:1057900060CE10920B0310920A0387E059CF10924B
:1057A0000B0310920A0387E080931D0481CF81E0F0
:1057B0008093060394CF88E191E20E943E1FD3CFED
:1057C00086EC90E2FACF1092130480911704909126
:1057D000180466E070E00E948835892B69F4809196
:1057E0000A0390910B0301968833910509F472C066
:1057F00090930B0380930A0320E042E754E270E0A9
:1058000060E08AEB9FEF0E94FC1D01E026E041E191
:1058100068E170E086E290E00E945C1E8BE30E94EB
:105820009F228AEB0E948720809117049091180490
:1058300063E070E00E948835892B21F487EE93E0C5
:105840000E94C92280910A0390910B03855F9C4DB1
:10585000FC012491022F0150110BF801E85FFC4D6F
:10586000E49120E42093A5082093A408E093A608DF
:105870001092A708FC0184918130B1F18230C9F106
:105880006BE78EE30E94872280E20E94511E8823EC
:1058900039F010920B0310920A0386E080931D04E6
:1058A00080E40E94511E882309F4D3CD10920B038B
:1058B00010920A0388E080931D0410921504109240
:1058C0009503809396031092970310929803109279
:1058D0009903BFCD10920B0310920A031092150486
:1058E00088E080931D0488CF8FEB92E20E943E1FD8
:1058F000C7CF8BE792E2FACF809115048F5F809338
:105900001504803561F40E947F34A30192010E9446
:10591000253560939F021092A00210921504809189
:1059200017049091180466E070E00E948835892B76
:1059300069F480910A0390910B03019684369105D6
:1059400009F46DC090930B0380930A0360E082E238
:105950000E94682280911404811110C08091170464
:105960009091180483709927892B41F484E690E084
:105970000E94C92286E692E00E945D1F20E042E27A
:1059800066E672E081E00E94751F60E082E20E949C
:10599000D32001E020E446E470E060E090E080E0A5
:1059A0000E945C1E83E40E949F2280910A039091D2
:1059B0000B03E1E0F0E08932910514F4F0E0E0E05F
:1059C000E352FC4DE49122E02093A5082093A40823
:1059D000E093A6088230910534F0893291053CF1BC
:1059E0008B97CA9748F16EE381E00E94872280E29C
:1059F0000E94511E882339F010920B0310920A0363
:105A000087E080931D0480E40E94511E882309F4DE
:105A100020CD10920B0310920A0389E019CE109248
:105A20000B0310920A0389E080931D048FCF8CE949
:105A300093E20E943E1FD7CF83E493E2FACF809196
:105A400017049091180466E070E00E948835892B55
:105A500069F480910A0390910B03019687359105B3
:105A600009F45BC090930B0380930A038BE30E94BD
:105A70009F2200910A0310910B03E1E0F0E009324C
:105A8000110514F4F0E0E0E0EC58F74DE49180E407
:105A90008093A5088093A408E093A6080932110515
:105AA0000CF045C0023011050CF04EC017FD47C088
:105AB00020E042E754E270E060E08AEB9FEF0E9452
:105AC000FC1D6BE78EE30E94872280E20E94511E3C
:105AD000882399F010920B0310920A0388E08093B8
