:100000000C94B2080C94DA080C94DA080C94DA0810
:100010000C94DA080C94DA080C94DA080C94DA08D8
:100020000C94DA080C94DA080C948F0E0C94FE0EE3
:100030000C94DA080C94DA080C94DA080C94DA08B8
:100040000C94DA080C94DA080C94DA080C94DA08A8
:100050000C94DA080C94DA080C94DA080C94301139
:100060000C94DA080C94DA080C94DA080C94DA0888
:100070000C94DA080C94DA080C94DA080C94DA0878
:100080000C94DA080C94DA080C94DA080C94DA0868
:100090000C94DA080C94DA080C94DA080C94DA0858
:1000A0000C94DA080C94DA080C94DA0800010100C8
:1000B0000100010100000000000101000101000039
:1000C0000001000101010101000100020103010220
:1000D0000003020100020100000000000300010211
:1000E0000103010101010102F989F90101F901018D
:1000F000E9A9B90189A9F9013921F901B9A9E901E8
:10010000F9A9E90109E91901F9A9F901B9A9F9015F
:1001100000000000003E5B4F5B3E3E6B4F6B3E1CA1
:100120003E7C3E1C183C7E3C181C577D571C1C5EB8
:100130007F5E1C00183C1800FFE7C3E7FF0018248F
:100140001800FFE7DBE7FF30483A060E2629792939
:1001500026407F050507407F05253F5A3CE73C5A6E
:100160007F3E1C1C08081C1C3E7F14227F22145F4B
:100170005F005F5F06097F017F006689956A6060A6
:1001800060606094A2FFA29408047E040810207EA0
:10019000201008082A1C08081C2A08081E10101025
:1001A000100C1E0C1E0C30383E3830060E3E0E066B
:1001B000000000000000005F0000000700070014BE
:1001C0007F147F14242A7F2A12231308646236497D
:1001D0005620500008070300001C22410000412265
:1001E0001C002A1C7F1C2A08083E0808008070306A
:1001F00000080808080800006060002010080402D9
:100200003E5149453E00427F4000724949494621DE
:1002100041494D331814127F1027454545393C4A52
:100220004949314121110907364949493646494969
:10023000291E0000140000004034000000081422B1
:10024000411414141414004122140802015909061F
:100250003E415D594E7C1211127C7F494949363E20
:10026000414141227F4141413E7F494949417F0906
:100270000909013E414151737F0808087F00417F11
:1002800041002040413F017F081422417F4040400F
:10029000407F021C027F7F0408107F3E4141413EA7
:1002A0007F090909063E4151215E7F091929462629
:1002B0004949493203017F01033F4040403F1F202D
:1002C00040201F3F4038403F631408146303047804
:1002D00004036159494D43007F4141410204081024
:1002E00020004141417F040201020440404040405F
:1002F000000307080020545478407F2844443838CD
:1003000044444428384444287F385454541800083E
:100310007E090218A4A49C787F0804047800447D18
:1003200040002040403D007F1028440000417F40B5
:10033000007C047804787C08040478384444443809
:10034000FC1824241818242418FC7C0804040848E9
:100350005454542404043F44243C4040207C1C203A
:1003600040201C3C4030403C44281028444C909095
:10037000907C4464544C44000836410000007700EF
:1003800000004136080002010204023C2623263CFC
:100390001EA1A161123A4040207A38545455592187
:1003A0005555794121545478412155547840205471
:1003B0005579400C1E5272123955555559395454BD
:1003C000545939555454580000457C410002457D2C
:1003D000420001457C40F0292429F0F0282528F02E
:1003E0007C545545002054547C547C0A097F493282
:1003F000494949323248484832324A4848303A41FD
:1004000041217A3A42402078009DA0A07D394444A1
:1004100044393D4040403D3C24FF2424487E49432C
:10042000662B2FFC2F2BFF0929F620C0887E09039D
:1004300020545479410000447D413048484A3238C4
:100440004040227A007A0A0A727D0D19317D2629F0
:10045000292F28262929292630484D4020380808E8
:10046000080808080808382F10C8ACBA2F1028341C
:10047000FA00007B000008142A142222142A14080F
:100480009500220095AA005500AAAA55AA55AA00CF
:100490000000FF00101010FF00141414FF001010D3
:1004A000FF00FF1010F010F0141414FC001414F7E7
:1004B00000FF0000FF00FF1414F404FC14141710D4
:1004C0001F10101F101F1414141F00101010F00024
:1004D0000000001F101010101F10101010F010005E
:1004E0000000FF101010101010101010FF1000006E
:1004F00000FF140000FF00FF00001F10170000FCA9
:1005000004F414141710171414F404F40000FF007A
:10051000F714141414141414F700F7141414171403
:1005200010101F101F141414F4141010F010F00009
:10053000001F101F0000001F14000000FC1400002A
:10054000F010F01010FF10FF141414FF141010100E
:100550001F00000000F010FFFFFFFFFFF0F0F0F0C1
:10056000F0FFFFFF0000000000FFFF0F0F0F0F0F55
:1005700038444438447C2A2A3E147E02020606028D
:100580007E027E0263554941633844443C04407E08
:10059000201E2006027E020299A5E7A5991C2A4981
:1005A0002A1C4C7201724C304A4D4D30304878480C
:1005B00030BC625A463D3E494949007E0101017EF8
:1005C0002A2A2A2A2A44445F444440514A4440404B
:1005D000444A51400000FF0103E080FF000008088A
:1005E0006B6B083612362436060F090F060000180A
:1005F000180000001010003040FF0101001F010131
:100600001E00191D1712003C3C3C3C00000000007D
:10061000F0F89C8E8783878E9CF8F00000FEFF0325
:1006200003030303070EFCF80000FEFF03030303AC
:1006300003070EFCF80000FFFF00000000000000B0
:10064000FFFF0000FEFF8383838383C7EE7C3800B7
:1006500000F8FC0E07030303070EFCF800003F7FC1
:10066000E0C08080C0E07F3FFFFF01010101010188
:1006700001FFFF0000FFFF0C0C0C0C1C3E77E3C1D8
:1006800000007FFFC0C0C0C0C0E0703F1F00001F5F
:100690003F70E0C0C0C0E0703F1F00007FFFC1C1DD
:1006A000C1C1C1E3773E1C00001F3F70E0C0C0C065
:1006B000E0703F1F000000000001FFFF010000008C
:1006C0008D14A1C881CFD9F102AF01FF0100010053
:1006D000010001010101010100010101000101010D
:1006E000000101010002010100020902001C3EFE9E
:1006F000FEB61C0400000001010001000000110111
:100700001018383C7C7EFEFFFFFFFE7E7C3C3818D4
:1007100010F0FCFEFEFFFFFFFFFFFFFFFFFFFFFFEC
:10072000FFFFFFFFFFFFFFFFFFFFFFFFFFFFFFFFD9
:10073000FFFFFFFFFFFFFF7F0F0707070303030311
:10074000030303030303038383C3436323A3539379
:1007500053B3236343C383830303030303030303E9
:100760000303030707070F7FFFFFFFFFFFFF0703D9
:100770000101010101010101010101010101010169
:10078000010101010101010101010307FFFEFEFC5E
:10079000F0000307070F0F0F0F0F0F0F0F0F0F0FB3
:1007A0000F0F0F0F0F0F0F0F0F0F0F0F0F0F0F0F59
:1007B0000F0F0F07070301000000000000000000FA
:1007C00000000000FE03F955F4AAE54AD5AA952ACF
:1007D000152A150A050A04010103FE0000000000A5
:1007E0000000000000000000010307070F0F0F0EBC
:1007F0000C0C0C0C0C0C0C0C0C0C0C0C0C0C0C0C39
:100800000C0C0C0C0C0C0C0C0C0C0E0F0F07070333
:1008100000000000000000000000000000000000D8
:1008200000000000000000000000000000000000C8
:100830000000000000000000000080C0406020B008
:10084000509848AC57A053A5478A4F951F2A7F0060
:1008500000000080408040A050A057AC489850B0A5
:10086000206040C080000000000000000000000088
:100870000000000000000000000000000000000078
:100880000000000000000000000000000000000068
:100890000000000000000000000000000000000058
:1008A0000000000000000000000000000000000048
:1008B00000000000000000000000FF00FE55FDAA3F
:1008C000F952F5AAE50A050A050201020100000035
:1008D000FE55FDAAF952F5AAE50A050A050201022C
:1008E00001000000FF000000000000000000000008
:1008F00000000000000000000000000000000000F8
:1009000000000000000000000000000000000000E7
:1009100000000000000000000000000000000000D7
:1009200000000000000000000000000000000000C7
:10093000E030905848AC54A652AB55A854A951A2E7
:1009400053A5470A1F00804040A050A050A854A8BB
:1009500054A951A253A5470A1F00804040A050A0AF
:1009600050A854A855AB52A654AC48181030E0001B
:100970000000000000000000000000000000000077
:100980000000000000000000000000000000000067
:100990000000000000000000000000000000000057
:1009A000000000000000000000000000008080C087
:1009B0007F003F557FAAFE54FDAAF9020102010003
:1009C0000000000000003F557FAAFE54FDAAF90276
:1009D000010201000000000000003F557FAAFE5404
:1009E000FDAAF902010201000000000000007FC022
:1009F00080800000000000000000000000000000F7
:100A000000000000000000000000000000000000E6
:100A100000000000000000000000000000000000D6
:100A2000000000000000F80CE456D2AB952954AA4F
:100A300055AA55AA5428142911020700E050D0A83D
:100A4000942854AA55AA55AA54281429110207001B
:100A5000E050D0A8942854AA55AA55AA542814297D
:100A600011020700E050D0A8942854AA55AA55AA0C
:100A70005429152B1206040CF80000000000000099
:100A80000000000000000000000000000000000066
:100A90000000000000000000000000000000000056
:100AA0000000000000003F206F55DFAABF557FAA5D
:100AB000FE00000000008080C04060206F55DFAA6B
:100AC000BF557FAAFE00000000008080C04060206B
:100AD0006F55DFAABF557FAAFE000000000080808E
:100AE000C04060206F55DFAABF557FAAFE000000FE
:100AF00000008080C04060203F0000000000000037
:100B000000000000000000000000000000000000E5
:100B100000090200983C6666CACE940000000101FC
:100B200001010100000090386C4CD49CA80000002A
:100B3000010101010100000094CECA66663C9800E4
:100B400000000101010101000000A89CD44C6C3898
:100B5000900000000101010101000009020078FC81
:100B6000FEFAF2E47800000000010101000000003C
:100B700060F0F8E8E8D0600000000001010100002A
:100B8000000078FCFEFAF2E47800000000010101A8
:100B90000000000060F0F8E8E8D06000000000010C
:100BA00001010000000902001C3EFEFEB61C04000C
:100BB00000000101000100000000387CFCFC6C38E2
:100BC000080000000001000100000000041CB6FE47
:100BD000FE3E1C000000000100010100000008387A
:100BE0006CFCFC7C380000000001000100000009E2
:100BF000029864C2999935316A9400010202020296
:100C00000201009068C492B22A6254A80001020254
:100C10000202020100946A31359999C26498000178
:100C200002020202020100A854622AB292C4689031
:100C30000001020202020201000902FC8603010512
:100C40000D1B86FC000103020202030100F0980C58
:100C50000414142C98F0000103020202030100FCAA
:100C6000860301050D1B86FC00010302020203013D
:100C700000F0980C0414142C98F0000103020202F6
:100C800003010009023EE3C1010149E33A0E0003FA
:100C9000020203020300007CC682020292C6741C98
:100CA0000000030203020300000E3AE3490101C100
:100CB000E33E0000030203020203001C74C692021A
:100CC0000282C67C0000030203020300000D011C27
:100CD00036227B517D4D57456B22361C1C36226BCC
:100CE00043557F55616B22361C1C36366F4D5D496E
:100CF0005D496B3A3E1CF0FCFE1F070303818181B6
:100D000081818181818101C1C10101010101010153
:100D100001010101010101010101010101010101C3
:100D20000101818181818181810101010101010133
:100D300001010101010101010101010181810101A3
:100D4000010303071FFEFCF000000000000000008C
:100D5000FEFF030101010101010101010101010186
:100D60000101010101010101010101010101010173
:100D70000103FFFE0000FFFFFF0000000001010172
:100D8000BBFF6D01010000FEFE800076FEAE040692
:100D9000FEFC4800061EFCE0F07E0E02001818184B
:100DA0001000AAFFFFC9CCCFFF7300007C7CF69235
:100DB000D6DE7C0000FEFE4C06020602FFFFC6C225
:100DC0000200000000FFFFFF000000000000000024
:100DD00001FB20F800F800F8A8E800F820F800B8B7
:100DE000A8E800F8888800F888F800F868B800F8E3
:100DF000A888030100000F3F7FF8E0C0C08080801A
:100E000080808080808080808080808080808080E2
:100E100080808080808686838180808080808080C2
:100E200080808080808080808080808080808080C2
:100E300080808080808080808080808080808080B2
:100E400080C0C0E0787F3F0F0080C0C0C0F0F8389D
:100E500098989C0C4C4CDC9C9C98181C3C38309806
:100E6000187870303030F0F07060E0F0E0C0C08092
:100E70000000000000000000F8FC0404E4E4242466
:100E8000A4242464E4E4E4E4E4E4E4E4E4E4E4E462
:100E9000E4E4E4E4E4E4E4E4E4E4E4E4E4E4E4E412
:100EA0006424E4E42424A42424E4E4E42464E4E4C2
:100EB000E4E4E4E40404FCF8000000000000008026
:100EC000C0E0E070383C3C96276787C1403034660C
:100ED00062599983B334444E55D99AA3100CC4ED8A
:100EE000190806220C0C00000000000000000FFF93
:100EF000F880000000000000FFFF0000FFFFC0C0FE
:100F0000FBFBF8FCFFC0C0FDFEFFE1C0DAC8C9FB77
:100F1000FDC8D2CAC4EFDDD0CAD2C6FFFFFFFFF5BD
:100F2000801FFFFFC0C0DDC9C0E2FFFF0AC0FFFF96
:100F3000FFFFFFFF0000FFFF0000003CFEDF0F0788
:100F400021E1F898CCCCC5D3C98286890C0403135F
:100F5000162662290C031114060609090F01000068
:100F60000000000000000000000000000000000081
:100F70000FFFF88080800000FFFF0000FFEF0307F5
:100F8000EFEF3F1FCFEF0F1FFFFFFFFFC7C39B9385
:100F90003B7FFBFBB30393FBFB3F074373071FFF41
:100FA000FF0303BB1303EFFBF37B0383FBF3FFFFA1
:100FB000FFFFFFFF0000FFFF00000000033FFCC039
:100FC00000033FFFFCCDEFFFFFFDDD9FFFFBBBBB41
:100FD000BFFFF776367FFFF88000000000000000BA
:100FE000000000000000000000000000C080109021
:100FF000606048CDC33300003F7F40404F4F4E4CB0
:101000004D4D4F4C4C4D4C4E4F4F4F4F4C4C4D4C0B
:101010004C4F4F4F4F4C4C4F4F4C4E4F4F4E4C4DF3
:101020004F4C4C4F4F4C4C4F4F4F4C4C4F4F4F4FE2
:101030004F4F4F4F40407F3F0000C0C0C0E07B7F1C
:101040001C800003038244068707030D0D0F0783EE
:10105000091B0F0F07233B3F7E78000000000000B4
:10106000808080E030200C6478988432322CCCC9A7
:10107000999446731CC800000000000000000000A6
:101080000000000000000000000000000000000060
:101090000000000000000000000000000000000050
:1010A0000000000000000000000000000000808040
:1010B00080C0F070383C1E9E664703C1A03020A659
:1010C00065519AF332300C4769988A52222CC8E94C
:1010D000191426721C0800000000000000007CFEAD
:1010E000DDD9B998FEF37130B8F1E06033F3E0EC8C
:1010F000E661E1E20301080B0002020200000904BC
:101100000000010202000005240010010524010175
:1011100001042402060524060001070581031000CE
:101120004009040100020A00000007050202400015
:1011300000070583024000000403090412010002B5
:10114000EF02014041233680000101020301417298
:101150006475696E6F204C4C43004142413131301F
:101160003600AD1111241FBECFEFDAE0DEBFCDBFD8
:1011700011E0A0E0B1E0ECEBF2E302C005900D92CB
:10118000A433B107D9F725E0A4E3B1E001C01D9273
:10119000A73DB207E1F718E0C2EBD8E004C0219701
:1011A000FE010E945619C13BD107C9F70E94CA111E
:1011B0000C945C190C940000E3E8F1E030EB20E1C2
:1011C00046E05C983EBD4A95F1F72EBD20E8239598
:1011D00007C0449140815C9A4EBD8111412D4193DD
:1011E00044912A95B1F73395383B49F70DB40895EA
:1011F000FC0180918201882311F13FB7F89482E0CD
:101200008093E9002091F200822F90E018161906D1
:1012100014F481E090E0882339F0289844E6409364
:1012200081014091F1004083222339F02091F200A6
:10123000211103C02BE62093E8003FBF08958FEFF4
:101240009FEF08952FB7F89483E08093E900909181
:10125000E800892F807295FF04C09091F20080E42D
:10126000891B2FBF08958091790181110DC082E003
:101270008093750184E0809376011092780110923A
:10128000770181E08093790185E791E00895CF931C
:10129000DF931F92CDB7DEB76983DC01ED91FC913E
:1012A0000280F381E02D41E050E0BE016F5F7F4F8F
:1012B00009950F90DF91CF91089583E08093E90025
:1012C0008091F200882319F08AE38093E800089562
:1012D0000E94220990E00895CF93DF931F92CDB72B
:1012E000DEB7FC018485958597FD08C02FEF3FEFA1
:1012F000358724870F90DF91CF910895CE01019615
:101300000E94F808019719F4898190E0F3CF8FEFDC
:101310009FEFF0CF0F931F93CF93DF931F92CDB723
:10132000DEB78C01FC018485958597FF0BC0CE014B
:1013300001960E94F808019771F4898190E0F80104
:1013400095878487F801848595850F90DF91CF91EB
:101350001F910F9108958FEF9FEFF1CFFC018485CE
:10136000958597FD0BC09FB7F89482E08093E900C4
:101370008091F2009FBF90E0019608959FB7F89486
:1013800082E08093E9008091F2009FBF90E0089591
:1013900040916F015091700120916D0130916E016B
:1013A00042175307B4F49091E8009570E1F39091DF
:1013B000E80092FD19C08093F10080916F01909137
:1013C000700101968F739927892B19F48EEF809302
:1013D000E80080916F0190917001019690937001E7
:1013E00080936F0181E0089580E00895DF92EF928D
:1013F000FF920F931F93CF93DF93D82E8A01EB01B7
:101400007B01E40EF51ECE15DF0559F0D7FE12C0A4
:10141000FE0184910E94C80921968111F4CF0FEF3B
:101420001FEFC801DF91CF911F910F91FF90EF90B7
:10143000DF9008958881EECF0F931F93CF93DF93B2
:101440001F92CDB7DEB782E0898342E450E066EFB9
:1014500070E180E80E94F6090E943309DC011296CF
:101460000D911C910115110589F0D801ED91FC91A8
:101470000280F381E02DBE016F5F7F4FC8010995A7
:1014800097FD04C0F80100851185ECCF89810F908C
:10149000DF91CF911F910F910895615030F020910D
:1014A000F100FC0120830196F8CF289884E6809310
:1014B00081010895AF92BF92CF92DF92EF92FF9297
:1014C0000F931F93CF93DF936C017B018B01040F6C
:1014D000151FEB015E01AE18BF08C017D10759F008
:1014E0006991D601ED91FC910190F081E02DC6014A
:1014F0000995892B79F7C501DF91CF911F910F9144
:10150000FF90EF90DF90CF90BF90AF900895FC01D7
:101510000E941E0B319728F068517C4F8F4F9F4FD0
:10152000F9CFAB01FC010E941E0B641775078E07F3
:101530009F07C8F308958F929F92AF92BF92CF9268
:10154000DF92EF92FF920F931F93CF93DF936C0183
:101550007B018A0180910D01882309F45AC0809192
:101560008201882309F455C08091740180FF05C071
:101570008091E00082608093E000E801B12C8AEF66
:10158000A82E93E0892E2AE3922E209711F4BB20F7
:10159000C9F10E942209811108C0AA94AA20C9F1A8
:1015A00081E090E00E94870AF0CF8C171D0611F0B1
:1015B0000CF08C2F9FB7F8948092E9002091E800FE
:1015C00025FD02C09FBFE1CF282F30E0C21BD30B07
:1015D000F701815020F041914093F100FACFE20EE3
:1015E000F31EBB2021F09092E800B12CEBCF80914C
:1015F000E80085FDE7CF9092E800BB24B3942097E4
:1016000009F3F3CF5D9884E68093730110161106F9
:101610003CF081E090E0F6019383828310E000E0EB
:10162000C801DF91CF911F910F91FF90EF90DF9054
:10163000CF90BF90AF909F908F900895ADE3B1E0B1
:101640002FB7F8947D918D919C9166B52FBFA89B83
:1016500005C06F3F18F47F5F8F4F9F4F22E0660FEA
:10166000771F881F991F2A95D1F7089590E00C9451
:10167000870A8FB18095807F669B88601C9B846001
:1016800008958EBD00000DB407FEFDCF08956F9242
:101690007F928F929F92AF92BF92CF92DF92EF9202
:1016A000FF920F931F93CF93DF9300D01F92CDB77C
:1016B000DEB76D3089F0A0904101B09042016A30F0
:1016C000F9F410924401109243019501285F3F4FB5
:1016D000309342012093410181E090E00F900F9000
:1016E0000F90DF91CF911F910F91FF90EF90DF90BE
:1016F000CF90BF90AF909F908F907F906F90089504
:10170000009143011091440135E0639FF0011124E1
:10171000E05FFE4FA801712C80E1682E98E0D92E81
:10172000DA0C75E060E0771621F0CF010196649144
:10173000FC01C50140385105D0F480349105B8F45E
:10174000A62FA170CA2E9C0171E021FD74E020FD3E
:10175000770F22FD7295287F629ED0011124A40F7D
:10176000AD57BE4F0C90072AC0FE07260C92669517
:101770000196D812DFCF73944F5F5F4F86E07812E7
:10178000D0CF0A5F1F4F1093440100934301A4CFB1
:10179000CF93C82F0E94390B982F9C2381E09C1374
:1017A00080E0CF910895DA019AE0899FA00DB11DE4
:1017B00011246130F1F415962C911597E22F022E29
:1017C000000CFF0BE330F105A4F414963C91149740
:1017D000EE0FFF1FEE0FFF1FE75AFE4FE30FF11D45
:1017E00037FDFA9580818F3F21F02F5F15962C935E
:1017F000089581E011968C9308958E3508F44FC0BA
:1018000061114DC09DE9980F943088F460914601B4
:1018100024E0629FB0011124282F2356330BF901D5
:10182000E60FF71FE851FF4F6491862F089599E95D
:10183000980F943050F46091480134E0639FB001F8
:101840001124282F2756330BEACF95E9980F9430AF
:1018500050F460914A0134E0639FB0011124282FB5
:101860002B56330BDCCF91E9980F943058F49091BC
:101870004C0134E0939FF00111248F56990BE80F2F
:10188000F91FD0CF9DE8980F943078F690914E01D3
:1018900024E0929FF00111248357990BF0CF60E070
:1018A000C4CFCF92DF92EF92FF920F93CF93DF934B
:1018B000F701949131963491C42ED12CC82F082E63
:1018C000000CDD0BE92FE150FF0BDF01AC0FBD1F5A
:1018D000AC15BD050CF45BC0CC16DD060CF457C08E
:1018E000A62F062E000CBB0B53E0B595A7955A9575
:1018F000E1F7C22FD0E0CA17DB070CF448C06D0136
:10190000C30ED11CCC16DD060CF441C0939FE02D14
:10191000112431E03E0FE09F002D11242A1B677037
:101920004E5F481BE42F299FE00D112480E03E17F5
:1019300058F0E00FFF27FF1FEE0DFF1D8491062ECC
:1019400001C0880F0A94EAF71216CCF42150299F9F
:10195000400D1124A42FA00FBB27BB1FFD01EE0DCE
:10196000FF1DE490341758F0F12C28E030E0261BDE
:10197000310902C0F594E7942A95E2F78E29DF91A8
:10198000CF910F91FF90EF90DF90CF90089580E07E
:10199000F6CF45E551E024E090E080E0821758F46E
:1019A000BC016F5F7F4F840F951FFC0180818823EE
:1019B00041F0CB01F3CF21504C5F5F4F2111ECCFB1
:1019C00081E008956F3F69F4F9015AE0859FE00DC9
:1019D000F11D11249481191644F59150948380E0EF
:1019E0000895613011F5D9019AE0899FA00DB11DCC
:1019F000112414969C911497692F092E000C770BD3
:101A00006330710594F41596EC91159754E0E50256
:101A1000F0011124EB5AFE4FE60FF71F51815F3F93
:101A200021F09F5F14969C93DACF4F3F61F4F90148
:101A30009AE0899FE00DF11D1124958119161CF47F
:101A400091509583CCCF642FA9010E94D30BC7CFAF
:101A5000823021F490914501963068F1FB019B01A1
:101A6000225E3F4F91819E3F19F097819C308CF10F
:101A70003A962E173F07B1F790916A018130E9F04D
:101A80008230F9F09E7F90936A01909167019923CB
:101A9000D1F010926701FB019AE0899FE00DF11DE2
:101AA0001124118210828AE3868382E08783138265
:101AB00010861482158280E008959D7F90936A01BC
:101AC000E8CF9B7FFBCF9091660191509093660188
:101AD000E0CF81E008959AE0FB01899FE00DF11DC0
:101AE00011242EEF21831082899F902D1124985369
:101AF00096839783138220878C5F848385830895E0
:101B000080913A018D3120F48F5F80933A010895DE
:101B100010923A010895089590E080E00895FF92B0
:101B20000F931F93CF93DF9320910001EB019AE075
:101B3000899FC00DD11D112498859F3F21F4998163
:101B4000911101C018869885911105C098819F5FF9
:101B5000921739F09883DF91CF911F910F91FF90E9
:101B600008958B01F82E188281E0F81631F08C81EF
:101B7000882319F08D81811117C00E94800DE0919A
:101B80003A01F0E0E455FF4FE491E13019F1A0F0A3
:101B9000E23071F1E330F9F684E0888782E08987EA
:101BA000980140E06FEF0EC00E94800DE0913A0175
:101BB000F0E0E653FF4FE8CF82E08887198698016E
:101BC00040E061E08F2DDF91CF911F910F91FF9049
:101BD0000C94E20C83E0888782E08987A80161E0A9
:101BE0008F2DDF91CF911F910F91FF900C94D30B0C
:101BF00081E08887198698014FEF60E0E3CF0C946D
:101C0000401981111EC070E090E080E0AB01FC0142
:101C10000E941E0B41505109E109F10928F0685159
:101C20007C4F8F4F9F4FF6CFAB01FC010E941E0BE4
:101C3000641775078E079F07C8F388B18F7388B93B
:101C4000089540E02FEF30E0F901E81BF109CF01E2
:101C5000479A469820E02817190634F4F5E0FA95DB
:101C6000F1F700002F5FF7CF469A479820E028173A
:101C7000190634F435E03A95F1F700002F5FF7CFFD
:101C80004F5F6413E5CFD9CFCF93CDE080914E0164
:101C9000893038F48F5F80934E01C150B9F7CF91EE
:101CA000089510924E0180914C01893020F48F5F8D
:101CB00080934C01F2CF10924C0180914A018930FF
:101CC00020F48F5F80934A01E8CF809166018330D2
:101CD0003CF48F5F8093660164E188EC0E94010E02
:101CE00010924A0180914801893020F48F5F8093DF
:101CF0004801D3CF1092480180914601893068F69F
:101D00008F5F80934601C9CFCF93C8EC6AE08C2FD8
:101D10000E94010EC150C436C9F7CF9108951F9299
:101D20000F920FB60F9211248F939F938091E10031
:101D30009091E100937F9093E10083FF0FC0109298
:101D4000E90091E09093EB001092EC0092E3909305
:101D5000ED001092820198E09093F00082FF22C083
:101D600093E09093E9009091F200992319F09AE39F
:101D70009093E80090917301992341F09091730141
:101D8000915090937301911101C05D9A90918101DE
:101D9000992341F09091810191509093810191118B
:101DA00001C0289A84FF18C08091E2008E7E816075
:101DB0008093E2008091E1008F7E8093E10080912A
:101DC00074018E7E8061809374019F918F910F903A
:101DD0000FBE0F901F90189580FFF7CF8091E20003
:101DE0008E7E80618093E2008091E1008E7E809300
:101DF000E100809174018E7E8160E5CF1F920F9289
:101E00000FB60F921124CF92DF92EF92FF920F93B1
:101E10001F932F933F934F935F936F937F938F9372
:101E20009F93AF93BF93EF93FF93CF93DF93CDB780
:101E3000DEB76C97DEBFCDBF1092E9008091E8005D
:101E400083FF25C068E0CE0145960E944D0A82EFCF
:101E50008093E8008D8987FF39C09091E80090FF5A
:101E6000FCCF982F907609F034C19E894F89588D08
:101E70002F89F88C911131C0803861F58091720101
:101E80008093F1001092F1008EEF8093E8006C9641
:101E90000FB6F894DEBF0FBECDBFDF91CF91FF919B
:101EA000EF91BF91AF919F918F917F916F915F91D2
:101EB0004F913F912F911F910F91FF90EF90DF90E5
:101EC000CF900F900FBE0F901F9018959EEF90939C
:101ED000E800C7CF1092F100D5CF913059F48111AD
:101EE000D3CF4130510581F6809172018D7F80936F
:101EF0007201CACF933049F48111C6CF41305105E8
:101F000019F6809172018260F2CF953041F4809190
:101F1000E80080FFFCCF20682093E300B5CF963027
:101F200009F0A9C00B8D1C8D22E01092E9001092DF
:101F3000700110926F01F2122EC010926E01109279
:101F40006D010E941C0A1F8299E09983FA8291E038
:101F50009E8390EA98879AEF998720916F0130913C
:101F60007001275F3F4F3C832B838D831092E900E4
:101F70001092700110926F0110936E0100936D0129
:101F800049E050E0BE016F5F7F4F80E00E94F6099C
:101F90000E941C0A79CF10936E0100936D010E947C
:101FA0003309DC0112960D911C910115110509F4FC
:101FB00051C1D801ED91FC910480F581E02DBE0165
:101FC0006B5E7F4FC8010995009709F03EC1F8018B
:101FD00000851185EACFF3E0FF120EC08F898823B8
:101FE00009F440C0823061F440E867E08AE591E19D
:101FF0000E947A11811148CF81E28093EB0047CF94
:10200000813029F440E86BE08EE491E1F1CF833038
:1020100099F70E943309DC011296ED90FC908E0135
:102020000F5F1F4F6801E114F10479F0D701ED91C2
:10203000FC910680F781E02DB801C7010995080FD2
:10204000111DF701E084F184EECFD8011C92F60156
:1020500001900020E9F73197BF016C197D0940E03C
:10206000C601C6CF68E371E1FB01449150E080E80E
:102070000E94F60909CF973009F4BECF983021F4B9
:1020800081E08093F10000CF993009F0FDCE83709C
:1020900009F0B2CFEFE0F1E081E031E096E3219189
:1020A000222371F08093E9003093EB00DF01119758
:1020B0002C912093EC009093ED008F5F873079F79F
:1020C0008EE78093EA001092EA008F898093820164
:1020D000DBCE8B8D9C8D1092E900109270011092D6
:1020E0006F0190936E0180936D01898D811192C073
:1020F0008E899D89913A49F4813209F07DCF47E07C
:1021000050E066E071E080E0B3CF913209F074CF27
:10211000833269F48F89988DB0E0A0E0809302014A
:1021200090930301A0930401B0930501ADCE8032DA
:1021300069F48091E80082FFFCCF67E086E091E0DF
:102140000E944D0A8BEF8093E8009ECE823209F008
:102150009BCE8F8980930D01EEEFFFE785919491DF
:102160008B3F9C4D51F1E0E0F8E0809106019091A9
:102170000701A0910801B0910901803B9440A1059D
:10218000B105F1F480910D0180FD1AC0EE3F8AE0A7
:10219000F80789F587E797E791838083809160004E
:1021A0008093710188E19BE00FB6F894A895809325
:1021B00060000FBE9093600067CEEEEFFAE0D5CFDF
:1021C000808191818737974709F05ECEA8958091ED
:1021D000600088618093600080917101809360004D
:1021E000EE3F2AE0F20789F08091FE0A9091FF0A03
:1021F0009183808349CE808191818737980751F2FE
:102200009093FF0A8093FE0AC5CF1092FF0A1092A6
:10221000FE0A3ACE0E943309DC0112960D911C9100
:102220000115110509F4E8CED801ED91FC9101905A
:10223000F081E02DBE016B5E7F4FC80109958111D1
:1022400023CEF80100851185EBCF181619060CF482
:102250001BCED2CEF1E0FF12BECE6CE371E104CF13
:102260000F920FB68F939F93EF93FF9380913C0152
:102270008D5F8D3708F08D5780933C01E1E5F1E0EB
:1022800080818E4F808391819F4F918382818F4F78
:10229000828383818F4F8383EDE3F1E080818F5FC1
:1022A000808381818F4F818382818F4F828383815D
:1022B0008F4F83838FB18F6066991C9B88278F36E1
:1022C00081F480913B01981B963068F0E0E0F8E0E3
:1022D00087E78083818388E180936000F0936000CA
:1022E000FFCF90933B01FF91EF919F918F910FBE94
:1022F0000F901895EF92FF920F931F93CF93DF9358
:10230000F82E192FE62E042F81E0860F880F0E94E9
:10231000C80983E00E94C809CF2DD12FEC0EFD2EF5
:10232000F11CCE15DF05B9F007FF13C0FE01849143
:102330000E94C809182F80E00E94C80981232196B5
:102340008111EFCFDF91CF911F910F91FF90EF900F
:1023500008958881EDCF81E0F5CFE3E8F5E01382C1
:10236000128288EE93E0A0E0B0E084839583A68398
:10237000B78389E191E0918380838FEF9FEF958709
:102380008487E3EDF5E0138212828BE291E0918382
:1023900080830895CDB7DEB7A997DEBFCDBF78940F
:1023A00083E084BD83E085BD81E080936E00E1E839
:1023B000F0E083E08083E0E881E08083E1E983E08E
:1023C0008083E0E981E08083E1EC87E08083E3ECD7
:1023D00081E08083E0EC82E08083E2EC81E0808336
:1023E000EAE787E080838068808310928201109200
:1023F0007201109274018091D70081608093D700A0
:1024000080EA8093D80089B5806189BD89B58260F2
:1024100089BD09B400FEFDCF81E090E00E94870AEB
:102420008091D8008F7C80618093D8008091E000FB
:10243000807F8093E0008091E1008E7E8093E100B8
:102440008DE08093E200559A209A81EC80937C0085
:1024500081E785B987E684B985E38BB98FE38AB9CB
:10246000769A6E9880EF81BB10BA80E58CBD11E042
:102470001DBD85E00E94360B599A85E00E94360BFF
:102480005C98E0ECF6E085910E94410BEA3CD9F7BC
:102490005C9A81E8809364001093650080E00E945C
:1024A000DC0880E80E94C80B882391F05C9885EADC
:1024B0000E94410B5C9A2E9858982D988091640048
:1024C00080628093640081E083BF889513BEFCCF57
:1024D00084E00E94C80B882309F443C02D9884E847
:1024E0000E94C80B8823D1F02D9A88EC0E94360BED
:1024F000589882E090E00E9440198F3F29F06FEFDA
:1025000082E090E00E94481984EF91E00E94870ADF
:10251000589A84E80E94C80B8111FBCF84E10E9485
:10252000C80B8823D1F02D9A88EC0E94360B2E9888
:1025300082E090E00E944019882329F060E082E068
:1025400090E00E94481984EF91E00E94870A2E9A39
:1025500084E10E94C80B8111FBCF88EC0E94360BEE
:10256000B7CF2D9A82E090E00E94FF0D882309F4F6
:10257000C1C03E9A579A81E090E00E94FF0D81FF12
:102580000FC0282F2470922E82FD2E9801EF1FEF8E
:1025900080E40E94C80B882309F4AFC02E9A589A91
:1025A00082E30E94360B0E94390B8111F9CF909182
:1025B00001019B8381E08A879D878C8B9F8B8E8F07
:1025C000F0914E01E0914C0150914A014091480137
:1025D000BAE02F2F30E0EB9F200D311D1124A4E62F
:1025E0005A9F200D311D112468EE73E0469FC001F3
:1025F000479F900D1124280F391F10914D01809194
:102600004F0190E01B9F800D911D1124B0914B0153
:10261000BA9F800D911D112410914901169FD00180
:10262000179FB00D11248A0F9B1F8217930760F428
:10263000F0934F01E0934D0150934B0140934901BA
:1026400080914601809347011092650110926901C3
:1026500081E080936701109250011092450183E060
:102660008093660110926801109246011092480111
:1026700010924A0110924C0110924E019E012B5E65
:102680003F4F38A32F8F10926C0110926B018091F5
:102690004501843118F48F5F809345019091450185
:1026A0008EE1891B8093000180930101953018F021
:1026B00081E08093500187E080936A0125E631E054
:1026C000E5E5F1E08FEF8083818382838383349615
:1026D0002E173F07C1F745E551E084E030E020E0E8
:1026E000281708F0ACC0FA01E20FF31F10822F5F29
:1026F0003F4FF6CF3E9857983ECF992029F00430AF
:10270000110511F42E9A589881E00E94DC08302FB0
:102710003770832EA80163E0559547956A95E1F7D8
:10272000CA019695982F8827979587958D579E4F24
:1027300070E060E04E3FAFEF5A0781F1DC0130E01E
:1027400020E0FB01E05FF94F7F016C01F0E8CF0E64
:10275000D11CF701E20FF31FE491F0E03F01082CD8
:1027600002C0660C771C0A94E2F74F3F540739F019
:102770005496BC905497B6285496BC92549788208F
:1027800039F05601A20EB31EF50164887628748ACA
:102790002F5F3F4F119628353105D9F64F5F5F4FB8
:1027A00080589F4F685A7F4F603B710509F0C2CF38
:1027B00080E00E94DC088FE00E94360B0F5F1F4F05
:1027C0000931110509F0E4CE992011F0589A2D989D
:1027D00080E991E00E94870A2D9A81E090E00E94B2
:1027E000FF0D80FFDDCE8AE090E00E94FF0D9FEF9D
:1027F000980F9E3F08F0D4CE22E330E0309344019E
:102800002093430128E330E03093420120934101BB
:102810000BE010E0682F83ED95E00E94470BC801A4
:102820000E94FF0D0F5F1F4F0131110599F780E0E6
:102830000E94DC0888EE93E00E94870AB1CE8150A6
:102840004C5F5F4F81114ACFBE016F5F7F4F80E0C9
:102850000E946B0DBE016F5F7F4F81E00E946B0D88
:10286000BE016F5F7F4F82E00E946B0D212C812C97
:10287000912C54010E94800D88E00E94C80B88238F
:10288000B1F110924E0110924C0110924A01109237
:1028900048011092460181E08093690168EC86E965
:1028A0000E94010E68EC84E60E94010ED22C23E007
:1028B000722E33E0632E42E1542E209068012220D4
:1028C00009F468C091E080915501813009F490E0ED
:1028D00045E551E084E030E020E0281708F046C0EC
:1028E000FA01E20FF31F90832F5F3F4FF6CF84E092
:1028F0000E94C80B8111C5CF80916901811114C05C
:1029000080914F0180934E0180914D0180934C0145
:1029100080914B0180934A01809149018093480145
:10292000809147018093460180916501823008F0D3
:1029300071C28F5F8093650124013501D301C2010B
:1029400088199909AA09BB0988349105A105B1051F
:1029500008F063C28FB7F894409051015090520133
:1029600060905301709054018FBFE8CF81504C5F4D
:102970005F4F8111B0CF2A9420926801222009F480
:1029800082CE68E288EC0E94010E81E080936701AC
:102990002D2CCACFBE016F5F7F4F81E00E948F0D4B
:1029A000BE016F5F7F4F82E00E948F0D89858F3F50
:1029B00049F48A81811106C08981863009F095C069
:1029C0001986198280E20E94C80B882389F08985C4
:1029D00081110EC00E94800D34E0398782E08A8721
:1029E0009E012F5F3F4F40E06FEF80E00E94E20CBE
:1029F00080E40E94C80B882371F0898581110BC087
:102A000082E089871A869E012F5F3F4F40E061E098
:102A100080E00E94E20C80E10E94C80B882369F0EC
:102A2000898581110AC0698682E08A87AE014F5F7D
:102A30005F4F61E080E00E94D30B80E80E94C80BEA
:102A4000882381F0898581110DC00E94800D81E06D
:102A500089871A869E012F5F3F4F4FEF60E080E02D
:102A60000E94E20C81E0D81251C080916A01882353
:102A700041F080FF3DC0BE016F5F7F4F80E00E944C
:102A8000280D8091660187FD9BCDD3948E010F5F49
:102A90001F4F7801C12CF70181818F3F29F482817A
:102AA0008823C1F181508283C394FAE0EF0EF11CB8
:102AB00023E0C212F0CF82E0482EEE24E394CC242F
:102AC000C39494E6392ED80111968C9111978230D7
:102AD000D1F108F442C0833009F461C12394065F48
:102AE0001F4FB3E02B12EFCFE8CE8F5F89836ACF01
:102AF00081FF05C0BE016F5F7F4F81E0C0CF82FFC5
:102B0000C0CFBE016F5F7F4F82E0B9CFB2E0DB1272
:102B1000BCCF0ACF809101018283BE016F5F7F4FDE
:102B20008C2D0E946B0D80916A01B1E0CB1639F0BB
:102B3000E2E0CE1631F0816080936A01B5CF826009
:102B4000FBCF8460F9CFF80187818C5F8783893759
:102B50002CF2EFEF1196EC93C1CF18968C91189749
:102B600081508E3F38F413968C911397811102C0D7
:102B70001396EC92B2E0B9A3F8018381882309F49B
:102B800089C0F084F2E0FF128CC0282F30E0220FC1
:102B9000331FF901E653F94F9491D8011696EC9141
:102BA0001697E90F1696EC931697F901E553F94F2E
:102BB000E49117962C911797E20F1796EC938F5F7D
:102BC000F8018383803108F465C06AE080EA0E94DE
:102BD000010E90915001D80111968C91119791118D
:102BE000AAC01596EC91159714969C91B4E0EB024F
:102BF000F0011124EB5AFE4FE90FF11D97FDFA95F4
:102C0000908191111FC021101DC081111BC00E9415
:102C1000440ED8011596EC91159714968C91B4E05A
:102C2000EB02F0011124EB5AFE4FE80FF11D87FD76
:102C3000FA95E0820E94C90C882321F0C0926701B6
:102C400050926801F80113822FEF2087818582302E
:102C500009F47186D80119968C911997811102C0D7
:102C60001996EC92F80181818130A1F4848183303E
:102C700009F07EC0F1E0FF127BC090916C019111D0
:102C800077C0F0926C01F09267011D821E82D8011C
:102C900011968C93F9A1F13009F420CF21E029A3FA
:102CA0006BCFB3E0FB1211C0282F30E0220F331F8F
:102CB000F901E653F94FE491D80116969C911697C5
:102CC0009E1B16969C93169770CFB1E0FB121DC009
:102CD00020E130E0281B3109220F331FF901E653B0
:102CE000F94F9491D8011696EC911697E90F169624
:102CF000EC931697F901E553F94FE49117969C91DF
:102D000017979E1B17969C935ACFB4E0FB1257CF90
:102D100020E130E0281B3109220F331FF901E6536F
:102D2000F94FE491D80116969C9116979E1B169622
:102D30009C931697DFCF211085CF811183CF1596F5
:102D4000EC91159714968C91B4E0EB02F0011124EC
:102D5000EB5AFE4FE80FF11D87FDFA95808191E057
:102D6000811190E09083811165CF0E94440E62CF63
:102D7000F8018581833061F4F4E0FF1209C090917D
:102D80006B01911105C0C0926B01C09267017DCFAC
:102D9000F801418221107ECF0E94840E7BCF1796CE
:102DA0008C916AE0B32DB81B8B2F0E94010E2091ED
:102DB000670132E0F80186818A3389F49781923085
:102DC00071F41182211023C020E0D80116968C9155
:102DD00016978A3394F48F5F16968C930EC0222038
:102DE00019F0209367017ACED80117969C91179716
:102DF00093303CF0915017969C93313091F331E031
:102E0000D9CF8B3314F38150F8018683DECF109233
:102E1000670164CE109265018FCD10E0EEEFEBA359
:102E2000FCEFFCA31AA219A25C9880EB810F0E9410
:102E3000410B82E00E94410B80E10E94410B5C9AB1
:102E4000912C812C29A13AA12F5E384F3FA32EA3AC
:102E500089A19AA18A50934F99A788A7D82C90E866
:102E60008916910409F4AAC180916901811110C0E9
:102E7000E8A5F9A5E80DF91DC490612F882D0E94E1
:102E8000FD0B8C290E94410B2FEF821A920AE6CF8C
:102E900080916C01B12C81110DC07DECE72E7CE09E
:102EA000F72E00916501212F482D68E280E60E94EF
:102EB000510CB82E80916B01A12C81110DC06DECCD
:102EC000E62E6CE0F62E00916501212F4D2D68E273
:102ED00080E10E94510CA82E123008F0CFC0A2E26F
:102EE000AD1508F4CBC080916601823009F49AC018
:102EF000833009F4ABC0813009F0C0C05AEEE52E32
:102F000056E0F52E00E0212F4D2D61E085E00E9476
:102F1000510CC82EC0948A81823081F023E8E22EC1
:102F20002CE0F22E0A85212F4D2D68858F810E947D
:102F3000510CEFEFF0E0E81BF109CE228C858230D6
:102F400081F099E3E92E9CE0F92E0C89212F4D2D7B
:102F50006A8989890E94510C2FEF30E0281B3109C2
:102F6000C2228E89823081F08FEEE82E8BE0F82E1F
:102F70000E8D212F4D2D6C8D8B8D0E94510CAFEF3E
:102F8000B0E0A81BB109CA22A5EAEA2EABE0FA2EEE
:102F90000A85212F4D2D68858F810E94510C382E76
:102FA000BBE5EB2EBBE0FB2E0C89212F4D2D6A8952
:102FB00089890E94510C8DA3AB2801E1E02E0BE022
:102FC000F02E0E8D212F4D2D6C8D8B8D0E94510C6E
:102FD000B82EA328612F8D2D0E94FD0B382EBDA188
:102FE000BA29BDA3123008F04BC080915501813041
:102FF00009F0E2C0FEEFEF2EF6E0FF2E00E0212FF9
:103000004D2D66E086E30E94510CA82EEEA1FFA193
:10301000E80DF91DE4918DA18B2983298A298E2B36
:103020008C2130CF4AEEE42E46E0F42E00E0212F32
:103030004D2D61E085E00E94510CC82E212F4D2DB1
:1030400061E08EE00E94510C8C2963CF3AEEE32EB2
:1030500036E0F32E00E0212F4D2D61E085E00E9447
:10306000510CC82E212F4D2D61E08EE00E94510C95
:10307000C82A212F4D2D61E087E1E4CF80E049CFC0
:10308000EBA1E23018F580915601A12C813061F45A
:10309000EEEFEE2EE6E0FE2E00E0212F4D2D64E156
:1030A00080E40E94510CA82E80915901813009F0D2
:1030B000ADCF7EEFE72E76E0F72E00E0212F4D2DED
:1030C00064E18CE20E94510CA82AA0CFFCA1F2304E
:1030D00080F580915701A12C813061F46EEFE62ECE
:1030E00066E0F62E00E0212F4D2D62E28AE40E9478
:1030F000510CA82E80915A01813061F45EEFE52ECB
:1031000056E0F52E00E0212F4D2D62E286E30E946D
:10311000510CA82A80915D01813009F077CF4EEFE4
:10312000E42E46E0F42E00E0212F4D2D62E282E2F3
:10313000C9CF163009F040C080915801A12C8130D0
:1031400061F43EEFE32E36E0F32E00E026E04D2D55
:1031500060E384E50E94510CA82E80915B018130D0
:1031600061F42EEFE22E26E0F22E00E026E04D2D57
:1031700060E380E40E94510CA82A80915E018130B6
:1031800061F49EEFE92E96E0F92E00E026E04D2D49
:1031900060E38CE20E94510CA82A80916101813089
:1031A00009F034CF8EEFE82E86E0F82E00E026E01E
:1031B0004D2D60E388E186CFA12C28CF1F5F89A128
:1031C0009AA180589F4F9AA389A39CA19F5F9CA31B
:1031D000ABA1AF5FABA3183009F026CE8A81811175
:1031E00047C08E010F5F1F4F2F81022E000C330B43
:1031F000F8018089082E000C990BB9016350710900
:10320000AC014D5F5F4F4617570754F12D5F3F4F9D
:1032100003972817390724F12885022E000C330B59
:103220008189082E000C990BB90163507109AC011A
:103230004D5F5F4F461757079CF02D5F3F4F039739
:10324000281739076CF0BE016F5F7F4F80E00E9446
:103250006B0D80916A01816080936A010E94840EE7
:10326000065F1F4F2F8D38A12017310709F0BCCF03
:103270008091690153014201882309F4FBCA16CBEE
:10328000F999FECF92BD81BDF89A992780B508952E
:10329000262FF999FECF1FBA92BD81BD20BD0FB672
:1032A000F894FA9AF99A0FBE01960895EE0FFF1F4F
:0C32B0000590F491E02D0994F894FFCFF4
:1032BC001E1EFFFFFFFF00E100000000000000C128
:1032CC0080810000000000000047099B0A68095D2E
:1032DC0009AE096C098A0900000000470B5A0A8CD8
:0432EC000D8B0D0039
:00000001FF
