:100000000C9423080C944B080C944B080C944B084C
:100010000C944B080C944B080C944B080C944B0814
:100020000C944B080C944B080C940A140C947914FF
:100030000C944B080C944B080C944B080C944B08F4
:100040000C944B080C944B080C944B080C944B08E4
:100050000C944B080C944B080C944B080C94AB1666
:100060000C944B080C944B080C944B080C944B08C4
:100070000C944B080C944B080C944B080C944B08B4
:100080000C94F5160C944B080C944B080C944B08EC
:100090000C944B080C944B080C944B080C944B0894
:1000A0000C944B080C944B080C944B08FE01010176
:1000B0000101010101010101010101FE0304040428
:1000C000040404040404040404040403FC02010101
:1000D000010101010101010101010101010102FC14
:1000E000FF00000000000000000000000000000011
:1000F000000000FF030408080808080808080808AA
:10010000080808080808040300FE01012121212134
:10011000C101618101816101FE0000FE0101E10177
:100120000101E101618101816101FE0000FE010127
:1001300081C1E1F1F9F1E1C181010101FE0000FE9F
:10014000010101014141C1C1C10101010101FE00E3
:1001500000FE01010101010181C9E97939F90101BB
:10016000FE0000FE0101010121111191F161010167
:100170000101FE0000FE0101E1A1A1A121016181B7
:1001800001816101FE000000007F808088898989EB
:1001900086808C8281828C807F00007F808081813C
:1001A00081818F808C8281828C807F00007F808023
:1001B0009F83839F9F9393939F8080807F00007F86
:1001C0008080989C8E8783818780808080807F005C
:1001D000007F8080989C8E87838180808080808053
:1001E0007F00007F8080808080808D8D80808080F7
:1001F00080807F00007F80808888888887808C82CC
:1002000081828C807F00000000FE0101010101015C
:100210008181010101010101FE0000FE01011919A6
:1002200001010101010101010101FE0000FE0101C6
:10023000191901018181010101010101FE0000FE86
:100240000101191901010101010119190101FE0042
:1002500000FE010119190101818101011919010132
:10026000FE0000FE01019999010101010101999926
:100270000101FE00C040800080408000C080C000BE
:10028000C000C00080404000007F8080808080806F
:1002900081818080808080807F00007F808080805E
:1002A000808080808080989880807F00007F808020
:1002B0008080808081818080989880807F00007F0E
:1002C00080809898808080808080989880807F004F
:1002D000007F80809898808081818080989880803D
:1002E0007F00007F808099998080808080809999AC
:1002F00080807F0007050200030403000703070056
:100300000704070005050300FF00000000000000CF
:1003100000000000000000000000000000000000DD
:1003200000000000000000000000000000000000CD
:10033000FF010202020202020202020202020202A1
:10034000020202020202020202020202020202028D
:100350000202020202020202020150332D00503258
:100360002D0050312D0000000000003E5B4F5B3E31
:100370003E6B4F6B3E1C3E7C3E1C183C7E3C181C6A
:10038000577D571C1C5E7F5E1C00183C1800FFE761
:10039000C3E7FF0018241800FFE7DBE7FF30483A07
:1003A000060E2629792926407F050507407F052569
:1003B0003F5A3CE73C5A7F3E1C1C08081C1C3E7FF1
:1003C00014227F22145F5F005F5F06097F017F00B8
:1003D0006689956A606060606094A2FFA2940804D8
:1003E0007E040810207E201008082A1C08081C2AF9
:1003F00008081E101010100C1E0C1E0C30383E3851
:1004000030060E3E0E06000000000000005F0000F7
:100410000007000700147F147F14242A7F2A122368
:100420001308646236495620500008070300001C78
:100430002241000041221C002A1C7F1C2A08083E81
:100440000808008070300008080808080000606094
:100450000020100804023E5149453E00427F400002
:1004600072494949462141494D331814127F1027DA
:10047000454545393C4A4949314121110907364929
:10048000494936464949291E0000140000004034FD
:100490000000000814224114141414140041221402
:1004A0000802015909063E415D594E7C1211127C29
:1004B0007F494949363E414141227F4141413E7F8A
:1004C000494949417F090909013E414151737F086A
:1004D00008087F00417F41002040413F017F081410
:1004E00022417F404040407F021C027F7F04081071
:1004F0007F3E4141413E7F090909063E4151215E4F
:100500007F09192946264949493203017F01033FE2
:100510004040403F1F2040201F3F4038403F631471
:1005200008146303047804036159494D43007F4173
:1005300041410204081020004141417F04020102B0
:1005400004404040404000030708002054547840D5
:100550007F284444383844444428384444287F3869
:100560005454541800087E090218A4A49C787F08EB
:1005700004047800447D40002040403D007F102866
:10058000440000417F40007C047804787C08040427
:10059000783844444438FC1824241818242418FCBF
:1005A0007C08040408485454542404043F44243C64
:1005B0004040207C1C2040201C3C4030403C4428D3
:1005C0001028444C9090907C4464544C440008366D
:1005D00041000000770000004136080002010204DB
:1005E000023C2623263C1EA1A161123A4040207AFB
:1005F0003854545559215555794121545478412145
:100600005554784020545579400C1E527212395579
:100610005555593954545459395554545800004576
:100620007C410002457D420001457C40F02924299F
:10063000F0F0282528F07C545545002054547C5473
:100640007C0A097F493249494932324848483232A6
:100650004A4848303A4141217A3A42402078009D48
:10066000A0A07D39444444393D4040403D3C24FFF6
:100670002424487E4943662B2FFC2F2BFF0929F6A3
:1006800020C0887E090320545479410000447D41F4
:100690003048484A32384040227A007A0A0A727D4D
:1006A0000D19317D2629292F282629292926304868
:1006B0004D4020380808080808080808382F10C8D6
:1006C000ACBA2F102834FA00007B000008142A145A
:1006D0002222142A14089500220095AA005500AA87
:1006E000AA55AA55AA000000FF00101010FF001420
:1006F0001414FF001010FF00FF1010F010F014147D
:1007000014FC001414F700FF0000FF00FF1414F4A1
:1007100004FC141417101F10101F101F1414141FA2
:1007200000101010F0000000001F101010101F101B
:10073000101010F010000000FF101010101010101A
:100740001010FF10000000FF140000FF00FF000069
:100750001F10170000FC04F414141710171414F4DD
:1007600004F40000FF00F714141414141414F70018
:10077000F7141414171410101F101F141414F41469
:100780001010F010F000001F101F0000001F1400D8
:100790000000FC140000F010F01010FF10FF141403
:1007A00014FF141010101F00000000F010FFFFFFD6
:1007B000FFFFF0F0F0F0F0FFFFFF0000000000FF8F
:1007C000FF0F0F0F0F0F38444438447C2A2A3E1481
:1007D0007E02020606027E027E02635549416338AC
:1007E00044443C04407E201E2006027E020299A55D
:1007F000E7A5991C2A492A1C4C7201724C304A4DBB
:100800004D303048784830BC625A463D3E494949EF
:10081000007E0101017E2A2A2A2A2A44445F444498
:1008200040514A444040444A51400000FF0103E027
:1008300080FF000008086B6B083612362436060F5E
:10084000090F06000018180000001010003040FFCB
:100850000101001F01011E00191D1712003C3C3C44
:100860003C0000000000F0F89C8E8783878E9CF887
:10087000F00000FEFF0303030303070EFCF8000073
:10088000FEFF0303030303070EFCF80000FFFF0055
:10089000000000000000FFFF0000FEFF8383838351
:1008A00083C7EE7C380000F8FC0E07030303070E35
:1008B000FCF800003F7FE0C08080C0E07F3FFFFF8A
:1008C00001010101010101FFFF0000FFFF0C0C0C01
:1008D0000C1C3E77E3C100007FFFC0C0C0C0C0E079
:1008E000703F1F00001F3F70E0C0C0C0E0703F1F9E
:1008F00000007FFFC1C1C1C1C1E3773E1C00001FE2
:100900003F70E0C0C0C0E0703F1F00000000000169
:10091000FFFF010000008D14A1C881CFD9F102AF03
:1009200058022D0000000A00E8032D000080DC00C2
:1009300064000000190058026400000019007003F0
:10094000F401008032002D0000000A0032002D006A
:100950000080640064000080E8030A00008010103A
:10096000000000FC0A8A4A4A4A8A0AFC0000000089
:100970000000003F404F5050504F403F00000000EB
:10098000000000FC0A0A8ACA0A0A0AFC00000000E9
:100990000000003F4050505F5050403F00000000BA
:1009A000000000FC0A8A4A4A4A8A0AFC0000000049
:1009B0000000003F405C52525251403F0000000096
:1009C000000000FC0A4A4A4A4A8A0AFC0000000069
:1009D0000000003F40505052524D403F0000000088
:1009E0001010FE01010101010181810101010101DC
:1009F00001FE7F80808080808081818080808080F7
:100A0000807FFE01011919010101010101010101AC
:100A100001FE7F80808080808080808080989880A8
:100A2000807FFE010119190101818101010101018C
:100A300001FE7F8080808080808181808098988086
:100A4000807FFE010119190101010101011919013C
:100A500001FE7F8080989880808080808098988038
:100A6000807FFE010119190101818101011919011C
:100A700001FE7F8080989880808181808098988016
:100A8000807FFE01019999010101010101999901FC
:100A900001FE7F80809999808080808080999980F4
:100AA000807F101083FF020202020283830202028F
:100AB0000202FF83C1FF4040404040C1C14040406E
:100AC0004040FFC183FF021A1A020203030202021E
:100AD0000202FF83C1FF4040404040C0C040405838
:100AE0005840FFC183FF021A1A02028383020202E6
:100AF0000202FF83C1FF4040404040C1C140405816
:100B00005840FFC183FF021A1A0202030302021AAD
:100B10001A02FF83C1FF4058584040C0C0404058AF
:100B20005840FFC183FF021A1A0202838302021A8D
:100B30001A02FF83C1FF4058584040C1C14040588D
:100B40005840FFC183FF029A9A0202030302029AED
:100B50009A02FF83C1FF4059594040C0C0404059EC
:100B60005940FFC1504C4159455220332057494EFE
:100B70005300504C4159455220322057494E5300A2
:100B8000504C4159455220312057494E5300504551
:100B900052464543542047414D45005048454E4F2D
:100BA0004D454E414C004D415354455246554C0025
:100BB000455843455054494F4E414C00494E4352CD
:100BC000454449424C45004F555354414E44494ECB
:100BD00047004E49434500444543454E5400414378
:100BE0004345505441424C4500464149520041570B
:100BF00046554C00445245414446554C004853002C
:100C00002020508C020201010101010101010101BA
:100C100001010101010101010101010101010101C4
:100C200001010101010101010101010101010101B4
:100C300001010101010101010101010101010101A4
:100C40000101010101010101010101010101010194
:100C50000101010101010101010101010101010184
:100C60000101010101010101010101010101010174
:100C70000101010101010101010102028C5020204A
:100C80000000000102020404040404040404040437
:100C90000404040404040404040404040404040414
:100CA0000404040404040404040404040404040404
:100CB00004040404040404040404040404040404F4
:100CC00004040404040404040404040404040404E4
:100CD00004040404040404040404040404040404D4
:100CE00004040404040404040404040404040404C4
:100CF00004040404040404040404020201000000C7
:100D0000534F554E44204F464600534F554E4420B6
:100D10004F4E003320504C415945522047414D45DC
:100D2000003220504C415945522047414D45005317
:100D30004F4C4F2047414D450003071C78E0F03CE5
:100D40000F0300C0E0784E4FFFF0000001010103E7
:100D5000FF01010101010181C171190D07030100AA
:100D600003071C78E0F03C0F0300000006030100BD
:100D7000000006030000000000070600000000005D
:100D8000070000000004060704040404040404002F
:100D90000000000603010000000000000000000049
:100DA00000000000EFEFEFEF00E0E0E0E000000007
:100DB00000000000EFEFEFEF000000EFEFEFEF00BB
:100DC0000F0F0F0F000F0F0F0F000000E0E0EFEF0D
:100DD0000F0F00000F0FEFEFE0E000000000000039
:100DE0000000000000000000000000000000000003
:100DF000000000000000BDBDBDBD000101013D3C83
:100E00003CBC80808000BDBDBDBD000000BDBDBD3F
:100E1000BD003C3C3C3C0000000000000000BDBDAB
:100E2000BDBD000000000000BDBDBDBD0000000054
:100E300000000000000000000000000000000000B2
:100E40000000000000000000F7F7F7F700000000C6
:100E50000000000707070700F7F7F7F7000000F7A3
:100E6000F7F7F700F0F0F0F000F0F0F0F00000001D
:100E70000707F7F7F0F00000F0F0F7F707070000BA
:100E800000000000000000000000000000000078EA
:100E9000787878007878787800E0E0E0E00000008A
:100EA00078787878007878787800787878780000A2
:100EB0000078787878007878787800787878780092
:100EC000000078787878007878787800E0E0E0E0E2
:100ED0000000000000787878780000787878780052
:100EE00000EFEFEFEF00E0E0E0E0003D3D3D3D00D2
:100EF0000000EFEFEFEF00E0E0E0E00000000000B6
:100F00000000000000000000EFEFEFEF0000000025
:100F100000000000EFEFEFEF00E0E0E0E0003D3D1B
:100F20003D3D000000EFEFEFEF000000000000EF9C
:100F3000EFEFEFBDBDBDBD000101013D3CBCBC807C
:100F400080000000BDBDBDBD008181818100808029
:100F500080800000000000000000BDBDBDBD00009D
:100F6000000000000000BDBDBDBD000101013D3C11
:100F7000BCBC80800000003D3DBDBD808000008085
:100F800080BDBD3D3D0707070700000000000007CA
:100F90000707070000000707070700070707070004
:100FA0000707070700000000000000000707070709
:100FB0000000000000000000070707070000000015
:100FC00000000707070700000000000707070700E9
:100FD00000070707070000080B00020202000009D3
:100FE0000400000102020000052400100105240194
:100FF00001010424020605240600010705810310EF
:10100000004009040100020A000000070502024036
:1010100000000705830240000004030904120100D8
:1010200002EF020140412336800001010203014129
:10103000726475696E6F204C4C43004142413131FE
:10104000303600006F1711241FBECFEFDAE0DEBF8D
:10105000CDBF11E0A0E0B1E0E2E4F1E402C0059010
:101060000D92AC33B107D9F726E0ACE3B1E001C093
:101070001D92A937B207E1F718E0C3E2D8E004C037
:101080002197FE010E949920C232D107C9F70E9420
:10109000A2170C949F200C94000080917401089575
:1010A0004F925F926F927F928F929F92AF92BF9278
:1010B000CF92DF92EF92FF920F931F93CF93DF9324
:1010C00030E0F901E80FF91F1E161F060CF07CC076
:1010D000803891050CF078C0602E712CF301E60F7A
:1010E000F71F1E161F060CF06FC0603471050CF060
:1010F0006BC0E62FE7705E2EE7E06E0E711CE3E03A
:1011000075946794EA95E1F7F3E075956795FA951C
:10111000E1F7062E000C770BDB01B695BA2FAA2754
:10112000B795A795A80FB91FAA55BE4FEA01F12C94
:10113000E12C6701C60ED71E48E0C416D1040CF09E
:1011400043C0EFEFCE16DE06A4F18C0150E040E084
:101150004D01E0E88E0E911C17FD21C0FA01EC0F45
:10116000FD1FA490B12C052C02C0AA0CBB1C0A9434
:10117000E2F7EFEFCE16DE06C1F1FD01E40FF51F39
:1011800040804A284082552051F0E7E0CE16D10435
:1011900031F0F401E40FF51FA080BA28B0824F5F50
:1011A0005F4F0F5F1F4F421753071CF400381105A4
:1011B00099F64FEFE41AF40AA058BF4FC20FD31F9D
:1011C0006E147F0409F0B5CFDF91CF911F910F917D
:1011D000FF90EF90DF90CF90BF90AF909F908F9057
:1011E0007F906F905F904F9008955110D2CFD7CFDE
:1011F0008F929F92AF92BF92CF92DF92EF92FF9227
:101200000F931F93CF93DF93EC01FA01C4903196B3
:1012100094914E5F5F4FAC2DB0E02223E1F001E0EE
:1012200010E0892F877011F410E000E0E92FE695B7
:10123000E695E695E00FF12FF11DEA9F8001EB9F07
:10124000100DFA9F100D1124209FF001219FF00D29
:1012500011244E0F5F1F8D010C0F1D1F101611065C
:101260000CF098C0C038D1050CF094C09B01290F38
:10127000311D121613060CF08DC0603471050CF090
:1012800089C04115510509F485C0F62FF770EF2E7E
:101290009B0177FF02C0295F3F4FE3E0359527951B
:1012A000EA95E1F7F22F77FF04C0EE2011F0FFEF8F
:1012B000F20F222733272C1B3D0BD7FD02C030E055
:1012C00020E0FC2C003811051CF080E8F82EFC1AF8
:1012D000F21A6F2F0F2E000C770B162F1095FF3F71
:1012E0000CF010E0E1E0892F877009F4E0E09695BA
:1012F000969596959E0F690F711D6930710514F0D2
:1013000098E09F1BD12EDF0E6D2D70E86703500112
:101310001124B5016C0F7D1F620F731FC19E200D3C
:10132000311D1124420F531F2E2D0E2C000C330B98
:101330009F0F9D1579F1EB01CA55DE4F10E000E0DB
:101340000F1510F5FA01E00FF11FE491F0E04F01E5
:10135000022E02C0880C991C0A94E2F7D7FC03C045
:10136000888188298883EE2059F086E08D1544F025
:101370005E01E0E8AE0EB11CF50180818929808311
:101380000F5F1F4F2196DCCFD3944A0F5B1F60582D
:101390007F4FCFCFDF91CF911F910F91FF90EF90B3
:1013A000DF90CF90BF90AF909F908F900895E6EA26
:1013B000F1E030EB20E146E05C983EBD4A95F1F764
:1013C0002EBD20E8239507C0449140815C9A4EBD14
:1013D0008111412D419344912A95B1F73395383BC2
:1013E00049F70DB40895FC018091A001882311F103
:1013F0003FB7F89482E08093E9002091F200822FB9
:1014000090E01816190614F481E090E0882339F072
:10141000289844E640939F014091F10040832223A5
:1014200039F02091F200211103C02BE62093E8004F
:101430003FBF08958FEF9FEF08952FB7F89483E093
:101440008093E9009091E800892F807295FF04C095
:101450009091F20080E4891B2FBF0895809197013D
:1014600081110DC082E08093930184E08093940108
:10147000109296011092950181E08093970183E983
:1014800091E00895CF93DF931F92CDB7DEB76983C4
:10149000DC01ED91FC910280F381E02D41E050E010
:1014A000BE016F5F7F4F09950F90DF91CF91089537
:1014B00083E08093E9008091F200882319F08AE3A9
:1014C0008093E80008950E941D0A90E00895CF934C
:1014D000DF931F92CDB7DEB7FC018485958597FD1C
:1014E00008C02FEF3FEF358724870F90DF91CF9112
:1014F0000895CE0101960E94F309019719F489819C
:1015000090E0F3CF8FEF9FEFF0CF0F931F93CF9328
:10151000DF931F92CDB7DEB78C01FC0184859585E2
:1015200097FF0BC0CE0101960E94F309019771F459
:10153000898190E0F80195878487F80184859585F5
:101540000F90DF91CF911F910F9108958FEF9FEF33
:10155000F1CFFC018485958597FD0BC09FB7F8946A
:1015600082E08093E9008091F2009FBF90E00196B5
:1015700008959FB7F89482E08093E9008091F2008B
:101580009FBF90E0089540918D0150918E01209170
:101590008B0130918C0142175307B4F49091E8000D
:1015A0009570E1F39091E80092FD19C08093F100ED
:1015B00080918D0190918E0101968F739927892BCF
:1015C00019F48EEF8093E80080918D0190918E0147
:1015D000019690938E0180938D0181E0089580E0C3
:1015E0000895DF92EF92FF920F931F93CF93DF93B3
:1015F000D82E8A01EB017B01E40EF51ECE15DF0526
:1016000059F0D7FE12C0FE0184910E94C30A2196B0
:101610008111F4CF0FEF1FEFC801DF91CF911F9120
:101620000F91FF90EF90DF9008958881EECF0F9398
:101630001F93CF93DF931F92CDB7DEB782E08983EC
:1016400042E450E067ED7FE080E80E94F10A0E94EA
:101650002E0ADC0112960D911C910115110589F0DD
:10166000D801ED91FC910280F381E02DBE016F5F06
:101670007F4FC801099597FD04C0F80100851185C9
:10168000ECCF89810F90DF91CF911F910F91089539
:10169000615030F02091F100FC0120830196F8CFD9
:1016A000289884E680939F010895AF92BF92CF92CD
:1016B000DF92EF92FF920F931F93CF93DF936C0112
:1016C0007B018B01040F151FEB015E01AE18BF08F3
:1016D000C017D10759F06991D601ED91FC910190A5
:1016E000F081E02DC6010995892B79F7C501DF91BD
:1016F000CF911F910F91FF90EF90DF90CF90BF900F
:10170000AF900895FC010E94190C319728F06851A0
:101710007C4F8F4F9F4FF9CFAB01FC010E94190CFA
:10172000641775078E079F07C8F308958F929F92DD
:10173000AF92BF92CF92DF92EF92FF920F931F93DF
:10174000CF93DF936C017B018A0180910D01882387
:1017500009F45AC08091A001882309F455C08091F2
:10176000920180FF05C08091E00082608093E000DC
:10177000E801B12C8AEFA82E93E0892E2AE3922E5D
:10178000209711F4BB20C9F10E941D0A811108C0E5
:10179000AA94AA20C9F181E090E00E94820BF0CFC8
:1017A0008C171D0611F00CF08C2F9FB7F8948092C7
:1017B000E9002091E80025FD02C09FBFE1CF282F5E
:1017C00030E0C21BD30BF701815020F041914093D0
:1017D000F100FACFE20EF31EBB2021F09092E80058
:1017E000B12CEBCF8091E80085FDE7CF9092E80027
:1017F000BB24B394209709F3F3CF5D9884E68093DC
:101800009101101611063CF081E090E0F6019383FF
:10181000828310E000E0C801DF91CF911F910F910A
:10182000FF90EF90DF90CF90BF90AF909F908F9000
:101830000895ADE4B1E02FB7F8947D918D919C911E
:1018400066B52FBFA89B05C06F3F18F47F5F8F4F11
:101850009F4F22E0660F771F881F991F2A95D1F7A7
:1018600008952091A501E091A301F091A401CF0179
:1018700002969093A4018093A301222319F08591ED
:1018800094910895808191810895CF92DF92EF9293
:10189000FF92CF93DF930E94310C811520E89207CD
:1018A00091F4809171008D7F80937100109291006E
:1018B00046985F9810924401DF91CF91FF90EF908E
:1018C000DF90CF90089521E020934401813020E8FB
:1018D000920751F48091A1019091A2019093A401EB
:1018E0008093A3010E94310C97FD05C02091430114
:1018F000222309F454C020914201211150C021E05B
:1019000020934501EC01DF77209709F04BC081E07F
:101910008093460146983FE9C32E3FE0D32EE12C49
:10192000F12CCAEFD0E0E0910406F091050609958C
:10193000811103C081E08093460180914501882395
:1019400029F080914601882309F43FC05F980E94E6
:10195000310C0097F1F19C01DE010E947620DC0140
:10196000CB0129E0B595A795979587952A95D1F74D
:10197000109290002AE020939100D0929900C0929A
:1019800098008093470190934801A0934901B09338
:101990004A01809171008260809371008DCF109216
:1019A0004501B0CF9E0150E040E060E472E48FE07A
:1019B00090E00E94222069017A0181E0C81AD108D2
:1019C000E108F10810924601AECF4699BFCF5F9A69
:1019D000BECF8FEF9FEFDC01CBCFE1E7F0E080815E
:1019E0008D7F80831092A501E6EFF5E0F093A401CE
:1019F000E093A301F093A201E093A10188EE93E0AC
:101A00009183808384E690E09383828380E090E8F2
:101A1000958384830C94450C9C01E1E7F0E0908170
:101A20009D7F908381E08093A5013093A401209352
:101A3000A3013093A2012093A1010C94450C90E0E6
:101A40000C94820B8FB18095807F669B88601C9B75
:101A500084600895109274013E98579808953E9AB4
:101A6000579A81E080937401089590917D019823A5
:101A700029F490917E01982381E009F480E0089593
:101A800080389105B8F460347105A0F490E121E04C
:101A900061FD24E060FD220F62FD2295687F969F24
:101AA000D0011124A80FAA55BE4F0C90022A40FF66
:101AB00002260C9208952F923F924F925F926F925E
:101AC0007F928F929F92AF92BF92CF92DF92EF92CE
:101AD000FF920F931F93CF93DF93EC018B017A0159
:101AE0006901C61AD70AD7FE03C0D194C194D108A0
:101AF00047018C1A9D0A97FE03C091948194910826
:101B00008C149D0454F49E2D8F2D7901292F382F8C
:101B10009C2F8D2FE801092F182FEC16FD0654F489
:101B2000902F812F8901292F382F9C2F8D2FE7018E
:101B3000E92EF82E17012C1A3D0A2901401A510AE4
:101B400057FE03C0519441945108310137FE03C040
:101B50008FEF681A780A759467948FEF021713074E
:101B60000CF481E0A82E880FBB08EC16FD06A4F04B
:101B700041E0BE01C8018C149D0414F0B801CE01EF
:101B80000E94400D6418750877FE04C00A0D1B1DE5
:101B9000620C731C2196E9CFDF91CF911F910F91B9
:101BA000FF90EF90DF90CF90BF90AF909F908F907D
:101BB0007F906F905F904F903F902F9008958F92FD
:101BC0009F92AF92BF92CF92DF92EF92FF920F93CC
:101BD0001F93CF93DF936D3089F0C0907701D09041
:101BE00078016A30D1F4109276011092750188E084
:101BF000C80ED11CD0927801C092770181E090E0AC
:101C0000DF91CF911F910F91FF90EF90DF90CF90D8
:101C1000BF90AF909F908F900895009175011091A3
:101C20007601E5E06E9FE0011124CA59DC4F4801BE
:101C3000F12CF5E0E12CFF1629F0CE010196FE0112
:101C4000E490EC01B12CA12C4E2D4170B6016A0D2F
:101C50007B1DC4010E94400DE694FFEFAF1ABF0A3E
:101C600088E0A816B10481F7F394EFEF8E1A9E0A6C
:101C7000F6E0FF12DECF0A5F1F4F1093760100934C
:101C80007501BCCF0F931F93CF93DF938C01D0E0EE
:101C9000C0E0F801EC0FFD1F6491662341F085E779
:101CA00096E00E94DF0D892B11F02196F2CFCE0134
:101CB000DF91CF911F910F910895EBE5F1E090E056
:101CC00080E001962381820F911D359621E0E43753
:101CD000F207B9F70895EBE5F1E030E020E0082ED7
:101CE000000C990B43814817190611F42F5F3F4FE1
:101CF000359641E0E437F407A9F7C9010895EBE50B
:101D0000F1E0082E000C990B23812817190639F0F1
:101D1000359621E0E437F207B9F780E0089581E0D5
:101D200008950F931F93CF93DF93811114C0EBE5B8
:101D3000F1E084E791E0D0E0C0E02381211101C00F
:101D4000219635968E179F07C1F78C2FDF91CF9183
:101D50001F910F910895813079F4EBE5F1E084E76C
:101D600091E0D0E0C0E02381213009F4229635963D
:101D70008E179F07C1F7E9CF823071F4EBE5F1E0F0
:101D8000D0E0C0E08381823009F42396359681E06B
:101D9000E437F807B9F7D9CF833071F4EBE5F1E018
:101DA000D0E0C0E08381833009F42496359681E049
:101DB000E437F807B9F7C9CF843079F4EBE5F1E0FF
:101DC00084E791E0D0E0C0E02381243009F4259637
:101DD00035968E179F07C1F7B8CF853079F4EBE5BC
:101DE000F1E084E791E0D0E0C0E02381253009F400
:101DF000269635968E179F07C1F7A7CF863009F430
:101E000044C0873011F580E00E946B0E0397CCF43C
:101E100081E00E946B0E0397A4F482E00E946B0E97
:101E200003977CF483E00E946B0E039754F484E0E4
:101E30000E946B0E03972CF485E00E946B0E0397B3
:101E400024F10E945D0EEC0180CF883001F580E026
:101E50000E946B0E0497ACF781E00E946B0E049712
:101E600084F782E00E946B0E04975CF783E00E9487
:101E70006B0E049734F784E00E946B0E04970CF706
:101E800085E00E946B0E0497E4F6C0E05ECF8930D7
:101E9000B9F410E0D0E0C0E0812F0E946B0E0397F0
:101EA00059F400E0802F0E946B0E029711F410137A
:101EB00069960F5F0630B1F71F5F163069F745CF9F
:101EC0008A30E9F580E00E947F0ED82F81E00E94E1
:101ED0007F0EC82F82E00E947F0EDD2361F0CC23AD
:101EE00059F1882391F283E00E947F0E882339F014
:101EF000CEE1D0E02ACFCC23F9F0882331F283E081
:101F00000E947F0E882329F084E00E947F0E8111B9
:101F1000EFCF83E00E947F0E882309F4B6CF84E0E0
:101F20000E947F0E882309F4B0CF85E00E947F0EC7
:101F3000882309F4AACFDCCF8111EBCFA6CF8B3059
:101F4000D1F580E00E947F0EC82F81E00E947F0EB5
:101F5000CC23A9F0882309F498CF82E00E947F0E59
:101F6000882381F083E00E947F0E882359F084E06B
:101F70000E947F0E882331F0C8E2D0E0E6CE8823AD
:101F800009F483CF82E00E947F0E882309F47DCF7D
:101F900083E00E947F0E882309F477CF84E00E94BB
:101FA0007F0E882309F471CF85E00E947F0E88237D
:101FB00009F46BCFE1CF8C3009F443CF8D3009F0B9
:101FC00064CF80E00E946B0E0597D1F081E00E9403
:101FD0006B0E0597A9F082E00E946B0E059781F0C9
:101FE00083E00E946B0E059759F084E00E946B0E0F
:101FF000059731F085E00E946B0E059709F045CFFB
:10200000C2E3D0E0A2CE0F93E0917F018091530113
:10201000909154012E2F0E2E000C330B45E2E4025A
:10202000F0011124EA5FF94F44A1442349F16AE029
:1020300070E00E948520892B09F414A285E2829F1A
:10204000F001839FF00D1124EA5FF94F84A1811103
:1020500015C08281938120813181892BD1F443E1A4
:10206000429FC001439F900D112404E124E14CECF8
:1020700050E06CE070E004960E9450080F910895C3
:102080006CE370E00E948520892BC1F681E084A377
:10209000D5CF2730310574F442E1429FC001439F00
:1020A000900D11240BE020E14CEA50E064E370E075
:1020B0000196E2CF27503109EFCF0F931F93CF93B3
:1020C000DF9386E690E090935601809355018EE071
:1020D00090E0909358018093570183E090E09093B3
:1020E0005A018093590140910001042E000C550BB8
:1020F00080E095E265E070E0AFEFBFEFC82FD0E081
:10210000C417D5076CF59C9FF0019D9FF00D11241D
:10211000EA5FF94F7183608313821282899F800185
:10212000112430E020E0F901EE0FFF1FE00FF11F56
:10213000EA5FF94FB583A4832F5F3F4F2E303105FF
:1021400091F79C9FF0019D9FF00D1124EA5FF94FDC
:10215000118A108A11A210A213A212A28F5FCECFF1
:1021600010925C0110925B0181E090E0909361011C
:102170008093600182E090E0909366018093650116
:1021800083E090E090936B0180936A0184E090E09B
:102190009093700180936F018FEF80935E01809325
:1021A00063018093680180936D01809372011092A6
:1021B0005F01109264011092690110926E011092F9
:1021C000730110925D0110926201109267011092EA
:1021D0006C011092710182E080938601DF91CF91B2
:1021E0001F910F910895089590E080E008958F92D7
:1021F0009F92AF92BF920F931F93CF93DF93CDB770
:10220000DEB7A1970FB6F894DEBF0FBECDBF19A2FF
:10221000423008F44AE08E010F5D1F4F842E912C4E
:10222000B12CA12CA50194010E945420E62FB901E4
:10223000CA01EA3044F5E05DD801EE938D01232B0D
:10224000242B252B79F790E080E0109769F0FD01B1
:1022500001900020E9F73197AF014A1B5B0BBD01EC
:1022600085E796E00E94550BA1960FB6F894DEBF65
:102270000FBECDBFDF91CF911F910F91BF90AF9057
:102280009F908F900895E95CD7CFCF92DF92EF9225
:10229000FF92CF93DF936C01990FEE08FF08F7FED2
:1022A00019C06DE285E796E00E94DF0DEC0166271C
:1022B0007727CB016C197D098E099F094AE00E949E
:1022C000F7108C0F9D1FDF91CF91FF90EF90DF9063
:1022D000CF9008954AE0C701B601DF91CF91FF90FA
:1022E000EF90DF90CF900C94F7100F931F93CF9344
:1022F000DF9380910001813009F485C0823009F4B8
:102300009CC0833009F49CC0D0E0C0E01816F4F4FF
:10231000D0937601C093750101E010E0109378012D
:102320000093770182E693E00E94420ECE0142962E
:102330009093760180937501109378010093770153
:1023400080912806909129060E94451180910001F4
:10235000823004F1CE0188969093760180937501C6
:1023600001E010E010937801009377018EE593E08F
:102370000E94420ECE01CA96909376018093750119
:10238000109378010093770180914D0690914E064D
:102390000E94451180910001833014F1CE01805BD1
:1023A0009F4F909376018093750101E010E01093A8
:1023B0007801009377018AE593E00E94420ECE01F6
:1023C0008E599F4F909376018093750110937801F9
:1023D0000093770180917206909173060E944511D7
:1023E00080917F01811112C00AE029E248E053E0A8
:1023F00070E060E0CE0103970E945008DF91CF911A
:102400001F910F910895CEE2D0E082CF813049F440
:102410000AE029E248E053E070E060E0CE018596F2
:10242000EBCF823059F70AE029E248E053E070E050
:1024300060E0CE01835B9F4FDFCFC4E1D0E068CF87
:10244000C3E0D0E065CFCF92DF92EF92FF920F937F
:102450001F93CF93DF9321E230E040E850E061E248
:1024600070E090E080E00E945B0DE0917F01CE2F54
:102470000E2E000CDD0B25E2E202F0011124EA5FD2
:10248000F94F8281938100E120E8892B09F0FEC099
:1024900048E052E063E270E090E080E00E94500883
:1024A00085E28C9FF0018D9FF00D1124EA5FF94FBA
:1024B0008081918107E010E007970CF010C1D0E017
:1024C000C0E046E3E42EF12C55E2D52E62E1C62EA3
:1024D0001093760100937501F0927801E0927701F4
:1024E00020917F01DE011296AA0FBB1F3D2D230311
:1024F000F0011124AE0FBF1FAA5FB94F8D919C91BF
:1025000097FDCCC08A3091053CF0980124503109E8
:1025100030937601209375010E94451121960E5E3D
:102520001F4FC730D105A1F6E0917F01CE2F0E2EAF
:10253000000CDD0B85E2E802F0011124EA5FF94F9F
:1025400080A191A184369105A4F025E230E040E716
:1025500050E063E270E08EE690E00E945B0D25E2C1
:1025600030E04EE650E063E270E080E790E00E94E9
:102570005B0D85E28C9FF0018D9FF00D1124EA5FC9
:10258000F94F80A191A1883C9105A4F025E230E0AB
:1025900044E750E063E270E082E790E00E945B0D68
:1025A00025E230E042E750E063E270E084E790E04B
:1025B0000E945B0D85E28C9FF0018D9FF00D112430
:1025C000EA5FF94F80A191A18C329140A4F025E2FD
:1025D00030E044E750E063E270E086E790E00E947C
:1025E0005B0D25E230E046E750E063E270E086E70D
:1025F00090E00E945B0D85E28C9FF0018D9FF00DB5
:102600001124EA5FF94F80A191A180399140A4F093
:1026100025E230E046E750E063E270E088E790E0D2
:102620000E945B0D25E230E048E750E063E270E095
:1026300086E790E00E945B0D85E28C9FF0018D9F04
:10264000F00D1124EA5FF94F80A191A1843F9140E0
:102650000CF478C025E230E048E750E063E270E037
:102660008AE790E00E945B0D25E230E04AE750E007
:1026700063E270E088E790E0DF91CF911F910F91C6
:10268000FF90EF90DF90CF900C945B0D8081918153
:1026900007970CF4FDCE48E051E0FCCEEA5FF94F1D
:1026A00080819181C817D90709F038CF8281938141
:1026B000019709F033CF8C2F0E94910E8A305CF085
:1026C000CC9E9001CD9E300D11242D5F3F4F309355
:1026D000760120937501082E000C990B1DCFC7E0E1
:1026E000D0E096E3E92EF12C22E1D22E1093760170
:1026F00000937501F0927801E092770120917F01BB
:10270000DE011296AA0FBB1F35E22303F00111244C
:10271000AE0FBF1FAA5FB94F8D919C9197FD1BC053
:102720008A3091053CF098012450310930937601AC
:10273000209375010E94451121960E5E1F4FCE30E9
:10274000D105A1F6DF91CF911F910F91FF90EF90EE
:10275000DF90CF900895EA5FF94F80819181C8178B
:10276000D90751F782819381019731F78C2F0E940D
:10277000910E8A305CF0DC9E9001DD9E300D1124BC
:102780002B5731093093760120937501082E000CE8
:10279000990BD0CF0C940C20FF920F931F93CF93E3
:1027A000DF93EC01F62E08811981C8010E940C20EC
:1027B000F81621F06F2DC8010E941420CE01DF9180
:1027C000CF911F910F91FF9008950F931F93CF9377
:1027D000DF9300D0CDB7DEB700E811E0F8016081EB
:1027E0008AED93E09A838983CE0101960E94CC13EF
:1027F000F80161818BED93E09A838983CE01019684
:102800000E94CC1381E00F900F90DF91CF911F9128
:102810000F9108951F920F920FB60F9211248F936C
:102820009F938091E1009091E100937F9093E1006C
:1028300083FF0FC01092E90091E09093EB0010929B
:10284000EC0092E39093ED001092A00198E0909339
:10285000F00082FF22C093E09093E9009091F20093
:10286000992319F09AE39093E800909191019923AC
:1028700041F090919101915090939101911101C07B
:102880005D9A90919F01992341F090919F01915001
:1028900090939F01911101C0289A84FF18C08091E4
:1028A000E2008E7E81608093E2008091E1008F7E65
:1028B0008093E100809192018E7E806180939201ED
:1028C0009F918F910F900FBE0F901F90189580FFD2
:1028D000F7CF8091E2008E7E80618093E20080914C
:1028E000E1008E7E8093E100809192018E7E816076
:1028F000E5CF1F920F920FB60F921124CF92DF9265
:10290000EF92FF920F931F932F933F934F935F93F9
:102910006F937F938F939F93AF93BF93EF93FF93A7
:10292000CF93DF93CDB7DEB76C97DEBFCDBF1092EC
:10293000E9008091E80083FF25C068E0CE0145965C
:102940000E94480B82EF8093E8008D8987FF39C091
:102950009091E80090FFFCCF982F907609F034C159
:102960009E894F89588D2F89F88C911131C08038FC
:1029700061F5809190018093F1001092F1008EEF4B
:102980008093E8006C960FB6F894DEBF0FBECDBF03
:10299000DF91CF91FF91EF91BF91AF919F918F9177
:1029A0007F916F915F914F913F912F911F910F9167
:1029B000FF90EF90DF90CF900F900FBE0F901F9081
:1029C00018959EEF9093E800C7CF1092F100D5CFF5
:1029D000913059F48111D3CF4130510581F6809166
:1029E00090018D7F80939001CACF933049F481117B
:1029F000C6CF4130510519F6809190018260F2CF27
:102A0000953041F48091E80080FFFCCF206820934E
:102A1000E300B5CF963009F0A9C00B8D1C8D22E0E4
:102A20001092E90010928E0110928D01F2122EC0C8
:102A300010928C0110928B010E94170B1F8299E05B
:102A40009983FA8291E09E8390EA98879AEF99871A
:102A500020918D0130918E01275F3F4F3C832B8366
:102A60008D831092E90010928E0110928D011093C7
:102A70008C0100938B0149E050E0BE016F5F7F4FF6
:102A800080E00E94F10A0E94170B79CF10938C010D
:102A900000938B010E942E0ADC0112960D911C916D
:102AA0000115110509F451C1D801ED91FC91048083
:102AB000F581E02DBE016B5E7F4FC801099500973F
:102AC00009F03EC1F80100851185EACFF3E0FF125D
:102AD0000EC08F89882309F440C0823061F440E839
:102AE00067E08BE390E10E943C17811148CF81E2BF
:102AF0008093EB0047CF813029F440E86BE08FE210
:102B000090E1F1CF833099F70E942E0ADC011296F2
:102B1000ED90FC908E010F5F1F4F6801E114F104EE
:102B200079F0D701ED91FC910680F781E02DB80195
:102B3000C7010995080F111DF701E084F184EECF5C
:102B4000D8011C92F60101900020E9F73197BF01EE
:102B50006C197D0940E0C601C6CF69E170E1FB0157
:102B6000449150E080E80E94F10A09CF973009F4BF
:102B7000BECF983021F481E08093F10000CF9930EE
:102B800009F0FDCE837009F0B2CFE3E1F1E081E01E
:102B900031E096E32191222371F08093E900309394
:102BA000EB00DF0111972C912093EC009093ED0046
:102BB0008F5F873079F78EE78093EA001092EA0002
:102BC0008F898093A001DBCE8B8D9C8D1092E900C4
:102BD00010928E0110928D0190938C0180938B0145
:102BE000898D811192C08E899D89913A49F48132F3
:102BF00009F07DCF47E050E066E071E080E0B3CFC0
:102C0000913209F074CF833269F48F89988DB0E0E6
:102C1000A0E08093020190930301A0930401B0937C
:102C20000501ADCE803269F48091E80082FFFCCFCF
:102C300067E086E091E00E94480B8BEF8093E8000C
:102C40009ECE823209F09BCE8F8980930D01EEEFEC
:102C5000FFE7859194918B3F9C4D51F1E0E0F8E0C6
:102C60008091060190910701A0910801B09109019E
:102C7000803B9440A105B105F1F480910D0180FDE8
:102C80001AC0EE3F8AE0F80789F587E797E7918356
:102C900080838091600080938F0188E19BE00FB674
:102CA000F894A895809360000FBE9093600067CE63
:102CB000EEEFFAE0D5CF808191818737974709F011
:102CC0005ECEA895809160008861809360008091BD
:102CD0008F0180936000EE3F2AE0F20789F0809137
:102CE000FE0A9091FF0A9183808349CE8081918171
:102CF0008737980751F29093FF0A8093FE0AC5CF59
:102D00001092FF0A1092FE0A3ACE0E942E0ADC01AF
:102D100012960D911C910115110509F4E8CED80108
:102D2000ED91FC910190F081E02DBE016B5E7F4F33
:102D3000C8010995811123CEF80100851185EBCFDB
:102D4000181619060CF41BCED2CEF1E0FF12BECE3F
:102D50006DE170E104CF0F920FB68F939F93EF93C5
:102D6000FF9380914C018D5F8D3708F08D578093D4
:102D70004C01E9E7F1E080818E4F808391819F4F84
:102D8000918382818F4F828383818F4F8383EDE490
:102D9000F1E080818F5F808381818F4F8183828189
:102DA0008F4F828383818F4F83838FB18F6066992A
:102DB0001C9B88278F3681F480914B01981B96309D
:102DC00068F0E0E0F8E087E78083818388E1809322
:102DD0006000F0936000FFCF90934B01FF91EF9163
:102DE0009F918F910FBE0F9018951F920F920FB663
:102DF0000F9211242F933F934F935F936F937F9381
:102E00008F939F93AF93BF93EF93FF93809147016D
:102E100090914801A0914901B0914A010097A10504
:102E2000B10539F120914601211105C0369A209152
:102E3000450121114F9A0197A109B109B7FD08C0B9
:102E40008093470190934801A0934901B0934A01B0
:102E5000FF91EF91BF91AF919F918F917F916F9172
:102E60005F914F913F912F910F900FBE0F901F9048
:102E700018950E94450CECCFEF92FF920F931F9391
:102E8000CF93DF93F82E192FE62E042F81E0860FC3
:102E9000880F0E94C30A83E00E94C30ACF2DD12F5E
:102EA000EC0EFD2EF11CCE15DF05B9F007FF13C0A7
:102EB000FE0184910E94C30A182F80E00E94C30A79
:102EC000812321968111EFCFDF91CF911F910F9137
:102ED000FF90EF9008958881EDCF81E0F5CFE6EA8D
:102EE000F5E01382128288EE93E0A0E0B0E08483E4
:102EF0009583A683B7838DE191E0918380838FEFE3
:102F00009FEF95878487E5E7F6E0138212828FE2D0
:102F100091E0918380838DE498E0909305068093FF
:102F2000040680E090E8909303068093020646989A
:102F30003E9A5F98579A10922A0610924F06109266
:102F40007406089500D0CDB7DEB7789483E084BDD1
:102F500083E085BD81E080936E00E1E8F0E083E0EE
:102F60008083E0E881E08083E1E983E08083E0E939
:102F700081E08083E1EC87E08083E3EC81E0808383
:102F8000E0EC82E08083E2EC81E08083EAE787E0A6
:102F90008083806880831092A0011092900110922B
:102FA00092018091D70081608093D70080EA80935E
:102FB000D80089B5806189BD89B5826089BD09B4B1
:102FC00000FEFDCF81E090E00E94820B8091D8004E
:102FD0008F7C80618093D8008091E000807F809317
:102FE000E0008091E1008E7E8093E1008DE080938F
:102FF000E200559A209A81EC80937C0081E785B9A4
:1030000087E684B985E38BB98FE38AB9769A6E989F
:1030100080EF81BB10BA80E58CBD81E08DBD85E07D
:103020000E941F0D599A85E00E941F0D5C98E6E1F1
:10303000F9E085918EBD00000DB407FEFDCFE032B2
:10304000C1F75C9A81E88093640081E08093650019
:1030500080E00E94D7090E94220D02E010E087FF65
:1030600015C05C9885EA8EBD00000DB407FEFDCF4B
:103070005C9A2E9858982D98809164008062809375
:10308000640081E083BF889513BEFCCF0E94220DAF
:1030900082FF3BC02D980E94220D84788438B1F4C1
:1030A0002D9A88EC0E941F0D58981A8309836FEFA0
:1030B000CE0101960E94CC1384EF91E00E94820B16
:1030C000589A0E94220D84788438D9F30E94220DE8
:1030D00084718431B1F42D9A88EC0E941F0D2E98D2
:1030E0001A83098360E0CE0101960E94CC1384EF1D
:1030F00091E00E94820B2E9A0E94220D84718431ED
:10310000D9F388EC0E941F0DC1CF2D9A82E090E088
:103110000E94CA13882309F481C00E942F0D81E008
:1031200090E00E94CA13182F147081FF0CC0111177
:103130002E98F1EFEF2EFF24FA940E94220D86FFC5
:1031400070C02E9A589A82E30E941F0D0E94220D91
:103150008111F9CF809164008E7F8093640080910B
:103160007A00806480937A0080917A0086FDFCCF9B
:1031700000917800109179000E94190CAB01BC01FC
:10318000C801B0E0A0E0DC01992788278C019D01EF
:10319000040F151F261F371FC901B80120916400B5
:1031A000216020936400611571058105910511F07E
:1031B0000E94032081E00E94D7098AED93E00E94DB
:1031C0000C20809380018BED93E00E940C20809373
:1031D00081018091800190918101019631F41092DA
:1031E0008101109280010E94E5131092860175E220
:1031F000272E312C59E1E52EF12C62E2C62ED12C7E
:1032000000915101002309F469C01092510180E03E
:1032100090E0892BA9F30E940000ECCF0E942A0DB8
:103220007ECF112331F004E0E016F10411F42E9A60
:10323000589881E00E94D70900E128E546E658E069
:10324000B70184E190E00E94500880E00E94D70915
:103250008FE00E941F0D2FEFE21AF20A39E1E31608
:10326000F10409F06ACF112311F0589A2D9880E9E2
:1032700091E00E94820B2D9A81E090E00E94CA1397
:1032800080FF61CF8AE090E00E94CA139FEF980F01
:103290009E3F08F058CF22E330E030937601209330
:1032A000750128E330E030937801209377010BE03B
:1032B00010E0682F85E796E00E94DF0DC8010E94AC
:1032C000CA130F5F1F4F0131110599F780E00E946B
:1032D000D70988EE93E00E94820B35CF8091790167
:1032E00090915201282F291B203140F42F3009F4EE
:1032F0008ECF81E083BF889513BE89CF11E01093F4
:10330000510180935201E3E5F1E0808191810196C2
:103310008083918380917E0180937D010E94220DA4
:1033200080937E018FB7F8948090790190907A0114
:10333000A0907B01B0907C018FBF4090870150909E
:1033400088016090890170908A012FB7F89480916C
:10335000790190917A01A0917B01B0917C012FBFFE
:103360008093870190938801A0938901B0938A018B
:10337000E6EAF1E001110FEF8FEF01930193019362
:1033800001938150D0F7109278011092770110923A
:1033900076011092750180918601813009F4D7C0C1
:1033A0003CF4882309F4A8C081E00E94D7092FCFFC
:1033B000823009F4BAC18430B9F70E9475110091C6
:1033C0000001013009F0A3C4E0917F0115E2E102A0
:1033D000F0011124EA5FF94F82A193A18233910594
:1033E0000CF0D7C388E290E090937601809375014A
:1033F00080E190E0909378018093770184EF9BE0E7
:103400000E94420E10917F0135E21302F001112457
:10341000EA5FF94F82819381019721F081E090E08A
:103420009383828380E80E94350D882399F01150A0
:1034300017FDB5C410937F01E0917F0185E2E8029A
:10344000F0011124EA5FF94F1182108281E090E0CF
:103450009383828380E10E94350D8823B1F08091AF
:103460007F018F5F80170CF09FC480937F01E091F4
:103470007F0195E2E902F0011124EA5FF94F118220
:10348000108281E090E09383828380E20E94350D78
:10349000882381F0E0917F0105E2E002F001112430
:1034A000EA5FF94F80819181181619061CF4019783
:1034B0009183808380E40E94350D882381F0E09120
:1034C0007F0115E2E102F0011124EA5FF94F8081EA
:1034D00091818D3091051CF401969183808384E065
:1034E0000E94350D882319F081E0809386010E94A7
:1034F00003100E94231258CF03E322E549E95DE05F
:1035000066E070E087E190E00E945008841895081A
:10351000A608B7088091820190918301A09184014F
:10352000B0918501880D991DAA1DBB1D8093820154
:1035300090938301A0938401B0938501893B9B40C4
:10354000A105B1050CF430CF109386012DCF80E892
:103550000E94350D882341F0809101018A50863107
:103560000CF4ADC08093010180E10E94350D8823E9
:1035700041F080910101865F85330CF0A2C08093F9
:10358000010184E00E94350D882361F080910101E2
:10359000863109F098C00E94ED0C81E08093000113
:1035A0000E945D100BE020E349E35DE068E070E01D
:1035B00088E290E00E9450083092760120927501D6
:1035C00088E190E090937801809377018FE29DE00D
:1035D0000E94420EF0927601E0927501D09278013D
:1035E000C092770181E29DE00E94420EF092760146
:1035F000E0927501ECE2F0E0F0937801E09377015E
:1036000083E19DE00E94420E88E290E09093760173
:103610008093750106E310E0109378010093770121
:1036200080917401882309F47DC08AE09DE00E94A6
:10363000420E60910101062E000C770B0BE020E892
:1036400040E05CE090E080E00E9450088EE690E070
:103650009093760180937501109278011092770112
:1036600043E050E067E371E085E796E00E94550B88
:103670008091800190918101892B09F495CE10925F
:1036800076011092750110927801109277018DEFFA
:103690009BE00E94420E82E190E09093760180933D
:1036A00075011092780110927701609180017091FC
:1036B000810190E080E04AE00E94F71075CE86E13B
:1036C00051CF84E35CCF803221F40E94ED0C82E084
:1036D00065CF8A3221F40E94ED0C83E05FCF843302
:1036E00009F060CF80917401882369F00E942A0D4F
:1036F0006091740182E090E09A838983CE01019603
:103700000E94CC134FCF0E942F0D6091740182E074
:1037100090E09A838983CE0101960E94CC130E9487
:10372000ED0C40CF80E09DE082CF80E80E94350D17
:103730008823C1F0E0917F0115E2E102F00111243C
:10374000EA5FF94F2281338180819181121613063D
:103750000CF0CBC113821282069724F085E090E032
:103760009183808380E10E94350D882391F0E09160
:103770007F0125E2E202F0011124EA5FF94F828124
:103780009381181619060CF4B6C181E090E093837A
:10379000828380E20E94350D882389F0E0917F01C9
:1037A00035E2E302F0011124EA5FF94F8081918153
:1037B000181619060CF0A9C101979183808380E443
:1037C0000E94350D8823B1F0E0917F0185E2E80287
:1037D000F0011124EA5FF94F8081918122813381C8
:1037E000232B09F09CC1853091050CF09CC10196FA
:1037F0009183808384E00E94350D882309F429C3D6
:1038000020917F0115E22103F0011124EA5FF94FB5
:1038100080819181853091054CF522813381232B64
:1038200029F520915F01222309F105E0089FF001AD
:10383000099FF00D1124E55AFE4F8281882309F477
:1038400075C188E599E00E940C0D20917F0121034C
:10385000F0011124EA5FF94F80819181089FF00106
:10386000099FF00D1124E55AFE4F1282E0917F016D
:1038700095E2E902F0011124EA5FF94F808191811C
:10388000059709F04EC082819381892B09F049C0C8
:1038900084E499E00E940C0D8091590190915A01A5
:1038A00018161906F4F5019790935A01809359015F
:1038B0000BE511E0F801828181110BC00E94B41F59
:1038C00026E030E040E050E00E942220F8016383CF
:1038D00014820B5F1F4FF1E004371F0759F780E098
:1038E0000E946B0E0597C9F081E00E946B0E059750
:1038F000A1F082E00E946B0E059779F083E00E94B0
:103900006B0E059751F084E00E946B0E059729F02D
:1039100085E00E946B0E059721F48EE299E00E94EB
:103920000C0D20917F0115E2210390011124F90172
:10393000EA5FF94F82819381019709F08AC2808101
:103940009181FC013296EE0FFF1FE20FF31FEA5F39
:10395000F94F2081318137FF7CC2069709F479C283
:1039600080E299E00E940C0D60907F01A62C062C4D
:10397000000CBB081A9DF0011B9DF00D1124EA5F9D
:10398000F94F868D978DC29761F580E00E946B0E8E
:103990000597C9F081E00E946B0E0597A1F082E0C7
:1039A0000E946B0E059779F083E00E946B0E0597DD
:1039B00051F084E00E946B0E059729F085E00E948B
:1039C0006B0E059771F485E28A9DF0018B9DF00DD9
:1039D0001124EA5FF94F80A191A18C599F4F91A3C7
:1039E00080A305E2702E7A9C40017B9C900C1124F0
:1039F000F401EA5FF94F00811181802F0E94910E3E
:103A0000F8013296EE0FFF1FE80DF91DEA5FF94F3E
:103A1000082E000C990B9183808383010102C00161
:103A20001124FC01E65FF94F20E030E04191519113
:103A3000141615060CF4240F3F5F3630B9F72F33F8
:103A400064F025E22A9DF0012B9DF00D1124EA5F20
:103A5000F94F23E230E0318B208B25E22A9DF001E3
:103A60002B9DF00D1124EA5FF94F13A212A230E052
:103A700020E0B296D901AA0FBB1FA80FB91FAA5FF9
:103A8000B94F14966D917C911616170634F4408147
:103A90005181460F571F518340832F5F3F4F2F3077
:103AA000310541F740910001042E000C550B80E0D8
:103AB00095E2841715060CF07AC1899FB001112494
:103AC00030E020E0F901EE0FFF1FE60FF71FEA5F7D
:103AD000F94F0480F581E02DF7FD7DC12F5F3F4F49
:103AE0002E30310579F78F5FE4CF873091050CF4E4
:103AF00039CE069735CE80819181873091050CF0C3
:103B000048CE07969183808344CE82819381892B0E
:103B100019F485E090E051CE8DE090E04ECE8D30EE
:103B200091050CF464CE1182108264CE82E599E096
:103B30000E940C0D20917F012103F0011124EA5F06
:103B4000F94F80819181089FF001099FF00D1124A8
:103B5000E55AFE4F81E0828389CE729EC001739E3A
:103B6000900D1124238140EE59E0A3C1F3E0AF167C
:103B7000B1040CF0A3C180915301909154016EE106
:103B800070E00E948520892B09F098C1F8016482B9
:103B900095C1843691057CF481E390E090937601A1
:103BA0008093750180E190E0909378018093770194
:103BB0008EEE9BE025CC863991057CF484E390E081
:103BC000909376018093750180E190E09093780165
:103BD0008093770189EE9BE013CC883C91056CF4CF
:103BE000D0927601C092750180E190E090937801C7
:103BF000809377018EED9BE003CC8A3F91057CF4A6
:103C00008EE290E0909376018093750180E190E0E0
:103C1000909378018093770187ED9BE0F1CB8C3214
:103C200021E092077CF484E390E090937601809306
:103C3000750180E190E0909378018093770182EDA7
:103C40009BE0DECB803931E093076CF4D0927601B3
:103C5000C092750180E190E09093780180937701A4
:103C600087EC9BE0CDCB843FE1E09E076CF4D092E3
:103C70007601C092750180E190E090937801809385
:103C800077018CEB9BE0BCCB8E3EF2E09F077CF48F
:103C90008CE190E0909376018093750180E190E053
:103CA000909378018093770180EB9BE0A9CB883ECD
:103CB00013E091076CF4309276012092750180E157
:103CC00090E0909378018093770186EA9BE098CB0F
:103CD000873296406CF4D0927601C092750180E1F3
:103CE00090E090937801809377018BE99BE088CBFB
:103CF0008CE190E0909376018093750180E190E0F3
:103D000090937801809377018EE89BE079CB2091A6
:103D100028063091290640914D0650914E0680911B
:103D20007206909173064217530784F48217930723
:103D30006CF4F0927601E092750180E190E090934E
:103D400078018093770180E89BE05ACB8417950730
:103D50008CF4241735070CF055CBF0927601E092E5
:103D6000750180E190E0909378018093770182E77C
:103D70009BE046CB481759070CF044CB281739076E
:103D80000CF040CBF0927601E092750180E190E07A
:103D9000909378018093770184E69BE031CB8FEF9D
:103DA000800F80937F0148CB10927F0160CB809180
:103DB00028069091290620918001309181012817D1
:103DC000390730F490938101809380010E94E513BC
:103DD00084E08093860180917F018F5F80937F01D3
:103DE00090910001891714F010927F0183E090E018
:103DF00090935A0180935901E0917F0125E2E202FC
:103E0000F0011124EA5FF94F85E090E0918380830F
:103E1000138212828FEF80935E01809363018093FF
:103E2000680180936D018093720110925F0110927E
:103E300064011092690110926E0110927301109248
:103E40005D01109262011092670110926C01109254
:103E500071010E947511A0905901B0905A016091B2
:103E60005701709158012A2D4EE559E08091550176
:103E7000909156010E94F8080BE511E084E7882E26
:103E800081E0982E6624639493E1792EF801848171
:103E9000882309F46BCE828120813181882309F443
:103EA0005CCE729EC001739E900D1124238142EA64
:103EB0005AE06EE070E006960E94F8080B5F1F4F14
:103EC0008016910619F70E9423120E9403106CCAF3
:103ED0008F929F92AF92BF92CF92DF92EF92FF921A
:103EE000CF93DF93EC01688179818A819B81611591
:103EF00071058105910521F464E279ED8BE597E088
:103F00002DE133EF41E050E00E94222049015A01A7
:103F10009B01AC01A7EAB1E40E9441206B017C0146
:103F2000ACEEB4EFA50194010E944F20C60ED71E3F
:103F3000E81EF91EF7FE06C081E0C81AD108E108A4
:103F400080E8F80AC882D982EA82FB82C701B601FA
:103F50009F77DF91CF91FF90EF90DF90CF90BF9050
:103F6000AF909F908F9008958F929F92AF92BF9243
:103F7000CF92DF92EF92FF9260910E0170910F014C
:103F800080911001909111016115710581059105D4
:103F900021F464E279ED8BE597E02DE133EF41E028
:103FA00050E00E94222049015A019B01AC01A7EA7E
:103FB000B1E40E9441206B017C01ACEEB4EFA5019D
:103FC00094010E944F20C60ED71EE81EF91EF7FE70
:103FD00006C081E0C81AD108E10880E8F80AC0925A
:103FE0000E01D0920F01E0921001F0921101C70171
:103FF000B6019F77FF90EF90DF90CF90BF90AF908A
:104000009F908F90089560930E0170930F0180939D
:104010001001909311010895F999FECF92BD81BDD1
:10402000F89A992780B50895262FF999FECF1FBADF
:1040300092BD81BD20BD0FB6F894FA9AF99A0FBED1
:1040400001960895052E97FB1EF400940E943920D6
:1040500057FD07D00E94542007FC03D04EF40C9467
:10406000392050954095309521953F4F4F4F5F4FE8
:10407000089590958095709561957F4F8F4F9F4FD4
:1040800008950E947620A59F900DB49F900DA49F47
:10409000800D911D11240895B7FF0C9441200E94BA
:1040A0004120821B930B0895A1E21A2EAA1BBB1B71
:1040B000FD010DC0AA1FBB1FEE1FFF1FA217B307F4
:1040C000E407F50720F0A21BB30BE40BF50B661F0A
:1040D000771F881F991F1A9469F7609570958095CE
:1040E00090959B01AC01BD01CF010895A29FB00145
:1040F000B39FC001A39F700D811D1124911DB29F1C
:10410000700D811D1124911D0895AA1BBB1B51E147
:1041100007C0AA1FBB1FA617B70710F0A61BB70B37
:10412000881F991F5A95A9F780959095BC01CD01DC
:104130000895EE0FFF1F0590F491E02D0994F89477
:02414000FFCFAF
:104142000116FFFFFFFF00E1000000000000010078
:10415200000000C1808100000000000000420A96B9
:104162000B630A580AA90A670A850A00000000DFE1
:0C4172000D550BF410F310312E3300003B
:00000001FF
