:100000000C94B6050C94DE050C94DE050C94DE050C
:100010000C94DE050C94DE050C94DE050C94DE05D4
:100020000C94DE050C94DE050C94380B0C94A70B95
:100030000C94DE050C94DE050C94DE050C94DE05B4
:100040000C94DE050C94DE050C94DE050C94DE05A4
:100050000C94DE050C94DE050C94DE050C94D90D91
:100060000C94DE050C94DE050C94DE050C94DE0584
:100070000C94DE050C94DE050C94DE050C94DE0574
:100080000C94230E0C94DE050C94DE050C94DE0516
:100090000C94DE050C94DE050C94DE050C94DE0554
:1000A0000C94DE050C94DE050C94DE0500000000C7
:1000B000003E5B4F5B3E3E6B4F6B3E1C3E7C3E1CEE
:1000C000183C7E3C181C577D571C1C5E7F5E1C0034
:1000D000183C1800FFE7C3E7FF0018241800FFE7EB
:1000E000DBE7FF30483A060E2629792926407F05AE
:1000F0000507407F05253F5A3CE73C5A7F3E1C1CC4
:1001000008081C1C3E7F14227F22145F5F005F5F83
:1001100006097F017F006689956A6060606060946F
:10012000A2FFA29408047E040810207E2010080874
:100130002A1C08081C2A08081E101010100C1E0C7F
:100140001E0C30383E3830060E3E0E060000000011
:100150000000005F00000007000700147F147F14F8
:10016000242A7F2A1223130864623649562050003D
:1001700008070300001C2241000041221C002A1C29
:100180007F1C2A08083E0808008070300008080814
:100190000808000060600020100804023E51494534
:1001A0003E00427F400072494949462141494D3352
:1001B0001814127F1027454545393C4A49493141B9
:1001C000211109073649494936464949291E000087
:1001D00014000000403400000008142241141414DC
:1001E0001414004122140802015909063E415D59C8
:1001F0004E7C1211127C7F494949363E41414122D1
:100200007F4141413E7F494949417F090909013EFA
:10021000414151737F0808087F00417F4100204021
:10022000413F017F081422417F404040407F021C33
:10023000027F7F0408107F3E4141413E7F0909094A
:10024000063E4151215E7F09192946264949493216
:1002500003017F01033F4040403F1F2040201F3FDC
:100260004038403F63140814630304780403615961
:10027000494D43007F4141410204081020004141A3
:10028000417F04020102044040404040000307084F
:100290000020545478407F2844443838444444284B
:1002A000384444287F385454541800087E090218F2
:1002B000A4A49C787F0804047800447D400020407A
:1002C000403D007F1028440000417F40007C0478BE
:1002D00004787C080404783844444438FC18242406
:1002E0001818242418FC7C08040408485454542486
:1002F00004043F44243C4040207C1C2040201C3C03
:100300004030403C44281028444C9090907C4464F9
:10031000544C44000836410000007700000041368C
:10032000080002010204023C2623263C1EA1A16112
:10033000123A4040207A3854545559215555794144
:100340002154547841215554784020545579400C1B
:100350001E527212395555555939545454593955FC
:100360005454580000457C410002457D420001453F
:100370007C40F0292429F0F0282528F07C545545AC
:10038000002054547C547C0A097F4932494949323F
:100390003248484832324A4848303A4141217A3A54
:1003A00042402078009DA0A07D39444444393D401E
:1003B00040403D3C24FF2424487E4943662B2FFCCB
:1003C0002F2BFF0929F620C0887E09032054547979
:1003D000410000447D413048484A32384040227A4A
:1003E000007A0A0A727D0D19317D2629292F2826C7
:1003F0002929292630484D402038080808080808CF
:100400000808382F10C8ACBA2F102834FA00007B27
:10041000000008142A142222142A1408950022002D
:1004200095AA005500AAAA55AA55AA000000FF00E7
:10043000101010FF00141414FF001010FF00FF1024
:1004400010F010F0141414FC001414F700FF000056
:10045000FF00FF1414F404FC141417101F10101FD5
:10046000101F1414141F00101010F0000000001FC3
:10047000101010101F10101010F010000000FF10CE
:100480001010101010101010FF10000000FF1400CA
:1004900000FF00FF00001F10170000FC04F41414FC
:1004A0001710171414F404F40000FF00F7141414C8
:1004B00014141414F700F7141414171410101F1048
:1004C0001F141414F4141010F010F000001F101F6B
:1004D0000000001F14000000FC140000F010F010D9
:1004E00010FF10FF141414FF141010101F00000050
:1004F00000F010FFFFFFFFFFF0F0F0F0F0FFFFFF54
:100500000000000000FFFF0F0F0F0F0F38444438AA
:10051000447C2A2A3E147E02020606027E027E02E5
:1005200063554941633844443C04407E201E200604
:10053000027E020299A5E7A5991C2A492A1C4C7241
:1005400001724C304A4D4D303048784830BC625AC8
:10055000463D3E494949007E0101017E2A2A2A2A58
:100560002A44445F444440514A444040444A514034
:100570000000FF0103E080FF000008086B6B0836F5
:1005800012362436060F090F060000181800000066
:100590001010003040FF0101001F01011E00191D55
:1005A0001712003C3C3C3C0000000000F0F89C8E20
:1005B0008783878E9CF8F00000FEFF03030303038C
:1005C000070EFCF80000FEFF0303030303070EFC05
:1005D000F80000FFFF00000000000000FFFF000027
:1005E000FEFF8383838383C7EE7C380000F8FC0E14
:1005F00007030303070EFCF800003F7FE0C0808084
:10060000C0E07F3FFFFF01010101010101FFFF0089
:1006100000FFFF0C0C0C0C1C3E77E3C100007FFFB9
:10062000C0C0C0C0C0E0703F1F00001F3F70E0C0EE
:10063000C0C0E0703F1F00007FFFC1C1C1C1C1E366
:10064000773E1C00001F3F70E0C0C0C0E0703F1F3D
:10065000000000000001FFFF010000008D14A1C890
:1006600081CFD9F102AF06016400260164004A017E
:100670006400B801C8005D01C80000800601640084
:10068000F7006400E9006400DC006400D000F401BD
:1006900000800808FFF7BDBBBBBDF7FF0808FF934C
:1006A0009E9D9D9E93FF0808FFFF9D9F9FDDFFFF7E
:1006B0000808FF9F999F9F999FFF0B022C010B0237
:1006C0002C0193022C0193022C01B8012C01B801DA
:1006D0002C010B022C010B022C014B022C014B02B2
:1006E0002C01BA022C01BA022C0188012C018801CC
:1006F0002C01EE012C01EE012C0100808040000055
:1007000000F8102010F800F848484800F808088859
:100710008800F84848F800000000F8102010F800A1
:100720000808F80808007088888808007088888899
:1007300008000808F8080800F80000000000F84861
:100740004848007088888808000000000000000009
:100750000000000000000000000000000000000099
:100760000000000000000000000000000000000089
:100770000000000000000000000000000000000079
:100780000007000000070007040404000704040435
:100790000700070000070000000007000000070036
:1007A000040407040400040404040300040404040F
:1007B00003000404070404000704040404000704FD
:1007C000040400040404040300000000000000000E
:1007D0000000000000000000000000000000000019
:1007E0000000000000000000000000000000000009
:1007F00000000000000000000000000000000000F9
:10080000000000E0E0E0E06060E0E0E0E06060E088
:10081000E0E0E00000000000000000000000000038
:1008200000000000000000000000000000000000C8
:100830000000000000000000E0E0E0E06060E0E0B8
:10084000E0E06060E0E0E0E00000000000000000A8
:100850000000000000000000000000000000000098
:100860000000000000000000000000000000000088
:100870000000000000000000000000000000000078
:10088000000000FFFFFFFF7E7E7F7F7F7F7E7EFF79
:10089000FFFFFF00000000000000101054545454EB
:1008A00054545454545454540038FE7C3838383816
:1008B0003838383810000000FFFFE7E7FEFEF9F98E
:1008C000F9F9FEFEE7E7FFFF00000000000000006E
:1008D0000000000000000000000000000000000018
:1008E0000000000000000000000000000000000008
:1008F00000000000000000000000000000000000F8
:100900000000001F1F1F1F1818181818181E1E1F80
:100910001F1F1F000000000000000000000000007A
:1009200000000000000000000000000000000000C7
:1009300000000000000000001F1F1F1F19191919D7
:10094000191919191F1F1F1F0000000000000000C7
:100950000000000000000000000000000000000097
:100960000000000000000000000000000000000087
:100970000000000000000000000000000000000077
:100980000000000000000000000000000000000067
:100990000000000000000000000000000000000057
:1009A0000000000000000000000000000000000047
:1009B0000000000000000000000000000000000037
:1009C0000000000000000000000000000000000027
:1009D0000000000000000000000000000000000017
:1009E0000000000000000000000000000000000007
:1009F00000000000000000000000000000000000F7
:100A000000000000000000000000000000000000E6
:100A100000000000000000000000000000000000D6
:100A200000000000000000000000000000000000C6
:100A300000000000000000000000000000000000B6
:100A400000000000000000000000000000000000A6
:100A50000000000000000000000000000000000096
:100A60000000000000000000000000000000000086
:100A70000000000000000000000000000000000076
:100A80000000000000000000000000000000000066
:100A90000000000000000000000000000000000056
:100AA0000000000000000000000000000000000046
:100AB0000000000000000000000000000000000036
:100AC0000000000000000000000000000000000026
:100AD0000000000000000000000000000000000016
:100AE0000000000000000000000000000000000006
:100AF0000000000000000000000000000000080BE3
:100B000000020202000009040000010202000005C8
:100B10002400100105240101010424020605240615
:100B200000010705810310004009040100020A00CA
:100B30000000070502024000000705830240000094
:100B40000403090412010002EF0201404123368030
:100B500000010102030141726475696E6F204C4C03
:100B6000430041424131313036009D0E11241FBEF9
:100B7000CFEFDAE0DEBFCDBF11E0A0E0B1E0ECEBFB
:100B8000FAE202C005900D92A43CB107D9F726E025
:100B9000A4ECB1E001C01D92A038B207E1F715E066
:100BA000C6EBD5E004C02197FE010E945615C53B57
:100BB000D107C9F70E94CA0E0C945C150C94000072
:100BC0008091FB01089590E0ECE1F2E091119FEF3C
:100BD0008FEF91939193919391938150D0F70895D2
:100BE000ECE1F2E030EB20E146E05C983EBD4A9556
:100BF000F1F72EBD20E8239507C0449140815C9A0F
:100C00004EBD8111412D419344912A95B1F7339501
:100C1000383B49F744910DB40895EF92FF920F933A
:100C20001F93CF93DF93DC01FA0194913196E49105
:100C3000C92FD0E09E012A0F3B1F121613060CF09D
:100C40005AC0A038B1050CF056C07B01EE0EF11C65
:100C5000EF2809F450C0F3E075956795FA95E1F730
:100C6000EE24FF24EA1AFB0AB7FD02C0F12CE12CA6
:100C70002038310514F090E89A1B9E1911E08E2F50
:100C8000877009F410E0E695E695E6951E0F9B0146
:100C9000210F311D2930310514F018E0161B862F65
:100CA0004E5F5F4F4E0D5F1D9B013695322F222701
:100CB000379527952A0F3B1F2E0D3F1D245E3D4F74
:100CC000E82FE61BE117B8F4B0E0A0E0A91768F43C
:100CD000FA01EA0FFB1F049187FD05C07901EA0EB6
:100CE000FB1EF70100831196F1CF4C0F5D1F2058BA
:100CF0003F4F8F5FE5CFDF91CF911F910F91FF9015
:100D0000EF900895FC0180911B02882311F13FB7F9
:100D1000F89482E08093E9002091F200822F90E025
:100D20001816190614F481E090E0882339F0289809
:100D300044E640931A024091F1004083222339F0A7
:100D40002091F200211103C02BE62093E8003FBF61
:100D500008958FEF9FEF08952FB7F89483E0809365
:100D6000E9009091E800892F807295FF04C090916E
:100D7000F20080E4891B2FBF089580911202811137
:100D80000DC082E080930E0284E080930F021092E7
:100D900011021092100281E0809312028EE092E024
:100DA0000895CF93DF931F92CDB7DEB76983DC013F
:100DB000ED91FC910280F381E02D41E050E0BE0115
:100DC0006F5F7F4F09950F90DF91CF91089583E07A
:100DD0008093E9008091F200882319F08AE38093E0
:100DE000E80008950E94AC0690E00895CF93DF9349
:100DF0001F92CDB7DEB7FC018485958597FD08C0AD
:100E00002FEF3FEF358724870F90DF91CF91089523
:100E1000CE0101960E948206019719F4898190E023
:100E2000F3CF8FEF9FEFF0CF0F931F93CF93DF930D
:100E30001F92CDB7DEB78C01FC018485958597FFA5
:100E40000BC0CE0101960E948206019771F4898140
:100E500090E0F80195878487F801848595850F9047
:100E6000DF91CF911F910F9108958FEF9FEFF1CFF9
:100E7000FC018485958597FD0BC09FB7F89482E0AF
:100E80008093E9008091F2009FBF90E00196089561
:100E90009FB7F89482E08093E9008091F2009FBFB1
:100EA00090E00895409108025091090220910602B5
:100EB0003091070242175307B4F49091E8009570FF
:100EC000E1F39091E80092FD19C08093F1008091C8
:100ED00008029091090201968F739927892B19F4C2
:100EE0008EEF8093E80080910802909109020196AC
:100EF000909309028093080281E0089580E00895AC
:100F0000DF92EF92FF920F931F93CF93DF93D82E30
:100F10008A01EB017B01E40EF51ECE15DF0559F0C9
:100F2000D7FE12C0FE0184910E94520721968111C2
:100F3000F4CF0FEF1FEFC801DF91CF911F910F91F9
:100F4000FF90EF90DF9008958881EECF0F931F936D
:100F5000CF93DF931F92CDB7DEB782E0898342E45F
:100F600050E06EEF7AE080E80E9480070E94BD06A4
:100F7000DC0112960D911C910115110589F0D80123
:100F8000ED91FC910280F381E02DBE016F5F7F4FF8
:100F9000C801099597FD04C0F80100851185ECCFC3
:100FA00089810F90DF91CF911F910F91089561502A
:100FB00030F02091F100FC0120830196F8CF2898B1
:100FC00084E680931A020895AF92BF92CF92DF9287
:100FD000EF92FF920F931F93CF93DF936C017B01EE
:100FE0008B01040F151FEB015E01AE18BF08C0177F
:100FF000D10759F06991D601ED91FC910190F081F2
:10100000E02DC6010995892B79F7C501DF91CF91B4
:101010001F910F91FF90EF90DF90CF90BF90AF9016
:101020000895FC010E94A808319728F068517C4F70
:101030008F4F9F4FF9CFAB01FC010E94A8086417A6
:1010400075078E079F07C8F308958F929F92AF92FE
:10105000BF92CF92DF92EF92FF920F931F93CF93A5
:10106000DF936C017B018A0180911201882309F4CE
:101070005AC080911B02882309F455C080910D024B
:1010800080FF05C08091E00082608093E000E8016D
:10109000B12C8AEFA82E93E0892E2AE3922E209776
:1010A00011F4BB20C9F10E94AC06811108C0AA94BA
:1010B000AA20C9F181E090E00E941108F0CF8C17BE
:1010C0001D0611F00CF08C2F9FB7F8948092E90068
:1010D0002091E80025FD02C09FBFE1CF282F30E01E
:1010E000C21BD30BF701815020F041914093F100D6
:1010F000FACFE20EF31EBB2021F09092E800B12C53
:10110000EBCF8091E80085FDE7CF9092E800BB240B
:10111000B394209709F3F3CF5D9884E680930C0293
:10112000101611063CF081E090E0F6019383828373
:1011300010E000E0C801DF91CF911F910F91FF9067
:10114000EF90DF90CF90BF90AF909F908F900895D9
:10115000A9EDB1E02FB7F8947D918D919C9166B582
:101160002FBFA89B05C06F3F18F47F5F8F4F9F4F25
:1011700022E0660F771F881F991F2A95D1F70895DF
:101180002091D001E091CE01F091CF01CF010296E4
:101190009093CF018093CE01222319F085919491F1
:1011A0000895808191810895CF92DF92EF92FF920E
:1011B000CF93DF930E94C008811520E8920791F435
:1011C000809171008D7F80937100109291004698FC
:1011D0005F981092FC01DF91CF91FF90EF90DF902C
:1011E000CF90089521E02093FC01813020E8920700
:1011F00051F48091CC019091CD019093CF018093D7
:10120000CE010E94C00897FD05C02091CB0122238A
:1012100009F454C02091CA01211150C021E020934B
:10122000D101EC01DF77209709F04BC081E080937A
:10123000D20146983FE9C32E3FE0D32EE12CF12C9A
:10124000CAEFD0E0E0917A06F0917B060995811112
:1012500003C081E08093D2018091D101882329F0DD
:101260008091D201882309F43FC05F980E94C00892
:101270000097F1F19C01DE010E944715DC01CB01D2
:1012800029E0B595A795979587952A95D1F710925E
:1012900090002AE020939100D0929900C09298008B
:1012A0008093D3019093D401A093D501B093D6013C
:1012B000809171008260809371008DCF1092D10176
:1012C000B0CF9E0150E040E060E472E48FE090E037
:1012D0000E94F31469017A0181E0C81AD108E1087B
:1012E000F1081092D201AECF4699BFCF5F9ABECF20
:1012F0008FEF9FEFDC01CBCF9C01E1E7F0E0908125
:101300009D7F908381E08093D0013093CF01209323
:10131000CE013093CD012093CC010C94D40890E001
:101320000C9411088FB18095807F669B88601C9B10
:10133000846008951092FB013E98579808953E9A54
:10134000579A81E08093FB01089590E1282F81E076
:1013500061FD84E060FD880F62FD8295687F969F45
:10136000D0011124A20FA45EBD4F0C90082A40FFAB
:1013700008260C920895AF92BF92CF92DF92EF921F
:10138000FF920F931F93CF93DF93EC017B015C01DE
:1013900022E0A20EB11C6B0186E0C80ED11CCA155A
:1013A000DB05E1F08701F7FE02C010E000E0C601B6
:1013B00021E4C216D10414F080E490E00817190764
:1013C0005CF4C038D10528F441E0B801CE010E9498
:1013D000A5090F5F1F4FEBCF2196E1CFDF91CF9192
:1013E0001F910F91FF90EF90DF90CF90BF90AF9043
:1013F00008958F929F92AF92BF92CF92DF92EF9219
:10140000FF920F931F93CF93DF936D3089F0C090BD
:101410000202D09003026A30D1F4109201021092BD
:10142000000288E0C80ED11CD0920302C0920202D2
:1014300081E090E0DF91CF911F910F91FF90EF90AD
:10144000DF90CF90BF90AF909F908F9008950091C4
:10145000000210910102E5E06E9FE0011124C455E5
:10146000DF4F5801F12CF5E0E12CFF1629F0CE01F9
:101470000196FE01E490EC01912C812CF0E8AF166E
:10148000B10458F4B601680D791D6034710528F473
:101490004E2D4170C5010E94A509E6948FEF881A70
:1014A000980AE8E08E16910449F7F394FFEFAF1A1B
:1014B000BF0A86E0F812D7CF0A5F1F4F10930102D0
:1014C00000930002B5CF9091FE01982329F49091EA
:1014D000FF01982381E009F480E00895CF93C82F9D
:1014E0000E949209982F9C2381E09C1380E0CF9169
:1014F000089580E00C94F0058CE390E09093060151
:1015000080930501909302018093010181E090E0B6
:1015100090930401809303011092F6011092F5015B
:101520001092EF011092EE011092F8011092F70163
:101530001092FA011092F9011092E6011092E50161
:101540001092E8011092E7011092F0011092E90167
:101550000895089590E080E008958F929F92AF9251
:10156000BF920F931F93CF93DF93CDB7DEB7A197B1
:101570000FB6F894DEBF0FBECDBF19A2423008F4FB
:101580004AE08E010F5D1F4F842E912CB12CA12CAF
:10159000A50194010E942515E62FB901CA01EA3080
:1015A00044F5E05DD801EE938D01232B242B252BF0
:1015B00079F790E080E0109769F0FD01019000203C
:1015C000E9F73197AF014A1B5B0BBD018CE796E051
:1015D0000E94E407A1960FB6F894DEBF0FBECDBF00
:1015E000DF91CF911F910F91BF90AF909F908F90FF
:1015F0000895E95CD7CFFC0101900020E9F731970D
:10160000AF01481B590BBC018CE796E00C94E40732
:10161000CF92DF92EF92FF92CF93DF936C01990FFD
:10162000EE08FF08F7FE19C06DE28CE796E00E9415
:10163000F909EC0166277727CB016C197D098E0922
:101640009F094AE00E94AD0A8C0F9D1FDF91CF9148
:10165000FF90EF90DF90CF9008954AE0C701B60168
:10166000DF91CF91FF90EF90DF90CF900C94AD0A77
:101670001F920F920FB60F9211248F939F93809118
:10168000E1009091E100937F9093E10083FF0FC010
:101690001092E90091E09093EB001092EC0092E33D
:1016A0009093ED0010921B0298E09093F00082FF5F
:1016B00022C093E09093E9009091F200992319F0F1
:1016C0009AE39093E80090910C02992341F0909155
:1016D0000C02915090930C02911101C05D9A90916F
:1016E0001A02992341F090911A02915090931A0294
:1016F000911101C0289A84FF18C08091E2008E7E6B
:1017000081608093E2008091E1008F7E8093E10010
:1017100080910D028E7E806180930D029F918F914A
:101720000F900FBE0F901F90189580FFF7CF8091FC
:10173000E2008E7E80618093E2008091E1008E7EE7
:101740008093E10080910D028E7E8160E5CF1F9233
:101750000F920FB60F921124CF92DF92EF92FF9269
:101760000F931F932F933F934F935F936F937F93A9
:101770008F939F93AF93BF93EF93FF93CF93DF9399
:10178000CDB7DEB76C97DEBFCDBF1092E900809178
:10179000E80083FF25C068E0CE0145960E94D70788
:1017A00082EF8093E8008D8987FF39C09091E8002F
:1017B00090FFFCCF982F907609F034C19E894F8915
:1017C000588D2F89F88C911131C0803861F5809146
:1017D0000B028093F1001092F1008EEF8093E800ED
:1017E0006C960FB6F894DEBF0FBECDBFDF91CF91E0
:1017F000FF91EF91BF91AF919F918F917F916F91E9
:101800005F914F913F912F911F910F91FF90EF901A
:10181000DF90CF900F900FBE0F901F9018959EEF06
:101820009093E800C7CF1092F100D5CF913059F4D2
:101830008111D3CF4130510581F680910B028D7F0C
:1018400080930B02CACF933049F48111C6CF413047
:10185000510519F680910B028260F2CF953041F468
:101860008091E80080FFFCCF20682093E300B5CF93
:10187000963009F0A9C00B8D1C8D22E01092E90072
:101880001092090210920802F2122EC01092070262
:10189000109206020E94A6071F8299E09983FA829D
:1018A00091E09E8390EA98879AEF998720910802A9
:1018B00030910902275F3F4F3C832B838D83109229
:1018C000E900109209021092080210930702009397
:1018D000060249E050E0BE016F5F7F4F80E00E944A
:1018E00080070E94A60779CF109307020093060293
:1018F0000E94BD06DC0112960D911C910115110587
:1019000009F451C1D801ED91FC910480F581E02DDD
:10191000BE016B5E7F4FC8010995009709F03EC17B
:10192000F80100851185EACFF3E0FF120EC08F8920
:10193000882309F440C0823061F440E867E082E621
:101940009BE00E946A0E811148CF81E28093EB00F8
:1019500047CF813029F440E86BE086E59BE0F1CF8A
:10196000833099F70E94BD06DC011296ED90FC9041
:101970008E010F5F1F4F6801E114F10479F0D70168
:10198000ED91FC910680F781E02DB801C701099522
:10199000080F111DF701E084F184EECFD8011C92ED
:1019A000F60101900020E9F73197BF016C197D091C
:1019B00040E0C601C6CF60E47BE0FB01449150E00B
:1019C00080E80E94800709CF973009F4BECF983095
:1019D00021F481E08093F10000CF993009F0FDCE31
:1019E000837009F0B2CFE8E1F1E081E031E096E305
:1019F0002191222371F08093E9003093EB00DF0105
:101A000011972C912093EC009093ED008F5F87301D
:101A100079F78EE78093EA001092EA008F8980932D
:101A20001B02DBCE8B8D9C8D1092E9001092090277
:101A3000109208029093070280930602898D81110B
:101A400092C08E899D89913A49F4813209F07DCF07
:101A500047E050E06BE071E080E0B3CF913209F0F5
:101A600074CF833269F48F89988DB0E0A0E08093C1
:101A7000070190930801A0930901B0930A01ADCE2C
:101A8000803269F48091E80082FFFCCF67E08BE050
:101A900091E00E94D7078BEF8093E8009ECE8232C0
:101AA00009F09BCE8F8980931201EEEFFFE78591BD
:101AB00094918B3F9C4D51F1E0E0F8E080910B0157
:101AC00090910C01A0910D01B0910E01803B9440CA
:101AD000A105B105F1F48091120180FD1AC0EE3F1D
:101AE0008AE0F80789F587E797E7918380838091FB
:101AF000600080930A0288E19BE00FB6F894A895F5
:101B0000809360000FBE9093600067CEEEEFFAE026
:101B1000D5CF808191818737974709F05ECEA89510
:101B20008091600088618093600080910A028093B8
:101B30006000EE3F2AE0F20789F08091FE0A909162
:101B4000FF0A9183808349CE8081918187379807EE
:101B500051F29093FF0A8093FE0AC5CF1092FF0ABC
:101B60001092FE0A3ACE0E94BD06DC0112960D913B
:101B70001C910115110509F4E8CED801ED91FC91F5
:101B80000190F081E02DBE016B5E7F4FC801099589
:101B9000811123CEF80100851185EBCF18161906A7
:101BA0000CF41BCED2CEF1E0FF12BECE64E47BE09B
:101BB00004CF0F920FB68F939F93EF93FF93809173
:101BC000D8018D5F8D3708F08D578093D801E1EEF5
:101BD000F1E080818E4F808391819F4F918382813C
:101BE0008F4F828383818F4F8383E9EDF1E0808182
:101BF0008F5F808381818F4F818382818F4F82832A
:101C000083818F4F83838FB18F6066991C9B882758
:101C10008F3681F48091D701981B963068F0E0E010
:101C2000F8E087E78083818388E180936000F09308
:101C30006000FFCF9093D701FF91EF919F918F911B
:101C40000FBE0F9018951F920F920FB60F9211248E
:101C50002F933F934F935F936F937F938F939F93B4
:101C6000AF93BF93EF93FF938091D3019091D401F1
:101C7000A091D501B091D6010097A105B10539F128
:101C80002091D201211105C0369A2091D101211154
:101C90004F9A0197A109B109B7FD08C08093D301FC
:101CA0009093D401A093D501B093D601FF91EF9109
:101CB000BF91AF919F918F917F916F915F914F9164
:101CC0003F912F910F900FBE0F901F9018950E947B
:101CD000D408ECCFEF92FF920F931F93CF93DF9333
:101CE000F82E192FE62E042F81E0860F880F0E9410
:101CF000520783E00E945207CF2DD12FEC0EFD2E0C
:101D0000F11CCE15DF05B9F007FF13C0FE01849169
:101D10000E945207182F80E00E94520781232196CB
:101D20008111EFCFDF91CF911F910F91FF90EF9035
:101D300008958881EDCF81E0F5CFECE1F6E01382E4
:101D4000128288EE93E0A0E0B0E084839583A683BE
:101D5000B78382E291E0918380838FEF9FEF958735
:101D60008487ECE7F6E01382128284E391E09183AA
:101D7000808380EE95E090937B0680937A0680E0E6
:101D800090E8909379068093780646983E9A5F98FB
:101D9000579A089500D01F92CDB7DEB7789483E0AC
:101DA00084BD83E085BD81E080936E00E1E8F0E0D2
:101DB00083E08083E0E881E08083E1E983E0808361
:101DC000E0E981E08083E1EC87E08083E3EC81E07F
:101DD0008083E0EC82E08083E2EC81E08083EAE7CC
:101DE00087E080838068808310921B0210920B0230
:101DF00010920D028091D70081608093D70080EA15
:101E00008093D80089B5806189BD89B5826089BD1C
:101E100009B400FEFDCF81E090E00E94110880919E
:101E2000D8008F7C80618093D8008091E000807F13
:101E30008093E0008091E1008E7E8093E1008DE050
:101E40008093E200559A209A81EC80937C0081E790
:101E500085B987E684B985E38BB98FE38AB9769A29
:101E60006E9880EF81BB10BA80E58CBD81E08DBD9E
:101E700085E00E948F09599A85E00E948F095C983D
:101E8000ECE5F6E085918EBD00000DB407FEFDCFB8
:101E9000E636C1F75C9A81E88093640081E0809324
:101EA00065000E94790A80E80E946E0A8823A9F0E2
:101EB0005C9885EA8EBD00000DB407FEFDCF5C9AEC
:101EC0002E9858982D9880916400806280936400C9
:101ED00081E083BF889513BEFCCF84E00E946E0A28
:101EE0008823B9F12D9884E80E946E0A8823A1F016
:101EF0002D9A88EC0E948F0958986FEF82E090E04D
:101F00000E94E11484EF91E00E941108589A84E83D
:101F10000E946E0A8111FBCF84E10E946E0A882321
:101F2000A1F02D9A88EC0E948F092E9860E082E043
:101F300090E00E94E11484EF91E00E9411082E9A33
:101F400084E10E946E0A8111FBCF88EC0E948F0908
:101F5000C4CF2D9A82E090E00E94D914882309F41E
:101F600050C00E949F0981E090E00E94D914182F70
:101F7000147081FF0DC011112E9871EF872E9924D6
:101F80009A9480E40E946E0A8823F1F12E9A589A5E
:101F900082E30E948F090E9492098111F9CF0E9469
:101FA000E3051092030210920202109201021092B5
:101FB000000280E1809300011DED212E11E0312E01
:101FC0000DE7802E912CA12CB12C01E010E088E7C8
:101FD000482E512CF5E56F2E712CA4E1EA2EF12C40
:101FE000B8E2CB2ED12C8091DF01882309F4B1C057
:101FF0001092DF0180E090E0892BA9F30E9400009D
:10200000E9CF0E949A09AFCF112331F004E0801686
:10201000910411F42E9A589881E00E94F005282D21
:102020002770A22EA40193E0559547959A95E1F764
:102030009A013695322F222737952795245E3D4FFA
:1020400070E060E04E3F8FEF580761F190E080E074
:10205000DB01A455BA4F7901E0E8EE0EF11CFD0159
:10206000E80FF91FE491F0E03F010A2C02C0660C72
:10207000771C0A94E2F74F3F540739F06901C80E04
:10208000D91EF601B488B628B48AAA2039F06701AF
:10209000C80ED91EF60104890729048B01968835DC
:1020A0009105E9F64F5F5F4F20583F4F685A7F4FC9
:1020B000603B710539F60E94790A8FE00E948F0912
:1020C000FFEF8F1A9F0A09E18016910409F059CF9A
:1020D000112311F0589A2D9880E991E00E9411087F
:1020E0002D9A81E090E00E94D91480FF51CF8AE0C0
:1020F00090E00E94D9149FEF980F9E3F08F048CFC0
:1021000022E330E0309301022093000228E330E024
:1021100030930302209302022BE030E03B832A83BA
:10212000682F8CE796E00E94F9098A819B810E94C2
:10213000D9144A815B814F5F5F4F5B834A83413192
:10214000510571F70E94790A88EE93E00E94110808
:102150001FCF9091E1018091E001592F581B852FED
:1021600020910001521748F48F5F821708F042CF88
:1021700081E083BF889513BE3DCF81E08093DF016E
:102180009093E001F1018081918101968083918398
:102190000E94E305109203021092020210920102C3
:1021A000109200028091FF018093FE010E9492092B
:1021B0008093FF0180910402909105028130910586
:1021C00009F4D9C02CF4892B61F00E94790A12CF4E
:1021D0008230910509F435C30397B9F78FE991E08F
:1021E00032C34CEF56E070E060E090E080E00E9487
:1021F0000D068CE391E00E94FB0A7092010260924E
:102200000002F0920302E092020283E591E00E9454
:10221000FB0A70920102609200028EE190E09093BE
:102220000302809302028AE591E00E94FB0AF09289
:102230000102E0920002D0920302C092020280E604
:1022400091E00E94FB0A8091FD01882309F458C0A7
:1022500086E691E00E94FB0AE0E5F0E0F0930102DF
:10226000E0930002D0920302C09202028DE691E058
:102270000E94FB0A8091FB01882309F444C089E68F
:1022800091E00E94FB0A88E00E946E0A8823F1F127
:10229000809164008E7F8093640080917A008064D6
:1022A00080937A0080917A0086FDFCCF209178009F
:1022B000309179003B832A830E94A808EA81FB8140
:1022C0009F0150E040E0A90133272227620F731FCE
:1022D000841F951F20916400216020936400611584
:1022E00071058105910511F00E94D01480910402BE
:1022F00090910502019690930502809304020BC011
:1023000089E691E0A7CF86E691E0BBCF84E00E940A
:102310006E0A8111BDCF80E20E94630A811105C05F
:1023200080E40E94630A882331F08091FD018823B4
:10233000D9F01092FD0180E80E94630A811105C066
:1023400080E10E94630A882331F08091FB01882399
:1023500079F00E949A098091FC01811136CF8AEBB5
:1023600096E00E947C0931CF81E08093FD01E3CFAC
:102370000E949F09F0CF8091F9019091FA010E948B
:10238000080B83E791E00E94FB0A8091F70190918E
:10239000F8010E94080B8091F7019091F8010A97CB
:1023A00041F40E947C0A22E030E030930502209341
:1023B00004028091F9019091FA010A9741F40E9478
:1023C0007C0A43E050E0509305024093040280E20F
:1023D0000E946E0A882349F08091050190910601C0
:1023E0000297909306018093050180E40E946E0A93
:1023F000882349F0809105019091060102969093FF
:1024000006018093050188E00E94630A811105C0DE
:1024100084E00E94630A8823C9F08091F5019091BD
:10242000F601892B99F48091050190910601109392
:10243000F6010093F50103969093F4018093F30164
:1024400088E390E09093F2018093F1018091F5018F
:102450009091F601892BC1F06091F1017091F20128
:10246000693F5FEF750724F41092F6011092F501B1
:10247000625071097093F2016093F1018091F30150
:102480009091F4010E94BB09809105019091060191
:102490008937910524F05092060140920501809100
:1024A00005019091060197FF04C010920601109259
:1024B000050180910501909106012091F0012223F0
:1024C00009F493C140EB56E068E370E00E940D060A
:1024D0008091FD0181110BC083E284BD8FEF88BD27
:1024E00091EF909380001092880080938A008091F1
:1024F0000301909104012091010130910201280F04
:10250000391F293731050CF082C130930201209325
:102510000101209101013091020137FF04C01092A6
:10252000020110920101209101013091020128372E
:10253000310511F0232B39F49195819591099093F0
:102540000401809303010E948114A50194010E945B
:10255000F3146F5F7F4F8F4F9F4F6130710559F4B8
:102560008091030190910401919581959109909337
:1025700004018093030180910101909102019B83EA
:102580008A838091050190910601EA81FB81E81719
:10259000F90751F09C012F5F3F4FE217F30721F03D
:1025A0000197E817F907A9F48091EE019091EF01E6
:1025B000892B79F41093EF010093EE018A819B81BE
:1025C00003969093ED018093EC011092EB01109231
:1025D000EA018091EE019091EF01892BB9F06091B1
:1025E000EA017091EB016834710524F01092EF015B
:1025F0001092EE016E5F7F4F7093EB016093EA01E2
:102600008091EC019091ED010E94BB098091E9015C
:10261000882309F401C1F091F001F9834CE956E0F7
:1026200070E060E08A819B810E940D062981211162
:102630000EC08091FD0181110AC083E284BD18BCE7
:1026400081EF809380001092880010928A00809120
:10265000E901882371F08091E7019091E8018C33C2
:10266000910509F0E2C01092E9011092E801109280
:10267000E7018091F001882371F08091E50190914C
:10268000E6018C33910509F0D6C01092F00110924A
:10269000E6011092E5018091EA019091EB01C29769
:1026A00009F04DC02091EC013091ED0180910501C0
:1026B000909106012817390741F1AC014F5F5F4F38
:1026C0002417350711F14F5F5F4F24173507E9F0E5
:1026D0004F5F5F4F24173507C1F04F5F5F4F2417DF
:1026E000350799F04F5F5F4F2417350771F04F5F43
:1026F0005F4F2417350749F04F5F5F4F24173507A9
:1027000021F0089628173907D1F41092EF011092A2
:10271000EE0140E850E05093EB014093EA0181E084
:102720008093F0018CE796E00E947C098091F9018A
:102730009091FA0101969093FA018093F9018091AA
:10274000F1019091F201069709F03FCD2091F3013C
:102750003091F4018091010190910201281739070D
:1027600049F1AC014F5F5F4F2417350719F14F5FF7
:102770005F4F24173507F1F04F5F5F4F2417350780
:10278000C9F04F5F5F4F24173507A1F04F5F5F4FD0
:102790002417350779F04F5F5F4F2417350751F045
:1027A0004F5F5F4F2417350729F008962817390720
:1027B00009F00BCD1092F6011092F50180E89FEF21
:1027C0009093F2018093F10181E08093E90186E624
:1027D00096E00E947C098091F7019091F8010196A2
:1027E0009093F8018093F701F0CC46EA56E068E355
:1027F00070E00E940D0683E284BD8FEF88BD81EFFB
:10280000809380001092880010928A0070CE5092BF
:102810000201409201017DCE42E956E070E060E0A5
:102820008A819B810E940D0612CF01969093E80148
:102830008093E7011ECF01969093E6018093E50116
:102840002ACF8BE791E00E94FB0A88E00E94630A8E
:10285000882329F01093050200930402B6CC84E08B
:102860000E94630A8111F6CFB0CC8F929F92AF92F3
:10287000BF92CF92DF92EF92FF92CF93DF93EC0162
:10288000688179818A819B81611571058105910536
:1028900021F464E279ED8BE597E02DE133EF41E03F
:1028A00050E00E94F31449015A019B01AC01A7EAD0
:1028B000B1E40E9412156B017C01ACEEB4EFA501EE
:1028C00094010E942015C60ED71EE81EF91EF7FEC1
:1028D00006C081E0C81AD108E10880E8F80AC88279
:1028E000D982EA82FB82C701B6019F77DF91CF913F
:1028F000FF90EF90DF90CF90BF90AF909F908F9020
:1029000008958F929F92AF92BF92CF92DF92EF92F3
:10291000FF926091130170911401809115019091C3
:102920001601611571058105910521F464E279EDC7
:102930008BE597E02DE133EF41E050E00E94F31486
:1029400049015A019B01AC01A7EAB1E40E941215AA
:102950006B017C01ACEEB4EFA50194010E9420153F
:10296000C60ED71EE81EF91EF7FE06C081E0C81A83
:10297000D108E10880E8F80AC0921301D09214014E
:10298000E0921501F0921601C701B6019F77FF9002
:10299000EF90DF90CF90BF90AF909F908F90089571
:1029A00060931301709314018093150190931601A5
:1029B0000895F999FECF92BD81BDF89A992780B507
:1029C0000895262FF999FECF92BD81BDF89A0197FF
:1029D00000B4021639F01FBA20BD0FB6F894FA9A67
:1029E000F99A0FBE0895052E97FB1EF400940E94DD
:1029F0000A1557FD07D00E94251507FC03D04EF499
:102A00000C940A1550954095309521953F4F4F4FA6
:102A10005F4F089590958095709561957F4F8F4F8A
:102A20009F4F08950E944715A59F900DB49F900D4C
:102A3000A49F800D911D11240895B7FF0C941215C9
:102A40000E941215821B930B0895A1E21A2EAA1B55
:102A5000BB1BFD010DC0AA1FBB1FEE1FFF1FA2174E
:102A6000B307E407F50720F0A21BB30BE40BF50B4B
:102A7000661F771F881F991F1A9469F760957095D4
:102A8000809590959B01AC01BD01CF010895A29F57
:102A9000B001B39FC001A39F700D811D1124911D32
:102AA000B29F700D811D1124911D0895EE0FFF1F1F
:0C2AB0000590F491E02D0994F894FFCFFC
:102ABC00103C0001003C00FFFFFFFF00E1000000A4
:102ACC000000000100000000C18081000000000037
:102ADC000000D1062508F206E7063807F6061407AB
:102AEC0000000000F909E407AA0AA90A0A0A0A0A5E
:102AFC000A0A0A4D696B6D6F6F6D616D696D6F635D
:102B0C006B6900412F4220544F00535441525400E2
:102B1C004441524B20004F4E004F4646004D5554F9
:102B2C004520000A0A0A0A0A0A0A00594F5520577A
:102B3C00494E210A0A0A0A505245535320412F424A
:102B4C000A544F20504C415920414741494E00599D
:102B5C004F55204C4F5345210A0A0A0A50524553EF
:102B6C005320412F420A544F20504C415920414789
:042B7C0041494E007D
:00000001FF
