:100000000C94CC070C94F4070C94F4070C94F407AC
:100010000C94F4070C94F4070C94F4070C94F40774
:100020000C94F4070C94F4070C94560E0C94C50E23
:100030000C94F4070C94F4070C94F4070C94F40754
:100040000C94F4070C94F4070C94F4070C94F40744
:100050000C94F4070C94F4070C94F4070C94F71028
:100060000C94F4070C94F4070C94F4070C94F40724
:100070000C94F4070C94F4070C94F4070C94F40714
:100080000C9441110C94F4070C94F4070C94F407AD
:100090000C94F4070C94F4070C94F4070C94F407F4
:1000A0000C94F4070C94F4070C94F407000000007F
:1000B000003E5B4F5B3E3E6B4F6B3E1C3E7C3E1CEE
:1000C000183C7E3C181C577D571C1C5E7F5E1C0034
:1000D000183C1800FFE7C3E7FF0018241800FFE7EB
:1000E000DBE7FF30483A060E2629792926407F05AE
:1000F0000507407F05253F5A3CE73C5A7F3E1C1CC4
:1001000008081C1C3E7F14227F22145F5F005F5F83
:1001100006097F017F006689956A6060606060946F
:10012000A2FFA29408047E040810207E2010080874
:100130002A1C08081C2A08081E101010100C1E0C7F
:100140001E0C30383E3830060E3E0E060000000011
:100150000000005F00000007000700147F147F14F8
:10016000242A7F2A1223130864623649562050003D
:1001700008070300001C2241000041221C002A1C29
:100180007F1C2A08083E0808008070300008080814
:100190000808000060600020100804023E51494534
:1001A0003E00427F400072494949462141494D3352
:1001B0001814127F1027454545393C4A49493141B9
:1001C000211109073649494936464949291E000087
:1001D00014000000403400000008142241141414DC
:1001E0001414004122140802015909063E415D59C8
:1001F0004E7C1211127C7F494949363E41414122D1
:100200007F4141413E7F494949417F090909013EFA
:10021000414151737F0808087F00417F4100204021
:10022000413F017F081422417F404040407F021C33
:10023000027F7F0408107F3E4141413E7F0909094A
:10024000063E4151215E7F09192946264949493216
:1002500003017F01033F4040403F1F2040201F3FDC
:100260004038403F63140814630304780403615961
:10027000494D43007F4141410204081020004141A3
:10028000417F04020102044040404040000307084F
:100290000020545478407F2844443838444444284B
:1002A000384444287F385454541800087E090218F2
:1002B000A4A49C787F0804047800447D400020407A
:1002C000403D007F1028440000417F40007C0478BE
:1002D00004787C080404783844444438FC18242406
:1002E0001818242418FC7C08040408485454542486
:1002F00004043F44243C4040207C1C2040201C3C03
:100300004030403C44281028444C9090907C4464F9
:10031000544C44000836410000007700000041368C
:10032000080002010204023C2623263C1EA1A16112
:10033000123A4040207A3854545559215555794144
:100340002154547841215554784020545579400C1B
:100350001E527212395555555939545454593955FC
:100360005454580000457C410002457D420001453F
:100370007C40F0292429F0F0282528F07C545545AC
:10038000002054547C547C0A097F4932494949323F
:100390003248484832324A4848303A4141217A3A54
:1003A00042402078009DA0A07D39444444393D401E
:1003B00040403D3C24FF2424487E4943662B2FFCCB
:1003C0002F2BFF0929F620C0887E09032054547979
:1003D000410000447D413048484A32384040227A4A
:1003E000007A0A0A727D0D19317D2629292F2826C7
:1003F0002929292630484D402038080808080808CF
:100400000808382F10C8ACBA2F102834FA00007B27
:10041000000008142A142222142A1408950022002D
:1004200095AA005500AAAA55AA55AA000000FF00E7
:10043000101010FF00141414FF001010FF00FF1024
:1004400010F010F0141414FC001414F700FF000056
:10045000FF00FF1414F404FC141417101F10101FD5
:10046000101F1414141F00101010F0000000001FC3
:10047000101010101F10101010F010000000FF10CE
:100480001010101010101010FF10000000FF1400CA
:1004900000FF00FF00001F10170000FC04F41414FC
:1004A0001710171414F404F40000FF00F7141414C8
:1004B00014141414F700F7141414171410101F1048
:1004C0001F141414F4141010F010F000001F101F6B
:1004D0000000001F14000000FC140000F010F010D9
:1004E00010FF10FF141414FF141010101F00000050
:1004F00000F010FFFFFFFFFFF0F0F0F0F0FFFFFF54
:100500000000000000FFFF0F0F0F0F0F38444438AA
:10051000447C2A2A3E147E02020606027E027E02E5
:1005200063554941633844443C04407E201E200604
:10053000027E020299A5E7A5991C2A492A1C4C7241
:1005400001724C304A4D4D303048784830BC625AC8
:10055000463D3E494949007E0101017E2A2A2A2A58
:100560002A44445F444440514A444040444A514034
:100570000000FF0103E080FF000008086B6B0836F5
:1005800012362436060F090F060000181800000066
:100590001010003040FF0101001F01011E00191D55
:1005A0001712003C3C3C3C0000000000080B00021D
:1005B00002020000090400000102020000052400FC
:1005C000100105240101010424020605240600018E
:1005D0000705810310004009040100020A00000021
:1005E00007050202400000070583024000000403E3
:1005F000090412010002EF0201404123368000018C
:100600000102030141726475696E6F204C4C430016
:100610004142413131303600F0F89C8E8783878E1D
:100620009CF8F00000FEFF0303030303070EFCF831
:100630000000FEFF0303030303070EFCF80000FFA6
:10064000FF00000000000000FFFF0000FEFF8383AA
:10065000838383C7EE7C380000F8FC0E0703030396
:10066000070EFCF800003F7FE0C08080C0E07F3FC5
:10067000FFFF01010101010101FFFF0000FFFF0C6D
:100680000C0C0C1C3E77E3C100007FFFC0C0C0C053
:10069000C0E0703F1F00001F3F70E0C0C0C0E070AE
:1006A0003F1F00007FFFC1C1C1C1C1E3773E1C00F5
:1006B000001F3F70E0C0C0C0E0703F1F000000009E
:1006C0000001FFFF010000008D14A1C881CFD9F106
:1006D00002AFFFFFFFFFFFFFFFFFFFFFFFFFFFFF77
:1006E000FFFFFFFFF0FFE1FFFFFFFFFFFFFFFFFF47
:1006F000FFFFFFFF867F1EFFFFFFFFFFFFFFFFFFE4
:10070000FFFFFFFF3F7C7E7FFFFFFFFFFFFFFFFF3D
:10071000FFFFFFFF7E7DFF7FFFFFFFFFFFFFFFFF6C
:10072000FFFFFFFE7EFDFE7FFFFFFFFFFFFFFFFFDE
:10073000FFFFFFFCFEFDFEFFFFFF87FFFFFFFFFF48
:10074000FFFFFFFDFDF9FDFFFFFF87FFFFFFFFFF3D
:10075000FFFFFFFDFDFBFDFFFFFF87FFFFFFFFFF2B
:10076000FFFFFFFDFDFBFBFFFFFF87FFFFFFFFFF1D
:10077000FFFFFFFDFDFBFBFFFFFFFFFFFFFFFFFF95
:10078000FFFFFFFDFDFBFBFFFFFFFFFFFFFFFFFF85
:10079000FF3FFFFDFDFBF7FFFFFFFFFFFFFFFFFF39
:1007A000FF3FFFFDFDFBF7FFFFFFFFFFFFFFFFFF29
:1007B000FF3FFFFDFDFBF7FFFFFFFFFFFFFFFFFF19
:1007C000FF3FFFFDBDFAF7FFFFFFFFFFFFFC3FFF0D
:1007D000FF3FFFFDBDFAF7F000078787FFFC3FFFF3
:1007E000FF3FFFFDBDFAF7F000078783FFFC3FFFE7
:1007F000FF3FFFFDBDFAF7F000078781FFFC3FF9DF
:10080000FF3FFFFDBDFAF7F000078780FFFC3FF9CF
:10081000FF3FFFFDBDFAF7F07FFF87807FFC3FF9C8
:10082000FF3FFFFDBDFAF7F07FFF87803FFC3FF9F8
:10083000FF3FFFFDBDFAF7F07FFF87801FFC3FF908
:10084000FF3FFFFDBDFAF7F07FFF87800FFC3FF908
:10085000FF3FFFFDBDFAF7F07FFF878407FC3FF9FC
:10086000FF3FFFFDBDFAF7F07FFF878607FC3FF9EA
:10087000FF3FFFFDBDFAF7F07FFF878703FC3FF9DD
:10088000FF3FFFFDBDFAF7F07FFF878701FC3FF9CF
:10089000FF3FFFFDBDFAF7F07FFF878781FC3FF93F
:1008A000FF3FFFFDBDFAF7E0000F8787C0FC3FF96F
:1008B000FF3FFFFDBDFAF7E0000F8787C0FC3FF95F
:1008C000FF3FFFFDBDFAF7E0000F8787E07C3FF9AF
:1008D000FF3FFFFDBDFAF7E0000F8787F03C3FF9CF
:1008E000FF3FFFFDBDFAF7E0000F8787F83C3FF9B7
:1008F000FF3FFFFDBDFAF7F07FFF8787F81C3FF948
:10090000FF3FFFFDBDFAF7F07FFF8787FC0C3FF943
:10091000FF3FFFFDBDFAF7F07FFF8787FC0C3FF933
:10092000FF3FFFFDBDFAF7F07FFF8787FE043FF929
:10093000FF3FFFFDBDFAF7F07FFF8787FE003FF91D
:10094000FF3FFFFDBDFAF7F07FFF8787FF003FF90C
:10095000FF3FFFFDBDFAF7F07FFF8787FF003FF9FC
:10096000FF3FFFFDBDFAF7F07FFF8787FF803FF96C
:10097000FF3FFFFDBDFAF7F07FFF8787FF803FF95C
:10098000FF3FFFFDBDFAF7F07FFF8787FFC03FF90C
:10099000FF0FFFFDBDFAF7F07FFF8787FFE03FF90C
:1009A000FE1FFFFDBDFAF7F07FFF8787FFE03FF9ED
:1009B000FC3FFFFDBDFAF7F07FFF8787FFF03FF9AF
:1009C000F83FFFFDBDFAF7FFFFFFFFFFFFFFFFF955
:1009D000FF3FFFFDBDFAF7FFFFFFFFFFFFFFFFF93E
:1009E000FF3FFFFDBDFAF7FFFFFFFFFFFFFFFFF92E
:1009F000FF3FFFFDBDFAF7FFFFFFFFFFFFFFFFF91E
:100A0000FF3FFFFDBDFAF7FFFFFFFFFFFFFFFFF90D
:100A1000FF3FFFFDBDFAF7FFFFFFFFFFFFFFFFF9FD
:100A2000FF3FFFFDBDFAF7FFFFFFFFFFFFFFFFF9ED
:100A3000FF3FFFFDBDFAF7FFFFFFFFFFFFFFFFF8DE
:100A40003F3FFFFDBDFAF7FFFFFFFFFFFFFFFFF096
:100A50007FFFFFFDBDFAF7FFFFFFFFFFFFFFFFE096
:100A60007FFFFFFDBDFAF7FFFFFFFFFFFFFFFFC1A5
:100A7000FFFFFFFDBDFAF7FFFFFFFFFFFFFFFFF9DD
:100A8000FFFFFFFDBDFAF7FFFFFFFFFFFFFFFFF9CD
:100A9000FFFFFFFDBDFAF7FFFFFFFFFFFFFFFFF9BD
:100AA000FFFFFFFDBDFAF7FFFFFFFFFFFFFFFFF9AD
:100AB000FFFFFFFDBDFAF7FFFFFFFFFFFFFFFFF99D
:100AC000FFFFFFFDBDFAF7FFFFFFFFFFFFFFFFFF87
:100AD000FFFFFF0F0E040000001098DCFEFFFFFE7A
:100AE000DC98100000004060727B7B7FFFFFFFFFFF
:100AF0007F7B7B726040F07CFEFFFFFFCF67773E1D
:100B00001C00000000004160603F3F331F1C180CB8
:100B10000C0C06060303000000FC7EFEE7F37FE7F3
:100B2000F33E1C0000000000000404090F0E121424
:100B30002727080810100000001C3EE263FFFF6337
:100B4000E23E1C00000000000000007FFE0000FEEE
:100B50007F00000000000000001C3EF3E77FF3E789
:100B6000FE7EFC00000010100808272714120E0F4C
:100B700009040400000000000000001C3E7767CF5D
:100B8000FFFFFFFE7CF0030306060C0C0C181C1F75
:100B9000333F3F606041FFFFFFFFFFFFFFFFFFFFAD
:100BA0007F3F1F1F0F07070303030101010101011D
:100BB0000101010101010101010101030303030717
:100BC000070F1F3F7FFFFFFFFFFFFFFFFFFFFFFF3D
:100BD000FFFFFFFFFFFFFFFFFFFFFFFFFFFFFFFF25
:100BE000FFFFFFFFFFFFFFFFFFFFFFFFFFFFFFFF15
:100BF000FFFFFFFFFFFFFFFFFFFFFFFFFFFFFFFF05
:100C0000FFFFFFFFFFFFFFFFFFFFFFFFFFFFFFFFF4
:100C1000FFFFFFFFFFFFFFFF7F3F1F0F07030100E5
:100C200000000000000000000080C0E0F0F0F8F8D4
:100C3000F8FCFCF830000080C0F0F0F8FCFCFCFE92
:100C4000FEFC380000FFFFFFFFFFFFFFFFFFFFFF7D
:100C5000FFFF0000BEBEBE1D41E3FFFF3F1FDFEFF1
:100C6000EFDF1F3FFF0F0FDFEFEFFF0C0CFFFF1F4A
:100C70001F6FCFEFFFFFFFFFFFFFFFFFFFFFFFFF34
:100C8000FFFFFFFFFFFFFFFFFFFFFFFFFFFFFFFF74
:100C9000FFFFFFFFFFFFFF03000000C0E0E00000D8
:100CA00000000000000000001E3F7FFF7F7F7F3FAD
:100CB0001F0703010000000F0F1F1F1F0F0F0F075B
:100CC0000380C0E0FEFFFFFFFFFFFFFFFFFFFFFF0E
:100CD000FFFFE0E0EFEFE7F7F0F8FFFFF8F0E7EFF6
:100CE000EFF7F0F8FFE0E0FFFFFFFFE0E0FFFFF7C6
:100CF000EEEEF0F1FFFFFFFFFFFFFFFFFFFFFFFF43
:100D0000FFFFFFFFFFFFFFFFFFFFFFFFFFFFFFFFF3
:100D1000FFFFFFFFFFFFFFC080F8FFFFFFFFFFFCAB
:100D2000F0E0C080000000000000000000000000B3
:100D3000E0B060C0800000000000000070F8FCFE21
:100D4000FFFFFFFFFFFFFFFFFFFFFFFFFFFFFFFFB3
:100D5000FFFFFFFFFFFFFFFFFFFF0F03F1FDFD7E22
:100D60007E7C7EFFFF3F1FDFEFEFDF1F3FFF7F1F18
:100D7000DFEFCF1F3FFFFF1F1F6FCFEFFFFFFFFF13
:100D8000FFFFFFFFFFFFFFFFFFFFFFFFFFFFFFFF73
:100D9000FFFFFFFFFFFFFFFFF7E7D7D7B7B777F7F3
:100DA000F7F7EFDFBFBEFE7C7C38300000000000AC
:100DB000000103CE7DBD1A0C00000000000001C33D
:100DC000FFFFFFFFFFFFFFFFFFFFFFFFFFFFFFFF33
:100DD000FFFFFFFFFFFFFFFFFFFFFCF8F3F7EFEF61
:100DE000EFE0F0FFFFF8F0E7EFEFF7F0F8FFF8F0D3
:100DF000E6EEEEE6FEFFFFF7EEEEF0F1FFFFFFFF9F
:100E0000FFFFFFFFFFFFFFFFFFFFFFFFFFFFFFFFF2
:100E1000FFFFFFFFFFFFFFFFFFFFFFFFFFFFFFFEE3
:100E2000FDFDFBF7EFD1B0A0408000000000000006
:100E300018BEBF7FFFFEFDFAFAF4E8E8D0D0B0A3F9
:100E400066EDFBFBF7EFCFDFBFBFBF7F7F7F7FFF8D
:100E5000FFFFFFFFFFFFFFFFFFFFFFFFFFFFFFFFA2
:100E6000FFFFE3C18C9E3E3CFFFFFF00007F3F9FE2
:100E7000CFEFFF0C0CFFFF0C0CFFFF0F0FDFEFEFAE
:100E8000CF1F3FFFFF3F1FCFEFEFDF0F0FFFFFFF32
:100E9000FFFFFFFFFFFFFFFFFFFFFFFFFFFFFFFF62
:100EA000FFFFFFFFFFFFFFFFFFFEFDFDFAF6F6EE7F
:100EB000DCBC7DFFFEFDFDFBF7F7EFEFDFDFBFBF23
:100EC0007F7EFEFEFDFDFBFBFBFBFBFBFBFBFDFC5E
:100ED000FEFEFFFFFFFFFFFFFFFFFFFFFFFFFFFF24
:100EE000FFFFF7EFEFEFE7F0F8FFFFE0E0FEFCF1C8
:100EF000E3EFFFE0E0FFFFE0E0FFFFE0E0FFFFFFE8
:100F0000FFE0E0FFFFF870E7EFEF7700C0FFFFFFC3
:100F1000FFFFFFFFFFFFFFA3AB8BFF83BB83FF83BD
:100F2000F7EF83FF83ABBBFFA3AB8BFFFFFFFFFF9D
:100F3000FFFFFFFEFEFDFDFDFBFBFBF7F7F7F7F7FD
:100F4000F7FBFAFAFDFDFFFFFFFFFFFFFFFFFFFFCB
:100F5000FFFFFFFFFFFFFFFFFFFFFFFFFFFFFFFFA1
:100F6000FFFFFFFFFFFFFFFFFFFFFFFFFFFFFFFF91
:100F7000FFFFFFFFFFFFFFFFFFFFFFFFFFFFFFFF81
:100F8000FFFFFFFFFFFFFEFEFEFEFFFFFFFFFFFF75
:100F9000FFFFFFFFFFFFBB1111241FBECFEFDAE001
:100FA000DEBFCDBF11E0A0E0B1E0ECE5F6E302C0AA
:100FB00005900D92AE35B107D9F726E0AEE5B1E068
:100FC00001C01D92A734B207E1F717E0CCECD7E0DF
:100FD00004C02197FE010E943419CB3CD107C9F708
:100FE0000E94E8110C942C1B0C94000080917B0152
:100FF0000895EDEDF1E030EB20E146E05C983EBD78
:101000004A95F1F72EBD20E8239507C04491408111
:101010005C9A4EBD8111412D419344912A95B1F7BF
:101020003395383B49F70DB408952FB7F89483E012
:101030008093E9009091E800892F807295FF04C0A9
:101040009091F20080E4891B2FBF0895FC018091EC
:10105000DC01882311F13FB7F89482E08093E90026
:101060002091F200822F90E01816190614F481E006
:1010700090E0882339F0289844E64093DB014091C2
:10108000F1004083222339F02091F200211103C0A6
:101090002BE62093E8003FBF08958FEF9FEF089560
:1010A0008091D30181110DC082E08093CF0184E053
:1010B0008093D0011092D2011092D10181E08093EF
:1010C000D3018FEC91E00895409175015091760124
:1010D000209173013091740142175307B4F4909139
:1010E000E8009570E1F39091E80092FD19C08093BB
:1010F000F100809175019091760101968F73992787
:10110000892B19F48EEF8093E800809175019091FE
:1011100076010196909376018093750181E00895A0
:1011200080E00895DF92EF92FF920F931F93CF9389
:10113000DF93D82E8A01EB017B01E40EF51ECE155C
:10114000DF0559F0D7FE12C0FE0184910E946408A9
:1011500021968111F4CF0FEF1FEFC801DF91CF91DE
:101160001F910F91FF90EF90DF9008958881EECF4F
:101170000F931F93CF93DF931F92CDB7DEB782E01B
:10118000898342E450E06CEA75E080E80E949208AE
:101190000E945008DC0112960D911C910115110559
:1011A00089F0D801ED91FC910280F381E02DBE0120
:1011B0006F5F7F4FC801099597FD04C0F801008556
:1011C0001185ECCF89810F90DF91CF911F910F9105
:1011D0000895615030F02091F100FC0120830196C8
:1011E000F8CF289884E68093DB010895AF92BF92F0
:1011F000CF92DF92EF92FF920F931F93CF93DF93E3
:101200006C017B018B01040F151FEB015E01AE1811
:10121000BF08C017D10759F06991D601ED91FC9133
:101220000190F081E02DC6010995892B79F7C50160
:10123000DF91CF911F910F91FF90EF90DF90CF90B2
:10124000BF90AF900895CF93DF931F92CDB7DEB7D5
:101250006983DC01ED91FC910280F381E02D41E096
:1012600050E0BE016F5F7F4F09950F90DF91CF91E6
:10127000089583E08093E9008091F200882319F0BB
:101280008AE38093E80008950E94150890E008958D
:10129000CF93DF931F92CDB7DEB7FC018485958590
:1012A00097FD08C02FEF3FEF358724870F90DF9120
:1012B000CF910895CE0101960E942608019719F456
:1012C000898190E0F3CF8FEF9FEFF0CF0F931F93C3
:1012D000CF93DF931F92CDB7DEB78C01FC018485DD
:1012E000958597FF0BC0CE0101960E9426080197B5
:1012F00071F4898190E0F80195878487F8018485ED
:1013000095850F90DF91CF911F910F9108958FEFE9
:101310009FEFF1CFFC018485958597FD0BC09FB7AA
:10132000F89482E08093E9008091F2009FBF90E002
:10133000019608959FB7F89482E08093E900809128
:10134000F2009FBF90E00895FC010E943B0A319794
:1013500028F068517C4F8F4F9F4FF9CFAB01FC01B4
:101360000E943B0A641775078E079F07C8F308950C
:101370008F929F92AF92BF92CF92DF92EF92FF92A5
:101380000F931F93CF93DF936C017B018A018091B0
:101390000B01882309F45AC08091DC01882309F4E9
:1013A00055C08091790180FF05C08091E000826086
:1013B0008093E000E801B12C8AEFA82E93E0892EFB
:1013C0002AE3922E209711F4BB20C9F10E94150840
:1013D000811108C0AA94AA20C9F181E090E00E947E
:1013E000A409F0CF8C171D0611F00CF08C2F9FB7BD
:1013F000F8948092E9002091E80025FD02C09FBF8B
:10140000E1CF282F30E0C21BD30BF701815020F031
:1014100041914093F100FACFE20EF31EBB2021F080
:101420009092E800B12CEBCF8091E80085FDE7CFEA
:101430009092E800BB24B394209709F3F3CF5D9812
:1014400084E680937801101611063CF081E090E06C
:10145000F6019383828310E000E0C801DF91CF9111
:101460001F910F91FF90EF90DF90CF90BF90AF90C2
:101470009F908F900895AFE6B1E02FB7F8947D91DB
:101480008D919C9166B52FBFA89B05C06F3F18F446
:101490007F5F8F4F9F4F22E0660F771F881F991F36
:1014A0002A95D1F70895AB01FC010E943B0A4150F7
:1014B0005109E109F10928F068517C4F8F4F9F4F86
:1014C000F6CFAB01FC010E943B0A641775078E073B
:1014D0009F07C8F308952FB7F89460918001709129
:1014E000810180918201909183012FBF0895209105
:1014F000CC01E091CA01F091CB01CF01029690930B
:10150000CB018093CA01222319F08591949108950B
:10151000808191810895CF92DF92EF92FF92CF93D5
:10152000DF930E94770A811520E8920791F4809159
:1015300071008D7F809371001092910046985F98A2
:1015400010926601DF91CF91FF90EF90DF90CF90E6
:10155000089521E020936601813020E8920751F43C
:101560008091C8019091C9019093CB018093CA01E9
:101570000E94770A97FD05C020916501222309F496
:1015800054C020916401211150C021E020936701D3
:10159000EC01DF77209709F04BC081E08093680170
:1015A00046983FE9C32E3FE0D32EE12CF12CCAEF41
:1015B000D0E0E0913D06F0913E060995811103C00F
:1015C00081E08093680180916701882329F08091F0
:1015D0006801882309F43FC05F980E94770A00974A
:1015E000F1F19C01DE010E942519DC01CB0129E00B
:1015F000B595A795979587952A95D1F71092900064
:101600002AE020939100D0929900C0929800809394
:10161000690190936A01A0936B01B0936C01809172
:1016200071008260809371008DCF10926701B0CFFE
:101630009E0150E040E060E472E48FE090E00E94A0
:101640009A1869017A0181E0C81AD108E108F10805
:1016500010926801AECF4699BFCF5F9ABECF8FEF91
:101660009FEFDC01CBCF9C01E1E7F0E090819D7F13
:1016700090831092CC01EFE2F6E0F093CB01E0937F
:10168000CA01F093C901E093C801318320837383B9
:10169000628380E090E8958384830C948B0A90E0C9
:1016A0000C94A4098FB18095807F669B88601C9BF9
:1016B0008460089590E1282F81E061FD84E060FD61
:1016C000880F62FD8295687F969FD0011124A20F3A
:1016D000A352BE4F0C90082A40FF08260C92089592
:1016E0002F923F924F925F926F927F928F929F9232
:1016F000AF92BF92CF92DF92EF92FF920F931F9320
:10170000CF93DF9300D000D000D01F92CDB7DEB7CB
:101710006D30C9F020900C016090BD017090BE0149
:10172000022D10E06A3051F51092C0011092BF01F5
:1017300083E0000F111F8A95E1F7600E711E709211
:10174000BE016092BD0181E090E027960FB6F8944B
:10175000DEBF0FBECDBFDF91CF911F910F91FF90E4
:10176000EF90DF90CF90BF90AF909F908F907F9041
:101770006F905F904F903F902F9008952091C101FE
:101780002B8380910D018C834090BF015090C0014C
:1017900025E0629FF0011124E455FF4FFF83EE83A3
:1017A000620119828981312C853041F08E819F81BF
:1017B0000196EE81FF8134909F838E834301F8E090
:1017C000FA8330FC20C02B818C81281719F12D83DE
:1017D00076018E2D8C198215E8F4B12CA12CA2145F
:1017E000A8F4E0E8EE16F10450F4B4016A0D7B1D94
:1017F0006034710520F44D81C7010E945A0BFFEF40
:10180000AF1ABF0AECCF9C819D83E2CF2FEFE21A83
:10181000F20ADFCF36948A8181508A83800E911E2E
:101820008111CFCF99819F5F9983C00ED11E9630D1
:1018300009F0B8CF299E400C511C11245092C001D0
:101840004092BF0180CFCF93C82F0E94520B982F98
:101850009C2381E09C1380E0CF91089580E00C945C
:10186000F9072F923F924F925F926F927F928F92E1
:101870009F92AF92BF92CF92DF92EF92FF920F931F
:101880001F93CF93DF9300D000D0CDB7DEB76E2C7F
:1018900030E0F901E80FF91F1E161F060CF095C085
:1018A000803891050CF091C0402E512CF201E60FCA
:1018B000F71F1E161F060CF088C0603471050CF06F
:1018C00084C0E62FE7707E2EF7E04F0E511CE3E058
:1018D00055944794EA95E1F7F3E075956795FA9585
:1018E000E1F7A62E660FBB08B5017695762F662721
:1018F00077956795680F791F63527E4FDA0110E084
:1019000000E07801EA0CFB1C48E0E416F1040CF05E
:101910005CC0EFEFEE16FE060CF44DC09C838B838B
:1019200050E040E04B01F0E88F0E911CCB80DC8052
:10193000D7FC31C0FD01E40FF51FE491F0E06F0129
:10194000072C02C0CC0CDD1C0A94E2F7DA82C982B3
:10195000EFEFEE16FE0609F456C06B01C40ED51E5D
:10196000F6013080F1E06F1247C0E9813E2AF601AE
:101970003082772081F0F7E0EF16F10461F0640126
:10198000C40ED51EF6013080F1E0EA816F1238C036
:101990003E2AF60130824F5F5F4FEB81FC8131962A
:1019A000FC83EB834217530734F4EB81FC81E0386E
:1019B000F10509F0BBCF0F5F1F4F60587F4FA20F9B
:1019C000B31F4016510609F09CCF0F900F900F9057
:1019D0000F90DF91CF911F910F91FF90EF90DF90CB
:1019E000CF90BF90AF909F908F907F906F905F90BF
:1019F0004F903F902F900895298020943220B7CFA8
:101A0000E0953E22C6CF7110BACFC5CF982FEDED2D
:101A1000F1E091119FEF8FEF9193919391939193B7
:101A20008150D0F7089580E00E94060D1092BE010B
:101A30001092BD011092C0011092BF010895089547
:101A400090E080E00895CF93DF9381E692E00E94DA
:101A50008418CDEDD5E0888382E692E00E94841858
:101A60008983CE01DF91CF9108950C948418FB01F6
:101A700001900020E9F73197AF01461B570BDC01BD
:101A8000ED91FC910280F381E02D09948F929F9259
:101A9000AF92BF92CF92DF92EF92FF920F931F937C
:101AA000CF93DF93CDB7DEB7A1970FB6F894DEBF23
:101AB0000FBECDBF6C01990FEE08FF08F7FE43C0C3
:101AC0006DE28FE396E00E94700B8C012227332792
:101AD000A9012C193D094E095F0919A2CE01819671
:101AE0007C019AE0892E912CA12CB12CCA01B9015C
:101AF000A50194010E940319605DF70162937F01C3
:101B0000211531054105510589F790E080E03097B6
:101B100029F0BF018FE396E00E94370D800F911FDF
:101B2000A1960FB6F894DEBF0FBECDBFDF91CF9167
:101B30001F910F91FF90EF90DF90CF90BF90AF90EB
:101B40009F908F900895A701960119A28E010F5DB5
:101B50001F4F8AE0C82ED12CE12CF12CCA01B9010B
:101B6000A70196010E940319605DF80162938F013D
:101B7000211531054105510589F790E080E0309746
:101B800079F2BF018FE396E00E94370DC9CF0F9322
:101B90001F93CF93DF93EC0188819981009759F0CF
:101BA0002A813B812617370730F081E0DF91CF9102
:101BB0001F910F9108958B016F5F7F4F0E945F1AF5
:101BC000009759F0998388831B830A832C813D8178
:101BD000232B59F7FC011082E8CF80E0E7CFEF928A
:101BE000FF920F931F93CF93DF936115710541F41B
:101BF00080E0DF91CF911F910F91FF90EF900895BA
:101C000041155105B1F07B01EC010C811D81040FE0
:101C1000151FB8010E94C70D882351F3288139810F
:101C20008C819D81B701820F931F0E94251B1D830C
:101C30000C8381E0DECFCF93DF93EC018881998123
:101C4000009711F00E94D619198218821D821C82F9
:101C50001B821A82DF91CF910895EF92FF920F932A
:101C60001F93CF93DF93EC017B018A01BA010E949D
:101C7000C70D81110BC0CE010E941B0ECE01DF915A
:101C8000CF911F910F91FF90EF9008951D830C83CA
:101C9000B701888199810E94251BF0CFFC018081CA
:101CA0009181009711F00C94D61908951F920F920C
:101CB0000FB60F9211248F939F938091E100909122
:101CC000E100937F9093E10083FF0FC01092E90041
:101CD00091E09093EB001092EC0092E39093ED0072
:101CE0001092DC0198E09093F00082FF22C093E014
:101CF0009093E9009091F200992319F09AE3909360
:101D0000E80090917801992341F0909178019150E9
:101D100090937801911101C05D9A9091DB01992314
:101D200041F09091DB0191509093DB01911101C042
:101D3000289A84FF18C08091E2008E7E8160809393
:101D4000E2008091E1008F7E8093E1008091790133
:101D50008E7E8061809379019F918F910F900FBE4D
:101D60000F901F90189580FFF7CF8091E2008E7E34
:101D700080618093E2008091E1008E7E8093E1009B
:101D8000809179018E7E8160E5CF1F920F920FB610
:101D90000F921124CF92DF92EF92FF920F931F9335
:101DA0002F933F934F935F936F937F938F939F9363
:101DB000AF93BF93EF93FF93CF93DF93CDB7DEB78E
:101DC0006C97DEBFCDBF1092E9008091E80083FFE1
:101DD00025C068E0CE0145960E94E90882EF809315
:101DE000E8008D8987FF39C09091E80090FFFCCF13
:101DF000982F907609F034C19E894F89588D2F898C
:101E0000F88C911131C0803861F580917A0180930E
:101E1000F1001092F1008EEF8093E8006C960FB6FF
:101E2000F894DEBF0FBECDBFDF91CF91FF91EF9150
:101E3000BF91AF919F918F917F916F915F914F91E2
:101E40003F912F911F910F91FF90EF90DF90CF90D6
:101E50000F900FBE0F901F9018959EEF9093E80083
:101E6000C7CF1092F100D5CF913059F48111D3CF63
:101E70004130510581F680917A018D7F80937A01FE
:101E8000CACF933049F48111C6CF4130510519F6BC
:101E900080917A018260F2CF953041F48091E80020
:101EA00080FFFCCF20682093E300B5CF963009F087
:101EB000A9C00B8D1C8D22E01092E90010927601D2
:101EC00010927501F2122EC01092740110927301DB
:101ED0000E94B8081F8299E09983FA8291E09E835C
:101EE00090EA98879AEF9987209175013091760151
:101EF000275F3F4F3C832B838D831092E900109224
:101F0000760110927501109374010093730149E0FA
:101F100050E0BE016F5F7F4F80E00E9492080E94F8
:101F2000B80879CF10937401009373010E94500890
:101F3000DC0112960D911C910115110509F451C196
:101F4000D801ED91FC910480F581E02DBE016B5E1E
:101F50007F4FC8010995009709F03EC1F80100853F
:101F60001185EACFF3E0FF120EC08F89882309F4B0
:101F700040C0823061F440E867E080E196E00E9472
:101F80008811811148CF81E28093EB0047CF8130E7
:101F900029F440E86BE084E096E0F1CF833099F7D4
:101FA0000E945008DC011296ED90FC908E010F5FAC
:101FB0001F4F6801E114F10479F0D701ED91FC9114
:101FC0000680F781E02DB801C7010995080F111DA2
:101FD000F701E084F184EECFD8011C92F601019064
:101FE0000020E9F73197BF016C197D0940E0C60177
:101FF000C6CF6EEE75E0FB01449150E080E80E9490
:10200000920809CF973009F4BECF983021F481E0CF
:102010008093F10000CF993009F0FDCE837009F074
:10202000B2CFEDE1F1E081E031E096E321912223AE
:1020300071F08093E9003093EB00DF0111972C9150
:102040002093EC009093ED008F5F873079F78EE757
:102050008093EA001092EA008F898093DC01DBCE46
:102060008B8D9C8D1092E900109276011092750173
:102070009093740180937301898D811192C08E8930
:102080009D89913A49F4813209F07DCF47E050E0D3
:1020900064E071E080E0B3CF913209F074CF833215
:1020A00069F48F89988DB0E0A0E08093000190934F
:1020B0000101A0930201B0930301ADCE803269F417
:1020C0008091E80082FFFCCF67E084E091E00E940D
:1020D000E9088BEF8093E8009ECE823209F09BCE18
:1020E0008F8980930B01EEEFFFE7859194918B3FF1
:1020F0009C4D51F1E0E0F8E08091040190910501E0
:10210000A0910601B0910701803B9440A105B10563
:10211000F1F480910B0180FD1AC0EE3F8AE0F807D0
:1021200089F587E797E791838083809160008093AA
:10213000770188E19BE00FB6F894A8958093600042
:102140000FBE9093600067CEEEEFFAE0D5CF8081AE
:1021500091818737974709F05ECEA89580916000FE
:102160008861809360008091770180936000EE3FEA
:102170002AE0F20789F08091FE0A9091FF0A91838C
:10218000808349CE808191818737980751F290935F
:10219000FF0A8093FE0AC5CF1092FF0A1092FE0A32
:1021A0003ACE0E945008DC0112960D911C91011547
:1021B000110509F4E8CED801ED91FC910190F08170
:1021C000E02DBE016B5E7F4FC8010995811123CEC2
:1021D000F80100851185EBCF181619060CF41BCEFB
:1021E000D2CEF1E0FF12BECE62EF75E004CF0F92C7
:1021F0000FB68F939F93EF93FF9380916E018D5F46
:102200008D3708F08D5780936E01E0E8F1E0808112
:102210008E4F808391819F4F918382818F4F8283E4
:1022200083818F4F8383EFE6F1E080818F5F80832E
:1022300081818F4F818382818F4F828383818F4FF2
:1022400083838FB18F6066991C9B88278F3681F4BA
:1022500080916D01981B963068F0E0E0F8E087E728
:102260008083818388E180936000F0936000FFCFDA
:1022700090936D01FF91EF919F918F910FBE0F9001
:1022800018951F920F920FB60F9211242F933F9320
:102290004F935F936F937F938F939F93AF93BF936E
:1022A000EF93FF938091690190916A01A0916B0176
:1022B000B0916C010097A105B10539F12091680139
:1022C000211105C0369A2091670121114F9A01977B
:1022D000A109B109B7FD08C08093690190936A0113
:1022E000A0936B01B0936C01FF91EF91BF91AF91FF
:1022F0009F918F917F916F915F914F913F912F911E
:102300000F900FBE0F901F9018950E948B0AECCF74
:10231000EF92FF920F931F93CF93DF93F82E192F15
:10232000E62E042F81E0860F880F0E94640883E068
:102330000E946408CF2DD12FEC0EFD2EF11CCE157E
:10234000DF05B9F007FF13C0FE0184910E94640805
:10235000182F80E00E946408812321968111EFCF1D
:10236000DF91CF911F910F91FF90EF900895888199
:10237000EDCF81E0F5CFEFEDF5E01382128288EE2C
:1023800093E0A0E0B0E084839583A683B78387E2DF
:1023900091E0918380838FEF9FEF95878487EFE3B0
:1023A000F6E01382128289E391E09183808386EFC5
:1023B00097E090933E0680933D0680E090E89093EE
:1023C0003C0680933B0646983E9A5F98579A08953C
:1023D000CDB7DEB76E97DEBFCDBF789483E084BD06
:1023E00083E085BD81E080936E00E1E8F0E083E06A
:1023F0008083E0E881E08083E1E983E08083E0E9B5
:1024000081E08083E1EC87E08083E3EC81E08083FE
:10241000E0EC82E08083E2EC81E08083EAE787E021
:102420008083806880831092DC0110927A01109280
:1024300079018091D70081608093D70080EA8093F2
:10244000D80089B5806189BD89B5826089BD09B42C
:1024500000FEFDCF81E090E00E94A4098091D800A9
:102460008F7C80618093D8008091E000807F809392
:10247000E0008091E1008E7E8093E1008DE080930A
:10248000E200559A209A81EC80937C0081E785B91F
:1024900087E684B985E38BB98FE38AB9769A6E981B
:1024A00080EF81BB10BA80E58CBD81E08DBD85E0F9
:1024B0000E944F0B599A85E00E944F0B5C98E8EC04
:1024C000F6E085918EBD00000DB407FEFDCFE23D24
:1024D000C1F75C9A81E88093640081E08093650095
:1024E0000E942E0C80E80E94230C8823A9F05C989F
:1024F00085EA8EBD00000DB407FEFDCF5C9A2E98D4
:1025000058982D988091640080628093640081E0E7
:1025100083BF889513BEFCCF84E00E94230C8823E0
:1025200009F443C02D9884E80E94230C8823D1F03D
:102530002D9A88EC0E944F0B589882E090E00E9400
:1025400084188F3F29F06FEF82E090E00E948C1892
:1025500084EF91E00E94A409589A84E80E94230C19
:102560008111FBCF84E10E94230C8823D1F02D9AA6
:1025700088EC0E944F0B2E9882E090E00E94841815
:10258000882329F060E082E090E00E948C1884EFBC
:1025900091E00E94A4092E9A84E10E94230C8111EB
:1025A000FBCF88EC0E944F0BB7CF2D9A82E090E0D2
:1025B0000E94350D882309F495C03E9A579A81E010
:1025C00080937B0181E090E00E94350D182F1470FC
:1025D00081FF0EC011112E9841EFC42EDD24DA9434
:1025E00080E40E94230C882309F481C02E9A589A13
:1025F00082E30E944F0B0E94520B8111F9CF0E947F
:10260000130D8FEF9FEF9093EC058093EB05EBE8B4
:10261000F1E01482359681E0ED3BF807D1F70E9496
:102620006B0A60938701709388018093890190936E
:102630008A010E946B0A6093C4017093C501809364
:10264000C6019093C701809164008E7F80936400DF
:1026500080917A00806480937A0080917A0086FD70
:10266000FCCF00917800109179000E943B0AAB01E9
:10267000BC01C801B0E0A0E0DC01992788278C01EB
:102680009D01040F151F261F371FC901B801209196
:102690006400216020936400611571058105910536
:1026A00011F00E94461880ED97E090938601809388
:1026B00085010E94230D9E012F5F3F4F69012FE688
:1026C000222E312C412C512C80917E01882309F43B
:1026D0006BC010927E0180E090E0892BA9F30E94EC
:1026E0000000F2CF10927B013E9857986BCF1123D8
:1026F00031F004E0C016D10411F42E9A589881E00C
:102700000E94F907EE24E39400E128E548E156E051
:10271000B60184E190E00E94310C0E942E0C8FE003
:102720000E944F0B2FEFC21AD20A39E1C316D1040F
:1027300009F056CF112311F0589A2D9880E991E0B5
:102740000E94A4092D9A81E090E00E94350D80FF3F
:102750004FCF8AE090E00E94350D9FEF980F9E3F8B
:1027600008F046CF22E330E03093C0012093BF0150
:1027700028E330E03093BE012093BD010BE010E070
:10278000682F8FE396E00E94700BC8010E94350D00
:102790000F5F1F4F0131110599F70E942E0C88EE33
:1027A00093E00E94A40924CF8091800190917F0141
:1027B000382F391B303140F43F3009F48CCF81E0A1
:1027C00083BF889513BE87CF91E090937E0180935D
:1027D0007F01ECE7F1E08081918101968083918314
:1027E0008091CD019091CE018130910509F4D9C03D
:1027F00074F4892B09F484C040E054E06DED71E07D
:102800008FED95E00E94B8090E942E0C64CF8230B3
:10281000910509F421C3039779F72091C201309102
:10282000C3018091DD059091DE0582179307D4F4F2
:102830001091C20181E692E00E948418811729F06C
:10284000612F81E692E00E948C181091C30182E60C
:1028500092E00E948418811729F0612F82E692E0AD
:102860000E948C1864E670E080E090E00E94530AB9
:102870000E94130D81E080930C0180E390E090931F
:10288000C0018093BF0102E010E01093BE010093ED
:10289000BD0165E571E08FE396E00E94370D809100
:1028A000C2019091C3010E94460D8EE190E0909389
:1028B000C0018093BF0188E290E09093BE018093B5
:1028C000BD0160E571E08FE396E00E94370D8091D5
:1028D000DD059091DE050E94460D0E942E0C60EAF7
:1028E0007FE080E090E00E94530A1092CE011092A7
:1028F000CD010E94130D1092C3011092C2017CCF32
:10290000809171008D7F809371001092CC018FE2D5
:1029100096E09093CB018093CA019093C901809374
:10292000C8018EEE91E09093300680932F068CE2E2
:1029300091E0909332068093310628E831E030939D
:1029400034062093330690933606809335068DE542
:1029500091E0909338068093370684EF91E090934E
:102960003A06809339060E948B0AEE24E39400E431
:1029700020E846E95BE070E060E090E080E00E94E3
:10298000310C0E942E0C88E00E94230C882369F3EE
:1029900081E090E09093CE018093CD010E946B0A7C
:1029A0002BCF0E94230D0E946B0A0091870110918A
:1029B00088012091890130918A01AB01BC01401B43
:1029C000510B620B730B8091850190918601092E4A
:1029D000000CAA0BBB0B84179507A607B70708F0D6
:1029E0006BC00E94F71722E030E040E050E00E9408
:1029F0009A186F5FE091840105E00E9FF0011124A9
:102A0000E557FE4F6483613081F40E94F7172091EF
:102A10008401029F8001112405571E4FA2019101DC
:102A20000E949A18F80171836083E091840105E0A7
:102A30000E9FF0011124E557FE4F8481823091F4FE
:102A40000E94F71720918401029F800111240557ED
:102A50001E4F27E530E040E050E00E949A18F80150
:102A6000718360838091840105E0809FF0011124CF
:102A7000E557FE4F20E430E0338322838F5F8A30B6
:102A800008F0B1C1809384010E946B0A60938701B2
:102A9000709388018093890190938A010E94F717AF
:102AA00028EE33E040E050E00E949A186C507E4FD0
:102AB00070938601609385010E94130D81E00E944E
:102AC000060D9BE8A92E91E0B92EF501848188239B
:102AD00009F47EC08130D1F562807380808091805E
:102AE000E12C00E120E146ED5AE0B301C4010E946F
:102AF000310CF5E06F16710449F580910F0190914A
:102B000010019401225F3F4F28173907FCF00F9600
:102B100088159905DCF080910E01815080930E019B
:102B200060E971E08DE591E00E94330B68EE73E09F
:102B300080E090E00E94530A80910E01811106C04E
:102B400002E010E01093CE010093CD01F5018481E5
:102B50008230C1F56280738080809180E12C08E032
:102B600024E042ED5AE0B301C4010E94310C24E09C
:102B700042ED5AE0B301C40180960E94310CFDE0A1
:102B80006F167104F9F480910F0190911001940176
:102B90002250310982179307ACF006E1800E911C98
:102BA000881699067CF08091C2019091C30101962C
:102BB0009093C3018093C20168EC70E088EB91E0D0
:102BC0000E94330BF5018281938101979383828365
:102BD000F5E0AF0EB11C08EB11E00A151B0509F07A
:102BE00074CF1092C0011092BF011092BE011092DA
:102BF000BD0110920D0181E08093C10180910E0111
:102C00001C8A1B8A1E8A1D8A188E1F8A4AE0B601FA
:102C100090E00E945A18F60101900020E9F73197E0
:102C2000AF014C195D09B601CE0143960E942D0EED
:102C30008091C2019091C3011A8E198E1C8E1B8E39
:102C40001E8E1D8E4AE0B6010E944F18F6010190BB
:102C50000020E9F73197AF014C195D09B601CE01AB
:102C600049960E942D0E1A8219821C821B821E8296
:102C70001D8247E050E065E571E0C6010E942D0E1F
:102C80004D8D5E8D698D7A8DC6010E94EF0D81118B
:102C900003C0C6010E941B0E4BE050E061E471E0EE
:102CA000C6010E94EF0D811103C0C6010E941B0ED8
:102CB0004F89588D6B897C89C6010E94EF0D811167
:102CC00003C0C6010E941B0E4D815E8169817A811D
:102CD0008FE396E00E94F608C6010E944E0ECE01D8
:102CE00049960E944E0ECE0143960E944E0E1091C0
:102CF0001101123009F499C00CF078C0112309F4C5
:102D000080C0113009F48BC00E946B0A8090C4010E
:102D10009090C501A090C601B090C70168197909CB
:102D20008A099B09643671058105910568F180E285
:102D30000E94230C882329F0115017FD82C01093A4
:102D4000110180E40E94230C882341F0809111013D
:102D50008F5F85300CF078C0809311010E946B0A60
:102D60006093C4017093C5018093C6019093C7011D
:102D7000609111018FED95E00E9423096DE471E0EF
:102D80008FED95E00E94370D80910F019091100119
:102D90002091110127FD08C022300CF457C02350A8
:102DA0000196223008F453C080910F0190911001D8
:102DB00097FF07C01092100110920F0182E08093DC
:102DC000110180910F0190911001803791050CF451
:102DD00013CD2FE630E03093100120930F0182E0F5
:102DE0008093110109CD109284014ECE133019F158
:102DF000143009F089CFE12C00E120E146EF5AE0E0
:102E000005C0E12C00E120E146E75BE065E070E011
:102E100080910F01909110010E94310C75CFE12C2F
:102E200000E120E146E55BE0F1CFE12C00E120E1AB
:102E300046E35BE0EBCFE12C00E120E146E15BE023
:102E4000E5CF109211017DCF84E086CF019790935A
:102E5000100180930F01A8CF0E94130D10E000E035
:102E6000912C812CB12CA12CF50183E0F595E795EF
:102E70008A95E1F7E00FF11FEE52F94FE491C50199
:102E80008770992720E830E002C0359527958A950C
:102E9000E2F7C901F0E0E223F923EF2B29F041E04A
:102EA000B401C5010E945A0B3FEFA31AB30A80E890
:102EB000A816B104C9F69FEF891A990A005F1F4F3F
:102EC000E0E48E16910471F60E942E0C8091710040
:102ED0008D7F809371001092CC018FE296E09093E9
:102EE000CB018093CA019093C9018093C80128EB5C
:102EF00031E03093300620932F0684EF91E09093D9
:102F00003206809331063093340620933306909333
:102F10003606809335068DE591E0909338068093D0
:102F2000370688EE93E090933A06809339060E9424
:102F30008B0A60ED77E080E090E00E94530A0E94E7
:102F4000130D83E080930E0183E090E09093CE0117
:102F50008093CD0151CC8F929F92AF92BF92CF922E
:102F6000DF92EF92FF92CF93DF93EC01688179813A
:102F70008A819B81611571058105910521F464E2C7
:102F800079ED8BE597E02DE133EF41E050E00E94D1
:102F90009A1849015A019B01AC01A7EAB1E40E94C9
:102FA000B9186B017C01ACEEB4EFA50194010E944D
:102FB000C718C60ED71EE81EF91EF7FE06C081E030
:102FC000C81AD108E10880E8F80AC882D982EA82E2
:102FD000FB82C701B6019F77DF91CF91FF90EF9001
:102FE000DF90CF90BF90AF909F908F9008958F9279
:102FF0009F92AF92BF92CF92DF92EF92FF92609139
:1030000012017091130180911401909115016115C5
:1030100071058105910521F464E279ED8BE597E076
:103020002DE133EF41E050E00E949A1849015A0126
:103030009B01AC01A7EAB1E40E94B9186B017C01C5
:10304000ACEEB4EFA50194010E94C718C60ED71EBE
:10305000E81EF91EF7FE06C081E0C81AD108E10893
:1030600080E8F80AC0921201D0921301E092140194
:10307000F0921501C701B6019F77FF90EF90DF90A6
:10308000CF90BF90AF909F908F9008956093120162
:103090007093130180931401909315010895BB2739
:1030A0004A3031F4992322F4BDE2909581959F4FE7
:1030B0000C945B18BB27FB015527AA27880F991F83
:1030C000AA1FA41710F0A41B83955051B9F7A05D57
:1030D000AA3308F0A95DA193009779F7B111B193D4
:1030E0001192CB010C947418DC01FC01672F7191D3
:1030F0007723E1F7329704C07C916D9370836291DE
:10310000AE17BF07C8F30895F999FECF92BD81BDF0
:10311000F89A992780B50895262FF999FECF1FBAFE
:1031200092BD81BD20BD0FB6F894FA9AF99A0FBEF0
:1031300001960895052E97FB1EF400940E94B11885
:1031400057FD07D00E94031907FC03D04EF40C94DE
:10315000B11850954095309521953F4F4F4F5F4F97
:10316000089590958095709561957F4F8F4F9F4FF3
:1031700008950E942519A59F900DB49F900DA49FBE
:10318000800D911D11240895B7FF0C94B9180E9469
:10319000B918821B930B08952F923F924F925F9222
:1031A0006F927F928F929F92AF92BF92CF92DF9257
:1031B000EF92FF920F931F93CF93DF93CDB7DEB7BC
:1031C000CA1BDB0B0FB6F894DEBF0FBECDBF099450
:1031D0002A88398848885F846E847D848C849B84A7
:1031E000AA84B984C884DF80EE80FD800C811B81B5
:1031F000AA81B981CE0FD11D0FB6F894DEBF0FBEE4
:10320000CDBFED010895A1E21A2EAA1BBB1BFD0143
:103210000DC0AA1FBB1FEE1FFF1FA217B307E407B5
:10322000F50720F0A21BB30BE40BF50B661F771F0D
:10323000881F991F1A9469F76095709580959095ED
:103240009B01AC01BD01CF010895A29FB001B39FC6
:10325000C001A39F700D811D1124911DB29F700D9F
:10326000811D1124911D0895EE0FFF1F0590F4910B
:10327000E02D09940F931F93CF93DF938230910534
:1032800010F482E090E0E0914506F091460630E0CF
:1032900020E0B0E0A0E0309799F42115310509F461
:1032A0004AC0281B390B24303105D8F58A819B810F
:1032B0006115710589F1FB0193838283FE0111C0C1
:1032C000408151810281138148175907E0F0481766
:1032D000590799F4109761F012960C931297139670
:1032E0001C933296CF01DF91CF911F910F910895DA
:1032F0000093450610934606F4CF2115310551F091
:103300004217530738F0A901DB019A01BD01DF0123
:10331000F801C1CFEF01F9CF90934606809345069F
:10332000CDCFFE01E20FF31F81939193225031091B
:1033300039832883D7CF2091430630914406232B2D
:1033400041F42091180130911901309344062093E3
:10335000430620911601309117012115310541F4E2
:103360002DB73EB740911A0150911B01241B350B1C
:10337000E0914306F0914406E217F307A0F42E1BF8
:103380003F0B2817390778F0AC014E5F5F4F2417C9
:10339000350748F04E0F5F1F509344064093430695
:1033A000819391939FCFF0E0E0E09CCFCF93DF93A8
:1033B0000097E9F0FC01329713821282A091450632
:1033C000B0914606ED0130E020E01097A1F4208195
:1033D0003181820F931F20914306309144062817B4
:1033E000390709F061C0F0934406E0934306DF918A
:1033F000CF910895EA01CE17DF07E8F54A815B8196
:103400009E0141155105B1F7E901FB83EA8349911A
:103410005991C40FD51FEC17FD0761F4808191818C
:103420000296840F951FE901998388838281938195
:103430009B838A83F0E0E0E012968D919C91139734
:103440000097B9F52D913C911197CD010296820F0D
:10345000931F20914306309144062817390739F607
:10346000309751F51092460610924506B0934406E7
:10347000A0934306BCCFD383C28340815181840F84
:10348000951FC817D90761F44E5F5F4F88819981F6
:10349000480F591F518340838A819B819383828384
:1034A0002115310509F0B0CFF0934606E0934506AB
:1034B0009ECFFD01DC01C0CF13821282D7CFB0E0D6
:1034C000A0E0E5E6FAE10C94CE188C01009751F4E7
:1034D000CB010E943A198C01C801CDB7DEB7E0E1FB
:1034E0000C94EA18FC01E60FF71F9C0122503109E9
:1034F000E217F30708F49DC0D901CD91DC91119733
:10350000C617D70798F0C530D10530F3CE01049720
:103510008617970708F3C61BD70B2297C193D19341
:103520006D937C93CF010E94D619D6CF5B01AC1A64
:10353000BD0A4C018C0E9D1EA0914506B091460619
:10354000512C412CF12CE12C109731F58091430640
:10355000909144068815990509F05CC046165706F7
:1035600008F058C08091160190911701009741F41E
:103570008DB79EB740911A0150911B01841B950B8A
:10358000E817F90708F055C0F0934406E0934306A6
:10359000F90171836083A0CF8D919C911197129650
:1035A0006C90129713967C901397A815B90559F54E
:1035B0006C0142E0C40ED11CCA14DB0420F1AC0142
:1035C0004A195B09DA011296159780F062827382BC
:1035D00051834083D9016D937C93E114F10471F020
:1035E000D7011396FC93EE93129776CF22968C0F09
:1035F0009D1FF90191838083F301EFCFF09346067D
:10360000E093450669CF4816590608F42C017D0160
:10361000D3019ACFCB010E943A197C01009749F05F
:10362000AE01B8010E941C1BC8010E94D619870177
:1036300053CF10E000E050CFFB01DC0102C001904D
:103640000D9241505040D8F70895FB01DC010190E4
:0C3650000D920020E1F70895F894FFCFE0
:10365C00FFFFFFFF00E10000000000000101033844
:10366C0000020100000000004706800000C18081BC
:10367C00000000000000002309B809440939098A38
:10368C00094809660900000000700BF608200D1FA0
:10369C000D2020204C69766573203A20000D0A001D
:0E36AC00486967682053636F72653A2000001A
:00000001FF
