:100000000C9469070C9491070C9491070C94910738
:100010000C9491070C9491070C9491070C94910700
:100020000C9491070C9491070C94EC260C945B278C
:100030000C9491070C9491070C9491070C949107E0
:100040000C9491070C942F2A0C9491070C9491070F
:100050000C9491070C9491070C9491070C948D29A2
:100060000C9491070C9491070C9491070C949107B0
:100070000C9491070C9491070C9491070C949107A0
:100080000C94D7290C9491070C9491070C94910728
:100090000C9491070C9491070C9491070C94910780
:1000A0000C9491070C9491070C94910700000000A8
:1000B00000700100C0000C00CAA77C0A42F5550878
:1000C000534248195EF551120030000000274500E8
:1000D00040941C0014F3190504F1110420040000DD
:1000E0000441100400040000104208015E14450F92
:1000F00040F001005955551351555D0D8C927C0807
:100100005755550D5E55550D51520C015E55550F05
:100110005655550F00A0000000A4000000C22800A2
:1001200080A228008062080040500D0000E3180003
:100130009C92241F5F555D0D9C1445115F1425078B
:100140005F5555115F5114015E54551D1F41101F1D
:1001500040F44500100421071F41181D1F044110E1
:100160005EF0041F9C10041F5E54450F5F92140341
:100170005ED4451F5F92341B5655550D41F0050165
:100180001F0421071F4208011FE4410F1743181DD8
:1001900007C1090151564D1100F0450000F0010062
:1001A00040F4010080100C0010044110904A00142B
:1001B00080F090480064904A0064904C0064904D38
:1001C0000064904F00C880F0515549540052455387
:1001D0005441525400434F4E54494E554500BA1EA7
:1001E0009F1419250214A3127F11EEA8CEA8AE66A3
:1001F0008A8A8AEC06080E020C4E45572052454367
:100200004F5244003F3F333333333F3F033F3FFCC4
:10021000FCC0C0C0C0C0C07E7E667E7E607E7EB3F5
:10022000B3B3B3B3B7BEBC9F9F999999199F9FDF92
:10023000DFD9DFDFD8DFDFFFFFCCCCCCCCCCCC7E6E
:100240007E067E7E667E7E0000009898989898983C
:10025000F8F818F8F80C0C0CFDFDCDCDCDCDFDFD5A
:100260000001010000007E7E067E7E667E7E00002C
:1002700000000000BFBF333F3F303F3F00000000A1
:1002800000001F1F1818181818180000003A2186BF
:1002900021BD20A71D6920B51F9058000A90560067
:1002A0000A9054000A9052000A9050000A80F09080
:1002B0003700789036008C903500A0903400B490D0
:1002C0003300C8903200DC903100F0903000FF80A5
:1002D000F0906800148000149068001480F0904939
:1002E0000050904D007880005090490050904D0093
:1002F0007880005090490050904D007880005080E8
:10030000F09074001490680018905C001C905000ED
:1003100020904400249038002880F09037000C9002
:1003200034000C9030000C90380008903500089094
:1003300031000880F09043000A904F000A904C0072
:100340000A80F09060001E9061001E9062001E9076
:1003500063001E9064001E9065001E9066001E9053
:1003600067001E80F09044003C9047003C9049009C
:100370003C80F00000000000000000FFFFAAD5AAAA
:10038000D5AA803C7EFFFFFFFF7E3C3C76E7C7E7B7
:10039000F77E3C3C6EE7E3E7EF7E3C1818FF7E3CBF
:1003A0003C7E661818E74224245A66245A668181E6
:1003B0004299E700003C76A14A9DEF000000002032
:1003C000765AEF000000000000307C564552203085
:1003D0002E3130004F424E2D593039007F7F1C1C8A
:1003E0001C1C1C1C7F7F707E7E7070703E7FF7E748
:1003F000E7EFFE7C3F7F783C1E0EFEFC0000000015
:1004000000000000806010080404020202FFFFA93F
:1004100051AA52A448106080000000000000003C77
:10042000FFE454A454A454A454A757AA55AA55AA07
:1004300055AAC03F000000000000000000010306B4
:100440000D0E1D1A1D1A1D1A1D0A0D0603010000AE
:100450000000000000000000806010080404020298
:1004600002FFFFA951AA52A44810608000FCFCA41E
:1004700054A454A457A454A454A454A454A757AAAD
:1004800055AA55AA55AAC03F001F1F1A1D1A1D1AAA
:100490001D1A1D1A1D1A1D1A1D1A1D1A1D0A0D06D8
:1004A0000301000000000000000000008060100850
:1004B0000404020202FFFFA955A955A955A901FF8D
:1004C000000000000000003CFFE454A454A454A425
:1004D00054A757A657A657A657A604FF000000002A
:1004E00000000000000103060D0E1D1A1D1A1D1A42
:1004F0001D1A1D1A1D1A101F9045000A80F00206D1
:100500006E6E6E06023E716D5D415D3E0000140828
:100510001400000209251525090243524544495497
:10052000005245434F5244005645544552414E00F7
:100530005354414E44415244004E4F5649434500A6
:10054000424547494E4E4552000000000000000061
:10055000000000000000000000000000000000009B
:10056000000000000000000000000080C0E0F0F883
:100570007CB8D0E0C0800000000000000000000057
:10058000000000000000000000000000000000006B
:100590000000000000000000000000000080C0E03B
:1005A000C0800080C0E0F0F87C3A170F1F3F7DBE8E
:1005B000DFEFF7FB7F3F1F0E0480C0E0F0F87CF810
:1005C000F0E0C0800000000000000000000000001B
:1005D000000000000000000000000080C0E0F1FB0F
:1005E000F5EEDFBE7DFBF7EFDFBE7CF8702000008C
:1005F0000183C1E0F0F87CFAF7EFDFBF7DF8F0E0AF
:10060000F1FB7F3F1F0E04000000000000000020EF
:1006100070F8F0E0C0E0F0F8742E1F2F77FBFDFEBD
:10062000DFEFF7FF7F3E1D0B0783C1E0F0F87CFA98
:10063000F7EFDFBF7DFEFFEFF7FB7D3E1F0E0503EB
:10064000070F1F3E1C08000000000080C0E0F0F80B
:100650007CBEDDEBF7EFDFBE7CF8F0F87C3E1D0BD7
:100660000783010010387CFAF7EFDFBF7DFEFFEF54
:10067000F7FB7D3E1F0E0503010000000000000097
:10068000000000000000000000000103070F1F3EF3
:100690005FEFF7FB7D3F1F0F078241E0F0E0C08274
:1006A000070F1F3E7CF8F0E0F1FB7F3F1F0E0503B4
:1006B0000100000000000000000000000000000039
:1006C000000000000000000000000000000000002A
:1006D000000041E0F0F8FCBEDFEFF7FA7DFBF7EF3A
:1006E000DFBE7C3E1F0F070301000000000000007A
:1006F00000000000000000000000000000000000FA
:1007000000000000000000000000000000000000E9
:10071000000000000103070F173B7D3E1F0F07037A
:1007200001000000000000000000000000000000C8
:1007300000000000000000000000000000000000B9
:10074000000000000000000000E888E888EEEA8A67
:10075000EA8AE4080808080E504C41592054494DD3
:100760004500504C415920434F554E54005B205D8D
:100770000053434F524553004245535420350053D4
:1007800054414952532020002020205357454550C2
:100790000020004F43544F4245520032303139005F
:1007A0000050524F4752414D4D4544004259204F51
:1007B000424F4E4F0000544849530050524F475249
:1007C000414D2049530052454C4541534544005545
:1007D0004E44455220544845004D495400204C4950
:1007E00043454E53452E001B0000000000003E5BB9
:1007F0004F5B3E3E6B4F6B3E1C3E7C3E1C183C7E6E
:100800003C181C577D571C1C5E7F5E1C00183C1852
:1008100000FFE7C3E7FF0018241800FFE7DBE7FF4E
:1008200030483A060E2629792926407F05050740DB
:100830007F05253F5A3CE73C5A7F3E1C1C08081C9C
:100840001C3E7F14227F22145F5F005F5F06097FDA
:10085000017F006689956A606060606094A2FFA273
:100860009408047E040810207E201008082A1C0822
:10087000081C2A08081E101010100C1E0C1E0C302C
:10088000383E3830060E3E0E060000000000000024
:100890005F00000007000700147F147F14242A7FE4
:1008A0002A122313086462364956205000080703B1
:1008B00000001C2241000041221C002A1C7F1C2A2F
:1008C00008083E0808008070300008080808080082
:1008D0000060600020100804023E5149453E00427D
:1008E0007F400072494949462141494D331814124D
:1008F0007F1027454545393C4A4949314121110975
:10090000073649494936464949291E000014000066
:100910000040340000000814224114141414140080
:100920004122140802015909063E415D594E7C12CC
:1009300011127C7F494949363E414141227F414164
:10094000413E7F494949417F090909013E414151E1
:10095000737F0808087F00417F41002040413F012C
:100960007F081422417F404040407F021C027F7F6D
:100970000408107F3E4141413E7F090909063E417E
:1009800051215E7F09192946264949493203017FD1
:1009900001033F4040403F1F2040201F3F40384060
:1009A0003F631408146303047804036159494D43F9
:1009B000007F4141410204081020004141417F0471
:1009C0000201020440404040400003070800205458
:1009D0005478407F284444383844444428384444B8
:1009E000287F385454541800087E090218A4A49C87
:1009F000787F0804047800447D40002040403D009A
:100A00007F1028440000417F40007C047804787CFB
:100A1000080404783844444438FC18242418182462
:100A20002418FC7C08040408485454542404043F4B
:100A300044243C4040207C1C2040201C3C40304052
:100A40003C44281028444C9090907C4464544C447E
:100A5000000836410000007700000041360800021F
:100A6000010204023C2623263C1EA1A161123A4049
:100A700040207A38545455592155557941215454C0
:100A80007841215554784020545579400C1E5272BB
:100A90001239555555593954545459395554545897
:100AA0000000457C410002457D420001457C40F04C
:100AB000292429F0F0282528F07C5455450020549D
:100AC000547C547C0A097F493249494932324848AA
:100AD0004832324A4848303A4141217A3A4240202D
:100AE00078009DA0A07D39444444393D4040403DBC
:100AF0003C24FF2424487E4943662B2FFC2F2BFFE8
:100B00000929F620C0887E09032054547941000049
:100B1000447D413048484A32384040227A007A0ABF
:100B20000A727D0D19317D2629292F282629292988
:100B30002630484D402038080808080808080838BA
:100B40002F10C8ACBA2F102834FA00007B00000820
:100B5000142A142222142A14089500220095AA00AF
:100B60005500AAAA55AA55AA000000FF00101010AF
:100B7000FF00141414FF001010FF00FF1010F010FD
:100B8000F0141414FC001414F700FF0000FF00FF21
:100B90001414F404FC141417101F10101F101F1449
:100BA00014141F00101010F0000000001F1010108F
:100BB000101F10101010F010000000FF1010101087
:100BC0001010101010FF10000000FF140000FF00B4
:100BD000FF00001F10170000FC04F4141417101776
:100BE0001414F404F40000FF00F714141414141483
:100BF00014F700F7141414171410101F101F1414F6
:100C000014F4141010F010F000001F101F0000006A
:100C10001F14000000FC140000F010F01010FF1072
:100C2000FF141414FF141010101F00000000F01027
:100C3000FFFFFFFFFFF0F0F0F0F0FFFFFF0000000C
:100C40000000FFFF0F0F0F0F0F38444438447C2A79
:100C50002A3E147E02020606027E027E0263554987
:100C600041633844443C04407E201E2006027E023C
:100C70000299A5E7A5991C2A492A1C4C7201724CBD
:100C8000304A4D4D303048784830BC625A463D3E7F
:100C9000494949007E0101017E2A2A2A2A2A444420
:100CA0005F444440514A444040444A51400000FFA0
:100CB0000103E080FF000008086B6B083612362441
:100CC00036060F090F06000018180000001010006B
:100CD0003040FF0101001F01011E00191D17120005
:100CE0003C3C3C3C00000000000601150126013799
:100CF000014A015D01720188019F01B801D201EE34
:100D0000010B022A024B026E029302BA02E40210A5
:100D1000033F037003A403DC03170455049704DDA9
:100D20000427057505C80520067D06E0064907B8B5
:100D3000072D08A9082D09B9094D0AEA0A900B40A8
:100D40000CFA0CC00D910E6F0F5A1053115B1272FA
:100D5000139A14D41520178018F519801B231DDE53
:100D60001EB420A622B524E4263429A72B402E0049
:100D700031EA330037453ABC3D68414C456B49C8C0
:100D80004D68524F57805C006210111213151617F0
:100D9000181A1C1D1F21232527292C2E3134373AE0
:100DA0003E4145494E52575C62686E757B838B931A
:100DB0009CA5AFB9C4D0DCE9F70000000200090F20
:100DC0000000030401000C0000000000000000000F
:100DD00000000000000000000301000000002400EB
:100DE00027002A002D0030008D14A1C881CFD9F131
:100DF00002AF040802011040804010204080408073
:100E000008020401804020100201108010204040A0
:100E10002000000000250028002B002E00310004D7
:100E20000404040403040502020202040302020291
:100E30000206060606060604040202020404140260
:100E40001302120215020702080204010101020145
:100E5000001211E5105B18BF1C741CDC1AF11E187F
:100E600024A721080B00020202000009040000016F
:100E700002020000052400100105240101010424E0
:100E8000020605240600010705810310004009043D
:100E90000100020A000000070502024000000705E9
:100EA00083024000000403090412010002EF020162
:100EB00040412336800001010203014172647569DB
:100EC0006E6F204C4C4300414241313130360000BE
:100ED0009A2A11241FBECFEFDAE0DEBFCDBF11E0AA
:100EE000A0E0B1E0E0ECFEE502C005900D92AA336F
:100EF000B107D9F727E0AAE3B1E001C01D92A13301
:100F0000B207E1F717E0C9E6D7E004C02197FE0178
:100F10000E943D2FC836D107C9F70E94D12A0C94F0
:100F20005E2F0C9400000F931F93CF93DF93DC018F
:100F300077FF15C0EE27FF27E61BF70B842F042E43
:100F4000000C990BE817F9072CF4460F70E060E0ED
:100F5000141654F0DF91CF911F910F91089514163C
:100F6000CCF760347105B4F7A038B10598F7362F87
:100F7000CB01840F911D47FD9A958134910514F0A2
:100F800040E4461B37709FEF032E01C0990F0A946F
:100F9000EAF7430F631B710977FF02C0695F7F4F58
:100FA00083E0759567958A95E1F7FB01F695FE2F2D
:100FB000EE27F795E795EA0FFB1FEB5DFC4F68E026
:100FC00070E0AFEFB0E014162CF6483064F4EB019B
:100FD000C41BD10947FDD3958D0102C01595079516
:100FE000CA95E2F790238081211108C0909598233B
:100FF00090834850E058FF4F9FEFE5CF982BF8CFF4
:101000000F93CF93DF9397FF0CC0EE27FF27E81BCA
:10101000F90B4E171F0609F00CF47CC0480F90E046
:1010200080E077FF0FC0AA27BB27A61BB70BE22FD4
:10103000022E000CFF0BAE17BF070CF06BC0260F83
:1010400070E060E0442309F465C0803891050CF03D
:1010500061C012160CF05EC0603471050CF05AC00D
:10106000FC01E40FF11DE138F10514F040E8481BE4
:10107000562FFB01E20FF11D27FDFA95E134F10532
:1010800014F020E4261B57703FEF052E01C0330FEC
:101090000A94EAF7250F651B710977FF02C0695FA3
:1010A0007F4F53E0759567955A95E1F77695762FC2
:1010B000662777956795860F971F8B5D9C4FA8E0F5
:1010C000B0E0CFEFD0E012162CF5283064F4BD016B
:1010D000621B710927FD7395FE0102C0F595E79526
:1010E0006A95E2F73E2301110DC03095FC01542FA3
:1010F0006081632361935150D9F7285080589F4FE6
:101100003FEFE1CFFC01542F6081632B619351507D
:10111000D9F7F3CFDF91CF910F9108952F923F929E
:101120004F925F926F927F928F929F92AF92BF92F7
:10113000CF92DF92EF92FF920F931F93CF93DF93A3
:10114000CDB7DEB72B970FB6F894DEBF0FBECDBF7D
:1011500010E0F801E60FF71FF7FDC2C06038710517
:101160000CF0BEC0FA01EE0DF11DF7FDB9C0403420
:1011700051050CF0B5C0DA0157FF04C0AA27BB2700
:10118000A41BB50BA770BB27FA0157FD3796F59541
:10119000E795F595E795F595E79557FF07C03197E2
:1011A00048E050E04A018A1A9B0AD4014E2C46942A
:1011B00046944694512C4E2D477019F04FEF441A27
:1011C000540AAF01261B370B4E0E5F1E3F0176946B
:1011D000762C6624779467945B01A60CB71C860F67
:1011E000971F680E791EF12CE12CC50180589F4F86
:1011F0009B878A8788E090E04C018A1A9B0A9C8230
:101200008B824416550609F46BC04830510509F429
:1012100067C04F3F8FEF58070CF457C047018A0C47
:101220009B1C9A8289822A843B842E0C3F1C670176
:10123000C60CD71CDE82CD82CB0197FD36C04F3F56
:10124000540709F44AC0FC01E20FF31FE491F0E0F7
:101250006F010A2E01C0CC0C0A94EAF7ED81FE81E1
:10126000D488CD28C48A109701F147305105E9F0A0
:10127000FC01E20FF31F8490CD80DE80E981FA81CA
:10128000CE1ADF0AC20CD31CE82DF0E04F010B8010
:1012900002C0959487940A94E2F799868886F601AD
:1012A0008488F8858F2AF601848A0196ED81FE8173
:1012B0003196FE83ED83FC01E61BF70BE017F10787
:1012C00024F48038910509F0B8CF4F5F5F4F200FAD
:1012D000311FF0E8EF0EF11C94CF109749F6E5CFDF
:1012E0002B960FB6F894DEBF0FBECDBFDF91CF9126
:1012F0001F910F91FF90EF90DF90CF90BF90AF9034
:101300009F908F907F906F905F904F903F902F9025
:10131000089590E0E5E2F3E091119FEF8FEF919354
:101320009193919391938150D0F70895E1E0F0E08B
:101330000E94AB09319728F068517C4F8F4F9F4F27
:10134000F9CFAB01FC010E94AB09641775078E074A
:101350009F07C8F30895A0E9B2E02FB7F8947D91F4
:101360008D919C9166B52FBFA89B05C06F3F18F467
:101370007F5F8F4F9F4F22E0660F771F881F991F57
:101380002A95D1F70895FC018091B902882311F1C3
:101390003FB7F89482E08093E9002091F200822F19
:1013A00090E01816190614F481E090E0882339F0D3
:1013B000289844E64093B8024091F10040832223EC
:1013C00039F02091F200211103C02BE62093E800B0
:1013D0003FBF08958FEF9FEF08952FB7F89483E0F4
:1013E0008093E9009091E800892F807295FF04C0F6
:1013F0009091F20080E4891B2FBF08958091B00284
:1014000081110DC082E08093AC0284E08093AD0234
:101410001092AF021092AE0281E08093B0028CEA8B
:1014200092E008958F929F92AF92BF92CF92DF92F7
:10143000EF92FF920F931F93CF93DF936C017B0189
:101440008A0180910B01882309F458C08091B90268
:10145000882309F453C08091AB0280FF05C08091BE
:10146000E00082608093E000E801B12C8AEFA82EB2
:1014700093E0892E2AE3922E209711F4BB20B9F134
:101480000E94ED09811106C0AA94AA20B9F10E9418
:101490009609F2CF8C171D0611F00CF08C2F9FB718
:1014A000F8948092E9002091E80025FD02C09FBFDA
:1014B000E3CF282F30E0C21BD30BF701815020F07F
:1014C00041914093F100FACFE20EF31EBB2021F0D0
:1014D0009092E800B12CEBCF8091E80085FDE7CF3A
:1014E0009092E800BB24B394209709F3F3CF5D9862
:1014F00084E68093AA02101611063CF081E090E089
:10150000F6019383828310E000E0C801DF91CF9160
:101510001F910F91FF90EF90DF90CF90BF90AF9011
:101520009F908F900895CF93DF931F92CDB7DEB732
:101530006983DC01ED91FC910280F381E02D41E0B3
:1015400050E0BE016F5F7F4F09950F90DF91CF9103
:10155000089583E08093E9008091F200882319F0D8
:101560008AE38093E80008950E94ED0990E00895D1
:10157000CF93DF931F92CDB7DEB7FC0184859585AD
:1015800097FD08C02FEF3FEF358724870F90DF913D
:10159000CF910895CE0101960E94C309019719F4D5
:1015A000898190E0F3CF8FEF9FEFF0CF0F931F93E0
:1015B000CF93DF931F92CDB7DEB78C01FC018485FA
:1015C000958597FF0BC0CE0101960E94C309019734
:1015D00071F4898190E0F80195878487F80184850A
:1015E00095850F90DF91CF911F910F9108958FEF07
:1015F0009FEFF1CFFC018485958597FD0BC09FB7C8
:10160000F89482E08093E9008091F2009FBF90E01F
:10161000019608959FB7F89482E08093E900809145
:10162000F2009FBF90E008954091A6025091A7025A
:101630002091A4023091A50242175307B4F490916F
:10164000E8009570E1F39091E80092FD19C0809355
:10165000F1008091A6029091A70201968F739927BD
:10166000892B19F48EEF8093E8008091A602909167
:10167000A70201969093A7028093A60281E00895A5
:1016800080E00895EF92FF920F931F93CF93DF9323
:10169000F82E192FE62E042F81E0860F880F0E9466
:1016A000140B83E00E94140BCF2DD12FEC0EFD2ED6
:1016B000F11CCE15DF05B9F007FF13C0FE018491C0
:1016C0000E94140B182F80E00E94140B8123219696
:1016D0008111EFCFDF91CF911F910F91FF90EF908C
:1016E00008958881EDCF81E0F5CFDF92EF92FF92F0
:1016F0000F931F93CF93DF93D82E8A01EB017B01C9
:10170000E40EF51ECE15DF0559F0D7FE12C0FE011E
:1017100084910E94140B21968111F4CF0FEF1FEFDB
:10172000C801DF91CF911F910F91FF90EF90DF9053
:1017300008958881EECF0F931F93CF93DF931F926D
:10174000CDB7DEB782E0898342E450E063E67EE015
:1017500080E80E94750B0E94FE09DC0112960D9133
:101760001C910115110589F0D801ED91FC910280C1
:10177000F381E02DBE016F5F7F4FC801099597FD92
:1017800004C0F80100851185ECCF89810F90DF91AD
:10179000CF911F910F910895615030F02091F10089
:1017A000FC0120830196F8CF289884E68093B80244
:1017B00008950895AF92BF92CF92DF92EF92FF9279
:1017C0000F931F93CF93DF936C017B018B01040F69
:1017D000151FEB015E01AE18BF08C017D10759F005
:1017E0006991D601ED91FC910190F081E02DC60147
:1017F0000995892B79F7C501DF91CF911F910F9141
:10180000FF90EF90DF90CF90BF90AF900895282F7A
:1018100030E0F901E754F24F9491F901EE50F24FA4
:101820008491215E314FF9012491222309F430C0C3
:101830009923E9F091509F30D0F4E92FF0E0ED5D6D
:10184000F34F0C943D2F510C550C320C490C4D0CA0
:10185000370C370C370C580C5E0C620C660C6C0C99
:10186000370C700C909180009F7790938000E22F4E
:10187000F0E0EE0FFF1FEF5EF14FA591B4919FB71F
:10188000F894EC91611132C080958E238C939FBFA8
:101890000895909180009F7DE8CF90918000977F80
:1018A000E4CF94B59F7794BDE2CF94B59F7DFBCFF5
:1018B000909190009F7790939000D9CF9091900055
:1018C0009F7DF9CF90919000977FF5CF9091C000C8
:1018D0009F779093C000CBCF9091C0009F7DF9CFB0
:1018E0009091C200977F9093C200C1CF8E2BCECF34
:1018F000CF93DF9390E0FC01EE50F24F2491815E94
:10190000914FFC0184918823C9F090E0880F991FC2
:10191000FC01E652F24FA591B491FC01EF5EF14F4C
:10192000C591D49161110DC09FB7F8948C91209509
:1019300082238C938881282328839FBFDF91CF91B6
:101940000895623051F49FB7F8943C91822F8095AE
:1019500083238C93E8812E2BEFCF8FB7F894EC91F3
:101960002E2B2C938FBFEACF1F93CF93DF93182F8B
:10197000EB0161E00E94780C209739F460E0812F40
:10198000DF91CF911F910C94070CCF3FD10511F43B
:1019900061E0F5CFE12FF0E0E754F24FE491E15040
:1019A000EF3008F07FC0F0E0E852F34F0C943D2F89
:1019B000E70CEF0CF40CFE0C080D520D520D520DFD
:1019C000120D1C0D260D300D3D0D520D450D84B52B
:1019D000806884BDC7BDDF91CF911F91089584B504
:1019E000806284BDC8BDF7CF8091800080688093FD
:1019F0008000D0938900C0938800EDCF8091800053
:101A0000806280938000D0938B00C0938A00E3CFE4
:101A100080918000886080938000D0938D00C09377
:101A20008C00D9CF80919000806880939000D093F3
:101A30009900C0939800CFCF8091900080628093EE
:101A40009000D0939B00C0939A00C5CF80919000E6
:101A5000886080939000D0939D00C0939C00BBCF82
:101A60008091C00080688093C0008091C0008F7B0F
:101A70008093C000C093CF00AECF8091C000806241
:101A80008093C000C093D000A6CF8091C200886030
:101A90008093C2008091C2008B7F8093C200C0936C
:101AA000D20099CFC038D1050CF072CF67CF0F9319
:101AB0001F93CF93DF93062F142FCFEFD0E0BE01FB
:101AC000681B71098AE00E94B40CBE01601B710999
:101AD00083E00E94B40CBE01611B710989E0DF91B3
:101AE000CF911F910F910C94B40CAB01FC010E949B
:101AF000AB0941505109E109F10928F068517C4FC7
:101B00008F4F9F4FF6CFAB01FC010E94AB096417CA
:101B100075078E079F07C8F308958FB18095807F62
:101B2000669B88601C9B8460089583B7817F83BF18
:101B300083B7816083BF889583B78E7F83BF089505
:101B4000E0919C02F0919D02908180919B02809592
:101B5000892380830895E0919C02F0919D02808109
:101B600090919B02892B80830895CF92DF92EF9210
:101B7000FF920F931F93CF93E82FF0E0E852F24FBC
:101B8000C491E62FF0E0603398F5E757F24FE49107
:101B90000E2F10E0F12CE12C60E074E284EF90E075
:101BA000A70198010E94AA2E21503109410951092B
:101BB00091E02115310581E0480751056CF060E99D
:101BC00070ED83E090E0A70198010E94AA2E2150B9
:101BD00031094109510993E0C13089F0C330F9F06E
:101BE000CF911F910F91FF90EF90DF90CF900895CC
:101BF000EE0FFF1FE757F34F05911491CBCF809164
:101C00008100887F892B8093810030938900209305
:101C1000880080916F00826080936F00E1CF809197
:101C20009100887F892B80939100309399002093B5
:101C3000980010938D0200938C0281E080938B02B8
:101C400080917100826080937100CACFE82FF0E02C
:101C5000E852F24FE491E13019F0E33089F0089551
:101C600080916F008D7F80936F0080919702E0914B
:101C70009802F0919902908180958923808308953C
:101C800010928B0280919402E0919502F09196025D
:101C9000F2CFE091BC02F091BD02BF016F5F7F4FB8
:101CA0007093BD026093BC022491922F907F822F8B
:101CB0008F70903819F40E94260EEBCF903981F482
:101CC0003296F093BD02E093BC02FB0164919091C7
:101CD000BA028917F0F667FDDCCF0E94B50DD9CFA7
:101CE000903E49F48091BE029091BF029093BD0254
:101CF0008093BC02CECF903F19F41092BB0208959E
:101D000097FDC7CF3296F093BD02E093BC02FB0172
:101D10006491A0918C02B0918D02322F262F0E94E7
:101D2000FE2E6C507E4F8F4F9F4F28EE33E040E0E9
:101D300050E00E94DC2E209387023093880240936B
:101D4000890250938A028091870290918802A09123
:101D50008902B0918A02892B8A2B8B2B61F481E056
:101D600090E0A0E0B0E08093870290938802A09377
:101D70008902B0938A0208950F931F93CF93DF9344
:101D80002091C002222329F1162FEC018091BB0281
:101D9000882381F080912F078617D8F000E080918A
:101DA000BA02081728F4802F0E94260E0F5FF7CF83
:101DB0001092BB0210932F07D093BF02C093BE02B4
:101DC000D093BD02C093BC020E94490E81E0809373
:101DD000BB02DF91CF911F910F910895603871057B
:101DE000E8F440345105D0F4342F369536953695C5
:101DF000A0E83A9FF0011124E60FF71FE80FF91F42
:101E00003489CA018770992741E050E001C0440F2E
:101E10008A95EAF7222319F0432B448B08954095C5
:101E20004323FBCF2F923F924F925F926F927F920C
:101E30008F929F92AF92BF92CF92DF92EF92FF92DA
:101E40000F931F93CF93DF93CDB7DEB72D970FB6C8
:101E5000F894DEBF0FBECDBF6A3069F5FC01EA5EC3
:101E6000FB4FDC01A85EBB4F2C9148E0249F900102
:101E7000112440815181240F351F31832083149711
:101E80001D921C922D960FB6F894DEBF0FBECDBFEB
:101E9000DF91CF911F910F91FF90EF90DF90CF9046
:101EA000BF90AF909F908F907F906F905F904F907A
:101EB0003F902F9008956D3029F39D878C878C5E1D
:101EC0009B4F9A838983FC01808091802C853D857E
:101ED000285E3B4F3C832B8330E8831691040CF043
:101EE00071C0EC85FD85EA5EFB4F6080718040E447
:101EF000641671040CF066C0AB81BC814C9045E067
:101F00009401449E200D311D1124121613060CF06D
:101F100059C0242C312C910153E0220F331F5A95C4
:101F2000E1F7260D371D121613060CF04BC0649F07
:101F3000B001112410E000E0FB01E751F84FFB87EE
:101F4000EA87E0E0053029F0EA85FB85E00FF11F24
:101F5000E491530198E0592E2E2F30E03E832D83DB
:101F6000E170EF83F12CE12CE414D8F4C4018E0D60
:101F70009F1D99878887D12CC12CC41470F4A601A9
:101F80004A0D5B1D2F81688579858C859D850E9412
:101F9000EE0E9FEFC91AD90AF0CFAFEFEA1AFA0A8C
:101FA000E3CFED81FE81F595E7955A94A20CB31C21
:101FB0005110D2CF0F5F1F4F820C931C06301105BA
:101FC00009F0BFCFEB81FC812081422F50E0A98135
:101FD000BA818D919C91B6E02B9F800D911D1124AB
:101FE000E981FA8191838083EC85FD85E75EFB4F73
:101FF0002081222309F446CF6AEF64039001659F94
:10200000300D112420583F4F281739070CF03ACFD4
:10201000AC85BD85ED91FC9111970190F081E02D8B
:102020006AE0CD012D960FB6F894DEBF0FBECDBF8E
:10203000DF91CF911F910F91FF90EF90DF90CF90A4
:10204000BF90AF909F908F907F906F905F904F90D8
:102050003F902F900994AF92BF92CF92DF92EF9270
:10206000FF920F93CF93DF936C015B017A01E20E35
:10207000F11CEA0157FF02C0D0E0C0E0C70121E433
:10208000E216F10414F080E490E0C817D90744F494
:10209000202FAE01B501C6010E94EE0E2196EECFB3
:1020A000DF91CF910F91FF90EF90DF90CF90BF9095
:1020B000AF9008957F928F929F92AF92BF92CF92EE
:1020C000DF92EF92FF920F931F93CF93DF936C01F8
:1020D0007B01722E8C01040F111DEC0121E0A70180
:1020E000BE0181E193E00E94EE0E5E018FEFA81A1F
:1020F000B80A0A151B0581F54701870C911C81E080
:10210000881A9108860121E0A401B80181E193E0D9
:102110000E94EE0E0F5F1F4F0A151B05A4F301E08E
:10212000272DA701B60181E193E00E942B10272DF6
:10213000A701BE0181E193E00E942B10DF91CF91B6
:102140001F910F91FF90EF90DF90CF90BF90AF90D5
:102150009F908F907F900895E501C0CF80917B0282
:1021600080937E02833061F490917D02943029F453
:1021700090912E07907909F084E081509EE103C090
:102180009AE08230D4F7899F802D112480937C02BD
:1021900084E090E0909381028093800281E08093BC
:1021A0007F0208959C019091550297306CF484E071
:1021B0009802F0011124EC5CFD4F3383228371837C
:1021C00060839F5F909355020895CF93C09133022F
:1021D000C150C09333022C2F2F50330BC90163E041
:1021E00070E00E94292F862F4AE35AEA63EE7EEEC2
:1021F00004C076956795579547958A95D2F74170B3
:10220000409332028FE7489F402D112460E080E028
:102210000E94570D81E090E0CC2311F090E080E027
:10222000CF91089588E780933302089580916901E2
:1022300090916801909366018093670120916A01F3
:1022400090916B0187FF1CC0892F8095881F88277C
:10225000881F209368019093690120916C019091EF
:102260006D01811105C0892F8095881F8827881FDF
:1022700020936A0190936B019FEF90936D010895F5
:1022800081E0E7CF0F931F93CF93DF9330E020E0FF
:10229000C42FD0E08E010F5F1F4F76E0F901EC0FE5
:1022A000FD1FE695E170E80FD801A20FB31FA695B8
:1022B000A170562F5A1BE630E0F457FD1AC05E306D
:1022C0007CF45703D0011124EA0FFB2FF11DEE0F10
:1022D000FF1FEA57FE4F0190F081E02DEF2B49F4EC
:1022E000453029F02F5F3F4F23303105B9F681E0AB
:1022F00001C080E0DF91CF911F910F9108952F923F
:102300003F924F925F926F927F928F929F92AF9285
:10231000BF92CF92DF92EF92FF920F931F93CF93D2
:10232000DF9380912E02885F80932E0206E058E2B0
:10233000652E712C80912E0280340CF4F1C0209116
:102340005501309156012530310509F0E9C080541E
:1023500080932E0210913102C0912F02D12FDC1BED
:102360001D1336C080912E07847262E059F185E614
:1023700093E00E94BC0E81E0D11191C080913002A7
:102380001003F0011124E80FF11D87FDFA95EE0FFF
:10239000FF1FEA57FE4F118210828091530188235C
:1023A00009F486C0D0937A0182E090E090935601C0
:1023B000809355017092800160927F0191E090932B
:1023C0007F02B8CF83E493E00E94BC0E80E0D4CFBC
:1023D0009091540180915301A0916101B0916201EB
:1023E00020905201312C80904E0190904F01A0908E
:1023F0005001B0905101C0907B01D0907C01E090E1
:102400007D01F0907E012CE0D2022001112430E009
:1024100020E0F901EE0FFF1FE40DF51DEA57FE4F16
:102420004081518147305105E1F411821082915071
:102430008F5F1196682F70E06F5F7F4F629DA001E4
:10244000639D500D729D500D1124052E000C660BDE
:10245000770B840E951EA61EB71EC40ED51EE61E53
:10246000F71E2F5F3F4F2630310599F690935401A8
:1024700080935301B0936201A093610180924E0159
:1024800090924F01A0925001B0925101C0927B01F5
:10249000D0927C01E0927D01F0927E0197CFCF5FD8
:1024A000C0932F02C8300CF069CF811167CF42CFA3
:1024B0002091520130E0A0EDB7E00E94FE2E609323
:1024C0007B0170937C0180937D0190937E01C0908D
:1024D0004E01D0904F01E0905001F0905101DC018D
:1024E000CB018C0D9D1DAE1DBF1D80934E019093A1
:1024F0004F01A0935001B093510180915F019091E1
:10250000600197FD01969595879520916101309125
:102510006201820F931F909362018093610142CF09
:10252000DF91CF911F910F91FF90EF90DF90CF90AF
:10253000BF90AF909F908F907F906F905F904F90E3
:102540003F902F9008958F929F92AF92BF92CF921B
:10255000DF92EF92FF920F931F93CF93DF938091BF
:102560002E0290914D01891B80932E02E6E0CE2E23
:10257000C2E0D0E008E210E09924939480912E020A
:1025800087FF33C120915501309156012430310528
:1025900009F02BC1805C80932E020E94161180905E
:1025A0003102A82C082C000CBB08D0903002ED2C76
:1025B0000D2C000CFF08CA9CF001CB9CF00D1124DF
:1025C000EE0DFF1DEE0FFF1FEA57FE4F8081918138
:1025D000079709F052C080915401815080935401B3
:1025E000809153018F5F809353012091610130915D
:1025F00062012F5F3F4F309362012093610190E0B1
:10260000019640915201489F9001499F300D11243D
:10261000C901330FAA0BBB0B40914E0150914F01E2
:102620006091500170915101480F591F6A1F7B1F23
:1026300040934E0150934F016093500170935101AC
:1026400040917B0150917C0160917D0170917E01F0
:10265000840F951FA61FB71F80937B0190937C0169
:10266000A0937D01B0937E01D0926C0180926D01A8
:1026700062E085E393E00E94BC0ECA9CF001CB9C13
:10268000F00D1124EE0DFF1DEE0FFF1FEA57FE4F58
:10269000118210821814BCF4C5010197C89EF00184
:1026A000C99EF00D1124EE0DFF1DEE0FFF1FEA571E
:1026B000FE4F80819181019731F08A94809231029E
:1026C000109285015BCF91E0DD20A1F0CA9CF00162
:1026D000CB9CF00D1124C7010197E80FF91FEE0FF5
:1026E000FF1FEA57FE4F91E02081318121303105F3
:1026F00009F090E0809185018260982B85E0D816E2
:1027000009F45AC0CA9CF001CB9CF00D11248FEF44
:10271000E81AF80AEE0DFF1DEE0FFF1FEA57FE4FF5
:1027200081E0208131812130310509F080E0880F7E
:10273000880F892B80938501873009F03FC08092F4
:102740007A018091540181112CC0809153018A300B
:1027500040F180917B0190917C01A0917D01B0912D
:102760007E0140914E0150914F0160915001709156
:102770005101480F591F6A1F7B1F40934E01509310
:102780004F016093500170935101880F991FAA1F48
:10279000BB1F80937B0190937C01A0937D01B0933C
:1027A0007E01D0935601C093550110938001009390
:1027B0007F0190927F02E2CE81E0B9CF20912F027B
:1027C000082E000C990B31E0320F02C095958795C9
:1027D0003A95E2F780FF03C0219520932F02809164
:1027E0002F02D80ED0923002C9CEDF91CF911F9127
:1027F0000F91FF90EF90DF90CF90BF90AF909F90A0
:102800008F90089580917F0190918001019790931E
:10281000800180937F01181619060CF48AC040913C
:102820008101509182019FEF80E030E020E0BA0109
:10283000022E02C0759567950A94E2F760FF04C006
:102840008F5F9F3F09F4922F2F5F3F4F2E3031054E
:1028500071F790937A01982F990F990F482F491B80
:10286000440F90914C01E42FE90FE0934C0190E06C
:10287000BC0161507109689F9001699F300D789F7C
:10288000300D1124C901019620915201289FD001D9
:10289000299FB00D112424E130E00E94432F9B01B9
:1028A000AC0120937B0130937C0140937D015093D8
:1028B0007E01809153018823A1F0E1113BC08091FA
:1028C0005401811137C063E070E080E090E00E9425
:1028D0000D2F60937B0170937C0180937D01909319
:1028E0007E0180914E0190914F01A0915001B091D5
:1028F000510140917B0150917C0160917D0170916B
:102900007E01840F951FA61FB71F80934E019093E1
:102910004F01A0935001B093510182E090E0909359
:1029200056018093550188E290E090938001809356
:102930007F01089562E070E080E090E0C8CFEF9200
:10294000FF920F931F93CF93DF9320912E07207454
:1029500080912D0790E08095909550E082239523FB
:102960003091790140914601892B41F081E08093BB
:102970004701842F403258F480E209C0211102C07F
:1029800010924701842F909147019111F3CF381B8A
:10299000309379010EE110E0C0917901C7FF48C082
:1029A000D0917701D150409178016D2F80917601BF
:1029B0000E944211F0904701882329F1D0937701BA
:1029C000FF2099F080914E0190914F01A09150010C
:1029D000B09151010196A11DB11D80934E019093BC
:1029E0004F01A0935001B0935101C05CC093790195
:1029F0001093800100937F01CFCF2197D093800166
:102A0000C0937F01C9CF10927901C0917F01D0910D
:102A10008001CE31D10529F463E08BE193E00E947F
:102A2000BC0EFF2051F31092800110927F01B4CFB1
:102A300080917F019091800118161906ECF5C091E4
:102A40004501CC2369F080917601C80F409178014F
:102A5000609177018C2F0E9442118111C093760101
:102A600080912D0790E08095909520912E072472FB
:102A700030E082239323892B09F470C0C091780140
:102A8000C53009F46BC0CF5FC3704C2F60917701E4
:102A9000809176010E944211882309F45FC0C0939F
:102AA000780163E089E992E0DF91CF911F910F9166
:102AB000FF90EF900C94BC0E10917801009176017C
:102AC000F09077012091540130914C0190E080E02A
:102AD000412F012E000C550BBA016F5F7F4FB6E0FE
:102AE000EB2EFC01E40FF51FE695E170E00FE630F8
:102AF00010F5DB01A80FB91FA695A170FF2DFA1BD9
:102B0000AF2FFE30C0F4EC01CC0FDD1FC059DE4FFB
:102B10000990D881C02DEA9ED0011124EA0FFB2F25
:102B2000F11DEE0FFF1FEA57FE4FD183C083C13066
:102B3000D105D9F43F5F153021F00196833091051E
:102B400081F630934C012093540182E090E0909301
:102B500056018093550181E080937F02DF91CF91F0
:102B60001F910F91FF90EF900895279721F72F5F06
:102B7000E2CF50915E01852F6AE00E941D2F482F01
:102B8000889FC0011124843091050CF449C09595AB
:102B90008795282F30E0852F65E00E941D2FE92FB3
:102BA000F0E0852F6AE00E941D2F9530D8F182E079
:102BB00090E0E89FB001E99F700DF89F700D11241F
:102BC0006C5F7F4F629FC001639F900D729F900D5D
:102BD00011249595879595958795813408F080E423
:102BE0008093460183E0840F880F411101C088E083
:102BF000893108F088E180934D0121E0240F822F74
:102C0000443028F4852F64E10E941D2F8D5F80934E
:102C10005D01822F880F880F820F809352010895E3
:102C200081E0B7CF81E090E0C4CF6FEF8CEA91E014
:102C30000C94BC0E0E94151683E090E090938102E4
:102C40008093800281E080937F0208950E94151690
:102C500082E090E0909381028093800281E08093F3
:102C60007F0208950E94151610925C0210925D0278
:102C700010925E0210925F0285E090E090936501F1
:102C80008093640108950E94151682E090E090936D
:102C900065018093640181E080937F020895882319
:102CA00049F080916500877F8093650081E0809383
:102CB000C00208951092C0028091650088608093E0
:102CC00065000895CF9380912D0790E080959095B1
:102CD00020912E07207230E082239323892BD9F094
:102CE00080917B021816BCF48150982F815024E00B
:102CF0009202F0011124EC5CFD4F20813181232BE5
:102D0000A1F390937B026FEF88EF94E00E94BC0EDA
:102D100081E080937A0280912D0790E080959095D4
:102D200020912E07207430E082239323892B39F1E0
:102D300080917B02482F082E000C550B20915502E4
:102D4000022E000C330B2150310942175307BCF4FB
:102D50008F5F982F8F5F24E09202F0011124EC5CCA
:102D6000FD4F20813181232BA1F390937B026FEFE4
:102D700088EF94E00E94BC0E81E080937A028091FB
:102D800056028823B9F080912E07887090E0209138
:102D90002D0730E02095309582239323892B51F025
:102DA0008091C002C1E08C270E944F160E94151628
:102DB000C0937A0280912D0790E0809590952091A4
:102DC0002E07247030E082239323892B69F0E09151
:102DD0007B0284E0E802F0011124EC5CFD4F0190DD
:102DE000F081E02DCF910994CF910895E0E6F2E0D3
:102DF00025E030E089E39EE561917191629FA00139
:102E0000639F500D729F500D1124840F951F2E5FEC
:102E10003F4F2F31310581F708952F923F924F9206
:102E20005F926F927F928F929F92AF92BF92CF925A
:102E3000DF92EF92FF920F931F93CF93DF93CDB763
:102E4000DEB72B970FB6F894DEBF0FBECDBF6A304A
:102E500081F5FC01EC5EFB4FDC01A85EBB4F4C91A1
:102E60002081318156E0459F200D311D1124318391
:102E7000208312978FE390E08D939C9381E090E004
:102E80002B960FB6F894DEBF0FBECDBFDF91CF916A
:102E90001F910F91FF90EF90DF90CF90BF90AF9078
:102EA0009F908F907F906F905F904F903F902F906A
:102EB000089520EE260F203408F79B878A87FC01AF
:102EC000EC5EFB4FE080F180885E9B4F9F838E839A
:102ED000EA85FB85EA5EFB4FFC83EB83F0E8EF16A7
:102EE000F1040CF05CC0DC017C90E72DF0E0FA838B
:102EF000E983F6E07F9EC0011124AB81BC810D9176
:102F00001C919C01215C3F4F2017310708F447C0FA
:102F10008E0D9F1D97FD43C0EA85FB85E55EFB4F47
:102F20006080EA85FB85E65EFB4F5080B4E06B9FD6
:102F3000F0011124E45DFF4F85909590A590B49029
:102F4000E1E07E1259C036E0732ED12CC12CD501A0
:102F5000C40181709927AA27BB2780FC02C0651491
:102F600071F0252D892B8A2B8B2B09F4262DA80196
:102F7000B7016C0D7D1D8A859B850E94EE0EB6946F
:102F8000A79497948794FFEFCF1ADF0A26E0C21622
:102F9000D104E9F67A94015011097110D6CFAE81AF
:102FA000BF812C913AEF3203A0011124AB81BC8187
:102FB0008D919C911197480F591F4D935C93EA8511
:102FC000FB85E75EFB4F8081882309F457CFB6E08D
:102FD0002B9FC00111240197481759070CF04ECFC1
:102FE000AA85BB85ED91FC9111970190F081E02DB0
:102FF0006AE0CD01099542CF0F5F1F4F180189810B
:103000009A81281A390A16E0670196E0492EA981AB
:10301000BA81AC0DBD1DB987A887D501C4018170E7
:103020009927AA27BB2780FC02C06514C1F0892B11
:103030008A2B8B2B91F05D82E885F985CE16DF0611
:1030400074F40D81272DA101B6018A859B850E940C
:103050002B10FFEFCF1ADF0AEFCF6D82EDCFB694C2
:10306000A794979487944A94C884D9844110CFCF69
:10307000115029813A81221A330A1111C5CF8FCFFD
:103080000F931F93CF93DF938C01D0E0C0E0F80142
:10309000EC0FFD1F6491662341F081E193E00E94F3
:1030A0000D17892B11F02196F2CFCE01DF91CF9130
:1030B0001F910F9108958F929F92AF92BF92CF92DE
:1030C000DF92EF920F93CF93DF930E9489092091B3
:1030D000330288E790E0821B91096CE270E00E9465
:1030E000292F4B012CEFC22E23E0D22E3BE2A32E40
:1030F000B12CD0E0C0E081E090E08C169D0611F08C
:1031000090E080E020913202289FB001299F700D4D
:103110001124665D7F4F95E1E92E0CE19601A50132
:1031200081E193E00E948E08219685E1A81AB108FA
:1031300084E5C80ED11CC330D105E9F680E2E82E43
:1031400008E02CED33E050E040E068E470E081E11D
:1031500093E00E948E088CE590E090932607809380
:10316000250785E390E0909328078093270784ED57
:1031700093E00E94401882E690E0909326078093A7
:10318000250788E390E090932807809327078BEC2E
:1031900093E0DF91CF910F91EF90DF90CF90BF90B0
:1031A000AF909F908F900C944018089590E080E02D
:1031B000089597FF0DC022273327281B390B42178C
:1031C000130629F024F0480F90E080E031F40895D0
:1031D0004423E9F380389105D4F760347105B8F7DA
:1031E0009C01240F311D2138310514F040E8481BA3
:1031F000362F377021E001C0220F3A95EAF7FB0124
:1032000033E0F595E7953A95E1F7F695FE2FEE2731
:10321000F795E795E80FF91FEB5DFC4F8081822B56
:1032200081934150D9F7D3CFEF92FF920F931F9321
:10323000CF93DF937C01EB01142F022F0E94D9184A
:10324000BE01600F711D07FD7A9561507109412F14
:10325000C7010E94D9180250219621E0402FBE01DB
:10326000C7010E949307C701810F911D21E0402FE4
:10327000BE010197DF91CF911F910F91FF90EF90C9
:103280000C949307AF92BF92CF92DF92EF92FF928E
:103290000F931F93CF93DF9310915802D090590250
:1032A000E0905A020E2C000CFF08E11AF10817FDFD
:1032B000F394C0915B020C2E000CDD0B22E0210F79
:1032C00042E04D0D00E0B701CE0101970E940008D9
:1032D00080915702882359F024E0210F44E04D0DDE
:1032E000B70161507109CE0102970E941419D12CC7
:1032F000C12C24E3E22E22E0F22E80915502082E0A
:10330000000C990BC816D906E4F5F7018281938168
:10331000892BA9F160915A02062E000C770B80814F
:1033200091815B01892B19F0FCE0AF1AB108809103
:103330007B02082E000C990BC816D90659F465506B
:10334000710901E025E045E0CE010E94000884E01B
:10335000A80EB11CF70182819381D0932607C093F8
:103360002507B0922807A09227070E9440182696AA
:10337000FFEFCF1ADF0A84E0E80EF11CBECF2296E1
:10338000F7CF80915602882341F100E026E148E022
:1033900070E060E088E790E00E9400082091C002A1
:1033A000E7E02E9F90011124245F3A4F86E0E82E3B
:1033B00007E050E040E069E770E081E193E00E94BF
:1033C0008E089FE0E92E2EEF34E046E050E069E7FA
:1033D00070E081E193E00E948E0810927A02DF9102
:1033E000CF911F910F91FF90EF90DF90CF90BF9002
:1033F000AF9008958F929F92AF92BF920F931F93B9
:10340000CF93DF93CDB7DEB7A1970FB6F894DEBFA9
:103410000FBECDBF19A2423008F44AE08E010F5D05
:103420001F4F842E912CB12CA12CA50194010E9438
:10343000DC2EE62FB901CA01EA3044F5E05DD8017F
:10344000EE938D01232B242B252B79F790E080E040
:10345000109769F0FD0101900020E9F73197AF0165
:103460004A1B5B0BBD0181E193E00E94DA0BA19640
:103470000FB6F894DEBF0FBECDBFDF91CF911F9185
:103480000F91BF90AF909F908F900895E95CD7CF38
:10349000CF92DF92EF92FF92CF93DF9397FF1BC003
:1034A0006B017C016DE281E193E00E940D17EC015C
:1034B00066277727CB016C197D098E099F094AE0A1
:1034C0000E94FA198C0F9D1FDF91CF91FF90EF9012
:1034D000DF90CF9008954AE0DF91CF91FF90EF9079
:1034E000DF90CF900C94FA194F925F926F927F9277
:1034F000AF92BF92CF92DF92EF92FF920F931F9302
:10350000CF93DF935C01EB0169017A01011511058D
:1035100019F1C801880F991F080F191F9601F7FEAE
:1035200009C0C00FD11F22273327A9012C193D093B
:103530004E095F098AE0482E512C612C712CC00F76
:10354000D11FCA01B901A30192010E94DC2E2115ED
:1035500031054105510599F7B0922607A09225073C
:10356000D0932807C0932707C701B601DF91CF91F9
:103570001F910F91FF90EF90DF90CF90BF90AF9091
:103580007F906F905F904F900C94481ACF93C82F04
:103590006AE381E193E00E940D17CA3028F460E3EA
:1035A00081E193E00E940D176C2F70E090E080E0C5
:1035B0004AE0CF910C94FA192F923F924F925F926A
:1035C0006F927F928F929F92AF92BF92CF92DF9233
:1035D000EF920F931F93CF93DF9380917F02882305
:1035E00069F0C0918002D09181020E948909C230A5
:1035F000D10509F450C028F5219749F18091800246
:1036000090918102019749F480917A02811103C05F
:1036100080917F0281110E94421910927F02DF91F6
:10362000CF911F910F91EF90DF90CF90BF90AF900F
:103630009F908F907F906F905F904F903F902F90D2
:103640000895C330D10509F417C12497B9F6C0E431
:10365000EC2E00E429E435E050E040E068E070E062
:1036600081E193E00E948E0820915C0230915D021E
:1036700040915E0250915F022115310541055105CF
:1036800009F4BCCF02E010E06FEF7FEF90E080E044
:103690000E94741AB3CF84E090E090932607809341
:1036A000250787E390E0909328078093270788E712
:1036B00097E00E9440188AE090E09093260780935C
:1036C00025078BE290E0909328078093270781E7F6
:1036D00097E00E944018412C512C32014394A6E1FE
:1036E000CA2ED12CD0E0C0E0B7E32B2E312CD092E3
:1036F0002607C09225078DE390E0909328078093DA
:1037000027078DE697E00E9440184E019FEF891A27
:10371000990AD0922607C092250730922807209256
:103720002707C301B2010E94481ACC0FDD1FCC0F3E
:10373000DD1FC05ADD4F288139814A8150E002E007
:1037400010E061E070E0C6010E94741A5601E6E0E4
:10375000AE0EB11CE4E1EE2E05E029E437E04DE0C9
:1037600050E0B50181E193E00E948E082B8130E0AA
:1037700050E040E002E010E06FEF7FEFC5010E94F3
:10378000741AFEE0CF0ED11C8FEF481A580A680A4F
:10379000780AE401C530D10509F0A9CF22E449E453
:1037A0006FEF7FEF83E190E00E945A1082E690E095
:1037B0009093260780932507CFE3D0E0D093280786
:1037C000C093270782E697E00E9440182091780274
:1037D0003091790250E040E06FEF7FEF88E690E0B3
:1037E0000E94741A80E790E0909326078093250743
:1037F000D0932807C093270788E597E00E944018D8
:10380000409074025090750260907602709077023A
:10381000C301B20120EC3BE443E050E00E94DC2E07
:1038200063E270E086E790E00E94741AC301B2017F
:1038300020E13EE040E050E00E94DC2E6CE3862E6A
:10384000912CA12CB12CCA01B901A50194010E94AF
:10385000DC2E862F0E94C61AC301B201A501940175
:103860000E94DC2ECA01B901A50194010E94DC2E40
:10387000862F0E94C61AC2CE08E110E0CFE7D7E03B
:10388000FE0184918B3139F165E170E0CE010E9437
:10389000562E5C016C01DD2410932607009325074A
:1038A000C601880F991F8C0D9D1D4F969093280778
:1038B00080932707CE010E944018FFEFCF1ADF0A3E
:1038C000CC0DDD1D82E090E0AA2011F086E090E0B2
:1038D000080F191FD5CF25E341E166E070E085E1CF
:1038E00090E00E945A108ACECF92DF92EF92FF9220
:1038F000CF93DF938091800290918102019739F5F7
:103900000E9462168091800290918102C2E0D0E014
:10391000049711F0C1E0D0E00E94992D6C01990F3D
:10392000EE08FF080E94AB09C616D706E806F9069E
:1039300031F06C257D258E259F250E94442ECE01D9
:10394000DF91CF91FF90EF90DF90CF90089580911D
:103950002D0790E08095909520912E072C7030E0F7
:1039600082239323892BB1F20E94151681E090E007
:10397000909381028093800280937F02CBCF0F933C
:103980001F93CF93DF938091800290918102892BC6
:1039900009F053C080EE92E090935402809353025A
:1039A000F999FECF80EE92E00E94792E24EE32E06B
:1039B00030935402209353026F3472448E449940E2
:1039C00009F0A6C0F999FECF4AE150E064EE72E03A
:1039D00080E692E00E94612EC0915302D091540281
:1039E0006A96D0935402C0935302F999FECFCE0148
:1039F0000E947F2E8C012296D0935402C0935302D2
:103A00000E94F6168017910709F082C082E090E0CC
:103A10009093520280935102109250028091C00202
:103A20000E944F1610925C0210925D0210925E028C
:103A300010925F0281E080937E0282E080937D029B
:103A4000209163028091600290916102A0916202D4
:103A5000B0E02C3308F06CC080343DE0930733E0D5
:103A6000A307B10508F064C0109255026EEA70E138
:103A700080E495E00E94D2106EEA70E189E395E05F
:103A80000E94D2106EEA70E180E395E00E94D210AD
:103A900080917D02833034F06EEA70E188E295E037
:103AA0000E94D21070E060E090E080E00E94D210AE
:103AB00066E276E181E295E00E94D2106AE176E169
:103AC0008AE195E00E94D21080E580935B028FE34B
:103AD00080935A0285E28093590280E480935802D1
:103AE0001092570281E08093560290917E0290934B
:103AF0007B0280937A0221E030E0309381022093B0
:103B0000800280937F02DF91CF911F910F910895E2
:103B1000E0E6F2E08AE1DF011D928A95E9F781E0B3
:103B200090E090935202809351028093500276CF9E
:103B300033E030937D022A3530F48032914AA74039
:103B4000B10508F491CF84E080937D028DCF4F9230
:103B50005F926F927F92AF92BF92CF92DF92EF927D
:103B6000FF920F931F93CF93DF93C0E7D0E0B12C68
:103B7000A12C8EE1482E512C612C712C8091810159
:103B8000909182010A2C02C0959587950A94E2F7DC
:103B900080FF27C010E000E00E94F52DC0907F015B
:103BA000D090800121E0C21AD1080D2C000CEE0843
:103BB000FF08A30192010E94AA2E21E06C157D0549
:103BC0008E059F050CF020E040E368E070E0C8013E
:103BD0008C0F9D1F0E9493070F5F1F4F0830110528
:103BE000D9F68FEFA81AB80A289741F6DF91CF913E
:103BF0001F910F91FF90EF90DF90CF90BF90AF900B
:103C00007F906F905F904F9008958F929F92AF92A8
:103C1000BF92CF92DF92EF92FF920F931F93CF93B9
:103C2000DF9380916301815080936301811184C08F
:103C3000209161013091620180915F01909160015A
:103C400028173907DCF0281B390B309362012093C9
:103C50006101803921E092076CF424E630E0883C71
:103C6000910514F428E230E0820F931F90936001D5
:103C700080935F0111E081E000E008C081E0909155
:103C80005E019A3008F080E010E001E090915D0163
:103C900090936301C1E0D0E0811102C0C3E0D0E0A5
:103CA00097E5C92E91E0D92EF12CE12C22E0822E4D
:103CB000912CA12CB12CEC16FD060CF043C00E94F7
:103CC000F52DA50194010E94AA2E672B682B692B64
:103CD000B1F587E090E0F60191838083FFEFEF1A62
:103CE000FF0A22E0C20ED11C83E0E816F10419F7A6
:103CF000011102C0112399F00E94F52D9E01DD0FE4
:103D0000440B550B0E94AA2EEB01CC0FDD1F112393
:103D1000E9F0C95ADE4F85E090E099838883DF910E
:103D2000CF911F910F91FF90EF90DF90CF90BF90B8
:103D3000AF909F908F90089510E000E0AFCF81E0AA
:103D400090E0C9CFF60111821082C8CF0E94F52DF4
:103D500022E030E040E050E00E94AA2E672B682B62
:103D6000692B29F484E090E0C95ADE4FD6CF83E076
:103D700090E0FACF80917F0190918001019790931C
:103D8000800180937F011816190644F186E0E7E56B
:103D9000F1E0A0E7B1E001900D928A95E1F70E9471
:103DA000051E82E0809376018EE0809377018091FA
:103DB000720190917301892B91F080E080937801DA
:103DC00010927901109283011092470110925301D1
:103DD00081E090E09093560180935501089585E02D
:103DE000EDCF80917C0280935E0110924E01109283
:103DF0004F01109250011092510110924A011092FD
:103E000062011092610120E530E03093600120935F
:103E10005F0110924B0110927B0110927C01109275
:103E20007D0110927E018C3309F04DC080E49DE04D
:103E3000A3E0B0E080934E0190934F01A093500116
:103E4000B0935101E6E8F1E01182108213821282F0
:103E500015821482178216821186108613861286A6
:103E60003C9682E0EE32F80779F78FEF8093670196
:103E70008093690180936B0180936D0110924C01D6
:103E800010925401109248010E94B91580915D0171
:103E9000809363010E94051E1092560110925501F5
:103EA00088E790E09093800180937F0181E090E02B
:103EB000909365018093640180937F0260E082EBC0
:103EC00091E00C94BC0E8A3509F0BCCF80E291EAF7
:103ED000A7E0B0E080934E0190934F01A093500172
:103EE000B093510180EA90E09093600180935F016C
:103EF000A9CF0C94F11EE6E0F0E0DF01A81BB109A8
:103F000087FDB395CD0154E0880F991F5A95E1F7CD
:103F1000EEE0F0E0E61BF10967FDF3958E0F9F1FC1
:103F200063E0880F991F6A95E1F747FD495F459562
:103F300045954595841B910947FD9395253031059D
:103F400031F44091740240FF02C026E030E043E0CB
:103F5000220F331F4A95E1F7B9016D587C4F48E0B5
:103F600050E08B5D9C4F0C944D2ECF92DF92EF92E0
:103F7000FF920F931F93CF93DF9325E030E040E053
:103F800060913102809130020E947B1F80912F024C
:103F9000882309F46BC000913102081B002E000C2D
:103FA000110BC1E0D0E080912E02883014F0D0E0F7
:103FB000C0E0C00FD11F2CE02C9FC0012D9F900DA1
:103FC00011249C012A573E4F7901C017D10754F1A3
:103FD000D12CC12CF601EE0FFF1FEE0DFF1D20812D
:103FE00031812730310569F420912E0227FD215FB0
:103FF0002595259525952595022E000C330B295FD7
:104000003F4F40E06C2F8C2D0E947B1F3FEFC31A67
:10401000D30A86E0C816D104E9F62197ACE0EA1A83
:10402000F108D3CFEEE0F0E0E01BF10B83E0EE0F00
:10403000FF1F8A95E1F790912E0297FD995F959564
:104040009595959521E040E368E070E0DF01A90FC8
:10405000B11D97FDBA95CD01DF91CF911F910F91C1
:10406000FF90EF90DF90CF900C949307DF91CF916A
:104070001F910F91FF90EF90DF90CF900895EF92F6
:10408000FF920F931F93CF93DF9306E611E0D0E0EA
:10409000C0E08BE0E82EF12CF801618167FD0CC0D7
:1040A00097012C1B3D0B209711F430E020E040E0FD
:1040B000F80180810E947B1F21960E5F1F4FC43044
:1040C000D10551F7DF91CF911F910F91FF90EF90A4
:1040D0000895CF92DF92EF920F93CF93DF930E94D8
:1040E0003F20809131029EE0C92ED12CC81AD10800
:1040F00087FDD39423E0CC0CDD1C2A95E1F7809159
:104100003002C6E0D0E0C81BD10987FDD39533E06B
:10411000CC0FDD1F3A95E1F79091850180912E0239
:1041200091111FC087FD895F859585958595C81A72
:10413000D10887FDD39488E0E82E08E023E833E037
:10414000AE01B60181E193E00E948E08C092840125
:10415000C0938301DF91CF910F91EF90DF90CF90CB
:10416000089587FD895F85958595859590912F02A6
:104170008902C00DD11D1124DECF8F929F92AF9284
:10418000BF92CF92DF92EF92FF920F931F93CF9344
:10419000DF9380918501873011F40E943F20809148
:1041A0007B0190917C01A0917D01B0917E01892BD2
:1041B0008A2B8B2B09F451C080917A01CEE0D0E09C
:1041C000C81BD10987FDD39583E0CC0FDD1F8A95ED
:1041D000E1F75E0182E0A80EB11C10922B0710924D
:1041E0002C079EE1E92EF12C4E0184E0880E911CF3
:1041F0006E018FEFC81AD80A20917B0130917C01A3
:1042000040917D0150917E0101E010E0B701C601AF
:104210000E94741A8FEFC81AD80AC814D90461F71B
:104220008FEFE81AF80A81E2E816F10409F781E055
:1042300080932B0780932C0780917F0181FF0DC015
:1042400020917B0130917C0140917D0150917E0154
:104250006FE170E0C5010E94741ADF91CF911F9148
:104260000F91FF90EF90DF90CF90BF90AF909F9015
:104270008F90089580918501873011F40C943F2030
:1042800008958F929F92AF92BF92CF92DF92EF925A
:10429000FF920F931F93CF93DF93A82E962EB42EE9
:1042A000822EC42F440FDD0B21967801680186E031
:1042B000C80ED11CCE010197869581708A0D9C2F66
:1042C00096959170692D691B30E020E0011511056C
:1042D00019F0F70120813181482D0E947B1FF5E004
:1042E000BF1639F0219682E0E80EF11CCE14DF04EF
:1042F00009F7DF91CF911F910F91FF90EF90DF9021
:10430000CF90BF90AF909F908F9008950F931F9381
:1043100000E711E0209179014091780160917701E7
:10432000809176010E9441218091760180938401E1
:1043300080917701809383018091780180936F0150
:104340008091790180936E011F910F910895EF92F2
:10435000FF920F931F93CF93DF938091640190910D
:1043600065018530910529F1C0917F02039741F5E0
:10437000CC23B1F000E020E140E168E170E090E0A2
:1043800080E00E94000820E348E668E070E080E1F9
:1043900090E00E94000840E060E080E00E94570D3D
:1043A00080917A02811101C0C1110E9442191092BC
:1043B0007F02DF91CF911F910F91FF90EF900895B1
:1043C000CC2309F4D3C00E94890949E667E070E074
:1043D00080E190E00E94D91849E668E370E080E14E
:1043E00090E00E94D91821E040E368E070E088E79F
:1043F00090E00E949307C6E8EC2EC1E0FC2E10E08E
:10440000D0E0C0E0FE01EE0FFF1FEE0DFF1D20818A
:1044100031812115310529F040E0612F8C2F0E9458
:104420007B1F2196C630D10569F78CE0E80EF11CA0
:104430001F5F1E3029F7F0907F0274E1E72E05E040
:1044400029E437E04CE250E070E060E081E193E085
:104450000E948E0860915E0170E090E080E026E0AE
:1044600030E030932607209325072FE330E0309388
:104470002807209327070E94481A20914E01309167
:104480004F01409150015091510102E010E06FEF57
:104490007FEF8AE790E00E94741A22E148E070E022
:1044A00060E090E080E00E941419E0916101F091D9
:1044B000620120915F0130916001CF01A4E0880F7B
:1044C000991FAA95E1F7B9010E94292FC62FE2177B
:1044D000F30724F08091740280FDC0E001E02C2FEE
:1044E00046E061E070E081E090E00E94000820E199
:1044F0002C1B6C2FCC0F770B6F5F7F4F00E046E0DB
:1045000081E090E00E940008C0916401D0916501B3
:10451000F1106DC0249709F088C08091490188236B
:1045200009F483C080917F019091800123E09595EB
:1045300087952A95E1F7817080932B0780932C074C
:1045400088E490E090932607809325078DE390E020
:10455000909328078093270789EF91E00E944018E5
:1045600081E080932B0780932C075FC000E02CE054
:1045700046E064E370E086E090E00E9400082AE2F2
:1045800046E070E060E08AE790E00E9400088091D9
:10459000550190915601019781F4609183018091BA
:1045A0007701681754F010E000E020916E0140910F
:1045B0006F01809184010E94412180915501909169
:1045C0005601049709F037CF80918401882309F4BC
:1045D00032CF60918301062E000C770B00E028E0BB
:1045E00048E0082E000C990B0E94000824CF64E1DB
:1045F000E62E05E02AEE31E04CE250E06AE770E09A
:1046000081E193E00E948E08C130D10509F074C0A9
:1046100058E2E52E0EE027E432E04CE050E069E39A
:1046200070E081E193E00E948E08809155019091A5
:104630005601019721F4809177018C307CF48091B0
:10464000590190915A0145E0892B09F040E007E5B6
:1046500011E020E06EE082E00E944121809164013F
:1046600090916501029761F4E0915501F091560136
:10467000EE0FFF1FE357FD4F85919491FC010995C3
:1046800080916401909165018230910509F063C0C9
:10469000809148018A3008F46DC04DE0481B642FBA
:1046A00070E0CB01039621E030E001C0220F8A9533
:1046B000EAF7822F86952150909174022923821B5C
:1046C000082E000C990B97FF03C0919581959109D5
:1046D00023E030E0261B370B01C0880F2A95EAF74C
:1046E000440F440F440F841B60E018160CF080E068
:1046F00040E00E94570D5BCE249709F096CF22E44C
:104700004EE16FEF7FEF81E390E00E94141900E02B
:1047100020E44CE170E060E082E390E00E94000859
:1047200038E3E32E08E02FE032E050E040E06CE3B5
:1047300070E081E193E00E948E0848E0E42E0BE0F7
:1047400024E032E048E350E06CE370E081E193E084
:104750000E948E08E2CE049769F460917F01709107
:10476000800168537240660F771F862F1616170652
:104770000CF4BECF60E0BBCFCF93DF9380915102AA
:1047800090915202019709F050C080EE92E0909310
:10479000540280935302F999FECF4FE452E46EE441
:1047A00079E080EE92E00E949D2E809153029091DC
:1047B000540204969093540280935302F999FECFC9
:1047C00060915302709154024AE150E080E692E019
:1047D0000E94852EC0915302D09154026A96D093C4
:1047E0005402C09353020E94F616F999FECFBC0101
:1047F000CE010E94A52E8091530290915402029600
:1048000090935402809353026091C00282E090E042
:104810000E948F2E82E090E090935202809351028A
:1048200010925002DF91CF91089584EE92E0C2CFB2
:1048300080916401909165018230910509F456C020
:1048400060F40197A9F18091640190916501059749
:1048500009F4ECC082E090E008958330910509F4FA
:10486000E2C0049781F720917F01309180012150AF
:1048700031093093800120937F012D31F2E03F0711
:104880004CF780912E078C7090E040912D0750E0FE
:104890004095509584239523892B19F412161306FD
:1048A000CCF285E090E09093650180936401CBCFDA
:1048B00080917F0190918001019790938001809376
:1048C0007F0145973CF6809178029091790201969C
:1048D000909379028093780282E090E09093650152
:1048E0008093640181E080937F02ADCF8091740258
:1048F00090917502A0917602B09177020196A11D68
:10490000B11D8093740290937502A0937602B093C8
:10491000770281E080935002109244011092450189
:1049200080912E07982F907F09F47AC090914301CF
:104930009F5F9B300CF072C09093430190914301B4
:10494000913011F09A30C1F484FF03C09FEF90932F
:10495000450187FF05C0909145019F5F90934501F8
:1049600085FF03C09FEF9093440186FF05C08091AF
:1049700044018F5F80934401E0915501F09156010D
:10498000EE0FFF1FE252FE4F85919491FC010995B5
:104990008091640190916501029709F054CF809154
:1049A0002E07887090E020912D0730E020953095FB
:1049B00082239323892B09F44DCF1092550263E48F
:1049C00076E185ED91E00E94D21069E77FE18DEC00
:1049D00091E00E94D21062E376E188EC91E00E94BF
:1049E000D21087E380935B028DE380935A0281E1CA
:1049F000809359028BE38093580281E080935702A1
:104A00008093560210927B0280937A02809150022A
:104A100081110E94BC2383E090E060CF9AE08CCFAC
:104A200010924301A9CF0E9462160DCF81E090E061
:104A300008958F929F92AF92BF92CF92DF92EF92A2
:104A4000FF921F93CF93DF93C0917F01D09180019C
:104A50001C161D060CF03FC02197D0938001C09317
:104A60007F0180918501873089F480912E02909199
:104A70004D01891B80932E0280912E0287FF06C074
:104A8000805C80932E020E941611F6CFCD2BB9F4D4
:104A900080917B0190917C01A0917D01B0917E017C
:104AA000892B8A2B8B2B59F010927B0110927C0161
:104AB00010927D0110927E0181E080937F02DF9150
:104AC000CF911F91FF90EF90DF90CF90BF90AF906C
:104AD0009F908F90089522E931E081E090E060E0BE
:104AE000F90150E040E0C191D191209779F0DF01C8
:104AF0001E97ED90FC901197982FEF2839F411969E
:104B0000DC93CE931C961D921C9261E04F5F5F4F29
:104B10004630510541F78F5F245F3F4F8E3001F7DC
:104B200090934801662321F081E080934B01C5CF2B
:104B300080914B01882339F063E08BE193E00E9480
:104B4000BC0E10924B0110913002A6E8B1E0EEE0ED
:104B500070E060E090E080E0C12CD12C7601C3943D
:104B6000F1E030E020E0B82EA901440F551F4A0FB4
:104B70005B1FEA01488159814130510549F038F005
:104B8000435051094330510510F4122FEB2DF0E042
:104B90002F5F3F4F2630310539F7FF2319F14601CA
:104BA0005701082E04C0880C991CAA1CBB1C0A942F
:104BB000D2F76829792911961C921E9213961C929D
:104BC0001E92129715961C921E92149717961C927D
:104BD0001E92169719961C921E9218971B961C925D
:104BE0001E921A9701961C968E30910509F0B8CF47
:104BF00010933002E093310270938201609381013F
:104C0000672B91F062E081E093E00E94BC0E83E0AC
:104C100090E090935601809355018EE190E090933F
:104C2000800180937F014BCFEE3079F1D6E0ED0229
:104C3000F0011124E10FF11D17FDFA95EE0FFF1F92
:104C4000EA57FE4F808191818530910551F4909310
:104C500056018093550110922F0288E380932E0213
:104C60002ECF24E030E03093560120935501039776
:104C700051F48FEF80932F0210922E021092850133
:104C8000109284011CCF81E0F5CF80911A0290919F
:104C90001B02892B99F58091590190915A01892B1A
:104CA00031F080911C0290911D02892B39F5809181
:104CB0004A018F5F80934A018F30B0F0C0915E014E
:104CC000C33690F4CF5FC0935E0110924A010E94F8
:104CD000B9158C2F65E00E941D2F91110CC08EED2F
:104CE00092E062E00E94BC0E1092560110925501B3
:104CF00084E190E094CF81ED92E0F3CFA0915E014A
:104D000040914E0150914F016091500170915101BD
:104D1000E0E6F2E085E090E09C01215031098088D6
:104D20009188A288B388C088D188E288F12CC41603
:104D3000D506E606F70680F42430310551F0848A62
:104D4000958AA68AB78A2115310519F490E080E08A
:104D500006C03497C901E0CF8530910559F0FC01B8
:104D6000EE0FFF1FEE0FFF1FE05AFD4F40835183F0
:104D70006283A38340935C0250935D0260935E0262
:104D800070935F0221E0892B09F020E02093490114
:104D90008091500281110E94BC2388E592E090939B
:104DA000800180937F0184E090E09093650180937F
:104DB000640181E080937F0261E08FEA92E0DF91FD
:104DC000CF911F91FF90EF90DF90CF90BF90AF9069
:104DD0009F908F900C94BC0E1F920F920FB60F9263
:104DE00011248F939F938091E1009091E100937F34
:104DF0009093E10083FF0FC01092E90091E090933F
:104E0000EB001092EC0092E39093ED001092B90247
:104E100098E09093F00082FF22C093E09093E90025
:104E20009091F200992319F09AE39093E800909101
:104E3000AA02992341F09091AA0291509093AA025C
:104E4000911101C05D9A9091B802992341F090911F
:104E5000B80291509093B802911101C0289A84FF32
:104E600018C08091E2008E7E81608093E200809184
:104E7000E1008F7E8093E1008091AB028E7E8061A5
:104E80008093AB029F918F910F900FBE0F901F9058
:104E9000189580FFF7CF8091E2008E7E806180932D
:104EA000E2008091E1008E7E8093E1008091AB0270
:104EB0008E7E8160E5CF1F920F920FB60F92112464
:104EC000CF92DF92EF92FF920F931F932F933F9316
:104ED0004F935F936F937F938F939F93AF93BF9302
:104EE000EF93FF93CF93DF93CDB7DEB76C97DEBF21
:104EF000CDBF1092E9008091E80083FF25C068E0F3
:104F0000CE0145960E94CC0B82EF8093E8008D89FC
:104F100087FF39C09091E80090FFFCCF982F9076E2
:104F200009F034C19E894F89588D2F89F88C9111D1
:104F300031C0803861F58091A9028093F100109210
:104F4000F1008EEF8093E8006C960FB6F894DEBF08
:104F50000FBECDBFDF91CF91FF91EF91BF91AF9188
:104F60009F918F917F916F915F914F913F912F9181
:104F70001F910F91FF90EF90DF90CF900F900FBE99
:104F80000F901F9018959EEF9093E800C7CF109256
:104F9000F100D5CF913059F48111D3CF4130510573
:104FA00081F68091A9028D7F8093A902CACF9330A8
:104FB00049F48111C6CF4130510519F68091A902FB
:104FC0008260F2CF953041F48091E80080FFFCCF01
:104FD00020682093E300B5CF963009F0A9C00B8D6F
:104FE0001C8D22E01092E9001092A7021092A602F6
:104FF000F2122EC01092A5021092A4020E949B0BE6
:105000001F8299E09983FA8291E09E8390EA9887C3
:105010009AEF99872091A6023091A702275F3F4F10
:105020003C832B838D831092E9001092A70210928B
:10503000A6021093A5020093A40249E050E0BE012D
:105040006F5F7F4F80E00E94750B0E949B0B79CFB2
:105050001093A5020093A4020E94FE09DC0112969F
:105060000D911C910115110509F451C1D801ED9163
:10507000FC910480F581E02DBE016B5E7F4FC8017D
:105080000995009709F03EC1F80100851185EACF26
:10509000F3E0FF120EC08F89882309F440C08230EC
:1050A00061F440E867E087EC9EE00E94420B8111CA
:1050B00048CF81E28093EB0047CF813029F440E86C
:1050C0006BE08BEB9EE0F1CF833099F70E94FE09F5
:1050D000DC011296ED90FC908E010F5F1F4F68016E
:1050E000E114F10479F0D701ED91FC910680F7818C
:1050F000E02DB801C7010995080F111DF701E084E3
:10510000F184EECFD8011C92F60101900020E9F75E
:105110003197BF016C197D0940E0C601C6CF65EA31
:105120007EE0FB01449150E080E80E94750B09CFBE
:10513000973009F4BECF983021F481E08093F100DC
:1051400000CF993009F0FDCE837009F0B2CFE5E1D0
:10515000F1E081E031E096E32191222371F0809328
:10516000E9003093EB00DF0111972C912093EC00C4
:105170009093ED008F5F873079F78EE78093EA0098
:105180001092EA008F898093B902DBCE8B8D9C8DC3
:105190001092E9001092A7021092A6029093A50225
:1051A0008093A402898D811192C08E899D89913A44
:1051B00049F4813209F07DCF47E050E064E071E0CE
:1051C00080E0B3CF913209F074CF833269F48F89D4
:1051D000988DB0E0A0E08093000190930101A0932E
:1051E0000201B0930301ADCE803269F48091E800F2
:1051F00082FFFCCF67E084E091E00E94CC0B8BEF54
:105200008093E8009ECE823209F09BCE8F898093F6
:105210000B01EEEFFFE7859194918B3F9C4D51F18F
:10522000E0E0F8E08091040190910501A091060171
:10523000B0910701803B9440A105B105F1F4809144
:105240000B0180FD1AC0EE3F8AE0F80789F587E779
:1052500097E791838083809160008093A80288E122
:105260009BE00FB6F894A895809360000FBE9093D2
:10527000600067CEEEEFFAE0D5CF8081918187376D
:10528000974709F05ECEA895809160008861809371
:1052900060008091A80280936000EE3F2AE0F20750
:1052A00089F08091FE0A9091FF0A9183808349CE14
:1052B000808191818737980751F29093FF0A8093FC
:1052C000FE0AC5CF1092FF0A1092FE0A3ACE0E9443
:1052D000FE09DC0112960D911C910115110509F4CE
:1052E000E8CED801ED91FC910190F081E02DBE0156
:1052F0006B5E7F4FC8010995811123CEF8010085AF
:105300001185EBCF181619060CF41BCED2CEF1E0A6
:10531000FF12BECE69EA7EE004CF0F920FB68F93E4
:105320009F93EF93FF9380918F028D5F8D3708F0ED
:105330008D5780938F02EEE9F2E080818E4F80835B
:1053400091819F4F918382818F4F828383818F4F81
:105350008383E0E9F2E080818F5F808381818F4FDA
:10536000818382818F4F828383818F4F83838FB12B
:105370008F6066991C9B88278F3681F480918E02FE
:10538000981B963068F0E0E0F8E087E7808381833F
:1053900088E180936000F0936000FFCF90938E02CD
:1053A000FF91EF919F918F910FBE0F9018951F92D3
:1053B0000F920FB60F9211242F933F934F935F9349
:1053C0006F937F938F939F93AF93BF93EF93FF93CD
:1053D00080918B02882349F080919402E09195029C
:1053E000F09196029081892780838091BB02882367
:1053F00029F18091870290918802A0918902B09151
:105400008A02892B8A2B8B2BC9F08091870290917D
:105410008802A0918902B0918A020197A109B1097D
:105420008093870290938802A0938902B0938A02A6
:10543000892B8A2B8B2B11F40E94490EFF91EF913F
:10544000BF91AF919F918F917F916F915F914F919C
:105450003F912F910F900FBE0F901F9018951F92A4
:105460000F920FB60F9211248F939F93AF93BF9318
:10547000EF93FF9380918602882309F452C08091B4
:10548000820290918302A0918402B0918502892BBF
:105490008A2B8B2BA1F190919702E0919802F091C9
:1054A0009902808189278083809182029091830272
:1054B000A0918402B0918502181619061A061B06DF
:1054C0009CF48091820290918302A0918402B09119
:1054D00085020197A109B10980938202909383020A
:1054E000A0938402B0938502FF91EF91BF91AF9199
:1054F0009F918F910F900FBE0F901F901895109253
:10550000860280916F008D7F80936F00809197025B
:10551000E0919802F091990290818095892380838F
:10552000E3CF90919702E0919802F09199028081E7
:105530008927F5CFE1ECF2E01382128288EE93E046
:10554000A0E0B0E084839583A683B7838FE191E0E8
:10555000918380838FEF9FEF95878487E1E1F3E06C
:10556000138212828CE3868380E181871086178202
:1055700016861786108A118A128A109226071092B0
:105580002507109228071092270781E080932907AA
:1055900021E331E03183208380932B0710922C0785
:1055A0000895789483E084BD83E085BD81E0809395
:1055B0006E00E1E8F0E083E08083E0E881E0808352
:1055C000E1E983E08083E0E981E08083E1EC87E04A
:1055D0008083E3EC81E08083E0EC82E08083E2EC96
:1055E00081E08083EAE787E080838068808310928F
:1055F000B9021092A9021092AB028091D70081608B
:105600008093D70080EA8093D80089B5806189BDF6
:1056100089B5826089BD09B400FEFDCF0E9496095C
:105620008091D8008F7C80618093D8008091E000C9
:10563000807F8093E0008091E1008E7E8093E10086
:105640008DE08093E200559A209ACFB7F89480912C
:105650009A02811127C0E0E3FEE08491E3E0FEE0DE
:105660009491E82FF0E0EE0FFF1FE652F24FA59164
:10567000B491EC91E92321F461E081E10E94070CEF
:1056800061E081E10E94780C8CB580618CBD8CB5A5
:1056900080648CBD61E08FE00E94780C61E080E165
:1056A0000E94780C80919A028F5F80939A02CFBFFC
:1056B000CEE3DEE0BE01FE0184916F5F7F4F229654
:1056C000FB016491882319F00E94780CF3CF61E00C
:1056D00082E00E94070C61E070E080E090E00E94B0
:1056E000750D60E082E00E94070C6AE070E080E0E7
:1056F00090E00E94750D61E082E00E94070C80E25C
:105700009EE0FC012491E22FF0E0EE0FFF1FEF5E20
:10571000F14F25913491E3EFFDE02491FC01849158
:10572000E82FF0E0EE0FFF1FEF5EF14FA591B4916F
:105730008C91E22FE095E823EC93E3E2FEE0E49124
:10574000F0E0EE0FFF1FEF5EF14F85919491909383
:105750009D0280939C02E6EFFDE0E491E0939B02C2
:105760008CB58C7F8CBD8DB581608DBD0E94A00DE8
:10577000E8EEFDE082EF9DE024912EBD00000DB427
:1057800007FEFDCF2EB531968E179F07A9F70E9411
:10579000AB0D80916400816080936400809164000F
:1057A00082608093640080916400806880936400CC
:1057B00080916400806480936400809165008160C2
:1057C000809365000E948D0D87FF18C00E94A00D78
:1057D00085EA8EBD00000DB407FEFDCF8EB50E9498
:1057E000AB0D4FEF6FEF8FEF0E94570D809164006C
:1057F0008062809364000E94950DFDCF8091BA0273
:10580000823091F0E82FF0E0E852F24FC4918F5FC0
:105810008093BA0261E085E00E94780CC13009F4FF
:105820006AC0C33009F489C061E086E00E94780C48
:1058300082E090E00E94712E882309F4ABC0809131
:105840006500877F8093650081E08093C0028CE3D0
:105850008093170380E180931A0381E080932B07E4
:1058600080932C071092A3021092A202E1E5FEE0C1
:1058700085919491FC01099516E000E1C0E0D0E02B
:10588000DD24D3942FB7F89480919E0290919F02CB
:10589000A091A002B091A1022FBF20912303222347
:1058A00091F020911B03F82FF21BF0932403209119
:1058B0001803309119032F5F3F4F30931903209342
:1058C00018031092230340911F035091200360910D
:1058D00021037091220384179507A607B7070CF0E0
:1058E00061C0481B423010F00E94950D209751F284
:1058F0000E940000C7CF109280001092810080911A
:105900008100886080938100809181008160809314
:105910008100E4E2FEE0E491F0E0EE0FFF1FEF5EB5
:10592000F14F859194919093990280939802E7EFBB
:10593000FDE0E491E093970277CF109290001092EF
:1059400091008091910088608093910080919100F6
:10595000816080939100E4E2FEE0E491F0E0EE0FDC
:10596000FF1FEF5EF14F8591949190939602809383
:105970009502E7EFFDE0E491E09394028091BA0292
:10598000882321F06CE380E00E94B50D80E00E9446
:10599000260E4ACF1092C0028091650088608093E5
:1059A000650055CF20911A03AC01BD01420F511D76
:1059B000611D711D40931F035093200360932103C9
:1059C0007093220380931B0390931C03A0931D03E9
:1059D000B0931E03D092230380912E0780932D074E
:1059E0000E948D0D80932E078091A2029091A302B8
:1059F000189FF001199FF00D1124ED5AF14F859178
:105A00009491FC0109957C018091A2029091A302DE
:105A1000189FF001199FF00D1124EB5AF14F859159
:105A20009491FC01099580EBC82E95E2A92E93E094
:105A3000B92E0E94A00DCEBC0DB407FEFDCF0EBD49
:105A40000DB407FEFDCF0E94AB0DF50130E8A30EAB
:105A5000B11C81918EBD0DB407FEFDCFAE16BF0601
:105A6000C1F7C39488EBC812E4CF8091A202909151
:105A7000A302E816F90609F439CFF092A302E092E6
:105A8000A2021E9DF0011F9DF00D1124EF5AF14F4F
:105A900085919491FC01099529CF8F929F92AF92A5
:105AA000BF92CF92DF92EF92FF92CF93DF93EC0100
:105AB000688179818A819B816115710581059105D4
:105AC00021F464E279ED8BE597E02DE133EF41E0DD
:105AD00050E00E94AA2E49015A019B01AC01A7EA9D
