:100000000C945B060C9483060C9483060C94830674
:100010000C9483060C9483060C9483060C9483063C
:100020000C9483060C9483060C94C00E0C942F0F32
:100030000C9483060C9483060C9483060C9483061C
:100040000C9483060C9483060C9483060C9483060C
:100050000C9483060C9483060C9483060C94611113
:100060000C9483060C9483060C9483060C948306EC
:100070000C9483060C9483060C9483060C948306DC
:100080000C9483060C9483060C9483060C948306CC
:100090000C9483060C9483060C9483060C948306BC
:1000A0000C9483060C9483060C9483060020700045
:1000B00000000030300000003060000010302000F0
:1000C000202020200000202060000020203000029E
:1000D00001C0C00301E0E0E00301070507000000E4
:1000E00001010102020203030304040405050506DD
:1000F00006060707070808080909090A0A0A0B0B78
:100100000B0C0C0C04011F111F00001F00001D151B
:10011000170011151F0007041F0017151D001F15DC
:100120001D00011D03001F151F0017151F000000F3
:100130000000003E5B4F5B3E3E6B4F6B3E1C3E7CC7
:100140003E1C183C7E3C181C577D571C1C5E7F5E75
:100150001C00183C1800FFE7C3E7FF001824180034
:10016000FFE7DBE7FF30483A060E262979292640CB
:100170007F050507407F05253F5A3CE73C5A7F3EF7
:100180001C1C08081C1C3E7F14227F22145F5F0089
:100190005F5F06097F017F006689956A6060606025
:1001A0006094A2FFA29408047E040810207E201010
:1001B00008082A1C08081C2A08081E101010100C19
:1001C0001E0C1E0C30383E3830060E3E0E06000067
:1001D00000000000005F00000007000700147F140B
:1001E0007F14242A7F2A122313086462364956207A
:1001F000500008070300001C2241000041221C009F
:100200002A1C7F1C2A08083E08080080703000085D
:1002100008080808000060600020100804023E5131
:1002200049453E00427F40007249494946214149C3
:100230004D331814127F1027454545393C4A49492A
:100240003141211109073649494936464949291E94
:100250000000140000004034000000081422411483
:1002600014141414004122140802015909063E41D5
:100270005D594E7C1211127C7F494949363E4141FD
:1002800041227F4141413E7F494949417F09090956
:10029000013E414151737F0808087F00417F4100C2
:1002A0002040413F017F081422417F404040407F71
:1002B000021C027F7F0408107F3E4141413E7F09BE
:1002C0000909063E4151215E7F09192946264949FF
:1002D000493203017F01033F4040403F1F2040203F
:1002E0001F3F4038403F631408146303047804033D
:1002F0006159494D43007F414141020408102000EB
:100300004141417F0402010204404040404000035B
:1003100007080020545478407F2844443838444427
:100320004428384444287F385454541800087E091F
:100330000218A4A49C787F0804047800447D40003F
:100340002040403D007F1028440000417F40007C59
:10035000047804787C080404783844444438FC1851
:1003600024241818242418FC7C0804040848545435
:10037000542404043F44243C4040207C1C20402062
:100380001C3C4030403C44281028444C9090907CC9
:100390004464544C440008364100000077000000DB
:1003A0004136080002010204023C2623263C1EA11D
:1003B000A161123A4040207A38545455592155557C
:1003C000794121545478412155547840205455792D
:1003D000400C1E52721239555555593954545459BE
:1003E00039555454580000457C410002457D420077
:1003F00001457C40F0292429F0F0282528F07C5480
:100400005545002054547C547C0A097F493249499F
:1004100049323248484832324A4848303A4141210C
:100420007A3A42402078009DA0A07D394444443966
:100430003D4040403D3C24FF2424487E4943662BF8
:100440002FFC2F2BFF0929F620C0887E090320549A
:100450005479410000447D413048484A3238404098
:10046000227A007A0A0A727D0D19317D2629292FF8
:1004700028262929292630484D4020380808080810
:1004800008080808382F10C8ACBA2F102834FA0012
:10049000007B000008142A142222142A1408950054
:1004A000220095AA005500AAAA55AA55AA00000044
:1004B000FF00101010FF00141414FF001010FF00B4
:1004C000FF1010F010F0141414FC001414F700FFC7
:1004D0000000FF00FF1414F404FC141417101F1084
:1004E000101F101F1414141F00101010F000000033
:1004F000001F101010101F10101010F0100000003E
:10050000FF101010101010101010FF10000000FF4E
:10051000140000FF00FF00001F10170000FC04F48F
:1005200014141710171414F404F40000FF00F71447
:10053000141414141414F700F714141417141010CE
:100540001F101F141414F4141010F010F000001FEA
:10055000101F0000001F14000000FC140000F01029
:10056000F01010FF10FF141414FF141010101F00CF
:10057000000000F010FFFFFFFFFFF0F0F0F0F0FFD1
:10058000FFFF0000000000FFFF0F0F0F0F0F3844A8
:100590004438447C2A2A3E147E02020606027E0269
:1005A0007E0263554941633844443C04407E201E2A
:1005B0002006027E020299A5E7A5991C2A492A1C59
:1005C0004C7201724C304A4D4D303048784830BC46
:1005D000625A463D3E494949007E0101017E2A2A70
:1005E0002A2A2A44445F444440514A444040444AF1
:1005F00051400000FF0103E080FF000008086B6B22
:10060000083612362436060F090F060000181800A7
:1006100000001010003040FF0101001F01011E000A
:10062000191D1712003C3C3C3C0000000000F0F893
:100630009C8E8783878E9CF8F00000FEFF030303E7
:100640000303070EFCF80000FEFF03030303030788
:100650000EFCF80000FFFF00000000000000FFFF9C
:100660000000FEFF8383838383C7EE7C380000F89D
:10067000FC0E07030303070EFCF800003F7FE0C0F9
:100680008080C0E07F3FFFFF01010101010101FF08
:10069000FF0000FFFF0C0C0C0C1C3E77E3C10000B8
:1006A0007FFFC0C0C0C0C0E0703F1F00001F3F7090
:1006B000E0C0C0C0E0703F1F00007FFFC1C1C1C1EA
:1006C000C1E3773E1C00001F3F70E0C0C0C0E07077
:1006D0003F1F000000000001FFFF010000008D141B
:1006E000A1C881CFD9F102AFD5F8F4EA547A5568A0
:1006F000747A546A5578746A547A5568747A546A6C
:100700005578746A547A5568F4FAD4EAFF01000205
:100710000282FE82020288FA8000F8100808F000C7
:100720001860C03888A0A8A828282808080801FF51
:10073000FF0004040414141454545050440404FCE2
:10074000040404F022120110F40000205050900024
:10075000000000FFFF00000000804040004040C05B
:10076000404001814140800100C040418101404141
:10077000C1414000000000FFFF0000000001121214
:100780000C00001F0000001F02021F00001F060ACD
:10079000110000001F000000000000FFFF0000002B
:1007A000F0B0508888C8505020206060B090101879
:1007B000089898A4E446E4E4E8F8F0F0000000FFAC
:1007C000FF00000003060D1A3F6BD6AA54F8FCFC8C
:1007D000FEFEAB7F7F3F3F1F0F0D070703030101A5
:1007E000000000FF1F3C38383030303030303031BE
:1007F00033373331313030303030303030303030EA
:100800003030303038383C1F1E0103040404040427
:100810000404040404040404040404040404040498
:1008200004040404040404031E01FE010101010187
:1008300001010101010101010101010101010101A8
:1008400001010101010101FEFC02F9F51D0D0D0D73
:100850000D0B071F3F202F2F3F223F203933203F12
:10086000202A2E3F2D2A2A361F070B0D0D0D0D1D98
:10087000F5F902FCF80040004040004040004040D4
:1008800000404000404000404000404000404000E8
:100890004040004040004040004000F8FC02F9F5B4
:1008A0001D0D0D0B071F3F2D2A2A363F312E2E3FDF
:1008B000312E2E313F203A322D3F202A2E3F1F0766
:1008C0000B0D0D1DF5F902FCFF007FBFE0C0C0C09D
:1008D000C0C0C0C0C0C0C0C0C0C0C0C0C0C0C0C018
:1008E000C0C0C0C0C0C0C0C0C0C0C0C0C0C0C0E0E8
:1008F000BF7F00FFFF0000000000000000000000BC
:1009000000000000000000000000000000000000E7
:100910000000000000000000000000FFFF007FBF9B
:10092000E0C0C0C0C0C0C0C0C0C0C0C0C0C0C0C0A7
:10093000C0C0C0C0C0C0C0C0C0C0C0C0C0C0C0C0B7
:10094000C0C0C0E0BF7F00FF0001FA5A7A5ADA5AED
:100950007A5ADA5A7A5ADADA7A5ADA5A7A5ADA5AF7
:100960007A5ADA5A7A5ADA5A7A5ADA5A7A5ADA5A67
:100970007AFA0100FF000000000000000000000003
:100980000000000000000000000000000000000067
:100990000000000000000000000000FF0001FAFA63
:1009A0005A5A5A7A5A5A5A7A5A5A5A7A5A5A5A7A27
:1009B0005A5A5A7ADADA5A7A5ADA5A7A5ADA5A7A17
:1009C0005ADA5A7A5AFA01000000FF557755DD5578
:1009D0007755DDF5FF3F07E0FCBCE081071D7DD5C5
:1009E0007755DD557755DD557755DD557755DD550F
:1009F00077FF0000FF000000000000000000000082
:100A000000000000000000000000000000000000E6
:100A10000000000000000000000000FF0000FF00D8
:100A2000FEFD07030303030303030303030303039D
:100A30000307FDFE0001FFF7D5DDD5F7D5DDD5F7BE
:100A4000D5DDD57755FF00000000FF557755DDF562
:100A50007F3F8FC3F0DCBFF7EFFDEAD7BCF04081EA
:100A6000071D753F87F181030F35DD557755DD553E
:100A700077FF0000FF000000000000000000000001
:100A80000000000000000000000000000000000066
:100A90000000000000000000000000FF0000FF0058
:100AA000FFFF00000000000000000000000000FC4C
:100AB0007EC25E7E42525A7E625E627E42525A7EA2
:100AC000C25EFC0103FF00000000FF557755DF57B1
:100AD0007CF8E1042AEEDA4E0A0A0E1AAE0A050183
:100AE000C060786F5F7E756F5860C0030F75DD550D
:100AF00077FF0000FF000000000000000000000081
:100B000000000000000000000000000000000000E5
:100B10000000000000000000000000FF0000FF785F
:100B200073E5676666E666666EFEFE0E06C600FF45
:100B3000FF80000000000000000000000000000036
:100B400080FFFF0000FF000000000F1517951D1526
:100B5000971F9F0009BF3A9520009100AA000080CE
:100B60000285372D9507850D37850280181C9F1546
:100B7000170F0000FF000000000000000000000050
:100B80000000000000000000000000000000000065
:100B90000000000000000000000000FF00000F1730
:100BA000159D1517951D9517157F3F80001D9419EC
:100BB0009A131393139313177F3F8703139313937E
:100BC00013129110180F000000000000060F0D1FF7
:100BD0001D161F1D1F1D363F3D7F7D76FFFDFFFD4E
:100BE000767F7D3F3D361F1D1F1D161F1D0F0D06F5
:100BF00000000000FF808080808080808080808076
:100C000080808080808080808080808080808080E4
:100C10008080808080808080808080FF0000000055
:100C2000060F0D1F1D161F1D1F1D363F3D7F7D76B4
:100C3000FFFDFFFD767F7D3F3D361F1D1F1D161FEB
:100C40001D0F0D0600000000080B0002020200004C
:100C5000090400000102020000052400100105241F
:100C60000101010424020605240600010705810391
:100C700010004009040100020A00000007050202FA
:100C8000400000070583024000000403090412012C
:100C90000002EF02014041233680000101020301FE
:100CA00041726475696E6F204C4C43004142413182
:100CB00031303600DE1111241FBECFEFDAE0DEBF87
:100CC000CDBF11E0A0E0B1E0E0E3F1E302C00590A8
:100CD0000D92A235B107D9F727E0A2E5B1E001C036
:100CE0001D92A139B207E1F716E0CBE5D6E004C0CA
:100CF0002197FE010E949018CA35D107C9F70E94BA
:100D0000FB110C9496180C940000EDE3F3E030EB2B
:100D100020E146E05C983EBD4A95F1F72EBD20E803
:100D2000239507C0449140815C9A4EBD8111412DAD
:100D3000419344912A95B1F73395383B49F70DB467
:100D40000895FC0180913C03882311F13FB7F8948A
:100D500082E08093E9002091F200822F90E0181643
:100D6000190614F481E090E0882339F0289844E6CD
:100D700040933B034091F1004083222339F02091BE
:100D8000F200211103C02BE62093E8003FBF089535
:100D90008FEF9FEF08952FB7F89483E08093E900D9
:100DA0009091E800892F807295FF04C09091F20025
:100DB00080E4891B2FBF08958091330381110DC0FA
:100DC00082E080932F0384E08093300310923203FB
:100DD0001092310381E0809333038FE293E0089512
:100DE000CF93DF931F92CDB7DEB76983DC01ED911E
:100DF000FC910280F381E02D41E050E0BE016F5F85
:100E00007F4F09950F90DF91CF91089583E08093F4
:100E1000E9008091F200882319F08AE38093E800CA
:100E200008950E94CB0690E00895CF93DF931F9220
:100E3000CDB7DEB7FC018485958597FD08C02FEFFF
:100E40003FEF358724870F90DF91CF910895CE0132
:100E500001960E94A106019719F4898190E0F3CFD1
:100E60008FEF9FEFF0CF0F931F93CF93DF931F92DE
:100E7000CDB7DEB78C01FC018485958597FF0BC04B
:100E8000CE0101960E94A106019771F4898190E03C
:100E9000F80195878487F801848595850F90DF9107
:100EA000CF911F910F9108958FEF9FEFF1CFFC012C
:100EB0008485958597FD0BC09FB7F89482E0809359
:100EC000E9008091F2009FBF90E0019608959FB7DE
:100ED000F89482E08093E9008091F2009FBF90E057
:100EE00008954091290350912A03209127033091BE
:100EF000280342175307B4F49091E8009570E1F38A
:100F00009091E80092FD19C08093F100809129032F
:100F100090912A0301968F739927892B19F48EEFEC
:100F20008093E8008091290390912A030196909381
:100F30002A038093290381E0089580E00895DF92D9
:100F4000EF92FF920F931F93CF93DF93D82E8A01D6
:100F5000EB017B01E40EF51ECE15DF0559F0D7FE3F
:100F600012C0FE0184910E94710721968111F4CF75
:100F70000FEF1FEFC801DF91CF911F910F91FF90ED
:100F8000EF90DF9008958881EECF0F931F93CF935A
:100F9000DF931F92CDB7DEB782E0898342E450E051
:100FA00068E47CE080E80E949F070E94DC06DC0188
:100FB00012960D911C910115110589F0D801ED9142
:100FC000FC910280F381E02DBE016F5F7F4FC8016D
:100FD000099597FD04C0F80100851185ECCF898142
:100FE0000F90DF91CF911F910F910895615030F0D4
:100FF0002091F100FC0120830196F8CF289884E627
:1010000080933B030895AF92BF92CF92DF92EF920D
:10101000FF920F931F93CF93DF936C017B018B01A2
:10102000040F151FEB015E01AE18BF08C017D107F2
:1010300059F06991D601ED91FC910190F081E02D7C
:10104000C6010995892B79F7C501DF91CF911F91D1
:101050000F91FF90EF90DF90CF90BF90AF900895E9
:10106000FC010E94C708319728F068517C4F8F4FD0
:101070009F4FF9CFAB01FC010E94C70864177507A9
:101080008E079F07C8F308958F929F92AF92BF92E9
:10109000CF92DF92EF92FF920F931F93CF93DF9344
:1010A0006C017B018A0180910B01882309F45AC0ED
:1010B00080913C03882309F455C080912E0380FF62
:1010C00005C08091E00082608093E000E801B12CCF
:1010D0008AEFA82E93E0892E2AE3922E209711F40E
:1010E000BB20C9F10E94CB06811108C0AA94AA2096
:1010F000C9F181E090E00E943008F0CF8C171D0606
:1011000011F00CF08C2F9FB7F8948092E900209199
:10111000E80025FD02C09FBFE1CF282F30E0C21BB1
:10112000D30BF701815020F041914093F100FACFA9
:10113000E20EF31EBB2021F09092E800B12CEBCF21
:101140008091E80085FDE7CF9092E800BB24B3943E
:10115000209709F3F3CF5D9884E680932D03101652
:1011600011063CF081E090E0F6019383828310E069
:1011700000E0C801DF91CF911F910F91FF90EF9098
:10118000DF90CF90BF90AF909F908F900895AAEC82
:10119000B2E02FB7F8947D918D919C9166B52FBFE9
:1011A000A89B05C06F3F18F47F5F8F4F9F4F22E0D1
:1011B000660F771F881F991F2A95D1F70895AB01F5
:1011C000FC010E94C70841505109E109F10928F0CA
:1011D00068517C4F8F4F9F4FF6CFAB01FC010E94AF
:1011E000C708641775078E079F07C8F3089590E036
:1011F0000C9430088FB18095807F669B88601C9B23
:10120000846008958EBD00000DB407FEFDCF0895E3
:101210006F927F928F929F92AF92BF92CF92DF9206
:10122000EF92FF920F931F93CF93DF9300D01F9203
:10123000CDB7DEB76D3089F0A090CE02B090CF026E
:101240006A30F9F41092D1021092D0029501285F11
:101250003F4F3093CF022093CE0281E090E00F9079
:101260000F900F90DF91CF911F910F91FF90EF9012
:10127000DF90CF90BF90AF909F908F907F906F90B6
:1012800008950091D0021091D10235E0639FF001E2
:101290001124E25DFE4FA801712C80E1682E98E0D8
:1012A000D92EDA0C75E060E0771621F0CF010196B7
:1012B0006491FC01C50140385105D0F4803491059A
:1012C000B8F4A62FA170CA2E9C0171E021FD74E034
:1012D00020FD770F22FD7295287F629ED001112498
:1012E000A40FA35CBC4F0C90072AC0FE07260C92EB
:1012F00066950196D812DFCF73944F5F5F4F86E0FB
:101300007812D0CF0A5F1F4F1093D1020093D00202
:10131000A4CFCF93C82F0E94FA08982F9C2381E076
:101320009C1380E0CF910895633110F5A62F062E0F
:10133000000CBB0B93E0B595A7959A95E1F7677004
:1013400020E830E002C0359527956A95E2F7082E2F
:10135000000C990BFC01EE0FFF1FE80FF91FEE5276
:10136000FD4FEA0FFB1F8081442319F0282B2083B7
:10137000089520952823FBCFCF932091150330911A
:101380001603C90164E670E00E947C18462FE1EC68
:10139000F2E06283C4E6C9016C9F801991091124AF
:1013A0006AE070E00E947C186183C49F20191124B8
:1013B0008AE0689F201911242083CF910895CF924D
:1013C000DF92EF92FF920F93CF93DF93F701549147
:1013D00031963491C42ED12CC82F082E000CDD0B71
:1013E000E52FE150FF0BDF01AC0FBD1FAC15BD05B4
:1013F0000CF459C0CC16DD060CF455C0C62FD0E055
:1014000093E0D595C7959A95E1F72C1708F44BC052
:10141000DE01A30FB11D2A171B0611F00CF043C00B
:10142000539F302D11243F5FA32FA150BB0BFD0113
:101430000E9FD0010F9FB00D11242C1B6770529F7F
:10144000902D11244E5F481BE92FE40F80E03E17DA
:1014500058F0EA0FFB2FF11DEE0DFF1D8491062EB3
:1014600001C0880F0A94EAF72223A9F0951B490FBF
:10147000A40FB11DEA0EFB1EF701E490341758F0DB
:10148000F12C28E030E0261B310902C0F594E794E6
:101490002A95E2F78E29DF91CF910F91FF90EF907F
:1014A000DF90CF90089580E0F6CFEF92FF920F93F8
:1014B0001F93CF93DF93C82F809117036AE00E9498
:1014C0006218192F94E0E92E91E0F92E082F25E0FB
:1014D0004C2F69E28DE60E94DF09D82F012F25E00D
:1014E0004C2F69E282E70E94DF098D2BDF91CF91BB
:1014F0001F910F91FF90EF900895CF92DF92EF929E
:10150000FF920F931F93CF93DF93D82F162F81EC69
:10151000C82E82E0D82E94E0E92E91E0F92EF60153
:101520000281262F4D2F68E080E10E94DF09C82F3D
:10153000F6010181212F4D2F68E084E10E94DF092F
:10154000C82BF6010081212F4D2F68E088E10E9411
:10155000DF098C2BDF91CF911F910F91FF90EF90BE
:10156000DF90CF9008952F923F924F925F926F92AB
:101570007F928F929F92AF92BF92CF92DF92EF9223
:10158000FF920F931F93CF93DF9391EA980F9931B6
:1015900008F09EC0623008F09BC0562E182FC091F4
:1015A0001803D091190380E1882E87E2982ECE018E
:1015B000B4010E947C186B015C0194E0E92E91E07B
:1015C000F92E062F252D412F68E08FE50E94DF09B7
:1015D000482E28EE622E23E0722EC501B3010E9430
:1015E0007C185B01062F252D412F68E083E60E94C1
:1015F000DF09482AA69C1001A79C300CB69C300C31
:101600001124C89C3001C99C700CD89C700C11240A
:10161000CE01821993098619970964E670E00E9449
:101620007C184B01062F252D412F68E087E60E948C
:10163000DF09482A34E6D32ED89CC001D99C900DEE
:1016400011249E01281B390BC9018219930986199F
:1016500097096AE070E00E947C18D62F062F252D8E
:10166000412F68E08BE60E94DF09482A0C2F3AE000
:10167000D39F00191124D89C0019112488E1A89E39
:10168000000D1124C29440EFC4220C19252D412FC6
:1016900068E08FE60E94DF09482A00E0252D412FEF
:1016A00068E083E70E94DF098429DF91CF911F91D1
:1016B0000F91FF90EF90DF90CF90BF90AF909F90F1
:1016C0008F907F906F905F904F903F902F900895F4
:1016D00080E0EBCF67FD26C08C3030F5633124F518
:1016E000962F977040E850E002C0559547959A951F
:1016F000E2F7282F880F330B062E000C770B83E0C0
:10170000759567958A95E1F7C901880F991F820F32
:10171000931F8E529D4F680F791FFB019081942378
:1017200081E019F480E0089581E008952F923F92BE
:101730004F925F926F927F928F929F92AF92BF92E1
:10174000CF92DF92EF92FF920F931F93CF93DF938D
:10175000182FD62EC62FD0E0FE01EE0FFF1FE85E39
:10176000FE4F7190C12CA82EB12C608002ED502E3E
:10177000580EC50181559F4F4C01761408F0AFC03B
:1017800093E29515E0F0F4014490672D842D0E94BA
:101790006A0B813091F4672D660F670D6B5F842DA6
:1017A000880F840D58EDE52E50E0F52E00E02D2D2C
:1017B000412F825D0E94DF09C82A7394DECFFE01AB
:1017C000F695FE2FEE27F795E795EA0DFB1DE85BF2
:1017D000F74FC491C12C1A3508F44DC080912303F2
:1017E000D0E0A12C863050F4282F30E0F901EE5ED5
:1017F000FE4FA080245F3E4FF901D081382E330C7C
:10180000330C380EDA5EC12CB12CE0E84E2E512C90
:10181000832C8B0C082C000C9908C40184559F4F15
:101820004C017CE5272E2A0C712C612CF40184914B
:101830009201062C02C0359527950A94E2F782237F
:1018400061F06FECE62E60E0F62E00E02D2D412FCA
:101850006D2F822D0E94DF09C82AFFEF6F1A7F0AC1
:101860002394239485E06816710401F7B394DE5F36
:1018700095E0B912CDCFCC2980EF810F8D3058F58E
:10188000E1E0ED1540F16D2D812F0E947D0AC82BFE
:101890006D2D812F0E94B30AC82B83E9810F8A30F6
:1018A000E0F4F5E0DF1219C0812F0E94550A8C2B5D
:1018B000DF91CF911F910F91FF90EF90DF90CF902C
:1018C000BF90AF909F908F907F906F905F904F9060
:1018D0003F902F90089580E0DACF80E0E8CFFE01BE
:1018E000F695FE2FEE27F795E795EA0DFB1DE85BD1
:1018F000F74F8491C82A4CEFA42E42E0B42EC0E0EA
:10190000712C4501D0E0F40180818130A1F4609117
:10191000260365506C0F8D2F880F8D0F9091250336
:1019200023EDE22E20E0F22E00E02D2D412F890F35
:101930000E94DF09782ADF5FF5E08F0E911CD53019
:1019400011F78FEFA81AB80ACD5FCF30D1F68C2DE2
:101950008729AECFEF92FF920F931F93CF93DF9320
:101960008038B1F409E511E0C0E07801D3E56C2FCF
:101970008D2F0E94960BF7018083DF5FF8E0EF0E5A
:10198000F11CD038A1F7CF5F0F5F1F4FC83069F748
:10199000D0E0C0E00C2F5C988C2F80550E9402098B
:1019A00082E00E94020980E10E9402095C9ACE0155
:1019B0008F5391407C0110E0602F812F0E94960B85
:1019C0000E9402091F5FF8E0EF0EF11C103859F475
:1019D0002196C830D105F1F6DF91CF911F910F917B
:1019E000FF90EF900895133538F3F7018081E8CF29
:1019F000BF92CF92DF92EF92FF920F931F93CF93FC
:101A0000DF9390912203692F660F660F690F90E0B4
:101A100050E040E074E025E0E22EC0E8D0E0062F80
:101A2000090F002E000C110B04551F4F30E020E071
:101A3000F72EF91A813081F160F1823081F1833023
:101A400091F1F801B490E49ED0011124A450BD4F4F
:101A5000A50FB11D6E01022E02C0D594C7940A9441
:101A6000E2F7FB2DFC21E1E009F4E0E0EC932F5FCD
:101A70003F4F25303105F1F69F5F953081F6DF91BC
:101A8000CF911F910F91FF90EF90DF90CF90BF907B
:101A90000895592F422FD5CF4F2D522FD2CF472FF8
:101AA000421B5F2DCECF572F521B492FCACF8552D5
:101AB00034E0360F63E00E946E1883508093FA0280
:101AC0009923F9F081E080931F03832F63E00E9444
:101AD0006E182DEF280F2093FB02632F330F770B27
:101AE000022E000C330B2D5F3F4FC901880F991F49
:101AF000280F391F6217730739F081E080931A03AA
:101B0000089510921F03E1CF10921A030895AF9227
:101B1000BF92CF92DF92EF92FF920F931F93CF93DA
:101B2000DF930091FB02080FB090FA028CEFE82ED1
:101B300082E0F82EC0E0A02EAC0E6701D0E0F601E6
:101B40001081113039F46A2D8B2D8D0F0E946A0B94
:101B500081110DC0DF5FF5E0CF0ED11CD53079F7D4
:101B6000CF5F8FEFE81AF80AC53029F710E0812F10
:101B7000DF91CF911F910F91FF90EF90DF90CF9069
:101B8000BF90AF900895AF92BF92CF92DF92EF9245
:101B9000FF920F931F93CF93DF93B090FB020091BE
:101BA000FA02080F8CEFE82E82E0F82EC0E0AB2C92
:101BB000AC0E6701D0E0F6011081113039F46A2DC6
:101BC000802F8D0F0E946A0B81110DC0DF5FF5E041
:101BD000CF0ED11CD53079F7CF5F8FEFE81AF80A16
:101BE000C53029F710E0812FDF91CF911F910F9120
:101BF000FF90EF90DF90CF90BF90AF900895FF924D
:101C00000F931F93CF93DF93F82E8B01C0E0F80161
:101C100081918F01813049F4D0E04F2D6C2F8D2FB1
:101C20000E949409DF5FDC30C1F7CF5FC33179F7E1
:101C3000DF91CF911F910F91FF90089580915801EE
:101C4000863020F48F5F80935801089580E0FBCFA9
:101C5000CF93DF93EC010E941E0E809323038091AB
:101C60002203853060F4823080F4882351F0109292
:101C7000F602188280E0DF91CF910C94F80C873047
:101C8000B0F783E08093F602F4CF81E0FBCFE1EC84
:101C9000F2E010821182128210921703109219033F
:101CA00010921803109216031092150308950895C8
:101CB00090E080E008950C94F9170C94F1178111CD
:101CC00009C070E090E080E00E94DF0888B18F7367
:101CD00088B9089540E02FEF30E0F901E81BF109E1
:101CE000CF01479A469820E02817190634F4F5E00A
:101CF000FA95F1F700002F5FF7CF469A479820E05A
:101D00002817190634F435E03A95F1F700002F5FF3
:101D1000F7CF4F5F6413E5CFD9CFCF9380911503F1
:101D20009091160364E170E00E947C188091170383
:101D3000861769F060931703C9E060E588E20E94A6
:101D40005F0E60E586E90E945F0EC150B1F7A09179
:101D50001703A53198F4B0E026EF3FEF4FEF5FEFA8
:101D60000E94261824E130E040E050E00E9407186D
:101D7000255F3F4F4F4F5F4F2093F702CF9108955C
:101D80001F920F920FB60F9211248F939F93809101
:101D9000E1009091E100937F9093E10083FF0FC0F9
:101DA0001092E90091E09093EB001092EC0092E326
:101DB0009093ED0010923C0398E09093F00082FF26
:101DC00022C093E09093E9009091F200992319F0DA
:101DD0009AE39093E80090912D03992341F090911C
:101DE0002D03915090932D03911101C05D9A909114
:101DF0003B03992341F090913B03915090933B0317
:101E0000911101C0289A84FF18C08091E2008E7E53
:101E100081608093E2008091E1008F7E8093E100F9
:101E200080912E038E7E806180932E039F918F91EF
:101E30000F900FBE0F901F90189580FFF7CF8091E5
:101E4000E2008E7E80618093E2008091E1008E7ED0
:101E50008093E10080912E038E7E8160E5CF1F92FA
:101E60000F920FB60F921124CF92DF92EF92FF9252
:101E70000F931F932F933F934F935F936F937F9392
:101E80008F939F93AF93BF93EF93FF93CF93DF9382
:101E9000CDB7DEB76C97DEBFCDBF1092E900809161
:101EA000E80083FF25C068E0CE0145960E94F60752
:101EB00082EF8093E8008D8987FF39C09091E80018
:101EC00090FFFCCF982F907609F034C19E894F89FE
:101ED000588D2F89F88C911131C0803861F580912F
:101EE0002C038093F1001092F1008EEF8093E800B4
:101EF0006C960FB6F894DEBF0FBECDBFDF91CF91C9
:101F0000FF91EF91BF91AF919F918F917F916F91D1
:101F10005F914F913F912F911F910F91FF90EF9003
:101F2000DF90CF900F900FBE0F901F9018959EEFEF
:101F30009093E800C7CF1092F100D5CF913059F4BB
:101F40008111D3CF4130510581F680912C038D7FD3
:101F500080932C03CACF933049F48111C6CF41300E
:101F6000510519F680912C038260F2CF953041F42F
:101F70008091E80080FFFCCF20682093E300B5CF7C
:101F8000963009F0A9C00B8D1C8D22E01092E9005B
:101F900010922A0310922903F2122EC010922803E5
:101FA000109227030E94C5071F8299E09983FA8245
:101FB00091E09E8390EA98879AEF99872091290370
:101FC00030912A03275F3F4F3C832B838D831092F0
:101FD000E90010922A03109229031093280300931A
:101FE000270349E050E0BE016F5F7F4F80E00E9411
:101FF0009F070E94C50779CF1093280300932703FA
:102000000E94DC06DC0112960D911C910115110550
:1020100009F451C1D801ED91FC910480F581E02DC6
:10202000BE016B5E7F4FC8010995009709F03EC164
:10203000F80100851185EACFF3E0FF120EC08F8909
:10204000882309F440C0823061F440E867E08CEAFC
:102050009CE00E94AB11811148CF81E28093EB009C
:1020600047CF813029F440E86BE080EA9CE0F1CF73
:10207000833099F70E94DC06DC011296ED90FC900B
:102080008E010F5F1F4F6801E114F10479F0D70151
:10209000ED91FC910680F781E02DB801C70109950B
:1020A000080F111DF701E084F184EECFD8011C92D6
:1020B000F60101900020E9F73197BF016C197D0905
:1020C00040E0C601C6CF6AE87CE0FB01449150E0E5
:1020D00080E80E949F0709CF973009F4BECF98305F
:1020E00021F481E08093F10000CF993009F0FDCE1A
:1020F000837009F0B2CFEDE2F1E081E031E096E3E8
:102100002191222371F08093E9003093EB00DF01ED
:1021100011972C912093EC009093ED008F5F873006
:1021200079F78EE78093EA001092EA008F89809316
:102130003C03DBCE8B8D9C8D1092E90010922A031C
:10214000109229039093280380932703898D81118E
:1021500092C08E899D89913A49F4813209F07DCFF0
:1021600047E050E064E071E080E0B3CF913209F0E5
:1021700074CF833269F48F89988DB0E0A0E08093AA
:10218000000190930101A0930201B0930301ADCE31
:10219000803269F48091E80082FFFCCF67E084E040
:1021A00091E00E94F6078BEF8093E8009ECE82328A
:1021B00009F09BCE8F8980930B01EEEFFFE78591AD
:1021C00094918B3F9C4D51F1E0E0F8E08091040147
:1021D00090910501A0910601B0910701803B9440C8
:1021E000A105B105F1F480910B0180FD1AC0EE3F0D
:1021F0008AE0F80789F587E797E7918380838091E4
:10220000600080932B0388E19BE00FB6F894A895BB
:10221000809360000FBE9093600067CEEEEFFAE00F
:10222000D5CF808191818737974709F05ECEA895F9
:102230008091600088618093600080912B0380937F
:102240006000EE3F2AE0F20789F08091FE0A90914B
:10225000FF0A9183808349CE8081918187379807D7
:1022600051F29093FF0A8093FE0AC5CF1092FF0AA5
:102270001092FE0A3ACE0E94DC06DC0112960D9105
:102280001C910115110509F4E8CED801ED91FC91DE
:102290000190F081E02DBE016B5E7F4FC801099572
:1022A000811123CEF80100851185EBCF1816190690
:1022B0000CF41BCED2CEF1E0FF12BECE6EE87CE075
:1022C00004CF0F920FB68F939F93EF93FF9380915C
:1022D000C5028D5F8D3708F08D578093C502E6ECFF
:1022E000F2E080818E4F808391819F4F9183828124
:1022F0008F4F828383818F4F8383EAECF2E080816A
:102300008F5F808381818F4F818382818F4F828312
:1023100083818F4F83838FB18F6066991C9B882741
:102320008F3681F48091C402981B963068F0E0E00B
:10233000F8E087E78083818388E180936000F093F1
:102340006000FFCF9093C402FF91EF919F918F9116
:102350000FBE0F901895EF92FF920F931F93CF939C
:10236000DF93F82E192FE62E042F81E0860F880FB9
:102370000E94710783E00E947107CF2DD12FEC0ED0
:10238000FD2EF11CCE15DF05B9F007FF13C0FE01CD
:1023900084910E947107182F80E00E9471078123A9
:1023A00021968111EFCFDF91CF911F910F91FF9077
:1023B000EF9008958881EDCF81E0F5CFEDE3F7E070
:1023C0001382128288EE93E0A0E0B0E084839583CC
:1023D000A683B78387E391E0918380838FEF9FEF9C
:1023E00095878487EDE8F7E01382128289E491E013
:1023F000918380830895CDB7DEB76C97DEBFCDBFE4
:10240000789483E084BD83E085BD81E080936E0095
:10241000E1E8F0E083E08083E0E881E08083E1E9C7
:1024200083E08083E0E981E08083E1EC87E08083E2
:10243000E3EC81E08083E0EC82E08083E2EC81E009
:102440008083EAE787E080838068808310923C0382
:1024500010922C0310922E038091D70081608093FC
:10246000D70080EA8093D80089B5806189BD89B59D
:10247000826089BD09B400FEFDCF81E090E00E943A
:1024800030088091D8008F7C80618093D800809143
:10249000E000807F8093E0008091E1008E7E809359
:1024A000E1008DE08093E200559A209A81EC8093C0
:1024B0007C0081E785B987E684B985E38BB98FE332
:1024C0008AB9769A6E9880EF81BB10BA80E58CBD90
:1024D00011E01DBD85E00E94F708599A85E00E9431
:1024E000F7085C98EEEDF6E085910E940209E83E5F
:1024F000D9F75C9A81E8809364001093650080E0CE
:102500000E94850680E80E948909882391F05C98E2
:1025100085EA0E9402095C9A2E9858982D9880911D
:10252000640080628093640081E083BF889513BE5D
:10253000FCCF84E00E948909882309F443C02D98C8
:1025400084E80E9489098823D1F02D9A88EC0E94A2
:10255000F708589882E090E00E94F1178F3F29F029
:102560006FEF82E090E00E94F91784EF91E00E9403
:102570003008589A84E80E9489098111FBCF84E1D0
:102580000E9489098823D1F02D9A88EC0E94F708CF
:102590002E9882E090E00E94F117882329F060E0F5
:1025A00082E090E00E94F91784EF91E00E943008E9
:1025B0002E9A84E10E9489098111FBCF88EC0E9448
:1025C000F708B7CF2D9A82E090E00E945D0E882335
:1025D00009F452C23E9A579A81E090E00E945D0E43
:1025E000282F2470D22E81FF0CC021112E9801EFCC
:1025F0001FEF80E40E948909882309F440C22E9AC3
:10260000589A82E30E94F7080E94FA088111F9CFD4
:102610000E94470E55245394CE0101966C01DE01B1
:102620005496BE8BAD8B1C8A22ED32E083E0F9011B
:1026300090E010829F5F33969C30D9F781502F5FD6
:102640003F4F8111F4CFECEFF2E01192148211862A
:102650001686138AB3E0E130FB07B9F710921C032A
:102660001092210310921B031092F9025092F8026B
:102670001092250310922603109220031092220339
:10268000109223031092F602109224031092FA0281
:102690001092FB0210921F0310921A0310921E0355
:1026A00010921D030E948D0E6091260380912503D8
:1026B0000E94570D312C86E190E00E945D0E8A3A0F
:1026C00081F581E190E00E945D0E8093170382E125
:1026D00090E00E945D0E082F10E0102F002710934D
:1026E00016030093150383E190E00E945D0E082B12
:1026F000109316030093150384E190E00E945D0E91
:10270000082F10E0102F00271093190300931803CF
:1027100085E190E00E945D0E082B10931903009351
:1027200018030E94BC090E941E0E8093220388E0B9
:102730000E948909882309F43EC20E94470E66E977
:1027400084E10E945F0E66E984E60E945F0ECE017E
:1027500044960E94280E80E80E94AA0C68EE73E05E
:1027600080E090E00E94DF0887E38093250385E006
:102770008093260300E042E0742E57E3E52E66E0E6
:10278000F62E80911F0381113DC08091F9028111C5
:10279000FAC280E40E9489098823B9F080911C0361
:1027A000811104C062E083E00E945F0E80911C03EF
:1027B000882311F0843121F450921E037092F902A3
:1027C000843118F48F5F80931C0380E20E94890992
:1027D0008823C1F080911C03811104C062E083E072
:1027E0000E945F0E80911C03882311F0843129F42C
:1027F000BFEFB0931E037092F902843118F48F5F1B
:1028000080931C0380E40E948909811109C080E241
:102810000E948909811104C010921C030E941E0E9F
:1028200088E00E94890981110FC084E00E94890913
:1028300081110AC080911F03811106C080911A0383
:10284000811102C01092200380912003813029F56C
:102850001C8960912603809125030E94570D8C8965
:102860009091F602891708F092C28F5F8C8B0E94BC
:10287000F80C80911F030E94C30D90911A038111DF
:1028800006C0892F0E94870D882309F482C21C8B01
:10289000812F0E94F80C7092200380911A038111FD
:1028A0000DC08091F80281508093F802811106C01A
:1028B00050921D038091F7028093F80280911B03D0
:1028C000882309F473C2815080931B0380E10E9426
:1028D0008909882309F46DC280911F03811104C006
:1028E00010921E0350921C030E941E0E8091210321
:1028F000811104C050921D0310921B038091240388
:10290000863009F0AAC0109224039CEFA92E92E011
:10291000B92E10E04501612C4090FB02F40180814A
:10292000813051F48091FA02860D8C3028F441E018
:10293000642D610F0E9494096394F5E08F0E911C41
:1029400025E06212E9CF1F5F6FEFA61AB60A1530B5
:1029500009F78091180390911903A8E0A4150CF4CD
:102960002BC20296909319038093180310922603AA
:1029700010922503F60123E111922A95E9F75601F9
:102980004601212C612C412C33243394662D842D57
:102990000E946A0B811101C0312C43946CE04612F5
:1029A000F5CF332019F0D4015C92232C6394BFEF50
:1029B0008B1A9B0AE3E16E12E6CFF1E02F1609F4C1
:1029C000FDC1E0E0D5018D915D01813009F4EF5F3B
:1029D0008D899E89A816B906A9F780911503909153
:1029E00016038E0F911D9093160380931503E150EB
:1029F00080E0E43020F4F0E0E85DFE4F808120913B
:102A0000180330911903820F932F911D909319038E
:102A1000809318030E94BC0910E061E0812F0E949E
:102A20006A0B813009F488C21F5F1C30B1F77092C5
:102A30002603E09225038091230380932203CE0195
:102A400044960E94280E5092210380E80E94AA0C0E
:102A50000E948D0E80E80E94AA0C88E00E948909DD
:102A6000882309F403C280912003811104C20E94CB
:102A70001E0E50922003FFC13E985798ADCDDD2029
:102A800029F00430110511F42E9A589881E00E9423
:102A90008506602F6770C62E9801F3E0359527955F
:102AA000FA95E1F7C9019695982F8827979587950C
:102AB000835C9C4F50E040E02E3FAFEF3A0759F166
:102AC000DC01AC56BF4F7C0170E060E0FA01E25DD2
:102AD000F94F5F01F501E60FF71FE491F0E03F01C8
:102AE0000C2C02C0660C771C0A94E2F72F3F3207C9
:102AF00021F0F70194889628948ACC2019F0EC9163
:102B0000E729EC936F5F7F4F1196FFEFEF1AFF0AF3
:102B100068357105F9F62F5F3F4F80589F4F485A2F
:102B20005F4F403B510541F680E00E9485068FE0F3
:102B30000E94F7080F5F1F4F0931110509F059CDA9
:102B4000DD2011F0589A2D9880E991E00E9430081C
:102B50002D9A81E090E00E945D0E80FF52CD8AE0C8
:102B600090E00E945D0E9FEF980F9E3F08F049CDC8
:102B700022E330E03093D1022093D00228E330E00A
:102B80003093CF022093CE020BE010E0682F8DE847
:102B900097E00E940809C8010E945D0E0F5F1F4F59
:102BA0000131110599F780E00E94850688EE93E0D7
:102BB0000E94300826CD84E00E9489098111BDCD94
:102BC00080E40E948909882309F447C080E20E94BA
:102BD0008909882309F441C01EE180E40E94890923
:102BE0008823D9F180E20E9489098823B1F161E24A
:102BF00070E080E090E00E94DF0864E08CE80E94D2
:102C00005F0E115051F760E081E190E00E945B0E91
:102C100060E082E190E00E945B0E60E083E190E082
:102C20000E945B0E60E084E190E00E945B0E60E039
:102C300085E190E00E945B0E6AEA86E190E00E94E6
:102C40005B0E80E40E948909882309F434CD80E278
:102C50000E9489098111F5CF2ECD61E270E080E0FC
:102C600090E00E94DF08EDE0E31508F47BC03394A8
:102C700010E0912C812C712C612C5C9880EB810FE1
:102C80000E94020982E00E94020980E10E9402097A
:102C90005C9AF0EFFF8BB12CA12CC301885B974F9E
:102CA0009A8F898FD401A654B94FBC8FAB8F4A2C11
:102CB000B0E8AB16B10409F45BC0E98DFA8DEA0DFA
:102CC000FB1D84919F899E51E0E0943228F4EB8DA6
:102CD000FC8DEA0DFB1DE4918E2B888FE7E0212C03
:102CE000E315B8F428E2E22E28E0F22E00E0212FCE
:102CF000442D6CE181E30E94DF09282E38E0E32EA9
:102D000038E0F32E212F442D64E281E30E94DF0995
:102D1000282AF88D2F2A612F842D0E94B30A282A91
:102D20002F892D3008F51230F8F4612F842D0E9480
:102D30007D0A282A612F842D0E94B30A282A8F89B0
:102D40008D558A3098F4153089F4842D0E94550AE7
:102D500082290E9402096FEFA61AB60A8F898F5F37
:102D60008F8BA5CF312C84CF80E0E3CF80E0F0CFF4
:102D70001F5F90E8690E711CA4E28A0E911C183046
:102D800009F07BCFD0CC81508093F9023BCD80E01D
:102D90006DCD65E083E00E945F0E6AE08AE00E94EC
:102DA0005F0E65E083E00E945F0E75CD8091F702B3
:102DB0008BCD10922103A2CD0196D4CDB60181E036
:102DC0000E94FF0D82E50E94AA0C6AE070E080E09C
:102DD00090E00E94DF08B60180E00E94FF0D82E5CE
:102DE0000E94AA0C6AE070E080E090E00E94DF0898
:102DF000115021F761E0812F0E945F0E1E5F1C3F82
:102E0000C9F782E1982EF601E90DF11D808181302C
:102E100081F41FEF190D911001C010E0F601E10FD0
:102E2000F11D8081812C813041F41123B9F31150BF
:102E3000F5CF992059F39A94E6CF80E0112321F041
:102E4000612F882D0E946A0B482F692D882D0E94C2
:102E5000940983942CE08212F0CF992009F4BEC02B
:102E60009A94111111509110D9CFABCD84E00E94EA
:102E700089098111F8CD10912603B0902503612FA7
:102E80008B2D0E94570D80911F03811107C08091E7
:102E90001E030E94C30D811110921E0380911E0318
:102EA0008130E9F5B394B0922503B0902503612FEA
:102EB0008B2D0E94570D80911F03811102C010922B
:102EC0001E0380911D030E94870D882361F11092DB
:102ED0001D0310921C0310922003F092240382E53C
:102EE0000E94AA0C80911B03811107C080911D03D1
:102EF0008F3FE1F4115010932603609126038B2D30
:102F00000E94570D80911A03811102C010921D0377
:102F1000043081F482E50E94AA0C00E032CC8F3F9D
:102F200021F6BA94C0CF10922403DCCF813029F768
:102F30001F5FE1CF0F5F25CC80E80E94AA0C14E64A
:102F400066E0812F880F0E945F0E6CE0812F0E9447
:102F50005F0E11501A30A1F760ED77E080E090E04D
:102F60000E94DF0884E190E00E945D0E182F85E149
:102F700090E00E945D0E912F20911803309119036B
:102F80008217930738F086E190E00E945D0E8A3A3E
:102F900009F449CB6091170381E190E00E945B0E38
:102FA0006091160382E190E00E945B0E6091150330
:102FB00083E190E00E945B0E6091190384E190E050
:102FC0000E945B0E6091180385E190E00E945B0E09
:102FD0006AEA86E190E00E945B0E25CB111142CF98
:102FE000F0CCF999FECF92BD81BDF89A992780B5B2
:102FF0000895262FF999FECF1FBA92BD81BD20BD3D
:103000000FB6F894FA9AF99A0FBE01960895052E14
:1030100097FB1EF400940E941E1857FD07D00E94D3
:10302000311807FC03D04EF40C941E1850954095AF
:10303000309521953F4F4F4F5F4F08959095809564
:10304000709561957F4F8F4F9F4F08950E94531841
:10305000A59F900DB49F900DA49F800D911D1124EC
:103060000895A1E21A2EAA1BBB1BFD010DC0AA1FC9
:10307000BB1FEE1FFF1FA217B307E407F50720F0E1
:10308000A21BB30BE40BF50B661F771F881F991F5C
:103090001A9469F760957095809590959B01AC01A5
:1030A000BD01CF010895A29FB001B39FC001A39FAE
:1030B000700D811D1124911DB29F700D811D112471
:1030C000911D0895991B79E004C0991F961708F087
:1030D000961B881F7A95C9F78095089587FB082E5F
:1030E000062687FD819567FD61950E9462180EF4A2
:1030F000919507FC81950895AA1BBB1B51E107C060
:10310000AA1FBB1FA617B70710F0A61BB70B881F77
:10311000991F5A95A9F780959095BC01CD01089506
:10312000EE0FFF1F0590F491E02D0994F894FFCF66
:10313000FFFFFFFF00E100000000000001FF0000B2
:10314000010001000100010100020004030706095B
:10315000090C0B0F0E1111130205080C00C1808120
:1031600000000000000000F00644081107060757A1
:1031700007150733070000000008090308580E5719
:023180000E003F
:00000001FF
