:100000000C942E0E0C94560E0C94560E0C94560E08
:100010000C94560E0C94560E0C94560E0C94560ED0
:100020000C94560E0C94560E0C94E7160C9456171E
:100030000C94560E0C94560E0C94560E0C94560EB0
:100040000C94560E0C94991A0C94560E0C94560E51
:100050000C94560E0C94560E0C94560E0C94881953
:100060000C94560E0C94560E0C94560E0C94560E80
:100070000C94560E0C94560E0C94560E0C94560E70
:100080000C94D2190C94560E0C94560E0C94560ED9
:100090000C94560E0C94560E0C94560E0C94560E50
:1000A0000C94560E0C94560E0C94560E0000000044
:1000B000003E5B4F5B3E3E6B4F6B3E1C3E7C3E1CEE
:1000C000183C7E3C181C577D571C1C5E7F5E1C0034
:1000D000183C1800FFE7C3E7FF0018241800FFE7EB
:1000E000DBE7FF30483A060E2629792926407F05AE
:1000F0000507407F05253F5A3CE73C5A7F3E1C1CC4
:1001000008081C1C3E7F14227F22145F5F005F5F83
:1001100006097F017F006689956A6060606060946F
:10012000A2FFA29408047E040810207E2010080874
:100130002A1C08081C2A08081E101010100C1E0C7F
:100140001E0C30383E3830060E3E0E060000000011
:100150000000005F00000007000700147F147F14F8
:10016000242A7F2A1223130864623649562050003D
:1001700008070300001C2241000041221C002A1C29
:100180007F1C2A08083E0808008070300008080814
:100190000808000060600020100804023E51494534
:1001A0003E00427F400072494949462141494D3352
:1001B0001814127F1027454545393C4A49493141B9
:1001C000211109073649494936464949291E000087
:1001D00014000000403400000008142241141414DC
:1001E0001414004122140802015909063E415D59C8
:1001F0004E7C1211127C7F494949363E41414122D1
:100200007F4141413E7F494949417F090909013EFA
:10021000414151737F0808087F00417F4100204021
:10022000413F017F081422417F404040407F021C33
:10023000027F7F0408107F3E4141413E7F0909094A
:10024000063E4151215E7F09192946264949493216
:1002500003017F01033F4040403F1F2040201F3FDC
:100260004038403F63140814630304780403615961
:10027000494D43007F4141410204081020004141A3
:10028000417F04020102044040404040000307084F
:100290000020545478407F2844443838444444284B
:1002A000384444287F385454541800087E090218F2
:1002B000A4A49C787F0804047800447D400020407A
:1002C000403D007F1028440000417F40007C0478BE
:1002D00004787C080404783844444438FC18242406
:1002E0001818242418FC7C08040408485454542486
:1002F00004043F44243C4040207C1C2040201C3C03
:100300004030403C44281028444C9090907C4464F9
:10031000544C44000836410000007700000041368C
:10032000080002010204023C2623263C1EA1A16112
:10033000123A4040207A3854545559215555794144
:100340002154547841215554784020545579400C1B
:100350001E527212395555555939545454593955FC
:100360005454580000457C410002457D420001453F
:100370007C40F0292429F0F0282528F07C545545AC
:10038000002054547C547C0A097F4932494949323F
:100390003248484832324A4848303A4141217A3A54
:1003A00042402078009DA0A07D39444444393D401E
:1003B00040403D3C24FF2424487E4943662B2FFCCB
:1003C0002F2BFF0929F620C0887E09032054547979
:1003D000410000447D413048484A32384040227A4A
:1003E000007A0A0A727D0D19317D2629292F2826C7
:1003F0002929292630484D402038080808080808CF
:100400000808382F10C8ACBA2F102834FA00007B27
:10041000000008142A142222142A1408950022002D
:1004200095AA005500AAAA55AA55AA000000FF00E7
:10043000101010FF00141414FF001010FF00FF1024
:1004400010F010F0141414FC001414F700FF000056
:10045000FF00FF1414F404FC141417101F10101FD5
:10046000101F1414141F00101010F0000000001FC3
:10047000101010101F10101010F010000000FF10CE
:100480001010101010101010FF10000000FF1400CA
:1004900000FF00FF00001F10170000FC04F41414FC
:1004A0001710171414F404F40000FF00F7141414C8
:1004B00014141414F700F7141414171410101F1048
:1004C0001F141414F4141010F010F000001F101F6B
:1004D0000000001F14000000FC140000F010F010D9
:1004E00010FF10FF141414FF141010101F00000050
:1004F00000F010FFFFFFFFFFF0F0F0F0F0FFFFFF54
:100500000000000000FFFF0F0F0F0F0F38444438AA
:10051000447C2A2A3E147E02020606027E027E02E5
:1005200063554941633844443C04407E201E200604
:10053000027E020299A5E7A5991C2A492A1C4C7241
:1005400001724C304A4D4D303048784830BC625AC8
:10055000463D3E494949007E0101017E2A2A2A2A58
:100560002A44445F444440514A444040444A514034
:100570000000FF0103E080FF000008086B6B0836F5
:1005800012362436060F090F060000181800000066
:100590001010003040FF0101001F01011E00191D55
:1005A0001712003C3C3C3C00000000000601150115
:1005B000260137014A015D01720188019F01B801DE
:1005C000D201EE010B022A024B026E029302BA0222
:1005D000E40210033F037003A403DC031704550473
:1005E0009704DD0427057505C80520067D06E0068D
:1005F0004907B8072D08A9082D09B9094D0AEA0AC3
:10060000900B400CFA0CC00D910E6F0F5A10531145
:100610005B1272139A14D41520178018F519801BD9
:10062000231DDE1EB420A622B524E4263429A72BE0
:10063000402E0031EA330037453ABC3D68414C4515
:100640006B49C84D68524F57805C006210111213FD
:10065000151617181A1C1D1F21232527292C2E318A
:1006600034373A3E4145494E52575C62686E757B5D
:10067000838B939CA5AFB9C4D0DCE9F700000002DE
:1006800000090F0000030401000C0000000000003E
:100690000000000000000000000000F0F89C8E87C1
:1006A00083878E9CF8F00000FEFF0303030303071B
:1006B0000EFCF80000FEFF0303030303070EFCF823
:1006C0000000FFFF00000000000000FFFF0000FE30
:1006D000FF8383838383C7EE7C380000F8FC0E071A
:1006E000030303070EFCF800003F7FE0C08080C0DA
:1006F000E07F3FFFFF01010101010101FFFF000059
:10070000FFFF0C0C0C0C1C3E77E3C100007FFFC008
:10071000C0C0C0C0E0703F1F00001F3F70E0C0C0FD
:10072000C0E0703F1F00007FFFC1C1C1C1C1E377BE
:100730003E1C00001F3F70E0C0C0C0E0703F1F00C3
:100740000000000001FFFF01000000000000002485
:100750000027002A002D0030008D14A1C881CFD9B8
:10076000F102AF140213021202150207020802047A
:10077000010101020100000000808000708804C4B3
:1007800084C48201E21C00000000000000000000A0
:1007900006091516EA19C9D5BC0B325191122B2A3C
:1007A0002414080000000000000000000000000108
:1007B0001E22555340504C33000000000000000042
:1007C0000000000000000000000000000000000029
:1007D0000000000000000000000000000000000019
:1007E000000000000070F83878387CFE1C00000023
:1007F000000000000000000000060A0905E6362A95
:1008000043F4CD8E0E0D14141808000000000000F3
:100810000000000000000000011D2A2C3F2F3300C3
:1008200000000000000000000000000000000000C8
:1008300000000000000000000000000000000000B8
:1008400000000000000000708804C484C48201E23B
:100850001C0000000000000000000000000000007C
:10086000001CE31423AA8901AE49300000000000F7
:10087000000000000000000000000C12090A011E28
:10088000000B080718000000000000000000000036
:100890000000000000000000000000000000000058
:1008A0000000000000000000000000000000000048
:1008B00070F83878387CFE1C000000000000000052
:1008C000000000000000000000001CEBDC5576FE7C
:1008D0005130000000000000000000000000000097
:1008E0000000000C16151E011F1417180000000050
:1008F00000000000000000000000000000000000F8
:1009000000000000000000000000000000000000E7
:1009100000000000000000000000000000000000D7
:1009200000000000000000000000000000000000C7
:1009300000000000000000000000000000000000B7
:100940000000000000004040404040404040444023
:100950004040404040404440404040404040404093
:100960004040404040404040404040404040404087
:10097000000000000000FF1FDFDFDFDFDFDFDFDF61
:10098000DFDFDFDF1FFF1FDFDFDFDFDFDFDFDFDFD7
:10099000DFDFDF00FFFF7F7F7F7F7F7F7FFF00FF45
:1009A000FF0000000000FFE0EEEEEEEEEEEEEEEEF9
:1009B000EEEEEEEEE0FFE0EEEEEEEEEEEEEEEEEE62
:1009C000EEEEEE00FFFF80B7B7B7B7B780FF00FFCE
:1009D000FF000000000004040404040404040404F0
:1009E00004040404040404040404040404040404C7
:1009F00004040400FFFFFFFFFFFFFFFFFFFF0004F1
:100A000004000000000080C0F0700008080808081A
:100A100008080808080808080070F0C08080C0F0C6
:100A200070003030373737373737373737371000C0
:100A300000000000000000000000000000000000B6
:100A40008088D0E0808080808080808080404040AE
:100A50004040404060200000000000000000000016
:100A6000000000000000BCBCBCBCBCBCBEBEB9BD2C
:100A7000BCBCBCBCBFBEB8BCBFB8BCBCBCBCBCBCB6
:100A8000BCBCBCBCBCBCBCBCBCBCBCBCBCBCBCBCA6
:100A9000FCF80000000000E0202020202020202082
:100AA00020202020E000E0202020202020202020E6
:100AB000202020FF00008080808080808000FF0058
:100AC00000FF00000000001F111111111111111180
:100AD000111111111F001F111111111111111111FB
:100AE000111111FF00007F48484848487F00FF006F
:100AF00000FFE0000080FBFBFBFBFBFBFBFBFBFBC9
:100B0000FBFBFBFBFBFBFBFBFBFBFBFBFBFBFBFB35
:100B1000FBFBFBFF00000000000000000000FFFBEB
:100B2000FBFF3F1F061F7F3F0F8F7F37777777775A
:100B300077777777777777377F8F0F3F7F7F3F0F95
:100B40008F7F4F4F484848484848484848486F7F3B
:100B50003F1F000000000000000000000000000037
:100B60000000000000000000000000000000000085
:100B70000000000000000000000000000000000075
:100B800000000000000040404040404040404040E5
:100B90004040404040404040404040404040404055
:100BA0004040404040404040404040404040404045
:100BB0004040404040401FDFDFDFDFDFDFDFDFDFBF
:100BC000DFDF1FFF1FDFDFDFDFDFDFDFDFDFDFDF95
:100BD000DFDFDFDFDFDF1FFF1FDFDFDFDFDFDFDF85
:100BE000DFDFDFDFDF1FE0EEEEEEEEEEEEEEEEEE4D
:100BF000EEEEE0FFE0EEEEEEEEEEEEEEEEEEEEEE20
:100C0000EEEEEEEEEEEEE0FFE0EEEEEEEEEEEEEE0F
:100C1000EEEEEEEEEEE00404040404040404040426
:100C20000404040404040404040404040404040484
:100C30000404040404040404040404040404040474
:100C400004040404040480C0F070000000000010DC
:100C50001010101010101010101010101010101094
:100C600010101010101010101010101010000000B4
:100C7000000070F0C08000000000000000000000D4
:100C80000000000000000000000000000000000064
:100C90000000000000000000000000000000000054
:100CA000000000000000BCBCBCBCBCBCBCBCBCBCEC
:100CB000BCBCBCBCBCBCBCBCBCBCBCBCBCBCBCBC74
:100CC000BCBCBCBCBCBCBCBCBCBCBCBCBCBCBCBC64
:100CD000BCBCBCBCBCBCE0202020202020202020AC
:100CE0002020E000E02020202020202020202020A4
:100CF000202020202020E000E02020202020202094
:100D00002020202020E01F111111111111111111AB
:100D100011111F001F1111111111111111111111B8
:100D20001111111111111F001F11111111111111A8
:100D300011111111111FFBFBFBFBFBFBFBFBFBFB71
:100D4000FBFBFBFBFBFBFBFBFBFBFBFBFBFBFBFBF3
:100D5000FBFBFBFBFBFBFBFBFBFBFBFBFBFBFBFBE3
:100D6000FBFBFBFBFBFB7F3F0F8F7F3F7F7F7F6F9B
:100D70006F6F6F6F6F6F6F6F6F6F6F6F6F6F6F6F83
:100D80006F6F6F6F6F6F6F6F6F6F6F6F6F7F7F7F43
:100D90003F7F8F0F3F7F0000000000000000000039
:100DA0000000000000000000000000000000000043
:100DB0000000000000000000000000000000000033
:100DC0000000000000000000000000004040404023
:100DD0004040404040404040404040404040404013
:100DE0004040404040404040404040404040404003
:100DF0004040404040400000000000FFFF00FF7FF7
:100E00007F7F7F7F7F7FFFFF00DFDFDFDFDFDFDFD1
:100E1000DFDFDFDFDF1FFF1FDFDFDFDFDFDFDFDF42
:100E2000DFDFDFDF1FFF0000000000FFFF00FF80AB
:100E3000B7B7B7B7B780FFFF00EEEEEEEEEEEEEE1F
:100E4000EEEEEEEEEEE0FFE0EEEEEEEEEEEEEEEECD
:100E5000EEEEEEEEE0FF0000000000040400FFFFF5
:100E6000FFFFFFFFFFFFFFFF00040404040404046E
:100E70000404040404040404040404040404040432
:100E800004040404040400000000000000103737CC
:100E9000373737373737373730300070F0C080801A
:100EA000C0F07000080808080808080808080808C2
:100EB000080070F0C080000000000000000000008A
:100EC0000000000000000000000000000000000022
:100ED0000000000000000000000000000000000012
:100EE00000000000000000000000F8FCBCBCBCBC1E
:100EF000BCBCBCBCBCBCBCBCBCBCBCBCBCBCBCBC32
:100F0000BCBCBCBCBCBCBCBCBCBCBCBCBCBCBCBC21
:100F1000BCBCBCBCBCBC00000000FF0000FF0080EB
:100F20008080808080800000FF20202020202020E2
:100F30002020202020E000E0202020202020202051
:100F400020202020E000800000E0FF0000FF007F64
:100F500048484848487F0000FF1111111111111134
:100F600011111111111F001F111111111111111166
:100F7000111111111F001F061F3FFFFBFBFF000097
:100F80000000000000000000FFFBFBFBFBFBFBFB85
:100F9000FBFBFBFBFBFBFBFBFBFBFBFBFBFBFBFBA1
:100FA000FBFBFBFBFBFB000000001F3F7F6F484883
:100FB00048484848484848484F4F7F8F0F3F7F7FF9
:100FC0003F0F8F7F37777777777777777777777771
:100FD000377F8F0F3F7F00000000000000000000FF
:100FE0000000000000000000000000000000000001
:100FF00000000000000000000000000000000000F1
:10100000000000000000404040404040404440405C
:1010100040404040404440404040404040404040CC
:101020004040404040404040404040404040400000
:10103000000000000000DFDFDFDFDFDFDFDFDF1FBA
:10104000FF1FDFDFDFDFDFDFDFDFDFDFDFDF1FFFF0
:10105000FFFF00FFFF7F7F7F7F7F7F7FFF00FFFF1E
:10106000000000000000EEEEEEEEEEEEEEEEEEE042
:10107000FFE0EEEEEEEEEEEEEEEEEEEEEEEEE0FF8A
:10108000FFFF00FFFF80B7B7B7B7B780FF00FFFFD4
:101090000000000000000404040404040404040428
:1010A0000404040404040404040404040404040400
:1010B000040400FFFFFFFFFFFFFFFFFFFF0004042A
:1010C000000000000000C0F07000080808080808D0
:1010D000080808080808080070F0C08080C0F07098
:1010E000003030373737373737373737371000006A
:1010F0000000000000000000000000000000008070
:1011000088D0E08080808080808080804040404027
:10111000404040602000000000000000000000008F
:10112000000000000000BCBCBCBCBCBEBEB9BDBC65
:10113000BCBCBCBFBEB8BCBFB8BCBCBCBCBCBCBCEF
:10114000BCBCBCBCBCBCBCBCBCBCBCBCBCBCBCFC9F
:10115000F80000000000202020202020202020E097
:1011600000E0202020202020202020202020E0003F
:101170000000FF00008080808080808000FF0000F1
:10118000FF00000000001111111111111111111FA8
:10119000001F1111111111111111111111111F0045
:1011A0000000FF00007F48484848487F00FF0000DB
:1011B000FFE000008000FBFBFBFBFBFBFBFBFBFB02
:1011C000FBFBFBFBFBFBFBFBFBFBFBFBFBFBFBFB6F
:1011D000FBFBFF00000000000000000000FFFBFB25
:1011E000FF3F1F061F003F0F8F7F37777777777797
:1011F000777777777777377F8F0F3F7F7F3F0F8FB7
:101200007F4F4F484848484848484848486F7F3FC4
:101210001F000000000000000000000000000000AF
:1012200000000000000000000000000000000000BE
:1012300000000000000000000000000000000000AE
:10124000000000000000404040404040404040401E
:10125000404040404040404040404040404040408E
:10126000404040404040404040404040404040407E
:10127000404040404040DFDFDFDFDFDFDFDFDFDF38
:10128000DFDF1FFF1FDFDFDFDFDFDFDFDFDFDFDFCE
:10129000DF1FFF1FDFDFDFDFDFDFDFDFDFDFDFDFBE
:1012A0001FFF1FDFDFDFEEEEEEEEEEEEEEEEEEEE18
:1012B000EEEEE0FFE0EEEEEEEEEEEEEEEEEEEEEE59
:1012C000EEE0FFE0EEEEEEEEEEEEEEEEEEEEEEEE49
:1012D000E0FFE0EEEEEE040404040404040404045D
:1012E00004040404040404040404040404040404BE
:1012F00004040404040404040404040404040404AE
:101300000404040404040808080808080808080875
:101310000070F0C08080C0F070000000000010106D
:1013200010101010101010101010101000000000FD
:101330000070F0C08080000000000000000000008D
:10134000000000000000000000000000000000009D
:10135000000000000000000000000000000000008D
:10136000000000000000BCBCBCBCBCBCBCBCBCBC25
:10137000BCBCBCBCBCBCBCBCBCBCBCBCBCBCBCBCAD
:10138000BCBCBCBCBCBCBCBCBCBCBCBCBCBCBCBC9D
:10139000BCBCBCBCBCBC20202020202020202020A5
:1013A0002020E000E02020202020202020202020DD
:1013B00020E000E0202020202020202020202020CD
:1013C000E000E02020201111111111111111111153
:1013D00011111F001F1111111111111111111111F2
:1013E000111F001F111111111111111111111111E2
:1013F0001F001F111111FBFBFBFBFBFBFBFBFBFBAE
:10140000FBFBFBFBFBFBFBFBFBFBFBFBFBFBFBFB2C
:10141000FBFBFBFBFBFBFBFBFBFBFBFBFBFBFBFB1C
:10142000FBFBFBFBFBFB7777777777777777773774
:101430007F8F0F3F7F7F3F0F8F7F3F7F7F7F6F6F5C
:101440006F6F6F6F6F6F6F6F6F6F6F6F7F7F7F7F6C
:101450007F8F0F3F7F7F0000000000000000000032
:10146000000000000000000000000000000000007C
:10147000000000000000000000000000000000006C
:10148000000000000000000000000000000000005C
:10149000000000000000000000000000000000004C
:1014A000004040404040404040404040404040407C
:1014B00040404040404000000000000000000000AC
:1014C0000000000000008080C0C0E0E0E0E0E0F04C
:1014D00000F0F8FF7FBFBFBFBFBFBF7FFFFFFFFFB1
:1014E00000FFFFFFFF1F0080E0F8FCFEFEFEFEFE97
:1014F000FEFFFFFFFFFFFFFFFFFFFFFFFFFFFFFFFD
:1015000000FFFF00FFF3EDEDEDEDF3FF00FFFFFF48
:1015100000FFFFFFFFE0007FFFFFFFFFFFFFFFF780
:10152000F7F7F7F7F3F3FFFFFFFFFF7F7F7FFFFF83
:1015300000FFFF003F1F1F1F1F1F1F3F001F8FC700
:101540006031180C040400000000010101010101D8
:10155000010101010101010101010100000001413E
:101560002013070404040404040070F4C48381C03D
:10157000F0700008080800000000000000000000F3
:10158000000000000000000000000000000000005B
:10159000000000000000000000000000000000004B
:1015A000000000000000000000000000000000003B
:1015B0000000000000008080C0C0E0E0F0F0F0F02B
:1015C000F838B8BCBCBCBCBCBCBCBCBCBCBCBCBCA7
:1015D000BCBCBCBCBCBC00000000000080C0E0F093
:1015E000F8FCFEFEFFFF7F7F3F3F1F1F1F1F1F0FE7
:1015F000F708070080404040404040800000000065
:10160000FF00000000E080601804020101010101F8
:1016100001000000000000000000000000000000C9
:10162000FF0000FF000C121212120C00FF0000005D
:10163000FF000000001F7F80000000000000000885
:10164000080808080C0C00000000008080800000E2
:10165000FF0000FFC0E0E0E0E0E0E0C0FFE0703845
:101660009FCEE7F3FBFB0000010102C2E2F2FAFEAB
:10167000FEFEFEFEFEFEFEFEFEFEFEFFFFFFFEBEC7
:10168000DFECF8FB7B3B1B0B0B7F8F0B3B7C7E3F28
:101690000F8F7F377777DFEFC7B35F7F5F9FA7D766
:1016A000EFF7EFEFEFE7D3DFDFDFEFD3DFAFBFBF62
:1016B000BFDFBBC7EFDFEFDFE7DFE3F7EFDFEFC74A
:1016C000B35F7F5F9FA7B7B7B7B7B7B73797A7879E
:1016D000A787A79737B7B7B7B7B7B7B7B7B7B7B78A
:1016E000B7B7B7B7B7B7B7B7B73797A787A787A7BA
:1016F0009737B7B7B7B7F4FBF7F7F7F4F8FBFBFB8F
:10170000FDFBF5E9E0D7DFD7ECF1FBF7FBFDF8F7E0
:10171000F9F7FBF7FBF1EEF7EFE8EBEBF3F0FBF398
:10172000F3F0F4F9FBFB0F0F0F0F0F0F0F0F0F0F5D
:101730000F0F0F0F0F0F0F0F0F0F0F0F0F0F0F0FB9
:101740000F0F0F0F0F0F0F0F0F0F0F0F0F0F0F0FA9
:101750000F0F0F0F0F0F20202020202020436F6D30
:10176000706C6574650A0A416C6C20686967682052
:1017700073636F726520646174610A7761732065B9
:1017800072617365642E2E2E0020202020202020E0
:10179000436F6E74726F6C730A0A20202020204100
:1017A0003A204A756D70206F66660A5570202B20AE
:1017B000423A2044656C6574652064617461002060
:1017C00020202020496E737472756374696F6E7384
:1017D0000A0A41766F6964207468652074726169D1
:1017E0006E21205468650A636C6F7365722069749A
:1017F000206765747320746F20796F752C0A746884
:1018000065206D6F726520706F696E747320796FDB
:10181000750A77696C6C207261636B2075702100AA
:1018200000F884722A7284F8000004F87020000026
:101830000001020505050201000001000000000092
:101840000000000000000000000000000000000098
:101850000000000000000000000000000000000088
:101860000000000000000000000000000000000078
:10187000F0E080000000003EFEFCC000000000F828
:10188000F8F8F0E0C08000F0F0F000000000000088
:101890000000000000000000000000000000000048
:1018A000071F3FBE380000001F3F3F00000000013F
:1018B0007F7F3F03070F3F7F7F7F00000000000016
:1018C0000000000000000000000000000000000018
:1018D000FCF8F0000000C0F0F8783C1C1C9C9CBC9C
:1018E000F8B800000000FCFCFCCCCCECECECEC0C00
:1018F00000000000000000000000000000000000E8
:101900007F3F070000003F3F7F707071733B3B3F9C
:101910001F0F000000081F1F1F1C1C1C0C0C0C0CB0
:1019200000000000000000000000000000000000B7
:1019300000000000000000000000000000000000A7
:101940000000000000000000000000000000000097
:101950000000000000000000000000000000000087
:10196000C0A040A040A0E040800018383838387847
:10197000F8F8F8707060000000E0E0E0E0E0E0E01F
:10198000C0C08000000000000000808080000000D7
:101990000005050005000505000500050004000020
:1019A000031FFFFEF000000000010FFFFFF8F1F140
:1019B000F1F3FFFFFE00000000E0FFFFFF1F7EFCD1
:1019C000898000818988018889018801AA00AA018B
:1019D0008800811F9F1E8000880080001F7F9F005D
:1019E0008001070F3FBE3C00183FBF3F07070707B6
:1019F00048D890D85888509888100000F8F8F8789F
:101A00007878F8F8F0C0000000C0E0F0F8783838D6
:101A100078F8F8F0C000080000F8FCFC1C3C3C7CA6
:101A200035AB17AA950AB7150200F0FFFF1F00009B
:101A300000C0F8FF7F0700E0FEFFFF03000080C04A
:101A4000E0F87F3F070000E0FFFFDFC0C0E0F0F8F4
:101A500001020102030100003C3F3F3F3C1C1E1EEF
:101A60000F07030100000000070707070707070328
:101A70000101000000000003030101010101000059
:101A80000000000000000000000000000000000056
:101A900000000000000080808080C0C0C0E0E0E066
:101AA000E0E0E0C0E0E0E0C0A0E040E0A0E0C06036
:101AB00000000000000000000080C0E0F0F0D8F856
:101AC000ECECF6F6F3FBF9EDF57FBF413D050505BE
:101AD00005050505050405050505AD000505040515
:101AE0000000C02010080C0E0F0F0F070707070794
:101AF00003030101000000000000FF0000F8046281
:101B000092929292620478000000AA0000000055B0
:101B1000FC030000000000000040404040406060C6
:101B200000000000000000000000FF0000FF0000B7
:101B3000000000000000FF008040AA70301888D02C
:101B40000304080810101090D0F0F0F0F0F0F0F05E
:101B5000F0F0F0F0F0FCFCFCF0F0FF60C0DFDEDF46
:101B6000DF5F57FF6F5EDD47F3D97C6CD62B949B0C
:101B70000000000000060707070707070707070719
:101B800007070707070707070705060707070301F2
:101B9000000000030408090B0B08080402010203FB
:101BA000080B00020202000009040000010202000A
:101BB000000524001001052401010104240206058A
:101BC00024060001070581031000400904010002FA
:101BD0000A000000070502024000000705830240DA
:101BE00000000403090412010002EF020140412336
:101BF000368000010102030141726475696E6F2035
:101C00004C4C43004142413131303600040802015E
:101C10001040804010204080408008020401804035
:101C200020100201108010204040200000000025FC
:101C30000028002B002E00310004040404040304D7
:101C4000050202020204030202020206060606065A
:101C500006040402020204040301041B11241FBE33
:101C6000CFEFDAE0DEBFCDBF11E0A0E0B1E0E4E30A
:101C7000FDE402C005900D92AC38B107D9F726E01B
:101C8000ACE8B1E001C01D92A036B207E1F71EE05A
:101C9000CEE2DEE004C02197FE010E94A623CD32F1
:101CA000D107C9F70E94371B0C9498260C940000AA
:101CB0002F923F924F925F926F927F928F929F925C
:101CC000AF92BF92CF92DF92EF92FF920F931F934A
:101CD000CF93DF93CDB7DEB72B970FB6F894DEBF67
:101CE0000FBECDBFEB86422E512C9201280F391F1B
:101CF00037FDC4C0803891050CF0C0C09B01200F97
:101D0000311D37FDBBC0603471050CF0B7C09B01BD
:101D100077FF04C022273327261B370B2770332772
:101D2000DB0177FD1796E3E0B595A795EA95E1F716
:101D300077FF07C0119768E070E07B01E21AF30AB1
:101D40009701602E669466946694712C077019F062
:101D50000FEF601A700ABA01FD01F695FE2FEE270B
:101D6000F795E795E80FF91FAD01D12CC12C8F0134
:101D70000A5B1D4F1C830B838F010A531D4F1E836B
:101D80000D83E8E0F0E01F01221A330A4F3F1FEFF6
:101D900051070CF462C00B811C810C0D1D1DED80E0
:101DA000FE80EC0CFD1CFA82E9824C0118861F8231
:101DB00097FC3FC04F3F540709F496C0AF80B884EA
:101DC000A60EB71EF801F488FB85F13009F06FC04C
:101DD000F501A490EA2D022E01C0EE0F0A94EAF755
:101DE000FE2AF801F48A2115310519F14730510511
:101DF00001F1EF80F884E60EF71EFA86E986A980E5
:101E0000BA80EF80F884AE0CBF1CF501F488FB8526
:101E1000F13009F05AC0E985FA85E490EE2DF0E042
:101E2000022C02C0F595E7950A94E2F7FE2AF50127
:101E3000F48AEF81F8853196F887EF83FFEF8F1AE8
:101E40009F0A0F5F1F4FEF80F884E414F5042CF411
:101E5000E0E88E16910409F0ABCF4F5F5F4F640D41
:101E6000751D00E8C00ED11CFA01EA1BFB0BE6153C
:101E7000F70524F44830510509F088CF2B960FB6AA
:101E8000F894DEBF0FBECDBFDF91CF911F910F91B0
:101E9000FF90EF90DF90CF90BF90AF909F908F908A
:101EA0007F906F905F904F903F902F900895F50135
:101EB000A490EA2DF0E0022E02C0EE0FFF1F0A945C
:101EC000E2F7E095F095FE228CCFE985FA85E49063
:101ED000EE2DF0E0022C02C0F595E7950A94E2F7AA
:101EE000E095F095FE22A3CF2115310509F081CFB1
:101EF000A0CF90E0EAE5F2E091119FEF8FEF919390
:101F00009193919391938150D0F70895E1E0F0E09F
:101F10000E949B0F319728F068517C4F8F4F9F4F45
:101F2000F9CFAB01FC010E949B0F641775078E0768
:101F30009F07C8F30895A3EAB1E02FB7F8947D9105
:101F40008D919C9166B52FBFA89B05C06F3F18F47B
:101F50007F5F8F4F9F4F22E0660F771F881F991F6B
:101F60002A95D1F70895FC018091EC01882311F1A5
:101F70003FB7F89482E08093E9002091F200822F2D
:101F800090E01816190614F481E090E0882339F0E7
:101F9000289844E64093EB014091F10040832223CE
:101FA00039F02091F200211103C02BE62093E800C4
:101FB0003FBF08958FEF9FEF08952FB7F89483E008
:101FC0008093E9009091E800892F807295FF04C00A
:101FD0009091F20080E4891B2FBF08958091E30166
:101FE00081110DC082E08093DF0184E08093E001E5
:101FF0001092E2011092E10181E08093E3018FED04
:1020000091E008958F929F92AF92BF92CF92DF920C
:10201000EF92FF920F931F93CF93DF936C017B019D
:102020008A0180911201882309F458C08091EC0143
:10203000882309F453C08091DE0180FF05C08091A0
:10204000E00082608093E000E801B12C8AEFA82EC6
:1020500093E0892E2AE3922E209711F4BB20B9F148
:102060000E94DD0F811106C0AA94AA20B9F10E9436
:10207000860FF2CF8C171D0611F00CF08C2F9FB736
:10208000F8948092E9002091E80025FD02C09FBFEE
:10209000E3CF282F30E0C21BD30BF701815020F093
:1020A00041914093F100FACFE20EF31EBB2021F0E4
:1020B0009092E800B12CEBCF8091E80085FDE7CF4E
:1020C0009092E800BB24B394209709F3F3CF5D9876
:1020D00084E68093DD01101611063CF081E090E06B
:1020E000F6019383828310E000E0C801DF91CF9175
:1020F0001F910F91FF90EF90DF90CF90BF90AF9026
:102100009F908F900895CF93DF931F92CDB7DEB746
:102110006983DC01ED91FC910280F381E02D41E0C7
:1021200050E0BE016F5F7F4F09950F90DF91CF9117
:10213000089583E08093E9008091F200882319F0EC
:102140008AE38093E80008950E94DD0F90E00895EF
:10215000CF93DF931F92CDB7DEB7FC0184859585C1
:1021600097FD08C02FEF3FEF358724870F90DF9151
:10217000CF910895CE0101960E94B30F019719F4F3
:10218000898190E0F3CF8FEF9FEFF0CF0F931F93F4
:10219000CF93DF931F92CDB7DEB78C01FC0184850E
:1021A000958597FF0BC0CE0101960E94B30F019752
:1021B00071F4898190E0F80195878487F80184851E
:1021C00095850F90DF91CF911F910F9108958FEF1B
:1021D0009FEFF1CFFC018485958597FD0BC09FB7DC
:1021E000F89482E08093E9008091F2009FBF90E034
:1021F000019608959FB7F89482E08093E90080915A
:10220000F2009FBF90E008954091D9015091DA010A
:102210002091D7013091D80142175307B4F490911F
:10222000E8009570E1F39091E80092FD19C0809369
:10223000F1008091D9019091DA0101968F7399276D
:10224000892B19F48EEF8093E8008091D901909149
:10225000DA0101969093DA018093D90181E0089523
:1022600080E00895EF92FF920F931F93CF93DF9337
:10227000F82E192FE62E042F81E0860F880F0E947A
:10228000041183E00E940411CF2DD12FEC0EFD2EFE
:10229000F11CCE15DF05B9F007FF13C0FE018491D4
:1022A0000E940411182F80E00E94041181232196BE
:1022B0008111EFCFDF91CF911F910F91FF90EF90A0
:1022C00008958881EDCF81E0F5CFDF92EF92FF9204
:1022D0000F931F93CF93DF93D82E8A01EB017B01DD
:1022E000E40EF51ECE15DF0559F0D7FE12C0FE0133
:1022F00084910E94041121968111F4CF0FEF1FEFFA
:10230000C801DF91CF911F910F91FF90EF90DF9067
:1023100008958881EECF0F931F93CF93DF931F9281
:10232000CDB7DEB782E0898342E450E060EA7BE12A
:1023300080E80E9465110E94EE0FDC0112960D915B
:102340001C910115110589F0D801ED91FC910280D5
:10235000F381E02DBE016F5F7F4FC801099597FDA6
:1023600004C0F80100851185ECCF89810F90DF91C1
:10237000CF911F910F910895615030F02091F1009D
:10238000FC0120830196F8CF289884E68093EB0126
:1023900008950895AF92BF92CF92DF92EF92FF928D
:1023A0000F931F93CF93DF936C017B018B01040F7D
:1023B000151FEB015E01AE18BF08C017D10759F019
:1023C0006991D601ED91FC910190F081E02DC6015B
:1023D0000995892B79F7C501DF91CF911F910F9155
:1023E000FF90EF90DF90CF90BF90AF900895282F8F
:1023F00030E0F901E458F94F9491F901E45FF34EAC
:102400008491275C334EF9012491222309F430C0D2
:102410009923E9F091509F30D0F4E92FF0E0ED5E80
:10242000FD4E0C94A62341124512221239123D1280
:1024300027122712271248124E12521256125C12FD
:1024400027126012909180009F7790938000E22F76
:10245000F0E0EE0FFF1FE55DF34EA591B4919FB73D
:10246000F894EC91611132C080958E238C939FBFBC
:102470000895909180009F7DE8CF90918000977F94
:10248000E4CF94B59F7794BDE2CF94B59F7DFBCF09
:10249000909190009F7790939000D9CF9091900069
:1024A0009F7DF9CF90919000977FF5CF9091C000DC
:1024B0009F779093C000CBCF9091C0009F7DF9CFC4
:1024C0009091C200977F9093C200C1CF8E2BCECF48
:1024D000CF93DF9390E0FC01E45FF34E2491875C9F
:1024E000934EFC0184918823C9F090E0880F991FD6
:1024F000FC01E55BF84FA591B491FC01E55DF34E5D
:10250000C591D49161110DC09FB7F8948C9120951D
:1025100082238C938881282328839FBFDF91CF91CA
:102520000895623051F49FB7F8943C91822F8095C2
:1025300083238C93E8812E2BEFCF8FB7F894EC9107
:102540002E2B2C938FBFEACF1F93CF93DF93182F9F
:10255000EB0161E00E946812209739F460E0812F5E
:10256000DF91CF911F910C94F711CF3FD10511F45A
:1025700061E0F5CFE12FF0E0E458F94FE491E1504C
:10258000EF3008F07FC0F0E0E853FD4E0C94A62336
:10259000D712DF12E412EE12F81242134213421362
:1025A00002130C13161320132D134213351384B585
:1025B000806884BDC7BDDF91CF911F91089584B518
:1025C000806284BDC8BDF7CF809180008068809311
:1025D0008000D0938900C0938800EDCF8091800067
:1025E000806280938000D0938B00C0938A00E3CFF9
:1025F00080918000886080938000D0938D00C0938C
:102600008C00D9CF80919000806880939000D09307
:102610009900C0939800CFCF809190008062809302
:102620009000D0939B00C0939A00C5CF80919000FA
:10263000886080939000D0939D00C0939C00BBCF96
:102640008091C00080688093C0008091C0008F7B23
:102650008093C000C093CF00AECF8091C000806255
:102660008093C000C093D000A6CF8091C200886044
:102670008093C2008091C2008B7F8093C200C09380
:10268000D20099CFC038D1050CF072CF67CFAB0123
:10269000FC010E949B0F41505109E109F10928F00A
:1026A00068517C4F8F4F9F4FF6CFAB01FC010E94CA
:1026B0009B0F641775078E079F07C8F308958FB1A6
:1026C0008095807F669B88601C9B84600895E09164
:1026D000AA01F091AB0190818091A9018095892395
:1026E000808308950F931F93CF93DF93182FD92FD3
:1026F000C0EB00E10E946713CEBD0DB407FEFDCF15
:102700000EBD0DB407FEFDCFE091AA01F091AB0123
:1027100080819091A901892B8083E12FFD2FCF012A
:1027200080589F4F21912EBD0DB407FEFDCF8E170F
:102730009F07C1F7182FD92FCF5FC83BD9F6DF917C
:10274000CF911F910F910895CF92DF92EF92FF9258
:102750000F931F93CF93E82FF0E0E85AF34EC49104
:10276000E62FF0E0603398F5E45BF94FE4910E2F2B
:1027700010E0F12CE12C60E074E284EF90E0A7011E
:1027800098010E942F23215031094109510991E0FC
:102790002115310581E0480751056CF060E970EDC5
:1027A00083E090E0A70198010E942F232150310976
:1027B0004109510993E0C13089F0C330F9F0CF915C
:1027C0001F910F91FF90EF90DF90CF900895EE0F43
:1027D000FF1FE45BFA4F05911491CBCF80918100EC
:1027E000887F892B80938100309389002093880013
:1027F00080916F00826080936F00E1CF80919100A3
:10280000887F892B809391003093990020939800C2
:1028100010939C0100939B0181E080939A01809129
:102820007100826080937100CACFE82FF0E0E85A0F
:10283000F34EE491E13019F0E33089F0089580918E
:102840006F008D7F80936F008091F001E091F10126
:10285000F091F201908180958923808308951092F0
:102860009A018091ED01E091EE01F091EF01F2CF3C
:10287000CF93DF939091F301923081F0C82FE92F2D
:10288000F0E0E85AF34ED4919F5F9093F30161E03A
:102890000E946812D13029F0D33049F1DF91CF91F5
:1028A00008951092800010928100809181008860CC
:1028B00080938100809181008160809381008C2FC2
:1028C00090E0FC01E75CF34EE491F0E0EE0FFF1FB7
:1028D000E55DF34E259134913093F2012093F1019F
:1028E000845F934EFC0184918093F001D7CF1092C6
:1028F00090001092910080919100886080939100E7
:10290000809191008160809391008C2F90E0FC0178
:10291000E75CF34EE491F0E0EE0FFF1FE55DF34E50
:10292000259134913093EF012093EE01845F934E13
:10293000FC0184918093ED018091F301882321F0C3
:102940006CE380E00E94A41380E0DF91CF910C94AF
:10295000151460387105E8F440345105D0F4342F73
:10296000369536953695A0E83A9FF0011124E60F8A
:10297000F71FE80FF91F3489CA018770992741E0D2
:1029800050E001C0440F8A95EAF7222319F0432B47
:10299000448B089540954323FBCF2F923F924F9253
:1029A0005F926F927F928F929F92AF92BF92CF92DF
:1029B000DF92EF92FF920F931F93CF93DF93CDB7E8
:1029C000DEB72D970FB6F894DEBF0FBECDBF6A30CD
:1029D00069F5FC01EA5EFB4FDC01A85EBB4F2C9160
:1029E00048E0249F9001112440815181240F351F1C
:1029F0003183208314971D921C922D960FB6F89464
:102A0000DEBF0FBECDBFDF91CF911F910F91FF9021
:102A1000EF90DF90CF90BF90AF909F908F907F907E
:102A20006F905F904F903F902F9008956D3029F3F5
:102A30009D878C878C5E9B4F9A838983FC01808065
:102A400091802C853D85285E3B4F3C832B8330E86D
:102A5000831691040CF071C0EC85FD85EA5EFB4F96
:102A60006080718040E4641671040CF066C0AB8134
:102A7000BC814C9045E09401449E200D311D1124F1
:102A8000121613060CF059C0242C312C910153E07E
:102A9000220F331F5A95E1F7260D371D1216130624
:102AA0000CF04BC0649FB001112410E000E0FB016A
:102AB000E455FF4FFB87EA87E0E0053029F0EA851F
:102AC000FB85E00FF11FE491530198E0592E2E2F62
:102AD00030E03E832D83E170EF83F12CE12CE41490
:102AE000D8F4C4018E0D9F1D99878887D12CC12CE5
:102AF000C41470F4A6014A0D5B1D2F816885798589
:102B00008C859D850E94A9149FEFC91AD90AF0CF20
:102B1000AFEFEA1AFA0AE3CFED81FE81F595E7956A
:102B20005A94A20CB31C5110D2CF0F5F1F4F820CCE
:102B3000931C0630110509F0BFCFEB81FC81208189
:102B4000422F50E0A981BA818D919C91B6E02B9FD4
:102B5000800D911D1124E981FA8191838083EC8598
:102B6000FD85E75EFB4F2081222309F446CF6AEF03
:102B700064039001659F300D112420583F4F2817A2
:102B800039070CF03ACFAC85BD85ED91FC911197DA
:102B90000190F081E02D6AE0CD012D960FB6F894FA
:102BA000DEBF0FBECDBFDF91CF911F910F91FF9080
:102BB000EF90DF90CF90BF90AF909F908F907F90DD
:102BC0006F905F904F903F902F9009940F931F93B9
:102BD000CF93DF938C01D0E0C0E0F801EC0FFD1F34
:102BE0006491662341F086E492E00E94CD14892B23
:102BF00011F02196F2CFCE01DF91CF911F910F916D
:102C00000895089590E080E00895CF93C091F40175
:102C100080EA91E00E941923C81729F06C2F80EAFE
:102C200091E00E942123C091F50181EA91E00E9488
:102C30001923C81729F06C2F81EA91E00E94212303
:102C400084EF91E0CF9108958F929F92AF92BF92BF
:102C50000F931F93CF93DF93CDB7DEB7A1970FB636
:102C6000F894DEBF0FBECDBF19A2423008F44AE08F
:102C70008E010F5D1F4F842E912CB12CA12CA5012C
:102C800094010E946123E62FB901CA01EA3044F59C
:102C9000E05DD801EE938D01232B242B252B79F7B2
:102CA00090E080E0109769F0FD0101900020E9F7C5
:102CB0003197AF014A1B5B0BBD0186E492E00E9495
:102CC000CA11A1960FB6F894DEBF0FBECDBFDF913B
:102CD000CF911F910F91BF90AF909F908F900895CB
:102CE000E95CD7CFFC0101900020E9F73197AF01F3
:102CF000481B590BBC0186E492E00C94CA11CF9298
:102D0000DF92EF92FF92CF93DF936C01990FEE0861
:102D1000FF08F7FE19C06DE286E492E00E94CD1430
:102D2000EC0166277727CB016C197D098E099F0975
:102D30004AE00E9424168C0F9D1FDF91CF91FF90D7
:102D4000EF90DF90CF9008954AE0C701B601DF9180
:102D5000CF91FF90EF90DF90CF900C9424161092BB
:102D6000CB011092CA0180E890E09093010180931A
:102D7000000181E090E09093C5018093C40110921E
:102D8000D1011092D0011092C7011092C601109289
:102D9000C9011092C8011092D3011092D20184E1AE
:102DA00090E0909305018093040181E080930201FB
:102DB000809303010E94092364EF71E00E94922333
:102DC000845D9E4F9093D3018093D20108951F920A
:102DD0000F920FB60F9211248F939F938091E10071
:102DE0009091E100937F9093E10083FF0FC01092D8
:102DF000E90091E09093EB001092EC0092E3909345
:102E0000ED001092EC0198E09093F00082FF22C058
:102E100093E09093E9009091F200992319F09AE3DE
:102E20009093E8009091DD01992341F09091DD01AC
:102E300091509093DD01911101C05D9A9091EB0149
:102E4000992341F09091EB0191509093EB019111F6
:102E500001C0289A84FF18C08091E2008E7E8160B4
:102E60008093E2008091E1008F7E8093E100809169
:102E7000DE018E7E80618093DE019F918F910F90A5
:102E80000FBE0F901F90189580FFF7CF8091E20042
:102E90008E7E80618093E2008091E1008E7E80933F
:102EA000E1008091DE018E7E8160E5CF1F920F925E
:102EB0000FB60F921124CF92DF92EF92FF920F93F1
:102EC0001F932F933F934F935F936F937F938F93B2
:102ED0009F93AF93BF93EF93FF93CF93DF93CDB7C0
:102EE000DEB76C97DEBFCDBF1092E9008091E8009D
:102EF00083FF25C068E0CE0145960E94BC1182EF99
:102F00008093E8008D8987FF39C09091E80090FF99
:102F1000FCCF982F907609F034C19E894F89588D47
:102F20002F89F88C911131C0803861F58091DC01D6
:102F30008093F1001092F1008EEF8093E8006C9680
:102F40000FB6F894DEBF0FBECDBFDF91CF91FF91DA
:102F5000EF91BF91AF919F918F917F916F915F9111
:102F60004F913F912F911F910F91FF90EF90DF9024
:102F7000CF900F900FBE0F901F9018959EEF9093DB
:102F8000E800C7CF1092F100D5CF913059F48111EC
:102F9000D3CF4130510581F68091DC018D7F809344
:102FA000DC01CACF933049F48111C6CF41305105BD
:102FB00019F68091DC018260F2CF953041F4809166
:102FC000E80080FFFCCF20682093E300B5CF963067
:102FD00009F0A9C00B8D1C8D22E01092E90010921F
:102FE000DA011092D901F2122EC01092D80110927B
:102FF000D7010E948B111F8299E09983FA8291E098
:103000009E8390EA98879AEF99872091D901309111
:10301000DA01275F3F4F3C832B838D831092E900B9
:103020001092DA011092D9011093D8010093D701C0
:1030300049E050E0BE016F5F7F4F80E00E94651164
:103040000E948B1179CF1093D8010093D7010E9471
:10305000EE0FDC0112960D911C910115110509F47A
:1030600051C1D801ED91FC910480F581E02DBE01A4
:103070006B5E7F4FC8010995009709F03EC1F801CA
:1030800000851185EACFF3E0FF120EC08F898823F7
:1030900009F440C0823061F440E867E084E09CE1DC
:1030A0000E943211811148CF81E28093EB0047CF1B
:1030B000813029F440E86BE088EF9BE1F1CF833069
:1030C00099F70E94EE0FDC011296ED90FC908E01B4
:1030D0000F5F1F4F6801E114F10479F0D701ED9102
:1030E000FC910680F781E02DB801C7010995080F12
:1030F000111DF701E084F184EECFD8011C92F60196
:1031000001900020E9F73197BF016C197D0940E07B
:10311000C601C6CF62EE7BE1FB01449150E080E83E
:103120000E94651109CF973009F4BECF983021F481
:1031300081E08093F10000CF993009F0FDCE8370DB
:1031400009F0B2CFE8E1F1E081E031E096E32191CE
:10315000222371F08093E9003093EB00DF01119797
:103160002C912093EC009093ED008F5F873079F7DE
:103170008EE78093EA001092EA008F898093EC0139
:10318000DBCE8B8D9C8D1092E9001092DA011092AB
:10319000D9019093D8018093D701898D811192C074
:1031A0008E899D89913A49F4813209F07DCF47E0BB
:1031B00050E06BE071E080E0B3CF913209F074CF62
:1031C000833269F48F89988DB0E0A0E08093070185
:1031D00090930801A0930901B0930A01ADCE80320B
:1031E00069F48091E80082FFFCCF67E08BE091E01A
:1031F0000E94BC118BEF8093E8009ECE823209F0D2
:103200009BCE8F8980931201EEEFFFE78591949119
:103210008B3F9C4D51F1E0E0F8E080910B019091E3
:103220000C01A0910D01B0910E01803B9440A105CD
:10323000B105F1F48091120180FD1AC0EE3F8AE0E1
:10324000F80789F587E797E791838083809160008D
:103250008093DB0188E19BE00FB6F894A8958093FA
:1032600060000FBE9093600067CEEEEFFAE0D5CF1E
:10327000808191818737974709F05ECEA89580912C
:1032800060008861809360008091DB018093600022
:10329000EE3F2AE0F20789F08091FE0A9091FF0A42
:1032A0009183808349CE808191818737980751F23D
:1032B0009093FF0A8093FE0AC5CF1092FF0A1092E6
:1032C000FE0A3ACE0E94EE0FDC0112960D911C917F
:1032D0000115110509F4E8CED801ED91FC9101909A
:1032E000F081E02DBE016B5E7F4FC8010995811111
:1032F00023CEF80100851185EBCF181619060CF4C2
:103300001BCED2CEF1E0FF12BECE66EE7BE104CF43
:103310000F920FB68F939F93EF93FF9380919E012F
:103320008D5F8D3708F08D5780939E01EFE9F1E0B6
:1033300080818E4F808391819F4F918382818F4FB7
:10334000828383818F4F8383E3EAF1E080818F5F03
:10335000808381818F4F818382818F4F828383819C
:103360008F4F83838FB18F6066991C9B88278F3620
:1033700081F480919D01981B963068F0E0E0F8E0C0
:1033800087E78083818388E180936000F093600009
:10339000FFCF90939D01FF91EF919F918F910FBE71
:1033A0000F9018951F920F920FB60F9211242F9322
:1033B0003F934F935F936F937F938F939F93AF93BD
:1033C000BF93EF93FF9380919A01882349F08091F6
:1033D000ED01E091EE01F091EF019081892780836A
:1033E0008091A701882309F456C08091960190919D
:1033F0009701A0919801B0919901892B8A2B8B2B71
:1034000009F449C08091960190919701A09198018B
:10341000B09199010197A109B10980939601909308
:103420009701A0939801B0939901892B8A2B8B2B3C
:1034300091F5E0919401F0919501BF016F5F7F4F8D
:1034400070939501609394012491922F907F822F25
:103450008F70903819F40E941514EBCF903981F4D5
:103460003296F0939501E0939401FB016491909161
:10347000F3018917F0F667FDDCCF0E94A413D9CFC2
:10348000903E29F41092950110929401D2CF903F72
:1034900099F41092A701FF91EF91BF91AF919F9185
:1034A0008F917F916F915F914F913F912F910F90ED
:1034B0000FBE0F901F90189597FDBBCF3296F093DB
:1034C0009501E0939401FB016491A0919B01B0915F
:1034D0009C01322F262F0E9483236C507E4F8F4FEA
:1034E0009F4F28EE33E040E050E00E94612320939C
:1034F00096013093970140939801509399018091E0
:10350000960190919701A0919801B0919901892B12
:103510008A2B8B2B09F0BFCF81E090E0A0E0B0E0D8
:103520008093960190939701A0939801B09399018D
:10353000B2CF1F920F920FB60F9211248F939F93C9
:10354000AF93BF93EF93FF9380919301882309F486
:1035500052C080918F0190919001A0919101B09102
:103560009201892B8A2B8B2BA1F19091F001E09194
:10357000F101F091F20180818927808380918F0190
:1035800090919001A0919101B091920118161906A5
:103590001A061B069CF480918F0190919001A091D6
:1035A0009101B09192010197A109B10980938F0116
:1035B00090939001A0939101B0939201FF91EF91AC
:1035C000BF91AF919F918F910F900FBE0F901F9061
:1035D00018951092930180916F008D7F80936F00FA
:1035E0008091F001E091F101F091F20190818095DC
:1035F00089238083E3CF9091F001E091F101F09174
:10360000F20180818927F5CFE6EFF1E01382128283
:1036100088EE93E0A0E0B0E084839583A683B7832F
:1036200082E291E0918380838FEF9FEF958784877B
:10363000E6E4F2E01382128284E391E091838083D6
:103640008CE3868380E18187108617821686178631
:10365000108A118A128A10925B0610925A061092F2
:103660005D0610925C0681E080935E060895789472
:1036700083E084BD83E085BD81E080936E00E1E856
:10368000F0E083E08083E0E881E08083E1E983E0AB
:103690008083E0E981E08083E1EC87E08083E3ECF4
:1036A00081E08083E0EC82E08083E2EC81E0808353
:1036B000EAE787E08083806880831092EC011092B3
:1036C000DC011092DE018091D70081608093D700E9
:1036D00080EA8093D80089B5806189BD89B5826010
:1036E00089BD09B400FEFDCF0E94860F8091D800ED
:1036F0008F7C80618093D8008091E000807F8093F0
:10370000E0008091E1008E7E8093E1008DE0809367
:10371000E200559A209ACFB7F8948091A8018111C0
:1037200027C0EAE4FCE18491EDE1FCE19491E82F0B
:10373000F0E0EE0FFF1FE55BF84FA591B491EC911F
:10374000E92321F461E081E10E94F71161E081E168
:103750000E9468128CB580618CBD8CB580648CBD74
:1037600061E08FE00E94681261E080E10E946812CF
:103770008091A8018F5F8093A801CFBFC3E6D7E0F7
:10378000BE01FE0184916F5F7F4F2296FB01649121
:10379000882319F00E946812F3CF61E082E00E9452
:1037A000F71161E070E080E090E00E94471360E074
:1037B00082E00E94F7116AE070E080E090E00E94F1
:1037C000471361E082E00E94F7118AE39CE1FC016B
:1037D0002491E22FF0E0EE0FFF1FE55DF34E2591FF
:1037E0003491EDE0FCE12491FC018491E82FF0E0BC
:1037F000EE0FFF1FE55DF34EA591B4918C91E22F82
:10380000E095E823EC93EDE3FCE1E491F0E0EE0FCA
:10381000FF1FE55DF34E859194919093AB018093EA
:10382000AA01E0E1FCE1E491E093A9018CB58C7F71
:103830008CBD8DB581608DBD0E946713E9E5F7E011
:1038400083E697E024912EBD00000DB407FEFDCF66
:103850002EB531968E179F07A9F7E091AA01F09136
:10386000AB0180819091A901892B808380916400B4
:103870008160809364008091640082608093640022
:10388000809164008068809364008091640080640B
:1038900080936400809165008160809365000E9440
:1038A0005F1387FF1AC080E294E01EBC00000DB4D5
:1038B00007FEFDCF2EB50197C1F770E060E08AE00A
:1038C0000E94A41270E060E083E00E94A41270E005
:1038D00060E089E00E94A412FFCFCEEEDFEFBE01D0
:1038E00069517F4F8AE00E94A4126FEF70E083E07D
:1038F0000E94A4126FEF70E089E00E94A4120E945F
:10390000790FEE24E39400E128E54BE956E0BE018F
:1039100084E190E00E94580E8AE592E00E947213C2
:103920006BE170E080E090E00E944713C03F31F40B
:103930006AEF70E080E090E00E9447132196C93161
:10394000D10569F66EEE72E080E090E00E944713C8
:103950006FEF70E08AE00E94A4126FEF70E083E0E6
:103960000E94A4126FEF70E089E00E94A41285E02B
:103970000E94381486E00E9438141092A70182E059
:1039800090E00E941923882351F080916400877F82
:103990008093640080916500877F8093650086E94D
:1039A00080934C0286E080934F028AE592E00E9469
:1039B000721390E080E00E940E2380EA91E00E9462
:1039C00019238093F40181EA91E00E9419238093E6
:1039D000F501CCEAD1E094E1292E312C2EE1622EC2
:1039E000712C82E0A82EB12C0E94790F8091D50114
:1039F0009091D6018230910509F43FC1B4F400974B
:103A000009F452C0019709F4A7C0809106018823E8
:103A100009F48CC08AE592E00E94721380E090E085
:103A2000892B11F30E940000DCCF8F30910509F43F
:103A3000BEC08031910509F4FAC0039731F7809137
:103A4000CA019091CB01803491050CF0B6C4049664
:103A50009093CB018093CA011092CD011092CC01BA
:103A60000091CC011091CD01063211050CF087C4F4
:103A70001092CF011092CE01E090CE01F090CF01D4
:103A800090E8E916F1040CF073C421E0A801B70135
:103A900086E492E00E94A914EFEFEE1AFE0AF0927B
:103AA000CF01E092CE01E8CFEE24E39400E320E3DF
:103AB00040E85AE170E060E090E080E00E94580E3B
:103AC00020E340E659E170E060E080E390E00E948E
:103AD000580E20E340E458E170E060E080E690E0BA
:103AE0000E94580E70925B0660925A068FE290E038
:103AF00090935D0680935C068CE391E00E947216C1
:103B000030925B0620925A0687E390E090935D0620
:103B100080935C0689E491E00E9472160E945F1314
:103B200083FF0CC08091060181110DC00E945F13BC
:103B300083FD70CF81E0809306016CCF0E945F13FC
:103B400082FDF0CF62CF81E090E09093D601809328
:103B5000D5011092060159CFEE24E39400E120E153
:103B600040E258E163E370E08EE690E00E94580E78
:103B700010925B0610925A0610925D0610925C0637
:103B80008FEB97E10E94E6150E945F1383FF3DCF04
:103B900080910601882351F28FE090E09093D60146
:103BA0008093D501109206010E94AF162ECFEE240D
:103BB000E39400E120E140E258E163E370E08EE647
:103BC00090E00E94580E10925B0610925A061092D6
:103BD0005D0610925C0689E897E10E94E6150E9456
:103BE0005F1382FF16C00E945F1387FF12C080918F
:103BF0000601882371F020E130E03093D601209354
:103C0000D501109206011092F5011092F4010E9464
:103C100005160E945F1383FFF8CE8091060188236A
:103C200009F484CFB092D601A092D501BBCFEE2487
:103C3000E39400E120E140E258E163E370E08EE6C6
:103C400090E00E94580E10925B0610925A06109255
:103C50005D0610925C0686E597E10E94E6150E94DB
:103C60005F1383FFD2CE80910601882309F45ECFD3
:103C70001092D6011092D50195CF1092D401809068
:103C80000401909005010091D2011091D30108190F
:103C900019091093D3010093D2010E945F1383FF8F
:103CA0001CC0809106018823C1F080910301882304
:103CB000A1F080910201882381F0109206011092F8
:103CC0000301013811054CF08091D0019091D10190
:103CD0000A979093D1018093D0011092CF01109256
:103CE000CE01E090CE01F090CF0130E8E316F10470
:103CF0001CF51092CD011092CC01C090CC01D09057
:103D0000CD0186E2C816D1047CF421E0A601B701FA
:103D100086E492E00E94A9149FEFC91AD90AD092B2
:103D2000CD01C092CC01E9CFEFEFEE1AFE0AF0927E
:103D3000CF01E092CE01D5CFC80108978837910511
:103D400008F02BC280910201882371F08091030159
:103D5000882351F08091D0019091D101880E991E55
:103D60009092D1018092D00180910201882309F4C0
:103D700082C08091030181117EC08091CA0190911F
:103D8000CB0103969093CB018093CA018091D0011F
:103D90009091D101843691052CF049969093D101F0
:103DA0008093D0018091D0019091D101009791F042
:103DB0002091C8013091C901280F391F3093C901E2
:103DC0002093C8019093C7018093C6011092D1013E
:103DD0001092D0010E945F1383FF4AC080910601B8
:103DE000882309F445C080910001909101011816C3
:103DF0001906F4F1109206018091C4019091C50159
:103E000001969093C5018093C4010E9409236CE23E
:103E100071E00E949223825A9E4F9093D301809327
:103E2000D2010091C4011091C501043111050CF0BB
:103E3000C0C10E940923065F1F4F6EE070E00E9420
:103E40009223080F191F109305010093040181E0CC
:103E500080930301B092D601A092D5011092CB01BC
:103E60001092CA0120E830E0309301012093000154
:103E700081E08093D40180910201811132C00E94BF
:103E80005F1383FF2BC080910601882339F1809155
:103E90000001909101011816190604F11092060113
:103EA00083E090E09093D6018093D5011092CB01EE
:103EB0001092CA018091C8019091C9012091F4012A
:103EC0003091F501281739074CF41816190634F407
:103ED0009093F5018093F4010E94051681E0809390
:103EE000D401EE24E39404E420E346E956E166E2DB
:103EF00070E090E080E00E94580E20E346E956E131
:103F000066E270E080E390E00E94580E20E346E90C
:103F100056E166E270E080E690E00E94580EC090A4
:103F2000D201D090D301E12C00E320E346E755E134
:103F300061E070E0C6010E94580EEE24E39420E395
:103F400046E554E161E070E0C6010E94580E46016A
:103F500090E3890E911CE12C20E346E353E161E0FC
:103F600070E0C4010E94580EEE24E39420E346E181
:103F700052E161E070E0C4010E94580E4601E0E6A3
:103F80008E0E911CE12C20E346EF50E161E070E0E1
:103F9000C4010E94580EEE24E39420E346ED5FE056
:103FA00061E070E0C4010E94580E4601FFE88F0EE8
:103FB000911CE12C20E346EB5EE061E070E0C4017F
:103FC0000E94580EEE24E39420E346E95DE061E0B0
:103FD00070E0C4010E94580E46012FEB820E911C26
:103FE000E12C20E346E75CE061E070E0C4010E9460
:103FF000580EEE24E39420E346E55BE061E070E0D8
:10400000C4010E94580E46013FEE830E911CE12C24
:1040100020E346E35AE061E070E0C4010E94580EDC
:10402000EE24E39420E346E159E061E070E0C4014E
:104030000E94580E460182EE881A8EEF980AE12CF3
:1040400020E346EB5EE061E070E0C4010E94580EA0
:10405000EE24E39420E346E95DE061E070E0C40112
:104060000E94580E460192EB891A9EEF990AE12CA4
:1040700020E346E75CE061E070E0C4010E94580E76
:10408000EE24E39420E346E55BE061E070E0C401E8
:104090000E94580E4601E2E88E1AEEEF9E0AE12CCD
:1040A00020E346E35AE061E070E0C4010E94580E4C
:1040B000EE24E39420E346E159E061E070E0C401BE
:1040C0000E94580E909002019920F1F04090CA0190
:1040D0005090CB014114510409F077C0E12C0AE162
:1040E0002AE14EEA58E06CE170E085E090E00E9441
:1040F000580EEE24E3942AE146E458E06CE170E0C7
:1041000085E090E00E94580E8091D401882309F444
:104110007CCC80910001909101011816190654F48D
:1041200032EAC3163EEFD3062CF4089790930101B0
:10413000809300011092CD011092CC01E090CC014F
:10414000F090CD01009100011091010180E4E8168A
:10415000F1040CF071C0C8018E0D9F1D9093CF012A
:104160008093CE01005C1F4F0E0D1F1DC090CE012D
:10417000D090CF01C016D1060CF056C020E0A701A8
:10418000B60186E492E00E94A9149FEFC91AD90AE9
:10419000D092CF01C092CE01E9CF083011050CF0CA
:1041A000E3CD80910301882309F4DECD1092020152
:1041B000DBCD0E94092364E170E00E9492234E96B9
:1041C000909305018093040142CEFFE04F16510405
:1041D000B4F42BE1420E511CE12C0AE12AE14EED30
:1041E00057E0B20187E090E00E94580EEE24E3947D
:1041F0002AE146E757E0B20187E090E083CFE12C67
:104200000AE12AE14EEA58E06BE270E089E090E0D2
:104210000E94580EEE24E3942AE146E458E06BE253
:1042200070E089E090E06ECFEFEFEE1AFE0AF092B8
:10423000CD01E092CC0182CF992009F469C0045DE0
:104240001F4F10935B0600935A0630925D06209232
:104250005C0689E591E00E947216809100019091C0
:104260000101C79690935B0680935A0670925D0693
:1042700060925C068091C6019091C70118161906DC
:104280000CF043C085369105DCF19F938F932FE5A9
:1042900031E03F932F93DF93CF930E94C0238CEAAA
:1042A00091E00E9472160F900F900F900F900F9058
:1042B0000F908091000190910101805C9F4F90933D
:1042C0005B0680935A0628E230E030935D06209327
:1042D0005C068091C8019091C9010E947F1680916F
:1042E000000190910101EE24E39400E120E140E21D
:1042F00058E163E370E0805A9F4F0E94580E85CBCF
:104300009F938F9324E631E0C4CF0E947F16D1CFD4
:10431000035D1F4F10935B0600935A0630925D06B3
:1043200020925C0688E691E00E947216809100015E
:1043300090910101C79690935B0680935A06709204
:104340005D0660925C068CE691E00E947216809198
:10435000000190910101805C9F4F90935B068093D8
:104360005A0688E290E090935D0680935C06B1CF98
:104370000F5F1F4F1093CD010093CC0171CBEE2442
:10438000E39404E420E346E956E166E270E090E05D
:1043900080E00E94580E20E346E956E166E270E0B4
:1043A00080E390E00E94580E20E346E956E166E281
:1043B00070E080E690E00E94580E1092CD011092BD
:1043C000CC010091CC011091CD01003411052CF5E8
:1043D0001093CF010093CE016801FFE3CF0ED11CF3
:1043E000E090CE01F090CF01CE14DF047CF020E00D
:1043F000A801B70186E492E00E94A9142FEFE21A07
:10440000F20AF092CF01E092CE01EACF0F5F1F4F88
:104410001093CD010093CC01D4CFC090CA01D090AD
:10442000CB0180E490E08C199D099093CD0180939D
:10443000CC010091CC011091CD010034110514F58F
:104440001092CF011092CE01E090CE01F090CF01FA
:1044500030E8E316F1047CF420E0A801B70186E41B
:1044600092E00E94A9148FEFE81AF80AF092CF01A7
:10447000E092CE01E9CF0F5F1F4F1093CD01009363
:10448000CC01D7CF09E210E010935B0600935A06E7
:1044900085E490E08C199D0990935D0680935C06FD
:1044A00082E791E00E9472162091CA013091CB01FF
:1044B0008FE490E0821B930B10935B0600935A06E7
:1044C00090935D0680935C068091C9018F938091E3
:1044D000C8018F9381E891E09F938F93DF93CF93EF
:1044E0000E94C0238CEA91E00E9472162091CA01BA
:1044F0003091CB0188E690E0821B930B29E130E0FC
:1045000030935B0620935A0690935D0680935C0679
:104510008091F5018F938091F4018F938CE791E066
:104520009F938F93DF93CF930E94C0238CEA91E0F7
:104530000E9472160E945F13EDB7FEB73C960FB64D
:10454000F894FEBF0FBEEDBF83FF0CC08091060143
:10455000882341F0B092D601A092D50110920601B5
:104560000E94AF16EE24E39400E120E140E258E11E
:1045700063E370E08EE690E0C0CE8F929F92AF92A0
:10458000BF92CF92DF92EF92FF92CF93DF93EC0135
:10459000688179818A819B81611571058105910509
:1045A00021F464E279ED8BE597E02DE133EF41E012
:1045B00050E00E942F2349015A019B01AC01A7EA58
:1045C000B1E40E944E236B017C01ACEEB4EFA50177
:1045D00094010E945C23DC01CB018C0D9D1DAE1D5E
:1045E000BF1DB7FF03C00197A109B0488883998315
:1045F000AA83BB839F77DF91CF91FF90EF90DF90ED
:10460000CF90BF90AF909F908F9008950E94BD2251
:10461000089583E191E00E94BD220895B0E0A0E0FA
:104620008093130190931401A0931501B093160188
:104630000895F999FECF92BD81BDF89A992780B56A
:104640000895262FF999FECF1FBA92BD81BD20BDD6
:104650000FB6F894FA9AF99A0FBE01960895052EAE
:1046600097FB1EF400940E94462357FD07D00E943A
:10467000612307FC03D04EF40C94462350954095DB
:10468000309521953F4F4F4F5F4F089590958095FE
:10469000709561957F4F8F4F9F4F08950E948323A0
:1046A000A59F900DB49F900DA49F800D911D112486
:1046B0000895B7FF0C944E230E944E23821B930B48
:1046C0000895A1E21A2EAA1BBB1BFD010DC0AA1F53
:1046D000BB1FEE1FFF1FA217B307E407F50720F06B
:1046E000A21BB30BE40BF50B661F771F881F991FE6
:1046F0001A9469F760957095809590959B01AC012F
:10470000BD01CF010895A29FB001B39FC001A39F37
:10471000700D811D1124911DB29F700D811D1124FA
:10472000911D089597FB072E16F4009407D077FD8E
:1047300009D00E94AC2307FC05D03EF490958195EA
:104740009F4F0895709561957F4F0895EE0FFF1F5D
:104750000590F491E02D0994AA1BBB1B51E107C001
:10476000AA1FBB1FA617B70710F0A61BB70B881F01
:10477000991F5A95A9F780959095BC01CD01089590
:10478000AEE0B0E0E6ECF3E20C946F260D891E89F2
:1047900086E08C831A8309838FEF9FE79E838D8346
:1047A000AE01475E5F4F6F89788DCE0101960E9402
:1047B000E3232F813885020F131FF80110822E96F4
:1047C000E4E00C948B26ABE0B0E0E9EEF3E20C946D
:1047D00061267C013B018A01FC01178216828381DC
:1047E00081FFC8C1CE0101965C01F7019381F301FD
:1047F00093FD859193FF81913F01882309F453C173
:10480000853239F493FD859193FF81913F01853283
:1048100029F4B70190E00E94D325E7CF912C212CF9
:10482000312CFFE1F31538F08B3211F190F4803226
:1048300009F1833229F137FC3CC020ED280F2A30E2
:1048400050F536FE20C08AE0989E200D1124922E4D
:1048500006C08D3291F0803371F7689430F8F3011F
:1048600093FD859193FF81913F018111DACF21C0A2
:10487000689431F8689432F8F2CF689433F8EFCF47
:10488000689434F8ECCFEAE02E9E200D1124222EFD
:10489000689435F8E4CF8E3229F436FC04C168946C
:1048A00036F8DDCF8C3619F4689437F8D8CF8836CF
:1048B000B1F2982F9F7D95549330E0F08336A1F1AB
:1048C0008337C1F1833509F063C02801F2E04F0E50
:1048D000511CF801C080D180692D70E036FC02C007
:1048E0006FEF7FEFC6010E94BD254C01689437F839
:1048F00082010AC00C5F1F4FFFE3F9838824839471
:10490000912C6501E89437F833FE2DC0522C8114A8
:10491000910471F5552009F468CFB70180E290E069
:104920000E94D3255A94F6CFF801808189830E5FC7
:104930001F4FE4CF2801F2E04F0E511CF801C08058
:10494000D180692D70E036FC02C06FEF7FEFC601A9
:104950000E94C8254C018201D5CFB70180E290E0CA
:104960000E94D3252A942814190409F0B0F7CECF59
:10497000F60137FC859137FE81916F01B70190E018
:104980000E94D32551105A94F1E08F1A9108BFCF9D
:10499000843619F0893609F077C0F80137FE6BC00C
:1049A00060817181828193810C5F1F4FF32DFF76AF
:1049B0003F2E97FF09C090958095709561957F4F28
:1049C0008F4F9F4F689437F82AE030E0A5010E948E
:1049D0000326C82ECA188C2C432C36FE0CC0E89433
:1049E00040F8C91440F434FE05C032FC03C0F32D76
:1049F000FE7E4F2E892C44FE95C0FE01EC0DF11D6C
:104A00008081803309F087C0242D297E422E842D99
:104A10008870582E43FC95C040FE8FC09C2C821499
:104A200018F42C0C922C981844FE91C0B70180E326
:104A300090E00E94D32542FE09C088E790E041FE45
:104A400002C088E590E0B7010E94D325C91408F49C
:104A50008AC0CA94D12C9FEFC91AD90ACA0CDB1C90
:104A6000F60182916F01B70190E00E94D325AC144A
:104A7000BD04B1F74FCF60817181072E000C880B08
:104A8000990B0E5F1F4F92CFD32CE894D4F82AE0F5
:104A900030E0853739F1232D297FD22E8F3601F171
:104AA00048F48835A9F0F701868197812B96E2E1D9
:104AB0000C947D26803749F08837A9F7D4FE02C0D0
:104AC0006894D2F820E130E00DC06894D4F8F6CFB5
:104AD00034FE03C0822F8660D82E20E132E002C06F
:104AE00028E030E0F801D7FE0FC06081718182813B
:104AF00093810C5F1F4FA5010E940326C82ECA1880
:104B00003D2CE89437F867CF6081718190E080E0B8
:104B10000E5F1F4FF0CF42FC02C0839478CF839486
:104B2000839475CF842D867809F471CFF6CFB701C1
:104B300080E290E00E94D32583948214C0F3512C2C
:104B400073CF522C5818821408F46ECFF8CF842DEE
:104B5000867809F47BCF8BE241FE80E247FC8DE250
:104B6000B70190E071CFB70180E390E00E94D325B8
:104B70009A946CCF8FEF9FEF99CFFC010590615015
:104B800070400110D8F7809590958E0F9F1F089563
:104B9000FC016150704001900110D8F7809590950C
:104BA0008E0F9F1F08950F931F93CF93DF93182F9E
:104BB000092FEB018B8181FD09C01FEF0FEF812FC2
:104BC000902FDF91CF911F910F91089582FF14C014
:104BD0002E813F818C819D81281739073CF4E88123
:104BE000F981CF0101969983888310838E819F81FB
:104BF00001969F838E83E3CFE885F985812F099500
:104C0000892BA1F3DACFFA01AA27283051F12031FC
:104C100081F1E8946F936E7F6E5F7F4F8F4F9F4F50
:104C2000AF4FB1E03ED0B4E03CD0670F781F891F92
:104C30009A1FA11D680F791F8A1F911DA11D6A0F60
:104C4000711D811D911DA11D20D009F468943F9113
:104C50002AE0269F11243019305D3193DEF6CF0112
:104C60000895462F4770405D4193B3E00FD0C9F7D8
:104C7000F6CF462F4F70405D4A3318F0495D31FD45
:104C80004052419302D0A9F7EACFB4E0A695979598
:104C9000879577956795BA95C9F70097610571056E
:104CA00008959B01AC010A2E0694579547953795B8
:104CB0002795BA95C9F7620F731F841F951FA01D12
:104CC00008952F923F924F925F926F927F928F92B0
:104CD0009F92AF92BF92CF92DF92EF92FF920F938B
:104CE0001F93CF93DF93CDB7DEB7CA1BDB0B0FB695
:104CF000F894DEBF0FBECDBF09942A883988488852
:104D00005F846E847D848C849B84AA84B984C884E7
:104D1000DF80EE80FD800C811B81AA81B981CE0FDE
:104D2000D11D0FB6F894DEBF0FBECDBFED010895C3
:044D3000F894FFCF25
:104D340080000101140001FFFFFFFF00E1000000FB
:104D44000000000100000000C1808100000000009C
:104D5400000083100210A4109910EA10A810C610C5
:104D640000000000CD14CA1102160116312E3120A4
:104D74002D20406372616974004A6F6E61746861CA
:104D84006E20486F6C6D65730053434F5245002B82
:104D9400256421002B256400594F5500444945449E
:104DA400210047414D45204F564552004849474848
:0C4DB4002053434F52453A202564000074
:00000001FF
